:100000000C94B7030C94DF030C94DF030C9461048D
:100010000C9461040C9461040C94DF030C94DF03D2
:100020000C94DF030C94DF030C94DF030C94DF03C8
:100030000C94DF030C94DF030C94DF030C94DF03B8
:100040000C94490E0C94DF030C94490D0C94230D71
:100050000C94DF030C94DF030C94DF030C94DF0398
:100060000C94DF030C94DF03556E6B6E6F776E207C
:10007000636F6D6D616E6400436F6D6D616E646181
:100080002074656C3200436F6D6D616E6461207425
:10009000656C310070686F6E652069676E6F7265A0
:1000A00064004E6F20696E7465726E657420636FB4
:1000B0006E6E656374696F6E000A66726565206DA9
:1000C000656D6F72793A2000496E74657276616C65
:1000D000207365633A002B434D5400534D533A004F
:1000E0000A53494D38303020736574757020656E41
:1000F00064000A496E74657276616C3A20002B3791
:100100003931363236333237303100436C65617203
:1001100020454550524F4D20456E64005374617226
:100120007420636C65617220454550524F4D004507
:1001300052524F520053657474696E672075702077
:100140006E6574776F726B2E2E2E004F4B005265CA
:1001500073657474696E672E2E2E002053494D38D6
:10016000303020736574757020737461727400543C
:10017000696D656F666600526573746172740054D0
:10018000696D6573657400204572726F72733A0011
:10019000546F74616C3A006E6F20636F6D706172A2
:1001A00065005B5061796C6F61645D200052657120
:1001B00075657374696E67200031372F30312F30C9
:1001C000312C31303A31303A3130203030005374F4
:1001D00072696E67206C656E6774683A2000534DD3
:1001E000532E5255002B37393939303030303030BA
:1001F0003000E501DE01CE01B901AD01A201970198
:10020000900187017F0177016F015B014E014B0176
:1002100035012F011C010B01FE00F200E000DB00A4
:10022000D600C800B900A2009400860078006800DB
:10023000005EBCE2613FDD83C29C7E20A3FD1F41C6
:100240009DC3217FFCA2401E5F01E3BD3E6082DCB6
:10025000237D9FC1421CFEA0E1BF5D0380DE3C62A6
:10026000BEE0025CDF81633D7C22C09E1D43A1FF96
:100270004618FAA427799BC584DA3866E5BB590786
:10028000DB856739BAE406581947A5FB7826C49A76
:10029000653BD987045AB8E6A7F91B45C6987A2466
:1002A000F8A6441A99C7257B3A6486D85B05E7B956
:1002B0008CD2306EEDB3510F4E10F2AC2F7193CD46
:1002C000114FADF3702ECC92D38D6F31B2EC0E5036
:1002D000AFF1134DCE90722C6D33D18F0C52B0EE26
:1002E000326C8ED0530DEFB1F0AE4C1291CF2D7316
:1002F000CA947628ABF517490856B4EA6937D58B06
:100300005709EBB536688AD495CB2977F4AA4816F5
:10031000E9B7550B88D6346A2B7597C94A14F6A8E5
:10032000742AC896154BA9F7B6E80A54D7896B35D5
:1003300000000000240027002A000000000800023E
:1003400001000003040700000000000000000D0A87
:10035000004572726F72002B48545450524541440C
:100360003A200041542B48545450524541440030E7
:100370002C363000302C3230300041542B4854544D
:1003800050414354494F4E3D300041542B48545442
:1003900050504152413D2255524C222C2200415492
:1003A0002B48545450414354494F4E3D3000415422
:1003B0002B48545450504152413D2255524C222C0E
:1003C000220041542B48545450504152413D224345
:1003D0004944222C310041542B48545450494E4931
:1003E000540041542B485454505445524D004154EC
:1003F0002B43495047534D4C4F433D312C31004521
:1004000052524F520D004F4B0D0041542B434F5051
:10041000533F0041542B47534E0041542B43504D02
:10042000533D22534D222C22534D222C22534D2238
:100430000041542B434D47463D310041542B53411D
:100440005042523D322C310041542B5341504252C4
:100450003D312C310041542B434744434F4E543DD2
:10046000312C224950222C220041542B534150421E
:10047000523D332C312C22505744222C220041541F
:100480002B53415042523D332C312C22555345526F
:10049000222C220041542B53415042523D332C31E7
:1004A0002C2241504E222C2200696E7465726E65BA
:1004B000742E54454C45322E72750054454C4532CD
:1004C000004D454741464F4E00696E7465726E653A
:1004D00074004D656761466F6E006265656C696E9C
:1004E0006500696E7465726E65742E6265656C690F
:1004F0006E652E7275004265656C696E65006D747F
:1005000073004D545300696E7465726E65742E6D80
:1005100074732E72750041542B53415042523D3337
:100520002C312C22436F6E74797065222C22475037
:100530005253220041542B43474154543F004154ED
:100540002B4353510041542B435245473F004154E4
:100550002B434E4D493D322C320041542B435343E3
:10056000533D2247534D220041542B434C49503DAB
:10057000310041542B434D47463D310041542B43FC
:1005800046554E3D310041542B4950523D31393290
:100590003030004154453000930586057C057205D6
:1005A00068055A054E0545053E0534051605060540
:1005B0000205FE04F604E204DA04D204C904C1040C
:1005C000BB04A90494047E046904550448043B0454
:1005D00031041A0413040A040604FF03EE03E203C1
:1005E000D603C203AE039E038A037A0374036F0328
:1005F0006303570351034E03000000002500280049
:100600002B0000000000230026002900040404043D
:1006100004040404020202020202030303030303AC
:100620000102040810204080010204081020010289
:10063000040810204E414E494E495459494E46CD6A
:10064000CCCC3D0AD7233C17B7D13877CC2B329589
:1006500095E6241FB14F0A000020410000C8420067
:10066000401C4620BCBE4CCA1B0E5AAEC59D740031
:10067000407A10F35A00A0724E18090010A5D4E871
:100680000000E87648170000E40B54020000CA9A04
:100690003B000000E1F50500008096980000004056
:1006A000420F000000A0860100000010270000009B
:1006B00000E803000000006400000000000A0000E1
:1006C0000000000100000000002C76D888DC674F95
:1006D0000823DFC1DFAE59E1B1B796E5E3E453C6C5
:1006E0003AE651997696E8E6C28426EB898C9B62BD
:1006F000ED407C6FFCEFBC9C9F40F2BAA56FA5F467
:1007000090055A2AF75C936B6CF9676DC11BFCE08E
:10071000E40D47FEF520E6B500D0ED902E030094E1
:100720003577050080841E080000204E0A00000076
:10073000C80C333333330F986E12831141EF8D2180
:1007400014893BE65516CFFEE6DB18D1844B381BE7
:10075000F77C1D901DA4BBE424203284725E2281AC
:1007600000C9F124ECA1E53D2700782238221124AC
:100770001FBECFEFD8E0DEBFCDBF11E0A0E0B1E0FB
:10078000EEE0FAE502C005900D92AA3DB107D9F757
:1007900024E0AAEDB1E001C01D92AA38B207E1F74A
:1007A00013E0C6EBD3E004C02197FE010E94F823BA
:1007B000C53BD107C9F70E945B180C94FA2C0C9426
:1007C000000020915604309157042817390771F41E
:1007D0008091DB012091DA0190E0805C9F4F821BC9
:1007E000910960E470E00E94AE23089580E090E0FB
:1007F0000895209156043091570428173907B9F409
:100800009091DA018091DB01981789F0E091DA018B
:10081000F0E0E550FE4F80812091DA0130E02F5F5B
:100820003F4F2F7333272093DA0190E008958FEF25
:100830009FEF08950F931F93CF93DF938C01EB01EC
:100840000E94932C8883C80101960E94932C89836F
:10085000CE01DF91CF911F910F910895FC0124816A
:100860003581FB01448155812417350721F5FC01B1
:1008700080819181FB0160817181009719F0611580
:100880007105A1F46115710549F0232BB1F0FB014D
:10089000808190E09195819591090AC0009769F057
:1008A000232B59F0FC01808190E002C00E9460255A
:1008B00021E0892B19F020E001C021E081E08227AE
:1008C00008951F920F920FB60F9211242F933F930A
:1008D0004F935F936F937F938F939F93AF93BF9348
:1008E000EF93FF93E0915604F0915704309709F489
:1008F00051C0968DA685B785858591FF04C09C91D2
:10090000892329F447C09C91892309F043C0A38916
:10091000B4899C918589809589238C938689978950
:100920000197F1F7608D718DA685B785558538E003
:1009300020E0CB010197F1F7822F90E09595879504
:10094000282F4C91452309F02068315091F7868D6E
:1009500081FD20958091DB0190E001968F739927AE
:100960003091DA01381749F0A091DB01B0E0A550D1
:10097000BE4F2C938093DB0103C0868D8160868FF0
:10098000828D938D0197F1F7A389B4899C91858914
:10099000892B8C93FF91EF91BF91AF919F918F9194
:1009A0007F916F915F914F913F912F910F900FBE6B
:1009B0000F901F901895CF92DF92EF92FF920F93B6
:1009C0001F93CF93DF93EB017B012DE0E20EF11C2F
:1009D0008B016C01C61AD70AC601800F911F0E94B5
:1009E000932CF80181938F01EE15FF05A9F7CE0135
:1009F000DF91CF911F910F91FF90EF90DF90CF90FB
:100A000008950C949B2CCF92DF92EF92FF920F935C
:100A10001F93CF93DF9300D000D000D0CDB7DEB7C7
:100A20008C017B01E4E0F2E06591749184E492E052
:100A30000E942F2764E472E0CE0101960E94041800
:100A4000BE016F5F7F4FC8010E94C7166C01CE01C7
:100A500001960E949917D7FC16C084E190E0A0E0AF
:100A6000B0E08093000190930101A0930201B09344
:100A7000030181E08093DC0164E170E080E090E0BC
:100A80000E94D4115AC06AE771E0CE0101960E941B
:100A90000418BE016F5F7F4FC8010E94C7166C012A
:100AA000CE0101960E949917D7FC23C0E6E0F2E040
:100AB0006591749184E492E00E942F27B70182E649
:100AC00092E00E94201862E871E082E692E00E94C3
:100AD000591864E472E082E692E00E94471868EEDA
:100AE00073E080E090E00E94030EE0E0F0E0099502
:100AF00024C065E871E0CE0101960E940418BE0191
:100B00006F5F7F4FC8010E94C7168C01CE0101960E
:100B10000E94991717FD03C01092DC010EC0EEE28F
:100B2000F2E06591749184E492E00E942F2764E4DE
:100B300072E082E692E00E94471826960FB6F8947B
:100B4000DEBF0FBECDBFDF91CF911F910F91FF9000
:100B5000EF90DF90CF9008951F93CF93DF931F9274
:100B6000CDB7DEB7162F682F8AE049830E947B0D30
:100B7000612F8EE00E947B0D4981642F8FE00F90E2
:100B8000DF91CF911F910C947B0DEF92FF920F9309
:100B90001F93CF93DF931F92CDB7DEB77C01FC018B
:100BA00000811181C80169830E94932C69816817B3
:100BB00019F0C8010E949B2CC7010F90DF91CF91C3
:100BC0001F910F91FF90EF900895EF92FF920F9376
:100BD0001F93CF93DF9300D0CDB7DEB78C017B019D
:100BE000FB0160819A838983CE0101960E94C5052D
:100BF000F70161810F5F1F4F1A830983CE010196B0
:100C00000E94C505C7010F900F90DF91CF911F91F2
:100C10000F91FF90EF900895CF93DF9300D0CDB761
:100C2000DEB7BE016F5F7F4F80EA90E00E941A043A
:100C300089819A8101969A838983BE016F5F7F4F74
:100C400080EA90E00E94E5050F900F90DF91CF9130
:100C500008954F925F926F927F928F929F92AF9280
:100C6000BF92CF92DF92EF92FF920F931F93CF9399
:100C7000DF93CDB7DEB7CA54D1090FB6F894DEBF03
:100C80000FBECDBF85E293E00E94631082E193E046
:100C90000E9463108FEF92E00E94631085E293E060
:100CA0000E948F146B017C0182E193E00E948F14FB
:100CB0004B015C018FEF92E00E948F142B013C01ED
:100CC000E8EAF5E06591749188E194E00E942F27AD
:100CD00040E050E060ED77E088E194E00E944F1240
:100CE0002B961FAE1EAE2B97BE01675B7F4F80EA2F
:100CF00090E00E941A04A5019401C701B6010E9468
:100D0000FF23A30192010E94FF232FE832EC41EB65
:100D100052E40E94FF23AB01BC0122E0CE018D5BB7
:100D20009F4F0E949E1722E0B301A201CE01CD96F3
:100D30000E949E1722E0B501A401CE01C7960E9431
:100D40009E1722E0B701A601CE01C1960E949E1710
:100D5000E8EFF1E06591749184E492E00E942F271E
:100D600064E472E0CE018B960E940418ECEDF5E08D
:100D70006591749188E194E00E942F2740E050E053
:100D800060E177E288E194E00E944F12882309F441
:100D9000F5C06AE370E08EE693E00E945525009767
:100DA00009F4ECC06CE270E00E945525009709F44C
:100DB000E5C08C010F5F1F4FC8010E94E6266CE260
:100DC00070E0C8010E945525009709F4D7C08C0136
:100DD0000F5F1F4FC8010E94E6266CE270E0C80159
:100DE0000E945525009709F4C9C08C010F5F1F4F61
:100DF000C8010E94EA26F82E6FE270E0C8010E9446
:100E00005525009709F4BAC08C010F5F1F4FC80128
:100E10000E94EA26E82E6FE270E0C8010E94552584
:100E2000009709F4ABC08C010F5F1F4FC8010E94EF
:100E3000EA26D82E6CE270E0C8010E945525009782
:100E400009F49CC08C010F5F1F4FC8010E94EA2665
:100E5000C82E6AE370E0C8010E945525009709F486
:100E60008DC08C010F5F1F4FC8010E94EA26B82E6B
:100E70006AE370E0C8010E945525009709F47EC01E
:100E800001960E94EA264AE0682FCE0101960E9450
:100E9000CE174AE06B2DCE0107960E94CE174AE08E
:100EA0006C2DCE010D960E94CE174AE06D2DCE011D
:100EB00043960E94CE174AE06E2DCE0149960E94BD
:100EC000CE1760E36F0D4AE0CE0185960E94CE17E3
:100ED000BE016B5D7F4FCE014F960E94FB176FE204
:100EE000CE014F960E942117BE01675E7F4F0E9480
:100EF00058176FE20E942117BE016D5E7F4F0E945E
:100F000058176CE20E942117BE01635F7F4F0E9459
:100F100058176AE30E942117BE01695F7F4F0E9444
:100F200058176AE30E942117BE016F5F7F4F0E942E
:100F300058176DE871E00E943F17BC01CE018B96F7
:100F40000E948217CE014F960E949917CE01859676
:100F50000E949917CE0149960E949917CE01439697
:100F60000E949917CE010D960E949917CE010796FF
:100F70000E949917CE0101960E94991761E971E0CC
:100F8000CE0101960E94041862E673E0CE0101963C
:100F90000E94581765E971E00E943F17BE01655D28
:100FA0007F4F0E945817BC01CE0107960E94FB1785
:100FB000CE0101960E949917CE018B960E94991737
:100FC000BE01695F7F4FCE0101960E94FB1765E964
:100FD00071E0CE0101960E943F17BE016F5C7F4F0A
:100FE0000E94581765E971E00E943F17BE01695CD5
:100FF0007F4F0E94581765E971E00E943F17BE01BC
:10100000635C7F4F0E94581765E971E00E943F17AB
:10101000BE016D5B7F4F0E945817BC01CE01439605
:101020000E94FB17CE0101960E949917CE010796E8
:101030000E949917CE01C1960E949917CE01C796BA
:101040000E949917CE01CD960E949917CE018D5B13
:101050009F4F0E949917CE0143960E94D213E6EF4C
:10106000F1E06591749184E492E00E942F2764E49A
:1010700072E082E692E00E9459186F89788D80E0D4
:1010800090E04AE00E94911182E692E00E944318AB
:10109000BE016D5E7F4FCE0149960E94FB17EAEFBD
:1010A000F1E06591749184E492E00E942F2764E45A
:1010B00072E082E692E00E94591867E971E082E6E8
:1010C00092E00E9459186FE382E692E00E9419189C
:1010D000CE0149960E94D213BE01675E7F4FCE01BA
:1010E00001960E94FB17BE016F5F7F4F87E991E079
:1010F0000E947013CE0101960E9499178091F7010A
:101100009091F801A091F901B091FA010196A11D09
:10111000B11D8093F7019093F801A093F901B0936A
:10112000FA010297A105B10518F081E08093F6015C
:101130002CEEE22E25E0F22E3EEEC32E35E0D32E2D
:10114000F7016591749188E194E00E942F27F601E0
:101150006591749180E494E00E942F2760E474E02C
:1011600088E194E00E94FD12823020F084E08093B8
:10117000EE0317C0811115C06EE282E692E00E9474
:10118000C70B1AE11150E1F288E594E00E94E103F7
:10119000892BB1F66AE070E080E090E00E94030ED7
:1011A000F1CF8091EE03843079F58091F6018823A8
:1011B000A9F08091F2019091F301A091F401B09116
:1011C000F5010196A11DB11D8093F2019093F301E9
:1011D000A093F401B093F5010E940C068091F201F6
:1011E0009091F301A091F401B091F5014597A1050B
:1011F000B10518F0E0E0F0E0099568EB7BE080E0F5
:1012000090E00E94030E4AC282E692E00E944318D8
:10121000E0EFF5E06591749188E194E00E942F275A
:1012200068E174E088E594E00E94471883E08093C9
:10123000EE031092F5030E943D0E6093F603709347
:10124000F7038093F8039093F90382EFE82E85E08B
:10125000F82E94EFC92E95E0D92EF701659174917F
:1012600088E194E00E942F27F6016591749180E453
:1012700094E00E942F2760E474E088E194E00E94EB
:10128000FD12813051F71092F50346EC51E064E60F
:1012900070E080E090E00E944F128EE693E00E94A2
:1012A000EA268C0140E050E060ED77E080E090E0DD
:1012B0000E944F120F37110510F00FE710E0F801F0
:1012C000E259FC4F1082012B09F4C7CF8091EE0345
:1012D000843009F46ECFECEFF1E06591749184E411
:1012E00092E00E942F2764E472E082E692E00E947E
:1012F00059186EE673E082E692E00E9447186EE6A7
:1013000073E0CE010D960E94041868EC71E0CE01E6
:1013100007960E94041889899A890097C9F0029754
:1013200018F002E010E002C001E010E0ED85FE855B
:10133000E00FF11FF08010826D857E85CE0107964B
:101340000E946B178D859E85FC01E00FF11FF082D6
:101350008F819885009719F00E94082703C060E0EC
:1013600070E0CB016130710509F066C068EC71E096
:10137000CE0101960E94041809891A8903301105CB
:10138000C8F00A30110510F00AE010E0ED85FE8586
:10139000E00FF11FF08010826D857E856E5F7F4FBC
:1013A000CE0101960E946B178D859E85FC01E00F92
:1013B000F11FF08289819A81009729F00E94082705
:1013C0006B017C0103C0C12CD12C7601C701B60191
:1013D0000E94D411D701C6010B97A109B109863724
:1013E0009145A140B105E8F480910001909101017F
:1013F000A0910201B0910301C816D906EA06FB06C6
:1014000081F08091DC0181110CC0C0920001D0926A
:101410000101E0920201F092030188EC90E00E9449
:10142000FD11609100017091010180910201909184
:1014300003010E94D411CAC06230710509F03CC09A
:10144000CE010D960E94D81265EE71E084E690E020
:101450000E94DB0465EE71E0CE0101960E94041843
:10146000BE016F5F7F4FCE010D960E942E04882330
:1014700009F4ACC0EEEFF1E06591749184E492E080
:101480000E942F2764E472E082E692E00E944718EF
:1014900000E010E0B801CE010D960E94E116FC01BB
:1014A0006081C8018C599F4F0E9401050F5F1F4F3B
:1014B0000D30110579F78AC06330710571F5CE01E1
:1014C0000D960E94D81265EE71E088E790E00E94C8
:1014D000DB0465EE71E0CE0101960E940418BE01A6
:1014E0006F5F7F4FCE010D960E942E04882309F472
:1014F0006DC000E010E0B801CE010D960E94E1162B
:10150000FC016081C80188589F4F0E9401050F5F50
:101510001F4F0D30110579F759C06430710569F519
:10152000CE010D960E94D81265EE71E08CE890E035
:101530000E94DB0465EE71E0CE0101960E94041862
:10154000BE016F5F7F4FCE010D960E942E0488234F
:10155000E9F100E010E0B801CE010D960E94E1161D
:10156000FC016081C80184579F4F0E9401050F5FF5
:101570001F4F0D30110579F729C06530710551F401
:101580001A821982BE016F5F7F4F80EA90E00E944D
:10159000E5053AC06630710591F5CE010D960E94C1
:1015A000D81265EE71E08CED90E00E94DB0465EEF0
:1015B00071E0CE0101960E940418BE016F5F7F4F5B
:1015C000CE010D960E942E04811105C0CE01019618
:1015D0000E94991719C000E010E0B801CE010D96E5
:1015E0000E94E116FC016081C80184529F4F0E9455
:1015F00001050F5F1F4F0D30110579F7E7CF6730F9
:10160000710511F41092DC01E0E0F2E06591749153
:1016100084E492E00E942F2764E472E082E692E084
:101620000E9459186091F7017091F8018091F901B9
:101630009091FA014AE00E9491118091F2019091FB
:10164000F301A091F401B091F501892B8A2B8B2B2A
:10165000C9F0E2E0F2E06591749184E492E00E94C6
:101660002F2764E472E082E692E00E9459186091AC
:10167000F2017091F3018091F4019091F5014AE03B
:101680000E94911182E692E00E944318CE010796D3
:101690000E949917CE010D960E949917CE01499686
:1016A0000E949917CE0143960E949917C65BDF4F9F
:1016B0000FB6F894DEBF0FBECDBFDF91CF911F9163
:1016C0000F91FF90EF90DF90CF90BF90AF909F90E1
:1016D0008F907F906F905F904F900895FC01918D57
:1016E000828D981761F0828DDF01A80FB11D5D9684
:1016F0008C91928D9F5F9F73928F90E008958FEFF2
:101700009FEF0895FC01918D828D981731F0828DA5
:10171000E80FF11D858D90E008958FEF9FEF0895FC
:10172000FC01918D228D892F90E0805C9F4F821B60
:1017300091098F739927089582E692E00E94900B99
:1017400021E0892B09F420E0822F0895FC01848D8B
:10175000DF01A80FB11DA35ABF4F2C91848D90E0DB
:1017600001968F739927848FA689B7892C93A089B6
:10177000B1898C9180648C93938D848D981306C06D
:101780000288F389E02D80818F7D80830895EF9218
:10179000FF920F931F93CF93DF93EC0181E0888F2B
:1017A0009B8D8C8D981305C0E889F989808185FD12
:1017B00024C0F62E0B8D10E00F5F1F4F0F73112703
:1017C000E02E8C8DE8120CC00FB607FCFACFE8892A
:1017D000F989808185FFF5CFCE010E94A60BF1CF5C
:1017E0008B8DFE01E80FF11DE35AFF4FF0820B8F46
:1017F000EA89FB898081806207C0EE89FF89608366
:10180000E889F98980818064808381E090E0DF91BC
:10181000CF911F910F91FF90EF900895CF93DF9399
:10182000EC01888D8823C9F0EA89FB89808185FDD8
:1018300005C0A889B9898C9186FD0FC00FB607FC39
:10184000F5CF808185FFF2CFA889B9898C9185FF7A
:10185000EDCFCE010E94A60BE7CFDF91CF91089587
:1018600080E090E0892B29F00E949C0B81110C9460
:10187000000008953FB7F894809140029091410292
:10188000A0914202B091430226B5A89B05C02F3F0C
:1018900019F00196A11DB11D3FBFBA2FA92F982F96
:1018A0008827820F911DA11DB11DBC01CD0142E011
:1018B000660F771F881F991F4A95D1F708950895DD
:1018C000FC0190810180F281E02DF8948181892BC7
:1018D00081832281892F809528232283A7E0B0E08D
:1018E0001197F1F7218182238183A3E2B0E0119760
:1018F000F1F780817894EFECF0E03197F1F79823DD
:1019000081E009F480E00895FC0190810180F2817A
:10191000E02D892F809560FF12C0F89422818223E8
:1019200082838181892B8183A3E2B0E01197F1F753
:101930008281982B9283789487ED90E011C0F8947F
:101940002281822382838181892B8183AFEFB0E062
:101950001197F1F78281982B928378948FE090E031
:101960000197F1F708950895209156043091570496
:101970002817390771F49091DA018091DB019817EB
:1019800041F0E091DA01F0E0E550FE4F808190E017
:1019900008958FEF9FEF089508951F93CF93DF93DE
:1019A000DC015C962D913C915D972115310539F450
:1019B00081E090E013969C938E9312973DC05196D0
:1019C000ED91FC91529750969C915097892F80955C
:1019D0001FB75E964C915E9741FB772770F941FDEA
:1019E0006095F8944081772311F0492B01C048237A
:1019F0004083E9012197F1F748E0508160FF02C080
:101A0000592B01C058235083E9012197F1F76695BE
:101A1000415099F7772321F090818923808303C077
:101A20008081982B90831FBF5C968D919C915D97D0
:101A30000197F1F721E030E0C901DF91CF911F91CB
:101A400008950E9435251F920F920FB60F92112410
:101A50002F933F934F935F936F937F938F939F93B6
:101A6000AF93BF93EF93FF9382E692E00E94A60BA1
:101A7000FF91EF91BF91AF919F918F917F916F9166
:101A80005F914F913F912F910F900FBE0F901F903C
:101A900018951F920F920FB60F9211242F938F93C8
:101AA0009F93EF93FF93E0917202F0917302808114
:101AB000E0917802F091790282FD12C090818091CC
:101AC0007B028F5F8F7320917C02821751F0E0912F
:101AD0007B02F0E0EE59FD4F958F80937B0201C0B1
:101AE0008081FF91EF919F918F912F910F900FBE69
:101AF0000F901F90189590E0FC01E65CFC4F34912C
:101B0000FC01E05EF94F2491FC01E45FF94FE491A0
:101B1000EE2309F43BC0332339F1333091F038F42C
:101B20003130A9F0323001F584B58F7D12C03730E5
:101B300091F03830A1F03430B9F4809180008F7D7D
:101B400003C0809180008F77809380000DC084B5A2
:101B50008F7784BD09C08091B0008F7703C08091DA
:101B6000B0008F7D8093B000F0E0EE0FFF1FE850D3
:101B7000FA4FA591B4918FB7F894EC91611103C01D
:101B800020952E2301C02E2B2C938FBF0895CF9329
:101B9000DF9390E0FC01E05EF94F2491FC01E45FEB
:101BA000F94F8491882361F190E0880F991FFC011F
:101BB000E05DFC4FC591D491FC01E850FA4FA5912E
:101BC000B491611109C09FB7F89488812095822350
:101BD0008883EC912E230BC0623061F49FB7F89498
:101BE0003881822F809583238883EC912E2B2C9330
:101BF0009FBF06C08FB7F894E8812E2B28838FBF34
:101C0000DF91CF9108958F929F92AF92BF92CF9222
:101C1000DF92EF92FF926B017C010E943A0C4B0124
:101C20005C01C114D104E104F104F1F00E943A0C0A
:101C3000DC01CB0188199909AA09BB09883E9340A8
:101C4000A105B10570F321E0C21AD108E108F1083D
:101C500088EE880E83E0981EA11CB11CC114D1042B
:101C6000E104F10419F7DDCFFF90EF90DF90CF9002
:101C7000BF90AF909F908F9008952FB7F894609188
:101C80003C0270913D0280913E0290913F022FBF35
:101C900008951F920F920FB60F9211242F933F9326
:101CA0008F939F93AF93BF9380913C0290913D029D
:101CB000A0913E02B0913F0230913B0223E0230FFE
:101CC0002D3720F40196A11DB11D05C026E8230F74
:101CD0000296A11DB11D20933B0280933C0290937C
:101CE0003D02A0933E02B0933F028091400290914A
:101CF0004102A0914202B09143020196A11DB11D83
:101D00008093400290934102A0934202B093430219
:101D1000BF91AF919F918F913F912F910F900FBEE7
:101D20000F901F901895DC01E0E0615038F08D9124
:101D3000E827F0E0E05DFD4FE491F7CF8E2F0895A6
:101D4000CF92DF92EF92FF920F931F93CF93DF9387
:101D50001F92CDB7DEB76C01E62E08E010E0FF243D
:101D6000F39461E08F2D8E2109F460E0C601498370
:101D70000E94840CFF0C01501109498101151105C5
:101D800081F7411115C0F894D6011196ED91FC919F
:101D9000129791818C918095892381831196ED9181
:101DA000FC91129792818C918095892382837894FB
:101DB0000F90DF91CF911F910F91FF90EF90DF90E7
:101DC000CF900895CF92DF92EF92FF920F931F93DF
:101DD000CF93DF931F92CDB7DEB78C01F62E40E094
:101DE00065E579830E94A00ECF2C7981D72E7601EC
:101DF00088E0E80EF11CF60161916F0140E0C80136
:101E00000E94A00ECE14DF04B1F70F90DF91CF91A6
:101E10001F910F91FF90EF90DF90CF900895FC01FC
:101E200090810180F281E02DF8948181292F209505
:101E30008223818378948DE743E050E0815021F143
:101E4000DA011197F1F730813923C1F3F8948281D7
:101E5000822382838181892B81837894ABE7B7E0E9
:101E60001197F1F7F894818128232183A3E1B1E050
:101E70001197F1F78081982381E009F080E0789450
:101E8000E3E6F6E03197F1F70895AF92BF92CF9273
:101E9000DF92EF92FF920F931F93CF93DF931F92E6
:101EA000CDB7DEB75C01E62ED72EFC01858581110A
:101EB0005DC0C5010E940F0F811105C0F501138699
:101EC000158614866BC040E060EFC5010E94A00E2D
:101ED00001E0F12CC12C11E0C5010E94600C682FBB
:101EE000C50169830E94600C6981613019F48130F9
:101EF000B9F433C04F2D50E068131BC0F501838542
:101F0000181730F4E40FF51F8381802349F402C0D1
:101F1000181731F060E0193058F4F501148708C043
:101F2000F501EF0DF11D8381802B838361E009C0F2
:101F3000C12EF501E40FF51F9381802F8095892331
:101F40008383C5010E94840C1F5F000F11F4F3947A
:101F500001E0F7E0FF1508F0BFCF113438F0F501CC
:101F6000C386C11015C081E0858712C0F5011386B4
:101F70001586148680E0D5011396EE2DFD2D950172
:101F8000255F3F4F9D919193A217B307D9F706C0E4
:101F9000F5018381882351F381E0EDCF0F90DF912C
:101FA000CF911F910F91FF90EF90DF90CF90BF9056
:101FB000AF9008956F927F928F929F92AF92BF924F
:101FC000CF92DF92EF92FF920F931F93CF93DF9305
:101FD0001F92CDB7DEB78C01F42EFC01858196816E
:101FE00059830E94E20E40E06EEBF80185819681F4
:101FF0000E94A00E6F2C5981752E5301F9E0AF0E8F
:10200000B11CF8018580968088E0C82ED12CEE2482
:10201000E394F12CC4010E94600C8111FE28EE0CA7
:10202000F1E0CF1AD108B1F7F301F1923F01EA15BF
:10203000FB0539F7F801858196810E940F0F91E029
:10204000813009F090E0892F0F90DF91CF911F919F
:102050000F91FF90EF90DF90CF90BF90AF909F9047
:102060008F907F906F9008950F931F93CF93DF937E
:10207000EC01162F60E0812F0E94C70D612F70E0E8
:10208000FB01E05EF94FE491E883FB01E45FF94F67
:10209000E491F0E0EE0FFF1FEE5FF94F8591949110
:1020A0009A8389831B861D861C86FE013B968E01C2
:1020B0000D5F1F4F1292E017F107E1F7DF91CF910B
:1020C0001F910F910895CF93DF93EC018D819E8135
:1020D0000E940F0F40E06CEC8D819E810E94A00E4B
:1020E000488164E48D819E810E94A00E8A818823AC
:1020F000B1F0E981E950E33040F4F0E0EE0FFF1F6A
:10210000E65FFE4F6081718102C06EEE72E0072EC5
:10211000000C880B990BDF91CF910C94030EDF918B
:10212000CF910895EF92FF920F931F93CF93DF9378
:1021300000D0CDB7DEB78C017A01FC018581968194
:1021400069837A830E940F0F69817A81882371F0F5
:10215000A701C8010E94DA0F882341F068E0C70197
:102160000E94930E91E0F7012085821390E0892F61
:102170000F900F90DF91CF911F910F91FF90EF90F3
:102180000895CF93DF93CDB7DEB729970FB6F894B4
:10219000DEBF0FBECDBFFB0120812031D1F0AE01EB
:1021A0004F5F5F4F0E949210882389F08D818F339B
:1021B00061F020F48F3159F489E00CC08F3519F0AB
:1021C0008F3739F004C08BE005C08AE003C080E09F
:1021D00001C08CE029960FB6F894DEBF0FBECDBFCC
:1021E000DF91CF910895EF92FF920F931F93CF93BA
:1021F000DF93CDB7DEB761970FB6F894DEBF0FBEA1
:10220000CDBF8C01DC011596ED91FC9116971386DC
:1022100015861486DF011B9633961E92AE17BF07F4
:10222000E1F7F8011482FF24F394BE01665F7F4F4B
:10223000F801858196810E94450F882309F464C0C6
:1022400067E0CE010A960E94930E99898913EDCF1B
:10225000D8018C91811126C015968D919C9116976D
:102260000E940F0FBE01665F7F4FF8018581968146
:102270000E94E20E40E064EBD80115968D919C918E
:1022800016970E94A00EF801858196810E94600C2D
:10229000E82ED80115968D919C9116970E940F0FEC
:1022A000EE2079F1F801858196810E940F0F882335
:1022B00049F0AE014F5F5F4FBE01665F7F4FC801BF
:1022C0000E94DA0FD8011196EC90BE01665F7F4F35
:1022D000C8010E94C1108E1518F4F801818106C052
:1022E000BE01665F7F4FC8010E94C110D8011196E0
:1022F0008C93119714968C9114978F5F14968C93EE
:1023000094CFD801FC92CECF61960FB6F894DEBF81
:102310000FBECDBFDF91CF911F910F91FF90EF9036
:1023200008958F929F92AF92BF920F931F93CF9376
:10233000DF93CDB7DEB7A1970FB6F894DEBF0FBE1F
:10234000CDBF19A2423008F44AE08E010F5D1F4F45
:10235000842E912CA12CB12CA50194010E94C223A2
:10236000E62FB901CA0101501109EA3014F4E05D09
:1023700001C0E95CD801EC93232B242B252B61F7BA
:10238000B80182E692E00E942E18A1960FB6F8944A
:10239000DEBF0FBECDBFDF91CF911F910F91BF90D8
:1023A000AF909F908F900895CF93DF934AE00E9463
:1023B0009111EC0182E692E00E9443188C0F9D1F60
:1023C000DF91CF9108950F931F93CF93DF93C0E0D8
:1023D000D1E08C0100501140C8018C0F9D1F0E945C
:1023E000932C899381E0C430D807B1F780E091E065
:1023F000DF91CF911F910F910895EF92FF920F936C
:102400001F93CF93DF9300D0CDB7DEB700E011E08C
:10241000805091407C019701200F311FF80161919C
:102420008F013A832983CE0101960E94C505F1E010
:1024300004301F0781F780E091E00F900F90DF914B
:10244000CF911F910F91FF90EF900895EF92FF921F
:102450000F931F93CF93DF9300D0CDB7DEB704E483
:1024600012E0845492407C019701200F311FF80143
:1024700061918F013A832983CE0101960E94C5059F
:10248000F2E002361F0781F784E492E00F900F908C
:10249000DF91CF911F910F91FF90EF9008954F9290
:1024A0005F926F927F929F92AF92BF92CF92DF9294
:1024B000EF92FF920F931F93CF93DF93EC016B0189
:1024C0008A01892B81F088E594E00E94E103892B41
:1024D00029F088E594E00E94F903F5CFBE0188E574
:1024E00094E00E9447180E943D0E2B013C01C0E081
:1024F00088EDA82E85E0B82E9FE3992EE12CF12CD3
:1025000088E594E00E94E103892B89F188E594E055
:102510000E94F903CF3750F0EEEAF3E0AEE6B3E005
:10252000992D01900D929A95E1F7CFE3D1E0DC0F60
:10253000EC2FF0E0E259FC4F8083ED2FF0E0E25900
:10254000FC4F1082F5016591749188E194E00E943E
:102550002F270115110519F468E174E001C0B801D5
:102560008EE693E00E947F25892B89F4CD2F0E946F
:102570003D0EDC01CB0184199509A609B7098C151C
:102580009D05AE05BF0508F4BBCF80E001C08D2FCF
:10259000DF91CF911F910F91FF90EF90DF90CF903F
:1025A000BF90AF909F907F906F905F904F900895F5
:1025B000CF93DF93FC014481558141155105D1F042
:1025C0004230510518F461E070E002C062E070E052
:1025D000EC0188819981461B570B5D834C83680F02
:1025E000791F0E947025E881F9818C819D81E80F17
:1025F000F91F1082DF91CF910895FF920F931F93DF
:10260000CF93DF938C01EB018FE3F82E88E594E004
:102610000E94E103892B99F188E594E00E94F90377
:102620009091F5039F3758F0F092F503EEEAF3E04E
:10263000AEE6B3E09F2D01900D929A95E1F7A0913F
:10264000F503E1E0EA0FE093F503B0E0A259BC4FD7
:102650008C93F0E0E259FC4F1082B8018EE693E0D3
:102660000E947F25892B11F5209781F2BE018EE60D
:1026700093E00E947F25892B49F282E01AC00E94D4
:102680003D0E0091F6031091F7032091F80330916D
:10269000F903DC01CB01801B910BA20BB30B803142
:1026A0009742A105B10520F083E003C081E001C09D
:1026B00080E0DF91CF911F910F91FF900895CF930C
:1026C000DF9362E288E594E00E941918EC0188E546
:1026D00094E00E9443188C0F9D1FDF91CF910895C5
:1026E0000F931F93CF93DF938C01EB01E8EEF5E09E
:1026F0006591749188E194E00E942F2768E174E06D
:1027000088E594E00E945918B80188E594E00E9499
:10271000591888819981892BA1F50E945F1364EF74
:1027200071E080E090E00E94030E40E050E060ED38
:1027300077E080E090E00E944F128823F1F0EAEE0B
:10274000F5E06591749188E194E00E942F2768E19B
:1027500074E088E594E00E94471882E08093EE03DD
:102760001092F5030E943D0E6093F6037093F703F9
:102770008093F8039093F9030FC084E08093EE03F5
:102780000BC06FE388E594E00E941918BE0188E54C
:1027900094E00E942018C1CF80E0DF91CF911F917B
:1027A0000F910895CF93DF93BC0182E692E00E94DF
:1027B0002018EC0182E692E00E9443188C0F9D1FC6
:1027C000DF91CF910895CF93DF93EB01DC01159654
:1027D000ED91FC911697138615861486DF011B96E2
:1027E00033961E92AE17BF07E1F7BE01FC0185814B
:1027F00096810E94450F882349F067E0CE010E9430
:10280000930E9F81891302C081E001C080E0DF91B7
:10281000CF910895CF92DF92EF92FF920F931F9383
:10282000CF93DF936C017A018B01C0E0D0E0CE152D
:10283000DF0589F0D8016D918D01D601ED91FC91F4
:102840000190F081E02DC6010995892B11F47E01DC
:1028500002C02196ECCFC701DF91CF911F910F915C
:10286000FF90EF90DF90CF9008950F931F93CF9339
:10287000DF93EC0188819981009729F02A813B81BF
:102880002617370788F48B016F5F7F4F0E946B24F8
:10289000009761F0998388831B830A832C813D8193
:1028A000232B11F4FC01108281E001C080E0DF9154
:1028B000CF911F910F910895CF93DF93EC01888101
:1028C0009981009711F00E944E26198218821D826C
:1028D0001C821B821A82DF91CF910895EF92FF92A2
:1028E0000F931F93CF93DF93EC017B018A01BA0111
:1028F0000E943514811104C0CE010E945C1407C0EF
:102900001D830C83B701888199810E946925CE01BE
:10291000DF91CF911F910F91FF90EF9008950F934A
:102920001F93CF93DF93CDB7DEB761970FB6F894BF
:10293000DEBF0FBECDBF8C01BE01665F7F4F0E9420
:10294000E313811105C060E070E08EEF92EC4BC0A4
:10295000AE014F5F5F4FBE01665F7F4FC8010E94AF
:102960009210882359F1698148E0649FB0011124D5
:102970008A81282F30E0322F2227330F330F330F75
:10298000262B372B8A858031E1F4688570E08F81B2
:10299000AB01481B5109CA019695982F8827979536
:1029A00087950E94AE2360517109207F53E0220F6A
:1029B000331F5A95E1F7620F731F04C060E874EE8D
:1029C00001C0B901613854EE75070CF4BCCF072E75
:1029D000000C880B990B0E94732B20E030E040E044
:1029E0005CE30E94D22B61960FB6F894DEBF0FBE57
:1029F000CDBFDF91CF911F910F910895DF92EF929C
:102A0000FF920F931F93CF93DF93CDB7DEB7299734
:102A10000FB6F894DEBF0FBECDBF8C017B01AE01B7
:102A20004F5F5F4F0E949210D82E882309F459C03F
:102A3000F7018081803109F454C08FE78D83F8015C
:102A4000858196810E940F0FB701F80185819681DB
:102A50000E94E20E40E06EE4F801858196810E94BA
:102A6000A00E40E06B81F801858196810E94A00E46
:102A700040E06C81F801858196810E94A00EF701EB
:102A80008081803139F040E06D81F8018581968147
:102A90000E94A00EF801858196810E940F0FB70158
:102AA000F801858196810E94E20EF801408168E478
:102AB000858196810E94A00E64E170E080E090E044
:102AC0000E94030EF8018081882331F06AE070E0F3
:102AD00080E090E00E94030EF801858196810E94BB
:102AE0000F0F8D2D29960FB6F894DEBF0FBECDBF08
:102AF000DF91CF911F910F91FF90EF90DF9008959C
:102B00002F923F924F925F926F927F928F929F92FD
:102B1000AF92BF92CF92DF92EF92FF920F931F93EB
:102B2000CF93DF9300D000D0CDB7DEB7FC01448057
:102B300055804114510409F413C1FB016480758070
:102B40006114710409F40CC17A016B019C838B83BD
:102B5000FA01A480B580A618B708FC010081118194
:102B6000A114B104C1F4F60160817181C8010E9411
:102B70007F255C01892B09F4F3C0F7016081718125
:102B800044815581C5010E943A25F70104811581D0
:102B90000A0D1B1DE8CFB7FE02C0480106C0FB01AD
:102BA000208031804201C80148C0F60160817181F6
:102BB000C4010E947F252C01892B29F1320168185C
:102BC0007908A301B401C8010E943A25060D171D1A
:102BD000F7016081718144815581C8010E943A25C5
:102BE000F70184819581080F191FF6018480958073
:102BF000840C951CEB81FC81848195818A0D9B1D41
:102C000095838483D2CFB401C8010F900F900F90A9
:102C10000F90DF91CF911F910F91FF90EF90DF9078
:102C2000CF90BF90AF909F908F907F906F905F906C
:102C30004F903F902F900C946925B1010E947F2501
:102C4000009729F0860D971D8A0C9B1CF6CF8414E3
:102C5000950409F485C0EB81FC81828193818815FC
:102C6000990578F4B4016F5F7F4FC8010E946B240F
:102C7000009709F475C0EB81FC8191838083938276
:102C80008282EB81FC81048115810150110917FDBD
:102C900067C0F601248035802114310409F460C036
:102CA000EB81FC81648075806114710409F458C063
:102CB0006214730408F454C00615170518F0830154
:102CC00001501109EB81FC8140805180C2018824B0
:102CD0008A94982C9201200F311F2817390758F039
:102CE000F6016081718129833A830E947F252981C1
:102CF0003A81009761F597FC33C0280C391CC2015A
:102D0000820D931DA30142195309BC018A0D9B1D1D
:102D10000E944325EB81FC81848195818A0D9B1D56
:102D20009583848320813181F901E80FF91F108296
:102D3000EB81FC8180819181F70160817181448107
:102D40005581880D991D0E943A2584019ECFAC01C2
:102D5000441955090417150708F04A010196BDCF1B
:102D60000F900F900F900F90DF91CF911F910F91C7
:102D7000FF90EF90DF90CF90BF90AF909F908F909B
:102D80007F906F905F904F903F902F900895CF93DA
:102D9000DF93FC0124813581232B71F0FB01DC01E1
:102DA000CD91DC9160817181CE010E947F250097D9
:102DB00019F08C1B9D0B02C08FEF9FEFDF91CF911D
:102DC0000895FC01248135816217730720F4808106
:102DD0009181009729F41092830483E894E0089588
:102DE000860F971F0895EF92FF920F931F93CF9333
:102DF000DF93FC01248135816115710511F480E0B8
:102E000019C041155105A9F07B01EC018A01020F9F
:102E1000131FB8010E943514882389F32881398152
:102E20008C819D81B701820F931F0E9469251D83AC
:102E30000C8381E0DF91CF911F910F91FF90EF9074
:102E400008950F931F93CF93DF9300D0CDB7DEB7D4
:102E50008C0169831A8241E050E0BE016F5F7F4FB1
:102E60000E94F316811103C0C8010E945C14C801BE
:102E70000F900F90DF91CF911F910F910895CF93F5
:102E8000DF93EC016115710561F0FB0101900020F9
:102E9000E9F73197AF01461B570B0E94F3168111DA
:102EA00003C0CE010E945C14CE01DF91CF91089542
:102EB000CF93DF93EC01FB014481558160817181E7
:102EC0000E94F316811103C0CE010E945C14CE0152
:102ED000DF91CF910895CF93DF93EC0161157105D8
:102EE00059F0FB0101900020E9F73197AF01461B33
:102EF000570B0E946E1402C00E945C14CE01DF9139
:102F0000CF910895CF93DF93EC01FB0186179707CC
:102F100061F0608171816115710529F044815581ED
:102F20000E946E1402C00E945C14CE01DF91CF910A
:102F30000895FC01808191810C944E26EF92FF92BE
:102F40000F931F93CF93DF93CDB7DEB7A1970FB643
:102F5000F894DEBF0FBECDBF7C01CB01BA01F701F3
:102F600011821082138212821582148242E0420F73
:102F70008E010F5F1F4F0E949925BC01C7010E945F
:102F80006B17A1960FB6F894DEBF0FBECDBFDF91D1
:102F9000CF911F910F91FF90EF9008950F931F9382
:102FA000CF93DF93CDB7DEB729970FB6F894DEBF86
:102FB0000FBECDBF8C01862FF801118210821382C3
:102FC00012821582148250E0BE016F5F7F4F90E045
:102FD0000E945327BE016F5F7F4FC8010E946B178D
:102FE00029960FB6F894DEBF0FBECDBFDF91CF910B
:102FF0001F910F910895FC01118210821382128299
:10300000158214820C948217FC01118210821382A3
:103010001282158214826115710551F0FB01019035
:103020000020E9F73197AF01461B570B0C946E1443
:103030000895DC01ED91FC910190F081E02D09945F
:10304000DC01ED91FC91DB0114964D915C9115979B
:103050006D917C910280F381E02D099461157105D9
:1030600079F0FB0101900020E9F73197AF01461B91
:10307000570BDC01ED91FC910280F381E02D099466
:1030800080E090E0089566EC71E00C942E180F93A8
:103090001F93CF93DF93EC010E942E188C01CE0179
:1030A0000E944318800F911FDF91CF911F910F91C4
:1030B00008950C942E18CF93DF93CDB7DEB7AB975E
:1030C0000FB6F894DEBF0FBECDBF789484B5826092
:1030D00084BD84B5816084BD85B5826085BD85B5BC
:1030E000816085BD80916E00816080936E0010923A
:1030F00081008091810082608093810080918100B5
:103100008160809381008091800081608093800045
:103110008091B10084608093B1008091B0008160A3
:103120008093B00080917A00846080937A008091CF
:103130007A00826080937A0080917A008160809327
:103140007A0080917A00806880937A001092C100A2
:10315000E0917202F091730282E08083E0916E024E
:10316000F0916F021082E0917002F091710287E697
:10317000808310927A02E0917602F091770286E0E5
:103180008083E0917402F091750280818061808378
:10319000E0917402F0917502808188608083E091F3
:1031A0007402F0917502808180688083E0917402DE
:1031B000F091750280818F7D8083EAE0F2E0659175
:1031C000749184E492E00E942F2764E472E082E626
:1031D00092E00E94471861E08AE00E94C70D61E01A
:1031E0008FE00E94C70D61E08EE00E94C70D60E095
:1031F00083E00E94C70D60E089E00E94C70D40E0B7
:1032000060E081E00E94AC056CE271E080E090E05B
:103210000E94030E40E061E080E00E94AC056CE299
:1032200071E080E090E00E94030E41E060E080E009
:103230000E94AC056CE271E080E090E00E94030E19
:1032400040E060E081E00E94AC0584E593E090936B
:103250002B0380932A03109229031092250399E0EF
:103260009093260381E0809327038093280326E42C
:1032700033E0309318032093170310921603109233
:10328000120390931303809314038093150328E390
:1032900033E030930503209304031092030310924C
:1032A000FF0290930003809301038093020385E261
:1032B00093E00E94F31082E193E00E94F3108FEFFD
:1032C00092E00E94F310BE016F5F7F4F85E293E0B2
:1032D0000E94E313882339F0BE016F5F7F4F85E2C0
:1032E00093E00E94FE14BE016F5F7F4F82E193E086
:1032F0000E94E313882339F0BE016F5F7F4F82E1A4
:1033000093E00E94FE14BE016F5F7F4F8FEF92E04B
:103310000E94E313882339F0BE016F5F7F4F82E183
:1033200093E00E94FE14ECE0F2E06591749184E475
:1033300092E00E942F2716E0212E312C0DE0A02EC6
:10334000B12C8DEC882E912C64E472E082E692E040
:103350000E94591800E910E0DD24D394B8E5EB2E63
:10336000B4E0FB2E25E030E03093130420931204E8
:103370003092150420921404B0921704A0921604FF
:1033800010927304109272041092710410927004DF
:1033900010926F0410926E049092750480927404DF
:1033A00080916404863108F057C045E550E05093A1
:1033B0006F0440936E04EBECF0E0F0937104E09343
:1033C0007004109373040093720490916800883025
:1033D00058F021E08E3008F420E0FD2D01C0FF0FF1
:1033E0002A95EAF72F2F01C024E0922B90936800D2
:1033F000883038F08E3040F0863148F020E030E000
:1034000008C02DE630E005C02BE630E002C02CE617
:1034100030E030936C0420936B04883038F42D2D09
:1034200001C0220F8A95EAF7822F0EC0282F30E0C4
:103430008E3018F42850310902C02E5031098D2DDC
:1034400001C0880F2A95EAF780936D048091740477
:10345000909175040197F1F7809172049091730433
:10346000892B39F1E0915604F091570434E0E835A6
:10347000F307F9F0309739F0A389B4899C918589D5
:10348000809589238C93809176048E7F8093760437
:103490001092DB011092DA01F0925704E092560488
:1034A000E0916B04F0916C04908180916D04892B04
:1034B000808361E0809114040E94C70D61E08091D7
:1034C00016040E94C70D61E0809112040E94C70D8E
:1034D00060E0809114040E947B0D60E080911604EE
:1034E0000E947B0D61E0809112040E947B0D60EDD3
:1034F00077E080E090E00E94030E61E08091160486
:103500000E947B0D60E0809112040E947B0D6CEDA7
:1035100075E080E090E00E94030E61E08091140469
:103520000E947B0D60EB74E080E090E00E94030E4F
:1035300060E0809114040E947B0D68EB7BE080E0EA
:1035400090E00E94030E40E050E060ED77E080E301
:1035500091E00E944F12811106C06EE282E692E075
:103560000E94C70BFFCEEAE9F5E06591749188E10E
:1035700094E00E942F2740E050E060ED77E088E182
:1035800094E00E944F12E8E9F5E06591749188E1BA
:1035900094E00E942F2740E050E060ED77E088E162
:1035A00094E00E944F12ECE9F5E06591749188E196
:1035B00094E00E942F2740E050E060ED77E088E142
:1035C00094E00E944F12EEE9F5E06591749188E174
:1035D00094E00E942F2740E050E060ED77E088E122
:1035E00094E00E944F12E0EAF5E06591749188E161
:1035F00094E00E942F2740E050E060ED77E088E102
:1036000094E00E944F12E2EAF5E06591749188E13E
:1036100094E00E942F2740E050E060ED77E088E1E1
:1036200094E00E944F12E4EAF5E06591749188E11C
:1036300094E00E942F2740E050E060ED77E088E1C1
:1036400094E00E944F1240E050E060ED77E083E3A9
:1036500091E00E944F12FEE0EF2EF2E0FF2EF70104
:103660006591749184E492E00E942F2764E472E0F3
:1036700082E692E00E94471860E27EE480E090E0FB
:103680000E94030EE0E1F2E06591749184E492E01F
:103690000E942F2764E472E082E692E00E945918AB
:1036A000E4EDF5E06591749188E194E00E942F27A4
:1036B00040E050E060ED77E088E194E00E944F1236
:1036C00068EE73E080E090E00E94030EAEE1DA2E37
:1036D00006EA15E0F8016591749188E194E00E9492
:1036E0002F2740E050E060ED77E088E194E00E9411
:1036F0004F12882389F166E471E08EE693E00E9420
:103700007F25009749F1FC0182818B7F813321F570
:10371000E8EAF5E06591749188E194E00E942F2732
:1037200040E050E068EE73E088E194E00E944F12C0
:10373000EAEAF5E06591749188E194E00E942F2710
:1037400040E050E060ED77E088E194E00E944F12A5
:10375000882309F468C30BC068EE73E080E090E052
:103760000E94030EDA94D110B5CF11E05FC3ECEAEA
:10377000F5E06591749188E194E00E942F2740E084
:1037800050E060ED77E088E194E00E944F128823DA
:1037900009F44BC3E6EDF5E06591749188E194E09E
:1037A0000E942F27EAEDF5E06591749180E494E0A2
:1037B0000E942F2788E194E0892B89F088E594E026
:1037C0000E94E103892B29F088E594E00E94F90327
:1037D000F5CF68E174E088E594E00E9447180E9404
:1037E0003D0E2B013C0100E0EFE3DE2E88E594E086
:1037F0000E94E103892B69F188E594E00E94F903B6
:103800000F3750F0EEEAF3E0AEE6B3E09D2D019005
:103810000D929A95E1F70FE311E0100FE02FF0E021
:10382000E259FC4F8083E12FF0E0E259FC4F108217
:1038300069E471E08EE693E00E947F25892BC1F454
:1038400060E474E08EE693E00E947F25892B49F5C1
:10385000012F0E943D0EDC01CB0184199509A609B8
:10386000B709803D9740A105B10508F4BFCF19C045
:1038700065E771E08EE693E00E947F25009789F06E
:103880008C010E5F1F4F62E270E0C8010E94552557
:10389000009711F0FC011082B8018EE693E00E94BF
:1038A00069256EE673E0CE014A960E94041868EC22
:1038B00071E0CE0144960E9404186DE471E0CE01DF
:1038C0000E960E940418AE014C5E5F4FBE01625F0F
:1038D0007F4FCE014A960E948015CE010E960E941F
:1038E0009917CE0144960E94991768EC71E0CE01B9
:1038F00044960E94041866E771E0CE010E960E947D
:103900000418AE014C5E5F4FBE01625F7F4FCE0177
:103910004A960E948015CE010E960E949917CE01FC
:1039200044960E94991768EC71E0CE0144960E947B
:10393000041867EC71E0CE010E960E940418AE01E7
:103940004C5E5F4FBE01625F7F4FCE014A960E9480
:103950008015CE010E960E949917CE0144960E94C2
:10396000991768EC71E0CE0144960E9404186BE44C
:1039700071E0CE010E960E940418AE014C5E5F4FBE
:10398000BE01625F7F4FCE014A960E948015CE0134
:103990000E960E949917CE0144960E9499176A8C40
:1039A0007B8C61147104E1F10E8D1F8D01151105E1
:1039B000B9F123016201FFEF4F1A5F0AF60180811E
:1039C000082E000C990B0E943B2B892B99F7015074
:1039D0001109060D171DF8018081082E000C990BA6
:1039E0000E943B2B892B79F40F5F1F4FA8014C19C4
:1039F0005D095F8F4E8F6C147D0458F4B601C301CE
:103A00000E943A2506C00C151D0570F301501109DE
:103A1000E2CFEA8DFB8D8E8D9F8DE80FF91F10820E
:103A200000EB15E0F8016591749188E194E00E9443
:103A30002F2768E174E0CE010E960E940418BE01A3
:103A4000625F7F4FCE014A960E94C7166C01CE017D
:103A50000E960E949917D7FC34C07EEAC72E75E0F7
:103A6000D72EF6016591749188E194E00E942F278A
:103A700068E174E08AEF93E00E946B17E2EBF5E0F7
:103A80006591749188E194E00E942F2768E174E0C9
:103A900080E094E00E946B1768E174E086E094E0B7
:103AA0000E946B17F6016591749188E194E00E9481
:103AB0002F2768E174E08CE094E00E946B17F80116
:103AC0003EC060E571E0CE010E960E940418BE0172
:103AD000625F7F4FCE014A960E94C7168C01CE01CD
:103AE0000E960E94991717FD31C0E6EBF5E065913F
:103AF000749180E494E00E942F2760E474E08AEFE0
:103B000093E00E946B17E8EBF5E06591749188E112
:103B100094E00E942F2768E174E080E094E00E9426
:103B20006B1768E174E086E094E00E946B1760E434
:103B300074E08CE094E00E946B17E4EBF5E0659193
:103B4000749188E194E00E942F2777C068E571E0C6
:103B5000CE010E960E940418BE01625F7F4FCE0117
:103B60004A960E94C7168C01CE010E960E949917A4
:103B700017FD27C0EAEBF5E06591749188E194E0C8
:103B80000E942F27ECEBF5E06591749180E494E0BE
:103B90000E942F2760E474E08AEF93E00E946B1785
:103BA00068EC71E080E094E00E946B1768EC71E0D3
:103BB00086E094E00E946B1760E474E08CE094E08F
:103BC0003AC060E671E0CE010E960E940418BE0174
:103BD000625F7F4FCE014A960E94C7168C01CE01CC
:103BE0000E960E94991717FD2EC0E0ECF5E0659146
:103BF000749188E194E00E942F27E2ECF5E0659152
:103C0000749180E494E00E942F2760E474E08AEFCE
:103C100093E00E946B1768EC71E080E094E00E94F2
:103C20006B1768EC71E086E094E00E946B1760E42B
:103C300074E08AEF93E00E946B1768E174E082E61B
:103C400092E00E944718E4ECF5E06591749188E1F8
:103C500094E00E942F2768E174E088E594E00E94D8
:103C600059186AEF73E088E594E00E9420180E94DA
:103C70005F1340E050E060ED77E080E090E00E946C
:103C80004F12811102C014E0A3C0E6ECF5E065918B
:103C9000749188E194E00E942F2768E174E088E540
:103CA00094E00E94591860E074E088E594E00E9476
:103CB00020180E945F1340E050E060ED77E080E064
:103CC00090E00E944F128823F1F2E8ECF5E0659154
:103CD000749188E194E00E942F2768E174E088E500
:103CE00094E00E94591866E074E088E594E00E9430
:103CF00020180E945F1340E050E060ED77E080E024
:103D000090E00E944F12882309F4BDCFEAECF5E061
:103D10006591749188E194E00E942F2768E174E036
:103D200088E594E00E9459186CE074E088E594E01E
:103D30000E9420180E945F1340E050E060ED77E0A1
:103D400080E090E00E944F12882309F49CCFECECB5
:103D5000F5E06591749188E194E00E942F2740E09E
:103D600050E060E177E288E194E00E944F12EEECCF
:103D7000F5E06591749188E194E00E942F2740E07E
:103D800050E060E177E288E194E00E944F12E0EDBC
:103D9000F5E06591749188E194E00E942F2740E05E
:103DA00050E060ED77E088E194E00E944F12E2ED90
:103DB000F5E06591749188E194E00E942F2740E03E
:103DC00050E060ED77E088E194E00E944F1210E04F
:103DD000CE014A960E949917111128C040E061E077
:103DE00080E00E94AC05F7016591749184E492E053
:103DF0000E942F2764E472E082E692E00E94471856
:103E000000EE15E032EEE32E35E0F32E42E1C42E53
:103E100042E0D42E56E2A52E52E0B52E6EED862E4F
:103E200065E0962E84C012E001C013E060ED77E0FB
:103E300080E090E00E94030E1450123008F084CA13
:103E400040E060E081E00E94AC0568EE73E080E055
:103E500090E00E94030EE0E0F0E0099575CA40E0B2
:103E600050E068E873E180E494E00E944F12811111
:103E700078C01092EE0368E771E082E692E00E945B
:103E800059186EE673E082E692E00E9447186EE6EB
:103E900073E0CE0144960E940418F6016591749176
:103EA00084E492E00E942F2764E472E0CE010E9633
:103EB0000E940418BE01625F7F4FCE0144960E94AB
:103EC000C7163C01CE010E960E94991777FC16C0CA
:103ED000F5016591749184E492E00E942F2764E4D7
:103EE00072E082E692E00E94591868EE73E080E08A
:103EF00090E00E94030EE0E0F0E00995F401659186
:103F0000749188E194E00E942F2740E050E060ED3A
:103F100077E088E194E00E944F1268EE73E080E061
:103F200090E00E94030ECE0144960E949917F8017A
:103F30006591749188E194E00E942F27F7016591C3
:103F4000749180E494E00E942F2740E050E060E10B
:103F500077E288E194E00E944F12882309F489CF28
:103F60007ECF81E08093EE0380E090E00E94932C6E
:103F70008F3109F449C0E4E1F2E06591749184E481
:103F800092E00E942F2764E472E082E692E00E94B1
:103F9000471800E010E060E0C8010E9401050F5FD3
:103FA0001F4F0F3FF3E01F07B1F76FE180E090E094
:103FB0000E94010588EC90E00E94FD11E2EFF1E023
:103FC0006591749184E492E00E942F2784E690E04A
:103FD0000E94261288E790E00E9426128CE890E06A
:103FE0000E9426128CED90E00E942612E6E1F2E09B
:103FF0006591749184E492E00E942F2764E472E05A
:1040000082E692E00E944718E4EFF1E06591749136
:1040100084E492E00E942F2764E472E088E693E053
:104020000E946B1728E6E22E23E0F22E67010CEDCA
:1040300010E0F60161916F011F870E87CE010E9689
:104040000E94C5050F5F1F4F023E110591F7E8E181
:10405000F2E06591749184E492E00E942F2788EC4D
:1040600090E00E94E3110CED10E0C8010E94932C37
:10407000F70181937F010F5F1F4F023E1105A9F7E2
:10408000EAE1F2E06591749184E492E00E942F27C6
:1040900064E472E082E692E00E94591860910001A7
:1040A0007091010180910201909103010E94D4114D
:1040B00088E693E00E94D21341E060E080E00E9435
:1040C000AC050E94290640E061E080E00E94AC055A
:1040D000ECE1F2E06591749184E492E00E942F2774
:1040E00064E472E082E692E00E9447180E943D0E6E
:1040F0006093DD017093DE018093DF019093E00116
:104100008E010F5F1F4F8AE2282E82E0382E98EE34
:10411000492E93E0592E612C712C88E594E00E9481
:10412000E103892B09F4E7C064E670E080E090E0E9
:104130000E94030E88E594E00E94E103892BB1F010
:1041400088E594E00E94F903809354049093550409
:1041500089831A8241E050E0B8018FEE93E00E941B
:10416000F3166AE070E080E090E0E2CF8FEE93E03B
:104170000E94D213EEE1F2E06591749184E492E042
:104180000E942F2764E472E082E692E00E945918B0
:104190008FEE93E00E94D21366E671E0C8010E94A0
:1041A0000418B8018FEE93E00E94C7167C01C80185
:1041B0000E949917F7FC99C0B80188E790E00E9427
:1041C000DB04B801CE0186960E940418B8018CE881
:1041D00090E00E94DB04B801CE0180960E94041892
:1041E000B8018CED90E00E94DB04B801CE014A9644
:1041F0000E940418BE016A5D7F4F8FEE93E00E941B
:10420000C71697FD11C0F1016591749184E492E0A5
:104210000E942F2764E472E082E692E00E94471831
:10422000BE016A5D7F4F1AC0BE01605E7F4F8FEE98
:1042300093E00E94C71697FD2BC0ECE2F2E0659177
:10424000749184E492E00E942F2764E472E082E695
:1042500092E00E944718BE01605E7F4FCE010E962D
:104260000E94FB176FEE73E0CE0144960E94FB178D
:10427000BE01625F7F4FCE0144960E940305CE01CE
:1042800044960E949917CE010E960E94991721C05C
:10429000BE01665E7F4F8FEE93E00E94C71697FDCA
:1042A0000AC06BE671E082E692E00E944718BE0108
:1042B000665E7F4FD3CFE8E2F2E06591749184E4CB
:1042C00092E00E942F2764E472E082E692E00E946E
:1042D0004718CE014A960E949917CE0180960E94F7
:1042E0009917CE0186960E94991768EC71E08FEEBF
:1042F00093E00E946B170E943D0E6B017C01809140
:10430000DC01811104C088EC90E00E94E3118091EF
:10431000E1019091E201A091E301B091E401460135
:104320005701881A990AAA0ABB0A20910001309104
:1043300001014091020150910301A8EEB3E00E94F7
:10434000A92C86169706A806B90608F470C0E2E202
:10435000F2E06591749184E492E00E942F2764E476
:1043600072E082E692E00E9459188091E1019091FA
:10437000E201A091E301B091E401A7019601281B9D
:10438000390B4A0B5B0BCA01B901A30192010E94D0
:10439000C223CA01B9010E94D41141E060E080E06B
:1043A0000E94AC05C092E101D092E201E092E301EB
:1043B000F092E4010E94290640E061E080E00E9462
:1043C000AC05E4E2F2E06591749184E492E00E942D
:1043D0002F2764E472E082E692E00E9459188091EF
:1043E000840490918504009711F48AE894E06801B0
:1043F000C81AD90A0D2C000CEE08FF08F7FE0EC0F3
:104400006DE282E692E00E94191866277727CB01B9
:104410006C197D098E099F094AE003C04AE0C70173
:10442000B6010E94911182E692E00E9443180E9418
:104430003D0EC090DD01D090DE01E090DF01F090F4
:10444000E001DC01CB018C199D09AE09BF09813067
:104450009C45A642B54018F0E0E0F0E0099564EF15
:1044600071E080E090E00E94030E0E94300C55CE77
:1044700082E693E00E94991787E794E00E949917DB
:1044800088E693E00E9499178DE794E00E949917BF
:104490008CE094E00E94991786E094E00E949917BE
:1044A00080E094E00E9499178AEF93E00E949917A8
:1044B0008FEE93E00E94991784E291E09093590463
:1044C00080935804809156049091570488559440E5
:1044D00071F4E0916B04F0916C04908180916D0413
:1044E0008095892380831092570410925604089572
:1044F000109265021092640288EE93E0A0E0B0E0B2
:104500008093660290936702A0936802B093690259
:1045100024E131E0309363022093620225EC30E025
:1045200030936F0220936E0224EC30E030937102DE
:104530002093700220EC30E03093730220937202DB
:1045400021EC30E0309375022093740222EC30E0CD
:10455000309377022093760226EC30E03093790294
:104560002093780210927B0210927C0210927D02BE
:1045700010927E0210925B0410925A0480935C04A5
:1045800090935D04A0935E04B0935F0484E291E095
:10459000909359048093580410926F0410926E0403
:1045A00010927104109270041092730410927204AD
:1045B0001092750410927404609176046E7F6D7F82
:1045C000609376046695617081E0682787E00E94B9
:1045D0007B0D61E087E00E94C70DE7E2F6E0E49121
:1045E000E0936804E3E1F6E0E491F0E0EE0FFF1FF2
:1045F000E850FA4F8591949190936A0480936904EE
:1046000060E088E00E94C70D8091760481FD04C0BF
:1046100061E088E00E947B0D88E080936404E8E21A
:10462000F6E0E491E0936504E4E1F6E0E491F0E083
:10463000EE0FFF1FEE5FF94F859194919093670401
:10464000809366041092EE0368EC71E08FEE93E0C5
:104650000E94041868EC71E08AEF93E00E9404184D
:1046600068EC71E080E094E00E94041868EC71E06E
:1046700086E094E00E94041868EC71E08CE094E01D
:104680000E940418109255041092540468EC71E0D2
:104690008DE794E00E94041868EC71E088E693E0EE
:1046A0000E94041868EC71E087E794E00E94041807
:1046B00069EC71E082E693E00E94041860E184E511
:1046C00093E00E94341061E186E493E00E9434108C
:1046D00064E088E393E00E94341023EB3CE03093E5
:1046E00037032093360384E593E090932B03809364
:1046F0002A03109229031092250399E09093260330
:1047000081E0809327038093280330932403209330
:10471000230346E453E05093180340931703109289
:104720001603109212039093130380931403809343
:104730001503309311032093100328E333E03093E3
:10474000050320930403109203031092FF02909339
:1047500000038093010380930203089597FB072EC3
:1047600016F4009407D077FD09D00E94E42307FCDB
:1047700005D03EF4909581959F4F08957095619571
:104780007F4F0895A1E21A2EAA1BBB1BFD010DC08D
:10479000AA1FBB1FEE1FFF1FA217B307E407F507F1
:1047A00020F0A21BB30BE40BF50B661F771F881FCD
:1047B000991F1A9469F760957095809590959B0163
:1047C000AC01BD01CF010895AA1BBB1B51E107C07D
:1047D000AA1FBB1FA617B70710F0A61BB70B881F91
:1047E000991F5A95A9F780959095BC01CD01089520
:1047F000EE0FFF1F0590F491E02D09945058BB2750
:10480000AA270E9416240C94592C0E944B2C38F095
:104810000E94522C20F039F49F3F19F426F40C9496
:10482000482C0EF4E095E7FB0C94422CE92F0E94F3
:104830006A2C58F3BA17620773078407950720F0AC
:1048400079F4A6F50C948C2C0EF4E0950B2EBA2F6F
:10485000A02D0B01B90190010C01CA01A001112486
:10486000FF27591B99F0593F50F4503E68F11A1632
:10487000F040A22F232F342F4427585FF3CF4695C3
:1048800037952795A795F0405395C9F77EF41F16E5
:10489000BA0B620B730B840BBAF09150A1F0FF0FAF
:1048A000BB1F661F771F881FC2F70EC0BA0F621F9B
:1048B000731F841F48F4879577956795B795F7958B
:1048C0009E3F08F0B0CF9395880F08F09927EE0F20
:1048D000979587950895A0E0B0E0E1E7F4E20C94A5
:1048E000B82CEC01009721F4CB010E94B925B8C087
:1048F000FC01E60FF71F9C0122503109E217F30774
:1049000008F4ACC0D9010D911C9111970617170737
:10491000B0F00530110508F49FC0C8010497861750
:10492000970708F499C002501109061B170B019351
:1049300011936D937C93CF010E944E268DC05B0135
:10494000A01AB10A4C01800E911EA0918604B0916C
:10495000870440E050E0E12CF12C109709F44AC0A4
:10496000A815B905D1F56D907C901197630182E08F
:10497000C80ED11CCA14DB0480F1A3014A195B09DB
:104980006A0182E0C80ED11C1296BC901297139651
:10499000AC91B5E0CB16D10440F0B282A383518331
:1049A0004083D9016D937C930AC00E5F1F4FC301F2
:1049B000800F911FF90191838083EB2DFA2FE11471
:1049C000F10431F0D7011396FC93EE93129744C093
:1049D000F0938704E09386043FC08D919C911197DA
:1049E0004817590708F4AC017D0112960D90BC914F
:1049F000A02DB3CF809184049091850488159905EA
:104A0000E1F446175707C8F480910401909105011D
:104A1000009741F48DB79EB740910801509109016C
:104A2000841B950BE817F907C8F4F0938504E0930D
:104A30008404F901718360830FC0CB010E94B92502
:104A40007C01009759F0A801BE010E943A25CE01D1
:104A50000E944E26C70104C0CE0102C080E090E053
:104A6000CDB7DEB7EEE00C94D42C81E090E0F89462
:104A70000C94FA2CFB01DC0102C001900D92415014
:104A80005040D8F708956817790768F4FB01DC01F6
:104A9000E40FF51FA40FB51F02C002900E92415003
:104AA0005040D8F708950C943A25FC01819186175F
:104AB00021F08823D9F7992708953197CF010895D8
:104AC000FB01DC018D91019080190110D9F3990B44
:104AD0000895FB01DC0101900D920020E1F708959B
:104AE000FB01DC014150504048F001900D92002044
:104AF000C9F701C01D9241505040E0F70895FB01F5
:104B000051915523A9F0BF01DC014D914517411189
:104B1000E1F759F4CD010190002049F04D91401585
:104B20004111C9F3FB014111EFCF81E090E0019702
:104B30000895EF920F931F93CF93DF93E80147FD02
:104B400002C034E001C034E1E42F440FFF0BF7FF53
:104B500003C0F195E195F109E32E022F2E2FAE014E
:104B60000E947827CE01DF91CF911F910F91EF9096
:104B70000895CF93DF938230910510F482E090E0A6
:104B8000E0918604F091870420E030E0C0E0D0E0BE
:104B9000309711F14081518148175907C0F04817EB
:104BA000590761F482819381209719F09B838A834E
:104BB0002BC0909387048093860426C0211531056D
:104BC00019F04217530718F49A01BE01DF01EF01F3
:104BD0000280F381E02DDCCF2115310509F1281B7E
:104BE000390B2430310590F412968D919C911397D6
:104BF0006115710521F0FB019383828304C09093BA
:104C0000870480938604FD01329644C0FD01E20FC3
:104C1000F31F81939193225031092D933C933AC015
:104C20002091840430918504232B41F420910601C6
:104C3000309107013093850420938404209104016E
:104C4000309105012115310541F42DB73EB7409152
:104C5000080150910901241B350BE0918404F09167
:104C60008504E217F307A0F42E1B3F0B2817390722
:104C700078F0AC014E5F5F4F2417350748F04E0FB8
:104C80005F1F50938504409384048193919302C0E5
:104C9000E0E0F0E0CF01DF91CF9108950F931F93F3
:104CA000CF93DF93009709F48CC0FC0132971382F5
:104CB000128200918604109187040115110581F478
:104CC00020813181820F931F2091840430918504CB
:104CD0002817390779F5F0938504E093840471C0AF
:104CE000D80140E050E0AE17BF0750F412962D9166
:104CF0003C911397AD012115310509F1D901F3CF8D
:104D00009D01DA013383228360817181860F971FB1
:104D10008217930769F4EC0128813981260F371F28
:104D20002E5F3F4F318320838A819B8193838283CF
:104D3000452B29F4F0938704E093860442C0139630
:104D4000FC93EE931297ED01499159919E01240F26
:104D5000351FE217F30771F480819181840F951F4D
:104D6000029611969C938E938281938113969C93C5
:104D70008E931297E0E0F0E0D80112968D919C910D
:104D80001397009719F0F8018C01F6CF8D919C9143
:104D900098012E5F3F4F820F931F20918404309122
:104DA00085042817390769F4309729F4109287048D
:104DB0001092860402C0138212821093850400931D
:104DC0008404DF91CF911F910F9108956627772773
:104DD0000C940629FC0188279927E8942191203218
:104DE000E9F3293010F02E30C8F32B3241F02D3288
:104DF00039F4689404C00E944B27820F911D2191C1
:104E000020532A30C0F31EF4909581959F4F08954A
:104E10001F93FC0199278827BC01E8941191103257
:104E2000E9F3193010F01E30C8F31B3251F01D3277
:104E300049F4689406C00E943627610F711D811DD8
:104E4000911D119110531A30B0F33EF49095809556
:104E5000709561957F4F8F4F9F4F1F910895FB0174
:104E6000DC0105900D920020E1F70895592F482F9D
:104E7000372F262F660F771F881F991F660F771F02
:104E8000881F991F620F731F841F951F660F771F5E
:104E9000881F991F08957AE0979F902D879F802DF6
:104EA000910D112408954532510520F4423010F03F
:104EB0000C945E27FB011082CB010895BB27FB01F8
:104EC0005527AA27880F991FAA1FA41710F0A41B03
:104ED00083955051B9F7A05DAA3308F0A95DA1935D
:104EE000009779F7B111B1931192CB010C945C2B1F
:104EF0004F925F926F927F929F92AF92BF92CF92AA
:104F0000DF92EF92FF920F931F93CF93DF93CDB772
:104F1000DEB729970FB6F894DEBF0FBECDBF6A018A
:104F2000122FB02E2BE3201720F0FF24F394F00E65
:104F300002C0BCE3FB2E0F2D27E0AE014F5F5F4F99
:104F40000E94632AAC018981982F9970913031F0C9
:104F5000E1FC06C0E0FE06C090E205C09DE203C091
:104F60009BE201C090E0EE2DE07183FF3CC0911107
:104F700002C083E001C084E0811718F4212F281BB0
:104F800001C020E0E1110BC0F601822F30E288233E
:104F900019F031938150FBCFC20ED11C20E0992330
:104FA00029F0D6019C93F60131966F01C601039654
:104FB000E2FE0AC03EE4D6013C9341E411964C93D4
:104FC000119712963C9306C03EE6F601308341E607
:104FD00041833283FC01322F40E2332309F442C083
:104FE00041933150FACF82FF44C0911102C083E057
:104FF00001C084E0811718F4212F281B01C020E094
:10500000E1110BC0F601822F30E2882319F03193B1
:105010008150FBCFC20ED11C20E0992329F0D6018C
:105020009C93F60131966F01C6010396E2FE0BC018
:1050300039E4D6013C933EE411963C93119736E453
:1050400012963C9307C039E6F60130833EE6318381
:1050500036E63283FC01322F40E2332319F04193CC
:105060003150FBCFFC01E20FF11D10828EEF9FEF5C
:10507000B7C0F1E0911101C0F0E06F2F70E014169D
:10508000150624F49A012F5F3F4F02C021E030E063
:10509000260F371FBB2029F06B2D70E06F5F7F4F0D
:1050A00002C060E070E0260F371F612F70E0261706
:1050B00037071CF4121B212F01C020E03E2D387150
:1050C00059F4D601322F60E2332319F06D93315039
:1050D000FBCFC20ED11C20E0FF2331F0D6019C9300
:1050E000B6016F5F7F4F6B01E1110BC0F601922F8C
:1050F00030E3992319F031939150FBCFC20ED11CAC
:1051000020E09F2D940F3A81782F7071A72E84FF95
:1051100003C0313309F49150191624F4993018F072
:1051200098E001C091E0E42F852F57FF02C0E0E036
:1051300080E06E2F782FE0E0F0E0AEE29A2E3A01A8
:10514000691A71082A01461A570A0B2D10E01195A9
:10515000019511096F3F8FEF780729F4D6019C92D2
:10516000C60101966C014617570784F0661677064C
:105170006CF47F01E40CF51CA1E0B0E0AC0FBD1FA6
:10518000EA0EFB1ED7011196BC9002C090E3B92E27
:10519000615071093196C60101967C016017710753
:1051A00024F0D601BC926C01D5CF6417750741F489
:1051B000363320F4353321F4A11002C081E3B82E38
:1051C000F601B082F701822F90E2882319F09193C3
:1051D0008150FBCFF701E20FF11D108280E090E0DB
:1051E00029960FB6F894DEBF0FBECDBFDF91CF91E9
:1051F0001F910F91FF90EF90DF90CF90BF90AF90F5
:105200009F907F906F905F904F900895A0E0B0E0E6
:10521000ECE0F9E20C94B82CEC017B01611571050E
:1052200019F0DB018D939C938E010F5F1F4F7880E7
:10523000872D90E00E943B2B892B11F0E801F4CFE1
:10524000BDE27B1205C00F5F1F4F7980C1E008C02F
:10525000EBE27E1204C08E010E5F1F4F7980C0E02A
:105260006801F1E0CF1AD10843E050E06CE376E04A
:10527000C6010E94442B892BF1F4680122E0C20E82
:10528000D11C45E050E067E376E0C6010E94442B64
:10529000892B21F4680187E0C80ED11CE114F104C8
:1052A00019F0D701CD92DC92C111FFC060E070E02F
:1052B00080E89FE703C143E050E064E376E0C60185
:1052C0000E94442B892B51F4E114F10409F4F2C03B
:1052D0000E5F1F4FF70111830083ECC0680160E08F
:1052E00070E0CB0100E010E0F601D0EDD70DDA3030
:1052F00058F52C2F2260622E2C2F2870C2FF05C07B
:10530000211128C00F5F1F4F25C0222311F001502B
:105310001109A5E0B0E09B01AC010E94A92C4B0152
:105320005C01880C991CAA1CBB1CC501B4016D0F43
:10533000711D811D911D6839A9E97A078A07A9E1C4
:105340009A0740F0C66005C0DE3F51F4C3FD44C07B
:10535000C8606C2EBFEFCB1ADB0A7080C62DC4CF9D
:105360002D2F2F7D2531C1F540814D3211F4C061C3
:1053700006C04B3221F0319621E030E006C0329673
:10538000D60111964C9122E030E0A0EDA40FAA3096
:1053900018F0E21BF30B20C040E050E04038BCE0C6
:1053A0005B075CF49A01220F331F220F331F420F59
:1053B000531F440F551F4A0F511D3196DF0111979E
:1053C0002C91A0EDA20FAA3048F3C4FF03C0519561
:1053D00041955109040F151FC1FF07C0E114F104E5
:1053E00021F03197D701ED93FC930E94712BC3708C
:1053F000C33019F06B017C0106C06B017C01F7FA28
:10540000F094F7F8F09420E030E0A901C701B6016C
:105410000E946C2B882309F445C017FF06C0119524
:1054200001951109C3E5D6E002C0CBE6D6E05E01E6
:10543000B8E1AB1AB1084601BE2DAF2D90E2E92EBE
:10544000F12C0E151F0584F0FE0125913591459133
:105450005491B4018B2F9A2F0E94D22B4B01B82F5D
:10546000A92F0E191F09EDCF2497F594E794CA15BB
:10547000DB0539F76401EB2EFA2E8E2D880F8F2D68
:10548000881F8F3F49F020E030E0A901C701B60135
:105490000E946C2B811106C082E290E090938904F7
:1054A00080938804C701B60109C060E070E080E81D
:1054B0009FEF04C060E070E080EC9FE7CDB7DEB7FF
:1054C000EEE00C94D42C283008F027E03327DA01E2
:1054D000990F311D87FD916000966105710539F4C2
:1054E00032602E5F3D9330E32A95E1F708959F3FA8
:1054F00030F080387105610509F03C5F3C5F3D93F9
:10550000913008F08068911DDF93CF931F930F9324
:10551000FF92EF92192F987F9695E92F9695969581
:10552000E90FFF27E753F94F99273327EE24FF248C
:10553000A701E70105900894079428F4360FE71EA9
:10554000F81E491F511D660F771F881F991F06946B
:10555000A1F70590079428F4E70EF81E491F561F7F
:10556000C11D770F881F991F661F0694A1F705902C
:10557000079428F4F80E491F561FC71FD11D880F26
:10558000991F661F771F0694A1F70590079420F4D2
:10559000490F561FC71FD81F990F661F771F881FF7
:1055A0000694A9F784911095177041F0D695C79588
:1055B00057954795F794E7941A95C1F7EFE6F6E00B
:1055C00068941590159135916591959105907FE2BC
:1055D0007395E118F10A430B560BC90BD009C0F7BC
:1055E000E10CF11E431F561FC91FD01D7EF47033FE
:1055F00011F48A95E6CFE894015030F0080F0AF4D0
:105600000027021708F4202F2395022F7A3328F061
:1056100079E37D932A95E9F710C07D932A9589F661
:10562000069497956795379517951794E118F10AA1
:10563000430B560BC90BD00998F023957E917395B7
:105640007A3308F070E37C932013B8F77E91706191
:105650007D9330F0839571E37D9370E32A95E1F7B4
:105660001124EF90FF900F911F91CF91DF91992717
:1056700087FD9095089591110C943F2C803219F07C
:1056800089508550C8F70895FB01DC014150504016
:1056900088F08D9181341CF08B350CF4805E65911F
:1056A00061341CF06B350CF4605E861B611171F384
:1056B000990B0895881BFCCFDC01FC01672F7191C9
:1056C0007723E1F7329704C07C916D9370836291E8
:1056D000AE17BF07C8F308950E94AE2B08F481E00F
:1056E0000895E89409C097FB3EF4909580957095D5
:1056F00061957F4F8F4F9F4F9923A9F0F92F96E91E
:10570000BB279395F695879577956795B795F11192
:10571000F8CFFAF4BB0F11F460FF1BC06F5F7F4F2F
:105720008F4F9F4F16C0882311F096E911C0772341
:1057300021F09EE8872F762F05C0662371F096E84A
:10574000862F70E060E02AF09A95660F771F881F19
:10575000DAF7880F9695879597F90895990F0008BD
:10576000550FAA0BE0E8FEEF16161706E807F90733
:10577000C0F012161306E407F50798F0621B730BCE
:10578000840B950B39F40A2661F0232B242B252B4F
:1057900021F408950A2609F4A140A6958FEF811DF2
:1057A000811D08950E94E52B0C94592C0E944B2CCE
:1057B00038F00E94522C20F0952311F00C94422CCA
:1057C0000C94482C11240C948D2C0E946A2C70F39C
:1057D000959FC1F3950F50E0551F629FF001729F96
:1057E000BB27F00DB11D639FAA27F00DB11DAA1FA5
:1057F000649F6627B00DA11D661F829F2227B00DF2
:10580000A11D621F739FB00DA11D621F839FA00D7C
:10581000611D221F749F3327A00D611D231F849FCC
:10582000600D211D822F762F6A2F11249F57504023
:105830009AF0F1F088234AF0EE0FFF1FBB1F661F9E
:10584000771F881F91505040A9F79E3F510580F067
:105850000C94422C0C948D2C5F3FE4F3983ED4F3CF
:10586000869577956795B795F795E7959F5FC1F70B
:10587000FE2B880F911D9695879597F90895992786
:105880008827089597F99F6780E870E060E00895A1
:105890009FEF80EC089500240A9416161706180648
:1058A0000906089500240A94121613061406050624
:1058B0000895092E0394000C11F4882352F0BB0FB5
:1058C00040F4BF2B11F460FF04C06F5F7F4F8F4F18
:1058D0009F4F089557FD9058440F551F59F05F3F53
:1058E00071F04795880F97FB991F61F09F3F79F002
:1058F00087950895121613061406551FF2CF469584
:10590000F1DF08C0161617061806991FF1CF869505
:105910007105610508940895E894BB2766277727E9
:10592000CB0197F90895F999FECF92BD81BDF89A00
:10593000992780B50895262FF999FECF1FBA92BDF9
:1059400081BD20BD0FB6F894FA9AF99A0FBE019660
:1059500008950E94EB2CA59F900DB49F900DA49FDD
:10596000800D911D112408952F923F924F925F92C6
:105970006F927F928F929F92AF92BF92CF92DF925F
:10598000EF92FF920F931F93CF93DF93CDB7DEB7C4
:10599000CA1BDB0B0FB6F894DEBF0FBECDBF099458
:1059A0002A88398848885F846E847D848C849B84AF
:1059B000AA84B984C884DF80EE80FD800C811B81BD
:1059C000AA81B981CE0FD11D0FB6F894DEBF0FBEEC
:1059D000CDBFED010895A29FB001B39FC001A39F69
:1059E000700D811D1124911DB29F700D811D112418
:1059F000911D089513E0C6EBD3E004C0FE010E94A0
:0E5A0000F8232196C73BD107C9F7F894FFCFD2
:105A0E000A00000000008A0480005E00BC007701DE
:105A1E0000000000C70B0A14900B6E0B820B0E0CCD
:105A2E0000000000CD0C0A14E103F903B40CCC0CF9
:105A3E0041540041542B434D4744413D2244454C73
:105A4E0020414C4C2200302C004F4B0D004F4B0090
:105A5E004265656C696E65004D656761466F6E00E7
:105A6E0054454C4532002B434D5400534D53206347
:105A7E00656E7472002C22003E0052657374617262
:105A8E0074002E2E0054696D656F666600203030EE
:105A9E000074313D004000687474703A2F2F767098
:105AAE0073333930382E7670732E686F73742E728E
:105ABE00752F7265636965766552656164696E6797
:105ACE00732E706870000D0A00383631343435305C
