:100000000C94EE020C9435070C940E070C94C00A65
:100010000C94C00A0C94C00A0C9416030C9416039A
:100020000C9416030C942C090C9416030C941603D0
:100030000C9416030C9416030C9416030C941603DC
:100040000C94C4060C9416030C942D050C9407050F
:100050000C9416030C9416030C9416030C941603BC
:100060000C9416030C9416034D454741464F4E0021
:100070004265656C696E65004D545300475052539C
:1000800020636F6E6E656374202E2E00496E697456
:1000900020475052532E2E200072737369202E2E4B
:1000A000000A5265676973746572656420726F61D6
:1000B0006D696E67000A556E6B6E6F776E000A444D
:1000C000656E696564000A4E6F74207265676973B6
:1000D00074657265642028736561726368696E6710
:1000E00029000A526567697374657265642028681F
:1000F0006F6D6529003A20000A4E6574776F726B48
:100100002073746174757320000A53657474696E8A
:1001100067207570206E6574776F726B2E2E2E00BF
:100120000A53494D20434349443A000A494D454941
:100130003A204E4F000A494D45493A00506F7765C5
:10014000722053494D383030204F6E00496E69742B
:1001500069616C697A696E672E2E2E2E284D617941
:100160002074616B6520352D3130207365636F6EAF
:100170006473290041542B434744434F4E543D314F
:100180002C224950222C220041542B5341504252E0
:100190003D332C312C22505744222C220041542B29
:1001A00053415042523D332C312C2255534552225B
:1001B0002C220041542B53415042523D332C312CC0
:1001C0002241504E222C22006E6F20636F6D7061B1
:1001D00072650054656C20636F6D70617265006EAE
:1001E0006F20636F6D7061726500204572726F726F
:1001F000733A2000546F74616C3A20005B5061794F
:100200006C6F61645D2000546865206E756D626579
:1002100072206F6620736572766572206572726FE8
:1002200072732065786365656465642032300045CB
:1002300072726F72732065786365656465640043EC
:100240006F6E6E656374206572726F72000A485437
:1002500054505F73736C3A20736574204F46462088
:1002600066616C736521000A485454505F73736C67
:100270003A20736574204F46462073756363657337
:100280007366756C6C7921000A485454505F73731F
:100290006C3A20736574204F4E2066616C73652143
:1002A000000A485454505F73736C3A20736574208D
:1002B0004F4E207375636365737366756C6C79213B
:1002C000000A4E6F20696E7465726E657420636FEC
:1002D0006E6E656374696F6E004552524F520072C4
:1002E0006574202D200052657175657374696E67A1
:1002F000202E2E2057616974000A53494D38303042
:1003000020736574757020656E64000A6672656599
:10031000206D656D6F72793A2000534D535F6365B0
:100320006E746572202E2E00496E74657276616C53
:10033000207365633A00436C6561722045455052F5
:100340004F4D20456E6400537461727420636C6578
:10035000617220454550524F4D004F4B000A5349A2
:100360004D38303020736574757020737461727409
:1003700000496E74657276616C2070696E672073D7
:1003800065633A00005EBCE2613FDD83C29C7E2073
:10039000A3FD1F419DC3217FFCA2401E5F01E3BD61
:1003A0003E6082DC237D9FC1421CFEA0E1BF5D0355
:1003B00080DE3C62BEE0025CDF81633D7C22C09E49
:1003C0001D43A1FF4618FAA427799BC584DA386635
:1003D000E5BB5907DB856739BAE406581947A5FB21
:1003E0007826C49A653BD987045AB8E6A7F91B4515
:1003F000C6987A24F8A6441A99C7257B3A6486D809
:100400005B05E7B98CD2306EEDB3510F4E10F2ACF4
:100410002F7193CD114FADF3702ECC92D38D6F31E0
:10042000B2EC0E50AFF1134DCE90722C6D33D18FD4
:100430000C52B0EE326C8ED0530DEFB1F0AE4C12C8
:1004400091CF2D73CA947628ABF517490856B4EAB4
:100450006937D58B5709EBB536688AD495CB2977A0
:10046000F4AA4816E9B7550B88D6346A2B7597C994
:100470004A14F6A8742AC896154BA9F7B6E80A5488
:10048000D7896B3500000000240027002A000000F7
:100490000008000201000003040700000000000043
:1004A000000000000000250028002B0000000000D4
:1004B00023002600290004040404040404040202A6
:1004C00002020202030303030303010204081020D3
:1004D000408001020408102001020408102000409E
:1004E0007A10F35A00A0724E18090010A5D4E80043
:1004F00000E87648170000E40B54020000CA9A3B5B
:10050000000000E1F50500008096980000004042E0
:100510000F000000A086010000001027000000006E
:10052000E803000000006400000000000A00000072
:1005300000000100000000002C76D888DC674F081E
:1005400023DFC1DFAE59E1B1B796E5E3E453C63A24
:10055000E651997696E8E6C28426EB898C9B62ED9B
:10056000407C6FFCEFBC9C9F40F2BAA56FA5F49055
:10057000055A2AF75C936B6CF9676DC11BFCE0E4CC
:100580000D47FEF520E6B500D0ED902E0300943522
:1005900077050080841E080000204E0A000000C875
:1005A0000C333333330F986E12831141EF8D2114C6
:1005B000893BE65516CFFEE6DB18D1844B381BF796
:1005C0007C1D901DA4BBE424203284725E22810035
:1005D000C9F124ECA1E53D270721BF2011241FBE4E
:1005E000CFEFD8E0DEBFCDBF13E0A0E0B1E0E6EE94
:1005F000F3E502C005900D92A433B107D9F725E0C9
:10060000A4E3B3E001C01D92A93BB207E1F712E0F9
:10061000CDEED2E004C02197FE010E948D22CC3E97
:10062000D107C9F70E94B8140C94E6290C94000075
:10063000FC01918D828D981761F0828DDF01A80FEA
:10064000B11D5D968C91928D9F5F9F73928F90E00C
:1006500008958FEF9FEF0895FC01918D828D98177B
:1006600031F0828DE80FF11D858D90E008958FEFB8
:100670009FEF0895FC01918D228D892F90E0805C81
:100680009F4F821B91098F739927089584E594E009
:100690000E943A0321E0892B09F420E0822F08957B
:1006A000FC01848DDF01A80FB11DA35ABF4F2C910F
:1006B000848D90E001968F739927848FA689B789DE
:1006C0002C93A089B1898C9180648C93938D848DB7
:1006D000981306C00288F389E02D80818F7D808386
:1006E0000895EF92FF920F931F93CF93DF93EC0146
:1006F00081E0888F9B8D8C8D981305C0E889F989DE
:10070000808185FD24C0F62E0B8D10E00F5F1F4FFA
:100710000F731127E02E8C8DE8120CC00FB607FC6A
:10072000FACFE889F989808185FFF5CFCE010E9453
:100730005003F1CF8B8DFE01E80FF11DE35AFF4FFF
:10074000F0820B8FEA89FB898081806207C0EE8985
:10075000FF896083E889F98980818064808381E0F2
:1007600090E0DF91CF911F910F91FF90EF9008954E
:10077000CF93DF93EC01888D8823C9F0EA89FB8948
:10078000808185FD05C0A889B9898C9186FD0FC03F
:100790000FB607FCF5CF808185FFF2CFA889B98914
:1007A0008C9185FFEDCFCE010E945003E7CFDF9102
:1007B000CF91089580E090E0892B29F00E944603B4
:1007C00081110C94000008953FB7F8948091BF0305
:1007D0009091C003A091C103B091C20326B5A89B1C
:1007E00005C02F3F19F00196A11DB11D3FBFBA2FC3
:1007F000A92F982F8827820F911DA11DB11DBC0123
:10080000CD0142E0660F771F881F991F4A95D1F7E7
:1008100008950895FC0190810180F281E02DF89403
:100820008181892B81832281892F809528232283AE
:10083000A7E0B0E01197F1F7218182238183A3E241
:10084000B0E01197F1F780817894EFECF0E0319708
:10085000F1F7982381E009F480E00895FC0190818C
:100860000180F281E02D892F809560FF12C0F894FD
:100870002281822382838181892B8183A3E2B0E05C
:100880001197F1F78281982B9283789487ED90E00D
:1008900011C0F8942281822382838181892B8183F4
:1008A000AFEFB0E01197F1F78281982B92837894A3
:1008B0008FE090E00197F1F70895089520913603B5
:1008C000309137032817390771F4909134038091E0
:1008D0003503981741F0E0913403F0E0E658FC4FFF
:1008E000808190E008958FEF9FEF089508951F9302
:1008F000CF93DF93DC015C962D913C915D972115A0
:10090000310539F481E090E013969C938E93129711
:100910003DC05196ED91FC91529750969C91509705
:10092000892F80951FB75E964C915E9741FB772784
:1009300070F941FD6095F8944081772311F0492BBF
:1009400001C048234083E9012197F1F748E0508135
:1009500060FF02C0592B01C058235083E901219741
:10096000F1F76695415099F7772321F0908189231B
:10097000808303C08081982B90831FBF5C968D91EC
:100980009C915D970197F1F721E030E0C901DF917B
:10099000CF911F9108952091360330913703281786
:1009A000390771F4809135032091340390E0805C25
:1009B0009F4F821B910960E470E00E9443220895DA
:1009C00080E090E008952091360330913703281796
:1009D0003907B9F49091340380913503981789F061
:1009E000E0913403F0E0E658FC4F8081209134031D
:1009F00030E02F5F3F4F2F7333272093340390E075
:100A000008958FEF9FEF089508950E94CA231F92C3
:100A10000F920FB60F9211242F933F934F935F9332
:100A20006F937F938F939F93AF93BF93EF93FF93B6
:100A300084E594E00E945003FF91EF91BF91AF9144
:100A40009F918F917F916F915F914F913F912F91E6
:100A50000F900FBE0F901F9018951F920F920FB618
:100A60000F9211242F938F939F93EF93FF93E09115
:100A70006404F09165048081E0916A04F0916B0454
:100A800082FD12C0908180916D048F5F8F732091E1
:100A90006E04821751F0E0916D04F0E0EC5AFB4FC8
:100AA000958F80936D0401C08081FF91EF919F919C
:100AB0008F912F910F900FBE0F901F90189583303C
:100AC00081F028F4813099F08230A1F008958730C8
:100AD000A9F08830B9F08430D1F4809180008F7D06
:100AE00003C0809180008F7780938000089584B543
:100AF0008F7702C084B58F7D84BD08958091B0004A
:100B00008F7703C08091B0008F7D8093B0000895EF
:100B10001F93CF93DF93282F30E0F901E257FB4F6B
:100B20008491F901E653FB4FD491F901EA54FB4F4C
:100B3000C491CC23C9F0162F81110E945F05EC2FC0
:100B4000F0E0EE0FFF1FEE55FB4FA591B4918FB76C
:100B5000F894111105C09C91ED2FE095E92302C096
:100B6000EC91ED2BEC938FBFDF91CF911F91089506
:100B7000CF93DF9390E0FC01E653FB4F2491FC01FF
:100B8000EA54FB4F8491882361F190E0880F991F0C
:100B9000FC01EC57FB4FC591D491FC01EE55FB4F86
:100BA000A591B491611109C09FB7F89488812095EF
:100BB00082238883EC912E230BC0623061F49FB7AF
:100BC000F8943881822F809583238883EC912E2B93
:100BD0002C939FBF06C08FB7F894E8812E2B2883F3
:100BE0008FBFDF91CF9108958F929F92AF92BF9266
:100BF000CF92DF92EF92FF926B017C010E94E4039F
:100C00004B015C01C114D104E104F104F1F00E9434
:100C1000E403DC01CB0188199909AA09BB09883EC4
:100C20009340A105B10570F321E0C21AD108E10893
:100C3000F10888EE880E83E0981EA11CB11CC11437
:100C4000D104E104F10419F7DDCFFF90EF90DF90BC
:100C5000CF90BF90AF909F908F9008952FB7F8944A
:100C60006091BB037091BC038091BD039091BE0362
:100C70002FBF08950F931F930E942E06A8950091F1
:100C800076031091770320917803309179039B01CB
:100C9000201B310B3093750320937403609376030C
:100CA0007093770380937803909379038091740312
:100CB00090917503803F9B403CF08091740390912C
:100CC00075038E3F9B407CF0809174039091750377
:100CD000883593405CF1809174039091750386365A
:100CE0009340CCF123C082E090E090934603809340
:100CF000450380917203909173030196909373035F
:100D0000809372038091720390917303C397CCF127
:100D10001092460310924503809170008E7F80935D
:100D20007000E0E0F0E01F910F910994809174034E
:100D3000909175038F35914024F1809174039091C7
:100D4000750382379140ECF483E090E09093460382
:100D50008093450316C081E090E090934603809312
:100D600045038091700390917103019690937103F4
:100D7000809370038091700390917103893791057E
:100D80003CF61F910F9108951F920F920FB60F928C
:100D900011242F933F938F939F93AF93BF93809191
:100DA000BB039091BC03A091BD03B091BE033091F1
:100DB000BA0323E0230F2D3720F40196A11DB11DA6
:100DC00005C026E8230F0296A11DB11D2093BA038A
:100DD0008093BB039093BC03A093BD03B093BE0369
:100DE0008091BF039091C003A091C103B091C20351
:100DF0000196A11DB11D8093BF039093C003A093E2
:100E0000C103B093C203BF91AF919F918F913F9166
:100E10002F910F900FBE0F901F9018951F920F9259
:100E20000FB60F9211242F933F934F935F936F93BD
:100E30007F938F939F93AF93BF93EF93FF93E09133
:100E40000201F09103010995FF91EF91BF91AF91DC
:100E50009F918F917F916F915F914F913F912F91D2
:100E60000F900FBE0F901F9018951F920F920FB604
:100E70000F9211242F933F934F935F936F937F9320
:100E80008F939F93AF93BF93EF93FF93E0910001F4
:100E9000F09101010995FF91EF91BF91AF919F9161
:100EA0008F917F916F915F914F913F912F910F9013
:100EB0000FBE0F901F901895DC01E0E0615038F0F4
:100EC0008D91E827F0E0EC57FC4FE491F7CF8E2F9F
:100ED0000895CF92DF92EF92FF920F931F93CF93DB
:100EE000DF931F92CDB7DEB76C01E62E08E010E06D
:100EF000FF24F39461E08F2D8E2109F460E0C60198
:100F000049830E942E04FF0C0150110949810115EB
:100F1000110581F7411115C0F894D6011196ED9194
:100F2000FC91129791818C918095892381831196F0
:100F3000ED91FC91129792818C9180958923828307
:100F400078940F90DF91CF911F910F91FF90EF90C8
:100F5000DF90CF900895CF92DF92EF92FF920F93A0
:100F60001F93CF93DF931F92CDB7DEB78C01F62E80
:100F700040E065E579830E946907CF2C7981D72EFF
:100F8000760188E0E80EF11CF60161916F0140E006
:100F9000C8010E946907CE14DF04B1F70F90DF91FA
:100FA000CF911F910F91FF90EF90DF90CF90089518
:100FB000FC0190810180F281E02DF8948181292F3C
:100FC00020958223818378948DE743E050E081501F
:100FD00021F1DA011197F1F730813923C1F3F89447
:100FE0008281822382838181892B81837894ABE7FC
:100FF000B7E01197F1F7F894818128232183A3E1C9
:10100000B1E01197F1F78081982381E009F080E049
:101010007894E3E6F6E03197F1F70895AF92BF9246
:10102000CF92DF92EF92FF920F931F93CF93DF93B4
:101030001F92CDB7DEB75C01E62ED72EFC01858569
:1010400081115DC0C5010E94D807811105C0F5015D
:101050001386158614866BC040E060EFC5010E94C0
:10106000690701E0F12CC12C11E0C5010E940A04BE
:10107000682FC50169830E940A046981613019F4EF
:101080008130B9F433C04F2D50E068131BC0F50117
:101090008385181730F4E40FF51F8381802349F40A
:1010A00002C0181731F060E0193058F4F5011487C8
:1010B00008C0F501EF0DF11D8381802B838361E072
:1010C00009C0C12EF501E40FF51F9381802F809593
:1010D00089238383C5010E942E041F5F000F11F432
:1010E000F39401E0F7E0FF1508F0BFCF113438F0BA
:1010F000F501C386C11015C081E0858712C0F501D6
:1011000013861586148680E0D5011396EE2DFD2DED
:101110009501255F3F4F9D919193A217B307D9F792
:1011200006C0F5018381882351F381E0EDCF0F9054
:10113000DF91CF911F910F91FF90EF90DF90CF90B3
:10114000BF90AF9008956F927F928F929F92AF92CF
:10115000BF92CF92DF92EF92FF920F931F93CF93A4
:10116000DF931F92CDB7DEB78C01F42EFC01858191
:10117000968159830E94AB0740E06EEBF8018581B0
:1011800096810E9469076F2C5981752E5301F9E0F1
:10119000AF0EB11CF8018580968088E0C82ED12C56
:1011A000EE24E394F12CC4010E940A048111FE286C
:1011B000EE0CF1E0CF1AD108B1F7F301F1923F0143
:1011C000EA15FB0539F7F801858196810E94D80759
:1011D00091E0813009F090E0892F0F90DF91CF915D
:1011E0001F910F91FF90EF90DF90CF90BF90AF9045
:1011F0009F908F907F906F9008950F931F93CF9340
:10120000DF93EC01162F60E0812F0E94B805612F5B
:1012100070E0FB01E653FB4FE491E883FB01EA54E5
:10122000FB4FE491F0E0EE0FFF1FE455FB4F85917B
:1012300094919A8389831B861D861C86FE013B96AA
:101240008E010D5F1F4F1292E017F107E1F7DF915A
:10125000CF911F910F9108951F920F920FB60F9289
:1012600011242F933F934F935F936F937F938F93AB
:101270009F93AF93BF93EF93FF9380913E03909121
:101280003F038093B2008091410390914203A0916B
:101290004303B09144030196A11DB11D8093410306
:1012A00090934203A0934303B093440340914103BE
:1012B00050914203609143037091440380913A033B
:1012C00090913B03A0913C03B0913D03481759070F
:1012D0006A077B07B0F080914003811112C081E062
:1012E00080934003109241031092420310924303F3
:1012F00010924403E0913803F0913903099510925C
:101300004003FF91EF91BF91AF919F918F917F919A
:101310006F915F914F913F912F910F900FBE0F9062
:101320001F901895CF93DF93EC018D819E810E94D1
:10133000D80740E06CEC8D819E810E94690748814E
:1013400064E48D819E810E9469078A818823B1F0BF
:10135000E981E950E33040F4F0E0EE0FFF1FE65E74
:10136000FE4F6081718102C06EEE72E0072E000CAC
:10137000880B990BDF91CF910C94F405DF91CF91FD
:101380000895EF92FF920F931F93CF93DF9300D0B6
:10139000CDB7DEB78C017A01FC0185819681698326
:1013A0007A830E94D80769817A81882371F0A70126
:1013B000C8010E94A308882341F068E0C7010E9489
:1013C0005C0791E0F7012085821390E0892F0F9050
:1013D0000F90DF91CF911F910F91FF90EF900895A3
:1013E000CF93DF93CDB7DEB729970FB6F894DEBF62
:1013F0000FBECDBFFB0120812031D1F0AE014F5F88
:101400005F4F0E94C109882389F08D818F3361F07D
:1014100020F48F3159F489E00CC08F3519F08F37E3
:1014200039F004C08BE005C08AE003C080E001C051
:101430008CE029960FB6F894DEBF0FBECDBFDF91CA
:10144000CF910895EF92FF920F931F93CF93DF9365
:10145000CDB7DEB761970FB6F894DEBF0FBECDBF34
:101460008C01DC011596ED91FC911697138615867B
:101470001486DF011B9633961E92AE17BF07E1F765
:10148000F8011482FF24F394BE01665F7F4FF801D8
:10149000858196810E940E08882309F464C067E064
:1014A000CE010A960E945C0799898913EDCFD80175
:1014B0008C91811126C015968D919C9116970E9452
:1014C000D807BE01665F7F4FF801858196810E9433
:1014D000AB0740E064EBD80115968D919C9116976F
:1014E0000E946907F801858196810E940A04E82E0E
:1014F000D80115968D919C9116970E94D807EE20E1
:1015000079F1F801858196810E94D807882349F0F6
:10151000AE014F5F5F4FBE01665F7F4FC8010E9403
:10152000A308D8011196EC90BE01665F7F4FC801F9
:101530000E94F0098E1518F4F801818106C0BE01E1
:10154000665F7F4FC8010E94F009D80111968C9305
:10155000119714968C9114978F5F14968C9394CF57
:10156000D801FC92CECF61960FB6F894DEBF0FBEC5
:10157000CDBFDF91CF911F910F91FF90EF90089514
:101580001F920F920FB60F9211242F933F934F93F8
:101590005F936F937F938F939F93AF93BF93EF93DB
:1015A000FF93E0913603F0913703309709F451C06F
:1015B000968DA685B785858591FF04C09C9189236A
:1015C00029F447C09C91892309F043C0A389B489B9
:1015D0009C918589809589238C9386899789019729
:1015E000F1F7608D718DA685B785558538E020E0CF
:1015F000CB010197F1F7822F90E095958795282FE1
:101600004C91452309F02068315091F7868D81FD7A
:1016100020958091350390E001968F739927309142
:101620003403381749F0A0913503B0E0A658BC4FF9
:101630002C938093350303C0868D8160868F828DC5
:10164000938D0197F1F7A389B4899C918589892BA2
:101650008C93FF91EF91BF91AF919F918F917F916B
:101660006F915F914F913F912F910F900FBE0F900F
:101670001F901895CF92DF92EF92FF920F931F93D6
:10168000CF93DF93EB017B0120E1E20EF11C8B0194
:101690006C01C61AD70AC601800F911F0E949929B2
:1016A000F80181938F01EE15FF05A9F7CE01DF91B7
:1016B000CF911F910F91FF90EF90DF90CF90089501
:1016C0000F931F93CF93DF938C01EB010E94992915
:1016D0008883C80101960E9499298983CE01DF91F0
:1016E000CF911F910F9108950C94A1298F929F92F1
:1016F000AF92BF92CF92DF92EF92FF920F931F9320
:10170000CF93DF93CDB7DEB72C970FB6F894DEBF3B
:101710000FBECDBF7C0167EC72E0CE0107960E9440
:10172000CF1262E571E0CE0101960E94CF12AE01A8
:10173000495F5F4FBE016F5F7F4FC7010E9454102A
:10174000CE0101960E948012CE0107960E9480125F
:1017500067EC72E0CE0107960E94CF1262E073E060
:10176000CE0101960E94CF12AE01495F5F4FBE01CC
:101770006F5F7F4FC7010E945410CE0101960E94F7
:101780008012CE0107960E94801267EC72E0CE01B3
:1017900007960E94CF1266EC72E0CE0101960E947D
:1017A000CF12AE01495F5F4FBE016F5F7F4FC70130
:1017B0000E945410CE0101960E948012CE0107961D
:1017C0000E94801267EC72E0CE0107960E94CF1251
:1017D00066EE72E0CE0101960E94CF12AE01495F23
:1017E0005F4FBE016F5F7F4FC7010E945410CE0153
:1017F00001960E948012CE0107960E948012D701A6
:10180000CD90DC901197C114D10409F443C0149613
:101810000D911C91159701151105E1F14601540137
:10182000BFEF8B1A9B0AF5018081082E000C990BE3
:101830000E948228892B99F7015011090C0D1D1D5A
:10184000D8018C91082E000C990B0E948228892BBC
:1018500081F4A8014F5F5F4F4A195B09F701558377
:101860004483CA14DB0458F4B501C6010E94CF2397
:1018700006C00A151B0568F301501109E1CFD70115
:10188000ED91FC91119714968D919C911597E80F0D
:10189000F91F10822C960FB6F894DEBF0FBECDBF95
:1018A000DF91CF911F910F91FF90EF90DF90CF903C
:1018B000BF90AF909F908F90089586E995E00E9429
:1018C000CB04892B29F086E995E00E94E304F5CF4B
:1018D00008957F928F929F92AF92BF92CF92DF92A4
:1018E000EF92FF920F931F93CF93DF93EC016B0165
:1018F0008A01892B89F00E945D0C6EE384E594E0F7
:101900000E944F13BE0184E594E00E943D13BE0186
:1019100086E995E00E943D130E942E064B015C0172
:10192000712CD5E4E12CF12C86E995E00E94CB04E2
:10193000892BD1F186E995E00E94E3049AE8971596
:1019400058F4EDE0F4E0A7ECB3E09D2F01900D9288
:101950009A95E1F795E4792EC1E0C70DE72DF0E007
:10196000E953FC4F8083EC2FF0E0E953FC4F1082E9
:101970000115110511F0B80102C060E171E087ECBA
:1019800093E00E940524892B71F068EE72E084E5F3
:1019900094E00E949A1367EC73E084E594E00E945F
:1019A0003D138C2F1CC07C2E0E942E06DC01CB0127
:1019B00088199909AA09BB098C159D05AE05BF05B3
:1019C00008F4B2CF6CEE72E084E594E00E949A13C2
:1019D00067EC73E084E594E00E943D1380E0DF91C2
:1019E000CF911F910F91FF90EF90DF90CF90BF901C
:1019F000AF909F908F907F9008950F931F93CF93F8
:101A0000DF938C01EB0160EF72E086E995E00E94C4
:101A10009A13B80186E995E00E949A13888199810A
:101A2000892B61F50E94561364EF71E080E090E02D
:101A30000E94F40540E050E060ED77E080E090E047
:101A40000E94690C8823B1F064E073E086E995E0B8
:101A50000E943D1382E080934703109253040E943A
:101A60002E066093C3037093C4038093C5039093C1
:101A7000C6030FC084E0809347030BC06FE386E981
:101A800095E00E944F13BE0186E995E00E94241460
:101A9000C9CF80E0DF91CF911F910F91089540E071
:101AA00050E060ED77E084E193E00E94690C6BE127
:101AB00073E087EC93E00E940524009759F00596A7
:101AC0000E946C258336910529F08F3F2FEF9207F6
:101AD00009F0089580E090E008951F93CF93DF937D
:101AE0001F92CDB7DEB7162F682F8AE049830E9478
:101AF0008805612F8EE00E9488054981642F8FE060
:101B00000F90DF91CF911F910C9488058091450330
:101B100090914603892B29F440E060E080E00E9428
:101B20006D0D80914503909146030197D9F4209162
:101B30006E0330916F0381E090E0232B11F080E081
:101B400090E090936F0380936E0380916E03909169
:101B50006F0340E060E0892B11F481E001C080E078
:101B60000E946D0D80914503909146030297D9F430
:101B700020916E0330916F0381E090E0232B11F0F0
:101B800080E090E090936F0380936E0380916E03EA
:101B900090916F03892B11F440E001C041E060E0B7
:101BA00080E00E946D0D809145039091460303975C
:101BB000D9F420916E0330916F0381E090E0232BE4
:101BC00011F080E090E090936F0380936E0380911A
:101BD0006E0390916F0340E0892B11F460E001C027
:101BE00061E080E00C946D0D0895EF92FF920F93E9
:101BF0001F93CF93DF931F92CDB7DEB77C01FC011B
:101C000000811181C80169830E949929698168173F
:101C100019F0C8010E94A129C7010F90DF91CF914F
:101C20001F910F91FF90EF900895AF92BF92CF92C6
:101C3000DF92EF92FF920F931F93CF93DF9300D029
:101C4000CDB7DEB78B016B0124E0C20ED11C7B0146
:101C50005C01A61AB70A95012E0D3F1DF70161918F
:101C60007F013A832983CE0101960E94F50DEC1481
:101C7000FD0489F7C8010F900F90DF91CF911F915C
:101C80000F91FF90EF90DF90CF90BF90AF900895AD
:101C9000CF93DF9300D000D0CDB7DEB7BE016D5F2C
:101CA0007F4F80EA90E00E94600B6B817C816F5FC8
:101CB0007F4F7C836B8380EA90E09A838983CE0197
:101CC00001960E94F50D6C8181EA90E09A838983E8
:101CD000CE0101960E94F50D0F900F900F900F907E
:101CE000DF91CF910895FF920F931F93CF93DF93CE
:101CF0008C01EB0185E4F82E86E995E00E94CB0487
:101D0000892B99F186E995E00E94E30490915304B0
:101D10009B3858F0F0925304EDE0F4E0A7ECB3E008
:101D20009F2D01900D929A95E1F7A0915304E1E067
:101D3000EA0FE0935304B0E0A953BC4F8C93F0E05A
:101D4000E953FC4F1082B80187EC93E00E94052410
:101D5000892B11F5209781F2BE0187EC93E00E9458
:101D60000524892B49F282E01AC00E942E060091B8
:101D7000C3031091C4032091C5033091C603DC0155
:101D8000CB01801B910BA20BB30B80319742A105B5
:101D9000B10520F083E003C081E001C080E0DF9165
:101DA000CF911F910F91FF9008958F929F92AF92C4
:101DB000BF920F931F93CF93DF93CDB7DEB7A19759
:101DC0000FB6F894DEBF0FBECDBF19A2423008F4A3
:101DD0004AE08E010F5D1F4F842E912CA12CB12C57
:101DE000A50194010E945722E62FB901CA010150B2
:101DF0001109EA3014F4E05D01C0E95CD801EC930C
:101E0000232B242B252B61F7B80184E594E00E9455
:101E1000A314A1960FB6F894DEBF0FBECDBFDF911D
:101E2000CF911F910F91BF90AF909F908F90089589
:101E3000CF93DF93E7E9F4E08491E3EDF4E0D4910C
:101E4000EFEBF4E0C491CC2391F081110E945F0587
:101E5000EC2FF0E0EE0FFF1FE455FB4FA591B4917E
:101E6000EC91ED2381E090E021F480E002C080E07D
:101E700090E0DF91CF910895CF93DF93EB01DC01E8
:101E80001596ED91FC911697138615861486DF0141
:101E90001B9633961E92AE17BF07E1F7BE01FC01F9
:101EA000858196810E940E08882349F067E0CE0163
:101EB0000E945C079F81891302C081E001C080E01D
:101EC000DF91CF9108950F931F93CF93DF93CDB7F9
:101ED000DEB761970FB6F894DEBF0FBECDBF8C01A1
:101EE000BE01665F7F4F0E943C0F811105C060E01C
:101EF00070E08EEF92EC4BC0AE014F5F5F4FBE01C2
:101F0000665F7F4FC8010E94C109882359F169812A
:101F100048E0649FB00111248A81282F30E0322FDD
:101F20002227330F330F330F262B372B8A8580312F
:101F3000E1F4688570E08F81AB01481B5109CA014B
:101F40009695982F8827979587950E9443226051F0
:101F50007109207F53E0220F331F5A95E1F7620F7A
:101F6000731F04C060E874EE01C0B901613854EE1B
:101F700075070CF4BCCF072E000C880B990B0E9440
:101F80009D2820E030E040E05CE30E94D828619684
:101F90000FB6F894DEBF0FBECDBFDF91CF911F917A
:101FA0000F910895DF92EF92FF920F931F93CF93BB
:101FB000DF93CDB7DEB729970FB6F894DEBF0FBE1B
:101FC000CDBF8C017B01AE014F5F5F4F0E94C10905
:101FD000D82E882309F459C0F7018081803109F493
:101FE00054C08FE78D83F801858196810E94D807C0
:101FF000B701F801858196810E94AB0740E06EE44D
:10200000F801858196810E94690740E06B81F801A3
:10201000858196810E94690740E06C81F801858185
:1020200096810E946907F7018081803139F040E094
:102030006D81F801858196810E946907F80185818B
:1020400096810E94D807B701F801858196810E9488
:10205000AB07F801408168E4858196810E94690799
:1020600064E170E080E090E00E94F405F801808176
:10207000882331F06AE070E080E090E00E94F4058F
:10208000F801858196810E94D8078D2D29960FB67B
:10209000F894DEBF0FBECDBFDF91CF911F910F919E
:1020A000FF90EF90DF9008952F923F924F925F92B2
:1020B0006F927F928F929F92AF92BF92CF92DF9258
:1020C000EF92FF920F931F93CF93DF9300D000D036
:1020D000CDB7DEB7FC01448055804114510409F4AA
:1020E00013C1FB01648075806114710409F40CC193
:1020F0007A016B019C838B83FA01A480B580A618BA
:10210000B708FC0100811181A114B104C1F4F601EA
:1021100060817181C8010E9405245C01892B09F44A
:10212000F3C0F7016081718144815581C5010E942E
:10213000CF23F701048115810A0D1B1DE8CFB7FEDF
:1021400002C0480106C0FB01208031804201C80165
:1021500048C0F60160817181C4010E9405242C01F0
:10216000892B29F1320168187908A301B401C8014B
:102170000E94CF23060D171DF701608171814481F4
:102180005581C8010E94CF23F70184819581080FF2
:10219000191FF60184809580840C951CEB81FC81CD
:1021A000848195818A0D9B1D95838483D2CFB40150
:1021B000C8010F900F900F900F90DF91CF911F915A
:1021C0000F91FF90EF90DF90CF90BF90AF909F90D6
:1021D0008F907F906F905F904F903F902F900C94D6
:1021E000FE23B1010E940524009729F0860D971D5A
:1021F0008A0C9B1CF6CF8414950409F485C0EB81EE
:10220000FC81828193818815990578F4B4016F5F10
:102210007F4FC8010E940023009709F475C0EB812D
:10222000FC819183808393828282EB81FC81048193
:1022300015810150110917FD67C0F6012480358012
:102240002114310409F460C0EB81FC816480758045
:102250006114710409F458C06214730408F454C082
:102260000615170518F0830101501109EB81FC8157
:1022700040805180C20188248A94982C9201200FBA
:10228000311F2817390758F0F601608171812983C1
:102290003A830E94052429813A81009761F597FCD1
:1022A00033C0280C391CC201820D931DA3014219B1
:1022B0005309BC018A0D9B1D0E94D823EB81FC8130
:1022C000848195818A0D9B1D958384832081318132
:1022D000F901E80FF91F1082EB81FC818081918167
:1022E000F7016081718144815581880D991D0E949B
:1022F000CF2384019ECFAC0144195509041715075B
:1023000008F04A010196BDCF0F900F900F900F90EB
:10231000DF91CF911F910F91FF90EF90DF90CF90C1
:10232000BF90AF909F908F907F906F905F904F90F5
:102330003F902F900895CF93DF93FC012481358146
:10234000232B71F0FB01DC01CD91DC916081718167
:10235000CE010E940524009719F08C1B9D0B02C032
:102360008FEF9FEFDF91CF9108950F931F93CF933E
:10237000DF93EC0188819981009729F02A813B81C4
:102380002617370788F48B016F5F7F4F0E94002369
:10239000009761F0998388831B830A832C813D8198
:1023A000232B11F4FC01108281E001C080E0DF9159
:1023B000CF911F910F910895EF92FF920F931F936A
:1023C000CF93DF93FC01248135816115710511F4F0
:1023D00080E019C041155105A9F07B01EC018A018B
:1023E000020F131FB8010E94B511882389F32881B9
:1023F00039818C819D81B701820F931F0E94FE233A
:102400001D830C8381E0DF91CF911F910F91FF908D
:10241000EF900895CF93DF93EC0188819981009725
:1024200011F00E94D424198218821D821C821B8202
:102430001A82DF91CF910895CF93DF93EC0161155C
:10244000710561F0FB0101900020E9F73197AF01C0
:10245000461B570B0E94DC11811103C0CE010E9464
:102460000A12CE01DF91CF910895CF93DF93EC0153
:10247000FB0144815581608171810E94DC118111D1
:1024800003C0CE010E940A12CE01DF91CF910895C0
:10249000EF92FF920F931F93CF93DF93EC017B0199
:1024A0008A01BA010E94B511811104C0CE010E94B7
:1024B0000A1207C01D830C83B701888199810E948D
:1024C000FE23CE01DF91CF911F910F91FF90EF90EE
:1024D0000895CF93DF93EC016115710559F0FB016D
:1024E00001900020E9F73197AF01461B570B0E947E
:1024F000481202C00E940A12CE01DF91CF910895C6
:10250000FC01808191810C94D424EF92FF920F936F
:102510001F93CF93DF93CDB7DEB7A1970FB6F89493
:10252000DEBF0FBECDBF7C01CB01BA01F701118226
:102530001082138212821582148242E0420F8E01B1
:102540000F5F1F4F0E941F24BC01C7010E94691228
:10255000A1960FB6F894DEBF0FBECDBFDF91CF912D
:102560001F910F91FF90EF900895FB01DC011196F0
:102570001C921E9213961C921E92129715961C92F4
:102580001E9214978617970749F060817181611533
:10259000710521F0448155810C9448120895FC0185
:1025A00011821082138212821582148261157105C4
:1025B00051F0FB0101900020E9F73197AF01461B74
:1025C000570B0C9448120895BF92CF92DF92EF926E
:1025D000FF920F931F93CF93DF937C016B018A01CE
:1025E000E9012417350720F4812F8901C42FD82F42
:1025F00067EC72E0C7010E94CF12D60114968D914C
:102600009C91159708171907D0F48C179D0708F4AB
:10261000EC01D601ED91FC911197EC0FFD1FB080FC
:1026200010824D915C91BA01600F711FC7010E9429
:102630006912D601ED91FC91EC0FFD1FB082C7012C
:10264000DF91CF911F910F91FF90EF90DF90CF908E
:10265000BF90089565EC72E00C94A314CF93DF93C0
:102660004AE00E94D50EEC0184E594E00E942A1312
:102670008C0F9D1FDF91CF9108950F931F93CF93E0
:10268000DF93EC010E94A3148C01CE010E942A1357
:10269000800F911FDF91CF911F910F910895DC0161
:1026A000ED91FC910190F081E02D0994CF93DF939F
:1026B00062E286E995E00E944F13EC0186E995E01D
:1026C0000E942A138C0F9D1FDF91CF910895CF9206
:1026D000DF92EF92FF92CF93DF936C01990FEE0898
:1026E000FF08F7FE14C06DE284E594E00E944F13EA
:1026F000EC0166277727CB016C197D098E099F09AC
:102700004AE00E94D50E7C01EC0EFD1E06C04AE098
:10271000C701B6010E94D50E7C0184E594E00E94B9
:102720002A138E0D9F1DDF91CF91FF90EF90DF90C8
:10273000CF9008950C94A314CF92DF92EF92FF9262
:102740001F93CF93DF93EC01892B89F00E945D0CDE
:102750006EE384E594E00E944F13BE0184E594E0AB
:102760000E943D13BE0186E995E00E943D130E9440
:102770002E066B017C01C0E0D5E486E995E00E945D
:10278000CB04892B09F449C086E995E00E94E30453
:10279000CB3850F0EDE0F4E0A7ECB3E09D2F0190D2
:1027A0000D929A95E1F7C5E411E01C0FEC2FF0E0D3
:1027B000E953FC4F8083E12FF0E0E953FC4F108296
:1027C00060E171E087EC93E00E940524892B71F0B1
:1027D00068EE72E084E594E00E949A1367EC73E07F
:1027E00084E594E00E943D1381E026C069E071E039
:1027F00087EC93E00E940524892B71F060E373E07D
:1028000084E594E00E949A1367EC73E084E594E019
:102810000E943D1382E010C0C12F0E942E06DC01F1
:10282000CB018C199D09AE09BF09803D9740A105D8
:10283000B10508F4A2CF80E0DF91CF911F91FF9006
:10284000EF90DF90CF900895DC01ED91FC91DB01DA
:1028500014964D915C9115976D917C910280F38156
:10286000E02D0994CF93DF93BC0184E594E00E94AE
:102870002414EC0184E594E00E942A138C0F9D1F20
:10288000DF91CF910895EF92FF920F931F93CF9313
:10289000DF938C017B01C0E0D0E0F701EC0FFD1F5E
:1028A0006491662361F0D801ED91FC910190F08173
:1028B000E02DC8010995892B11F02196EECFCE01AC
:1028C000DF91CF911F910F91FF90EF900895CF93DB
:1028D000DF93BC0184E594E00E944314EC0184E59D
:1028E00094E00E942A138C0F9D1FDF91CF910895D1
:1028F000CF92DF92EF92FF920F931F93CF93DF93CC
:102900006C017A018B01C0E0D0E0CE15DF0589F0C3
:10291000D8016D918D01D601ED91FC910190F0816E
:10292000E02DC6010995892B11F47E0102C0219684
:10293000ECCFC701DF91CF911F910F91FF90EF90E6
:10294000DF90CF9008956115710579F0FB0101903A
:102950000020E9F73197AF01461B570BDC01ED91E1
:10296000FC910280F381E02D099480E090E00895CD
:10297000CF93DF93CDB7DEB7CB56D1090FB6F8941E
:10298000DEBF0FBECDBF789484B5826084BD84B5B0
:10299000816084BD85B5826085BD85B5816085BD5A
:1029A00080916E00816080936E0010928100809112
:1029B000810082608093810080918100816080939A
:1029C0008100809180008160809380008091B100BF
:1029D00084608093B1008091B00081608093B000EA
:1029E00080917A00846080937A0080917A0082607E
:1029F00080937A0080917A00816080937A00809140
:102A00007A00806880937A001092C1000FB6F89423
:102A1000A8958091600088618093600010926000AA
:102A20000FBEE0916404F091650482E08083E09140
:102A30006004F09161041082E0916204F0916304FB
:102A400080E1808310926C04E0916804F091690445
:102A500086E08083E0916604F09167048081806164
:102A60008083E0916604F0916704808188608083B0
:102A7000E0916604F0916704808180688083E09132
:102A80006604F091670480818F7D80838DE593E0FB
:102A90000E9467141092B1051092B0051092AF0514
:102AA0001092AE051092AD051092AC058DEC90E041
:102AB0009093B3058093B2059091A205963108F0EA
:102AC00057C025E530E03093AD052093AC052BECE5
:102AD00030E03093AF052093AE0520E930E030932D
:102AE000B1052093B00520916800983050F031E096
:102AF0009E3008F430E081E001C0880F3A95EAF793
:102B000001C084E0822B80936800983038F09E30BA
:102B100040F0963148F020E030E008C02DE630E08B
:102B200005C02BE630E002C02CE630E03093AA0569
:102B30002093A905983030F481E001C0880F9A9560
:102B4000EAF70EC0292F30E09E3018F428503109E2
:102B500002C02E50310981E001C0880F2A95EAF7A2
:102B60008093AB058091B2059091B3050197F1F781
:102B70008091B0059091B105892B49F1E091360320
:102B8000F091370325E0E639F20709F1309739F083
:102B9000A389B4899C918589809589238C938091A0
:102BA000B4058E7F8093B4051092350310923403E0
:102BB00086E995E09093370380933603E091A90569
:102BC000F091AA0590818091AB05892B808361E00B
:102BD00086E00E94B80561E08DE00E94B80561E0E2
:102BE00085E00E94B80561E08AE00E94B80561E0D6
:102BF0008FE00E94B80561E08EE00E94B80560E0B9
:102C000083E00E94B80560E089E00E94B80540E0DA
:102C100060E081E00E946D0D6CE271E080E090E088
:102C20000E94F40540E061E080E00E946D0D6CE2DE
:102C300071E080E090E00E94F40541E060E080E017
:102C40000E946D0D6CE271E080E090E00E94F4055E
:102C500040E060E081E00E946D0D86E495E0909395
:102C60001D0580931C0510921B051092170599E015
:102C70009093180581E08093190580931A0528E345
:102C800035E030930A05209309051092080510924B
:102C900004059093050580930605809307052AE2B5
:102CA00035E03093F7042093F6041092F504109267
:102CB000F1049093F2048093F3048093F40487E189
:102CC00095E00E94220A84E095E00E94220A81EFAA
:102CD00094E00E94220ABE01645D7F4F87E195E087
:102CE0000E943C0F882339F0BE01645D7F4F87E16D
:102CF00095E00E94D20FBE01645D7F4F84E095E0B5
:102D00000E943C0F882339F0BE01645D7F4F84E050
:102D100095E00E94D20FBE01645D7F4F81EF94E089
:102D20000E943C0F882339F0BE01645D7F4F84E030
:102D300095E00E94D20F8AE396E09093030180937E
:102D40000201809169008C6080936900E99A68EEC5
:102D500073E080E090E00E94F40599E288E10FB60C
:102D6000F894A895809360000FBE909360008091C6
:102D700070008E7F809370008091B0008C7F809374
:102D8000B0008091B100877F8093B1008091B60040
:102D90008F7D8093B600809170008D7F809370004E
:102DA0008091B10084608093B1008091B1008C7FEC
:102DB0008093B10086E090E090933F0380933E03C0
:102DC0008CE291E0A0E0B0E080933A0390933B0363
:102DD000A0933C03B0933D0386E89DE090933903B4
:102DE00080933803109241031092420310924303E0
:102DF000109244031092400380913E0390913F0350
:102E00008093B200809170008160809370008CE4A8
:102E100091E00E94671460E086E00E94880560E00F
:102E20008DE00E94880561E085E00E94880560EDE4
:102E300077E080E090E00E94F40561E08DE00E9480
:102E4000880560E085E00E9488056CED75E080E013
:102E500090E00E94F40561E086E00E94880560EB46
:102E600074E080E090E00E94F40560E086E00E945B
:102E70008805E12CF12C0E94180F009781F43FEF98
:102E8000E31AF30A47E9E416F10414F0FC0109958A
:102E900064E670E080E090E00E94F405ECCF60ED25
:102EA00077E080E090E00E94F4058CE391E00E94DE
:102EB000671483E491E00E949C13813009F0DAC426
:102EC0006DE070E087EC93E00E94EA23009709F43C
:102ED000D1C47C01F2E0EF0EF11C6DE070E0C7019F
:102EE0000E94EA23009711F0FC011082B70187ECE1
:102EF00093E00E94FE2365E371E084E594E00E9484
:102F0000431467EC73E080E995E00E94691280E960
:102F100095E00E94760B80E995E00E9432148AE4E5
:102F200091E00E949C13813009F07EC16DE070E059
:102F300087EC93E00E94EA23009709F475C17C01B5
:102F4000F2E0EF0EF11C62E571E087EC93E00E9485
:102F50000524009711F0FC011082B70187EC93E083
:102F60000E94FE2360E271E084E594E00E94431435
:102F700067EC73E088E795E00E94691288E795E0C6
:102F80000E94760B88E795E00E94321480914503F9
:102F900090914603029739F068EE73E080E090E08C
:102FA0000E94F405F3CF68EE73E080E090E00E94A9
:102FB000F40569E071E084E594E00E94431440E088
:102FC00050E060ED77E085E591E00E94690C882390
:102FD00079F06EE571E087EC93E00E94052400979C
:102FE00039F0FC018281982F9B7F913309F4182FCF
:102FF00068EF70E084E594E00E94431465EF70E0B0
:1030000084E594E00E944314113319F482EE90E0B9
:1030100017C0123319F486EC90E004C0133329F47E
:103020008EEB90E00E946714F2CE143319F485EB16
:1030300090E0F8CF153311F00C94B92081EA90E0BC
:103040000E9467148091450390914603029709F00E
:10305000DECE60ED77E080E090E00E94F4050E9413
:103060004F0D8C0169E970E084E594E00E944314FF
:10307000C8010E9467136CE870E084E594E00E9448
:10308000431481E691E00E949C13813009F0C2C094
:1030900061E073E087EC93E00E940524009709F457
:1030A000B9C08C010E5F1F4F62E270E0C8010E9440
:1030B000EA23009711F0FC011082B80187EC93E03D
:1030C0000E94FE2367EC73E0CE0182960E94CF122D
:1030D00067EC73E084E594E00E943D136AE671E0DA
:1030E000CE0101960E94CF12BE016F5F7F4FCE01CD
:1030F00082960E949B118C01CE0101960E94801243
:1031000017FD1FC06EE671E08CE695E00E94691223
:103110006EE771E086E695E00E9469126EE771E065
:1031200080E695E00E9469126EE671E08AE595E01E
:103130000E94691288E790E00E9467141092480389
:1031400065C062E871E0CE0101960E94CF12BE0117
:103150006F5F7F4FCE0182960E949B118C01CE0142
:1031600001960E94801217FD1EC066E871E08CE691
:1031700095E00E9469126AE971E086E695E00E9496
:1031800069126AE971E080E695E00E94691266E8DA
:1031900071E08AE595E00E94691280E790E00E9464
:1031A000671481E031C062EA71E0CE0101960E94AD
:1031B000CF12BE016F5F7F4FCE0182960E949B119E
:1031C0008C01CE0101960E94801217FD1FC067EA94
:1031D00071E08CE695E00E94691267EC72E086E689
:1031E00095E00E94691267EC72E080E695E00E942B
:1031F000691267EA71E08AE595E00E94691288E643
:1032000090E00E94671482E080934803CE0182968A
:103210000E94801268EE73E080E090E00E94F40566
:103220008CE790E00E9467148AE593E00E9467149F
:1032300080E090E00E9499298032C1F187E493E018
:103240000E94671400E010E060E0C8010E94740B67
:103250000F5F1F4F0F3FF3E01F07B1F760E280E001
:1032600090E00E94740B65E071E088EC90E00E94B1
:10327000150E60EBE62E61E0F62E04E610E0F70195
:1032800061917F011A830983CE0101960E94F50D99
:103290000F5F1F4F0137110591F760E088E790E05D
:1032A0000E94740B86E393E00E94671424E835E0E3
:1032B000A8963FAF2EAFA89769015CEDE52EF12CE3
:1032C0008E010F5F1F4FF60161916F01FA82E98253
:1032D000C8010E94F50DFFEFEF1AFF0A22EEE21679
:1032E000F10489F735E0C32E31E0D32E48ECE42E0B
:1032F000F12CC7010E949929F60181936F01FFEF1C
:10330000EF1AFF0A2CECE216F10499F788E790E037
:103310000E94992991E0811101C090E0909365038A
:1033200068E273E084E594E00E9443146091050133
:103330007091060180910701909108010E942E135F
:103340006AE173E084E594E00E94431484E895E028
:103350000E9432146BE073E084E594E00E94431411
:103360008091B5059091B605009711F489EB95E031
:10337000A801481B590BCA010E94671389EF92E00C
:103380000E946714809170008E7F8093700040E0EF
:1033900061E080E00E946D0D60ED77E080E090E0FC
:1033A0000E94F4056DEB71E084E594E00E943D130A
:1033B00087E195E00E94920984E095E00E949209DD
:1033C00081EF94E00E94920987E195E00E94630FEB
:1033D0006B017C0184E095E00E94630F4B015C016E
:1033E00081EF94E00E94630F2B013C010E944F0D7E
:1033F0001C01A6961FAE1EAEA697BE016C597F4F4C
:1034000080EA90E00E94600BA5019401C701B6011B
:103410000E949422A30192010E9494222FE832EC90
:1034200041EB52E40E949422AB01BC0122E0CE01A8
:10343000CA960E948512980144E650E0CA01AB96F4
:103440002FAFAB97AC963FAFAC97A9964FAFA9976C
:10345000AA965FAFAA970E949929AB962FADAB971A
:10346000AC963FADAC97F90181939F01A9964FAD02
:10347000A997AA965FADAA974F5F5F4F4137510555
:10348000E9F6B801CE01C4960E94CF122CED30E0CF
:10349000C901AB962FAFAB97AC963FAFAC970E94EC
:1034A0009929A896EEADFFADA8978193A896FFAF96
:1034B000EEAFA897AB962FADAB97AC963FADAC9760
:1034C0002F5F3F4F223E310519F76FEE71E0CE01BD
:1034D00082960E94CF12BE016C5C7F4FCE01829615
:1034E0000E9435126FEE71E00E941C1268E775E0D1
:1034F0000E943512BC01CE01805C9F4F0E94B51224
:10350000CE0182960E948012CE01C4960E94801243
:10351000A6968EAD9FADA6971BA21AA21DA21CA2B5
:103520001FA21EA24AE0B8010E94B825B801CE0130
:1035300082960E946912609161037091620380918A
:103540006303909164031DAA1CAA1FAA1EAA19AEA8
:1035500018AE2AE0A8010E94E025B801CE01C49669
:103560000E94691228961FAE1EAE28972A961FAE9B
:103570001EAE2A972C961FAE1EAE2C974AE0B801BD
:10358000C1010E94B825B801CE018A5B9F4F0E94FD
:10359000691222E0B301A201C8010E94851222E053
:1035A000B501A401CE01845B9F4F0E94851222E0E9
:1035B000B701A601CE018E5A9F4F0E94851268ED79
:1035C00071E0CE01885A9F4F0E94CF1260E975E0EA
:1035D000CE01885A9F4F0E9435126FEE71E00E9413
:1035E0001C126CED71E00E941C12BE016E5A7F4FDE
:1035F0000E9435126FEE71E00E941C12BE01645BE6
:103600007F4F0E9435126FEE71E00E941C12B801CC
:103610000E9435126FEE71E00E941C12BE016A5BBF
:103620007F4F0E9435126FEE71E00E941C12BE01A6
:103630006C5C7F4F0E9435126FEE71E00E941C128D
:10364000BE016E5D7F4F0E943512BE01605C7F4FF0
:103650000E9435126FEE71E00E941C12BE01665C82
:103660007F4F0E943512BC01CE01825A9F4F0E94AB
:10367000B512CE01885A9F4F0E948012CE018E5AF9
:103680009F4F0E948012CE01845B9F4F0E94801248
:10369000C8010E948012CE018A5B9F4F0E94801257
:1036A000CE01C4960E948012CE0182960E948012A2
:1036B000CE01805C9F4F0E948012CE01CA960E946C
:1036C0008012CE01825A9F4F0E943214A4966EAD92
:1036D0007FADA49780E090E04AE00E94D50E84E59B
:1036E00094E00E942A13BE01625A7F4FCE018A5B8A
:1036F0009F4F0E94B51266EE72E084E594E00E944E
:10370000431440E050E060ED77E081EF91E00E94EB
:10371000690C882309F484C063EB71E086E995E0C5
:103720000E9443146CE675E086E995E00E9424143B
:103730000E94561340E050E060ED77E080E090E0BA
:103740000E94690C811102C082E06DC06DE971E0D8
:1037500086E995E00E94431466E675E086E995E007
:103760000E9424140E94561340E050E060ED77E080
:1037700080E090E00E94690C882331F368E871E0F2
:1037800086E995E00E94431460E675E086E995E0DD
:103790000E9424140E94561340E050E060ED77E050
:1037A00080E090E00E94690C882371F264E771E088
:1037B00086E995E00E9443146AE575E086E995E0A4
:1037C0000E9424140E94561340E050E060ED77E020
:1037D00080E090E00E94690C882309F4B5CF40E0B6
:1037E00050E060E27EE48FE092E00E94690C8091FC
:1037F000450390914603039739F062E370E080E05F
:1038000090E00E94F405F3CF40E050E060E771E102
:103810008CE192E00E94690C811104C083E003C036
:1038200081E001C080E0809304016FED72E084E5E7
:1038300094E00E9443146091040170E080E090E005
:103840004AE00E94D50EE12CF12C40E050E060E10E
:1038500077E289E292E00E94690C882391F040E0CF
:1038600050E068E873E185E392E00E94690C8823E8
:1038700041F068C06BE271E084E594E00E9443147B
:103880004ECB1092470364EE72E084E594E00E9410
:103890009A1367EC73E084E594E00E943D1367ECB3
:1038A00073E0CE0182960E94CF121A8219821C8286
:1038B0001B821E821D8265E070E0C8010E94B51166
:1038C000811104C0C8010E940A120AC085E090E07C
:1038D0009E838D8369ED72E089819A810E94B12572
:1038E000B801CE0182960E949B116C01C8010E9412
:1038F0008012D7FC0AC081EC92E00E94671468EE47
:1039000073E080E090E00E94F40540E050E060ED5C
:1039100077E089E492E00E94690C68EE73E080E051
:1039200090E00E94F405FFEFEF1AFF0A2DE3E21684
:10393000F1041CF0E0E0F0E00995CE0182960E94CF
:10394000801283CF81E080934703809165038823B1
:1039500049F085E592E00E949C13813061F088E88F
:1039600092E00EC082E692E00E949C13813031F416
:1039700087E692E005C081EA92E002C08DE492E021
:103980000E946714809165038823D1F06FE672E08E
:1039900084E594E00E949A136FE384E594E00E942A
:1039A0004F13CE018A5B9F4F0E943214BE016A5BA7
:1039B0007F4FC8010E94B512B8018FE692E019C08E
:1039C00066E872E084E594E00E949A136FE384E570
:1039D00094E00E944F13CE018A5B9F4F0E943214E5
:1039E000BE016A5B7F4FC8010E94B512B80186E82C
:1039F00092E00E94FD0CC8010E94801280915D033C
:103A000090915E03A0915F03B09160030196A11DA8
:103A1000B11D80935D0390935E03A0935F03B09309
:103A2000600310925C036CE972E081EA92E00E940C
:103A3000730E823020F084E08093470319C0811117
:103A400017C06EE284E594E00E9471032AE1F22E31
:103A5000FA94FF2041F386E995E00E94CB04892B7C
:103A600011F76FE070E080E090E00E94F405F0CF85
:103A7000809147038430C9F58FE392E00E94671478
:103A80008091610390916203A0916303B0916403FC
:103A90000196A11DB11D8093610390936203A093D1
:103AA0006303B09364030E94480E80916103909178
:103AB0006203A0916303B09164034597A105B1052A
:103AC00068F08FE292E00E94671468EB7BE080E090
:103AD00090E00E94F405E0E0F0E0099568EB7BE0FF
:103AE00080E090E00E94F405B7C284E594E00E9473
:103AF0002A1367EA72E086E995E00E943D1383E0AD
:103B000080934703109253040E942E066093C303D0
:103B10007093C4038093C5039093C60363EB72E074
:103B200089EB92E00E94730E8130C1F7109253042A
:103B300045EC52E064E670E080E090E00E94690CA1
:103B400087EC93E00E946C257C0140E050E060ED42
:103B500077E080E090E00E94690CFBE8EF16F1044A
:103B600018F09BE8E92EF12CF701E953FC4F108285
:103B7000EF28A1F280914703843029F580916103F9
:103B800090916203A0916303B09164030196A11D1B
:103B9000B11D8093610390936203A0936303B0937C
:103BA00064030E94480E8091610390916203A0918A
:103BB0006303B09164034597A105B10508F48ECF66
:103BC00087E092E080CF6CEF71E084E594E00E94A2
:103BD000431467EC73E084E594E00E943D1367ECC6
:103BE00073E0CE01805C9F4F0E94CF1281E08093F2
:103BF0005C0368EC72E0C8010E94CF12B801CE01EC
:103C0000805C9F4F0E949B117C01C8010E94801222
:103C1000F7FC58C06AEC72E0C8010E94CF12B801EC
:103C2000CE01805C9F4F0E949B119BA38AA3C80179
:103C30000E9480126EEC72E0C8010E94CF12B8019F
:103C4000CE01805C9F4F0E949B119DA38CA3C80155
:103C50000E94801262ED72E0C8010E94CF12B8018A
:103C6000CE01805C9F4F0E949B119FA38EA3C80131
:103C70000E94801266ED72E0C8010E94CF12B80166
:103C8000CE01805C9F4F0E949B1199A788A7C80115
:103C90000E94801226968EAD9FAD2697892B71F0DB
:103CA0002296EEACFFAC229763E270E0C7010E945F
:103CB000EA23009719F08E199F0902C08FEF9FEF3A
:103CC0009BA78AA79E012E5D3F4F79015E013AE2D4
:103CD000A30EB11CF701419151917F014A01F5E01A
:103CE0008F0E911C4D5F5F4F9401BE01605C7F4F52
:103CF000CE01CA960E94E4128AAD9BAD009719F0DE
:103D00000E948A2503C060E070E0CB016B01CB010B
:103D10000E946713F70120813181A401BE01605C1C
:103D20007F4FC8010E94E4128AAD9BAD0097A9F0B5
:103D300069817A816115710571F04CAD5DAD2D81A0
:103D40003E814217530738F00E94FE238D819E81E9
:103D50009FAF8EAF12C00E94D42489819A819BAFFD
:103D60008AAF8B819C819DAF8CAF8D819E819FAFEF
:103D70008EAF1A8219821C821B821E821D82C8018C
:103D80000E94801210924903CE01CA960E943214FA
:103D9000BE01665C7F4FCE01C4960E94B51260964C
:103DA0001CAE1DAE1EAE1FAE6097F3E0CF16D10461
:103DB00009F4BAC054F431E0C316D10499F042E0DA
:103DC000C416D10409F45CC0ECC054E0C516D1049B
:103DD00009F4E5C085E0C816D10409F0E2C01092EC
:103DE0005B03DFC08CA99DA9009719F00E948A256A
:103DF00003C060E070E0CB0160966CAF7DAF8EAF2A
:103E00009FAF60970E942E1360968CAD9DADAEADB6
:103E1000BFAD6097AC01BD014E51510961097109F7
:103E2000433651456140710500F5409105015091BF
:103E30000601609107017091080184179507A60794
:103E4000B70799F020915B0321110FC08093050102
:103E500090930601A0930701B0930801BE01645B33
:103E60007F4F88EC90E00E94150E609105017091E3
:103E7000060180910701909108010E942E1391C0C4
:103E80006BE473E084E690E00E943A0B6BE473E02D
:103E900084E594E00E943D1388AD99AD892B29F407
:103EA00080914B038823D9F108C06BE473E08CA99F
:103EB0009DA90E94F523892B91F18FED91E00E943D
:103EC0006714C12CD12C88AD99ADC816D90620F441
:103ED000ECA9FDA9309729F410924903E9E4F3E035
:103EE00002C0EC0DFD1D6081C6018C599F4F0E94E0
:103EF000740BFFEFCF1ADF0A2DE0C216D10419F7B9
:103F0000BE016F5F7F4F84E690E00E943A0BBE01D6
:103F10006F5F7F4F84E594E00E943D1342C083EDC4
:103F200091E00E9467143DC06BE473E08CED90E07B
:103F30000E943A0B88AD99AD892B29F480914B03EF
:103F4000882379F108C06BE473E08CA99DA90E94D5
:103F5000F523892B31F188EC91E00E946714C12C84
:103F6000D12C88AD99ADC816D90620F4ECA9FDA9CD
:103F7000309729F410924903E9E4F3E002C0EC0D14
:103F8000FD1D6081C60184529F4F0E94740B3FEF5C
:103F9000C31AD30A4DE0C416D10419F702C0109217
:103FA0004A03CE01C4960E948012CE01CA960E9496
:103FB0008012EA14FB0409F08DCE64EF71E084E511
:103FC00094E00E94431460915D0370915E038091C0
:103FD0005F03909160034AE00E94D50E80916103D7
:103FE00090916203A0916303B0916403892B8A2BA3
:103FF0008B2B89F06AEE71E084E594E00E94431413
:1040000060916103709162038091630390916403F6
:104010004AE00E94D50E84E594E00E942A136AEDDE
:1040200072E084E594E00E949A136091050170911A
:10403000060180910701909108010E942E1340E033
:1040400050E060ED77E089E492E00E94690CCE01D7
:10405000805C9F4F0E948012CE018A5B9F4F0E941E
:104060008012CE01825A9F4F0E9480120E942E061B
:10407000609366037093670380936803909369036A
:1040800088EEC82E83E0D82EE12CF12C00E010E061
:104090000E94180F009711F4FC0109950E942E064A
:1040A0000E942E064B015C0180916A0390916B0384
:1040B000A0916C03B0916D03A5019401281B390BED
:1040C0004A0B5B0BDA01C90180369A4EA105B10596
:1040D00080F161E773E084E594E00E9443148091ED
:1040E0006A0390916B03A0916C03B0916D03A501DD
:1040F0009401281B390B4A0B5B0BCA01B901A701BC
:1041000096010E945722CA01B9010E942E1341E074
:1041100060E080E00E946D0D80926A0390926B03D4
:10412000A0926C03B0926D0340E061E080E00E94D9
:104130006D0D0E942E068090660390906703A090FC
:104140006803B0906903DC01CB0188199909AA09B9
:10415000BB0981309C45A642B54010F0F801099595
:1041600064EF71E080E090E00E94F4050E94DA03C1
:104170008FCF113311F00C9407170C94221884E59B
:1041800095E00E9480128AE595E00E94801280E608
:1041900095E00E94801286E695E00E9480128CE6EF
:1041A00095E00E94801282E795E00E94801288E7E5
:1041B00095E00E9480128EE795E00E94801284E8CC
:1041C00095E00E9480128AE895E00E94801280E9C2
:1041D00095E00E94801284E391E09093970580938C
:1041E000960580913603909137038659954071F476
:1041F000E091A905F091AA0590818091AB05809589
:104200008923808310923703109236030895109209
:1042100057041092560488EE93E0A0E0B0E080933B
:10422000580490935904A0935A04B0935B0424E279
:1042300031E0309355042093540425EC30E0309362
:1042400061042093600424EC30E0309363042093F5
:10425000620420EC30E0309365042093640421EC88
:1042600030E0309367042093660422EC30E0309312
:1042700069042093680426EC30E030936B042093AB
:104280006A0410926D0410926E0410926F041092E2
:104290007004109299051092980580939A05909356
:1042A0009B05A0939C05B0939D0584E391E09093BA
:1042B0009705809396051092AD051092AC0510926B
:1042C000AF051092AE051092B1051092B005109294
:1042D000B3051092B2056091B4056E7F6D7F609357
:1042E000B4056695617081E0682787E00E948805C3
:1042F00061E087E00E94B805E1EDF4E0E491E0932D
:10430000A605EDEBF4E0E491F0E0EE0FFF1FEE55B3
:10431000FB4F859194919093A8058093A70560E049
:1043200088E00E94B8058091B40581FD04C061E079
:1043300088E00E94880588E08093A205E2EDF4E021
:10434000E491E093A305EEEBF4E0E491F0E0EE0FEE
:10435000FF1FE455FB4F859194919093A5058093A1
:10436000A40560E273E080E995E00E94CF1267EC5B
:1043700072E08AE895E00E94CF1267EC72E084E870
:1043800095E00E94CF1267EC72E08EE795E00E9404
:10439000CF1267EC72E088E795E00E94CF1267ECDD
:1043A00072E082E795E00E94CF1267EC72E08CE643
:1043B00095E00E94CF1267EC72E086E695E00E94DD
:1043C000CF1267EC72E080E695E00E94CF1267ECB6
:1043D00072E08AE595E00E94CF1267EC72E084E516
:1043E00095E00E94CF1260E186E495E00E94FD080E
:1043F00061E188E395E00E94FD0864E08AE295E0CF
:104400000E94FD082DE534E030932905209328050E
:1044100086E495E090931D0580931C0510921B0582
:104420001092170599E09093180581E08093190583
:1044300080931A05309316052093150548E355E03F
:1044400050930A054093090510920805109204053F
:104450009093050580930605809307053093030527
:10446000209302052AE235E03093F7042093F60406
:104470001092F5041092F1049093F2048093F304E7
:104480008093F404089597FB072E16F4009407D048
:1044900077FD09D00E94792207FC05D03EF4909563
:1044A00081959F4F0895709561957F4F0895A1E282
:1044B0001A2EAA1BBB1BFD010DC0AA1FBB1FEE1F9E
:1044C000FF1FA217B307E407F50720F0A21BB30BE9
:1044D000E40BF50B661F771F881F991F1A9469F765
:1044E00060957095809590959B01AC01BD01CF01C1
:1044F0000895AA1BBB1B51E107C0AA1FBB1FA6172B
:10450000B70710F0A61BB70B881F991F5A95A9F77C
:1045100080959095BC01CD010895EE0FFF1F059089
:10452000F491E02D09945058BB27AA270E94AB2292
:104530000C945F290E94512938F00E94582920F0DC
:1045400039F49F3F19F426F40C944E290EF4E095AB
:10455000E7FB0C944829E92F0E94702958F3BA17F9
:10456000620773078407950720F079F4A6F50C9489
:1045700092290EF4E0950B2EBA2FA02D0B01B90154
:1045800090010C01CA01A0011124FF27591B99F0C9
:10459000593F50F4503E68F11A16F040A22F232FD5
:1045A000342F4427585FF3CF469537952795A79525
:1045B000F0405395C9F77EF41F16BA0B620B730BCC
:1045C000840BBAF09150A1F0FF0FBB1F661F771F3D
:1045D000881FC2F70EC0BA0F621F731F841F48F4F2
:1045E000879577956795B795F7959E3F08F0B0CF7B
:1045F0009395880F08F09927EE0F97958795089562
:10460000A0E0B0E0E6E0F3E20C94B329EC010097FF
:1046100021F4CB010E943F24B8C0FC01E60FF71F34
:104620009C0122503109E217F30708F4ACC0D9010C
:104630000D911C91119706171707B0F00530110561
:1046400008F49FC0C80104978617970708F499C01B
:1046500002501109061B170B019311936D937C9364
:10466000CF010E94D4248DC05B01A01AB10A4C0175
:10467000800E911EA091B705B091B80540E050E0C2
:10468000E12CF12C109709F44AC0A815B905D1F511
:104690006D907C901197630182E0C80ED11CCA1402
:1046A000DB0480F1A3014A195B096A0182E0C80EAC
:1046B000D11C1296BC9012971396AC91B5E0CB1614
:1046C000D10440F0B282A38351834083D9016D931A
:1046D0007C930AC00E5F1F4FC301800F911FF90129
:1046E00091838083EB2DFA2FE114F10431F0D7018F
:1046F0001396FC93EE93129744C0F093B805E093A1
:10470000B7053FC08D919C9111974817590708F440
:10471000AC017D0112960D90BC91A02DB3CF80917C
:10472000B5059091B60588159905E1F44617570728
:10473000C8F48091140190911501009741F48DB750
:104740009EB74091180150911901841B950BE817F1
:10475000F907C8F4F093B605E093B505F901718344
:1047600060830FC0CB010E943F247C01009759F069
:10477000A801BE010E94CF23CE010E94D424C7010C
:1047800004C0CE0102C080E090E0CDB7DEB7EEE01D
:104790000C94CF2981E090E0F8940C94E629FB0179
:1047A000DC0102C001900D9241505040D8F70895AD
:1047B0006817790768F4FB01DC01E40FF51FA40F0B
:1047C000B51F02C002900E9241505040D8F7089594
:1047D0000C94CF23FC018191861721F08823D9F70F
:1047E000992708953197CF010895FB01DC018D9140
:1047F000019080190110D9F3990B0895FB01DC0198
:1048000001900D920020E1F70895FB01519155238D
:10481000A9F0BF01DC014D9145174111E1F759F4B1
:10482000CD010190002049F04D9140154111C9F38F
:10483000FB014111EFCF81E090E001970895EF92E5
:104840000F931F93CF93DF93E80147FD02C034E03D
:1048500001C034E1E42F440FFF0BF7FF03C0F195D3
:10486000E195F109E32E022F2E2FAE010E941C26A6
:10487000CE01DF91CF911F910F91EF900895CF93CB
:10488000DF938230910510F482E090E0E091B7056B
:10489000F091B80520E030E0C0E0D0E0309711F1B1
:1048A0004081518148175907C0F04817590761F4F2
:1048B00082819381209719F09B838A832BC09093E8
:1048C000B8058093B70526C02115310519F04217A8
:1048D000530718F49A01BE01DF01EF010280F38152
:1048E000E02DDCCF2115310509F1281B390B2430CF
:1048F000310590F412968D919C9113976115710575
:1049000021F0FB019383828304C09093B8058093C8
:10491000B705FD01329644C0FD01E20FF31F8193FC
:104920009193225031092D933C933AC02091B505C3
:104930003091B605232B41F42091160130911701D7
:104940003093B6052093B5052091140130911501DF
:104950002115310541F42DB73EB740911801509112
:104960001901241B350BE091B505F091B605E2174E
:10497000F307A0F42E1B3F0B2817390778F0AC0182
:104980004E5F5F4F2417350748F04E0F5F1F50935F
:10499000B6054093B5058193919302C0E0E0F0E045
:1049A000CF01DF91CF9108950F931F93CF93DF93A2
:1049B000009709F48CC0FC01329713821282009197
:1049C000B7051091B8050115110581F420813181D9
:1049D000820F931F2091B5053091B605281739072E
:1049E00079F5F093B605E093B50571C0D80140E0C4
:1049F00050E0AE17BF0750F412962D913C911397DB
:104A0000AD012115310509F1D901F3CF9D01DA017D
:104A10003383228360817181860F971F82179307EA
:104A200069F4EC0128813981260F371F2E5F3F4F33
:104A3000318320838A819B8193838283452B29F450
:104A4000F093B805E093B70542C01396FC93EE933C
:104A50001297ED01499159919E01240F351FE217DC
:104A6000F30771F480819181840F951F029611964E
:104A70009C938E938281938113969C938E9312972D
:104A8000E0E0F0E0D80112968D919C911397009789
:104A900019F0F8018C01F6CF8D919C9198012E5F51
:104AA0003F4F820F931F2091B5053091B60528170F
:104AB000390769F4309729F41092B8051092B705B8
:104AC00002C0138212821093B6050093B505DF91E0
:104AD000CF911F910F910895FC0188279927E894A1
:104AE00021912032E9F3293010F02E30C8F32B3217
:104AF00041F02D3239F4689404C00E94D825820F09
:104B0000911D219120532A30C0F31EF49095819578
:104B10009F4F08951F93FC0199278827BC01E894B3
:104B200011911032E9F3193010F01E30C8F31B3226
:104B300051F01D3249F4689406C00E94C325610FEC
:104B4000711D811D911D119110531A30B0F33EF467
:104B500090958095709561957F4F8F4F9F4F1F91D6
:104B60000895FB01DC0105900D920020E1F7089506
:104B7000BB274A3031F4992322F4BDE29095819508
:104B80009F4F0C940326592F482F372F262F660F3F
:104B9000771F881F991F660F771F881F991F620F45
:104BA000731F841F951F660F771F881F991F089515
:104BB0007AE0979F902D879F802D910D1124089565
:104BC000BB27FA01A62F6217710581059105330BEA
:104BD00030FB66F0AA27660F771F881F991FAA1F50
:104BE000A21710F0A21B63953850A9F7A05DAA3355
:104BF00008F0A95DA19336F7B111B1931082CA01F3
:104C00000C948B28BB27FB015527AA27880F991FD7
:104C1000AA1FA41710F0A41B83955051B9F7A05DEB
:104C2000AA3308F0A95DA193009779F7B111B19368
:104C30001192CB010C948B284F925F926F927F92CE
:104C40009F92AF92BF92CF92DF92EF92FF920F931B
:104C50001F93CF93DF93CDB7DEB729970FB6F894A4
:104C6000DEBF0FBECDBF6A01122FB02E2BE320177F
:104C700020F0FF24F394F00E02C0BCE3FB2E0F2DB6
:104C800027E0AE014F5F5F4F0E94AA27AC018981E8
:104C9000982F9970913031F0E1FC06C0E0FE06C01B
:104CA00090E205C09DE203C09BE201C090E0EE2DC2
:104CB000E07183FF3CC0911102C083E001C084E039
:104CC000811718F4212F281B01C020E0E1110BC02F
:104CD000F601822F30E2882319F031938150FBCF07
:104CE000C20ED11C20E0992329F0D6019C93F60135
:104CF00031966F01C6010396E2FE0AC03EE4D6017A
:104D00003C9341E411964C93119712963C9306C044
:104D10003EE6F601308341E641833283FC01322FC7
:104D200040E2332309F442C041933150FACF82FF6D
:104D300044C0911102C083E001C084E0811718F4DF
:104D4000212F281B01C020E0E1110BC0F601822FAA
:104D500030E2882319F031938150FBCFC20ED11C71
:104D600020E0992329F0D6019C93F60131966F013A
:104D7000C6010396E2FE0BC039E4D6013C933EE443
:104D800011963C93119736E412963C9307C039E68E
:104D9000F60130833EE6318336E63283FC01322F62
:104DA00040E2332319F041933150FBCFFC01E20F75
:104DB000F11D10828EEF9FEFB7C0F1E0911101C09D
:104DC000F0E06F2F70E01416150624F49A012F5F9F
:104DD0003F4F02C021E030E0260F371FBB2029F0F3
:104DE0006B2D70E06F5F7F4F02C060E070E0260FB8
:104DF000371F612F70E0261737071CF4121B212F75
:104E000001C020E03E2D387159F4D601322F60E206
:104E1000332319F06D933150FBCFC20ED11C20E02B
:104E2000FF2331F0D6019C93B6016F5F7F4F6B017A
:104E3000E1110BC0F601922F30E3992319F0319361
:104E40009150FBCFC20ED11C20E09F2D940F3A81D0
:104E5000782F7071A72E84FF03C0313309F491506D
:104E6000191624F4993018F098E001C091E0E42F6D
:104E7000852F57FF02C0E0E080E06E2F782FE0E042
:104E8000F0E0AEE29A2E3A01691A71082A01461A38
:104E9000570A0B2D10E01195019511096F3F8FEF07
:104EA000780729F4D6019C92C60101966C01461739
:104EB000570784F0661677066CF47F01E40CF51C46
:104EC000A1E0B0E0AC0FBD1FEA0EFB1ED7011196AA
:104ED000BC9002C090E3B92E615071093196C601B1
:104EE00001967C016017710724F0D601BC926C0119
:104EF000D5CF6417750741F4363320F4353321F4E8
:104F0000A11002C081E3B82EF601B082F701822F12
:104F100090E2882319F091938150FBCFF701E20FC3
:104F2000F11D108280E090E029960FB6F894DEBF64
:104F30000FBECDBFDF91CF911F910F91FF90EF90EA
:104F4000DF90CF90BF90AF909F907F906F905F90D9
:104F50004F900895283008F027E03327DA01990FA1
:104F6000311D87FD916000966105710539F432604D
:104F70002E5F3D9330E32A95E1F708959F3F30F08F
:104F800080387105610509F03C5F3C5F3D939130CD
:104F900008F08068911DDF93CF931F930F93FF92CA
:104FA000EF92192F987F9695E92F96959695E90F90
:104FB000FF27E85CFA4F99273327EE24FF24A70147
:104FC000E70105900894079428F4360FE71EF81EB1
:104FD000491F511D660F771F881F991F0694A1F75F
:104FE0000590079428F4E70EF81E491F561FC11DAF
:104FF000770F881F991F661F0694A1F705900794E5
:1050000028F4F80E491F561FC71FD11D880F991F7E
:10501000661F771F0694A1F70590079420F4490FA7
:10502000561FC71FD81F990F661F771F881F06942A
:10503000A9F784911095177041F0D695C7955795AB
:105040004795F794E7941A95C1F7EEEDF4E068946C
:105050001590159135916591959105907FE2739525
:10506000E118F10A430B560BC90BD009C0F7E10C4C
:10507000F11E431F561FC91FD01D7EF4703311F45B
:105080008A95E6CFE894015030F0080F0AF4002723
:10509000021708F4202F2395022F7A3328F079E3A2
:1050A0007D932A95E9F710C07D932A9589F6069499
:1050B00097956795379517951794E118F10A430B63
:1050C000560BC90BD00998F023957E9173957A33CE
:1050D00008F070E37C932013B8F77E9170617D93A4
:1050E00030F0839571E37D9370E32A95E1F7112405
:1050F000EF90FF900F911F91CF91DF91992787FD3E
:105100009095089591110C944529803219F0895099
:105110008550C8F70895DC01FC01672F7191772352
:10512000E1F7329704C07C916D9370836291AE1762
:10513000BF07C8F30895E89409C097FB3EF4909523
:105140008095709561957F4F8F4F9F4F9923A9F060
:10515000F92F96E9BB279395F695879577956795EF
:10516000B795F111F8CFFAF4BB0F11F460FF1BC033
:105170006F5F7F4F8F4F9F4F16C0882311F096E9C6
:1051800011C0772321F09EE8872F762F05C0662374
:1051900071F096E8862F70E060E02AF09A95660F2D
:1051A000771F881FDAF7880F9695879597F90895E6
:1051B0000E94EB280C945F290E94512938F00E942C
:1051C000582920F0952311F00C9448290C944E296D
:1051D00011240C9493290E94702970F3959FC1F3B8
:1051E000950F50E0551F629FF001729FBB27F00D95
:1051F000B11D639FAA27F00DB11DAA1F649F6627EA
:10520000B00DA11D661F829F2227B00DA11D621F38
:10521000739FB00DA11D621F839FA00D611D221FF2
:10522000749F3327A00D611D231F849F600D211DD6
:10523000822F762F6A2F11249F5750409AF0F1F059
:1052400088234AF0EE0FFF1FBB1F661F771F881FC2
:1052500091505040A9F79E3F510580F00C94482989
:105260000C9493295F3FE4F3983ED4F386957795A9
:105270006795B795F795E7959F5FC1F7FE2B880F68
:10528000911D9695879597F90895992788270895F0
:1052900097F99F6780E870E060E008959FEF80ECE9
:1052A000089500240A94161617061806090608958C
:1052B00000240A9412161306140605060895092EF2
:1052C0000394000C11F4882352F0BB0F40F4BF2B61
:1052D00011F460FF04C06F5F7F4F8F4F9F4F0895A1
:1052E00057FD9058440F551F59F05F3F71F0479597
:1052F000880F97FB991F61F09F3F79F0879508957C
:10530000121613061406551FF2CF4695F1DF08C09A
:10531000161617061806991FF1CF869571056105B7
:1053200008940895E894BB2766277727CB0197F95F
:105330000895F999FECF92BD81BDF89A992780B55D
:105340000895262FF999FECF1FBA92BD81BD20BDC9
:105350000FB6F894FA9AF99A0FBE019608952F9213
:105360003F924F925F926F927F928F929F92AF92F5
:10537000BF92CF92DF92EF92FF920F931F93CF9342
:10538000DF93CDB7DEB7CA1BDB0B0FB6F894DEBFD9
:105390000FBECDBF09942A88398848885F846E84FF
:1053A0007D848C849B84AA84B984C884DF80EE8049
:1053B000FD800C811B81AA81B981CE0FD11D0FB652
:1053C000F894DEBF0FBECDBFED01089512E0CDEE23
:1053D000D2E004C0FE010E948D222196CE3ED1076C
:0653E000C9F7F894FFCFAD
:1053E60009040904063C0000004552524F520D00C4
:1053F6004F4B0D000000B90580005E00BC00770130
:1054060000000000710378143A0318032C03B80354
:105416000000000077047814CB04E3045E047604ED
:1054260010110441542B47534E0041542B4343491A
:1054360044004F4B0041542B435245473F00302C0C
:105446000041542B434F50533F004D545300696E57
:105456007465726E65742E6D74732E7275006D743C
:10546600730042656500696E7465726E65742E62BE
:1054760065656C696E652E7275006265656C696E30
:1054860065004D65676100696E7465726E657400CE
:105496002B3739313632363332373031000A5365DD
:1054A6006E6420746865206461746120746F207472
:1054B600686520736974650074313D0031372F3299
:1054C6002F312C32313A323A3238253230303040B0
:1054D6000041542B53415042523D332C312C224330
:1054E6006F6E74797065222C224750525322004108
:1054F600542B53415042523D312C310041542B53D1
:10550600415042523D322C310041542B48545450A4
:10551600494E49540041542B48545450504152412D
:105526003D22434944222C310041542B48545450C7
:105536005445524D0041542B4854545053534C3DFE
:10554600310041542B4854545053534C3D3000685D
:10555600747470733A2F2F74726D372E78797A2F90
:10556600722E70687000687474703A2F2F74726DA2
:10557600372E78797A2F722E70687000302C36307C
:1055860000302C3230300041542B48545450524590
:105596004144004572726F72002B48545450524574
:1055A60041443A20000D0A002600263031002630FC
:1055B60032002630330026303400496E7465766139
:1055C6006C3A20003E000D005B315D005B305D00F3
:1055D60041542B48545450504152413D2255524C4F
:1055E600222C220041542B48545450414354494FD5
:1055F6004E3D300041542B435351004353513A0022
:10560600383631343435303330333632323638008A
:045616005B325D00A6
:107E000085E08093810082E08093C00088E18093C8
:107E1000C10086E08093C20080E18093C40084B7F3
:107E200014BE81FFD0D089E2C8D0259A86E020E335
:107E30003CEF91E0309385002093840096BBB09B8B
:107E4000FECF1D9AA8958150A9F7DD24D394A5E013
:107E5000EA2EF1E1FF2EA4D0813421F481E0BED0DE
:107E600083E024C0823411F484E103C0853419F422
:107E700085E0B4D08AC08535A1F492D0082F10E0F7
:107E800010930102009300028BD090E0982F882776
:107E9000802B912B880F991F9093010280930002F1
:107EA00073C0863529F484E099D080E071D06DC02C
:107EB000843609F043C07CD0E0910002F0910102C9
:107EC00083E080935700E895C0E0D1E069D08993C2
:107ED000809102028150809302028823B9F778D002
:107EE00007B600FCFDCF4091000250910102A0E0D6
:107EF000B1E02C9130E011968C91119790E0982F81
:107F00008827822B932B1296FA010C01D0925700EE
:107F1000E89511244E5F5F4FF1E0A038BF0749F7A5
:107F2000E0910002F0910102E0925700E89507B657
:107F300000FCFDCFF0925700E89527C08437B9F4D4
:107F400037D046D0E0910002F09101023196F093D3
:107F50000102E09300023197E4918E2F19D08091B5
:107F60000202815080930202882361F70EC0853798
:107F700039F42ED08EE10CD085E90AD08FE096CF6F
:107F8000813511F488E019D023D080E101D063CF8E
:107F9000982F8091C00085FFFCCF9093C600089574
:107FA000A8958091C00087FFFCCF8091C6000895FE
:107FB000F7DFF6DF80930202F3CFE0E6F0E098E12E
:107FC00090838083089580E0F8DFEE27FF270994EF
:107FD000E7DF803209F0F7DF84E1DACF1F93182F53
:0C7FE000DFDF1150E9F7F4DF1F91089576
:0400000300007E007B
:00000001FF