:100000000C9433040C9413150C94EC140C944919AF
:100010000C9449190C9449190C945B040C945B04DE
:100020000C945B040C940A170C945B040C945B0412
:100030000C945B040C945B040C945B040C945B04C4
:100040000C94A2140C945B040C94060C0C94E00B1E
:100050000C945B040C945B040C945B040C945B04A4
:100060000C945B040C945B0441542B434744434F72
:100070004E543D312C224950222C220041542B5306
:10008000415042523D332C312C22505744222C22D5
:100090000041542B53415042523D332C312C2255B8
:1000A000534552222C220041542B53415042523D81
:1000B000332C312C2241504E222C220041542B480B
:1000C00054545052454144006E6F20636F6D70610F
:1000D00072650054656C20636F6D70617265006EAF
:1000E0006F20636F6D7061726500496E7465766133
:1000F0006C3A2000204572726F72733A2000546F80
:1001000074616C3A20005B5061796C6F61645D20B2
:1001100000546865206E756D626572206F6620738D
:100120006572766572206572726F7273206578638E
:100130006565646564203230004572726F727320A9
:10014000657863656564656400436F6E6E656374AE
:10015000206572726F72000A485454505F73736C5A
:100160003A20736574204F46462066616C736521A2
:10017000000A485454505F73736C3A2073657420BE
:100180004F4646207375636365737366756C6C794F
:1001900021000A485454505F73736C3A207365749D
:1001A000204F4E2066616C736521000A48545450FC
:1001B0005F73736C3A20736574204F4E20737563C0
:1001C0006365737366756C6C7921000A4E6F2069E4
:1001D0006E7465726E657420636F6E6E65637469AC
:1001E0006F6E004552524F5200726574202D2000F0
:1001F00052657175657374696E67202E2E20576184
:100200006974000A53656E642074686520646174C3
:100210006120746F207468652073697465004154AF
:100220002B4854545053534C3D300041542B4854A8
:10023000545053534C3D310041542B435354543D7F
:1002400022696E7465726E6574220041542B4353AB
:1002500054543D22696E7465726E65742E626565D4
:100260006C696E652E7275220041542B43535454B1
:100270003D22696E7465726E65742E6D74732E7294
:1002800075220041542B434D4744413D2244454C87
:1002900020414C4C22002B43495050494E470041CD
:1002A000542B43494653520041542B43494943522E
:1002B0000041542B435354543D22696E7465726E51
:1002C000657422004552524F52004353513A200068
:1002D00041542B43495053485554000D0A00457270
:1002E000726F72002B48545450524541443A2000DA
:1002F000302C363000302C3230300041542B4854F2
:100300005450504152413D22434944222C31004136
:10031000542B48545450494E49540041542B48548E
:1003200054505445524D0041542B434F50533F00BD
:1003300041542B47534E0041542B43504D533D22C3
:10034000534D222C22534D222C22534D2200415436
:100350002B53415042523D322C310041542B5341DA
:100360005042523D312C310041542B43434944000B
:10037000696E7465726E6574006265656C696E6540
:1003800000696E7465726E65742E6265656C696E67
:10039000652E7275006D747300696E7465726E659A
:1003A000742E6D74732E72750041542B534150425C
:1003B000523D332C312C22436F6E74797065222CA0
:1003C0002247505253220041542B43474154543F3B
:1003D0000041542B4353510041542B435245473F56
:1003E000004D454741464F4E004D656761004265EF
:1003F000656C696E6500426565004D5453004D544F
:100400005300D803D103C703A903990395038103BC
:100410007903700368035B034E033703300327033C
:100420001B030F03FB02F502F002E402DE02DB0213
:10043000D002CA02C402B102A8029F02960283023D
:1004400069024B0238022B021E02475052532063AE
:100450006F6E6E656374202E2E00496E697420479E
:100460005052532E2E200072737369202E2E000AD4
:100470005265676973746572656420726F616D6936
:100480006E67000A556E6B6E6F776E000A44656E7C
:10049000696564000A4E6F742072656769737465DC
:1004A0007265642028736561726368696E672900EC
:1004B0000A526567697374657265642028686F6D98
:1004C0006529003A20000A4E6574776F726B2073BD
:1004D000746174757320000A53657474696E6720C3
:1004E0007570206E6574776F726B2E2E2E000A5316
:1004F000494D20434349443A000A494D45493A2071
:100500004E4F000A494D45493A00506F77657220B9
:1005100053494D383030204F6E00496E697469611F
:100520006C697A696E672E2E2E2E284D61792074A3
:10053000616B6520352D3130207365636F6E647398
:1005400029000A53494D3830302073657475702086
:10055000656E64000A66726565206D656D6F7279FF
:100560003A2000534D535F63656E746572202E2EE2
:1005700000496E74657276616C207365633A00435E
:100580006C65617220454550524F4D20456E6400A8
:10059000537461727420636C6561722045455052DA
:1005A0004F4D004F4B000A53494D38303020736592
:1005B00074757020737461727400496E746572761C
:1005C000616C2070696E67207365633A000A667219
:1005D0006565206D656D6F72793A2000496E7465AE
:1005E0007276616C207365633A00000000080002B7
:1005F00001000003040700000000000000000000EC
:100600000000250028002B00000000002300260029
:100610002900040404040404040402020202020285
:1006200003030303030301020408102040800102B6
:1006300004081020010204081020005EBCE2613FA3
:10064000DD83C29C7E20A3FD1F419DC3217FFCA2B0
:10065000401E5F01E3BD3E6082DC237D9FC1421CE2
:10066000FEA0E1BF5D0380DE3C62BEE0025CDF8194
:10067000633D7C22C09E1D43A1FF4618FAA4277942
:100680009BC584DA3866E5BB5907DB856739BAE470
:1006900006581947A5FB7826C49A653BD987045AA2
:1006A000B8E6A7F91B45C6987A24F8A6441A99C754
:1006B000257B3A6486D85B05E7B98CD2306EEDB302
:1006C000510F4E10F2AC2F7193CD114FADF3702E30
:1006D000CC92D38D6F31B2EC0E50AFF1134DCE9062
:1006E000722C6D33D18F0C52B0EE326C8ED0530D14
:1006F000EFB1F0AE4C1291CF2D73CA947628ABF5C2
:1007000017490856B4EA6937D58B5709EBB53668EF
:100710008AD495CB2977F4AA4816E9B7550B88D621
:10072000346A2B7597C94A14F6A8742AC896154BD3
:10073000A9F7B6E80A54D7896B35000000002400F9
:1007400027002A0041542B48545450414354494FE8
:100750004E3D300041542B48545450504152413D7D
:100760002255524C222C220000407A10F35A00A04D
:10077000724E18090010A5D4E80000E8764817006A
:1007800000E40B54020000CA9A3B000000E1F505AA
:10079000000080969800000040420F000000A086F4
:1007A00001000000102700000000E8030000000026
:1007B0006400000000000A000000000001000000CA
:1007C00000002C76D888DC674F0823DFC1DFAE59E4
:1007D000E1B1B796E5E3E453C63AE651997696E877
:1007E000E6C28426EB898C9B62ED407C6FFCEFBCFB
:1007F0009C9F40F2BAA56FA5F490055A2AF75C9326
:100800006B6CF9676DC11BFCE0E40D47FEF520E65B
:10081000B500D0ED902E0300943577050080841E3E
:10082000080000204E0A000000C80C333333330F99
:10083000986E12831141EF8D2114893BE65516CF36
:10084000FEE6DB18D1844B381BF77C1D901DA4BB42
:10085000E424203284725E228100C9F124ECA1E5F7
:100860003D279923D52411241FBECFEFD8E0DEBF4A
:10087000CDBF12E0A0E0B1E0E0EEF9E502C00590E6
:100880000D92A437B107D9F725E0A4E7B2E001C083
:100890001D92A933B207E1F714E0C2E3D4E004C02B
:1008A0002197FE010E946725C133D107C9F70E9435
:1008B000241D0C94E32C0C94000008952F923F9279
:1008C0004F925F926F927F928F929F92AF92BF9260
:1008D000CF92DF92EF92FF920F931F93CF93DF930C
:1008E000CDB7DEB7C156D1090FB6F894DEBF0FBE43
:1008F000CDBF63E072E080E893E00E94101D83E4C6
:1009000094E00E94701780E394E00E9470178DE1DC
:1009100094E00E94701783E494E00E948B0E6B01B8
:100920007C0180E394E00E948B0E4B015C018DE121
:1009300094E00E948B0E2B013C010E941B1C8C0139
:100940006E961FAE1EAE6E97BE01645A7F4F80EA50
:1009500090E00E941C1AA5019401C701B6010E94F3
:100960006E25A30192010E946E252FE832EC41EB27
:1009700052E40E946E25AB01BC0122E0CE018A5AEE
:100980009F4F0E94BA11CE0101961C0124E630E06F
:10099000BC01C901A1962FAFA197A2963FAFA29724
:1009A0006F966FAF6F97A0967FAFA0970E947C2C39
:1009B000F10181931F01A1962FADA197A2963FADA2
:1009C000A2972F5F3F4F6F966FAD6F97A0967FAD49
:1009D000A09721373105E9F6CE018C960E94971C2D
:1009E00020EB222E24E0322E2CED30E0C901A1961E
:1009F0002FAFA197A2963FAFA2970E947C2CF10146
:100A000081931F01A1962FADA197A2963FADA2970A
:100A10002F5F3F4F223E310549F763E471E0CE017D
:100A200082960E94971CBE01645D7F4FCE01829624
:100A30000E94DD100E94750D64EA74E00E94DD10D2
:100A4000BC01CE01805B9F4F0E94EA11CE018296CD
:100A50000E94B511CE018C960E94B5116E968EAD96
:100A60009FAD6E972C961FAE1EAE2C972E961FAE86
:100A70001EAE2E9760961FAE1EAE60974AE0BE0176
:100A80006F5F7F4F0E949B28BE016F5F7F4FCE013B
:100A9000865B9F4F0E94581160918D0270918E026B
:100AA00080918F029091900226961FAE1EAE2697DF
:100AB00028961FAE1EAE28972A961FAE1EAE2A9706
:100AC0002AE0AE014F5F5F4F0E94C328BE016F5FF7
:100AD0007F4FCE018C5B9F4F0E94581119AE18AE0C
:100AE0001BAE1AAE1DAE1CAE4AE0BE016F5F7F4F5B
:100AF000C8010E949B28BE016F5F7F4FCE01C89640
:100B00000E94581122E0B301A201CE01C2960E94B8
:100B1000BA1122E0B501A401CE018C960E94BA114F
:100B200022E0B701A601CE0182960E94BA1165E4C7
:100B300071E0CE0101960E94971C6CEB74E0CE012F
:100B400001960E94DD100E94750DBE016E5D7F4F03
:100B50000E94DD100E94750DBE01645D7F4F0E94F2
:100B6000DD100E94750DBE016E5C7F4F0E94DD108E
:100B70000E94750DBE01685C7F4F0E94DD100E94CF
:100B8000750DBE016C5B7F4F0E94DD100E94750DDC
:100B9000BE01665B7F4F0E94DD10BE01605B7F4F30
:100BA0000E94DD100E94750DBE016A5A7F4F0E949F
:100BB000DD10BC01CE01CE960E94EA11CE01019655
:100BC0000E94B511CE0182960E94B511CE018C967D
:100BD0000E94B511CE01C2960E94B511CE01C896F1
:100BE0000E94B511CE018C5B9F4F0E94B511CE01C2
:100BF000865B9F4F0E94B511CE01805B9F4F0E9484
:100C0000B511CE018A5A9F4F0E94B51124966EAD40
:100C10007FAD249780E090E04AE00E94990D80E843
:100C200093E00E94FA1CBE01625C7F4FCE018C5B98
:100C30009F4F0E94EA1160EF71E080E893E00E940C
:100C4000C11CE8E0F4E06591749187EB92E00E94AA
:100C50008B2840E050E060ED77E087EB92E00E9467
:100C6000251B882309F494C067EA70E082EC94E0C5
:100C70000E94C11C68E974E082EC94E00E94B31CFD
:100C80000E94EB0D40E050E060ED77E080E090E006
:100C90000E94251B811102C082E07DC061E970E0E5
:100CA00082EC94E00E94C11C62E974E082EC94E062
:100CB0000E94B31C0E94EB0D40E050E060ED77E035
:100CC00080E090E00E94251B882331F36CE770E000
:100CD00082EC94E00E94C11C6CE874E082EC94E029
:100CE0000E94B31C0E94EB0D40E050E060ED77E005
:100CF00080E090E00E94251B882371F268E670E096
:100D000082EC94E00E94C11C66E874E082EC94E0FE
:100D10000E94B31C0E94EB0D40E050E060ED77E0D4
:100D200080E090E00E94251B882309F4B5CFE6E11E
:100D3000F4E06591749187EB92E00E948B2840E08B
:100D400050E060E27EE487EB92E00E94251B8091F8
:100D5000A2029091A302039739F062E370E080E071
:100D600090E00E945C14F3CFE8E1F4E065917491A7
:100D700087EB92E00E948B2840E050E060E771E151
:100D800087EB92E00E94251B811104C083E003C021
:100D900081E001C080E08093000169EE71E080E8AD
:100DA00093E00E94C11C6091000170E080E090E03F
:100DB0004AE00E94990D00E010E094E2E92E94E0F0
:100DC000F92EF7016591749187EB92E00E948B28D0
:100DD00040E050E060E177E289E491E00E94251B69
:100DE000882351F040E050E068E873E187EB92E03F
:100DF0000E94251B81114FC010922A0565E272E006
:100E000080E893E00E94221D67EB72E080E893E0A7
:100E10000E94FE1C67EB72E0CE0182960E94971C36
:100E20001A8219821C821B821E821D8263EE71E06F
:100E3000CE0101960E940F11BE016F5F7F4FCE0160
:100E400082960E94C3106C01CE0101960E94B511DA
:100E5000D7FC0CC06BEC71E080E893E00E94101DA1
:100E600068EE73E080E090E00E945C140E940B1C2E
:100E700068EE73E080E090E00E945C140F5F1F4F0B
:100E80000D3311051CF0E0E0F0E00995CE018296EB
:100E90000E94B51196CF81E080932A058091A4022B
:100EA000882389F0E6E4F4E06591749187EB92E0A1
:100EB0000E948B2887EB92E00E94D30C8130A1F432
:100EC0006BEA71E016C0E8E4F4E06591749187EB99
:100ED00092E00E948B2887EB92E00E94D30C813035
:100EE00031F461E771E005C062E971E002C067E5D5
:100EF00071E080E893E00E94101D8091A402882395
:100F0000E9F065E571E080E893E00E94221D6FE35F
:100F100080E893E00E94AC1CCE018C5B9F4F0E9446
:100F20002F0EBE016C5B7F4FCE0101960E94EA112D
:100F3000BE016F5F7F4F85E591E023C06CE671E0F5
:100F4000CE018C5B9F4F0E94581163EE71E080E8E8
:100F500093E00E94221D6FE380E893E00E94AC1CA6
:100F6000CE018C5B9F4F0E942F0EBE016C5B7F4FAA
:100F7000CE0101960E94EA11BE016F5F7F4F83EEA2
:100F800091E00E94B91BCE0101960E94B51180919B
:100F9000890290918A02A0918B02B0918C020196F5
:100FA000A11DB11D8093890290938A02A0938B02A8
:100FB000B0938C021092880286E2E82E84E0F82E2C
:100FC000F7016591749187EB92E00E948B2869EF9D
:100FD00071E087EB92E00E94710C823020F084E097
:100FE00080932A0517C0811115C06EE280E893E056
:100FF0000E945E131AE1115019F382EC94E00E94F2
:101000002313892BE9F66FE070E080E090E00E9406
:101010005C14F1CF80912A058430E9F569E471E030
:1010200080E893E00E94101D80918D0290918E02C5
:10103000A0918F02B09190020196A11DB11D8093E5
:101040008D0290938E02A0938F02B09390020E9423
:10105000411C80918D0290918E02A0918F02B091DF
:1010600090024597A105B10578F069E371E080E849
:1010700093E00E94101D68EB7BE080E090E00E940E
:101080005C14E0E0F0E0099568EB7BE080E090E044
:101090000E945C14C0C280E893E00E94FA1C6CEBD2
:1010A00070E082EC94E00E94101D83E080932A059A
:1010B00010927F030E9496146093B3027093B4025F
:1010C0008093B5029093B6026EEF71E084E092E0F7
:1010D0000E94710C8130C1F710927F0340E152E011
:1010E00064E670E080E090E00E94251B87EB92E0D0
:1010F0000E9446288C0140E050E060ED77E080E0FF
:1011000090E00E94251B073C110510F007EC10E051
:10111000F801E954FD4F1082012BB1F280912A05AC
:10112000843029F580918D0290918E02A0918F02DA
:10113000B09190020196A11DB11D80938D029093F4
:101140008E02A0938F02B09390020E94411C809166
:101150008D0290918E02A0918F02B09190024597DE
:10116000A105B10508F490CF61E171E080CF66E0A0
:1011700071E080E893E00E94C11C67EB72E080E8B8
:1011800093E00E94FE1C67EB72E0CE01C8960E94BD
:10119000971C81E08093880263E172E0CE010196A2
:1011A0000E94971CBE016F5F7F4FCE01C8960E94C0
:1011B000C3108C01CE0101960E94B51117FD60C0CD
:1011C00065E172E0CE0101960E94971CBE016F5F3F
:1011D0007F4FCE01C8960E94C3109BA38AA3CE0165
:1011E00001960E94B51169E172E0CE0101960E945C
:1011F000971CBE016F5F7F4FCE01C8960E94C3103F
:101200009DA38CA3CE0101960E94B5116DE172E001
:10121000CE0101960E94971CBE016F5F7F4FCE01E9
:10122000C8960E94C3109FA38EA3CE0101960E9470
:10123000B51161E272E0CE0101960E94971CBE01D9
:101240006F5F7F4FCE01C8960E94C31099A788A7F1
:10125000CE0101960E94B5118CAD9DAD892B61F038
:1012600008AD19AD63E270E0C8010E94C426009782
:1012700019F0801B910B02C08FEF9FEF9BA78AA7ED
:101280008E010E5D1F4F6E01FAE2CF0ED11CF801E8
:10129000819191918F015C01F5E0AF0EB11CAC0121
:1012A0004D5F5F4F9501BE01685C7F4FCE01C296D6
:1012B0000E946F118AA99BA9009719F00E946428C7
:1012C00003C060E070E0CB017B01CB010E94FC0D0C
:1012D000F80120813181A501BE01685C7F4FCE01FC
:1012E00001960E946F118AA99BA90097A9F06981B4
:1012F0007A816115710571F04CA95DA92D813E813E
:101300004217530738F00E94D8268D819E819FABEB
:101310008EAB12C00E94AE2789819A819BAB8AABAB
:101320008B819C819DAB8CAB8D819E819FAB8EAB65
:101330001A8219821C821B821E821D82CE01019696
:101340000E94B51110927602CE01C2960E942F0E15
:10135000BE016E5C7F4FCE018C960E94EA112E96E4
:101360001CAE1DAE1EAE1FAE2E97F3E0EF16F104BD
:1013700009F4BEC054F481E0E816F10499F092E05B
:10138000E916F10409F45CC0F2C0E4E0EE16F104E1
:1013900009F4EBC0F5E0EF16F10409F0E8C0109293
:1013A000A502E5C08CA59DA5009719F00E946428B0
:1013B00003C060E070E0CB012E966CAF7DAF8EAFC6
:1013C0009FAF2E970E94DC0D2E968CAD9DADAEADDD
:1013D000BFAD2E97AC01BD014E5151096109710994
:1013E000433651456140710500F54091050150912A
:1013F0000601609107017091080184179507A607FF
:10140000B70799F02091A50221110FC08093050123
:1014100090930601A0930701B0930801BE01665B9B
:101420007F4F88EC90E00E94E9196091050170916E
:10143000060180910701909108010E94DC0D97C080
:1014400068E772E084E690E00E94C31968E772E002
:1014500080E893E00E94FE1C88A999A9892B29F4B1
:10146000809178028823E9F108C068E772E08CA5D2
:101470009DA50E94CF26892BA1F16FED70E080E839
:1014800093E00E94101DE12CF12C88A999A9E8167F
:10149000F90620F4ECA5FDA5309729F41092760208
:1014A000E6E7F2E002C0EE0DFF1D6081C7018C5936
:1014B0009F4F0E94301A8FEFE81AF80A9DE0E91654
:1014C000F10419F7BE016F5F7F4F84E690E00E9440
:1014D000C319BE016F5F7F4F80E893E00E94FE1C3E
:1014E00046C063ED70E080E893E00E94101D3FC0AD
:1014F00068E772E08CED90E00E94C31988A999A971
:10150000892B29F480917802882389F108C068E743
:1015100072E08CA59DA50E94CF26892B41F168EC35
:1015200070E080E893E00E94101DE12CF12C88A966
:1015300099A9E816F90620F4ECA5FDA5309729F441
:1015400010927602E6E7F2E002C0EE0DFF1D608128
:10155000C70184529F4F0E94301AEFEFEE1AFE0A25
:10156000FDE0EF16F10419F702C010927702CE01E8
:101570008C960E94B511CE01C2960E94B5110C1531
:101580001D0509F084CE6EEF70E080E893E00E94C4
:10159000C11C6091890270918A0280918B029091A6
:1015A0008C024AE00E94990D80918D0290918E02EA
:1015B000A0918F02B0919002892B8A2B8B2B89F0FE
:1015C00064EF70E080E893E00E94C11C60918D029E
:1015D00070918E0280918F02909190024AE00E9459
:1015E000990D80E893E00E94FA1C6AEE70E080E8B2
:1015F00093E00E94C11C60910501709106018091E9
:101600000701909108010E94DC0D0E940B1CCE0185
:10161000C8960E94B511CE018C5B9F4F0E94B511F8
:10162000CE01CE960E94B511CF59DF4F0FB6F89478
:10163000DEBF0FBECDBFDF91CF911F910F91FF9005
:10164000EF90DF90CF90BF90AF909F908F907F9062
:101650006F905F904F903F902F9008951F93CF937E
:10166000DF931F92CDB7DEB7162F682F8AE049832C
:101670000E94F013612F8EE00E94F0134981642FC5
:101680008FE00F90DF91CF911F910C94F013809118
:10169000A2029091A302892B29F440E060E080E04F
:1016A0000E942E0B8091A2029091A3020197D9F47F
:1016B000209174023091750281E090E0232B11F0AB
:1016C00080E090E0909375028093740280917402A0
:1016D0009091750240E060E0892B11F481E001C037
:1016E00080E00E942E0B8091A2029091A3020297AB
:1016F000D9F4209174023091750281E090E0232B9F
:1017000011F080E090E090937502809374028091D4
:10171000740290917502892B11F440E001C041E000
:1017200060E080E00E942E0B8091A2029091A302C3
:101730000397D9F4209174023091750281E090E012
:10174000232B11F080E090E0909375028093740257
:10175000809174029091750240E0892B11F460E051
:1017600001C061E080E00C942E0B0895EF92FF928F
:101770000F931F93CF93DF931F92CDB7DEB77C01FA
:10178000FC0100811181C80169830E947C2C698160
:10179000681719F0C8010E94842CC7010F90DF91CF
:1017A000CF911F910F91FF90EF90089580E893E003
:1017B0000E94261221E0892B09F420E0822F08954F
:1017C0001F920F920FB60F9211242F933F934F93B6
:1017D0005F936F937F938F939F93AF93BF93EF9399
:1017E000FF9380E893E00E943D13FF91EF91BF913A
:1017F000AF919F918F917F916F915F914F913F91A9
:101800002F910F900FBE0F901F9018951F920F925F
:101810000FB60F9211242F938F939F93EF93FF9303
:10182000E0919003F09191038081E0919603F09113
:10183000970382FD12C09081809199038F5F8F730F
:1018400020919A03821751F0E0919903F0E0E0585B
:10185000FC4F958F8093990301C08081FF91EF9198
:101860009F918F912F910F900FBE0F901F90189501
:101870000F931F93CF93DF93EC0188819981009799
:1018800029F02A813B812617370788F48B016F5F87
:101890007F4F0E94DA25009761F0998388831B832C
:1018A0000A832C813D81232B11F4FC01108281E0FD
:1018B00001C080E0DF91CF911F910F910895CF93E8
:1018C000DF93EC0188819981009711F00E94AE2787
:1018D000198218821D821C821B821A82DF91CF918D
:1018E0000895FF920F931F93CF93DF938C01EB0129
:1018F00083E6F82E82EC94E00E942313892B99F161
:1019000082EC94E00E949E1890917F03973C58F0DF
:10191000F0927F03EBE1F3E0A7EBB2E09F2D0190A3
:101920000D929A95E1F7A0917F03E1E0EA0FE09331
:101930007F03B0E0A954BD4F8C93F0E0E954FD4F14
:101940001082B80187EB92E00E94DF26892B11F507
:10195000209781F2BE0187EB92E00E94DF26892B5F
:1019600049F282E01AC00E9496140091B3021091CD
:10197000B4022091B5023091B602DC01CB01801B8C
:10198000910BA20BB30B80319742A105B10520F05A
:1019900083E003C081E001C080E0DF91CF911F911F
:1019A0000F91FF900895CF92DF92EF92FF921F93D5
:1019B000CF93DF93EC01892B89F00E94191B6EE312
:1019C00080E893E00E94AC1CBE0180E893E00E9496
:1019D000FE1CBE0182EC94E00E94FE1C0E94961444
:1019E0006B017C01C0E0D3E682EC94E00E942313FB
:1019F000892B09F449C082EC94E00E949E18C73CF0
:101A000050F0EBE1F3E0A7EBB2E09D2F01900D92D7
:101A10009A95E1F7C3E611E01C0FEC2FF0E0E954D2
:101A2000FD4F8083E12FF0E0E954FD4F108260E12B
:101A300071E087EB92E00E94DF26892B71F061E66E
:101A400072E080E893E00E94221D67EB72E080E87C
:101A500093E00E94FE1C81E026C069E071E087EB04
:101A600092E00E94DF26892B71F065E672E080E843
:101A700093E00E94221D67EB72E080E893E00E94F1
:101A8000FE1C82E010C0C12F0E949614DC01CB0125
:101A90008C199D09AE09BF09803D9740A105B1058C
:101AA00008F4A2CF80E0DF91CF911F91FF90EF90DB
:101AB000DF90CF9008950F931F93CF93DF93C5E0EE
:101AC000D1E08C0105501140C8018C0F9D1F0E9470
:101AD0007C2C899381E0C930D807B1F785E091E08B
:101AE000DF91CF911F910F9108950F931F93CF9383
:101AF000DF93EC010C811D810F5F1F4FB8010E9425
:101B0000380C882369F0288139818C819D8163E4B8
:101B100071E0820F931F0E94D8261D830C8303C09F
:101B2000CE010E945F0CCE01DF91CF911F910F91EA
:101B300008958F929F92AF92BF920F931F93CF936E
:101B4000DF93CDB7DEB7A1970FB6F894DEBF0FBE17
:101B5000CDBF19A2423008F44AE08E010F5D1F4F3D
:101B6000842E912CA12CB12CA50194010E94312529
:101B7000E62FB901CA0101501109EA3014F4E05D01
:101B800001C0E95CD801EC93232B242B252B61F7B2
:101B9000B80180E893E00E94E51CA1960FB6F89486
:101BA000DEBF0FBECDBFDF91CF911F910F91BF90D0
:101BB000AF909F908F900895CF93DF934AE00E945B
:101BC000990DEC0180E893E00E94FA1C8C0F9D1F98
:101BD000DF91CF910895CF93DF9362E282EC94E09E
:101BE0000E94AC1CEC0182EC94E00E94FA1C8C0F69
:101BF0009D1FDF91CF910895CF92DF92EF92FF92D8
:101C0000CF93DF936C01990FEE08FF08F7FE14C025
:101C10006DE280E893E00E94AC1CEC016627772718
:101C2000CB016C197D098E099F094AE00E94990D2C
:101C30007C01EC0EFD1E06C04AE0C701B6010E9401
:101C4000990D7C0180E893E00E94FA1C8E0D9F1D87
:101C5000DF91CF91FF90EF90DF90CF900895CF93D9
:101C6000DF93BC0180E893E00E94B31CEC0180E8A4
:101C700093E00E94FA1C8C0F9D1FDF91CF91089575
:101C8000CF93DF93E3EFF5E08491EFE2F6E0D491B8
:101C9000EBE1F6E0C491CC2391F081110E94C713CF
:101CA000EC2FF0E0EE0FFF1FE85FF94FA591B49124
:101CB000EC91ED2381E090E021F480E002C080E02F
:101CC00090E0DF91CF910895CF93DF93EB01DC019A
:101CD0001596ED91FC911697138615861486DF01F3
:101CE0001B9633961E92AE17BF07E1F7BE01FC01AB
:101CF000858196810E94EC15882349F067E0CE012A
:101D00000E943A159F81891302C081E001C080E0E2
:101D1000DF91CF9108950F931F93CF93DF93CDB7AA
:101D2000DEB761970FB6F894DEBF0FBECDBF8C0152
:101D3000BE01665F7F4F0E94640E811105C060E0A6
:101D400070E08EEF92EC4BC0AE014F5F5F4FBE0173
:101D5000665F7F4FC8010E949F17882359F16981F0
:101D600048E0649FB00111248A81282F30E0322F8F
:101D70002227330F330F330F262B372B8A858031E1
:101D8000E1F4688570E08F81AB01481B5109CA01FD
:101D90009695982F8827979587950E941D256051C5
:101DA0007109207F53E0220F331F5A95E1F7620F2C
:101DB000731F04C060E874EE01C0B901613854EECD
:101DC00075070CF4BCCF072E000C880B990B0E94F2
:101DD000802B20E030E040E05CE30E94BB2B61966A
:101DE0000FB6F894DEBF0FBECDBFDF91CF911F912C
:101DF0000F910895DF92EF92FF920F931F93CF936D
:101E0000DF93CDB7DEB729970FB6F894DEBF0FBECC
:101E1000CDBF8C017B01AE014F5F5F4F0E949F17CA
:101E2000D82E882309F459C0F7018081803109F444
:101E300054C08FE78D83F801858196810E94B61585
:101E4000B701F801858196810E94891540E06EE412
:101E5000F801858196810E94471540E06B81F80169
:101E6000858196810E94471540E06C81F80185814B
:101E700096810E944715F7018081803139F040E05A
:101E80006D81F801858196810E944715F801858151
:101E900096810E94B615B701F801858196810E944E
:101EA0008915F801408168E4858196810E94471573
:101EB00064E170E080E090E00E945C14F8018081B1
:101EC000882331F06AE070E080E090E00E945C14CA
:101ED000F801858196810E94B6158D2D29960FB641
:101EE000F894DEBF0FBECDBFDF91CF911F910F9150
:101EF000FF90EF90DF9008952F923F924F925F9264
:101F00006F927F928F929F92AF92BF92CF92DF9209
:101F1000EF92FF920F931F93CF93DF9300D000D0E7
:101F2000CDB7DEB7FC01448055804114510409F45B
:101F300013C1FB01648075806114710409F40CC144
:101F40007A016B019C838B83FA01A480B580A6186B
:101F5000B708FC0100811181A114B104C1F4F6019C
:101F600060817181C8010E94DF265C01892B09F420
:101F7000F3C0F7016081718144815581C5010E94E0
:101F8000A926F701048115810A0D1B1DE8CFB7FEB4
:101F900002C0480106C0FB01208031804201C80117
:101FA00048C0F60160817181C4010E94DF262C01C6
:101FB000892B29F1320168187908A301B401C801FD
:101FC0000E94A926060D171DF701608171814481C9
:101FD0005581C8010E94A926F70184819581080FC7
:101FE000191FF60184809580840C951CEB81FC817F
:101FF000848195818A0D9B1D95838483D2CFB40102
:10200000C8010F900F900F900F90DF91CF911F910B
:102010000F91FF90EF90DF90CF90BF90AF909F9087
:102020008F907F906F905F904F903F902F900C9487
:10203000D826B1010E94DF26009729F0860D971D52
:102040008A0C9B1CF6CF8414950409F485C0EB819F
:10205000FC81828193818815990578F4B4016F5FC2
:102060007F4FC8010E94DA25009709F475C0EB8103
:10207000FC819183808393828282EB81FC81048145
:1020800015810150110917FD67C0F60124803580C4
:102090002114310409F460C0EB81FC8164807580F7
:1020A0006114710409F458C06214730408F454C034
:1020B0000615170518F0830101501109EB81FC8109
:1020C00040805180C20188248A94982C9201200F6C
:1020D000311F2817390758F0F60160817181298373
:1020E0003A830E94DF2629813A81009761F597FCA7
:1020F00033C0280C391CC201820D931DA301421963
:102100005309BC018A0D9B1D0E94B226EB81FC8104
:10211000848195818A0D9B1D9583848320813181E3
:10212000F901E80FF91F1082EB81FC818081918118
:10213000F7016081718144815581880D991D0E944C
:10214000A92684019ECFAC0144195509041715072F
:1021500008F04A010196BDCF0F900F900F900F909D
:10216000DF91CF911F910F91FF90EF90DF90CF9073
:10217000BF90AF909F908F907F906F905F904F90A7
:102180003F902F900895CF93DF93FC0124813581F8
:10219000232B71F0FB01DC01CD91DC916081718119
:1021A000CE010E94DF26009719F08C1B9D0B02C008
:1021B0008FEF9FEFDF91CF910895EF92FF920F93F2
:1021C0001F93CF93DF93EC01FB0184819581E08025
:1021D000F1800C811D81E114F104B1F00097B9F098
:1021E000080F191FB801CE010E94380C882361F036
:1021F000288139818C819D81B701820F931F0E94B4
:10220000D8261D830C8303C0CE010E945F0CCE0133
:10221000DF91CF911F910F91FF90EF900895EF9272
:10222000FF920F931F93CF93DF93EC018B01611506
:10223000710551F0CB010E9492287C01BC01CE01B6
:102240000E94380C811104C0CE010E945F0C07C0AF
:10225000FD82EC82B801888199810E948B28CE0191
:10226000DF91CF911F910F91FF90EF900895EF9222
:10227000FF920F931F93CF93DF93EC017B018A01B1
:10228000BA010E94380C811104C0CE010E945F0C7B
:1022900007C01D830C83B701888199810E94D826CD
:1022A000CE01DF91CF911F910F91FF90EF90089594
:1022B000CF93DF93EC016115710559F0FB0101909B
:1022C0000020E9F73197AF01461B570B0E943711E9
:1022D00002C00E945F0CCE01DF91CF910895BF92A2
:1022E000CF92DF92EF92FF920F931F93CF93DF93E2
:1022F0007C016B018A01E9012417350720F4812F45
:102300008901C42FD82F62E172E0C7010E94971C97
:10231000D60114968D919C91159708171907D0F442
:102320008C179D0708F4EC01D601ED91FC911197F3
:10233000EC0FFD1FB08010824D915C91BA01600FCF
:10234000711FC7010E945811D601ED91FC91EC0F4D
:10235000FD1FB082C701DF91CF911F910F91FF90B8
:10236000EF90DF90CF90BF900895FC018081918124
:102370000C94AE27EF92FF920F931F93CF93DF93AE
:10238000CDB7DEB7A1970FB6F894DEBF0FBECDBFB5
:102390007C01CB01BA01F7011182108213821282F3
:1023A0001582148242E0420F8E010F5F1F4F0E9480
:1023B000F926BC01C7010E945811A1960FB6F894E6
:1023C000DEBF0FBECDBFDF91CF911F910F91FF9068
:1023D000EF900895FB01DC0111961C921E9213965A
:1023E0001C921E92129715961C921E921497861795
:1023F000970749F0608171816115710521F0448171
:1024000055810C9437110895FC01918D828D981798
:1024100061F0828DDF01A80FB11D5D968C91928DC8
:102420009F5F9F73928F90E008958FEF9FEF0895C5
:10243000FC01918D828D981731F0828DE80FF11D8E
:10244000858D90E008958FEF9FEF0895FC01918DA9
:10245000228D892F90E0805C9F4F821B91098F73A2
:102460009927089580E090E0892B29F00E94D60BEF
:1024700081110C94000008953FB7F89480912605CF
:1024800090912705A0912805B091290526B5A89B14
:1024900005C02F3F19F00196A11DB11D3FBFBA2FF6
:1024A000A92F982F8827820F911DA11DB11DBC0156
:1024B000CD0142E0660F771F881F991F4A95D1F71B
:1024C00008950895FC0190810180F281E02DF89437
:1024D0008181892B81832281892F809528232283E2
:1024E000A7E0B0E01197F1F7218182238183A3E275
:1024F000B0E01197F1F780817894EFECF0E031973C
:10250000F1F7982381E009F480E00895FC019081BF
:102510000180F281E02D892F809560FF12C0F89430
:102520002281822382838181892B8183A3E2B0E08F
:102530001197F1F78281982B9283789487ED90E040
:1025400011C0F8942281822382838181892B818327
:10255000AFEFB0E01197F1F78281982B92837894D6
:102560008FE090E00197F1F708950895209193028C
:10257000309194022817390771F49091910280915B
:102580009202981741F0E0919102F0E0EF51FB4F79
:10259000808190E008958FEF9FEF089508951F9335
:1025A000CF93DF93DC015C962D913C915D972115D3
:1025B000310539F481E090E013969C938E93129745
:1025C0003DC05196ED91FC91529750969C91509739
:1025D000892F80951FB75E964C915E9741FB7727B8
:1025E00070F941FD6095F8944081772311F0492BF3
:1025F00001C048234083E9012197F1F748E0508169
:1026000060FF02C0592B01C058235083E901219774
:10261000F1F76695415099F7772321F0908189234E
:10262000808303C08081982B90831FBF5C968D911F
:102630009C915D970197F1F721E030E0C901DF91AE
:10264000CF911F9108952091930230919402281701
:10265000390771F4809192022091910290E0805CA0
:102660009F4F821B910960E470E00E941D25089530
:1026700080E090E008950E94A426FC01848DDF0193
:10268000A80FB11DA35ABF4F2C91848D90E00196E5
:102690008F739927848FA689B7892C93A089B189D4
:1026A0008C9180648C93938D848D981306C00288DE
:1026B000F389E02D80818F7D80830895EF92FF92D2
:1026C0000F931F93CF93DF93EC0181E0888F9B8D55
:1026D0008C8D981305C0E889F989808185FD24C017
:1026E000F62E0B8D10E00F5F1F4F0F731127E02E9A
:1026F0008C8DE8120CC00FB607FCFACFE889F98977
:10270000808185FFF5CFCE010E943D13F1CF8B8DE7
:10271000FE01E80FF11DE35AFF4FF0820B8FEA89AB
:10272000FB898081806207C0EE89FF896083E88928
:10273000F98980818064808381E090E0DF91CF918E
:102740001F910F91FF90EF900895CF93DF93EC01CD
:10275000888D8823C9F0EA89FB89808185FD05C0C1
:10276000A889B9898C9186FD0FC00FB607FCF5CFFB
:10277000808185FFF2CFA889B9898C9185FFEDCF43
:10278000CE010E943D13E7CFDF91CF9108958330B2
:1027900081F028F4813099F08230A1F008958730DB
:1027A000A9F08830B9F08430D1F4809180008F7D19
:1027B00003C0809180008F7780938000089584B556
:1027C0008F7702C084B58F7D84BD08958091B0005D
:1027D0008F7703C08091B0008F7D8093B000089503
:1027E0001F93CF93DF93282F30E0F901E651FA4F82
:1027F0008491F901EA5DF94FD491F901EE5EF94F48
:10280000C491CC23C9F0162F81110E94C713EC2F5D
:10281000F0E0EE0FFF1FE250FA4FA591B4918FB791
:10282000F894111105C09C91ED2FE095E92302C0A9
:10283000EC91ED2BEC938FBFDF91CF911F91089519
:10284000CF93DF9390E0FC01EA5DF94F2491FC0106
:10285000EE5EF94F8491882361F190E0880F991F13
:10286000FC01E65CF84FC591D491FC01E250FA4FAF
:10287000A591B491611109C09FB7F8948881209502
:1028800082238883EC912E230BC0623061F49FB7C2
:10289000F8943881822F809583238883EC912E2BA6
:1028A0002C939FBF06C08FB7F894E8812E2B288306
:1028B0008FBFDF91CF9108958F929F92AF92BF9279
:1028C000CF92DF92EF92FF926B017C010E943C124B
:1028D0004B015C01C114D104E104F104F1F00E9448
:1028E0003C12DC01CB0188199909AA09BB09883E71
:1028F0009340A105B10570F321E0C21AD108E108A7
:10290000F10888EE880E83E0981EA11CB11CC1144A
:10291000D104E104F10419F7DDCFFF90EF90DF90CF
:10292000CF90BF90AF909F908F9008952FB7F8945D
:1029300060912205709123058091240590912505D1
:102940002FBF08951F920F920FB60F9211242F934D
:102950003F938F939F93AF93BF9380912205909164
:102960002305A0912405B09125053091210523E090
:10297000230F2D3720F40196A11DB11D05C026E8B7
:10298000230F0296A11DB11D2093210580932205DE
:1029900090932305A0932405B093250580912605E7
:1029A00090912705A0912805B09129050196A11DB8
:1029B000B11D8093260590932705A0932805B09319
:1029C0002905BF91AF919F918F913F912F910F90CA
:1029D0000FBE0F901F9018951F920F920FB60F9277
:1029E00011242F933F934F935F936F937F938F9314
:1029F0009F93AF93BF93EF93FF93E0910301F09107
:102A000004010995FF91EF91BF91AF919F918F9133
:102A10007F916F915F914F913F912F910F900FBEDA
:102A20000F901F9018951F920F920FB60F921124BE
:102A30002F933F934F935F936F937F938F939F93C6
:102A4000AF93BF93EF93FF93E0910101F0910201E7
:102A50000995FF91EF91BF91AF919F918F917F91D8
:102A60006F915F914F913F912F910F900FBE0F90FB
:102A70001F901895DC01E0E0615038F08D91E82757
:102A8000F0E0E65CF94FE491F7CF8E2F0895CF92F6
:102A9000DF92EF92FF920F931F93CF93DF931F92DA
:102AA000CDB7DEB76C01E62E08E010E0FF24F3940A
:102AB00061E08F2D8E2109F460E0C60149830E94F8
:102AC0008612FF0C0150110949810115110581F78A
:102AD000411115C0F894D6011196ED91FC91129711
:102AE00091818C918095892381831196ED91FC9140
:102AF000129792818C9180958923828378940F908C
:102B0000DF91CF911F910F91FF90EF90DF90CF90C9
:102B10000895CF92DF92EF92FF920F931F93CF937E
:102B2000DF931F92CDB7DEB78C01F62E40E065E54E
:102B300079830E944715CF2C7981D72E760188E0C2
:102B4000E80EF11CF60161916F0140E0C8010E949E
:102B50004715CE14DF04B1F70F90DF91CF911F918D
:102B60000F91FF90EF90DF90CF900895FC0190813E
:102B70000180F281E02DF8948181292F2095822314
:102B8000818378948DE743E050E0815021F1DA01B0
:102B90001197F1F730813923C1F3F89482818223B0
:102BA00082838181892B81837894ABE7B7E0119789
:102BB000F1F7F894818128232183A3E1B1E01197F3
:102BC000F1F78081982381E009F080E07894E3E6D2
:102BD000F6E03197F1F70895AF92BF92CF92DF926E
:102BE000EF92FF920F931F93CF93DF931F92CDB776
:102BF000DEB75C01E62ED72EFC01858581115DC014
:102C0000C5010E94B615811105C0F5011386158610
:102C100014866BC040E060EFC5010E94471501E0DB
:102C2000F12CC12C11E0C5010E946212682FC50170
:102C300069830E9462126981613019F48130B9F4AC
:102C400033C04F2D50E068131BC0F5018385181762
:102C500030F4E40FF51F8381802349F402C0181774
:102C600031F060E0193058F4F501148708C0F5011F
:102C7000EF0DF11D8381802B838361E009C0C12E9C
:102C8000F501E40FF51F9381802F809589238383BD
:102C9000C5010E9486121F5F000F11F4F39401E03A
:102CA000F7E0FF1508F0BFCF113438F0F501C38607
:102CB000C11015C081E0858712C0F5011386158605
:102CC000148680E0D5011396EE2DFD2D9501255F2C
:102CD0003F4F9D919193A217B307D9F706C0F50115
:102CE0008381882351F381E0EDCF0F90DF91CF9165
:102CF0001F910F91FF90EF90DF90CF90BF90AF901A
:102D000008956F927F928F929F92AF92BF92CF92CF
:102D1000DF92EF92FF920F931F93CF93DF931F9257
:102D2000CDB7DEB78C01F42EFC01858196815983E5
:102D30000E94891540E06EEBF801858196810E9422
:102D400047156F2C5981752E5301F9E0AF0EB11C58
:102D5000F8018580968088E0C82ED12CEE24E3947B
:102D6000F12CC4010E9462128111FE28EE0CF1E0E8
:102D7000CF1AD108B1F7F301F1923F01EA15FB0533
:102D800039F7F801858196810E94B61591E081306E
:102D900009F090E0892F0F90DF91CF911F910F9153
:102DA000FF90EF90DF90CF90BF90AF909F908F906B
:102DB0007F906F9008950F931F93CF93DF93EC0153
:102DC000162F60E0812F0E942014612F70E0FB011C
:102DD000EA5DF94FE491E883FB01EE5EF94FE4917F
:102DE000F0E0EE0FFF1FE85FF94F859194919A8311
:102DF00089831B861D861C86FE013B968E010D5F16
:102E00001F4F1292E017F107E1F7DF91CF911F9169
:102E10000F9108951F920F920FB60F9211242F93C6
:102E20003F934F935F936F937F938F939F93AF9352
:102E3000BF93EF93FF9380919B0290919C028093AC
:102E4000B20080919E0290919F02A091A002B09149
:102E5000A1020196A11DB11D80939E0290939F0235
:102E6000A093A002B093A10240919E0250919F02B4
:102E70006091A0027091A1028091970290919802B6
:102E8000A0919902B0919A02481759076A077B07E7
:102E9000B0F080919D02811112C081E080939D026B
:102EA00010929E0210929F021092A0021092A10214
:102EB000E0919502F0919602099510929D02FF9182
:102EC000EF91BF91AF919F918F917F916F915F91A2
:102ED0004F913F912F910F900FBE0F901F9018951B
:102EE000CF93DF93EC018D819E810E94B61540E067
:102EF0006CEC8D819E810E944715488164E48D8130
:102F00009E810E9447158A818823B1F0E981E950AA
:102F1000E33040F4F0E0EE0FFF1FE35CFE4F608112
:102F2000718102C06EEE72E0072E000C880B990BC7
:102F3000DF91CF910C945C14DF91CF910895EF92C3
:102F4000FF920F931F93CF93DF9300D0CDB7DEB7DF
:102F50008C017A01FC018581968169837A830E94C4
:102F6000B61569817A81882371F0A701C8010E9492
:102F70008116882341F068E0C7010E943A1591E06C
:102F8000F7012085821390E0892F0F900F90DF9139
:102F9000CF911F910F91FF90EF900895CF93DF9302
:102FA000CDB7DEB729970FB6F894DEBF0FBECDBF01
:102FB000FB0120812031D1F0AE014F5F5F4F0E94B5
:102FC0009F17882389F08D818F3361F020F48F3132
:102FD00059F489E00CC08F3519F08F3739F004C0EF
:102FE0008BE005C08AE003C080E001C08CE0299638
:102FF0000FB6F894DEBF0FBECDBFDF91CF9108951D
:10300000EF92FF920F931F93CF93DF93CDB7DEB76D
:1030100061970FB6F894DEBF0FBECDBF8C01DC0107
:103020001596ED91FC911697138615861486DF018F
:103030001B9633961E92AE17BF07E1F7F801148274
:10304000FF24F394BE01665F7F4FF801858196816E
:103050000E94EC15882309F464C067E0CE010A964B
:103060000E943A1599898913EDCFD8018C9181116D
:1030700026C015968D919C9116970E94B615BE019B
:10308000665F7F4FF801858196810E94891540E037
:1030900064EBD80115968D919C9116970E94471567
:1030A000F801858196810E946212E82ED80115965A
:1030B0008D919C9116970E94B615EE2079F1F8013A
:1030C000858196810E94B615882349F0AE014F5F35
:1030D0005F4FBE01665F7F4FC8010E948116D80115
:1030E0001196EC90BE01665F7F4FC8010E94CE171B
:1030F0008E1518F4F801818106C0BE01665F7F4F0E
:10310000C8010E94CE17D80111968C93119714967E
:103110008C9114978F5F14968C9394CFD801FC9266
:10312000CECF61960FB6F894DEBF0FBECDBFDF9154
:10313000CF911F910F91FF90EF90089520919302EE
:103140003091940228173907B9F490919102809137
:103150009202981789F0E0919102F0E0EF51FB4F55
:1031600080812091910230E02F5F3F4F2F733327F2
:103170002093910290E008958FEF9FEF08950F93B1
:103180001F930E949614A895009131051091320565
:1031900020913305309134059B01201B310B309376
:1031A000300520932F05609331057093320580938D
:1031B00033059093340580912F0590913005803F21
:1031C0009B403CF080912F05909130058E3F9B40B5
:1031D0007CF080912F0590913005883593405CF10B
:1031E00080912F059091300586369340CCF123C015
:1031F00082E090E09093A3028093A20280912D053B
:1032000090912E05019690932E0580932D05809127
:103210002D0590912E05C397CCF11092A302109228
:10322000A202809170008E7F80937000E0E0F0E059
:103230001F910F91099480912F05909130058F3542
:10324000914024F180912F05909130058237914073
:10325000ECF483E090E09093A3028093A20216C066
:1032600081E090E09093A3028093A20280912B05CD
:1032700090912C05019690932C0580932B058091BD
:103280002B0590912C05893791053CF61F910F91E4
:1032900008951F920F920FB60F9211242F933F9310
:1032A0004F935F936F937F938F939F93AF93BF934E
:1032B000EF93FF93E0919302F0919402309709F419
:1032C00051C0968DA685B785858591FF04C09C91D8
:1032D000892329F447C09C91892309F043C0A3891D
:1032E000B4899C918589809589238C938689978957
:1032F0000197F1F7608D718DA685B785558538E00A
:1033000020E0CB010197F1F7822F90E0959587950A
:10331000282F4C91452309F02068315091F7868D74
:1033200081FD20958091920290E001968F739927FC
:1033300030919102381749F0A0919202B0E0AF515C
:10334000BB4F2C938093920203C0868D8160868F41
:10335000828D938D0197F1F7A389B4899C9185891A
:10336000892B8C93FF91EF91BF91AF919F918F919A
:103370007F916F915F914F913F912F910F900FBE71
:103380000F901F901895CF92DF92EF92FF920F93BC
:103390001F93CF93DF93EB017B0120E1E20EF11C41
:1033A0008B016C01C61AD70AC601800F911F0E94BB
:1033B0007C2CF80181938F01EE15FF05A9F7CE0152
:1033C000DF91CF911F910F91FF90EF90DF90CF9001
:1033D0000895AF92BF92CF92DF92EF92FF920F9338
:1033E0001F93CF93DF9300D0CDB7DEB78B016B0176
:1033F00024E0C20ED11C7B015C01A61AB70A95011C
:103400002E0D3F1DF70161917F013A832983CE0183
:1034100001960E94B60BEC14FD0489F7C8010F90C9
:103420000F90DF91CF911F910F91FF90EF90DF9060
:10343000CF90BF90AF9008950F931F93CF93DF93DA
:103440008C01EB010E947C2C8883C80101960E94AC
:103450007C2C8983CE01DF91CF911F910F9108952C
:103460000C94842C8F929F92AF92BF92CF92DF9256
:10347000EF92FF920F931F93CF93DF93CDB7DEB7F9
:103480002C970FB6F894DEBF0FBECDBF7C0162E172
:1034900072E0CE0107960E94971C6FE272E0CE01A7
:1034A00001960E94971CAE01495F5F4FBE016F5F9E
:1034B0007F4FC7010E947C0FCE0101960E94B5117B
:1034C000CE0107960E94B51162E172E0CE01079627
:1034D0000E94971C66E372E0CE0101960E94971C41
:1034E000AE01495F5F4FBE016F5F7F4FC7010E9412
:1034F0007C0FCE0101960E94B511CE0107960E9465
:10350000B51162E172E0CE0107960E94971C61E15D
:1035100072E0CE0101960E94971CAE01495F5F4F99
:10352000BE016F5F7F4FC7010E947C0FCE010196E5
:103530000E94B511CE0107960E94B51162E172E0BA
:10354000CE0107960E94971C69E672E0CE010196B3
:103550000E94971CAE01495F5F4FBE016F5F7F4FB6
:10356000C7010E947C0FCE0101960E94B511CE01C9
:1035700007960E94B511D701CD90DC901197C11428
:10358000D10409F443C014960D911C9115970115AF
:103590001105E1F146015401BFEF8B1A9B0AF501B9
:1035A0008081082E000C990B0E94652B892B99F7BE
:1035B000015011090C0D1D1DD8018C91082E000C15
:1035C000990B0E94652B892B81F4A8014F5F5F4FF7
:1035D0004A195B09F70155834483CA14DB0458F484
:1035E000B501C6010E94A92606C00A151B0568F38D
:1035F00001501109E1CFD701ED91FC91119714967B
:103600008D919C911597E80FF91F10822C960FB69B
:10361000F894DEBF0FBECDBFDF91CF911F910F9108
:10362000FF90EF90DF90CF90BF90AF909F908F90E2
:10363000089582EC94E00E942313892B29F082ECF8
:1036400094E00E949E18F5CF08957F928F929F92EA
:10365000AF92BF92CF92DF92EF92FF920F931F93A0
:10366000CF93DF93EC016B018A01892B89F00E94D3
:10367000191B6EE380E893E00E94AC1CBE0180E859
:1036800093E00E94FE1CBE0182EC94E00E94FE1CAE
:103690000E9496144B015C01712CD3E6E12CF12CB5
:1036A00082EC94E00E942313892BD1F182EC94E008
:1036B0000E949E1896EC971558F4EBE1F3E0A7EB07
:1036C000B2E09D2F01900D929A95E1F793E6792E45
:1036D000C1E0C70DE72DF0E0E954FD4F8083EC2FEA
:1036E000F0E0E954FD4F10820115110511F0B80109
:1036F00002C060E171E087EB92E00E94DF26892B37
:1037000071F061E672E080E893E00E94221D67EBB1
:1037100072E080E893E00E94FE1C8C2F1CC07C2E7F
:103720000E949614DC01CB0188199909AA09BB09EA
:103730008C159D05AE05BF0508F4B2CF6BE672E0AF
:1037400080E893E00E94221D67EB72E080E893E03E
:103750000E94FE1C80E0DF91CF911F910F91FF909E
:10376000EF90DF90CF90BF90AF909F908F907F9021
:1037700008950F931F93CF93DF938C01EB0164E5C2
:1037800077E082EC94E00E94C11CB80182EC94E0E6
:103790000E94221D88819981892B61F50E94EB0D81
:1037A00064EF71E080E090E00E945C1440E050E043
:1037B00060ED77E080E090E00E94251B8823B1F067
:1037C00064E477E082EC94E00E94101D82E0809334
:1037D0002A0510927F030E9496146093B30270939F
:1037E000B4028093B5029093B6020FC084E0809338
:1037F0002A050BC06FE382EC94E00E94AC1CBE0172
:1038000082EC94E00E94B31CC9CF80E0DF91CF919D
:103810001F910F910895E0E2F4E06591749187EBB8
:1038200092E00E948B2840E050E060ED77E087EB6B
:1038300092E00C94251BE4E0F4E06591749187EB31
:1038400092E00E948B2840E050E060ED77E087EB4B
:1038500092E00E94251B6FE672E087EB92E00E94E7
:10386000DF26009759F005960E9446288336910579
:1038700029F08F3F2FEF920709F0089580E090E044
:103880000895CF93DF9300D000D0CDB7DEB7BE014F
:103890006D5F7F4F80EA90E00E941C1A6B817C81F3
:1038A0006F5F7F4F7C836B8380EA90E09A8389838C
:1038B000CE0101960E94B60B6C8181EA90E09A835A
:1038C0008983CE0101960E94B60B0F900F900F9046
:1038D0000F90DF91CF910895CF92DF92EF92FF92F8
:1038E0000F931F93CF93DF936C017A018B01C0E09C
:1038F000D0E0CE15DF0589F0D8016D918D01D6019C
:10390000ED91FC910190F081E02DC6010995892B84
:1039100011F47E0102C02196ECCFC701DF91CF9157
:103920001F910F91FF90EF90DF90CF900895FC01D1
:103930001182108213821282158214826115710520
:1039400051F0FB0101900020E9F73197AF01461BD0
:10395000570B0C9437110895DC01ED91FC91019007
:10396000F081E02D0994DC01ED91FC91DB011496CE
:103970004D915C9115976D917C910280F381E02DC2
:103980000994EF92FF920F931F93CF93DF938C01D3
:103990007B01C0E0D0E0F701EC0FFD1F64916623CE
:1039A00061F0D801ED91FC910190F081E02DC8010A
:1039B0000995892B11F02196EECFCE01DF91CF91A1
:1039C0001F910F91FF90EF9008956115710579F0A7
:1039D000FB0101900020E9F73197AF01461B570B1F
:1039E000DC01ED91FC910280F381E02D099480E0EF
:1039F00090E0089560E172E00C94E51C0F931F9332
:103A0000CF93DF93EC010E94E51C8C01CE010E9454
:103A1000FA1C800F911FDF91CF911F910F91089594
:103A20000F931F93CF93DF93EC010E94C11C8C0175
:103A3000CE010E94FA1C800F911FDF91CF911F9140
:103A40000F9108950C94E51CCF93DF93CDB7DEB7AB
:103A500064970FB6F894DEBF0FBECDBF789484B5DF
:103A6000826084BD84B5816084BD85B5826085BD7A
:103A700085B5816085BD80916E00816080936E0008
:103A800010928100809181008260809381008091FA
:103A900081008160809381008091800081608093AB
:103AA00080008091B10084608093B1008091B0006B
:103AB00081608093B00080917A00846080937A0066
:103AC00080917A00826080937A0080917A00816090
:103AD00080937A0080917A00806880937A001092B7
:103AE000C1000FB6F894A89580916000886180931A
:103AF0006000109260000FBEE0919003F09191037E
:103B000082E08083E0918C03F0918D031082E0913C
:103B10008E03F0918F0380E1808310929803E091EF
:103B20009403F091950386E08083E0919203F091F5
:103B30009303808180618083E0919203F0919303ED
:103B4000808188608083E0919203F091930380816B
:103B500080688083E0919203F091930380818F7D50
:103B6000808366EA75E080E893E00E94101D109261
:103B7000DD041092DC041092DB041092DA0410923F
:103B8000D9041092D8048DEC90E09093DF048093D8
:103B9000DE049091CE04963108F057C025E530E060
:103BA0003093D9042093D8042BEC30E03093DB041D
:103BB0002093DA0420E930E03093DD042093DC0424
:103BC00020916800983050F031E09E3008F430E0E9
:103BD00081E001C0880F3A95EAF701C084E0822BAA
:103BE00080936800983038F09E3040F0963148F06D
:103BF00020E030E008C02DE630E005C02BE630E0E4
:103C000002C02CE630E03093D6042093D5049830DF
:103C100030F481E001C0880F9A95EAF70EC0292F91
:103C200030E09E3018F42850310902C02E5031097E
:103C300081E001C0880F2A95EAF78093D70480912C
:103C4000DE049091DF040197F1F78091DC049091FC
:103C5000DD04892B49F1E0919302F091940224E074
:103C6000E23CF20709F1309739F0A389B4899C91BD
:103C70008589809589238C938091E0048E7F809341
:103C8000E004109292021092910282EC94E09093E0
:103C9000940280939302E091D504F091D604908130
:103CA0008091D704892B808361E086E00E942014F4
:103CB00061E08DE00E94201461E085E00E94201404
:103CC00061E08AE00E94201461E08FE00E942014ED
:103CD00061E08EE00E94201460E083E00E942014E6
:103CE00060E089E00E94201440E060E081E00E94F2
:103CF0002E0B6CE271E080E090E00E945C1440E0EA
:103D000061E080E00E942E0B6CE271E080E090E0C8
:103D10000E945C1441E060E080E00E942E0B6CE2A7
:103D200071E080E090E00E945C1440E060E081E09F
:103D30000E942E0B82E794E09093490480934804FC
:103D4000109247041092430499E09093440481E058
:103D5000809345048093460424E634E0309336048F
:103D6000209335041092340410923004909331045F
:103D7000809332048093330426E534E030932304A7
:103D8000209322041092210410921D0490931E048B
:103D900080931F048093200483E494E00E94001821
:103DA00080E394E00E9400188DE194E00E940018E6
:103DB0008E010F5F1F4FB80183E494E00E94640EF0
:103DC000882329F0B80183E494E00E94FA0EB80138
:103DD00080E394E00E94640E882329F0B80180E318
:103DE00094E00E94FA0EB8018DE194E00E94640E06
:103DF000882329F0B80180E394E00E94FA0E8FEB4B
:103E000098E19093040180930301809169008C6094
:103E100080936900E99A68EE73E080E090E00E9488
:103E20005C1499E288E10FB6F894A895809360003D
:103E30000FBE90936000809170008E7F8093700021
:103E40008091B0008C7F8093B0008091B100877F1B
:103E50008093B1008091B6008F7D8093B6008091F1
:103E600070008D7F809370008091B100846080939A
:103E7000B1008091B1008C7F8093B10086E090E02A
:103E800090939C0280939B028CE291E0A0E0B0E0D2
:103E90008093970290939802A0939902B0939A020C
:103EA00087E49BE0909396028093950210929E0285
:103EB00010929F021092A0021092A10210929D02F5
:103EC00080919B0290919C028093B200809170003F
:103ED0008160809370005CE1A52E54E0B52E64E112
:103EE000862E64E0962E72E0672E74E0772E6AE1EB
:103EF00075E080E893E00E94101D60E086E00E947B
:103F0000F01360E08DE00E94F01361E085E00E9414
:103F1000F01360ED77E080E090E00E945C1461E0D7
:103F20008DE00E94F01360E085E00E94F0136CEDDC
:103F300075E080E090E00E945C1461E086E00E9401
:103F4000F01360EB74E080E090E00E945C1460E0AD
:103F500086E00E94F013C12CD12C0E94400E0097E5
:103F600081F43FEFC31AD30A47E9C416D10414F011
:103F7000FC01099564E670E080E090E00E945C142A
:103F8000ECCF60ED77E080E090E00E945C146AE0A6
:103F900075E080E893E00E94101DF5016591749131
:103FA00087EB92E00E948B2887EB92E00E94D30C73
:103FB000813009F0B3C36DE070E087EB92E00E94BE
:103FC000C426009709F4AAC36C01F2E0CF0ED11CFD
:103FD0006DE070E0C6010E94C426009711F0FC015C
:103FE0001082B60187EB92E00E94D82663E075E06C
:103FF00080E893E00E94C11C67EB72E08CEB94E0D8
:104000000E9458118CEB94E00E94321A8CEB94E0E1
:104010000E942F0EF4016591749187EB92E00E944B
:104020008B2887E292E00E94D30C813009F0C7C14F
:104030006DE070E087EB92E00E94C426009709F4DF
:10404000BEC16C01F2E0CF0ED11C6FE272E087EBD3
:1040500092E00E94DF26009711F0FC011082B60169
:1040600087EB92E00E94D8266EEE74E080E893E041
:104070000E94C11C67EB72E084EA94E00E94581130
:1040800084EA94E00E94321A84EA94E00E942F0E9F
:104090008091A2029091A302029739F068EE73E03A
:1040A00080E090E00E945C14F3CF68EE73E080E063
:1040B00090E00E945C1467ED74E080E893E00E9459
:1040C000C11CF3016591749187EB92E00E948B28EB
:1040D00040E050E060ED77E087EB92E00E94251B26
:1040E000882379F062E372E087EB92E00E94DF269A
:1040F000009739F0FC018281982F9B7F913309F45E
:10410000F82E66EC74E080E893E00E94C11C63EC3A
:1041100074E080E893E00E94C11CF1E3FF1203C049
:1041200060EB74E01BC022E3F21203C064E974E0A8
:1041300005C033E3F31207C06CE874E080E893E055
:104140000E94101DD4CE44E3F41203C063E874E06F
:10415000F5CF55E3F512E9C26FE674E080E893E02D
:104160000E94101D8091A2029091A302029709F073
:10417000BECE60ED77E080E090E00E945C140E948B
:104180001B1C7C0167E674E080E893E00E94C11C80
:10419000C7010E94FC0D6AE574E080E893E00E948C
:1041A000C11CEEE1F4E06591749187EB92E00E940E
:1041B0008B2887EB92E00E94D30C813009F0F3C08A
:1041C00065E372E087EB92E00E94DF26009709F436
:1041D000EAC07C01E2E0EE0EF11C62E270E0C70191
:1041E0000E94C426009711F0FC011082B70187EBF2
:1041F00092E00E94D82667EB72E0CE010F960E94F3
:10420000971C67EB72E080E893E00E94FE1C1A8620
:1042100019861C861B861E861D866EEF73E0CE01F6
:1042200009960E940F11BE01675F7F4FCE010F9666
:104230000E94C3107C01CE0109960E94B511F7FCC3
:1042400029C0EAE0F4E06591749187EB92E00E9466
:104250008B2867EB72E088E994E00E94581168E3CC
:1042600072E082E994E00E94581168E372E08CE801
:1042700094E00E94581167EB72E086E894E00E9497
:1042800058116AEF73E080E893E00E94101D1092CD
:10429000A60285C01A8619861C861B861E861D8668
:1042A00066EF73E0CE0109960E940F11BE01675FB1
:1042B0007F4FCE010F960E94C3107C01CE0109965C
:1042C0000E94B511F7FC28C0EEE0F4E0659174910E
:1042D00087EB92E00E948B2867EB72E088E994E01C
:1042E0000E9458116CE372E082E994E00E94581138
:1042F0006CE372E08CE894E00E94581167EB72E086
:1043000086E894E00E9458116EEE73E080E893E036
:104310000E94101D81E041C01A8619861C861B86EA
:104320001E861D8669EE73E0CE0109960E940F116C
:10433000BE01675F7F4FCE010F960E94C3107C01C4
:10434000CE0109960E94B511F7FC29C0E2E1F4E024
:104350006591749187EB92E00E948B2867EB72E085
:1043600088E994E00E94581162E172E082E994E0E9
:104370000E94581162E172E08CE894E00E945811AA
:1043800067EB72E086E894E00E94581161EE73E0FA
:1043900080E893E00E94101D82E08093A602CE0187
:1043A0000F960E94B51168EE73E080E090E00E94E5
:1043B0005C146AE474E080E893E00E94101D63EAF4
:1043C00075E080E893E00E94101D80E090E00E947C
:1043D0007C2C813209F441C060E975E080E893E00B
:1043E0000E94101DE12CF12C60E0C7010E94301AE0
:1043F000FFEFEF1AFF0A2FEFE21623E0F206A1F714
:1044000061E280E090E00E94301A65E071E088ECA3
:1044100090E00E94E91934E4C32E32E0D32E44E642
:10442000E42EF12CF60161916F01FA86E986CE0146
:1044300009960E94B60BFFEFEF1AFF0A21E7E2167A
:10444000F10481F760E088E790E00E94301A6FE79E
:1044500075E080E893E00E94101D90EBA92E94E097
:10446000B92E2CEDE22EF12C6E0139E0C30ED11CD9
:10447000F50161915F01FA86E986C6010E94B60BDB
:10448000FFEFEF1AFF0A22EEE216F10489F788EC3B
:1044900090E00E945B0D88E790E00E947C2C91E008
:1044A000811101C090E09093A40261E775E080E87B
:1044B00093E00E94C11C60910501709106018091FA
:1044C0000701909108010E94DC0D63E675E080E829
:1044D00093E00E94C11C80EB94E00E942F0E64E5E3
:1044E00075E080E893E00E94C11C20913505309171
:1044F00036052115310511F429E335E0C601821B8B
:10450000930B0E94FC0D62E475E080E893E00E944A
:10451000101D809170008E7F8093700040E061E0FC
:1045200080E00E942E0B60ED77E080E090E00E943A
:104530005C140E945E040E9496146093A70270931C
:10454000A8028093A9029093AA0288EE882E83E0A5
:10455000982EA12CB12C212C312C0E94400E0097BA
:1045600011F4FC0109950E9496142B013C018091E5
:10457000A502811104C088EC90E00E945B0D80913F
:10458000AF029091B002A091B102B091B20273015A
:104590006201C81AD90AEA0AFB0A20910501309182
:1045A00006014091070150910801A8EEB3E00E9476
:1045B000922CC616D706E806F90608F446C06CED3C
:1045C00075E080E893E00E94C11C8091AF02909159
:1045D000B002A091B102B091B202A3019201281BD6
:1045E000390B4A0B5B0BCA01B901A50194010E946A
:1045F0003125CA01B9010E94DC0D41E060E080E094
:104600000E942E0B4092AF025092B0026092B10213
:104610007092B2020E945E0440E061E080E00E947D
:104620002E0B6DEC75E080E893E00E94C11C809138
:10463000350590913605009711F489E395E0A801BE
:10464000481B590BCA010E94FC0D0E9496142B01B5
:104650003C018091AB029091AC02A091AD02B0916F
:10466000AE02A3019201281B390B4A0B5B0BDA0146
:10467000C90180369A4EA105B10580F16AEB75E05B
:1046800080E893E00E94C11C8091AB029091AC0243
:10469000A091AD02B091AE02A3019201281B390B8B
:1046A0004A0B5B0BCA01B901A50194010E94312597
:1046B000CA01B9010E94DC0D41E060E080E00E9487
:1046C0002E0B4092AB025092AC026092AD027092FF
:1046D000AE0240E061E080E00E942E0B0E94961442
:1046E0004090A7025090A8026090A9027090AA0280
:1046F000DC01CB0184199509A609B70981309C45D5
:10470000A642B54010F0F101099564EF71E080E038
:1047100090E00E945C140E9432121FCF69EF74E097
:1047200080E893E00E94C11C75CCF1E3FF12DFCB5F
:1047300019CD109283031092820388EE93E0A0E0DB
:10474000B0E08093840390938503A0938603B09395
:1047500087032EE131E0309381032093800325EC21
:1047600030E030938D0320938C0324EC30E03093C1
:104770008F0320938E0320EC30E03093910320933D
:10478000900321EC30E0309393032093920322ECCA
:1047900030E0309395032093940326EC30E030937F
:1047A0009703209396031092990310929A03109204
:1047B0009B0310929C031092C5041092C404809332
:1047C000C6049093C704A093C804B093C9048EE2B2
:1047D00091E09093C3048093C2041092D904109284
:1047E000D8041092DB041092DA041092DD041092C7
:1047F000DC041092DF041092DE046091E0046E7F0E
:104800006D7F6093E0046695617081E0682787E0C2
:104810000E94F01361E087E00E942014EDE2F6E0D0
:10482000E491E093D204E9E1F6E0E491F0E0EE0FE8
:10483000FF1FE250FA4F859194919093D404809396
:10484000D30460E088E00E9420148091E00481FDA0
:1048500004C061E088E00E94F01388E08093CE04F9
:10486000EEE2F6E0E491E093CF04EAE1F6E0E491D1
:10487000F0E0EE0FFF1FE85FF94F85919491909360
:10488000D1048093D00461E572E08CEB94E00E9447
:10489000971C62E172E086EB94E00E94971C62E153
:1048A00072E080EB94E00E94971C62E172E08AEA79
:1048B00094E00E94971C62E172E084EA94E00E9416
:1048C000971C62E172E08EE994E00E94971C62E11D
:1048D00072E088E994E00E94971C62E172E082E94C
:1048E00094E00E94971C62E172E08CE894E00E94E0
:1048F000971C62E172E086E894E00E94971C62E1F6
:1049000072E080E894E00E94971C60E182E794E006
:104910000E94DB1661E184E694E00E94DB1664E00D
:1049200086E594E00E94DB1625EB32E130935504D6
:104930002093540482E794E09093490480934804C0
:10494000109247041092430499E09093440481E04C
:10495000809345048093460430934204209341049D
:1049600044E654E0509336044093350410923404E6
:104970001092300490933104809332048093330476
:1049800030932F0420932E0426E534E03093230443
:10499000209322041092210410921D0490931E046F
:1049A00080931F0480932004089580E894E00E947F
:1049B000B51186E894E00E94B5118CE894E00E945D
:1049C000B51182E994E00E94B51188E994E00E9453
:1049D000B5118EE994E00E94B51184EA94E00E943A
:1049E000B5118AEA94E00E94B51180EB94E00E9430
:1049F000B51186EB94E00E94B5118CEB94E00E9417
:104A0000B5118EE291E09093C3048093C20480912B
:104A1000930290919402825C944071F4E091D504E9
:104A2000F091D60490818091D7048095892380836A
:104A30001092940210929302089597FB072E16F499
:104A4000009407D077FD09D00E94532507FC05D0BC
:104A50003EF4909581959F4F0895709561957F4F95
:104A60000895A1E21A2EAA1BBB1BFD010DC0AA1FAF
:104A7000BB1FEE1FFF1FA217B307E407F50720F0C7
:104A8000A21BB30BE40BF50B661F771F881F991F42
:104A90001A9469F760957095809590959B01AC018B
:104AA000BD01CF010895AA1BBB1B51E107C0AA1F7E
:104AB000BB1FA617B70710F0A61BB70B881F991FBF
:104AC0005A95A9F780959095BC01CD010895EE0FF8
:104AD000FF1F0590F491E02D09945058BB27AA2799
:104AE0000E9485250C94422C0E94342C38F00E94A0
:104AF0003B2C20F039F49F3F19F426F40C94312C10
:104B00000EF4E095E7FB0C942B2CE92F0E94532C1C
:104B100058F3BA17620773078407950720F079F4F2
:104B2000A6F50C94752C0EF4E0950B2EBA2FA02D43
:104B30000B01B90190010C01CA01A0011124FF274A
:104B4000591B99F0593F50F4503E68F11A16F04045
:104B5000A22F232F342F4427585FF3CF4695379544
:104B60002795A795F0405395C9F77EF41F16BA0B09
:104B7000620B730B840BBAF09150A1F0FF0FBB1FB7
:104B8000661F771F881FC2F70EC0BA0F621F731F00
:104B9000841F48F4879577956795B795F7959E3F5D
:104BA00008F0B0CF9395880F08F09927EE0F9795EE
:104BB00087950895A0E0B0E0E0EEF5E20C94A12C1A
:104BC000EC01009721F4CB010E941927B8C0FC0129
:104BD000E60FF71F9C0122503109E217F30708F492
:104BE000ACC0D9010D911C91119706171707B0F0B1
:104BF0000530110508F49FC0C80104978617970770
:104C000008F499C002501109061B170B0193119368
:104C10006D937C93CF010E94AE278DC05B01A01ADB
:104C2000B10A4C01800E911EA0913705B091380554
:104C300040E050E0E12CF12C109709F44AC0A8158F
:104C4000B905D1F56D907C901197630182E0C80E93
:104C5000D11CCA14DB0480F1A3014A195B096A0163
:104C600082E0C80ED11C1296BC9012971396AC919C
:104C7000B5E0CB16D10440F0B282A38351834083C8
:104C8000D9016D937C930AC00E5F1F4FC301800F43
:104C9000911FF90191838083EB2DFA2FE114F10428
:104CA00031F0D7011396FC93EE93129744C0F09322
:104CB0003805E09337053FC08D919C9111974817B7
:104CC000590708F4AC017D0112960D90BC91A02DFE
:104CD000B3CF809135059091360588159905E1F49B
:104CE00046175707C8F48091140190911501009759
:104CF00041F48DB79EB74091180150911901841B62
:104D0000950BE817F907C8F4F0933605E0933505DD
:104D1000F901718360830FC0CB010E9419277C01C8
:104D2000009759F0A801BE010E94A926CE010E9459
:104D3000AE27C70104C0CE0102C080E090E0CDB72D
:104D4000DEB7EEE00C94BD2C81E090E0F8940C947A
:104D5000E32CFB01DC0102C001900D924150504058
:104D6000D8F708956817790768F4FB01DC01E40FB0
:104D7000F51FA40FB51F02C002900E924150504083
:104D8000D8F708950C94A926FC018191861721F08B
:104D90008823D9F7992708953197CF010895FB010A
:104DA000DC018D91019080190110D9F3990B0895C0
:104DB000FB01DC0101900D920020E1F70895FB0159
:104DC00051915523A9F0BF01DC014D9145174111C7
:104DD000E1F759F4CD010190002049F04D914015C3
:104DE0004111C9F3FB014111EFCF81E090E0019740
:104DF0000895EF920F931F93CF93DF93E80147FD40
:104E000002C034E001C034E1E42F440FFF0BF7FF90
:104E100003C0F195E195F109E32E022F2E2FAE018B
:104E20000E94FF28CE01DF91CF911F910F91EF904B
:104E30000895CF93DF938230910510F482E090E0E3
:104E4000E0913705F091380520E030E0C0E0D0E097
:104E5000309711F14081518148175907C0F0481728
:104E6000590761F482819381209719F09B838A838B
:104E70002BC0909338058093370526C02115310546
:104E800019F04217530718F49A01BE01DF01EF0130
:104E90000280F381E02DDCCF2115310509F1281BBB
:104EA000390B2430310590F412968D919C91139713
:104EB0006115710521F0FB019383828304C09093F7
:104EC000380580933705FD01329644C0FD01E20F9D
:104ED000F31F81939193225031092D933C933AC053
:104EE0002091350530913605232B41F42091160190
:104EF0003091170130933605209335052091140128
:104F0000309115012115310541F42DB73EB740917F
:104F1000180150911901241B350BE0913505F091D2
:104F20003605E217F307A0F42E1B3F0B28173907AD
:104F300078F0AC014E5F5F4F2417350748F04E0FF5
:104F40005F1F50933605409335058193919302C0BE
:104F5000E0E0F0E0CF01DF91CF9108950F931F9330
:104F6000CF93DF93009709F48CC0FC013297138232
:104F7000128200913705109138050115110581F451
:104F800020813181820F931F2091350530913605A4
:104F90002817390779F5F0933605E093350571C088
:104FA000D80140E050E0AE17BF0750F412962D91A3
:104FB0003C911397AD012115310509F1D901F3CFCA
:104FC0009D01DA013383228360817181860F971FEF
:104FD0008217930769F4EC0128813981260F371F66
:104FE0002E5F3F4F318320838A819B81938382830D
:104FF000452B29F4F0933805E093370542C013960A
:10500000FC93EE931297ED01499159919E01240F63
:10501000351FE217F30771F480819181840F951F8A
:10502000029611969C938E938281938113969C9302
:105030008E931297E0E0F0E0D80112968D919C914A
:105040001397009719F0F8018C01F6CF8D919C9180
:1050500098012E5F3F4F820F931F209135053091AD
:1050600036052817390769F4309729F41092380566
:105070001092370502C013821282109336050093F6
:105080003505DF91CF911F910F910895FC0188277D
:105090009927E89421912032E9F3293010F02E303D
:1050A000C8F32B3241F02D3239F4689404C00E94C9
:1050B000BB28820F911D219120532A30C0F31EF48A
:1050C000909581959F4F08951F93FC0199278827FC
:1050D000BC01E89411911032E9F3193010F01E3040
:1050E000C8F31B3251F01D3249F4689406C00E9487
:1050F000A628610F711D811D911D119110531A3049
:10510000B0F33EF490958095709561957F4F8F4FE9
:105110009F4F1F910895FB01DC0105900D92002027
:10512000E1F70895FC0105900020E9F7809590953E
:105130008E0F9F1F0895BB274A3031F4992322F424
:10514000BDE2909581959F4F0C94E628592F482FEA
:10515000372F262F660F771F881F991F660F771F1F
:10516000881F991F620F731F841F951F660F771F7B
:10517000881F991F08957AE0979F902D879F802D13
:10518000910D11240895BB27FA01A62F621771050E
:1051900081059105330B30FB66F0AA27660F771F58
:1051A000881F991FAA1FA21710F0A21B63953850E1
:1051B000A9F7A05DAA3308F0A95DA19336F7B11154
:1051C000B1931082CA010C946E2BBB27FB015527AB
:1051D000AA27880F991FAA1FA41710F0A41B839554
:1051E0005051B9F7A05DAA3308F0A95DA1930097CB
:1051F00079F7B111B1931192CB010C946E2B4F92B0
:105200005F926F927F929F92AF92BF92CF92DF9206
:10521000EF92FF920F931F93CF93DF93CDB7DEB73B
:1052200029970FB6F894DEBF0FBECDBF6A01122FCB
:10523000B02E2BE3201720F0FF24F394F00E02C0D1
:10524000BCE3FB2E0F2D27E0AE014F5F5F4F0E94A6
:105250008D2AAC018981982F9970913031F0E1FC51
:1052600006C0E0FE06C090E205C09DE203C09BE2DE
:1052700001C090E0EE2DE07183FF3CC0911102C0AF
:1052800083E001C084E0811718F4212F281B01C09E
:1052900020E0E1110BC0F601822F30E2882319F0E3
:1052A00031938150FBCFC20ED11C20E0992329F00D
:1052B000D6019C93F60131966F01C6010396E2FE7A
:1052C0000AC03EE4D6013C9341E411964C931197F9
:1052D00012963C9306C03EE6F601308341E64183D8
:1052E0003283FC01322F40E2332309F442C0419360
:1052F0003150FACF82FF44C0911102C083E001C057
:1053000084E0811718F4212F281B01C020E0E1114F
:105310000BC0F601822F30E2882319F031938150BF
:10532000FBCFC20ED11C20E0992329F0D6019C931B
:10533000F60131966F01C6010396E2FE0BC039E417
:10534000D6013C933EE411963C93119736E41296B5
:105350003C9307C039E6F60130833EE6318336E6FA
:105360003283FC01322F40E2332319F04193315054
:10537000FBCFFC01E20FF11D10828EEF9FEFB7C053
:10538000F1E0911101C0F0E06F2F70E014161506E6
:1053900024F49A012F5F3F4F02C021E030E0260F36
:1053A000371FBB2029F06B2D70E06F5F7F4F02C06D
:1053B00060E070E0260F371F612F70E02617370777
:1053C0001CF4121B212F01C020E03E2D387159F42E
:1053D000D601322F60E2332319F06D933150FBCFA9
:1053E000C20ED11C20E0FF2331F0D6019C93B60100
:1053F0006F5F7F4F6B01E1110BC0F601922F30E31D
:10540000992319F031939150FBCFC20ED11C20E0AB
:105410009F2D940F3A81782F7071A72E84FF03C0BF
:10542000313309F49150191624F4993018F098E0AA
:1054300001C091E0E42F852F57FF02C0E0E080E03B
:105440006E2F782FE0E0F0E0AEE29A2E3A01691A72
:1054500071082A01461A570A0B2D10E01195019583
:1054600011096F3F8FEF780729F4D6019C92C6018E
:1054700001966C014617570784F0661677066CF4A0
:105480007F01E40CF51CA1E0B0E0AC0FBD1FEA0EFB
:10549000FB1ED7011196BC9002C090E3B92E61505B
:1054A00071093196C60101967C016017710724F0DD
:1054B000D601BC926C01D5CF6417750741F4363321
:1054C00020F4353321F4A11002C081E3B82EF60197
:1054D000B082F701822F90E2882319F091938150D6
:1054E000FBCFF701E20FF11D108280E090E02996DA
:1054F0000FB6F894DEBF0FBECDBFDF91CF911F91E5
:105500000F91FF90EF90DF90CF90BF90AF909F9062
:105510007F906F905F904F900895283008F027E0BB
:105520003327DA01990F311D87FD916000966105DF
:10553000710539F432602E5F3D9330E32A95E1F72F
:1055400008959F3F30F080387105610509F03C5F98
:105550003C5F3D93913008F08068911DDF93CF93BD
:105560001F930F93FF92EF92192F987F9695E92F33
:1055700096959695E90FFF27EE53F84F9927332715
:10558000EE24FF24A701E70105900894079428F46E
:10559000360FE71EF81E491F511D660F771F881F23
:1055A000991F0694A1F70590079428F4E70EF81EBA
:1055B000491F561FC11D770F881F991F661F06942C
:1055C000A1F70590079428F4F80E491F561FC71F2E
:1055D000D11D880F991F661F771F0694A1F70590AC
:1055E000079420F4490F561FC71FD81F990F661F35
:1055F000771F881F0694A9F784911095177041F0C2
:10560000D695C79557954795F794E7941A95C1F79E
:10561000E8E6F7E0689415901591359165919591BC
:1056200005907FE27395E118F10A430B560BC90B05
:10563000D009C0F7E10CF11E431F561FC91FD01D32
:105640007EF4703311F48A95E6CFE894015030F07F
:10565000080F0AF40027021708F4202F2395022FC1
:105660007A3328F079E37D932A95E9F710C07D938A
:105670002A9589F606949795679537951795179407
:10568000E118F10A430B560BC90BD00998F023958A
:105690007E9173957A3308F070E37C932013B8F70A
:1056A0007E9170617D9330F0839571E37D9370E31B
:1056B0002A95E1F71124EF90FF900F911F91CF9160
:1056C000DF91992787FD9095089591110C94282CCE
:1056D000803219F089508550C8F70895DC01FC012B
:1056E000672F71917723E1F7329704C07C916D9316
:1056F00070836291AE17BF07C8F30895E89409C09C
:1057000097FB3EF490958095709561957F4F8F4FF4
:105710009F4F9923A9F0F92F96E9BB279395F6950A
:10572000879577956795B795F111F8CFFAF4BB0F88
:1057300011F460FF1BC06F5F7F4F8F4F9F4F16C0EC
:10574000882311F096E911C0772321F09EE8872F76
:10575000762F05C0662371F096E8862F70E060E032
:105760002AF09A95660F771F881FDAF7880F9695AB
:10577000879597F908950E94CE2B0C94422C0E9495
:10578000342C38F00E943B2C20F0952311F00C941F
:105790002B2C0C94312C11240C94762C0E94532C1D
:1057A00070F3959FC1F3950F50E0551F629FF00174
:1057B000729FBB27F00DB11D639FAA27F00DB11D8D
:1057C000AA1F649F6627B00DA11D661F829F222716
:1057D000B00DA11D621F739FB00DA11D621F839F9D
:1057E000A00D611D221F749F3327A00D611D231F73
:1057F000849F600D211D822F762F6A2F11249F57C1
:1058000050409AF0F1F088234AF0EE0FFF1FBB1FC3
:10581000661F771F881F91505040A9F79E3F510582
:1058200080F00C942B2C0C94762C5F3FE4F3983E84
:10583000D4F3869577956795B795F795E7959F5F2C
:10584000C1F7FE2B880F911D9695879597F90895BE
:1058500099278827089597F99F6780E870E060E0AE
:1058600008959FEF80EC089500240A9416161706F9
:1058700018060906089500240A9412161306140641
:1058800005060895092E0394000C11F4882352F0A4
:10589000BB0F40F4BF2B11F460FF04C06F5F7F4F5C
:1058A0008F4F9F4F089557FD9058440F551F59F043
:1058B0005F3F71F04795880F97FB991F61F09F3FFD
:1058C00079F087950895121613061406551FF2CF26
:1058D0004695F1DF08C0161617061806991FF1CF76
:1058E00086957105610508940895E894BB2766279D
:1058F0007727CB0197F90895F999FECF92BD81BD25
:10590000F89A992780B50895262FF999FECF1FBAE6
:1059100092BD81BD20BD0FB6F894FA9AF99A0FBED8
:10592000019608950E94D42CA59F900DB49F900DD0
:10593000A49F800D911D112408952F923F924F92A4
:105940005F926F927F928F929F92AF92BF92CF920F
:10595000DF92EF92FF920F931F93CF93DF93CDB718
:10596000DEB7CA1BDB0B0FB6F894DEBF0FBECDBF90
:1059700009942A88398848885F846E847D848C8461
:105980009B84AA84B984C884DF80EE80FD800C816A
:105990001B81AA81B981CE0FD11D0FB6F894DEBF4D
:1059A0000FBECDBFED010895A29FB001B39FC0010E
:1059B000A39F700D811D1124911DB29F700D811D3B
:1059C0001124911D089514E0C2E3D4E004C0FE0147
:1059D0000E9467252196C333D107C9F7F894FFCFFA
:1059E00006611261123C0000004552524F520D00F8
:1059F0004F4B0D00000039058000000000005E13D1
:105A00006C1C261204121812A51300000000CF12FD
:105A10006C1C23139E18B612CE121011045E00BC2B
:105A2000007701400074313D0041542B48545450DC
:105A3000494E49540068747470733A2F2F74726D14
:105A4000372E78797A2F722E706870007431203D6D
:105A5000203836313434353033303336323236381C
:105A60004031372F32202F2031322C2031353A313E
:105A700035203A203237203030402D3132372E3029
:105A800030402D3132372E3030402D3132372E30EC
:105A90003040313340304030402B373931363236A8
:105AA00033323730314038393730313031303036B9
:105AB00033383138363138363038402D3239322E9D
:105AC000313200687474703A2F2F74726D372E78EB
:105AD000797A2F722E70687000302C363000457243
