:100000000C94EC040C94571E0C94301E0C94DE10CF
:100010000C94DE100C94DE100C9414050C94140552
:100020000C9414050C9418200C9414050C941405CD
:100030000C9414050C9414050C9414050C941405DC
:100040000C94E61D0C9414050C94D91C0C94B31C50
:100050000C9414050C9414050C9414050C941405BC
:100060000C9414050C94140500407A10F35A00A067
:10007000724E18090010A5D4E80000E87648170071
:1000800000E40B54020000CA9A3B000000E1F505B1
:10009000000080969800000040420F000000A086FB
:1000A00001000000102700000000E803000000002D
:1000B0006400000000000A000000000001000000D1
:1000C00000002C76D888DC674F0823DFC1DFAE59EB
:1000D000E1B1B796E5E3E453C63AE651997696E87E
:1000E000E6C28426EB898C9B62ED407C6FFCEFBC02
:1000F0009C9F40F2BAA56FA5F490055A2AF75C932D
:100100006B6CF9676DC11BFCE0E40D47FEF520E662
:10011000B500D0ED902E0300943577050080841E45
:10012000080000204E0A000000C80C333333330FA0
:10013000986E12831141EF8D2114893BE65516CF3D
:10014000FEE6DB18D1844B381BF77C1D901DA4BB49
:10015000E424203284725E228100C9F124ECA1E5FE
:100160003D2741542B53415042523D312C310043E5
:100170006F6E6E65637420475052532E2E004154AB
:100180002B434744434F4E543D312C224950222C9F
:10019000220041542B53415042523D332C312C22EA
:1001A000505744222C220041542B53415042523D7F
:1001B000332C312C2255534552222C220041542BF2
:1001C00053415042523D332C312C2241504E222C6F
:1001D000220041542B53415042523D332C312C22AA
:1001E000436F6E74797065222C224750525322005F
:1001F000496E7465726E657420636F6E6E656374AC
:10020000204F4B212D0057616974204950000A4648
:1002100061696C656420636F6E6E65637420696EDE
:100220007465726E657400496E7465726E657420D3
:10023000636F6E6E656374204F4B212D00576169AB
:1002400074204950000A496E7465726E65742048C6
:1002500054545020636F6E6E656374202E2E0041DF
:10026000542B48545450504152413D22434944225A
:100270002C310041542B48545450494E49540041AC
:10028000542B4854545053534C3D310041542B4847
:1002900054545053534C3D300041542B4854545007
:1002A00052454144004F4E004F4646004465766932
:1002B0006365202E2E006E6F20636F6D7061726516
:1002C0000054656C20636F6D70617265006E6F2005
:1002D000636F6D7061726500204572726F72733A60
:1002E0002000546F74616C3A20005B5061796C6F30
:1002F00061645D2000546865206E756D62657220D2
:100300006F6620736572766572206572726F7273A4
:1003100020657863656564656420313000457272DC
:100320006F727320657863656564656400436F6E02
:100330006E656374206572726F7220485454500069
:100340000A485454505F73736C3A20736574204F9D
:100350004646207375636365737366756C6C7921AB
:10036000000A485454505F73736C3A2073657420CC
:100370004F4E207375636365737366756C6C79217A
:10038000000A4E6F20696E7465726E657420636F2B
:100390006E6E656374696F6E004552524F52005223
:1003A000657175657374696E67202E2E20576169BB
:1003B0007400746F53656E642E6C656E6774683A72
:1003C00020004154202B20434D4746203D20310042
:1003D00041542B435343533D2247534D2200415434
:1003E0002B434C49503D310041542B434D47463D32
:1003F000310041542B4346554E3D31004154453068
:100400000041542B4950523D313932303000415473
:100410000041540041540041540041540041542BC8
:1004200047534E0041542B434349440041542B430E
:100430005245473F004D454741464F4E00696E7457
:1004400065726E657400696E7465726E6574004DD8
:10045000656761004265656C696E6500696E74650B
:10046000726E65742E6265656C696E652E727500BC
:100470006265656C696E65006265656C696E6500D4
:10048000696E7465726E65742E6265656C696E6501
:100490002E727500426565004D545300696E746597
:1004A000726E65742E6D74732E7275006D747300A8
:1004B0006D747300696E7465726E65742E6D7473FD
:1004C0002E7275004D54530041542B434F50533FEF
:1004D000004750525320636F6E6E656374202E2E5A
:1004E0000072737369202E2E000A52656769737457
:1004F0006572656420726F616D696E67000A556E82
:100500006B6E6F776E000A44656E696564000A4E13
:100510006F742072656769737465726564202873EF
:100520006561726368696E6729000A52656769735D
:1005300074657265642028686F6D6529000A4E6FC6
:10054000742072656769737465726564003A20008F
:100550000A4E6574776F726B2073746174757320C3
:10056000000A53494D20434349443A000A494D4546
:10057000493A002E000A53657474696E67207570DD
:10058000206D6F62696C65206E6574776F726B2E7B
:100590002E2E004F4B00436F756C646E27742066DF
:1005A000696E64206D6F64756C652047505253000E
:1005B000506F7765722053494D383030204F6E00B0
:1005C000496E697469616C697A696E672E2E2E2E88
:1005D000284D61792074616B6520352D3130207391
:1005E00065636F6E6473290041542B434D47443D4E
:1005F00031000A53494D38303020736574757020CE
:10060000656E6400416C6C20534D532064656C65CD
:100610007465004F4B000A66726565206D656D6FED
:1006200072793A2000496E74657276616C20736548
:10063000633A000A2A2A205761746368646F67204E
:100640006F6E202A2A005761746368646F67206F99
:10065000666600436C65617220454550524F4D20DF
:10066000456E640054657374205761746368646FE9
:100670006700537461727420636C65617220454534
:1006800050524F4D000A53494D3830302073657435
:1006900075702073746172740044657669636520B7
:1006A0004F4E00446576696365204F464600496EAB
:1006B00074657276616C2070696E67207365633A49
:1006C000000A66726565206D656D6F72793A20006B
:1006D000496E74657276616C207365633A00556E7D
:1006E0006B6E6F776E20636F6D6D616E6400446535
:1006F00076696365204F4646004465766F666600FE
:10070000446576696365204F4E004465766F6E00E0
:10071000454550524F4D204F464600456F66660096
:10072000454550524F4D204F4E00456F6E00485486
:1007300054502053534C204F46460053736C6F6601
:100740006600485454502053534C204F4E0053736E
:100750006C6F6E0054696D656F66660054696D65F7
:100760006F666600526573746172740052657374CB
:100770006172740054696D657365740041542B4354
:100780004D47523D3100534D532064656C6574658F
:100790000070686F6E652069676E6F7265640044F3
:1007A0006576696365204F4646004465766F6666E8
:1007B00000446576696365204F4E004465766F6E30
:1007C00000534D532063656E747200436F6D6D610D
:1007D0006E64612074656C3100534D532064656C08
:1007E00065746500534D533A0041542B43535100F7
:1007F00041542B434D4744413D2244454C20414CFC
:100800004C220041542B48545450414354494F4EBC
:100810003D300041542B48545450504152413D22E8
:1008200055524C222C220041542B485454505445CC
:10083000524D0041542B53415042523D322C310015
:10084000534D532073656E6420636F6D706C6574D7
:100850006500534D532073656E6420737461727428
:1008600065640041542B434950534855540041544A
:100870002B485454505445524D00000000002500B0
:1008800028002B000000000023002600290004049B
:100890000404040404040202020202020303030328
:1008A0000303010204081020408001020408102004
:1008B000010204081020005EBCE2613FDD83C29C9F
:1008C0007E20A3FD1F419DC3217FFCA2401E5F012E
:1008D000E3BD3E6082DC237D9FC1421CFEA0E1BFE0
:1008E0005D0380DE3C62BEE0025CDF81633D7C2212
:1008F000C09E1D43A1FF4618FAA427799BC584DA40
:100900003866E5BB5907DB856739BAE406581947ED
:10091000A5FB7826C49A653BD987045AB8E6A7F99F
:100920001B45C6987A24F8A6441A99C7257B3A64D1
:1009300086D85B05E7B98CD2306EEDB3510F4E10FF
:10094000F2AC2F7193CD114FADF3702ECC92D38DAD
:100950006F31B2EC0E50AFF1134DCE90722C6D335F
:10096000D18F0C52B0EE326C8ED0530DEFB1F0AE91
:100970004C1291CF2D73CA947628ABF517490856BF
:10098000B4EA6937D58B5709EBB536688AD495CB6D
:100990002977F4AA4816E9B7550B88D6346A2B751F
:1009A00097C94A14F6A8742AC896154BA9F7B6E851
:1009B0000A54D7896B3500000000240027002A0064
:1009C000000000080002010000030407000000000E
:1009D000000000004B2D0F2D11241FBECFEFD8E0DB
:1009E000DEBFCDBF12E0A0E0B1E0E6E0FDE602C070
:1009F00005900D92A43DB107D9F725E0A4EDB2E032
:100A000001C01D92AB36B207E1F714E0CBEED4E0A3
:100A100004C02197FE010E945135CA3ED107C9F793
:100A20000E9449250C9476360C9400001F93CF93B6
:100A3000DF931F92CDB7DEB7162F682F8AE0498368
:100A40000E94341D612F8EE00E94341D4981642F65
:100A50008FE00F90DF91CF911F910C94341D809106
:100A6000EC029091ED02892B29F440E060E081E0F6
:100A70000E9416058091EC029091ED020197D9F445
:100A80002091D4023091D50281E090E0232B11F027
:100A900080E090E09093D5028093D4028091D402BC
:100AA0009091D50240E060E0892B11F481E001C013
:100AB00080E00E9416058091EC029091ED02029771
:100AC000D9F42091D4023091D50281E090E0232B1B
:100AD00011F080E090E09093D5028093D402809151
:100AE000D4029091D502892B11F440E001C041E07D
:100AF00060E080E00E9416058091EC029091ED028A
:100B00000397D9F42091D4023091D50281E090E08E
:100B1000232B11F080E090E09093D5028093D402D3
:100B20008091D4029091D50240E0892B11F460E0CD
:100B300001C061E080E00C9416050895FC018081FD
:100B400091810C9433342F923F924F925F926F9227
:100B50007F928F929F92AF92BF92CF92DF92EF924D
:100B6000FF920F931F93CF93DF93CDB7DEB7CE5590
:100B7000D1090FB6F894DEBF0FBECDBF8AE094E076
:100B80000E94D82087EF93E00E94D82084EE93E063
:100B90000E94D8208AE094E00E9482192B013C0137
:100BA00087EF93E00E9482194B015C0184EE93E091
:100BB0000E9482196B017C01A5019401C301B2015D
:100BC0000E949B34A70196010E949B342FE832ECCF
:100BD00041EB52E40E949B346F966CAF7DAF8EAFB9
:100BE0009FAF6F976B961FAE1EAE6B9780EA90E03B
:100BF0009A838983CE0101960E949E056A968FAFE3
:100C00006A9781EA90E09A838983CE0101960E94D7
:100C10009E056B968FAF6B9785E480937C008091E7
:100C20007A00806480937A0080917A0086FDFCCF00
:100C3000009178008091790010E0182B8CE00E94E0
:100C40000B1D33243394892B09F4312C84E091E07B
:100C50009A838983CE0101960E949E058093EE02BD
:100C60006AEC72E0CE01CB960E94642420E030E072
:100C70004EEF52ECC301B2010E940C33882359F1AC
:100C8000CE01CB960E94551922E0B301A201CE01FC
:100C900043960E94222468E371E0CE0101960E94EF
:100CA0006424BE016D5E7F4FCE0101960E94B42385
:100CB000DC0114964D915C9115976D917C91CE015C
:100CC000CB960E946D23CE0101960E941D24CE0179
:100CD00043960E941D2420E030E04EEF52ECC50107
:100CE000B4010E940C33882349F1CE01CB960E94B7
:100CF000551922E0B501A401CE0143960E94222499
:100D00006CE371E0CE0101960E946424BE016D5E29
:100D10007F4FCE0101960E94B423FC01448155818E
:100D200060817181CE01CB960E946D23CE01019628
:100D30000E941D24CE0143960E941D2420E030E035
:100D40004EEF52ECC701B6010E940C33882359F1D3
:100D5000CE01CB960E94551922E0B701A601CE0123
:100D600043960E94222460E471E0CE0101960E9425
:100D70006424BE016D5E7F4FCE0101960E94B423B4
:100D8000DC0114964D915C9115976D917C91CE018B
:100D9000CB960E946D23CE0101960E941D24CE01A8
:100DA00043960E941D240E942419F82E8091EE0281
:100DB00065961FAE1EAE659767961FAE1EAE67970F
:100DC00069961FAE1EAE69974AE0BE016F5F7F4F06
:100DD00090E00E947330BE016F5F7F4FCE018D5A4D
:100DE0009F4F0E94EF232F961FAE1EAE2F97619646
:100DF0001FAE1EAE619763961FAE1EAE63974AE0AC
:100E0000BE016F5F7F4F832D90E00E944B30BE018B
:100E10006F5F7F4FCE01835B9F4F0E94EF23299628
:100E20001FAE1EAE29972B961FAE1EAE2B972D968A
:100E30001FAE1EAE2D974AE0BE016F5F7F4FC80107
:100E40000E944B30BE016F5F7F4FCE01895B9F4F89
:100E50000E94EF2322E06F964CAD5DAD6EAD7FAD8D
:100E60006F97CE018F5B9F4F0E942224BE016F5F60
:100E70007F4F84E690E00E94BE11BE016F5F7F4FFE
:100E8000CE0189960E94642464E471E0CE01439609
:100E90000E946424BE01675D7F4FCE0143960E948D
:100EA000B423BC01CE0189960E940624CE0143964C
:100EB0000E941D24BE016F5F7F4F8CED90E00E9469
:100EC000BE11BE016F5F7F4FCE0183960E946424E6
:100ED00069E471E0CE0143960E946424BE016D5D19
:100EE0007F4FCE0143960E94B423BC01CE0183966E
:100EF0000E940624CE0143960E941D246FE471E0F7
:100F0000CE0143960E946424BE01675D7F4FCE01EF
:100F100043960E94B4236FE471E00E949B23BE01BC
:100F20006D5D7F4F0E94B4236FE471E00E949B23AC
:100F300061E571E00E949B2363E375E00E94B423A6
:100F4000BC01CE018F960E945B24CE0143960E9485
:100F50001D24CE0183960E941D24CE0189960E94F5
:100F60001D242091FA043091FB046B968EAD9FAD49
:100F70006B971AA619A61CA61BA61EA61DA64AE0BC
:100F8000BE016F5F7F4F820F931F0E947330BE01BF
:100F90006F5F7F4FCE0189960E94EF238091FA0404
:100FA0009091FB041CA21BA21EA21DA218A61FA2A8
:100FB0004AE0BE016F5F7F4F0E947330BE016F5FDA
:100FC0007F4FCE0183960E94EF231C8A1B8A1E8AC4
:100FD0001D8A188E1F8A4AE0BE016F5F7F4F8F2DDA
:100FE00090E00E947330BE016F5F7F4FCE01439649
:100FF0000E94EF2362E571E0CE0101960E94642415
:1010000069E375E0CE0101960E94B423BE01655CE0
:101010007F4F0E94B4236FE471E00E949B2366E53A
:1010200071E00E949B23BE016D5E7F4F0E94B4233E
:101030006FE471E00E949B2369E571E00E949B23AD
:10104000BE016D5D7F4F0E94B4236FE471E00E948A
:101050009B236CE571E00E949B23BE01675D7F4F7F
:101060000E94B423BE01615D7F4F0E94B4236FE4F0
:1010700071E00E949B2360E671E00E949B23BE0109
:101080006F5B7F4F0E94B4236FE471E00E949B234B
:1010900064E671E00E949B23BE01695B7F4F0E9462
:1010A000B4236FE471E00E949B2369E671E00E9423
:1010B0009B23BE01635B7F4F0E94B4236FE471E00A
:1010C0000E949B236EE671E00E949B23BE016D5A35
:1010D0007F4F0E94B423BC01CE01C5960E945B24C1
:1010E000CE0101960E941D24CE0143960E941D242C
:1010F000CE0183960E941D24CE0189960E941D2454
:10110000CE018F960E941D24CE018F5B9F4F0E94BF
:101110001D24CE01895B9F4F0E941D24CE01835B5D
:101120009F4F0E941D24CE018D5A9F4F0E941D2467
:1011300062EB73E087E493E00E94D42469AD7AAD5A
:1011400080E090E04AE00E943A1787E493E00E9432
:101150000D25C12CD12C58E0652E7724739464E0C2
:10116000862E99249394BE016B5C7F4FCE018F5BDA
:101170009F4F0E945B246FE973E087E493E00E9435
:10118000D42441E060E080E00E9416050BE010E00E
:1011900065E472E087E493E00E94352562ED71E03A
:1011A000CE0101960E945224CE0101960E9498150C
:1011B000F82ECE0101960E941D24FF2009F4DFC005
:1011C0006DEB71E080913105909132050E94D4243D
:1011D00064E075E080913105909132050E94C6244B
:1011E00062E280913105909132050E9411256CE1F7
:1011F00075E0CE0101960E945B24CE0101960E940B
:101200009815F82ECE0101960E941D24FF2009F4A6
:10121000B6C067EA71E080913105909132050E9475
:10122000D4246AE075E080913105909132050E94E6
:10123000C62462E280913105909132050E94112509
:101240006CE175E0CE0101960E945B24CE0101960F
:101250000E949815F82ECE0101960E941D24FF20B1
:1012600009F48DC062E971E08091310590913205F9
:101270000E94D42460E175E080913105909132059F
:101280000E94C62462E280913105909132050E944D
:1012900011256CE175E0CE0101960E945B24CE0120
:1012A00001960E949815F82ECE0101960E941D24E9
:1012B000FF2009F464C06EE771E0809131059091E0
:1012C00032050E94D42466E175E080913105909149
:1012D00032050E94C62462E2809131059091320568
:1012E0000E9411256CE175E0CE0101960E945B24FD
:1012F000CE0101960E949815F82ECE0101960E940B
:101300001D24FF20E1F188E99AE390932B05809357
:101310002A056FE671E087E493E00E94D42481E01F
:1013200090E00E94BC1762E671E0CE0101960E9437
:101330005224CE0101960E949815CE0101960E947A
:101340001D2480ED97E090932B0580932A058091D2
:10135000EC029091ED02039739F062E370E080E0D7
:1013600090E00E94A01DF3CF6DE372E087E493E06C
:101370000E9435250E948C1767E272E021C001505F
:10138000110909F459C26EE072E087E493E00E940B
:10139000352568EE73E080E090E00E94A01D80910A
:1013A000EC029091ED02039709F0F2CE66E072E054
:1013B00087E493E00E9435250E948C1760EF71E06E
:1013C00087E493E00E94352586E0E82EF12C90ED2D
:1013D000A92E97E0B92EE0E1F7E2F0932B05E09318
:1013E0002A0563E772E0CE0143960E945224CE01A3
:1013F00043960E949815882391F06FE572E0CE0124
:1014000001960E945224CE0101960E94981501E097
:10141000811100E0CE0101960E941D2401C001E06F
:10142000CE0143960E941D240023B9F11092F304CB
:10143000B0922B05A0922A0563E771E087E493E060
:101440000E94472587E494E00E946D1567E474E0EC
:10145000CE0143960E94642469E973E0CE010196AF
:101460000E945224BE016F5F7F4FCE0143960E94BF
:1014700034238C01CE0101960E941D2417FD19C052
:1014800061E873E087E493E00E94352568EE73E03D
:1014900080E090E00E94A01D0CC081E08093F304E6
:1014A00040EDE42E47E0F42E80910401811113C039
:1014B00030C00E94EF1768EE73E080E090E00E9479
:1014C000A01DF1E0EF1AF10809F4B6C1CE01439670
:1014D0000E941D2480CF80EA9FE090932B0580938B
:1014E0002A056FE772E0CE0101960E945224CE01D8
:1014F00001960E949815182FCE0101960E941D2476
:10150000113021F4F0922B05E0922A0561E673E098
:101510001DC080EA9FE090932B0580932A056CE81C
:1015200072E0CE0101960E945224CE0101960E94E3
:101530009815182FCE0101960E941D24113021F418
:10154000F0922B05E0922A0560E473E087E493E0D3
:101550000E943525809104018823F9F065E771E048
:1015600087E493E00E9447256FE387E493E00E94BD
:10157000BF24BE016F5B7F4F87E493E00E94232569
:10158000BE016F5B7F4FCE0101960E945B24BE01BE
:101590006F5F7F4F85E791E01EC06CE871E087E4E4
:1015A00093E00E9447256FE387E493E00E94BF2405
:1015B000BE016F5B7F4F87E493E00E942325BE014D
:1015C0006F5B7F4FCE0101960E945B24BE016F5F6F
:1015D0007F4F8CE891E00E948718CE0101960E940F
:1015E0001D248091D9029091DA0201969093DA023B
:1015F0008093D9021092D80248E95AE362EA71E076
:1016000087EA91E00E940D18823020F084E08093F8
:10161000F3041EC081111CC06EE287E493E00E94B7
:10162000BE1B13E3115041F38091310590913205B7
:10163000DC01ED91FC910480F581E02D0995892B69
:10164000D9F66FE070E080E090E00E94A01DEACF44
:101650008091F3048430D9F46DE273E087E493E081
:101660000E9435258091FA049091FB040196909395
:10167000FB048093FA04069718F06DE173E0D2C082
:1016800068EB7BE080E090E00E94A01D71C387E4DE
:1016900093E00E940D2569E972E0809131059091F7
:1016A00032050E94352583E08093F3041092FF04F5
:1016B0000E94DA1D60930005709301058093020576
:1016C000909303053AE4F32E609128057091290563
:1016D00040E157E28DEA91E00E940D188130A1F7B8
:1016E0001092FF046CE175E0CE0101960E945B242C
:1016F00069EB71E0CE0101960E944E2381110BC06F
:101700000E947E15BE016F5F7F4F809131059091E1
:1017100032050E9423250E94DA1D1B012C0110E0D6
:101720008091310590913205DC01ED91FC910480AE
:10173000F581E02D0995892B09F44CC08091310584
:1017400090913205DC01ED91FC910680F781E02D4E
:101750000995153950F0E2E9F4E0A7E4B4E09F2DD3
:1017600001900D929A95E1F71AE4EE24E394E10ECC
:10177000E12FF0E0E95BFB4F8083EE2DF0E0E95BC9
:10178000FB4F108268EC72E087E494E00E945C36C4
:10179000892BF9F0CE0101960E941D2487E494E084
:1017A0000E94F62F5C016CE175E0CE0101960E946B
:1017B0005B24CE0101960E949815CE0101960E94ED
:1017C0001D24B5E9AB16B104A0F025E9A22EB12C79
:1017D00010C01E2D0E94DA1DDC01CB018219930975
:1017E000A409B50984369105A105B10508F498CF7F
:1017F000D1CFF501E95BFB4F1082AB2809F464CF30
:101800008091F3048430F1F48091FA049091FB0408
:1018100001969093FB048093FA04069708F430CF66
:1018200065EF72E087E493E00E94352568EB7BE08A
:1018300080E090E00E94A01D8091FA049091FB044A
:101840000E941B166AEE72E087E493E00E94D424A3
:1018500087E494E00E946D1567E474E0CE018F96F2
:101860000E94642481E08093D8026FE471E0CE018D
:1018700001960E946424BE016F5F7F4FCE018F9658
:101880000E9434238C01CE0101960E941D2417FD75
:1018900099C06CEB71E0CE0101960E946424BE01F8
:1018A0006F5F7F4FCE018F960E9434239C8B8B8B72
:1018B000CE0101960E941D2460EC71E0CE010196DC
:1018C0000E946424BE016F5F7F4FCE018F960E94FD
:1018D00034239E8B8D8BCE0101960E941D2464ECD7
:1018E00071E0CE0101960E946424BE016F5F7F4FBC
:1018F000CE018F960E943423988F8F8BCE01019654
:101900000E941D2468EC71E0CE0101960E946424BF
:10191000BE016F5F7F4FCE018F960E9434239A8F56
:10192000898FCE0101960E941D246CEC71E0CE01DE
:1019300001960E946424BE016F5F7F4FCE018F9697
:101940000E9434239C8F8B8FCE0101960E941D2410
:1019500060ED71E0CE0101960E946424BE016F5FCC
:101960007F4FCE018F960E9434239E8F8D8FCE01A4
:1019700001960E941D2464ED71E0CE0101960E9443
:101980006424BE016F5F7F4FCE018F960E94342387
:1019900098A38F8FCE0101960E941D248BA99CA92C
:1019A000892B61F00FA518A963E270E0C8010E94BD
:1019B0004136009719F0801B910B02C08FEF9FEF0B
:1019C0009AA389A3FE0173967F012E01F1E24F0EC7
:1019D000511CD7014D915D917D015A01B5E0AB0ECF
:1019E000B11C4D5F5F4F9501BE01615D7F4FCE0120
:1019F00089960E947924CE0189960E945A1B8B01F8
:101A0000CB010E94BC17F70120813181A501BE01E5
:101A1000615D7F4FCE0101960E94792489A59AA528
:101A20000097A9F069817A816115710571F04BA564
:101A30005CA52D813E814217530738F00E94553630
:101A40008D819E819EA78DA712C00E945E2F8981E5
:101A50009A819AA789A78B819C819CA78BA78D814E
:101A60009E819EA78DA71A8219821C821B821E82CC
:101A70001D82CE0101960E941D241092D602BE0145
:101A8000675D7F4F87E493E00E942325BE01675D79
:101A90007F4FCE0183960E945B242B961CAE1DAE19
:101AA0001EAE1FAE2B970330110509F485C044F418
:101AB0000130110581F00230110509F454C0F3C062
:101AC0000530110509F4B8C00CF4AAC006301105A0
:101AD00009F4BEC0E8C0CE0183960E945A1B2B9623
:101AE0006CAF7DAF8EAF9FAF2B970E947D172B966B
:101AF0008CAD9DADAEADBFAD2B97AC01BD014E51D0
:101B0000510961097109433651456140710500F57C
:101B10004091050150910601609107017091080103
:101B200084179507A607B70799F02091EF022111B6
:101B30000FC08093050190930601A0930701B09315
:101B40000801BE01695B7F4F88EC90E00E948B1119
:101B50006091050170910601809107019091080143
:101B60000E947D17A0C0BE016F5F7F4F84E690E0AA
:101B70000E945811CE0101960E946D15BE016F5F43
:101B80007F4FCE0183960E944E23811112C06DECCF
:101B900072E087E493E00E943525BE016F5F7F4FBE
:101BA00084E690E00E945811CE0101960E946D15C6
:101BB0007AC061EC72E073C0BE016F5F7F4F8CED45
:101BC00090E00E945811BE016F5F7F4FCE01839657
:101BD0000E944E23811167C066EB72E087E493E0B8
:101BE0000E94352500E010E08FA198A5081719077D
:101BF00020F4EBA1FCA1309729F41092D602E6ED77
:101C0000F2E002C0E00FF11F6081C80184529F4FD3
:101C10000E94F1110F5F1F4F0D30110529F743C0CE
:101C2000CE0183960E945A1B613071058105910592
:101C3000D1F51092D70237C0CE0183960E945A1B6D
:101C4000613071058105910571F51092EF022BC08D
:101C50007A826982CE0101960E949E05811123C07D
:101C6000CE0183960E945A1B162F9A828982CE013A
:101C700001960E949E051817B1F0612F84E091E053
:101C80000E94F1116CEA72E087E493E00E9435252E
:101C9000111103C068EA72E002C065EA72E087E4ED
:101CA00093E00E943525CE0183960E941D24CE012B
:101CB00089960E941D24E414F50409F08ACE62EE90
:101CC00072E087E493E00E94D4242090D9023090FF
:101CD000DA02032C000C4408550857FE0EC06DE2D2
:101CE00087E493E00E94BF2466277727CB0162191F
:101CF0007309840995094AE003C04AE0C201B101B1
:101D00000E943A178091FA049091FB04892B79F094
:101D100068ED72E087E493E00E94D4246091FA04B5
:101D20007091FB0480E090E04AE00E943A1787E45B
:101D300093E00E940D2568ED71E087E493E00E9436
:101D400047256091050170910601809107019091EE
:101D500008010E947D170E94EF1740E061E080E0DB
:101D60000E9416050091D802CE018F960E941D2474
:101D7000CE018F5B9F4F0E941D24011115C02FEFD4
:101D8000C21AD20A0E94DD1362EE71E087E493E08A
:101D90000E944725C6010E94BC1760ED77E080E0F5
:101DA00090E00E94A01DDFC9CE01C5960E941D24AF
:101DB000CE01CB960E941D24C25ADF4F0FB6F89475
:101DC000DEBF0FBECDBFDF91CF911F910F91FF906E
:101DD000EF90DF90CF90BF90AF909F908F907F90CB
:101DE0006F905F904F903F902F9008950F931F93A7
:101DF000CF93DF931F92CDB7DEB78C0169830E942A
:101E00009E056981681729F0F801808191810E94FF
:101E10003B34C8010F90DF91CF911F910F9108952E
:101E20002091EA023091EB022817390771F4909162
:101E3000E8028091E902981741F0E091E802F0E0B1
:101E4000E95FFC4F808190E008958FEF9FEF089548
:101E500008951F93CF93DF93DC015C962D913C9105
:101E60005D972115310539F481E090E013969C933C
:101E70008E9312973DC05196ED91FC9152975096DA
:101E80009C915097892F80951FB75E964C915E97D5
:101E900041FB772770F941FD6095F89440817723E5
:101EA00011F0492B01C048234083E9012197F1F744
:101EB00048E0508160FF02C0592B01C05823508375
:101EC000E9012197F1F76695415099F7772321F0C1
:101ED00090818923808303C08081982B90831FBFCA
:101EE0005C968D919C915D970197F1F721E030E030
:101EF000C901DF91CF911F9108952091EA0230919D
:101F0000EB022817390771F48091E9022091E80269
:101F100090E0805C9F4F821B910960E470E00E941A
:101F20000735089580E090E008952091EA0230910D
:101F3000EB0228173907B9F49091E8028091E90281
:101F4000981789F0E091E802F0E0E95FFC4F8081AA
:101F50002091E80230E02F5F3F4F2F73332720930B
:101F6000E80290E008958FEF9FEF08950F931F937D
:101F70000E94DA1DA895009103031091040320919B
:101F80000503309106039B01201B310B30930203A4
:101F9000209301036093030370930403809305036C
:101FA000909306038091010390910203803F9B4030
:101FB0003CF080910103909102038E3F9B407CF0A6
:101FC000809101039091020388359340E4F0809161
:101FD0000103909102038636934054F114C082E0CD
:101FE00090E09093ED028093EC028091FF0290913B
:101FF00000030196909300038093FF028091FF02FB
:102000009091000328C080910103909102038F35C5
:1020100091409CF18091010390910203823791409D
:1020200064F583E090E09093ED028093EC0225C08C
:1020300081E090E09093ED028093EC028091FD02AC
:102040009091FE0201969093FE028093FD02809192
:10205000FD029091FE028B3F91057CF01092ED0203
:102060001092EC02809170008E7F809370008091BE
:10207000FA049091FB040E941B161F910F91089582
:10208000EF92FF920F931F93CF93DF93CDB7DEB7FD
:1020900061970FB6F894DEBF0FBECDBF8C01DC0197
:1020A0001596ED91FC911697138615861486DF011F
:1020B0001B9633961E92AE17BF07E1F7F801148204
:1020C000FF24F394BE01665F7F4FF80185819681FE
:1020D0000E94541F882309F464C067E0CE010A9669
:1020E0000E947E1E99898913EDCFD8018C918111B0
:1020F00026C015968D919C9116970E941E1FBE01B9
:10210000665F7F4FF801858196810E94CD1E40E079
:1021100064EBD80115968D919C9116970E948B1EA9
:10212000F801858196810E94FA1EE82ED801159645
:102130008D919C9116970E941E1FEE2079F1F80157
:10214000858196810E941E1F882349F0AE014F5F52
:102150005F4FBE01665F7F4FC8010E947E20D8019D
:102160001196EC90BE01665F7F4FC8010E94362138
:102170008E1518F4F801818106C0BE01665F7F4F9D
:10218000C8010E943621D80111968C93119714969C
:102190008C9114978F5F14968C9394CFD801FC92F6
:1021A000CECF61960FB6F894DEBF0FBECDBFDF91E4
:1021B000CF911F910F91FF90EF9008951F920F9272
:1021C0000FB60F9211242F933F934F935F936F930A
:1021D0007F938F939F93AF93BF93EF93FF93E09180
:1021E000EA02F091EB02309709F451C0968DA68572
:1021F000B785858591FF04C09C91892329F447C048
:102200009C91892309F043C0A389B4899C91858955
:10221000809589238C93868997890197F1F7608D42
:10222000718DA685B785558538E020E0CB010197F3
:10223000F1F7822F90E095958795282F4C914523B3
:1022400009F02068315091F7868D81FD20958091AD
:10225000E90290E001968F7399273091E8023817D0
:1022600049F0A091E902B0E0A95FBC4F2C938093A4
:10227000E90203C0868D8160868F828D938D0197E0
:10228000F1F7A389B4899C918589892B8C93FF915F
:10229000EF91BF91AF919F918F917F916F915F91DE
:1022A0004F913F912F910F900FBE0F901F90189557
:1022B000AF92BF92CF92DF92EF92FF920F931F9354
:1022C000CF93DF9300D0CDB7DEB78B016B0120E158
:1022D000C20ED11C7B015C01A61AB70A95012E0D16
:1022E0003F1D3A832983CE0101960E949E05F70186
:1022F00081937F01EC15FD0589F7C8010F900F90C0
:10230000DF91CF911F910F91FF90EF90DF90CF90D1
:10231000BF90AF900895AF92BF92CF92DF92EF92AD
:10232000FF920F931F93CF93DF9300D0CDB7DEB70B
:102330008B016B0124E0C20ED11C7B015C01A61A4B
:10234000B70A95012E0D3F1DF70161917F013A8378
:102350002983CE0101960E94F60EEC14FD0489F744
:10236000C8010F900F90DF91CF911F910F91FF90B7
:10237000EF90DF90CF90BF90AF900895AF92BF9253
:10238000CF92DF92EF92FF920F931F93CF93DF9341
:1023900000D0CDB7DEB78B016B012FE0C20ED11C90
:1023A0007B015C01A61AB70A95012E0D3F1D3A83E9
:1023B0002983CE0101960E949E05F70181937F013A
:1023C000EC15FD0589F7C8010F900F90DF91CF91B3
:1023D0001F910F91FF90EF90DF90CF90BF90AF9043
:1023E00008950C943B34CF92DF92EF92FF920F93BB
:1023F0001F93CF93DF93CDB7DEB762970FB6F894F4
:10240000DEBF0FBECDBF8C017B0164E777E0CE015C
:1024100001960E945224BE016F5F7F4FC8010E9447
:1024200034236C01CE0101960E941D24D7FC16C0F6
:1024300088E290E0A0E0B0E080930501909306016F
:10244000A0930701B093080181E08093EF0268E256
:1024500070E080E090E00E947D174AC06CE677E073
:10246000CE0101960E945224BE016F5F7F4FC801CA
:102470000E9434236C01CE0101960E941D24D7FCDA
:102480001CC0B70187E493E00E94C6246BEF71E0A3
:1024900087E493E00E94472564E677E087E493E0D1
:1024A0000E943525B701CE0107960E945B24B80132
:1024B000CE0101960E945B244FC06CE577E0CE010F
:1024C00001960E945224BE016F5F7F4FC8010E9497
:1024D00034236C01CE0101960E941D24D7FC13C049
:1024E0001092EF0264E577E087E493E00E943525DF
:1024F000B701CE0107960E945B24B801CE01019678
:102500000E945B240FC16EE477E0CE0101960E9429
:102510005224BE016F5F7F4FC8010E9434236C01BB
:10252000CE0101960E941D24D7FC31C061E088E7EE
:1025300090E00E94F11162E477E087E493E00E946A
:102540003525B701CE0107960E945B2460E272E058
:10255000CE0101960E946424BE01695F7F4FCE01C7
:1025600001960E94DA16CE0101960E941D24CE012A
:1025700007960E941D2460ED77E080E090E00E94C5
:10258000A01D8091FA049091FB040E941B166BE33E
:1025900077E0CE0101960E945224BE016F5F7F4F0B
:1025A000C8010E9434236C01CE0101960E941D24B3
:1025B000D7FC13C060E088E790E00E94F1116EE262
:1025C00077E087E493E00E943525B701CE010796B6
:1025D0000E945B246CE272E0BBCF6AE277E0CE013E
:1025E00001960E945224BE016F5F7F4FC8010E9476
:1025F00034236C01CE0101960E941D24D7FC13C028
:1026000061E088E191E00E94F11160E277E087E407
:1026100093E00E943525B701CE0107960E945B2406
:1026200069E372E07BC06BE177E0CE0101960E9426
:102630005224BE016F5F7F4FC8010E9434236C019A
:10264000CE0101960E941D24D7FC13C060E088E1F2
:1026500091E00E94F11160E177E087E493E00E944D
:102660003525B701CE0107960E945B2463E472E032
:1026700055C06AE077E0CE0101960E945224BE0167
:102680006F5F7F4FC8010E9434236C01CE01019619
:102690000E941D24D7FC18C061E084E091E00E94F4
:1026A000F11161E088E091E00E94F11160E077E0D3
:1026B00087E493E00E943525B701CE0107960E947A
:1026C0005B246EE472E02AC069EF76E0CE010196E9
:1026D0000E945224BE016F5F7F4FC8010E943423C5
:1026E0006C01CE0101960E941D24D7FC29C060E038
:1026F00084E091E00E94F11160E088E091E00E94A6
:10270000F1116EEE76E087E493E00E943525B70183
:10271000CE0107960E945B2468E572E0CE01019627
:102720000E946424BE01695F7F4FCE0101960E9422
:10273000DA16CE0101960E941D24CE0107962CC008
:102740006EED76E087E493E00E943525B701CE0177
:102750000D960E945B2463E672E0CE0101960E9412
:102760006424B801CE0101960E94B423BC01CE01BD
:1027700007960E945B24BE01635F7F4FCE010796E0
:102780000E94DA16CE0107960E941D24CE01019602
:102790000E941D24CE010D960E941D2462960FB644
:1027A000F894DEBF0FBECDBFDF91CF911F910F9187
:1027B000FF90EF90DF90CF9008950F931F93CF93EA
:1027C000DF93CDB7DEB7A8970FB6F894DEBF0FBE84
:1027D000CDBF84E792E090932305809322058091FA
:1027E00028059091290590932505809324056CE791
:1027F00077E0CE0101960E945224CE0101960E94FC
:102800009815182FCE0101960E941D24113009F051
:102810005FC08091310590913205DC01ED91FC9112
:102820000480F581E02D0995892B09F1809131050E
:1028300090913205DC01ED91FC910680F781E02D4D
:10284000099580932D0590932E0589831A8241E086
:1028500050E0BE016F5F7F4F84EF94E00E946D23D4
:102860006AE070E080E090E00E94A01DD2CF8091ED
:10287000260590912705909323058093220580914A
:10288000280590912905909325058093240564EEF1
:1028900077E087E493E00E94D42464EF74E087E457
:1028A00093E00E9423256BE772E0CE0101960E941F
:1028B0006424BE016F5F7F4F84EF94E00E94342355
:1028C0008C01CE0101960E941D2417FF12C0CEC0BC
:1028D00080912605909127059093230580932205EA
:1028E00080912805909129059093250580932405D2
:1028F000E9C0BE016F5F7F4F84E690E00E945811EF
:10290000BE016F5F7F4FCE0183960E946424BE019B
:102910006F5F7F4F8CED90E00E945811BE016F5F9A
:102920007F4FCE014D960E94642468EE75E0CE0183
:1029300041960E945224CE0141960E949815182F6C
:10294000CE0141960E941D24113009F4B4C0BE018D
:102950006D5D7F4F84EF94E00E94342397FD0AC0A1
:102960006BEC77E087E493E00E943525BE016D5D56
:102970007F4F12C0BE01635E7F4F84EF94E00E94E0
:10298000342397FD23C061EC77E087E493E00E9455
:102990003525BE01635E7F4FCE0147960E945B24C2
:1029A00064EF74E0CE0141960E945B24BE01695E33
:1029B0007F4FCE0141960E94F311CE0141960E94B5
:1029C0001D24CE0147960E941D2448C06BEB77E082
:1029D000CE0141960E945224BE016F5E7F4F84EF6C
:1029E00094E00E9434238C01CE0141960E941D2464
:1029F00017FD0DC061E084E091E00E94F11161E0FB
:102A000088E091E00E94F11161EB77E023C06AEA6F
:102A100077E0CE0141960E945224BE016F5E7F4F47
:102A200084EF94E00E9434238C01CE0141960E94F1
:102A30001D2417FD0DC060E084E091E00E94F111BB
:102A400060E088E091E00E94F1116FE977E002C058
:102A500061E977E087E493E00E943525CE014D9649
:102A60000E941D24CE0183960E941D2466E872E018
:102A7000CE0101960E946424BE016F5F7F4F84EFF8
:102A800094E00E9434238C01CE0101960E941D2403
:102A900017FD0AC00E94FF18882331F066E877E02E
:102AA00087E493E00E9435256AEC72E084EF94E0BD
:102AB0000E94EF2307C069ED77E087E493E00E946E
:102AC000352545CFA8960FB6F894DEBF0FBECDBF13
:102AD000DF91CF911F910F910895CF93DF93BC01A8
:102AE00087E493E00E94F824EC0187E493E00E94DD
:102AF0000D258C0F9D1FDF91CF9108958091310599
:102B000090913205DC01ED91FC910480F581E02D7E
:102B10000995892B61F08091310590913205DC0196
:102B2000ED91FC910680F781E02D0995E7CF08959E
:102B3000CF92DF92EF92FF921F93CF93DF93EC013E
:102B400069EB71E00E944E23811109C00E947E153D
:102B5000BE0180913105909132050E9423250E948B
:102B6000DA1D6B017C01D0E0CAE4809131059091BF
:102B70003205DC01ED91FC910480F581E02D099591
:102B8000892BC1F18091310590913205DC01ED91E5
:102B9000FC910680F781E02D0995D53950F0E2E9E6
:102BA000F4E0A7E4B4E09C2F01900D929A95E1F730
:102BB000DAE411E01D0FED2FF0E0E95BFB4F8083BD
:102BC000E12FF0E0E95BFB4F1082609122057091EC
:102BD000230587E494E00E945C36892B09F5609117
:102BE00024057091250587E494E00E945C36892BCA
:102BF000C9F4D12F0E94DA1DAB01BC014C195D094B
:102C00006E097F0980912A0590912B05A0E0B0E024
:102C1000481759076A077B0708F4A7CF80E003C06D
:102C200081E001C082E0DF91CF911F91FF90EF9092
:102C3000DF90CF900895CF93DF93CDB7DEB72A977B
:102C40000FB6F894DEBF0FBECDBF8C0161E085E00A
:102C50000E94641DE0902F05F0903005FA82E98211
:102C6000CE0101960E949E05898767018FEFC81AE1
:102C7000D80ADA82C982CE0101960E949E058A870F
:102C80008091FD049091FE049A838983CE01019680
:102C90000E949E0591E0811101C090E09093FC0498
:102CA000992399F069857A85600F711F78876F8302
:102CB000FA82E982CE0101960E94F60E6885DA82D8
:102CC000C982CE0101960E94F60E6EE678E0CE0132
:102CD00001960E945224CE0101960E949815CE01C1
:102CE00001960E941D2463E678E0CE0101960E94C1
:102CF0005224CE0101960E949815CE0101960E94A1
:102D00001D240FB6F894A895809160008861809387
:102D10006000109260000FBE61E085E00E94341DEB
:102D20008AEA92E00E946D150CE310E068EE73E011
:102D300080E090E00E94A01DA8956CEF71E087E410
:102D400093E00E9447250150110981F798E088E13E
:102D50000FB6F894A895809360000FBE9093600022
:102D6000FFCFEF92FF920F931F93CF93DF9300D08B
:102D7000CDB7DEB705E011E0855091407C019701A9
:102D8000200F311F3A832983CE0101960E949E05B0
:102D9000F80181938F01F1E009301F0781F785E089
:102DA00091E00F900F90DF91CF911F910F91FF90C5
:102DB000EF900895EF92FF920F931F93CF93DF93BD
:102DC0007C018B0162E578E087E493E00E94352581
:102DD000C1E3D5E06DEB72E0888199810E944725BF
:102DE00064E670E080E090E00E94A01DB801888158
:102DF00099810E94C62464E670E080E090E00E9421
:102E0000A01D67EC72E0888199810E94472568EED9
:102E100073E080E090E00E94A01DB7018881998155
:102E20000E94C62464E670E080E090E00E94A01D4D
:102E30006AE1888199810E94112564E670E080E052
:102E400090E00E94A01DB80187E493E00E94232532
:102E500060E478E087E493E00E94352560ED77E058
:102E600080E090E0DF91CF911F910F91FF90EF9064
:102E70000C94A01D8F929F92AF92BF920F931F93BD
:102E8000CF93DF93CDB7DEB7A1970FB6F894DEBF2F
:102E90000FBECDBF19A2423008F44AE08E010F5D8B
:102EA0001F4F842E912CA12CB12CA50194010E94BE
:102EB0001B35E62FB901CA0101501109EA3014F49B
:102EC000E05D01C0E95CD801EC93232B242B252B7A
:102ED00061F7B80187E493E00E94F824A1960FB649
:102EE000F894DEBF0FBECDBFDF91CF911F910F9140
:102EF000BF90AF909F908F900895CF93DF934AE05B
:102F00000E943A17EC0187E493E00E940D258C0F94
:102F10009D1FDF91CF9108951F93CF93DF9300D032
:102F200000D000D0CDB7DEB788E99AE390932B05A7
:102F300080932A0563E378E0CE0101960E94522433
:102F4000CE0101960E949815182FCE0101960E947D
:102F50001D24112331F080ED97E090932B05809391
:102F60002A0581E026960FB6F894DEBF0FBECDBFCE
:102F7000DF91CF911F910895CF92DF92EF92FF9250
:102F8000CF93DF936C01990FEE08FF08F7FE14C092
:102F90006DE287E493E00E94BF24EC016627772767
:102FA000CB016C197D098E099F094AE00E943A17EE
:102FB0007C01EC0EFD1E06C04AE0C701B6010E946E
:102FC0003A177C0187E493E00E940D258E0D9F1D2A
:102FD000DF91CF91FF90EF90DF90CF900895CF9346
:102FE000DF9300D000D000D0CDB7DEB767E278E045
:102FF000CE0101960E945224CE0101960E9498159E
:10300000CE0101960E941D2426960FB6F894DEBFCD
:103010000FBECDBFDF91CF910895DF92EF92FF9267
:103020000F931F93CF93DF937C018B01EA018AE416
:10303000D82E8091310590913205DC01ED91FC9103
:103040000480F581E02D0995892BE1F1809131050E
:1030500090913205DC01ED91FC910680F781E02D25
:1030600009959091FF04953958F0D092FF04E2E958
:10307000F4E0A7E4B4E09D2D01900D929A95E1F75C
:10308000A091FF04E1E0EA0FE093FF04B0E0A95B48
:10309000BB4F8C93F0E0E95BFB4F1082B70187E4F4
:1030A00094E00E945C36892B39F50115110509F26F
:1030B000B80187E494E00E945C36892B09F4B9CF0B
:1030C00082E01DC00E94DA1D0091000510910105EB
:1030D0002091020530910305AB01BC01401B510B4F
:1030E000620B730BCE01A0E0B0E0481759076A07E6
:1030F0007B0720F083E003C081E001C080E0DF9126
:10310000CF911F910F91FF90EF90DF900895EF9274
:10311000FF920F931F93CF93DF9300D000D000D086
:10312000CDB7DEB77C018B0163E178E0809131059A
:10313000909132050E94D424B7018091310590917D
:1031400032050E944725F80180819181892BD1F5B4
:1031500062E280913105909132050E94112564EF61
:1031600071E080E090E00E94A01D6CE175E0CE016E
:1031700001960E945B24CE0101960E949815182F9B
:10318000CE0101960E941D241123C1F063E078E076
:1031900080913105909132050E94352582E080931F
:1031A000F3041092FF040E94DA1D609300057093EF
:1031B0000105809302059093030513C084E080937A
:1031C000F3040FC06FE380913105909132050E94A6
:1031D000BF24B80180913105909132050E94C62428
:1031E000B7CF80E026960FB6F894DEBF0FBECDBFF6
:1031F000DF91CF911F910F91FF90EF9008951F9352
:10320000CF93DF9300D000D000D0CDB7DEB760EF12
:1032100077E0CE0101960E945224CE0101960E94D1
:103220009815182FCE0101960E941D2481E01130BF
:1032300009F080E026960FB6F894DEBF0FBECDBF32
:10324000DF91CF911F910895CF93DF9300D000D0ED
:1032500000D0CDB7DEB769EE77E0CE0101960E94CF
:103260005224CE0101960E949815CE0101960E942B
:103270001D246BEC72E087E494E00E945C360097BA
:1032800051F005960E94F62F8336910521F08F3F6D
:103290002FEF920709F480E026960FB6F894DEBF70
:1032A0000FBECDBFDF91CF91089541E050E06FE4B4
:1032B00071E00C946D23CF93DF93EB01DC01159645
:1032C000ED91FC911697138615861486DF011B96E7
:1032D00033961E92AE17BF07E1F7BE01FC01858150
:1032E00096810E94541F882349F067E0CE010E9416
:1032F0007E1E9F81891302C081E001C080E0DF91C2
:10330000CF9108950F931F93CF93DF93CDB7DEB77F
:1033100061970FB6F894DEBF0FBECDBF8C01BE0122
:10332000665F7F4F0E945B19811105C060E070E00D
:103330008EEF92EC4BC0AE014F5F5F4FBE01665FF8
:103340007F4FC8010E940721882359F1698148E015
:10335000649FB00111248A81282F30E0322F222768
:10336000330F330F330F262B372B8A858031E1F44F
:10337000688570E08F81AB01481B5109CA019695A1
:10338000982F8827979587950E9407356051710976
:10339000207F53E0220F331F5A95E1F7620F731F0E
:1033A00004C060E874EE01C0B901613854EE7507DD
:1033B0000CF4BCCF072E000C880B990B0E94133322
:1033C00020E030E040E05CE30E94723361960FB68B
:1033D000F894DEBF0FBECDBFDF91CF911F910F914B
:1033E00008958F929F92AF92BF92CF92DF92EF9209
:1033F000FF920F931F93CF93DF93CDB7DEB72C9738
:103400000FB6F894DEBF0FBECDBF7C016AEC72E050
:10341000CE0101960E94642460ED72E0CE01079611
:103420000E946424AE014F5F5F4FBE01695F7F4F12
:10343000C7010E94ED21CE0107960E941D24CE01F6
:1034400001960E941D246AEC72E0CE0101960E9452
:1034500064246EE172E0CE0107960E946424AE01FE
:103460004F5F5F4FBE01695F7F4FC7010E94ED2133
:10347000CE0107960E941D24CE0101960E941D24B4
:103480006AEC72E0CE0101960E94642469EC72E05D
:10349000CE0107960E946424AE014F5F5F4FBE01CC
:1034A000695F7F4FC7010E94ED21CE0107960E9400
:1034B0001D24CE0101960E941D246AEC72E0CE010B
:1034C00001960E94642461EA72E0CE0107960E9490
:1034D0006424AE014F5F5F4FBE01695F7F4FC7013C
:1034E0000E94ED21CE0107960E941D24CE01019677
:1034F0000E941D24D701CD90DC901197C114D104F6
:1035000009F443C014960D911C91159701151105EE
:10351000E1F146015401BFEF8B1A9B0AF50180814E
:10352000082E000C990B0E94F332892B99F7015059
:1035300011090C0D1D1DD8018C91082E000C990B42
:103540000E94F332892B81F4A8014F5F5F4F4A1923
:103550005B09F70155834483CA14DB0458F4B501B1
:10356000C6010E94263606C00A151B0568F30150E5
:103570001109E1CFD701ED91FC91119714968D912E
:103580009C911597E80FF91F10822C960FB6F894AE
:10359000DEBF0FBECDBFDF91CF911F910F91FF9086
:1035A000EF90DF90CF90BF90AF909F908F90089555
:1035B000DF92EF92FF920F931F93CF93DF93CDB7DC
:1035C000DEB729970FB6F894DEBF0FBECDBF8C01D2
:1035D0007B01AE014F5F5F4F0E940721D82E8823E9
:1035E00009F459C0F7018081803109F454C08FE794
:1035F0008D83F801858196810E941E1FB701F80115
:10360000858196810E94CD1E40E06EE4F80185819F
:1036100096810E948B1E40E06B81F8018581968126
:103620000E948B1E40E06C81F801858196810E948A
:103630008B1EF7018081803139F040E06D81F80107
:10364000858196810E948B1EF801858196810E945A
:103650001E1FB701F801858196810E94CD1EF801D9
:10366000408168E4858196810E948B1E64E170E050
:1036700080E090E00E94A01DF8018081882331F055
:103680006AE070E080E090E00E94A01DF801858172
:1036900096810E941E1F8D2D29960FB6F894DEBFCD
:1036A0000FBECDBFDF91CF911F910F91FF90EF9093
:1036B000DF900895FC0180819181009711F00C94B6
:1036C000143060E070E0CB010895FC01918D828D93
:1036D000981761F0828DDF01A80FB11D5D968C9166
:1036E000928D9F5F9F73928F90E008958FEF9FEF71
:1036F0000895FC01918D828D981731F0828DE80F2D
:10370000F11D858D90E008958FEF9FEF0895FC01E6
:10371000918D228D892F90E0805C9F4F821B9109B3
:103720008F739927089587E493E00E94871B21E017
:10373000892B09F420E0822F0895FC01848DDF019C
:10374000A80FB11DA35ABF4F2C91848D90E0019614
:103750008F739927848FA689B7892C93A089B18903
:103760008C9180648C93938D848D981306C002880D
:10377000F389E02D80818F7D80830895EF92FF9201
:103780000F931F93CF93DF93EC0181E0888F9B8D84
:103790008C8D981305C0E889F989808185FD24C046
:1037A000F62E0B8D10E00F5F1F4F0F731127E02EC9
:1037B0008C8DE8120CC00FB607FCFACFE889F989A6
:1037C000808185FFF5CFCE010E949D1BF1CF8B8DAF
:1037D000FE01E80FF11DE35AFF4FF0820B8FEA89DB
:1037E000FB898081806207C0EE89FF896083E88958
:1037F000F98980818064808381E090E0DF91CF91BE
:103800001F910F91FF90EF900895CF93DF93EC01FC
:10381000888D8823C9F0EA89FB89808185FD05C0F0
:10382000A889B9898C9186FD0FC00FB607FCF5CF2A
:10383000808185FFF2CFA889B9898C9185FFEDCF72
:10384000CE010E949D1BE7CFDF91CF91089580E0CC
:1038500090E0892B29F00E94931B81110C940000A9
:103860000895833081F028F4813099F08230A1F0FE
:1038700008958730A9F08830B9F08430D1F4809170
:1038800080008F7D03C0809180008F7780938000BF
:10389000089584B58F7702C084B58F7D84BD089567
:1038A0008091B0008F7703C08091B0008F7D8093AE
:1038B000B00008953FB7F894809163059091640536
:1038C000A0916505B091660526B5A89B05C02F3F60
:1038D00019F00196A11DB11D3FBFBA2FA92F982F36
:1038E0008827820F911DA11DB11DBC01CD0142E0B1
:1038F000660F771F881F991F4A95D1F7089508957D
:103900000895FC0190810180F281E02D892F80953E
:1039100060FF12C0F8942281822382838181892BE7
:103920008183A3E2B0E01197F1F78281982B928313
:10393000789487ED90E011C0F894228182238283ED
:103940008181892B8183AFEFB0E01197F1F78281FC
:10395000982B928378948FE090E00197F1F7089587
:1039600008950E9421361F920F920FB60F921124D4
:103970002F933F934F935F936F937F938F939F9377
:10398000AF93BF93EF93FF9387E493E00E949D1B57
:10399000FF91EF91BF91AF919F918F917F916F9127
:1039A0005F914F913F912F910F900FBE0F901F90FD
:1039B00018951F920F920FB60F9211242F938F9389
:1039C0009F93EF93FF93E0915703F0915803808109
:1039D000E0915D03F0915E0382FD12C090818091C1
:1039E00060038F5F8F7320916103821751F0E09124
:1039F0006003F0E0E95BFC4F958F8093600301C0AA
:103A00008081FF91EF919F918F912F910F900FBE29
:103A10000F901F901895CF93DF93282F30E0F90176
:103A2000E054F64F8491F901EE55F74FD491F90126
:103A3000E257F74FC491CC2391F081110E94311CC1
:103A4000EC2FF0E0EE0FFF1FEC57F74FA591B4916C
:103A5000EC91ED2381E090E021F480E002C080E071
:103A600090E0DF91CF9108951F93CF93DF93282F9C
:103A700030E0F901E054F64F8491F901EE55F74F2B
:103A8000D491F901E257F74FC491CC23C9F0162F16
:103A900081110E94311CEC2FF0E0EE0FFF1FE65861
:103AA000F74FA591B4918FB7F894111105C09C916F
:103AB000ED2FE095E92302C0EC91ED2BEC938FBF45
:103AC000DF91CF911F910895CF93DF9390E0FC0198
:103AD000EE55F74F2491FC01E257F74F849188236C
:103AE00061F190E0880F991FFC01EA54F64FC591EF
:103AF000D491FC01E658F74FA591B491611109C02A
:103B00009FB7F8948881209582238883EC912E2397
:103B10000BC0623061F49FB7F8943881822F809592
:103B200083238883EC912E2B2C939FBF06C08FB7E5
:103B3000F894E8812E2B28838FBFDF91CF910895D1
:103B40008F929F92AF92BF92CF92DF92EF92FF92AD
:103B50006B017C010E945A1C4B015C01C114D10411
:103B6000E104F104F1F00E945A1CDC01CB01881938
:103B70009909AA09BB09883E9340A105B10570F3D4
:103B800021E0C21AD108E108F10888EE880E83E02E
:103B9000981EA11CB11CC114D104E104F10419F751
:103BA000DDCFFF90EF90DF90CF90BF90AF909F90D0
:103BB0008F9008952FB7F89460915F05709160051C
:103BC00080916105909162052FBF08951F920F9219
:103BD0000FB60F9211242F933F938F939F93AF9320
:103BE000BF9380915F0590916005A0916105B091B0
:103BF000620530915E0523E0230F2D3720F40196F6
:103C0000A11DB11D05C026E8230F0296A11DB11DFF
:103C100020935E0580935F0590936005A0936105F6
:103C2000B09362058091630590916405A09165054C
:103C3000B09166050196A11DB11D80936305909317
:103C40006405A0936505B0936605BF91AF919F9100
:103C50008F913F912F910F900FBE0F901F9018954D
:103C60001F920F920FB60F9211242F933F934F93F1
:103C70005F936F937F938F939F93AF93BF93EF93D4
:103C8000FF93E0910201F09103010995FF91EF91FB
:103C9000BF91AF919F918F917F916F915F914F9164
:103CA0003F912F910F900FBE0F901F9018951F926C
:103CB0000F920FB60F9211242F933F934F935F9360
:103CC0006F937F938F939F93AF93BF93EF93FF93E4
:103CD000E0910001F09101010995FF91EF91BF91F1
:103CE000AF919F918F917F916F915F914F913F9194
:103CF0002F910F900FBE0F901F901895DC01E0E000
:103D0000615038F08D91E827F0E0EA54F74FE491E4
:103D1000F7CF8E2F0895CF92DF92EF92FF920F93FD
:103D20001F93CF93DF931F92CDB7DEB76C01E62EC2
:103D300008E010E0FF24F39461E08F2D8E2109F458
:103D400060E0C60149830E94811CFF0C01501109EB
:103D500049810115110581F7411115C0F894D6016B
:103D60001196ED91FC91129791818C918095892308
:103D700081831196ED91FC91129792818C9180959F
:103D80008923828378940F90DF91CF911F910F91B7
:103D9000FF90EF90DF90CF900895CF92DF92EF9257
:103DA000FF920F931F93CF93DF931F92CDB7DEB790
:103DB0008C01F62E40E065E579830E948B1ECF2CA6
:103DC0007981D72E760188E0E80EF11CF601619129
:103DD0006F0140E0C8010E948B1ECE14DF04B1F7D2
:103DE0000F90DF91CF911F910F91FF90EF90DF9097
:103DF000CF900895FC0190810180F281E02DF8942C
:103E00008181892B81832281892F80952823228398
:103E1000A7E0B0E01197F1F7218182238183A3E22B
:103E2000B0E01197F1F780817894EFECF0E03197F2
:103E3000F1F7982381E009F480E00895FC01908176
:103E40000180F281E02DF8948181292F2095822331
:103E5000818378948DE743E050E0815021F1DA01CD
:103E60001197F1F730813923C1F3F89482818223CD
:103E700082838181892B81837894ABE7B7E01197A6
:103E8000F1F7F894818128232183A3E1B1E0119710
:103E9000F1F78081982381E009F080E07894E3E6EF
:103EA000F6E03197F1F70895AF92BF92CF92DF928B
:103EB000EF92FF920F931F93CF93DF931F92CDB793
:103EC000DEB75C01E62ED72EFC01858581115DC031
:103ED000C5010E941E1F811105C0F50113861586BC
:103EE00014866BC040E060EFC5010E948B1E01E0AC
:103EF000F12CC12C11E0C5010E94FA1E682FC501EA
:103F000069830E94FA1E6981613019F48130B9F425
:103F100033C04F2D50E068131BC0F501838518177F
:103F200030F4E40FF51F8381802349F402C0181791
:103F300031F060E0193058F4F501148708C0F5013C
:103F4000EF0DF11D8381802B838361E009C0C12EB9
:103F5000F501E40FF51F9381802F809589238383DA
:103F6000C5010E94811C1F5F000F11F4F39401E052
:103F7000F7E0FF1508F0BFCF113438F0F501C38624
:103F8000C11015C081E0858712C0F5011386158622
:103F9000148680E0D5011396EE2DFD2D9501255F49
:103FA0003F4F9D919193A217B307D9F706C0F50132
:103FB0008381882351F381E0EDCF0F90DF91CF9182
:103FC0001F910F91FF90EF90DF90CF90BF90AF9037
:103FD00008950F931F93CF93DF93EC01162F60E0AA
:103FE000812F0E94641D612F70E0FB01EE55F74F99
:103FF000E491E883FB01E257F74FE491F0E0EE0F24
:10400000FF1FEC57F74F859194919A8389831B8604
:104010001D861C86FE013B968E010D5F1F4F12927E
:10402000E017F107E1F7DF91CF911F910F9108950C
:104030001F920F920FB60F9211242F933F934F931D
:104040005F936F937F938F939F93AF93BF93EF9300
:10405000FF938091E1029091E2028093B2008091FF
:10406000E4029091E502A091E602B091E702019688
:10407000A11DB11D8093E4029093E502A093E60296
:10408000B093E7024091E4025091E5026091E602AC
:104090007091E7028091DD029091DE02A091DF0233
:1040A000B091E002481759076A077B07B0F080918A
:1040B000E302811112C081E08093E3021092E402D6
:1040C0001092E5021092E6021092E702E091DB0204
:1040D000F091DC0209951092E302FF91EF91BF91FC
:1040E000AF919F918F917F916F915F914F913F9190
:1040F0002F910F900FBE0F901F9018956F927F9287
:104100008F929F92AF92BF92CF92DF92EF92FF92E7
:104110000F931F93CF93DF931F92CDB7DEB78C0120
:10412000F42EFC018581968159830E94CD1E40E0CA
:104130006EEBF801858196810E948B1E6F2C598150
:10414000752E5301F9E0AF0EB11CF8018580968001
:1041500088E0C82ED12CEE24E394F12CC4010E94F7
:10416000FA1E8111FE28EE0CF1E0CF1AD108B1F74A
:10417000F301F1923F01EA15FB0539F7F80185815A
:1041800096810E941E1F91E0813009F090E0892FF6
:104190000F90DF91CF911F910F91FF90EF90DF90E3
:1041A000CF90BF90AF909F908F907F906F90089529
:1041B000CF93DF93EC018D819E810E941E1F40E012
:1041C0006CEC8D819E810E948B1E488164E48D8100
:1041D0009E810E948B1E8A818823B1F0E981E9507B
:1041E000E33040F4F0E0EE0FFF1FEE5CFE4F608125
:1041F000718102C06EEE72E0072E000C880B990BE5
:10420000DF91CF910C94A01DDF91CF910895EF9293
:10421000FF920F931F93CF93DF9300D0CDB7DEB7FC
:104220008C017A01FC018581968169837A830E94E1
:104230001E1F69817A81882371F0A701C8010E943D
:104240007E20882341F068E0C7010E947E1E91E035
:10425000F7012085821390E0892F0F900F90DF9156
:10426000CF911F910F91FF90EF900895CF93DF931F
:10427000CDB7DEB729970FB6F894DEBF0FBECDBF1E
:10428000FB0120812031D1F0AE014F5F5F4F0E94D2
:104290000721882389F08D818F3361F020F48F31DD
:1042A00059F489E00CC08F3519F08F3739F004C00C
:1042B0008BE005C08AE003C080E001C08CE0299655
:1042C0000FB6F894DEBF0FBECDBFDF91CF9108953A
:1042D000CF92DF92EF92FF920F931F93CF93DF93D2
:1042E0006C017A018B01C0E0D0E0CE15DF0589F0CA
:1042F000D8016D918D01D601ED91FC910190F08175
:10430000E02DC6010995892B11F47E0102C021968A
:10431000ECCFC701DF91CF911F910F91FF90EF90EC
:10432000DF90CF9008950F931F93CF93DF93EC010D
:1043300088819981009729F02A813B8126173707C8
:1043400088F48B016F5F7F4F0E945735009761F0B3
:10435000998388831B830A832C813D81232B11F44D
:10436000FC01108281E001C080E0DF91CF911F91BC
:104370000F910895CF93DF93EC0188819981009785
:1043800011F00E945E2F198218821D821C821B82EE
:104390001A82DF91CF910895EF92FF920F931F93AE
:1043A000CF93DF93EC017B018A01BA010E94932134
:1043B000811104C0CE010E94BA2107C01D830C8365
:1043C000B701888199810E945536CE01DF91CF9146
:1043D0001F910F91FF90EF9008952F923F924F926F
:1043E0005F926F927F928F929F92AF92BF92CF9285
:1043F000DF92EF92FF920F931F93CF93DF9300D042
:1044000000D0CDB7DEB7FC01448055804114510483
:1044100009F413C1FB01648075806114710409F40F
:104420000CC17A016B019C838B83FA01A480B58057
:10443000A618B708FC0100811181A114B104C1F4D0
:10444000F60160817181C8010E945C365C01892B94
:1044500009F4F3C0F7016081718144815581C50180
:104460000E942636F701048115810A0D1B1DE8CF35
:10447000B7FE02C0480106C0FB0120803180420126
:10448000C80148C0F60160817181C4010E945C3698
:104490002C01892B29F1320168187908A301B40194
:1044A000C8010E942636060D171DF7016081718133
:1044B00044815581C8010E942636F7018481958187
:1044C000080F191FF60184809580840C951CEB81E0
:1044D000FC81848195818A0D9B1D95838483D2CF35
:1044E000B401C8010F900F900F900F90DF91CF9102
:1044F0001F910F91FF90EF90DF90CF90BF90AF9002
:104500009F908F907F906F905F904F903F902F90F3
:104510000C945536B1010E945C36009729F0860D47
:10452000971D8A0C9B1CF6CF8414950409F485C052
:10453000EB81FC81828193818815990578F4B4011F
:104540006F5F7F4FC8010E945735009709F475C00F
:10455000EB81FC819183808393828282EB81FC8159
:10456000048115810150110917FD67C0F6012480EF
:1045700035802114310409F460C0EB81FC81648032
:1045800075806114710409F458C06214730408F44E
:1045900054C00615170518F0830101501109EB816D
:1045A000FC8140805180C20188248A94982C920119
:1045B000200F311F2817390758F0F60160817181EB
:1045C00029833A830E945C3629813A81009761F5FC
:1045D00097FC33C0280C391CC201820D931DA30126
:1045E00042195309BC018A0D9B1D0E942F36EB8195
:1045F000FC81848195818A0D9B1D95838483208114
:104600003181F901E80FF91F1082EB81FC81808173
:104610009181F7016081718144815581880D991DD7
:104620000E94263684019ECFAC0144195509041717
:10463000150708F04A010196BDCF0F900F900F901B
:104640000F90DF91CF911F910F91FF90EF90DF902E
:10465000CF90BF90AF909F908F907F906F905F9022
:104660004F903F902F900895CF93DF93FC012481CA
:104670003581232B71F0FB01DC01CD91DC91608150
:104680007181CE010E945C36009719F08C1B9D0B46
:1046900002C08FEF9FEFDF91CF910895FC0124813D
:1046A0003581232B31F421E061157105A1F0FB0167
:1046B00008C0FC01808191816115710531F421E010
:1046C000FC018081882339F005C00E944C3621E02E
:1046D000892B09F020E0822F0895EF92FF920F932B
:1046E0001F93CF93DF93FC01248135816115710500
:1046F00011F480E019C041155105A9F07B01EC01CE
:104700008A01020F131FB8010E949321882389F3A5
:10471000288139818C819D81B701820F931F0E946E
:1047200055361D830C8381E0DF91CF911F910F914E
:10473000FF90EF900895CF93DF93EC016115710521
:1047400061F0FB0101900020E9F73197AF01461BB2
:10475000570B0E946D23811103C0CE010E94BA2124
:10476000CE01DF91CF910895CF93DF93EC01FB0150
:1047700044815581608171810E946D23811103C044
:10478000CE010E94BA21CE01DF91CF910895EF9220
:10479000FF920F931F93CF93DF93EC018B01611571
:1047A000710551F0CB010E9442307C01BC01CE0169
:1047B0000E949321811104C0CE010E94BA2107C03A
:1047C000FD82EC82B801888199810E943B30CE0144
:1047D000DF91CF911F910F91FF90EF900895CF93AC
:1047E000DF93EC016115710559F0FB010190002088
:1047F000E9F73197AF01461B570B0E94CC2102C04D
:104800000E94BA21CE01DF91CF910895CF93DF931B
:10481000EC01FB018617970761F0608171816115DA
:10482000710529F0448155810E94CC2102C00E946B
:10483000BA21CE01DF91CF910895FC018081918151
:104840000C945E2FEF92FF920F931F93CF93DF9301
:10485000CDB7DEB7A1970FB6F894DEBF0FBECDBFC0
:104860007C01CB01BA01F7011182108213821282FE
:104870001582148242E0420F8E010F5F1F4F0E948B
:10488000A92EBC01C7010E94EF23A1960FB6F89490
:10489000DEBF0FBECDBFDF91CF911F910F91FF9073
:1048A000EF900895FC01118210821382128215820A
:1048B00014820C94C723FC0111821082138212828D
:1048C000158214820C940624FC011182108213823A
:1048D0001282158214826115710551F0FB0101905D
:1048E0000020E9F73197AF01461B570B0C94CC2100
:1048F0000895BF92CF92DF92EF92FF920F931F9392
:10490000CF93DF937C016B018A01E90124173507FE
:1049100020F4812F8901C42FD82F6AEC72E0C701DF
:104920000E946424D60114968D919C9115970817C6
:104930001907D0F48C179D0708F4EC01D601ED910E
:10494000FC911197EC0FFD1FB08010824D915C918E
:10495000BA01600F711FC7010E94EF23D601ED91CC
:10496000FC91EC0FFD1FB082C701DF91CF911F9129
:104970000F91FF90EF90DF90CF90BF900895DC01F2
:10498000ED91FC910190F081E02D0994DC01ED9115
:10499000FC91DB0114964D915C9115976D917C9182
:1049A0000280F381E02D0994EF92FF920F931F9301
:1049B000CF93DF938C017B01C0E0D0E0F701EC0FD7
:1049C000FD1F6491662361F0D801ED91FC91019087
:1049D000F081E02DC8010995892B11F02196EECFC9
:1049E000CE01DF91CF911F910F91FF90EF9008952D
:1049F0006115710579F0FB0101900020E9F731970D
:104A0000AF01461B570BDC01ED91FC910280F38155
:104A1000E02D099480E090E0089568EC72E00C9439
:104A2000F8240F931F93CF93DF93EC010E94BF24D0
:104A30008C01CE010E940D25800F911FDF91CF9137
:104A40001F910F9108950F931F93CF93DF93EC0164
:104A50000E94C6248C01CE010E940D25800F911F5B
:104A6000DF91CF911F910F9108950F931F93CF93D3
:104A7000DF93EC010E94D4248C01CE010E940D250D
:104A8000800F911FDF91CF911F910F9108950C948A
:104A9000F824CF93DF93CDB7DEB765970FB6F894C0
:104AA000DEBF0FBECDBF789484B5826084BD84B56F
:104AB000816084BD85B5826085BD85B5816085BD19
:104AC00080916E00816080936E00109281008091D1
:104AD0008100826080938100809181008160809359
:104AE0008100809180008160809380008091B1007E
:104AF00084608093B1008091B00081608093B000A9
:104B000080917A00846080937A0080917A0082603C
:104B100080937A0080917A00816080937A008091FE
:104B20007A00806880937A001092C1000FB6F894E2
:104B3000A895809160008861809360001092600069
:104B40000FBEE0915703F091580382E08083E0911B
:104B50005303F09154031082E0915503F0915603F2
:104B600080E1808310925F03E0915B03F0915C032E
:104B700086E08083E0915903F0915A03808180613F
:104B80008083E0915903F0915A038081886080838B
:104B9000E0915903F0915A03808180688083E0910D
:104BA0005903F0915A0380818F7D808365E876E018
:104BB00087E493E00E94352561E086E00E94641D51
:104BC00060E086E00E94341D61E08DE00E94641D7B
:104BD00061E085E00E94641D61E08AE00E94641D3E
:104BE00061E08FE00E94641D61E08EE00E94641D20
:104BF00060E083E00E94641D60E089E00E94641D23
:104C000060E08CE00E94641D61E08CE00E94341D35
:104C100061E082E10E94641D61E082E10E94341D36
:104C200040E060E081E00E9416056CE271E080E007
:104C300090E00E94A01D40E061E080E00E94160527
:104C40006CE271E080E090E00E94A01D41E060E035
:104C500080E00E9416056CE271E080E090E00E9426
:104C6000A01D40E060E081E00E94160589E394E029
:104C70009093100480930F0410920E0410920A0473
:104C800099E090930B0481E080930C0480930D04D1
:104C90002BE234E03093FD032093FC031092FB03DE
:104CA0001092F7039093F8038093F9038093FA032B
:104CB0002DE134E03093EA032093E9031092E803F6
:104CC0001092E4039093E5038093E6038093E70357
:104CD0008AE094E00E94401087EF93E00E94401029
:104CE00084EE93E00E944010BE016F5F7F4F8AE028
:104CF00094E00E945B19882339F0BE016F5F7F4FFB
:104D00008AE094E00E94D81ABE016F5F7F4F87EF60
:104D100093E00E945B19882339F0BE016F5F7F4FDB
:104D200087EF93E00E94D81ABE016F5F7F4F84EE39
:104D300093E00E945B19882339F0BE016F5F7F4FBB
:104D400087EF93E00E94D81A68E873E180E090E072
:104D50000E94A01D99E288E10FB6F894A89580936F
:104D600060000FBE909360001A8619868E01075F5F
:104D70001F4FC8010E949E05883209F473C062E784
:104D800076E087E493E00E943525C12CD12C60E0C9
:104D9000C6010E94F1112FEFC21AD20A3FEFC316CB
:104DA00033E0D306A1F768E280E090E00E94F111C1
:104DB00065E071E088EC90E00E948B118EEFA82EE8
:104DC00081E0B82E94E6C92ED12CD5016D915D01FC
:104DD000DA86C986C8010E94F60EBFEFCB1ADB0A3D
:104DE000E1E7CE16D10489F7ABE0AA2EA2E0BA2EF5
:104DF000BCEDCB2ED12CD5016D915D01DA86C98633
:104E0000C8010E94F60EBFEFCB1ADB0AEBEECE16FE
:104E1000D10489F761E088E790E00E94F11164E62F
:104E200076E087E493E00E943525C12CD12C6C2DCF
:104E30008EE091E00E94F111C6010E94BC1768EE5D
:104E400073E080E090E00E94A01DFFEFCF1ADF0A20
:104E50002FE0C216D10459F763E576E087E493E0CA
:104E60000E9435258EE091E09A878987C8010E94CB
:104E70009E058B3018F066E476E002C063E376E0CE
:104E800087E493E00E94352586EB9FE09093030131
:104E900080930201809169008C6080936900E99A97
:104EA00088EC90E00E94B11688E790E09A878987A5
:104EB000C8010E949E0591E0811101C090E090938D
:104EC000040165E276E087E493E00E94D4246091D7
:104ED00005017091060180910701909108010E94DF
:104EE0007D1766E176E087E493E00E94D424809108
:104EF000670590916805009711F48BE695E0A8018D
:104F0000481B590BCA010E94BC17809170008E7F0C
:104F1000809370008091B0008C7F8093B00080916E
:104F2000B100877F8093B1008091B6008F7D809320
:104F3000B600809170008D7F809370008091B100E9
:104F400084608093B1008091B1008C7F8093B10028
:104F500086E090E09093E2028093E1028CE291E09F
:104F6000A0E0B0E08093DD029093DE02A093DF0228
:104F7000B093E0028FE295E09093DC028093DB0235
:104F80001092E4021092E5021092E6021092E702FB
:104F90001092E3028091E1029091E2028093B200CC
:104FA000809170008160809370005DEC252E312C23
:104FB00065E5462E512C7BEC872E912CE0E96E2E78
:104FC000712CEE24E394FFE3AF2EF5E0BF2E60ECEE
:104FD00075E087E493E00E94352560E086E00E945A
:104FE000341D60E08DE00E94341D61E085E00E9488
:104FF000341D89E00E940B1D892B39F064E670E0B6
:1050000080E090E00E94A01DF4CF68EE73E080E0A5
:1050100090E00E94A01D61E08DE00E94341D60E0E0
:1050200085E00E94341D68EE73E080E090E00E940D
:10503000A01D61E086E00E94341D60EB74E080E01A
:1050400090E00E94A01D60E086E00E94341D45E6CD
:10505000C42ED12C89E00E940B1D892B61F451E0F4
:10506000C51AD10809F4D4C364E670E080E090E08A
:105070000E94A01DEFCF60EB75E087E493E00E94F3
:10508000352510925A051092590510925805109224
:105090005705109256051092550530925C052092E6
:1050A0005B0580914B05863108F053C05092560540
:1050B00040925505909258058092570570925A0576
:1050C0006092590590916800883058F021E08E3048
:1050D00008F420E0AE2D01C0AA0F2A95EAF72A2F86
:1050E00001C024E0922B90936800883038F08E3015
:1050F00040F0863148F020E030E008C02DE630E096
:1051000005C02BE630E002C02CE630E030935305BA
:1051100020935205883038F4BE2D01C0BB0F8A950C
:10512000EAF78B2F0EC0282F30E08E3018F428506D
:10513000310902C02E5031098E2D01C0880F2A95E9
:10514000EAF78093540580915B0590915C05019787
:10515000F1F78091590590915A05892B39F1E09129
:10516000EA02F091EB0225E0EF33F207F9F0309715
:1051700039F0A389B4899C918589809589238C9382
:1051800080915D058E7F80935D051092E9021092FB
:10519000E802B092EB02A092EA02E0915205F0918F
:1051A0005305908180915405892B8083B0923205FC
:1051B000A09231053EE0C32ED12C80913105909113
:1051C0003205DC01ED91FC910480F581E02D09951B
:1051D000892B61F08091310590913205DC01ED91D0
:1051E000FC910680F781E02D0995E7CF6AE174E034
:1051F000C8010E945224C8010E949815282FC80196
:105200002D8B0E941D242D8921113DC064EF71E07A
:1052100080E090E00E94A01DB1E0CB1AD10869F6B1
:1052200067E174E0C8010E945224C8010E949815E9
:10523000C8010E941D2464E670E080E090E00E94B6
:10524000A01D64E174E0C8010E945224C8010E94BC
:105250009815C8010E941D2464E670E080E090E08B
:105260000E94A01D61E174E0C8010E945224C8019F
:105270000E949815C8010E941D2464E670E080E039
:1052800090E00E94A01D6EE074E0C8010E945224CC
:10529000C8010E949815D82EC8010E941D24DD2047
:1052A00009F4BCC261E074E0C8010E945224C80144
:1052B0000E949815C8010E941D2464E670E080E0F9
:1052C00090E00E94A01D6CEF73E0C8010E94522480
:1052D000C8010E949815C8010E941D2464E670E070
:1052E00080E090E00E94A01D62EF73E0C8010E9480
:1052F0005224C8010E949815C8010E941D2464E62A
:1053000070E080E090E00E94A01D68EE73E0C801AC
:105310000E945224C8010E949815C8010E941D24B1
:1053200064E670E080E090E00E94A01D6EED73E006
:10533000C8010E945224C8010E949815C8010E9409
:105340001D2464E670E080E090E00E94A01D60ED06
:1053500073E0C8010E945224C8010E949815C80138
:105360000E941D2464E670E080E090E00E94A01D91
:1053700064E670E080E090E00E94A01D62EC73E0C3
:10538000C8010E945224C8010E949815C8010E94B9
:105390001D2463E975E087E493E00E94352565E705
:1053A00075E087E493E00E94D4248091EC02909110
:1053B000ED02029769F063E775E087E493E00E94ED
:1053C000D42468EE73E080E090E00E94A01DEDCF51
:1053D00068EE73E080E090E00E94A01D6DE174E053
:1053E000C8010E945224C8010E949815D82EC801F5
:1053F0000E941D24E1E0DE122AC06DE070E087E427
:1054000094E00E944136009711F16C01F2E0CF0E5A
:10541000D11C6DE070E0C6010E944136009711F08A
:10542000DC011C92B60187E494E00E9455366CE6DC
:1054300075E087E493E00E94D42489E395E00E941C
:10544000F11969E375E087E493E00E94232564E2A3
:1054500074E0C8010E945224C8010E949815D82EF9
:10546000C8010E941D24B1E0DB1241C06DE070E074
:1054700087E494E00E9441360097C9F16C01E2E0B4
:10548000CE0ED11C6DE070E0C6010E94413600973F
:1054900011F0DC011C92B60187E494E00E945536BD
:1054A000E7E4F4E08191863661F090ED980F9A3050
:1054B00020F4DF01AB56BF4F8C93B4E0EF3BFB070A
:1054C00089F761E675E087E493E00E94D4246DEDEE
:1054D00074E083E395E00E94EF2383E395E00E946C
:1054E000F11963E375E087E493E00E9423252EE140
:1054F000D22E6CE274E0C8010E945224C8010E94BE
:105500009815C82EC8010E941D24CC2059F06AE1CC
:1055100072E087E494E00E945C36009719F0FC0189
:10552000F28009C068EE73E080E090E00E94A01D68
:10553000DA94D110DECF60E575E087E493E00E9455
:10554000D4246F2D87E493E00E94BF246DE475E0BE
:1055500087E493E00E94D424F0E3FF1203C06DE3DC
:1055600075E00BC021E3F21203C06AE275E01BC0D4
:1055700032E3F31207C06EE075E087E493E00E9427
:10558000352525CD43E3F41203C066E075E0F5CF81
:1055900054E3F51203C06DEF74E0EFCF85E3F8122A
:1055A0003AC269EE74E087E493E00E943525809169
:1055B000EC029091ED02029709F009CD0E942419A6
:1055C000F82E61EE74E087E493E00E94D4246F2DFE
:1055D00070E080E090E04AE00E943A1787E493E0B0
:1055E0000E940D2568EE73E080E090E00E94A01D0F
:1055F00061ED74E087E493E00E94352568EC74E087
:10560000C8010E945224C8010E949815F82EC801B2
:105610000E941D2491E0F912BDC06DE172E087E4A3
:1056200094E00E945C36009709F4B4C07C01A2E0CB
:10563000EA0EF11C62E270E0C7010E944136009759
:1056400011F0FC011082B70187E494E00E94553606
:1056500067E474E0CE010F960E94642464EC74E069
:10566000C8010E945224B801CE010F960E94342333
:105670007C01C8010E941D24F7FC21C064EB74E08A
:1056800084E095E00E94C72360EB74E08AE095E037
:105690000E94C7236CEA74E080E195E00E94C72372
:1056A0006CE974E086E195E00E94C72368E974E044
:1056B00087E493E00E94352510922C0561C064E9CF
:1056C00074E0C8010E945224B801CE010F960E94D6
:1056D00034237C01C8010E941D24F7FC20C060E82F
:1056E00074E084E095E00E94C72368E774E08AE0F4
:1056F00095E00E94C72360E774E080E195E00E9496
:10570000C7236CE574E086E195E00E94C72364E559
:1057100074E087E493E00E94352581E02FC06FE4B8
:1057200074E0C8010E945224B801CE010F960E9475
:1057300034237C01C8010E941D24F7FC21C066E4CB
:1057400074E084E095E00E94C7236AEC72E08AE08E
:1057500095E00E94EF236AEC72E080E195E00E9400
:10576000EF236DE374E086E195E00E94C72365E3D3
:1057700074E087E493E00E94352582E080932C0555
:1057800064E075E087E493E00E942325CE010F9644
:105790000E941D2463E176E087E493E00E943525B2
:1057A0000E94FF18882331F064E076E087E493E0FC
:1057B0000E9435250E94A305809170008E7F809302
:1057C000700040E061E080E00E9416050E94DA1D52
:1057D0006093F0027093F1028093F2029093F302CF
:1057E00062EF75E087E493E00E9435258E010F5F3C
:1057F0001F4F88EE882E83E0982EA12CB12C94E0C8
:10580000292E3324339489E00E940B1D892B69F4DF
:105810008091FA049091FB040E941B1666E975E0E2
:1058200087E493E00E943525FFCF0E94DD130E949C
:10583000DA1D2B013C018091EF02811104C088EC3C
:1058400090E00E94B1168091F9029091FA02A09125
:10585000FB02B091FC0273016201C81AD90AEA0A7C
:10586000FB0A2091050130910601409107015091FA
:105870000801A8EEB3E00E944934C616D706E80630
:10588000F906E0F160ED76E087E493E00E94D4242D
:105890008091F9029091FA02A091FB02B091FC0272
:1058A000A3019201281B390B4A0B5B0BCA01B901FA
:1058B000A50194010E941B35CA01B9010E947D1700
:1058C0004092F9025092FA026092FB027092FC023E
:1058D0000E94A30561EC76E087E493E00E94D42463
:1058E00040916705509168054115510511F44BE64B
:1058F00055E0C801841B950B0E94BC170E94DA1D5D
:105900002B013C018091F5029091F602A091F702E3
:10591000B091F802A3019201281B390B4A0B5B0BD3
:10592000DA01C90180369C4CA540B10580F16EEAD0
:1059300076E087E493E00E94D4248091F502909170
:10594000F602A091F702B091F802A3019201281B80
:10595000390B4A0B5B0BCA01B901A50194010E94E6
:105960001B35CA01B9010E947D1741E060E080E06B
:105970000E9416054092F5025092F6026092F702DC
:105980007092F80240E061E080E00E9416053A82E1
:105990002982C8010E949E058093EE029091F40234
:1059A0008917D1F091E0811101C090E09093F40249
:1059B000811108C063EA76E087E493E00E94352510
:1059C00061E007C069E976E087E493E00E9435254D
:1059D00060E082E10E94341D0E94DA1D4090F002D6
:1059E0005090F1026090F2027090F302DC01CB0162
:1059F00084199509A609B70981309C45A642B5408E
:105A000008F006CF64EF71E080E090E00E94A01DF6
:105A10000E94271CF8CE41E3F412D9CAC8CD8CE10C
:105A200095E00E941D2486E195E00E941D2480E1FE
:105A300095E00E941D248AE095E00E941D2484E0E8
:105A400095E00E941D2484EF94E00E941D2483E3CE
:105A500095E00E941D2489E395E00E941D2483E2C5
:105A600091E09093400580933F058091EA029091E8
:105A7000EB028F53954071F4E0915205F09153057C
:105A80009081809154058095892380831092EB0248
:105A90001092EA02089510924A031092490388EE88
:105AA00093E0A0E0B0E080934B0390934C03A0936D
:105AB0004D03B0934E0323E131E03093480320932C
:105AC000470325EC30E0309354032093530324EC38
:105AD00030E0309356032093550320EC30E03093B0
