:100000000C94EC040C941C180C94F5170C94FB1C29
:100010000C94FB1C0C94FB1C0C9414050C94140500
:100020000C9414050C94DD190C9414050C9414050F
:100030000C9414050C9414050C9414050C941405DC
:100040000C94AB170C9414050C949E160C94781613
:100050000C9414050C9414050C9414050C941405BC
:100060000C9414050C94140500407A10F35A00A067
:10007000724E18090010A5D4E80000E87648170071
:1000800000E40B54020000CA9A3B000000E1F505B1
:10009000000080969800000040420F000000A086FB
:1000A00001000000102700000000E803000000002D
:1000B0006400000000000A000000000001000000D1
:1000C00000002C76D888DC674F0823DFC1DFAE59EB
:1000D000E1B1B796E5E3E453C63AE651997696E87E
:1000E000E6C28426EB898C9B62ED407C6FFCEFBC02
:1000F0009C9F40F2BAA56FA5F490055A2AF75C932D
:100100006B6CF9676DC11BFCE0E40D47FEF520E662
:10011000B500D0ED902E0300943577050080841E45
:10012000080000204E0A000000C80C333333330FA0
:10013000986E12831141EF8D2114893BE65516CF3D
:10014000FEE6DB18D1844B381BF77C1D901DA4BB49
:10015000E424203284725E228100C9F124ECA1E5FE
:100160003D2741542B53415042523D312C310043E5
:100170006F6E6E65637420475052532E2E004154AB
:100180002B434744434F4E543D312C224950222C9F
:10019000220041542B53415042523D332C312C22EA
:1001A000505744222C220041542B53415042523D7F
:1001B000332C312C2255534552222C220041542BF2
:1001C00053415042523D332C312C2241504E222C6F
:1001D000220041542B53415042523D332C312C22AA
:1001E000436F6E74797065222C224750525322005F
:1001F000496E7465726E657420636F6E6E656374AC
:10020000204F4B212D0057616974204950000A4648
:1002100061696C656420636F6E6E65637420696EDE
:100220007465726E657400496E7465726E657420D3
:10023000636F6E6E656374204F4B212D00576169AB
:1002400074204950000A496E7465726E65742048C6
:1002500054545020636F6E6E656374202E2E0041DF
:10026000542B48545450504152413D22434944225A
:100270002C310041542B48545450494E49540041AC
:10028000542B4854545053534C3D310041542B4847
:1002900054545053534C3D300041542B4854545007
:1002A00052454144004F4E004F4646004465766932
:1002B0006365202E2E006E6F20636F6D7061726516
:1002C0000054656C20636F6D70617265006E6F2005
:1002D000636F6D7061726500204572726F72733A60
:1002E0002000546F74616C3A20005B5061796C6F30
:1002F00061645D2000546865206E756D62657220D2
:100300006F6620736572766572206572726F7273A4
:1003100020657863656564656420313000457272DC
:100320006F727320657863656564656400436F6E02
:100330006E656374206572726F7220485454500069
:100340000A485454505F73736C3A20736574204F9D
:100350004646207375636365737366756C6C7921AB
:10036000000A485454505F73736C3A2073657420CC
:100370004F4E207375636365737366756C6C79217A
:10038000000A4E6F20696E7465726E657420636F2B
:100390006E6E656374696F6E004552524F52005223
:1003A000657175657374696E67202E2E20576169BB
:1003B0007400746F53656E642E6C656E6774683A72
:1003C00020004154202B20434D4746203D20310042
:1003D00041542B435343533D2247534D2200415434
:1003E0002B434C49503D310041542B434D47463D32
:1003F000310041542B4346554E3D31004154453068
:100400000041542B4950523D313932303000415473
:100410000041540041540041540041540041542BC8
:1004200047534E0041542B434349440041542B430E
:100430005245473F004D454741464F4E00696E7457
:1004400065726E657400696E7465726E6574004DD8
:10045000656761004265656C696E6500696E74650B
:10046000726E65742E6265656C696E652E727500BC
:100470006265656C696E65006265656C696E6500D4
:10048000696E7465726E65742E6265656C696E6501
:100490002E727500426565004D545300696E746597
:1004A000726E65742E6D74732E7275006D747300A8
:1004B0006D747300696E7465726E65742E6D7473FD
:1004C0002E7275004D54530041542B434F50533FEF
:1004D000004750525320636F6E6E656374202E2E5A
:1004E0000072737369202E2E000A52656769737457
:1004F0006572656420726F616D696E67000A556E82
:100500006B6E6F776E000A44656E696564000A4E13
:100510006F742072656769737465726564202873EF
:100520006561726368696E6729000A52656769735D
:1005300074657265642028686F6D6529000A4E6FC6
:10054000742072656769737465726564003A20008F
:100550000A4E6574776F726B2073746174757320C3
:10056000000A53494D20434349443A000A494D4546
:10057000493A002E000A53657474696E67207570DD
:10058000206D6F62696C65206E6574776F726B2E7B
:100590002E2E004F4B00436F756C646E27742066DF
:1005A000696E64206D6F64756C652047505253000E
:1005B000506F7765722053494D383030204F6E00B0
:1005C000496E697469616C697A696E672E2E2E2E88
:1005D000284D61792074616B6520352D3130207391
:1005E00065636F6E6473290041542B434D47443D4E
:1005F00031000A53494D38303020736574757020CE
:10060000656E6400416C6C20534D532064656C65CD
:100610007465004F4B000A66726565206D656D6FED
:1006200072793A2000496E74657276616C20736548
:10063000633A000A2A2A205761746368646F67204E
:100640006F6E202A2A005761746368646F67206F99
:10065000666600436C65617220454550524F4D20DF
:10066000456E640054657374205761746368646FE9
:100670006700537461727420636C65617220454534
:1006800050524F4D000A53494D3830302073657435
:1006900075702073746172740044657669636520B7
:1006A0004F4E00446576696365204F464600496EAB
:1006B00074657276616C2070696E67207365633A49
:1006C000000A66726565206D656D6F72793A20006B
:1006D000496E74657276616C207365633A004154AB
:1006E0002B4353510041542B434D4744413D224439
:1006F000454C20414C4C220041542B48545450410D
:100700004354494F4E3D300041542B4854545050AF
:100710004152413D2255524C222C220041542B483B
:100720005454505445524D0041542B534150425261
:100730003D322C3100534D532073656E6420636F3E
:100740006D706C65746500534D532073656E642045
:10075000737461727465640041542B43495053486B
:1007600055540041542B485454505445524D0000A8
:10077000000000250028002B0000000000230026B8
:100780000029000404040404040404020202020216
:100790000203030303030301020408102040800145
:1007A0000204081020010204081020005EBCE2616F
:1007B0003FDD83C29C7E20A3FD1F419DC3217FFCA2
:1007C000A2401E5F01E3BD3E6082DC237D9FC142EB
:1007D0001CFEA0E1BF5D0380DE3C62BEE0025CDF88
:1007E00081633D7C22C09E1D43A1FF4618FAA427C9
:1007F000799BC584DA3866E5BB5907DB856739BA6A
:10080000E406581947A5FB7826C49A653BD98704A6
:100810005AB8E6A7F91B45C6987A24F8A6441A994F
:10082000C7257B3A6486D85B05E7B98CD2306EED7C
:10083000B3510F4E10F2AC2F7193CD114FADF37039
:100840002ECC92D38D6F31B2EC0E50AFF1134DCE52
:1008500090722C6D33D18F0C52B0EE326C8ED0531F
:100860000DEFB1F0AE4C1291CF2D73CA947628AB38
:10087000F517490856B4EA6937D58B5709EBB536F1
:10088000688AD495CB2977F4AA4816E9B7550B881E
:10089000D6346A2B7597C94A14F6A8742AC89615D7
:1008A0004BA9F7B6E80A54D7896B3500000000243D
:1008B0000027002A000000000800020100000304D5
:1008C00007000000000000000041542B434D475238
:1008D0003D3100534D532064656C6574650070684C
:1008E0006F6E652069676E6F726564004465766936
:1008F0006365204F4646004465766F666600446532
:1009000076696365204F4E004465766F6E00534DE7
:10091000532063656E747200436F6D6D616E646128
:100920002074656C3100534D532064656C657465AB
:1009300000534D533A00556E6B6E6F776E20636FA8
:100940006D6D616E6400446576696365204F46464F
:10095000004465766F666600446576696365204F7E
:100960004E004465766F6E00454550524F4D204F06
:10097000464600456F666600454550524F4D204F34
:100980004E00456F6E00485454502053534C204F36
:1009900046460053736C6F666600485454502053AB
:1009A000534C204F4E0053736C6F6E0054696D654D
:1009B0006F66660054696D656F6666005265737494
:1009C00061727400526573746172740054696D656C
:1009D00073657400312D8F2E11241FBECFEFD8E028
:1009E000DEBFCDBF12E0A0E0B1E0EAE4FDE602C068
:1009F00005900D92A23DB107D9F725E0A2EDB2E036
:100A000001C01D92A936B207E1F714E0CBEED4E0A5
:100A100004C02197FE010E947335CA3ED107C9F771
:100A20000E946B250C9498360C9400001F93CF9372
:100A3000DF931F92CDB7DEB7162F682F8AE0498368
:100A40000E94F916612F8EE00E94F9164981642FE9
:100A50008FE00F90DF91CF911F910C94F916809148
:100A6000EA029091EB02892B29F440E060E081E0FA
:100A70000E9416058091EA029091EB020197D9F449
:100A80002091D2023091D30281E090E0232B11F02B
:100A900080E090E09093D3028093D2028091D202C2
:100AA0009091D30240E060E0892B11F481E001C015
:100AB00080E00E9416058091EA029091EB02029775
:100AC000D9F42091D2023091D30281E090E0232B1F
:100AD00011F080E090E09093D3028093D202809155
:100AE000D2029091D302892B11F440E001C041E081
:100AF00060E080E00E9416058091EA029091EB028E
:100B00000397D9F42091D2023091D30281E090E092
:100B1000232B11F080E090E09093D3028093D202D7
:100B20008091D2029091D30240E0892B11F460E0D1
:100B300001C061E080E00C9416050895FC018081FD
:100B400091810C9455342F923F924F925F926F9205
:100B50007F928F929F92AF92BF92CF92DF92EF924D
:100B6000FF920F931F93CF93DF93CDB7DEB7CE5590
:100B7000D1090FB6F894DEBF0FBECDBF8EEB93E068
:100B80000E949D1A8BEA93E00E949D1A88E993E0E7
:100B90000E949D1A8EEB93E00E9447132B013C01AB
:100BA0008BEA93E00E9447134B015C0188E993E0D4
:100BB0000E9447136B017C01A5019401C301B2019E
:100BC0000E94BD34A70196010E94BD342FE832EC8B
:100BD00041EB52E40E94BD346F966CAF7DAF8EAF97
:100BE0009FAF6F976B961FAE1EAE6B9780EA90E03B
:100BF0009A838983CE0101960E949E056A968FAFE3
:100C00006A9781EA90E09A838983CE0101960E94D7
:100C10009E056B968FAF6B9785E480937C008091E7
:100C20007A00806480937A0080917A0086FDFCCF00
:100C3000009178008091790010E0182B8CE00E94E0
:100C4000D01633243394892B09F4312C84E091E0BD
:100C50009A838983CE0101960E949E058093EC02BF
:100C60006EEB71E0CE01CB960E949C2220E030E03A
:100C70004EEF52ECC301B2010E942E33882359F18A
:100C8000CE01CB960E941A1322E0B301A201CE013D
:100C900043960E945A2268E371E0CE0101960E94B9
:100CA0009C22BE016D5E7F4FCE0101960E94EC2119
:100CB000DC0114964D915C9115976D917C91CE015C
:100CC000CB960E94A521CE0101960E945522CE010D
:100CD00043960E94552220E030E04EEF52ECC501D1
:100CE000B4010E942E33882349F1CE01CB960E9495
:100CF0001A1322E0B501A401CE0143960E945A22A4
:100D00006CE371E0CE0101960E949C22BE016D5EF3
:100D10007F4FCE0101960E94EC21FC014481558158
:100D200060817181CE01CB960E94A521CE010196F2
:100D30000E945522CE0143960E94552220E030E0C9
:100D40004EEF52ECC701B6010E942E33882359F1B1
:100D5000CE01CB960E941A1322E0B701A601CE0164
:100D600043960E945A2260E471E0CE0101960E94EF
:100D70009C22BE016D5E7F4FCE0101960E94EC2148
:100D8000DC0114964D915C9115976D917C91CE018B
:100D9000CB960E94A521CE0101960E945522CE013C
:100DA00043960E9455220E94E912F82E8091EC028F
:100DB00065961FAE1EAE659767961FAE1EAE67970F
:100DC00069961FAE1EAE69974AE0BE016F5F7F4F06
:100DD00090E00E949530BE016F5F7F4FCE018D5A2B
:100DE0009F4F0E9427222F961FAE1EAE2F9761960F
:100DF0001FAE1EAE619763961FAE1EAE63974AE0AC
:100E0000BE016F5F7F4F832D90E00E946D30BE0169
:100E10006F5F7F4FCE01835B9F4F0E9427222996F1
:100E20001FAE1EAE29972B961FAE1EAE2B972D968A
:100E30001FAE1EAE2D974AE0BE016F5F7F4FC80107
:100E40000E946D30BE016F5F7F4FCE01895B9F4F67
:100E50000E94272222E06F964CAD5DAD6EAD7FAD56
:100E60006F97CE018F5B9F4F0E945A22BE016F5F2A
:100E70007F4F84E690E00E94DB1DBE016F5F7F4FD5
:100E8000CE0189960E949C2264E471E0CE014396D3
:100E90000E949C22BE01675D7F4FCE0143960E9457
:100EA000EC21BC01CE0189960E943E22CE014396E0
:100EB0000E945522BE016F5F7F4F8CED90E00E9433
:100EC000DB1DBE016F5F7F4FCE0183960E949C2287
:100ED00069E471E0CE0143960E949C22BE016D5DE3
:100EE0007F4FCE0143960E94EC21BC01CE01839638
:100EF0000E943E22CE0143960E9455226FE471E08B
:100F0000CE0143960E949C22BE01675D7F4FCE01B9
:100F100043960E94EC216FE471E00E94D321BE0150
:100F20006D5D7F4F0E94EC216FE471E00E94D32140
:100F300061E571E00E94D32167EE74E00E94EC212C
:100F4000BC01CE018F960E949322CE0143960E944F
:100F50005522CE0183960E945522CE0189960E9489
:100F600055222091AE043091AF046B968EAD9FADAB
:100F70006B971AA619A61CA61BA61EA61DA64AE0BC
:100F8000BE016F5F7F4F820F931F0E949530BE019D
:100F90006F5F7F4FCE0189960E9427228091AE0419
:100FA0009091AF041CA21BA21EA21DA218A61FA2F4
:100FB0004AE0BE016F5F7F4F0E949530BE016F5FB8
:100FC0007F4FCE0183960E9427221C8A1B8A1E8A8D
:100FD0001D8A188E1F8A4AE0BE016F5F7F4F8F2DDA
:100FE00090E00E949530BE016F5F7F4FCE01439627
:100FF0000E94272262E571E0CE0101960E949C22A8
:101000006DEE74E0CE0101960E94EC21BE01655C9C
:101010007F4F0E94EC216FE471E00E94D32166E5CE
:1010200071E00E94D321BE016D5E7F4F0E94EC21D2
:101030006FE471E00E94D32169E571E00E94D32141
:10104000BE016D5D7F4F0E94EC216FE471E00E9454
:10105000D3216CE571E00E94D321BE01675D7F4F13
:101060000E94EC21BE01615D7F4F0E94EC216FE484
:1010700071E00E94D32160E671E00E94D321BE019D
:101080006F5B7F4F0E94EC216FE471E00E94D321DF
:1010900064E671E00E94D321BE01695B7F4F0E942C
:1010A000EC216FE471E00E94D32169E671E00E94B7
:1010B000D321BE01635B7F4F0E94EC216FE471E09E
:1010C0000E94D3216EE671E00E94D321BE016D5AC9
:1010D0007F4F0E94EC21BC01CE01C5960E94932255
:1010E000CE0101960E945522CE0143960E945522C0
:1010F000CE0183960E945522CE0189960E945522E8
:10110000CE018F960E945522CE018F5B9F4F0E9489
:101110005522CE01895B9F4F0E945522CE01835BF1
:101120009F4F0E945522CE018D5A9F4F0E945522FB
:1011300062EB73E08BEF92E00E940C2369AD7AAD15
:1011400080E090E04AE00E94FF108BEF92E00E9466
:101150004523C12CD12C58E0652E7724739464E08C
:10116000862E99249394BE016B5C7F4FCE018F5BDA
:101170009F4F0E9493226FE973E08BEF92E00E94F1
:101180000C2341E060E080E00E9416050BE010E0D7
:1011900065E472E08BEF92E00E946D2362ED71E0F6
:1011A000CE0101960E948A22CE0101960E94580F1C
:1011B000F82ECE0101960E945522FF2009F4DFC0CF
:1011C0006DEB71E08091E5049091E6040E940C23A0
:1011D00068EB74E08091E5049091E6040E94FE22A1
:1011E00062E28091E5049091E6040E94492360ED5B
:1011F00074E0CE0101960E949322CE0101960E94D6
:10120000580FF82ECE0101960E945522FF2009F4B6
:10121000B6C067EA71E08091E5049091E6040E940F
:101220000C236EEB74E08091E5049091E6040E943B
:10123000FE2262E28091E5049091E6040E94492337
:1012400060ED74E0CE0101960E949322CE010196DA
:101250000E94580FF82ECE0101960E945522FF20C1
:1012600009F48DC062E971E08091E5049091E60493
:101270000E940C2364EC74E08091E5049091E604F4
:101280000E94FE2262E28091E5049091E6040E94B1
:10129000492360ED74E0CE0101960E949322CE01B5
:1012A00001960E94580FF82ECE0101960E945522F9
:1012B000FF2009F464C06EE771E08091E50490912D
:1012C000E6040E940C236AEC74E08091E50490919E
:1012D000E6040E94FE2262E28091E5049091E60419
:1012E0000E94492360ED74E0CE0101960E94932292
:1012F000CE0101960E94580FF82ECE0101960E9451
:101300005522FF20E1F188E99AE39093DF0480936E
:10131000DE046FE671E08BEF92E00E940C2381E027
:1013200090E00E94811162E671E0CE0101960E9478
:101330008A22CE0101960E94580FCE0101960E948A
:10134000552280ED97E09093DF048093DE04809136
:10135000EA029091EB02039739F062E370E080E0DB
:1013600090E00E946517F3CF6DE372E08BEF92E09F
:101370000E946D230E94511167E272E021C001506A
:10138000110909F459C26EE072E08BEF92E00E94FD
:101390006D2368EE73E080E090E00E946517809115
:1013A000EA029091EB02039709F0F2CE66E072E058
:1013B0008BEF92E00E946D230E94511160EF71E06B
:1013C0008BEF92E00E946D2386E0E82EF12C90EDE9
:1013D000A92E97E0B92EE0E1F7E2F093DF04E09365
:1013E000DE0463E772E0CE0143960E948A22CE01BA
:1013F00043960E94580F882391F06FE572E0CE016A
:1014000001960E948A22CE0101960E94580F01E0A7
:10141000811100E0CE0101960E94552201C001E039
:10142000CE0143960E9455220023B9F11092A704E1
:10143000B092DF04A092DE0463E771E08BEF92E0EC
:101440000E947F238BEF93E00E942D0F6BEF73E0E0
:10145000CE0143960E949C2269E973E0CE01019679
:101460000E948A22BE016F5F7F4FCE0143960E9489
:101470006C218C01CE0101960E94552217FD19C0E6
:1014800061E873E08BEF92E00E946D2368EE73E0F9
:1014900080E090E00E9465170CC081E08093A70473
:1014A00040EDE42E47E0F42E80910401811113C039
:1014B00030C00E94B41168EE73E080E090E00E94BA
:1014C0006517F1E0EF1AF10809F4B6C1CE014396B1
:1014D0000E94552280CF80EA9FE09093DF048093A2
:1014E000DE046FE772E0CE0101960E948A22CE01EF
:1014F00001960E94580F182FCE0101960E94552286
:10150000113021F4F092DF04E092DE0461E673E032
:101510001DC080EA9FE09093DF048093DE046CE8B6
:1015200072E0CE0101960E948A22CE0101960E94AD
:10153000580F182FCE0101960E945522113021F428
:10154000F092DF04E092DE0460E473E08BEF92E05F
:101550000E946D23809104018823F9F065E771E012
:101560008BEF92E00E947F236FE38BEF92E00E946B
:10157000F722BE016F5B7F4F8BEF92E00E945B23EF
:10158000BE016F5B7F4FCE0101960E949322BE0188
:101590006F5F7F4F85E791E01EC06CE871E08BEFD5
:1015A00092E00E947F236FE38BEF92E00E94F7228C
:1015B000BE016F5B7F4F8BEF92E00E945B23BE0109
:1015C0006F5B7F4FCE0101960E949322BE016F5F39
:1015D0007F4F8CE891E00E944C12CE0101960E9450
:1015E00055228091D7029091D80201969093D8020B
:1015F0008093D7021092D60248E95AE362EA71E07A
:1016000087EA91E00E94D211823020F084E080933A
:10161000A7041EC081111CC06EE28BEF92E00E94F5
:10162000831513E3115041F38091E5049091E60492
:10163000DC01ED91FC910480F581E02D0995892B69
:10164000D9F66FE070E080E090E00E946517EACF85
:101650008091A7048430D9F46DE273E08BEF92E0BF
:101660000E946D238091AE049091AF0401969093F7
:10167000AF048093AE04069718F06DE173E0D2C01A
:1016800068EB7BE080E090E00E9465178EC38BEFF3
:1016900092E00E94452369E972E08091E50490910F
:1016A000E6040E946D2383E08093A7041092B304A4
:1016B0000E949F176093B4047093B5048093B6049E
:1016C0009093B7043AE4F32E6091DC047091DD044A
:1016D00040E157E28DEA91E00E94D2118130A1F7FA
:1016E0001092B30460ED74E0CE0101960E94932243
:1016F00069EB71E0CE0101960E94862181110BC039
:101700000E943E0FBE016F5F7F4F8091E504909174
:10171000E6040E945B230E949F171B012C0110E02E
:101720008091E5049091E604DC01ED91FC91048048
:10173000F581E02D0995892B09F44CC08091E504D1
:101740009091E604DC01ED91FC910680F781E02D9B
:101750000995153950F0E6E4F4E0ABEFB3E09F2DC6
:1017600001900D929A95E1F71AE4EE24E394E10ECC
:10177000E12FF0E0E550FC4F8083EE2DF0E0E550E6
:10178000FC4F10826CEB71E08BEF93E00E947E3691
:10179000892BF9F0CE0101960E9455228BEF93E040
:1017A0000E9418305C0160ED74E0CE0101960E9449
:1017B0009322CE0101960E94580FCE0101960E94FD
:1017C0005522B5E9AB16B104A0F025E9A22EB12C43
:1017D00010C01E2D0E949F17DC01CB0182199309B6
:1017E000A409B50984369105A105B10508F498CF7F
:1017F000D1CFF501E550FC4F1082AB2809F464CF3E
:101800008091A7048430F1F48091AE049091AF04EC
:1018100001969093AF048093AE04069708F430CFFE
:1018200065EF72E08BEF92E00E946D2368EB7BE046
:1018300080E090E00E9465178091AE049091AF0423
:101840000E94DB0F6AEE72E08BEF92E00E940C23A5
:101850008BEF93E00E942D0F6BEF73E0CE018F961C
:101860000E949C2281E08093D6026FE471E0CE0159
:1018700001960E949C22BE016F5F7F4FCE018F9622
:101880000E946C218C01CE0101960E94552217FD09
:1018900099C06FEB71E0CE0101960E949C22BE01BF
:1018A0006F5F7F4FCE018F960E946C219C8B8B8B3C
:1018B000CE0101960E94552263EC71E0CE010196A3
:1018C0000E949C22BE016F5F7F4FCE018F960E94C7
:1018D0006C219E8B8D8BCE0101960E94552267EC68
:1018E00071E0CE0101960E949C22BE016F5F7F4F86
:1018F000CE018F960E946C21988F8F8BCE0101961E
:101900000E9455226BEC71E0CE0101960E949C2250
:10191000BE016F5F7F4FCE018F960E946C219A8F20
:10192000898FCE0101960E9455226FEC71E0CE01A5
:1019300001960E949C22BE016F5F7F4FCE018F9661
:101940000E946C219C8F8B8FCE0101960E945522A4
:1019500063ED71E0CE0101960E949C22BE016F5F93
:101960007F4FCE018F960E946C219E8F8D8FCE016E
:1019700001960E94552267ED71E0CE0101960E940A
:101980009C22BE016F5F7F4FCE018F960E946C211B
:1019900098A38F8FCE0101960E9455228BA99CA9F6
:1019A000892B61F00FA518A963E270E0C8010E94BD
:1019B0006336009719F0801B910B02C08FEF9FEFE9
:1019C0009AA389A3FE0173967F012E01F1E24F0EC7
:1019D000511CD7014D915D917D015A01B5E0AB0ECF
:1019E000B11C4D5F5F4F9501BE01615D7F4FCE0120
:1019F00089960E94B122CE0189960E941F158B0103
:101A0000CB010E948111F70120813181A501BE0126
:101A1000615D7F4FCE0101960E94B12289A59AA5F2
:101A20000097A9F069817A816115710571F04BA564
:101A30005CA52D813E814217530738F00E9477360E
:101A40008D819E819EA78DA712C00E94802F8981C3
:101A50009A819AA789A78B819C819CA78BA78D814E
:101A60009E819EA78DA71A8219821C821B821E82CC
:101A70001D82CE0101960E9455221092D402BE0111
:101A8000675D7F4F8BEF92E00E945B23BE01675D35
:101A90007F4FCE0183960E9493222B961CAE1DAEE3
:101AA0001EAE1FAE2B970330110509F4A2C044F4FB
:101AB0000130110581F00230110509F454C010C144
:101AC0000530110509F4D5C00CF4C7C00630110566
:101AD00009F4DBC005C1CE0183960E941F152B9629
:101AE0006CAF7DAF8EAF9FAF2B970E9442112B96AC
:101AF0008CAD9DADAEADBFAD2B97AC01BD014E51D0
:101B0000510961097109433651456140710500F57C
:101B10004091050150910601609107017091080103
:101B200084179507A607B70799F02091ED022111B8
:101B30000FC08093050190930601A0930701B09315
:101B40000801BE01695B7F4F88EC90E00E94A81DF0
:101B50006091050170910601809107019091080143
:101B60000E944211BDC0BE016F5F7F4F84E690E0CE
:101B70000E94751DCE0101960E942D0FBE016F5F60
:101B80007F4FCE0183960E94862181112FC06DEC7C
:101B900072E08BEF92E00E946D2300E010E08FA1D5
:101BA00098A50817190720F4EBA1FCA1309729F498
:101BB0001092D402E4EDF2E002C0E00FF11F608168
:101BC000C8018C599F4F0E940E1E0F5F1F4F0D3092
:101BD000110529F7BE016F5F7F4F84E690E00E94F8
:101BE000751DCE0101960E942D0F7AC061EC72E046
:101BF00073C0BE016F5F7F4F8CED90E00E94751D3A
:101C0000BE016F5F7F4FCE0183960E9486218111B6
:101C100067C066EB72E08BEF92E00E946D2300E0FC
:101C200010E08FA198A50817190720F4EBA1FCA1DB
:101C3000309729F41092D402E4EDF2E002C0E00FF4
:101C4000F11F6081C80184529F4F0E940E1E0F5FDA
:101C50001F4F0D30110529F743C0CE0183960E9416
:101C60001F156130710581059105D1F51092D502DE
:101C700037C0CE0183960E941F1561307105810522
:101C8000910571F51092ED022BC07A826982CE0126
:101C900001960E949E05811123C0CE0183960E9469
:101CA0001F15162F9A828982CE0101960E949E05E9
:101CB0001817B1F0612F84E091E00E940E1E6CEACB
:101CC00072E08BEF92E00E946D23111103C068EA6D
:101CD00072E002C065EA72E08BEF92E00E946D2331
:101CE000CE0183960E945522CE0189960E945522EC
:101CF000E414F50409F06DCE62EE72E08BEF92E031
:101D00000E940C232090D7023090D802032C000CA4
:101D10004408550857FE0EC06DE28BEF92E00E941A
:101D2000F72266277727CB01621973098409950981
:101D30004AE003C04AE0C201B1010E94FF10809155
:101D4000AE049091AF04892B79F068ED72E08BEFCF
:101D500092E00E940C236091AE047091AF0480E089
:101D600090E04AE00E94FF108BEF92E00E94452332
:101D70006BED71E08BEF92E00E947F236091050193
:101D80007091060180910701909108010E94421113
:101D90000E94B41140E061E080E00E9416050091CD
:101DA000D602CE018F960E945522CE018F5B9F4FA7
:101DB0000E945522011115C02FEFC21AD20A0E94AB
:101DC000101E65EE71E08BEF92E00E947F23C6014A
:101DD0000E94811160ED77E080E090E00E9465173D
:101DE000C2C9CE01C5960E945522CE01CB960E9453
:101DF0005522C25ADF4F0FB6F894DEBF0FBECDBFDB
:101E0000DF91CF911F910F91FF90EF90DF90CF90D6
:101E1000BF90AF909F908F907F906F905F904F900A
:101E20003F902F9008950F931F93CF93DF931F92AE
:101E3000CDB7DEB78C0169830E949E056981681762
:101E400029F0F801808191810E945D34C8010F90D2
:101E5000DF91CF911F910F910895CF93DF93BC0134
:101E60008BEF92E00E943023EC018BEF92E00E9416
:101E700045238C0F9D1FDF91CF9108958091E5043C
:101E80009091E604DC01ED91FC910480F581E02D58
:101E90000995892B61F08091E5049091E604DC01BD
:101EA000ED91FC910680F781E02D0995E7CF08952B
:101EB000CF92DF92EF92FF921F93CF93DF93EC01CB
:101EC00069EB71E00E948621811109C00E943E0FDA
:101ED000BE018091E5049091E6040E945B230E947C
:101EE0009F176B017C01D0E0CAE48091E5049091DA
:101EF000E604DC01ED91FC910480F581E02D09956B
:101F0000892BC1F18091E5049091E604DC01ED910B
:101F1000FC910680F781E02D0995D53950F0E6E473
:101F2000F4E0ABEFB3E09C2F01900D929A95E1F7AE
:101F3000DAE411E01D0FED2FF0E0E550FC4F808357
:101F4000E12FF0E0E550FC4F10826091D6047091D3
:101F5000D7048BEF93E00E947E36892B09F56091C0
:101F6000D8047091D9048BEF93E00E947E36892BC0
:101F7000C9F4D12F0E949F17AB01BC014C195D0918
:101F80006E097F098091DE049091DF04A0E0B0E04B
:101F9000481759076A077B0708F4A7CF80E003C0FA
:101FA00081E001C082E0DF91CF911F91FF90EF901F
:101FB000DF90CF900895CF93DF93CDB7DEB72A9708
:101FC0000FB6F894DEBF0FBECDBF8C0161E085E097
:101FD0000E942917E090E304F090E404FA82E98279
:101FE000CE0101960E949E05898767018FEFC81A6E
:101FF000D80ADA82C982CE0101960E949E058A879C
:102000008091B1049091B2049A838983CE010196A4
:102010000E949E0591E0811101C090E09093B00470
:10202000992399F069857A85600F711F78876F838E
:10203000FA82E982CE0101960E94130F6885DA8246
:10204000C982CE0101960E94130F63E677E0CE01AC
:1020500001960E948A22CE0101960E94580FCE015D
:1020600001960E94552268E577E0CE0101960E9414
:102070008A22CE0101960E94580FCE0101960E943D
:1020800055220FB6F894A8958091600088618093DE
:102090006000109260000FBE61E085E00E94F916BA
:1020A0008EE392E00E942D0F0CE310E068EE73E0E7
:1020B00080E090E00E946517A8956FEF71E08BEFCC
:1020C00092E00E947F230150110981F798E088E196
:1020D0000FB6F894A895809360000FBE90936000AF
:1020E000FFCFEF92FF920F931F93CF93DF9300D018
:1020F000CDB7DEB705E011E0855091407C01970136
:10210000200F311F3A832983CE0101960E949E053C
:10211000F80181938F01F1E009301F0781F785E015
:1021200091E00F900F90DF91CF911F910F91FF9051
:10213000EF900895EF92FF920F931F93CF93DF9349
:1021400000D000D000D0CDB7DEB77C018B0167E4B2
:1021500077E08BEF92E00E946D2361E572E0CE01A3
:1021600001960E949C22B801CE0101960E94EC21AA
:1021700061E272E00E94D32105EE14E0BC01F80197
:10218000808191810E94FE22CE0101960E945522FB
:1021900064EF71E080E090E00E946517B701F801FC
:1021A000808191810E94FE2264EF71E080E090E0E6
:1021B0000E9465176AE1F801808191810E9449239C
:1021C00064EF71E080E090E00E94651765E377E0DE
:1021D0008BEF92E00E946D2360ED77E080E090E06D
:1021E0000E94651726960FB6F894DEBF0FBECDBFCE
:1021F000DF91CF911F910F91FF90EF9008958F92F3
:102200009F92AF92BF920F931F93CF93DF93CDB75F
:10221000DEB7A1970FB6F894DEBF0FBECDBF19A2EF
:10222000423008F44AE08E010F5D1F4F842E912C3E
:10223000A12CB12CA50194010E943D35E62FB901D6
:10224000CA0101501109EA3014F4E05D01C0E95CF3
:10225000D801EC93232B242B252B61F7B8018BEFAE
:1022600092E00E943023A1960FB6F894DEBF0FBE15
:10227000CDBFDF91CF911F910F91BF90AF909F90F5
:102280008F900895CF93DF934AE00E94FF10EC01F6
:102290008BEF92E00E9445238C0F9D1FDF91CF9121
:1022A00008951F93CF93DF9300D000D000D0CDB717
:1022B000DEB788E99AE39093DF048093DE0468E256
:1022C00077E0CE0101960E948A22CE0101960E94FB
:1022D000580F182FCE0101960E945522112331F07C
:1022E00080ED97E09093DF048093DE0481E02696F2
:1022F0000FB6F894DEBF0FBECDBFDF91CF911F9117
:102300000895CF92DF92EF92FF92CF93DF936C010B
:10231000990FEE08FF08F7FE14C06DE28BEF92E014
:102320000E94F722EC0166277727CB016C197D0903
:102330008E099F094AE00E94FF107C01EC0EFD1EF1
:1023400006C04AE0C701B6010E94FF107C018BEF76
:1023500092E00E9445238E0D9F1DDF91CF91FF904B
:10236000EF90DF90CF900895CF93DF9300D000D00F
:1023700000D0CDB7DEB76CE177E0CE0101960E94C8
:102380008A22CE0101960E94580FCE0101960E942A
:10239000552226960FB6F894DEBF0FBECDBFDF9153
:1023A000CF910895DF92EF92FF920F931F93CF93F7
:1023B000DF937C018B01EA018AE4D82E8091E50449
:1023C0009091E604DC01ED91FC910480F581E02D13
:1023D0000995892BE1F18091E5049091E604DC01F7
:1023E000ED91FC910680F781E02D09959091B30461
:1023F000953958F0D092B304E6E4F4E0ABEFB3E0E3
:102400009D2D01900D929A95E1F7A091B304E1E022
:10241000EA0FE093B304B0E0A550BC4F8C93F0E01A
:10242000E550FC4F1082B7018BEF93E00E947E369F
:10243000892B39F50115110509F2B8018BEF93E0ED
:102440000E947E36892B09F4B9CF82E01DC00E941C
:102450009F170091B4041091B5042091B6043091F7
:10246000B704AB01BC01401B510B620B730BCE01D7
:10247000A0E0B0E0481759076A077B0720F083E027
:1024800003C081E001C080E0DF91CF911F910F91E7
:10249000FF90EF90DF900895EF92FF920F931F93BC
:1024A000CF93DF9300D000D000D0CDB7DEB77C0152
:1024B0008B0168E077E08091E5049091E6040E944A
:1024C0000C23B7018091E5049091E6040E947F23DC
:1024D000F80180819181892BD1F562E28091E50438
:1024E0009091E6040E94492364EF71E080E090E05F
:1024F0000E94651760ED74E0CE0101960E94932260
:10250000CE0101960E94580F182FCE0101960E940D
:1025100055221123C1F068EF76E08091E504909197
:10252000E6040E946D2382E08093A7041092B30416
:102530000E949F176093B4047093B5048093B6040F
:102540009093B70413C084E08093A7040FC06FE397
:102550008091E5049091E6040E94F722B8018091F1
:10256000E5049091E6040E94FE22B7CF80E0269613
:102570000FB6F894DEBF0FBECDBFDF91CF911F9194
:102580000F91FF90EF9008951F93CF93DF9300D0AA
:1025900000D000D0CDB7DEB765EE76E0CE01019673
:1025A0000E948A22CE0101960E94580F182FCE0158
:1025B00001960E94552281E0113009F080E02696B4
:1025C0000FB6F894DEBF0FBECDBFDF91CF911F9144
:1025D0000895CF93DF9300D000D000D0CDB7DEB701
:1025E0006EED76E0CE0101960E948A22CE01019620
:1025F0000E94580FCE0101960E9455226BE572E0B1
:102600008BEF93E00E947E36009751F005960E9472
:1026100018308336910521F08F3F2FEF920709F490
:1026200080E026960FB6F894DEBF0FBECDBFDF91D7
:10263000CF91089541E050E06FE471E00C94A52142
:10264000CF93DF93EB01DC011596ED91FC9116978A
:10265000138615861486DF011B9633961E92AE17DD
:10266000BF07E1F7BE01FC01858196810E9419191F
:10267000882349F067E0CE010E9443189F818913A7
:1026800002C081E001C080E0DF91CF9108950F93F7
:102690001F93CF93DF93CDB7DEB761970FB6F89452
:1026A000DEBF0FBECDBF8C01BE01665F7F4F0E94B3
:1026B0002013811105C060E070E08EEF92EC4BC0FA
:1026C000AE014F5F5F4FBE01665F7F4FC8010E9442
:1026D000CC1A882359F1698148E0649FB001112424
:1026E0008A81282F30E0322F2227330F330F330F08
:1026F000262B372B8A858031E1F4688570E08F8145
:10270000AB01481B5109CA019695982F88279795C8
:1027100087950E94293560517109207F53E0220F6F
:10272000331F5A95E1F7620F731F04C060E874EE1F
:1027300001C0B901613854EE75070CF4BCCF072E07
:10274000000C880B990B0E94353320E030E040E00C
:102750005CE30E94943361960FB6F894DEBF0FBE1F
:10276000CDBFDF91CF911F910F9108958F929F92CE
:10277000AF92BF92CF92DF92EF92FF920F931F938F
:10278000CF93DF93CDB7DEB72C970FB6F894DEBFAB
:102790000FBECDBF7C016EEB71E0CE0101960E94B1
:1027A0009C2260E672E0CE0107960E949C22AE0158
:1027B0004F5F5F4FBE01695F7F4FC7010E942520B9
:1027C000CE0107960E945522CE0101960E94552205
:1027D0006EEB71E0CE0101960E949C2261E272E0F4
:1027E000CE0107960E949C22AE014F5F5F4FBE0153
:1027F000695F7F4FC7010E942520CE0107960E9486
:102800005522CE0101960E9455226EEB71E0CE0159
:1028100001960E949C226DEB71E0CE0107960E940A
:102820009C22AE014F5F5F4FBE01695F7F4FC701C2
:102830000E942520CE0107960E945522CE010196C6
:102840000E9455226EEB71E0CE0101960E949C22FF
:1028500065E372E0CE0107960E949C22AE014F5FB5
:102860005F4FBE01695F7F4FC7010E942520CE01E7
:1028700007960E945522CE0101960E945522D7014B
:10288000CD90DC901197C114D10409F443C0149683
:102890000D911C91159701151105E1F146015401A7
:1028A000BFEF8B1A9B0AF5018081082E000C990B53
:1028B0000E941533892B99F7015011090C0D1D1D2C
:1028C000D8018C91082E000C990B0E941533892B8E
:1028D00081F4A8014F5F5F4F4A195B09F7015583E7
:1028E0004483CA14DB0458F4B501C6010E9448367B
:1028F00006C00A151B0568F301501109E1CFD70185
:10290000ED91FC91119714968D919C911597E80F7C
:10291000F91F10822C960FB6F894DEBF0FBECDBF04
:10292000DF91CF911F910F91FF90EF90DF90CF90AB
:10293000BF90AF909F908F900895DF92EF92FF929B
:102940000F931F93CF93DF93CDB7DEB729970FB6C1
:10295000F894DEBF0FBECDBF8C017B01AE014F5F8F
:102960005F4F0E94CC1AD82E882309F459C0F70172
:102970008081803109F454C08FE78D83F80185810F
:1029800096810E94E318B701F801858196810E9423
:10299000921840E06EE4F801858196810E945018FB
:1029A00040E06B81F801858196810E94501840E0DB
:1029B0006C81F801858196810E945018F701808111
:1029C000803139F040E06D81F801858196810E9467
:1029D0005018F801858196810E94E318B701F8012B
:1029E000858196810E949218F801408168E4858172
:1029F00096810E94501864E170E080E090E00E94AF
:102A00006517F8018081882331F06AE070E080E08A
:102A100090E00E946517F801858196810E94E31875
:102A20008D2D29960FB6F894DEBF0FBECDBFDF9176
:102A3000CF911F910F91FF90EF90DF900895FC01CF
:102A400080819181009711F00C94363060E070E045
:102A5000CB010895FC01918D828D981761F0828DD4
:102A6000DF01A80FB11D5D968C91928D9F5F9F73C2
:102A7000928F90E008958FEF9FEF0895FC01918D64
:102A8000828D981731F0828DE80FF11D858D90E0D1
:102A900008958FEF9FEF0895FC01918D228D892F6E
:102AA00090E0805C9F4F821B91098F739927089556
:102AB0008BEF92E00E944C1521E0892B09F420E075
:102AC000822F0895FC01848DDF01A80FB11DA35A48
:102AD000BF4F2C91848D90E001968F739927848F3E
:102AE000A689B7892C93A089B1898C9180648C9335
:102AF000938D848D981306C00288F389E02D808120
:102B00008F7D80830895EF92FF920F931F93CF9351
:102B1000DF93EC0181E0888F9B8D8C8D981305C02D
:102B2000E889F989808185FD24C0F62E0B8D10E09F
:102B30000F5F1F4F0F731127E02E8C8DE8120CC012
:102B40000FB607FCFACFE889F989808185FFF5CFB8
:102B5000CE010E946215F1CF8B8DFE01E80FF11DB1
:102B6000E35AFF4FF0820B8FEA89FB8980818062F4
:102B700007C0EE89FF896083E889F98980818064D4
:102B8000808381E090E0DF91CF911F910F91FF90C2
:102B9000EF900895CF93DF93EC01888D8823C9F0DF
:102BA000EA89FB89808185FD05C0A889B9898C9156
:102BB00086FD0FC00FB607FCF5CF808185FFF2CFF1
:102BC000A889B9898C9185FFEDCFCE010E9462154D
:102BD000E7CFDF91CF91089580E090E0892B29F035
:102BE0000E94581581110C9400000895833081F0E3
:102BF00028F4813099F08230A1F008958730A9F04F
:102C00008830B9F08430D1F4809180008F7D03C08A
:102C1000809180008F7780938000089584B58F77AE
:102C200002C084B58F7D84BD08958091B0008F77F8
:102C300003C08091B0008F7D8093B00008953FB7AE
:102C4000F8948091170590911805A0911905B091FD
:102C50001A0526B5A89B05C02F3F19F00196A11DA6
:102C6000B11D3FBFBA2FA92F982F8827820F911D22
:102C7000A11DB11DBC01CD0142E0660F771F881F69
:102C8000991F4A95D1F7089508950895FC01908100
:102C90000180F281E02D892F809560FF12C0F894A9
:102CA0002281822382838181892B8183A3E2B0E008
:102CB0001197F1F78281982B9283789487ED90E0B9
:102CC00011C0F8942281822382838181892B8183A0
:102CD000AFEFB0E01197F1F78281982B928378944F
:102CE0008FE090E00197F1F7089508950E94433630
:102CF0001F920F920FB60F9211242F933F934F9371
:102D00005F936F937F938F939F93AF93BF93EF9353
:102D1000FF938BEF92E00E946215FF91EF91BF91BC
:102D2000AF919F918F917F916F915F914F913F9163
:102D30002F910F900FBE0F901F9018951F920F921A
:102D40000FB60F9211242F938F939F93EF93FF93BE
:102D5000E0910B03F0910C038081E0911103F0915D
:102D6000120382FD12C09081809114038F5F8F73D4
:102D700020911503821751F0E0911403F0E0E55023
:102D8000FD4F958F8093140301C08081FF91EF91D7
:102D90009F918F912F910F900FBE0F901F901895BC
:102DA000CF93DF93282F30E0F901EB54F74F849154
:102DB000F901E956F84FD491F901ED57F84FC49154
:102DC000CC2391F081110E94F615EC2FF0E0EE0F6C
:102DD000FF1FE758F84FA591B491EC91ED2381E0E6
:102DE00090E021F480E002C080E090E0DF91CF919C
:102DF00008951F93CF93DF93282F30E0F901EB5410
:102E0000F74F8491F901E956F84FD491F901ED5744
:102E1000F84FC491CC23C9F0162F81110E94F615EA
:102E2000EC2FF0E0EE0FFF1FE159F84FA591B491A0
:102E30008FB7F894111105C09C91ED2FE095E9230F
:102E400002C0EC91ED2BEC938FBFDF91CF911F91DE
:102E50000895CF93DF9390E0FC01E956F84F249159
:102E6000FC01ED57F84F8491882361F190E0880FC1
:102E7000991FFC01E555F74FC591D491FC01E1592B
:102E8000F84FA591B491611109C09FB7F89488815A
:102E9000209582238883EC912E230BC0623061F44D
:102EA0009FB7F8943881822F809583238883EC9193
:102EB0002E2B2C939FBF06C08FB7F894E8812E2B42
:102EC00028838FBFDF91CF9108958F929F92AF9209
:102ED000BF92CF92DF92EF92FF926B017C010E9432
:102EE0001F164B015C01C114D104E104F104F1F09F
:102EF0000E941F16DC01CB0188199909AA09BB0998
:102F0000883E9340A105B10570F321E0C21AD108B3
:102F1000E108F10888EE880E83E0981EA11CB11C20
:102F2000C114D104E104F10419F7DDCFFF90EF9053
:102F3000DF90CF90BF90AF909F908F9008952FB764
:102F4000F894609113057091140580911505909186
:102F500016052FBF08951F920F920FB60F921124DE
:102F60002F933F938F939F93AF93BF9380911305BC
:102F700090911405A0911505B09116053091120598
:102F800023E0230F2D3720F40196A11DB11D05C0AC
:102F900026E8230F0296A11DB11D209312058093F0
:102FA000130590931405A0931505B0931605809111
:102FB000170590911805A0911905B0911A05019671
:102FC000A11DB11D8093170590931805A0931905B5
:102FD000B0931A05BF91AF919F918F913F912F911F
:102FE0000F900FBE0F901F9018951F920F920FB663
:102FF0000F9211242F933F934F935F936F937F937F
:103000008F939F93AF93BF93EF93FF93E091020150
:10301000F09103010995FF91EF91BF91AF919F91BD
:103020008F917F916F915F914F913F912F910F9071
:103030000FBE0F901F9018951F920F920FB60F9210
:1030400011242F933F934F935F936F937F938F93AD
:103050009F93AF93BF93EF93FF93E0910001F091A3
:1030600001010995FF91EF91BF91AF919F918F91D0
:103070007F916F915F914F913F912F910F900FBE74
:103080000F901F901895DC01E0E0615038F08D91B1
:10309000E827F0E0E555F84FE491F7CF8E2F08953B
:1030A000CF92DF92EF92FF920F931F93CF93DF9314
:1030B0001F92CDB7DEB76C01E62E08E010E0FF24CA
:1030C000F39461E08F2D8E2109F460E0C6014983FD
:1030D0000E944616FF0C0150110949810115110586
:1030E00081F7411115C0F894D6011196ED91FC912C
:1030F000129791818C918095892381831196ED910E
:10310000FC91129792818C91809589238283789487
:103110000F90DF91CF911F910F91FF90EF90DF9073
:10312000CF900895CF92DF92EF92FF920F931F936B
:10313000CF93DF931F92CDB7DEB78C01F62E40E020
:1031400065E579830E945018CF2C7981D72E7601BE
:1031500088E0E80EF11CF60161916F0140E0C801C2
:103160000E945018CE14DF04B1F70F90DF91CF9179
:103170001F910F91FF90EF90DF90CF900895FC0189
:1031800090810180F281E02DF8948181892B8183E7
:103190002281892F809528232283A7E0B0E0119710
:1031A000F1F7218182238183A3E2B0E01197F1F747
:1031B00080817894EFECF0E03197F1F7982381E08B
:1031C00009F480E00895FC0190810180F281E02DF6
:1031D000F8948181292F20958223818378948DE72B
:1031E00043E050E0815021F1DA011197F1F730818D
:1031F0003923C1F3F8948281822382838181892BD0
:1032000081837894ABE7B7E01197F1F7F894818167
:1032100028232183A3E1B1E01197F1F7808198235E
:1032200081E009F080E07894E3E6F6E03197F1F789
:103230000895AF92BF92CF92DF92EF92FF920F93D9
:103240001F93CF93DF931F92CDB7DEB75C01E62EBD
:10325000D72EFC01858581115DC0C5010E94E31850
:10326000811105C0F5011386158614866BC040E0F8
:1032700060EFC5010E94501801E0F12CC12C11E053
:10328000C5010E94BF18682FC50169830E94BF183D
:103290006981613019F48130B9F433C04F2D50E0A9
:1032A00068131BC0F5018385181730F4E40FF51F70
:1032B0008381802349F402C0181731F060E019308F
:1032C00058F4F501148708C0F501EF0DF11D838155
:1032D000802B838361E009C0C12EF501E40FF51F47
:1032E0009381802F809589238383C5010E94461690
:1032F0001F5F000F11F4F39401E0F7E0FF1508F0F1
:10330000BFCF113438F0F501C386C11015C081E07C
:10331000858712C0F50113861586148680E0D501D5
:103320001396EE2DFD2D9501255F3F4F9D919193B5
:10333000A217B307D9F706C0F5018381882351F39B
:1033400081E0EDCF0F90DF91CF911F910F91FF9012
:10335000EF90DF90CF90BF90AF9008950F931F93A1
:10336000CF93DF93EC01162F60E0812F0E94291785
:10337000612F70E0FB01E956F84FE491E883FB010F
:10338000ED57F84FE491F0E0EE0FFF1FE758F84FCC
:10339000859194919A8389831B861D861C86FE01E4
:1033A0003B968E010D5F1F4F1292E017F107E1F778
:1033B000DF91CF911F910F9108951F920F920FB639
:1033C0000F9211242F933F934F935F936F937F93AB
:1033D0008F939F93AF93BF93EF93FF938091DF02FF
:1033E0009091E0028093B2008091E2029091E3021A
:1033F000A091E402B091E5020196A11DB11D809358
:10340000E2029093E302A093E402B093E5024091BC
:10341000E2025091E3026091E4027091E502809132
:10342000DB029091DC02A091DD02B091DE02481730
:1034300059076A077B07B0F08091E102811112C041
:1034400081E08093E1021092E2021092E302109276
:10345000E4021092E502E091D902F091DA020995B6
:103460001092E102FF91EF91BF91AF919F918F91E7
:103470007F916F915F914F913F912F910F900FBE70
:103480000F901F9018956F927F928F929F92AF929C
:10349000BF92CF92DF92EF92FF920F931F93CF9341
:1034A000DF931F92CDB7DEB78C01F42EFC0185812E
:1034B000968159830E94921840E06EEBF801858155
:1034C00096810E9450186F2C5981752E5301F9E096
:1034D000AF0EB11CF8018580968088E0C82ED12CF3
:1034E000EE24E394F12CC4010E94BF188111FE2840
:1034F000EE0CF1E0CF1AD108B1F7F301F1923F01E0
:10350000EA15FB0539F7F801858196810E94E318D9
:1035100091E0813009F090E0892F0F90DF91CF91F9
:103520001F910F91FF90EF90DF90CF90BF90AF90E1
:103530009F908F907F906F900895CF93DF93EC01D1
:103540008D819E810E94E31840E06CEC8D819E810C
:103550000E945018488164E48D819E810E94501819
:103560008A818823B1F0E981E950E33040F4F0E04A
:10357000EE0FFF1FEE5CFE4F6081718102C06EEEA8
:1035800072E0072E000C880B990BDF91CF910C9401
:103590006517DF91CF910895EF92FF920F931F93DC
:1035A000CF93DF9300D0CDB7DEB78C017A01FC0159
:1035B0008581968169837A830E94E31869817A8183
:1035C000882371F0A701C8010E94431A882341F0A3
:1035D00068E0C7010E94431891E0F701208582133B
:1035E00090E0892F0F900F90DF91CF911F910F9155
:1035F000FF90EF900895CF93DF93CDB7DEB7299773
:103600000FB6F894DEBF0FBECDBFFB012081203185
:10361000D1F0AE014F5F5F4F0E94CC1A882389F032
:103620008D818F3361F020F48F3159F489E00CC023
:103630008F3519F08F3739F004C08BE005C08AE070
:1036400003C080E001C08CE029960FB6F894DEBF7D
:103650000FBECDBFDF91CF9108952091E802309148
:10366000E9022817390771F49091E6028091E70288
:10367000981741F0E091E602F0E0EB5DFA4F8081AF
:1036800090E008958FEF9FEF089508951F93CF93D3
:10369000DF93DC015C962D913C915D9721153105FE
:1036A00039F481E090E013969C938E9312973DC07D
:1036B0005196ED91FC91529750969C915097892F7D
:1036C00080951FB75E964C915E9741FB772770F906
:1036D00041FD6095F8944081772311F0492B01C09A
:1036E00048234083E9012197F1F748E0508160FFCA
:1036F00002C0592B01C058235083E9012197F1F7EB
:103700006695415099F7772321F090818923808332
:1037100003C08081982B90831FBF5C968D919C91F4
:103720005D970197F1F721E030E0C901DF91CF917A
:103730001F9108952091E8023091E9022817390776
:1037400071F48091E7022091E60290E0805C9F4F47
:10375000821B910960E470E00E942935089580E0A1
:1037600090E008952091E8023091E9022817390786
:10377000B9F49091E6028091E702981789F0E09100
:10378000E602F0E0EB5DFA4F80812091E60230E046
:103790002F5F3F4F2F7333272093E60290E0089569
:1037A0008FEF9FEF08950F931F930E949F17A89587
:1037B00000912105109122052091230530912405C7
:1037C0009B01201B310B3093200520931F05609334
:1037D0002105709322058093230590932405809101
:1037E0001F0590912005803F9B403CF080911F0574
:1037F000909120058E3F9B407CF080911F05909119
:10380000200588359340E4F080911F0590912005B4
:103810008636934054F114C082E090E09093EB021E
:103820008093EA0280911D0590911E050196909368
:103830001E0580931D0580911D0590911E0528C0D1
:1038400080911F05909120058F3591409CF18091CA
:103850001F05909120058237914064F583E090E048
:103860009093EB028093EA0225C081E090E0909370
:10387000EB028093EA0280911B0590911C05019652
:1038800090931C0580931B0580911B0590911C054E
:103890008B3F91057CF01092EB021092EA0280912E
:1038A00070008E7F809370008091AE049091AF0481
:1038B0000E94DB0F1F910F910895EF92FF920F93DB
:1038C0001F93CF93DF93CDB7DEB761970FB6F89410
:1038D000DEBF0FBECDBF8C01DC011596ED91FC91D2
:1038E0001697138615861486DF011B9633961E9253
:1038F000AE17BF07E1F7F8011482FF24F394BE016D
:10390000665F7F4FF801858196810E94191988238F
:1039100009F464C067E0CE010A960E9443189989B1
:103920008913EDCFD8018C91811126C015968D9108
:103930009C9116970E94E318BE01665F7F4FF801C5
:10394000858196810E94921840E064EBD80115961B
:103950008D919C9116970E945018F801858196814F
:103960000E94BF18E82ED80115968D919C9116974C
:103970000E94E318EE2079F1F801858196810E947A
:10398000E318882349F0AE014F5F5F4FBE01665FC9
:103990007F4FC8010E94431AD8011196EC90BE01D6
:1039A000665F7F4FC8010E94FB1A8E1518F4F8015C
:1039B000818106C0BE01665F7F4FC8010E94FB1A6D
:1039C000D80111968C93119714968C9114978F5F50
:1039D00014968C9394CFD801FC92CECF61960FB6FB
:1039E000F894DEBF0FBECDBFDF91CF911F910F9135
:1039F000FF90EF9008951F920F920FB60F9211242F
:103A00002F933F934F935F936F937F938F939F93E6
:103A1000AF93BF93EF93FF93E091E802F091E90237
:103A2000309709F451C0968DA685B785858591FF9D
:103A300004C09C91892329F447C09C91892309F0F3
:103A400043C0A389B4899C918589809589238C93EF
:103A5000868997890197F1F7608D718DA685B78565
:103A6000558538E020E0CB010197F1F7822F90E0F7
:103A700095958795282F4C91452309F02068315062
:103A800091F7868D81FD20958091E70290E0019667
:103A90008F7399273091E602381749F0A091E70219
:103AA000B0E0AB5DBA4F2C938093E70203C0868DE4
:103AB0008160868F828D938D0197F1F7A389B489F8
:103AC0009C918589892B8C93FF91EF91BF91AF9148
:103AD0009F918F917F916F915F914F913F912F9126
:103AE0000F900FBE0F901F901895AF92BF92CF927C
:103AF000DF92EF92FF920F931F93CF93DF9300D04B
:103B0000CDB7DEB78B016B0120E1C20ED11C7B016A
:103B10005C01A61AB70A95012E0D3F1D3A83298331
:103B2000CE0101960E949E05F70181937F01EC155D
:103B3000FD0589F7C8010F900F90DF91CF911F917C
:103B40000F91FF90EF90DF90CF90BF90AF900895CE
:103B5000AF92BF92CF92DF92EF92FF920F931F939B
:103B6000CF93DF9300D0CDB7DEB78B016B0124E09C
:103B7000C20ED11C7B015C01A61AB70A95012E0D5D
:103B80003F1DF70161917F013A832983CE010196A0
:103B90000E94130FEC14FD0489F7C8010F900F90D9
:103BA000DF91CF911F910F91FF90EF90DF90CF9019
:103BB000BF90AF900895AF92BF92CF92DF92EF92F5
:103BC000FF920F931F93CF93DF9300D0CDB7DEB753
:103BD0008B016B012FE0C20ED11C7B015C01A61A88
:103BE000B70A95012E0D3F1D3A832983CE01019618
:103BF0000E949E05F70181937F01EC15FD0589F771
:103C0000C8010F900F90DF91CF911F910F91FF90FE
:103C1000EF90DF90CF90BF90AF9008950C945D34FB
:103C20000F931F93CF93DF93CDB7DEB7A8970FB64F
:103C3000F894DEBF0FBECDBF83E692E09093D70429
:103C40008093D6048091DC049091DD049093D90494
:103C50008093D80469EC78E0CE0101960E948A2214
:103C6000CE0101960E94580F182FCE0101960E9496
:103C70005522113009F05FC08091E5049091E6046F
:103C8000DC01ED91FC910480F581E02D0995892BF3
:103C900009F18091E5049091E604DC01ED91FC913D
:103CA0000680F781E02D09958093E1049093E2046A
:103CB00089831A8241E050E0BE016F5F7F4F88EA3E
:103CC00094E00E94A5216AE070E080E090E00E940C
:103CD0006517D2CF8091DA049091DB049093D704DA
:103CE0008093D6048091DC049091DD049093D904F4
:103CF0008093D80461E379E08BEF92E00E940C237B
:103D000068EA74E08BEF92E00E945B236AE672E05F
:103D1000CE0101960E949C22BE016F5F7F4F88EA10
:103D200094E00E946C218C01CE0101960E945522E4
:103D300017FF12C0CEC08091DA049091DB049093FB
:103D4000D7048093D6048091DC049091DD04909395
:103D5000D9048093D804E9C0BE016F5F7F4F84E629
:103D600090E00E94751DBE016F5F7F4FCE0183966C
:103D70000E949C22BE016F5F7F4F8CED90E00E94FD
:103D8000751DBE016F5F7F4FCE014D960E949C2234
:103D900068EE75E0CE0141960E948A22CE014196DE
:103DA0000E94580F182FCE0141960E9455221130C3
:103DB00009F4B4C0BE016D5D7F4F88EA94E00E94B3
:103DC0006C2197FD0AC068E179E08BEF92E00E94D8
:103DD0006D23BE016D5D7F4F12C0BE01635E7F4FDC
:103DE00088EA94E00E946C2197FD23C06EE079E0A0
:103DF0008BEF92E00E946D23BE01635E7F4FCE0188
:103E000047960E94932268EA74E0CE0141960E9490
:103E10009322BE01695E7F4FCE0141960E948123AD
:103E2000CE0141960E945522CE0147960E9455220E
:103E300048C068E079E0CE0141960E948A22BE0126
:103E40006F5E7F4F88EA94E00E946C218C01CE0166
:103E500041960E94552217FD0DC061E084E091E07B
:103E60000E940E1E61E088E091E00E940E1E6EEF3F
:103E700078E023C067EF78E0CE0141960E948A2265
:103E8000BE016F5E7F4F88EA94E00E946C218C0136
:103E9000CE0141960E94552217FD0DC060E084E0DE
:103EA00091E00E940E1E60E088E091E00E940E1EEC
:103EB0006CEE78E002C06EED78E08BEF92E00E944D
:103EC0006D23CE014D960E945522CE0183960E940D
:103ED000552265E772E0CE0101960E949C22BE0148
:103EE0006F5F7F4F88EA94E00E946C218C01CE01C5
:103EF00001960E94552217FD0AC00E94C412882311
:103F000031F063ED78E08BEF92E00E946D236EEB71
:103F100071E088EA94E00E94272207C066E279E017
:103F20008BEF92E00E946D2345CFA8960FB6F894D0
:103F3000DEBF0FBECDBFDF91CF911F910F910895CE
:103F4000CF92DF92EF92FF920F931F93CF93DF9365
:103F50006C017A018B01C0E0D0E0CE15DF0589F05D
:103F6000D8016D918D01D601ED91FC910190F08108
:103F7000E02DC6010995892B11F47E0102C021961E
:103F8000ECCFC701DF91CF911F910F91FF90EF9080
:103F9000DF90CF9008950F931F93CF93DF93EC01A1
:103FA00088819981009729F02A813B81261737075C
:103FB00088F48B016F5F7F4F0E947935009761F025
:103FC000998388831B830A832C813D81232B11F4E1
:103FD000FC01108281E001C080E0DF91CF911F9150
:103FE0000F910895CF93DF93EC0188819981009719
:103FF00011F00E94802F198218821D821C821B8260
:104000001A82DF91CF910895EF92FF920F931F9341
:10401000CF93DF93EC017B018A01BA010E94CB1F91
:10402000811104C0CE010E94F21F07C01D830C83C2
:10403000B701888199810E947736CE01DF91CF91B7
:104040001F910F91FF90EF9008952F923F924F9202
:104050005F926F927F928F929F92AF92BF92CF9218
:10406000DF92EF92FF920F931F93CF93DF9300D0D5
:1040700000D0CDB7DEB7FC01448055804114510417
:1040800009F413C1FB01648075806114710409F4A3
:104090000CC17A016B019C838B83FA01A480B580EB
:1040A000A618B708FC0100811181A114B104C1F464
:1040B000F60160817181C8010E947E365C01892B06
:1040C00009F4F3C0F7016081718144815581C50114
:1040D0000E944836F701048115810A0D1B1DE8CFA7
:1040E000B7FE02C0480106C0FB01208031804201BA
:1040F000C80148C0F60160817181C4010E947E360A
:104100002C01892B29F1320168187908A301B40127
:10411000C8010E944836060D171DF70160817181A4
:1041200044815581C8010E944836F70184819581F8
:10413000080F191FF60184809580840C951CEB8173
:10414000FC81848195818A0D9B1D95838483D2CFC8
:10415000B401C8010F900F900F900F90DF91CF9195
:104160001F910F91FF90EF90DF90CF90BF90AF9095
:104170009F908F907F906F905F904F903F902F9087
:104180000C947736B1010E947E36009729F0860D97
:10419000971D8A0C9B1CF6CF8414950409F485C0E6
:1041A000EB81FC81828193818815990578F4B401B3
:1041B0006F5F7F4FC8010E947935009709F475C081
:1041C000EB81FC819183808393828282EB81FC81ED
:1041D000048115810150110917FD67C0F601248083
:1041E00035802114310409F460C0EB81FC816480C6
:1041F00075806114710409F458C06214730408F4E2
:1042000054C00615170518F0830101501109EB8100
:10421000FC8140805180C20188248A94982C9201AC
:10422000200F311F2817390758F0F601608171817E
:1042300029833A830E947E3629813A81009761F56D
:1042400097FC33C0280C391CC201820D931DA301B9
:1042500042195309BC018A0D9B1D0E945136EB8106
:10426000FC81848195818A0D9B1D958384832081A7
:104270003181F901E80FF91F1082EB81FC81808107
:104280009181F7016081718144815581880D991D6B
:104290000E94483684019ECFAC0144195509041789
:1042A000150708F04A010196BDCF0F900F900F90AF
:1042B0000F90DF91CF911F910F91FF90EF90DF90C2
:1042C000CF90BF90AF909F908F907F906F905F90B6
:1042D0004F903F902F900895CF93DF93FC0124815E
:1042E0003581232B71F0FB01DC01CD91DC916081E4
:1042F0007181CE010E947E36009719F08C1B9D0BB8
:1043000002C08FEF9FEFDF91CF910895FC012481D0
:104310003581232B31F421E061157105A1F0FB01FA
:1043200008C0FC01808191816115710531F421E0A3
:10433000FC018081882339F005C00E946E3621E09F
:10434000892B09F020E0822F0895EF92FF920F93BE
:104350001F93CF93DF93FC01248135816115710593
:1043600011F480E019C041155105A9F07B01EC0161
:104370008A01020F131FB8010E94CB1F882389F303
:10438000288139818C819D81B701820F931F0E9402
:1043900077361D830C8381E0DF91CF911F910F91C0
:1043A000FF90EF900895CF93DF93EC0161157105B5
:1043B00061F0FB0101900020E9F73197AF01461B46
:1043C000570B0E94A521811103C0CE010E94F21F4C
:1043D000CE01DF91CF910895CF93DF93EC01FB01E4
:1043E00044815581608171810E94A521811103C0A2
:1043F000CE010E94F21FCE01DF91CF910895EF927E
:10440000FF920F931F93CF93DF93EC018B01611504
:10441000710551F0CB010E9464307C01BC01CE01DA
:104420000E94CB1F811104C0CE010E94F21F07C061
:10443000FD82EC82B801888199810E945D30CE01B5
:10444000DF91CF911F910F91FF90EF900895CF933F
:10445000DF93EC016115710559F0FB01019000201B
:10446000E9F73197AF01461B570B0E94042002C0A9
:104470000E94F21FCE01DF91CF910895CF93DF9379
:10448000EC01FB018617970761F06081718161156E
:10449000710529F0448155810E94042002C00E94C8
:1044A000F21FCE01DF91CF910895FC0180819181AF
:1044B0000C94802FEF92FF920F931F93CF93DF9373
:1044C000CDB7DEB7A1970FB6F894DEBF0FBECDBF54
:1044D0007C01CB01BA01F701118210821382128292
:1044E0001582148242E0420F8E010F5F1F4F0E941F
:1044F000CB2EBC01C7010E942722A1960FB6F894CB
:10450000DEBF0FBECDBFDF91CF911F910F91FF9006
:10451000EF900895FC01118210821382128215829D
:1045200014820C94FF21FC011182108213821282EA
:10453000158214820C943E22FC0111821082138297
:104540001282158214826115710551F0FB010190F0
:104550000020E9F73197AF01461B570B0C9404205C
:104560000895BF92CF92DF92EF92FF920F931F9325
:10457000CF93DF937C016B018A01E9012417350792
:1045800020F4812F8901C42FD82F6EEB71E0C70171
:104590000E949C22D60114968D919C911597081724
:1045A0001907D0F48C179D0708F4EC01D601ED91A2
:1045B000FC911197EC0FFD1FB08010824D915C9122
:1045C000BA01600F711FC7010E942722D601ED9129
:1045D000FC91EC0FFD1FB082C701DF91CF911F91BD
:1045E0000F91FF90EF90DF90CF90BF900895DC0186
:1045F000ED91FC910190F081E02D0994DC01ED91A9
:10460000FC91DB0114964D915C9115976D917C9115
:104610000280F381E02D0994EF92FF920F931F9394
:10462000CF93DF938C017B01C0E0D0E0F701EC0F6A
:10463000FD1F6491662361F0D801ED91FC9101901A
:10464000F081E02DC8010995892B11F02196EECF5C
:10465000CE01DF91CF911F910F91FF90EF900895C0
:104660006115710579F0FB0101900020E9F73197A0
:10467000AF01461B570BDC01ED91FC910280F381E9
:10468000E02D099480E090E008956CEB71E00C94CB
:1046900030230F931F93CF93DF93EC010E94F722F7
:1046A0008C01CE010E944523800F911FDF91CF9195
:1046B0001F910F9108950F931F93CF93DF93EC01F8
:1046C0000E94FE228C01CE010E944523800F911F83
:1046D000DF91CF911F910F9108950F931F93CF9367
:1046E000DF93EC010E940C238C01CE010E94452334
:1046F000800F911FDF91CF911F910F9108950C941E
:104700003023CF92DF92EF92FF920F931F93CF93BC
:10471000DF93CDB7DEB762970FB6F894DEBF0FBE5A
:10472000CDBF8C017B016CEC79E0CE0101960E943B
:104730008A22BE016F5F7F4FC8010E946C216C010D
:10474000CE0101960E945522D7FC16C088E290E067
:10475000A0E0B0E08093050190930601A0930701CB
:10476000B093080181E08093ED0268E270E080E0A0
:1047700090E00E9442114AC064EC79E0CE010196BB
:104780000E948A22BE016F5F7F4FC8010E946C2188
:104790006C01CE0101960E945522D7FC1CC0B701C6
:1047A0008BEF92E00E94FE226EEF71E08BEF92E0C1
:1047B0000E947F236CEB79E08BEF92E00E946D23E7
:1047C000B701CE0107960E949322B801CE0101964F
:1047D0000E9493224FC064EB79E0CE0101960E94C3
:1047E0008A22BE016F5F7F4FC8010E946C216C015D
:1047F000CE0101960E945522D7FC13C01092ED0203
:104800006CEA79E08BEF92E00E946D23B701CE0154
:1048100007960E949322B801CE0101960E9493222E
:104820000FC166EA79E0CE0101960E948A22BE019C
:104830006F5F7F4FC8010E946C216C01CE01019611
:104840000E945522D7FC31C061E088E790E00E94C9
:104850000E1E6AE979E08BEF92E00E946D23B701AA
:10486000CE0107960E9493226EE772E0CE01019678
:104870000E949C22BE01695F7F4FCE0101960E947B
:104880009A10CE0101960E945522CE0107960E94F1
:10489000552260ED77E080E090E00E9465178091FE
:1048A000AE049091AF040E94DB0F63E979E0CE0182
:1048B00001960E948A22BE016F5F7F4FC8010E944D
:1048C0006C216C01CE0101960E945522D7FC13C0C9
:1048D00060E088E790E00E940E1E66E879E08BEFCA
:1048E00092E00E946D23B701CE0107960E949322A9
:1048F0006AE872E0BBCF62E879E0CE0101960E94DF
:104900008A22BE016F5F7F4FC8010E946C216C013B
:10491000CE0101960E945522D7FC13C061E088E1C8
:1049200091E00E940E1E68E779E08BEF92E00E9412
:104930006D23B701CE0107960E94932267E972E0CA
:104940007BC063E779E0CE0101960E948A22BE0116
:104950006F5F7F4FC8010E946C216C01CE010196F0
:104960000E945522D7FC13C060E088E191E00E94CC
:104970000E1E68E679E08BEF92E00E946D23B7018E
:10498000CE0107960E94932261EA72E055C062E66A
:1049900079E0CE0101960E948A22BE016F5F7F4FAF
:1049A000C8010E946C216C01CE0101960E94552223
:1049B000D7FC18C061E084E091E00E940E1E61E027
:1049C00088E091E00E940E1E68E579E08BEF92E0AE
:1049D0000E946D23B701CE0107960E9493226CEAD4
:1049E00072E02AC061E579E0CE0101960E948A2238
:1049F000BE016F5F7F4FC8010E946C216C01CE0128
:104A000001960E945522D7FC29C060E084E091E025
:104A10000E940E1E60E088E091E00E940E1E66E497
:104A200079E08BEF92E00E946D23B701CE010796EB
:104A30000E94932266EB72E0CE0101960E949C22B6
:104A4000BE01695F7F4FCE0101960E949A10CE0190
:104A500001960E945522CE0107962CC066E379E0AC
:104A60008BEF92E00E946D23B701CE010D960E945C
:104A7000932261EC72E0CE0101960E949C22B80163
:104A8000CE0101960E94EC21BC01CE0107960E9446
:104A90009322BE01635F7F4FCE0107960E949A105A
:104AA000CE0107960E945522CE0101960E94552202
:104AB000CE010D960E94552262960FB6F894DEBF85
:104AC0000FBECDBFDF91CF911F910F91FF90EF905F
:104AD000DF90CF900895CF93DF93CDB7DEB7659782
:104AE0000FB6F894DEBF0FBECDBF789484B5826058
:104AF00084BD84B5816084BD85B5826085BD85B582
:104B0000816085BD80916E00816080936E001092FF
:104B1000810080918100826080938100809181007A
:104B2000816080938100809180008160809380000B
:104B30008091B10084608093B1008091B000816069
:104B40008093B00080917A00846080937A00809195
:104B50007A00826080937A0080917A0081608093ED
:104B60007A0080917A00806880937A001092C10068
:104B70000FB6F894A89580916000886180936000DA
:104B8000109260000FBEE0910B03F0910C0382E0E5
:104B90008083E0910703F09108031082E0910903FC
:104BA000F0910A0380E1808310921303E0910F03D8
:104BB000F091100386E08083E0910D03F0910E03E5
:104BC000808180618083E0910D03F0910E038081EC
:104BD00088608083E0910D03F0910E0380818068EE
:104BE0008083E0910D03F0910E0380818F7D80839F
:104BF00065E876E08BEF92E00E946D2361E086E04D
:104C00000E94291760E086E00E94F91661E08DE0BD
:104C10000E94291761E085E00E94291761E08AE07F
:104C20000E94291761E08FE00E94291761E08EE061
:104C30000E94291760E083E00E94291760E089E064
:104C40000E94291760E08CE00E94291761E08CE047
:104C50000E94F91661E082E10E94291761E082E179
:104C60000E94F91640E060E081E00E9416056CE2C7
:104C700071E080E090E00E94651740E061E080E034
:104C80000E9416056CE271E080E090E00E946517DA
:104C900041E060E080E00E9416056CE271E080E097
:104CA00090E00E94651740E060E081E00E941605F8
:104CB0008DEE93E09093C4038093C3031092C203DC
:104CC0001092BE0399E09093BF0381E08093C003EC
:104CD0008093C1032FED33E03093B1032093B003F1
:104CE0001092AF031092AB039093AC038093AD038B
:104CF0008093AE0321ED33E030939E0320939D0318
:104D000010929C03109298039093990380939A03B6
:104D100080939B038EEB93E00E945D1C8BEA93E0F3
:104D20000E945D1C88E993E00E945D1CBE016F5FDC
:104D30007F4F8EEB93E00E942013882339F0BE0151
:104D40006F5F7F4F8EEB93E00E949D14BE016F5FFB
:104D50007F4F8BEA93E00E942013882339F0BE0135
:104D60006F5F7F4F8BEA93E00E949D14BE016F5FDF
:104D70007F4F88E993E00E942013882339F0BE0119
:104D80006F5F7F4F8BEA93E00E949D1468E873E1A8
:104D900080E090E00E94651799E288E10FB6F894F0
:104DA000A895809360000FBE909360001A861986C4
:104DB0008E01075F1F4FC8010E949E05863209F4CD
:104DC00073C062E776E08BEF92E00E946D23C12C06
:104DD000D12C60E0C6010E940E1E2FEFC21AD20A2B
:104DE0003FEFC31633E0D306A1F766E280E090E020
:104DF0000E940E1E65E071E088EC90E00E94A81D04
:104E000081E0A82E82E0B82E94E6C92ED12CD501DF
:104E10006D915D01DA86C986C8010E94130FBFEF4C
:104E2000CB1ADB0AE1E7CE16D10489F7AEE0AA2E51
:104E3000A2E0BA2EBCEDCB2ED12CD5016D915D0137
:104E4000DA86C986C8010E94130FBFEFCB1ADB0AAE
:104E5000EBEECE16D10489F761E088E790E00E947E
:104E60000E1E64E676E08BEF92E00E946D23C12C6B
:104E7000D12C6C2D8EE091E00E940E1EC6010E9486
:104E8000811168EE73E080E090E00E946517FFEF0B
:104E9000CF1ADF0A2FE0C216D10459F763E576E096
:104EA0008BEF92E00E946D238EE091E09A878987D4
:104EB000C8010E949E058B3018F066E476E002C0BF
:104EC00063E376E08BEF92E00E946D2383ED9BE13C
:104ED0009093030180930201809169008C6080931C
:104EE0006900E99A88EC90E00E94711088E790E0F0
:104EF0009A878987C8010E949E0591E0811101C0AF
:104F000090E09093040165E276E08BEF92E00E94DE
:104F10000C23609105017091060180910701909129
:104F200008010E94421166E176E08BEF92E00E9458
:104F30000C238091650590916605009711F489E630
:104F400095E0A801481B590BCA010E94811180916C
:104F500070008E7F809370008091B0008C7F809372
:104F6000B0008091B100877F8093B1008091B6003E
:104F70008F7D8093B600809170008D7F809370004C
:104F80008091B10084608093B1008091B1008C7FEA
:104F90008093B10086E090E09093E0028093DF027E
:104FA0008CE291E0A0E0B0E08093DB029093DC0221
:104FB000A093DD02B093DE028FE295E09093DA02D7
:104FC0008093D9021092E2021092E3021092E4025E
:104FD0001092E5021092E1028091DF029091E002CE
:104FE0008093B200809170008160809370005DECCE
:104FF000252E312C65E5462E512C7BEC872E912CED
:10500000E0E96E2E712CEE24E394F3EFAF2EF4E082
:10501000BF2E60EC75E08BEF92E00E946D2360E0A4
:1050200086E00E94F91660E08DE00E94F91661E0CA
:1050300085E00E94F91689E00E94D016892B39F08C
:1050400064E670E080E090E00E946517F4CF68EEBF
:1050500073E080E090E00E94651761E08DE00E94BF
:10506000F91660E085E00E94F91668EE73E080E0D2
:1050700090E00E94651761E086E00E94F91660EBFF
:1050800074E080E090E00E94651760E086E00E9496
:10509000F91645E6C42ED12C89E00E94D016892B42
:1050A00061F451E0C51AD10809F4D4C364E670E094
:1050B00080E090E00E946517EFCF60EB75E08BEF2A
:1050C00092E00E946D2310920E0510920D05109231
:1050D0000C0510920B0510920A05109209053092EA
:1050E000100520920F058091FF04863108F053C00F
:1050F00050920A054092090590920C0580920B058A
:1051000070920E0560920D0590916800883058F0FD
:1051100021E08E3008F420E0AE2D01C0AA0F2A95C0
:10512000EAF72A2F01C024E0922B90936800883080
:1051300038F08E3040F0863148F020E030E008C092
:105140002DE630E005C02BE630E002C02CE630E072
:105150003093070520930605883038F4BE2D01C032
:10516000BB0F8A95EAF78B2F0EC0282F30E08E30C8
:1051700018F42850310902C02E5031098E2D01C07B
:10518000880F2A95EAF78093080580910F05909182
:1051900010050197F1F780910D0590910E05892B6F
:1051A00039F1E091E802F091E90224E0E33FF207EF
:1051B000F9F0309739F0A389B4899C91858980955D
:1051C00089238C93809111058E7F80931105109215
:1051D000E7021092E602B092E902A092E802E091A2
:1051E0000605F0910705908180910805892B808341
:1051F000B092E604A092E5043EE0C32ED12C80914B
:10520000E5049091E604DC01ED91FC910480F581C8
:10521000E02D0995892B61F08091E5049091E604D9
:10522000DC01ED91FC910680F781E02D0995E7CF37
:105230006AE174E0C8010E948A22C8010E94580FE6
:10524000282FC8012D8B0E9455222D8921113DC088
:1052500064EF71E080E090E00E946517B1E0CB1A46
:10526000D10869F667E174E0C8010E948A22C8018A
:105270000E94580FC8010E94552264E670E080E049
:1052800090E00E94651764E174E0C8010E948A22E0
:10529000C8010E94580FC8010E94552264E670E0C0
:1052A00080E090E00E94651761E174E0C8010E940F
:1052B0008A22C8010E94580FC8010E94552264E644
:1052C00070E080E090E00E9465176EE074E0C80135
:1052D0000E948A22C8010E94580FD82EC8010E943D
:1052E0005522DD2009F4BCC261E074E0C8010E94CF
:1052F0008A22C8010E94580FC8010E94552264E604
:1053000070E080E090E00E9465176CEF73E0C801E8
:105310000E948A22C8010E94580FC8010E9455228B
:1053200064E670E080E090E00E94651762EF73E051
:10533000C8010E948A22C8010E94580FC8010E9419
:10534000552264E670E080E090E00E94651768EE08
:1053500073E0C8010E948A22C8010E94580FC80148
:105360000E94552264E670E080E090E00E9465179C
:105370006EED73E0C8010E948A22C8010E94580F96
:10538000C8010E94552264E670E080E090E00E942F
:10539000651760ED73E0C8010E948A22C8010E946F
:1053A000580FC8010E94552264E670E080E090E04A
:1053B0000E94651764E670E080E090E00E94651747
:1053C00062EC73E0C8010E948A22C8010E94580F53
:1053D000C8010E94552263E975E08BEF92E00E94BC
:1053E0006D2365E775E08BEF92E00E940C238091BE
:1053F000EA029091EB02029769F063E775E08BEFA8
:1054000092E00E940C2368EE73E080E090E00E943E
:105410006517EDCF68EE73E080E090E00E946517BD
:105420006DE174E0C8010E948A22C8010E94580FF1
:10543000D82EC8010E945522E1E0DE122AC06DE09C
:1054400070E08BEF93E00E946336009711F16C01DE
:10545000F2E0CF0ED11C6DE070E0C6010E94633611
:10546000009711F0DC011C92B6018BEF93E00E94D3
:1054700077366CE675E08BEF92E00E940C238DEEA0
:1054800094E00E94B6136DEE74E08BEF92E00E9400
:105490005B2364E274E0C8010E948A22C8010E9472
:1054A000580FD82EC8010E945522B1E0DB1241C02E
:1054B0006DE070E08BEF93E00E9463360097C9F1D6
:1054C0006C01E2E0CE0ED11C6DE070E0C6010E94DE
:1054D0006336009711F0DC011C92B6018BEF93E06C
:1054E0000E947736EBEFF3E08191863661F090ED24
:1054F000980F9A3020F4DF01AB56BF4F8C93B4E085
:10550000E337FB0789F761E675E08BEF92E00E94D5
:105510000C2361E974E087EE94E00E94272287EE75
:1055200094E00E94B61367EE74E08BEF92E00E9465
:105530005B232EE1D22E6CE274E0C8010E948A2225
:10554000C8010E94580FC82EC8010E945522CC20C5
:1055500059F06DE172E08BEF93E00E947E36009788
:1055600019F0FC01F28009C068EE73E080E090E081
:105570000E946517DA94D110DECF60E575E08BEFFD
:1055800092E00E940C236F2D8BEF92E00E94F72295
:105590006DE475E08BEF92E00E940C23F0E3FF12C4
:1055A00003C06DE375E00BC021E3F21203C06AE2B1
:1055B00075E01BC032E3F31207C06EE075E08BEFBD
:1055C00092E00E946D2325CD43E3F41203C066E010
:1055D00075E0F5CF54E3F51203C06DEF74E0EFCF43
:1055E00085E3F8123AC269EE74E08BEF92E00E9414
:1055F0006D238091EA029091EB02029709F009CDA8
:105600000E94E912F82E61EE74E08BEF92E00E94A6
:105610000C236F2D70E080E090E04AE00E94FF10C4
:105620008BEF92E00E94452368EE73E080E090E00B
:105630000E94651761ED74E08BEF92E00E946D238C
:1056400068EC74E0C8010E948A22C8010E94580FC9
:10565000F82EC8010E94552291E0F912BDC060E207
:1056600072E08BEF93E00E947E36009709F4B4C09D
:105670007C01A2E0EA0EF11C62E270E0C7010E9428
:105680006336009711F0FC011082B7018BEF93E0B5
:105690000E9477366BEF73E0CE010F960E949C223A
:1056A00064EC74E0C8010E948A22B801CE010F9612
:1056B0000E946C217C01C8010E945522F7FC21C088
:1056C00064EB74E088EB94E00E94FF2160EB74E0EF
:1056D0008EEB94E00E94FF216CEA74E084EC94E08D
:1056E0000E94FF216CE974E08AEC94E00E94FF21A3
:1056F00068E974E08BEF92E00E946D231092E00461
:1057000061C064E974E0C8010E948A22B801CE0138
:105710000F960E946C217C01C8010E945522F7FC63
:1057200020C060E874E088EB94E00E94FF2168E705
:1057300074E08EEB94E00E94FF2160E774E084EC5B
:1057400094E00E94FF216CE574E08AEC94E00E94F2
:10575000FF2164E574E08BEF92E00E946D2381E00D
:105760002FC06FE474E0C8010E948A22B801CE0104
:105770000F960E946C217C01C8010E945522F7FC03
:1057800021C066E474E088EB94E00E94FF216EEB98
:1057900071E08EEB94E00E9427226EEB71E084ECC6
:1057A00094E00E9427226DE374E08AEC94E00E946A
:1057B000FF2165E374E08BEF92E00E946D2382E0AD
:1057C0008093E00468EB74E08BEF92E00E945B232F
:1057D000CE010F960E94552263E176E08BEF92E0B6
:1057E0000E946D230E94C412882331F064E076E0A9
:1057F0008BEF92E00E946D230E94A30580917000C0
:105800008E7F8093700040E061E080E00E9416058A
:105810000E949F176093EE027093EF028093F00254
:105820009093F10262EF75E08BEF92E00E946D239E
:105830008E010F5F1F4F88EE882E83E0982EA12CDB
:10584000B12C94E0292E3324339489E00E94D016A1
:10585000892B69F48091AE049091AF040E94DB0F14
:1058600066E975E08BEF92E00E946D23FFCF0E9406
:10587000101E0E949F172B013C018091ED028111A7
:1058800004C088EC90E00E9471108091F702909122
:10589000F802A091F902B091FA0273016201C81AEC
:1058A000D90AEA0AFB0A20910501309106014091CC
:1058B000070150910801A8EEB3E00E946B34C616B0
:1058C000D706E806F906E0F160ED76E08BEF92E0AE
:1058D0000E940C238091F7029091F802A091F902A6
:1058E000B091FA02A3019201281B390B4A0B5B0B02
:1058F000CA01B901A50194010E943D35CA01B9014F
:105900000E9442114092F7025092F8026092F9020E
:105910007092FA020E94A30561EC76E08BEF92E0B0
:105920000E940C2340916505509166054115510573
:1059300011F449E655E0C801841B950B0E948111C2
:105940000E949F172B013C018091F3029091F40279
:10595000A091F502B091F602A3019201281B390B28
:105960004A0B5B0BDA01C90180369C4CA540B1059E
:1059700080F16EEA76E08BEF92E00E940C2380913A
:10598000F3029091F402A091F502B091F602A30106
:105990009201281B390B4A0B5B0BCA01B901A50107
:1059A00094010E943D35CA01B9010E94421141E0B3
:1059B00060E080E00E9416054092F3025092F402EB
:1059C0006092F5027092F60240E061E080E00E9491
:1059D00016053A822982C8010E949E058093EC0236
:1059E0009091F2028917D1F091E0811101C090E00D
:1059F0009093F202811108C063EA76E08BEF92E0A7
:105A00000E946D2361E007C069E976E08BEF92E0C8
:105A10000E946D2360E082E10E94F9160E949F17A8
:105A20004090EE025090EF026090F0027090F10210
:105A3000DC01CB0184199509A609B70981309C4581
:105A4000A642B54008F006CF64EF71E080E090E038
:105A50000E9465170E94EC15F8CE41E3F412D9CAF2
:105A6000C8CD1092FE021092FD0288EE93E0A0E0F5
:105A7000B0E08093FF0290930003A0930103B093E2
:105A8000020323E131E03093FC022093FB0225EC7A
:105A900030E0309308032093070324EC30E0309388
:105AA0000A032093090320EC30E030930C03209389
:105AB0000B0321EC30E030930E0320930D0322EC16
:105AC00030E03093100320930F0326EC30E0309346
:105AD00012032093110310921403109215031092D5
