:100000000C94F4040C94CA080C94A3080C94EF0B01
:100010000C94EF0B0C94EF0B0C941C050C941C052A
:100020000C941C050C941C050C941C050C941C05CC
:100030000C941C050C941C050C941C050C941C05BC
:100040000C9459080C941C050C944C070C9426072E
:100050000C941C050C941C050C941C050C941C059C
:100060000C941C050C941C054750525320636F6E72
:100070006E656374204F4B212D004661696C656489
:1000800020696E69742047505253000A47505253FA
:1000900020636F6E6E656374204F4B212B004750B9
:1000A000525320636F6E6E656374202E2E00727340
:1000B0007369202E2E000A52656769737465726534
:1000C0006420726F616D696E67000A5265676973BB
:1000D00074657265642028686F6D6529003A200098
:1000E0000A4E6574776F726B207374617475732038
:1000F000000A53657474696E67207570206E6574AC
:10010000776F726B2E2E2E000A536F6674776172B2
:10011000652072656C656173653A000A53494D202C
:10012000434349443A000A494D45493A004F4B0080
:10013000436F756C646E27742066696E64206D6F02
:1001400064756C65204750525300506F776572207C
:1001500053494D383030204F6E00496E69746961E3
:100160006C697A696E672E2E2E2E284D6179207467
:10017000616B6520352D3130207365636F6E64735C
:1001800029000A53494D383030207365747570204A
:10019000656E6400416C6C20534D532064656C6542
:1001A0007465000A485454505F73736C3A20736549
:1001B00074204F46462066616C736521000A4854DE
:1001C00054505F73736C3A20736574204F46462019
:1001D0007375636365737366756C6C7921000A4887
:1001E0005454505F73736C3A20736574204F4E20E3
:1001F00066616C736521000A485454505F73736CD8
:100200003A20736574204F4E207375636365737372
:1002100066756C6C7921000A66726565206D656D86
:100220006F72793A2000534D535F63656E74657247
:10023000202E2E00496E74657276616C20736563A2
:100240003A00436C65617220454550524F4D204540
:100250006E6400537461727420636C656172204532
:100260004550524F4D000A4E6F20696E7465726E94
:10027000657420636F6E6E656374696F6E004552BE
:10028000524F52004F4B000A2053494D3830302016
:100290007365747570207374617274002045727296
:1002A0006F72733A00546F74616C3A006E6F206322
:1002B0006F6D70617265006E6F20636F6D7061723B
:1002C00065005B5061796C6F61645D200054686506
:1002D000206E756D626572206F662073657276653B
:1002E00072206572726F72732065786365656465EC
:1002F00064203230004E756D626572206F66207426
:1003000072616E736D697373696F6E206572726F5F
:10031000727320657863656564656400436F6E6E13
:10032000656374206572726F7200526571756573D2
:1003300074696E672000496E74657276616C207016
:10034000696E67207365633A000A66726565206DA1
:10035000656D6F72793A2000496E74657276616CD2
:10036000207365633A00534D532064656C65746572
:100370000070686F6E652069676E6F726564005308
:100380004D532063656E747200436F6D6D616E64D2
:10039000612074656C3100534D533A00556E6B6E9D
:1003A0006F776E20636F6D6D616E640048545450BA
:1003B0002053534C204F46460053736C6F666600C3
:1003C000485454502053534C204F4E0053736C6F7D
:1003D0006E0054696D656F66660054696D656F6681
:1003E0006600526573746172740052657374617251
:1003F000740054696D6573657400534D53206465D2
:100400006C657465002E2E204F6B21002E2E206609
:10041000616C7365210050696E67202D3E200000DD
:100420005EBCE2613FDD83C29C7E20A3FD1F419D37
:10043000C3217FFCA2401E5F01E3BD3E6082DC233E
:100440007D9FC1421CFEA0E1BF5D0380DE3C62BE19
:10045000E0025CDF81633D7C22C09E1D43A1FF461C
:1004600018FAA427799BC584DA3866E5BB5907DBFF
:10047000856739BAE406581947A5FB7826C49A65FA
:100480003BD987045AB8E6A7F91B45C6987A24F8E1
:10049000A6441A99C7257B3A6486D85B05E7B98CD0
:1004A000D2306EEDB3510F4E10F2AC2F7193CD11CF
:1004B0004FADF3702ECC92D38D6F31B2EC0E50AFA6
:1004C000F1134DCE90722C6D33D18F0C52B0EE32B1
:1004D0006C8ED0530DEFB1F0AE4C1291CF2D73CA8C
:1004E000947628ABF517490856B4EA6937D58B5787
:1004F00009EBB536688AD495CB2977F4AA4816E972
:10050000B7550B88D6346A2B7597C94A14F6A87468
:100510002AC896154BA9F7B6E80A54D7896B350057
:10052000000000240027002A0041540041542B43BE
:100530004D4744413D2244454C20414C4C22004112
:10054000542B434D47443D310041542B434D4752BA
:100550003D31002B43495050494E470041542B43F5
:10056000495050494E473D220041542B4349465380
:10057000520041542B43494943520041542B4353A9
:1005800054543D22696E7465726E65742200455242
:10059000524F52004353513A200041542B4349508B
:1005A00053485554000D0A004572726F72002B4873
:1005B000545450524541443A200041542B4854541D
:1005C000505245414400302C363000302C3230300F
:1005D0000041542B48545450414354494F4E3D30F0
:1005E0000041542B48545450504152413D225552E1
:1005F0004C222C220041542B48545450414354491E
:100600004F4E3D300041542B4854545050415241BC
:100610003D2255524C222C220041542B4854545018
:10062000504152413D22434944222C310041542B38
:1006300048545450494E49540041542B4854545046
:100640005445524D0041542B43495047534D4C4F54
:10065000433D312C31004552524F520D004F4B0D4E
:100660000041542B434F50533F0041542B47534EAE
:100670000041542B43504D533D22534D222C2253C5
:100680004D222C22534D220041542B434D47463DD1
:10069000310041542B53415042523D322C310041E4
:1006A000542B53415042523D312C310041542B4385
:1006B0004744434F4E543D312C224950222C2200B6
:1006C00041542B53415042523D332C312C22505730
:1006D00044222C220041542B53415042523D332C92
:1006E000312C2255534552222C220041542B534188
:1006F0005042523D332C312C2241504E222C2200AC
:1007000041542B474D520041542B43434944004D23
:10071000454741464F4E00696E7465726E657400C0
:100720004D656761466F6E006265656C696E650058
:10073000696E7465726E65742E6265656C696E654E
:100740002E7275004265656C696E65006D7473008C
:100750004D545300696E7465726E65742E6D7473BA
:100760002E72750041542B53415042523D332C316F
:100770002C22436F6E74797065222C22475052539D
:10078000220041542B43474154543F0041542B43D2
:1007900053510041542B435245473F0041542B4392
:1007A0004E4D493D322C320041542B435343533D6F
:1007B0002247534D220041542B434C49503D3100B8
:1007C00041542B434D47463D310041542B43465540
:1007D0004E3D310041542B4950523D313932303079
:1007E000004154453000E107D407CA07C007B607E7
:1007F000A8079C0793078C078207640754075007D4
:100800004C07440730072807200717070F0707077B
:100810000007EB06D506C006AC069F0692068806C2
:1008200071066A0661065D065606450639062D06FE
:1008300019060506F505E105D105CB05C605BA057E
:10084000AE05A805A5059A0594058E057B057205DC
:1008500069055C05530549053F052C052905000080
:100860000000250028002B000000000023002600C7
:100870002900040404040404040402020202020223
:100880000303030303030102040810204080010254
:1008900004081020010204081020000000080002D3
:1008A00001000003040700000000000000004E41AA
:1008B0004E494E495459494E46CDCCCC3D0AD723DA
:1008C0003C17B7D13877CC2B329595E6241FB14F22
:1008D0000A000020410000C84200401C4620BCBE67
:1008E0004CCA1B0E5AAEC59D7400407A10F35A00D4
:1008F000A0724E18090010A5D4E80000E876481749
:100900000000E40B54020000CA9A3B000000E1F52D
:1009100005000080969800000040420F000000A0F3
:100920008601000000102700000000E8030000001E
:10093000006400000000000A000000000001000048
:100940000000002C76D888DC674F0823DFC1DFAEBB
:1009500059E1B1B796E5E3E453C63AE65199769684
:10096000E8E6C28426EB898C9B62ED407C6FFCEF4D
:10097000BC9C9F40F2BAA56FA5F490055A2AF75C7B
:10098000936B6CF9676DC11BFCE0E40D47FEF5202D
:10099000E6B500D0ED902E030094357705008084F5
:1009A0001E080000204E0A000000C80C3333333309
:1009B0000F986E12831141EF8D2114893BE6551675
:1009C000CFFEE6DB18D1844B381BF77C1D901DA4AD
:1009D000BBE424203284725E228100C9F124ECA1A0
:1009E000E53D2700EE29AA2911241FBECFEFD8E04C
:1009F000DEBFCDBF12E0A0E0B1E0E2E7F9E602C061
:100A000005900D92A635B107D9F724E0A6E5B2E02E
:100A100001C01D92A83CB207E1F714E0C3EFD4E097
:100A200004C02197FE010E94742BC23FD107C9F771
:100A30000E94EA180C94AC340C940000FC01918DD7
:100A4000828D981761F0828DDF01A80FB11D5D9630
:100A50008C91928D9F5F9F73928F90E008958FEF9E
:100A60009FEF0895FC01918D828D981731F0828D52
:100A7000E80FF11D858D90E008958FEF9FEF0895A9
:100A8000FC01918D228D892F90E0805C9F4F821B0D
:100A900091098F739927089589ED92E00E9440058E
:100AA00021E0892B09F420E0822F0895FC01848D38
:100AB000DF01A80FB11DA35ABF4F2C91848D90E088
:100AC00001968F739927848FA689B7892C93A08963
:100AD000B1898C9180648C93938D848D981306C01A
:100AE0000288F389E02D80818F7D80830895EF92C5
:100AF000FF920F931F93CF93DF93EC0181E0888FD8
:100B00009B8D8C8D981305C0E889F989808185FDBE
:100B100024C0F62E0B8D10E00F5F1F4F0F731127AF
:100B2000E02E8C8DE8120CC00FB607FCFACFE889D6
:100B3000F989808185FFF5CFCE010E945605F1CF5E
:100B40008B8DFE01E80FF11DE35AFF4FF0820B8FF2
:100B5000EA89FB898081806207C0EE89FF89608312
:100B6000E889F98980818064808381E090E0DF9169
:100B7000CF911F910F91FF90EF900895CF93DF9346
:100B8000EC01888D8823C9F0EA89FB89808185FD85
:100B900005C0A889B9898C9186FD0FC00FB607FCE6
:100BA000F5CF808185FFF2CFA889B9898C9185FF27
:100BB000EDCFCE010E945605E7CFDF91CF9108958A
:100BC00080E090E0892B29F00E944C0581110C9463
:100BD000000008953FB7F8948091D5029091D60215
:100BE000A091D702B091D80226B5A89B05C02F3F8F
:100BF00019F00196A11DB11D3FBFBA2FA92F982F43
:100C00008827820F911DA11DB11DBC01CD0142E0BD
:100C1000660F771F881F991F4A95D1F70895089589
:100C20000895FC0190810180F281E02DF89481818A
:100C3000892B81832281892F809528232283A7E015
:100C4000B0E01197F1F7218182238183A3E2B0E024
:100C50001197F1F780817894EFECF0E03197F1F79C
:100C6000982381E009F480E00895FC0190810180DF
:100C7000F281E02D892F809560FF12C0F8942281C7
:100C8000822382838181892B8183A3E2B0E0119743
:100C9000F1F78281982B9283789487ED90E011C0D0
:100CA000F8942281822382838181892B8183AFEF13
:100CB000B0E01197F1F78281982B928378948FE0BE
:100CC00090E00197F1F7089508952091580230912E
:100CD00059022817390771F49091560280915702F2
:100CE000981741F0E0915602F0E0E057FD4F808107
:100CF00090E008958FEF9FEF089508951F93CF938D
:100D0000DF93DC015C962D913C915D9721153105B7
:100D100039F481E090E013969C938E9312973DC036
:100D20005196ED91FC91529750969C915097892F36
:100D300080951FB75E964C915E9741FB772770F9BF
:100D400041FD6095F8944081772311F0492B01C053
:100D500048234083E9012197F1F748E0508160FF83
:100D600002C0592B01C058235083E9012197F1F7A4
:100D70006695415099F7772321F0908189238083EC
:100D800003C08081982B90831FBF5C968D919C91AE
:100D90005D970197F1F721E030E0C901DF91CF9134
:100DA0001F91089520915802309159022817390750
:100DB00071F4809157022091560290E0805C9F4F21
:100DC000821B910960E470E00E942A2B089580E064
:100DD00090E0089520915802309159022817390760
:100DE000B9F49091560280915702981789F0E091DA
:100DF0005602F0E0E057FD4F80812091560230E02E
:100E00002F5F3F4F2F7333272093560290E00895B2
:100E10008FEF9FEF08950E94B12CE8E5F8E065910F
:100E200074918DE694E00E94AB2E20ED37E04CE704
:100E300051E061E471E083E292E00E943110813080
:100E400021F48AEF93E00C94231008951F920F92DF
:100E50000FB60F9211242F933F934F935F936F938D
:100E60007F938F939F93AF93BF93EF93FF9389EDFE
:100E700092E00E945605FF91EF91BF91AF919F9133
:100E80008F917F916F915F914F913F912F910F9033
:100E90000FBE0F901F9018951F920F920FB60F92D2
:100EA00011242F938F939F93EF93FF93E091E90287
:100EB000F091EA028081E091EF02F091F00282FD70
:100EC00012C090818091F2028F5F8F732091F302A4
:100ED000821751F0E091F202F0E0E752FD4F958F5A
:100EE0008093F20201C08081FF91EF919F918F91D9
:100EF0002F910F900FBE0F901F901895833081F0A7
:100F000028F4813099F08230A1F008958730A9F05B
:100F10008830B9F08430D1F4809180008F7D03C097
:100F2000809180008F7780938000089584B58F77BB
:100F300002C084B58F7D84BD08958091B0008F7705
:100F400003C08091B0008F7D8093B00008951F93FF
:100F5000CF93DF93282F30E0F901E656F74F8491C5
:100F6000F901EA57F74FD491F901EE58F74FC491C0
:100F7000CC23C9F0162F81110E947E07EC2FF0E0E0
:100F8000EE0FFF1FE25AF74FA591B4918FB7F89477
:100F9000111105C09C91ED2FE095E92302C0EC9161
:100FA000ED2BEC938FBFDF91CF911F910895CF93DD
:100FB000DF9390E0FC01EA57F74F2491FC01EE58D3
:100FC000F74F8491882361F190E0880F991FFC010D
:100FD000E15EFA4FC591D491FC01E25AF74FA59119
:100FE000B491611109C09FB7F8948881209582233C
:100FF0008883EC912E230BC0623061F49FB7F89484
:101000003881822F809583238883EC912E2B2C931B
:101010009FBF06C08FB7F894E8812E2B28838FBF1F
:10102000DF91CF9108958F929F92AF92BF92CF920E
:10103000DF92EF92FF926B017C010E94EA054B0167
:101040005C01C114D104E104F104F1F00E94EA054D
:10105000DC01CB0188199909AA09BB09883E934094
:10106000A105B10570F321E0C21AD108E108F10829
:1010700088EE880E83E0981EA11CB11CC114D10417
:10108000E104F10419F7DDCFFF90EF90DF90CF90EE
:10109000BF90AF909F908F9008952FB7F894609174
:1010A000D1027091D2028091D3029091D4022FBFCD
:1010B00008951F920F920FB60F9211242F933F9312
:1010C0008F939F93AF93BF938091D1029091D2025F
:1010D000A091D302B091D4023091D00223E0230F2B
:1010E0002D3720F40196A11DB11D05C026E8230F60
:1010F0000296A11DB11D2093D0028093D10290933E
:10110000D202A093D302B093D4028091D5029091E1
:10111000D602A091D702B091D8020196A11DB11DAF
:101120008093D5029093D602A093D702B093D802B1
:10113000BF91AF919F918F913F912F910F900FBED3
:101140000F901F9018951F920F920FB60F921124B7
:101150002F933F934F935F936F937F938F939F93BF
:10116000AF93BF93EF93FF93E0910201F0910301DE
:101170000995FF91EF91BF91AF919F918F917F91D1
:101180006F915F914F913F912F910F900FBE0F90F4
:101190001F9018951F920F920FB60F9211242F9344
:1011A0003F934F935F936F937F938F939F93AF93EF
:1011B000BF93EF93FF93E0910001F0910101099536
:1011C000FF91EF91BF91AF919F918F917F916F911F
:1011D0005F914F913F912F910F900FBE0F901F90F5
:1011E0001895DC01E0E0615038F08D91E827F0E0DF
:1011F000E15EFB4FE491F7CF8E2F0895CF92DF92FF
:10120000EF92FF920F931F93CF93DF931F92CDB76F
:10121000DEB76C01E62E08E010E0FF24F39461E0F5
:101220008F2D8E2109F460E0C60149830E943506A6
:10123000FF0C0150110949810115110581F7411178
:1012400015C0F894D6011196ED91FC9112979181F9
:101250008C918095892381831196ED91FC91129751
:1012600092818C9180958923828378940F90DF916D
:10127000CF911F910F91FF90EF90DF90CF90089545
:10128000CF92DF92EF92FF920F931F93CF93DF9352
:101290001F92CDB7DEB78C01F62E40E065E579836D
:1012A0000E94FE08CF2C7981D72E760188E0E80EC7
:1012B000F11CF60161916F0140E0C8010E94FE0837
:1012C000CE14DF04B1F70F90DF91CF911F910F91F2
:1012D000FF90EF90DF90CF900895FC019081018006
:1012E000F281E02DF8948181292F2095822381833A
:1012F00078948DE743E050E0815021F1DA011197B5
:10130000F1F730813923C1F3F894828182238283FB
:101310008181892B81837894ABE7B7E01197F1F74E
:10132000F894818128232183A3E1B1E01197F1F79B
:101330008081982381E009F080E07894E3E6F6E08C
:101340003197F1F70895AF92BF92CF92DF92EF926B
:10135000FF920F931F93CF93DF931F92CDB7DEB70A
:101360005C01E62ED72EFC01858581115DC0C5018B
:101370000E946D09811105C0F5011386158614863A
:101380006BC040E060EFC5010E94FE0801E0F12C57
:10139000C12C11E0C5010E941106682FC5016983A7
:1013A0000E9411066981613019F48130B9F433C0AB
:1013B0004F2D50E068131BC0F5018385181730F4DA
:1013C000E40FF51F8381802349F402C0181731F020
:1013D00060E0193058F4F501148708C0F501EF0DED
:1013E000F11D8381802B838361E009C0C12EF5014B
:1013F000E40FF51F9381802F809589238383C50196
:101400000E9435061F5F000F11F4F39401E0F7E02E
:10141000FF1508F0BFCF113438F0F501C386C110B5
:1014200015C081E0858712C0F501138615861486E4
:1014300080E0D5011396EE2DFD2D9501255F3F4FE0
:101440009D919193A217B307D9F706C0F501838147
:10145000882351F381E0EDCF0F90DF91CF911F9161
:101460000F91FF90EF90DF90CF90BF90AF900895D5
:101470006F927F928F929F92AF92BF92CF92DF92A4
:10148000EF92FF920F931F93CF93DF931F92CDB7ED
:10149000DEB78C01F42EFC018581968159830E9470
:1014A000400940E06EEBF801858196810E94FE08BC
:1014B0006F2C5981752E5301F9E0AF0EB11CF80164
:1014C0008580968088E0C82ED12CEE24E394F12C00
:1014D000C4010E9411068111FE28EE0CF1E0CF1A22
:1014E000D108B1F7F301F1923F01EA15FB0539F795
:1014F000F801858196810E946D0991E0813009F0A3
:1015000090E0892F0F90DF91CF911F910F91FF9065
:10151000EF90DF90CF90BF90AF909F908F907F9093
:101520006F9008950F931F93CF93DF93EC01162FC5
:1015300060E0812F0E94D707612F70E0FB01EA571E
:10154000F74FE491E883FB01EE58F74FE491F0E0A8
:10155000EE0FFF1FE859F74F859194919A83898385
:101560001B861D861C86FE013B968E010D5F1F4F5C
:101570001292E017F107E1F7DF91CF911F910F91E0
:101580000895CF93DF93EC018D819E810E946D09B8
:1015900040E06CEC8D819E810E94FE08488164E4ED
:1015A0008D819E810E94FE088A818823B1F0E981A5
:1015B000E950E33040F4F0E0EE0FFF1FE25FFE4F32
:1015C0006081718102C06EEE72E0072E000C880B04
:1015D000990BDF91CF910C941308DF91CF9108956F
:1015E000EF92FF920F931F93CF93DF9300D0CDB76D
:1015F000DEB78C017A01FC018581968169837A834B
:101600000E946D0969817A81882371F0A701C80160
:101610000E94380A882341F068E0C7010E94F1085F
:1016200091E0F7012085821390E0892F0F900F90B1
:10163000DF91CF911F910F91FF90EF900895CF937D
:10164000DF93CDB7DEB729970FB6F894DEBF0FBE94
:10165000CDBFFB0120812031D1F0AE014F5F5F4F44
:101660000E94F00A882389F08D818F3361F020F485
:101670008F3159F489E00CC08F3519F08F3739F06C
:1016800004C08BE005C08AE003C080E001C08CE0AC
:1016900029960FB6F894DEBF0FBECDBFDF91CF9174
:1016A0000895EF92FF920F931F93CF93DF93CDB7DF
:1016B000DEB761970FB6F894DEBF0FBECDBF8C01C9
:1016C000DC011596ED91FC9116971386158614860C
:1016D000DF011B9633961E92AE17BF07E1F7F801A4
:1016E0001482FF24F394BE01665F7F4FF801858169
:1016F00096810E94A309882309F464C067E0CE01A3
:101700000A960E94F10899898913EDCFD8018C912E
:10171000811126C015968D919C9116970E946D0996
:10172000BE01665F7F4FF801858196810E94400966
:1017300040E064EBD80115968D919C9116970E941C
:10174000FE08F801858196810E941106E82ED801D5
:1017500015968D919C9116970E946D09EE2079F156
:10176000F801858196810E946D09882349F0AE01B8
:101770004F5F5F4FBE01665F7F4FC8010E94380A0E
:10178000D8011196EC90BE01665F7F4FC8010E94A0
:101790001F0B8E1518F4F801818106C0BE01665F2B
:1017A0007F4FC8010E941F0BD80111968C9311978F
:1017B00014968C9114978F5F14968C9394CFD801C4
:1017C000FC92CECF61960FB6F894DEBF0FBECDBFB0
:1017D000DF91CF911F910F91FF90EF9008951F928D
:1017E0000F920FB60F9211242F933F934F935F9355
:1017F0006F937F938F939F93AF93BF93EF93FF93D9
:10180000E0915802F0915902309709F451C0968D39
:10181000A685B785858591FF04C09C91892329F40D
:1018200047C09C91892309F043C0A389B4899C9146
:101830008589809589238C93868997890197F1F70B
:10184000608D718DA685B785558538E020E0CB0188
:101850000197F1F7822F90E095958795282F4C916D
:10186000452309F02068315091F7868D81FD209540
:101870008091570290E001968F739927309156021C
:10188000381749F0A0915702B0E0A057BD4F2C93F4
:101890008093570203C0868D8160868F828D938DE1
:1018A0000197F1F7A389B4899C918589892B8C9341
:1018B000FF91EF91BF91AF919F918F917F916F9128
:1018C0005F914F913F912F910F900FBE0F901F90FE
:1018D0001895CF92DF92EF92FF920F931F93CF93C1
:1018E000DF93EB017B0120E1E20EF11C8B016C0127
:1018F000C61AD70AC601800F911F0E944534F8010D
:1019000081938F01EE15FF05A9F7CE01DF91CF91ED
:101910001F910F91FF90EF90DF90CF9008950F935C
:101920001F93CF93DF938C01EB010E944534888392
:10193000C80101960E9445348983CE01DF91CF9181
:101940001F910F9108950C944D344F925F926F92B6
:101950007F928F929F92AF92BF92CF92DF92EF923F
:10196000FF920F931F93CF93DF93C0E0D0E088EFF7
:10197000482E87E0582E9CE4692E98E0792E0EE4DC
:1019800018E020E5E22E28E0F22E32E5C32E38E002
:10199000D32E44E5A42E48E0B42E5AE4852E58E018
:1019A000952E86E194E00E9402106DE272E089EDCE
:1019B00092E00E94E818F201659174918DE694E03E
:1019C0000E94AB2E40E050E068EE73E08DE694E0BC
:1019D0000E94E51068EE73E080E090E00E9413083A
:1019E000F301659174918DE694E00E94AB2E40E086
:1019F00050E068EE73E08DE694E00E94E51068EE3A
:101A000073E080E090E00E941308F8016591749102
:101A10008DE694E00E94AB2E40E050E068EE73E06B
:101A20008DE694E00E94E51068EE73E080E090E0BF
:101A30000E941308F701659174918DE694E00E946D
:101A4000AB2E40E050E068EB7BE08DE694E00E9436
:101A5000E51068EE73E080E090E00E941308F60164
:101A6000659174918DE694E00E94AB2E6DE674E072
:101A70008091A1049091A2040E94E8186DE272E0A6
:101A80008091A1049091A2040E94E8188091A10481
:101A90009091A2040E94D210F501659174918DE697
:101AA00094E00E94AB2EF401659174918BE894E070
:101AB0000E94AB2E28EB3BE04BE854E06DE674E06F
:101AC00080E090E00E943110813091F08CE094E051
:101AD0000E9423102196C830D1051CF0E0E0F0E010
:101AE000099568EE73E080E090E00E94130859CFFA
:101AF00085E094E0DF91CF911F910F91FF90EF90DF
:101B0000DF90CF90BF90AF909F908F907F906F901D
:101B10005F904F900C942310CF92DF92EF92FF9240
:101B20000F931F93CF93DF9300D000D000D0CDB799
:101B3000DEB78C017B0162EF73E0CE0101960E945B
:101B40005218BE016F5F7F4FC8010E9430176C01B1
:101B5000CE0101960E94F017D7FC16C088E290E0F3
:101B6000A0E0B0E08093040190930501A0930601EA
:101B7000B093070181E080935C0268E270E080E04E
:101B800090E00E94E71198C06AEE73E0CE010196E2
:101B90000E945218BE016F5F7F4FC8010E9430172C
:101BA0006C01CE0101960E94F017D7FC0EC0B70160
:101BB00089ED92E00E94AF1863E172E089ED92E056
:101BC0000E94E81882EE93E034C06AED73E0CE0123
:101BD00001960E945218BE016F5F7F4FC8010E949C
:101BE00030177C01CE0101960E94F017F7FC07C068
:101BF00010925C0282ED93E00E9423105BC06CECBB
:101C000073E0CE0101960E945218BE016F5F7F4FB4
:101C1000C8010E9430177C01CE0101960E94F01786
:101C2000F7FC15C061E088E790E00E94A30C80EC0F
:101C300093E00E9423100E940D0760ED77E080E0A2
:101C400090E00E941308E0E0F0E0099535C069EBF0
:101C500073E0CE0101960E945218BE016F5F7F4F64
:101C6000C8010E9430178C01CE0101960E94F01726
:101C700017FD08C060E088E790E00E94A30C8CEAA2
:101C800093E0D7CF8CE993E00E942310E8E5F8E0D9
:101C9000659174918DE694E00E94AB2E20ED37E0C3
:101CA0004CE751E061E471E083E292E00E94311080
:101CB000813011F40E940D0726960FB6F894DEBF0E
:101CC0000FBECDBFDF91CF911F910F91FF90EF908D
:101CD000DF90CF9008951F93CF93DF931F92CDB7DE
:101CE000DEB7162F682F8AE049830E94A707612F6D
:101CF0008EE00E94A7074981642F8FE00F90DF914B
:101D0000CF911F910C94A7070F931F930E944D082A
:101D1000A89500918C0210918D0220918E02309135
:101D20008F029B01201B310B30938B0220938A0280
:101D300060938C0270938D0280938E0290938F0239
:101D400080918A0290918B02803F9B403CF0809171
:101D50008A0290918B028E3F9B4084F080918A0290
:101D600090918B028835934014F180918A02909172
:101D70008B02863693400CF479C019C082E090E063
:101D800090935B0280935A0280918802909189021D
:101D900001969093890280938802809188029091A5
:101DA0008902459764F0E0E0F0E0099508C0809171
:101DB0008A0290918B028F3591400CF048C080913F
:101DC0005A0290915B020197E1F4209184023091D4
:101DD000850281E090E0232B11F080E090E0909369
:101DE000850280938402809184029091850240E074
:101DF000892B19F460E081E002C061E080E00E947C
:101E00006B0E80915A0290915B02029709F046C0D6
:101E1000209184023091850281E090E0232B11F023
:101E200080E090E090938502809384028091840208
:101E300090918502892B21F440E060E081E003C0AD
:101E400041E060E080E01F910F910C946B0E809157
:101E50008A0290918B02823791400CF0B0CF83E0E0
:101E600090E090935B0280935A02A9CF81E090E0CA
:101E700090935B0280935A02809186029091870230
:101E800001969093870280938602809186029091BA
:101E90008702893791050CF492CF85CF1F910F915E
:101EA0000895EF92FF920F931F93CF93DF931F92AA
:101EB000CDB7DEB77C01FC0100811181C8016983C7
:101EC0000E9445346981681719F0C8010E944D3499
:101ED000C7010F90DF91CF911F910F91FF90EF906D
:101EE0000895EF92FF920F931F93CF93DF9300D04B
:101EF000CDB7DEB78C017B01FB0160819A838983BA
:101F0000CE0101960E94510FF70161810F5F1F4FB3
:101F10001A830983CE0101960E94510FC7010F90C9
:101F20000F90DF91CF911F910F91FF90EF90089547
:101F3000CF93DF9300D0CDB7DEB7BE016F5F7F4F89
:101F400080EA90E00E948F0C89819A8101969A83A1
:101F50008983BE016F5F7F4F80EA90E00E94710F1E
:101F60000F900F90DF91CF910895FC01248135816E
:101F7000FB01448155812417350721F5FC0180813F
:101F80009181FB0160817181009719F061157105E4
:101F9000A1F46115710549F0232BB1F0FB0180819B
:101FA00090E09195819591090AC0009769F0232BE3
:101FB00059F0FC01808190E002C00E94DC2C21E0FD
:101FC000892B19F020E001C021E081E082270895EB
:101FD0008091A1049091A204DC01ED91FC91048018
:101FE000F581E02D0995892B61F08091A1049091F4
:101FF000A204DC01ED91FC910680F781E02D0995AA
:10200000E7CF08950F931F93CF93DF938C01C0E028
:10201000D0E0F801EC0FFD1F6491662371F0E091B0
:10202000D902F091DA020190F081E02D89ED92E081
:102030000995892B11F02196ECCFCE01DF91CF913C
:102040001F910F910895CF93DF930E940210EC012E
:1020500089ED92E00E94D2188C0F9D1FDF91CF91E5
:1020600008954F925F926F927F929F92AF92BF922C
:10207000CF92DF92EF92FF920F931F93CF93DF9354
:10208000EC018B015A016901892B49F00E94E80F8C
:10209000BE018091A1049091A2040E94D6180E94D2
:1020A0004D082B013C01C0E0D7E2E12CF12C8091DE
:1020B000A1049091A204DC01ED91FC910480F581D2
:1020C000E02D0995892B99F18091A1049091A204AA
:1020D000DC01ED91FC910680F781E02D0995CF346C
:1020E00050F0EFE1F4E0A7EFB3E09D2F01900D92E7
:1020F0009A95E1F7C7E2992493949C0EEC2FF0E0B7
:10210000E950FC4F8083E92DF0E0E950FC4F10824C
:10211000B80187EF93E00E94FB2C892BC1F4B50135
:1021200087EF93E00E94FB2C892B99F4C92D0E9424
:102130004D08DC01CB0184199509A609B7098C1556
:102140009D05AE05BF0508F4B2CF80E003C081E075
:1021500001C082E0DF91CF911F910F91FF90EF902E
:10216000DF90CF90BF90AF909F907F906F905F90E7
:102170004F900895EAE5F8E0659174918DE694E05A
:102180000E94AB2E20ED37E04CE751E061E471E0B6
:102190008BE392E00E94311091E0813009F090E0F1
:1021A000892F08950F931F93CF93DF93EC0162E281
:1021B0000E94A8188C01CE010E94D218800F911F96
:1021C000DF91CF911F910F9108957F928F929F92EF
:1021D000AF92BF92CF92DF92EF92FF920F931F9335
:1021E000CF93DF938C016B01EA01892B49F00E94A8
:1021F000E80FB8018091A1049091A2040E94D61822
:102200000E944D084B015C0100E017E2E12CF12C2B
:102210008091A1049091A204DC01ED91FC910480D5
:10222000F581E02D0995892B89F18091A104909188
:10223000A204DC01ED91FC910680F781E02D099567
:102240000F3450F0EFE1F4E0A7EFB3E0912F0190ED
:102250000D929A95E1F707E277247394700EE02FC0
:10226000F0E0E950FC4F8083E72DF0E0E950FC4FAF
:102270001082209711F0BE0102C061E471E087EF87
:1022800093E00E94FB2C892B89F4072D0E944D08B6
:10229000DC01CB0188199909AA09BB098C159D0598
:1022A000AE05BF0508F4B4CF80E001C0872DDF91F3
:1022B000CF911F910F91FF90EF90DF90CF90BF9043
:1022C000AF909F908F907F9008950F931F93CF931F
:1022D000DF93C4E0D1E08C0104501140C8018C0FA1
:1022E0009D1F0E944534899381E0C830D807B1F71B
:1022F00084E091E0DF91CF911F910F9108958F922B
:102300009F92AF92BF920F931F93CF93DF93CDB75E
:10231000DEB7A1970FB6F894DEBF0FBECDBF19A2EE
:10232000423008F44AE08E010F5D1F4F842E912C3D
:10233000A12CB12CA50194010E943E2BE62FB901DE
:10234000CA0101501109EA3014F4E05D01C0E95CF2
:10235000D801EC93232B242B252B61F7B80189EDB1
:1023600092E00E94BD18A1960FB6F894DEBF0FBE92
:10237000CDBFDF91CF911F910F91BF90AF909F90F4
:102380008F900895CF93DF93FC01448155814115CF
:102390005105D1F04230510518F461E070E002C0FF
:1023A00062E070E0EC0188819981461B570B5D83E8
:1023B0004C83680F791F0E94EC2CE881F9818C8195
:1023C0009D81E80FF91F1082DF91CF910895CF937F
:1023D000DF934AE00E947F11EC0189ED92E00E94B8
:1023E000D2188C0F9D1FDF91CF910895FF920F930C
:1023F0001F93CF93DF938C01EB0187E2F82E80913E
:10240000A1049091A204DC01ED91FC910480F5817E
:10241000E02D0995892BD9F18091A1049091A20416
:10242000DC01ED91FC910680F781E02D09959091FA
:102430004E049F3458F0F0924E04EFE1F4E0A7EF21
:10244000B3E09F2D01900D929A95E1F7A0914E0473
:10245000E1E0EA0FE0934E04B0E0A950BC4F8C934A
:10246000F0E0E950FC4F1082B80187EF93E00E9442
:10247000FB2C892B19F5209711F2BE0187EF93E011
:102480000E94FB2C892B09F4BACF82E01AC00E946B
:102490004D0800914F041091500420915104309147
:1024A0005204DC01CB01801B910BA20BB30B8031DA
:1024B0009742A105B10520F083E003C081E001C08F
:1024C00080E0DF91CF911F910F91FF9008950F93BE
:1024D0001F93CF93DF938C01EB01E6E3F8E0659166
:1024E00074918DE694E00E94AB2E6DE674E08091CD
:1024F000A1049091A2040E94E818B8018091A1045F
:102500009091A2040E94E81888819981892BD1F5C5
:102510008091A1049091A2040E94D21064EF71E016
:1025200080E090E00E94130840E050E060ED77E02A
:1025300080E090E00E94E510882301F1E8E3F8E0F4
:10254000659174918DE694E00E94AB2E6DE674E087
:102550008091A1049091A2040E94D61882E08093F9
:10256000470410924E040E944D0860934F047093EC
:102570005004809351049093520413C084E08093DC
:1025800047040FC06FE38091A1049091A2040E94C0
:10259000A818BE018091A1049091A2040E94AF18D6
:1025A000B7CF80E0DF91CF911F910F910895CF9326
:1025B000DF93BC0189ED92E00E94AF18EC0189ED38
:1025C00092E00E94D2188C0F9D1FDF91CF91089549
:1025D000CF92DF92EF92FF92CF93DF936C01990F2E
:1025E000EE08FF08F7FE14C06DE289ED92E00E944C
:1025F000A818EC0166277727CB016C197D098E0995
:102600009F094AE00E947F117C01EC0EFD1E06C06E
:102610004AE0C701B6010E947F117C0189ED92E07A
:102620000E94D2188E0D9F1DDF91CF91FF90EF90E9
:10263000DF90CF900895E6EFF7E0659174918DE615
:1026400094E00E94AB2E40E050E060ED77E08DE634
:1026500094E00E94E5106EE472E087EF93E00E9440
:10266000FB2C009759F005960E94662E8336910543
:1026700029F08F3F2FEF920709F0089580E090E056
:102680000895CF93DF93EB01DC011596ED91FC915A
:102690001697138615861486DF011B9633961E92B5
:1026A000AE17BF07E1F7BE01FC01858196810E944C
:1026B000A309882349F067E0CE010E94F1089F81B9
:1026C000891302C081E001C080E0DF91CF910895BD
:1026D0000F931F93CF93DF93CDB7DEB761970FB6FC
:1026E000F894DEBF0FBECDBF8C01BE01665F7F4F89
:1026F0000E944113811105C060E070E08EEF92EC02
:102700004BC0AE014F5F5F4FBE01665F7F4FC80198
:102710000E94F00A882359F1698148E0649FB00162
:1027200011248A81282F30E0322F2227330F330FD4
:10273000330F262B372B8A858031E1F4688570E0D2
:102740008F81AB01481B5109CA019695982F8827A4
:10275000979587950E942A2B60517109207F53E03D
:10276000220F331F5A95E1F7620F731F04C060E810
:1027700074EE01C0B901613854EE75070CF4BCCF9A
:10278000072E000C880B990B0E94253320E030E0C7
:1027900040E05CE30E94843361960FB6F894DEBF9C
:1027A0000FBECDBFDF91CF911F910F9108958F92F2
:1027B0009F92AF92BF92CF92DF92EF92FF920F93D0
:1027C0001F93CF93DF93CDB7DEB72C970FB6F89456
:1027D000DEBF0FBECDBF7C0169EF71E0CE01019677
:1027E0000E94931863E572E0CE0107960E94931849
:1027F000AE014F5F5F4FBE01695F7F4FC7010E940F
:10280000E915CE0107960E94F017CE0101960E94AD
:10281000F01769EF71E0CE0101960E94931869E408
:1028200071E0CE0107960E949318AE014F5F5F4F93
:10283000BE01695F7F4FC7010E94E915CE0107966F
:102840000E94F017CE0101960E94F01769EF71E027
:10285000CE0101960E94931868EF71E0CE010796B1
:102860000E949318AE014F5F5F4FBE01695F7F4FBB
:10287000C7010E94E915CE0107960E94F017CE010C
:1028800001960E94F01769EF71E0CE0101960E9457
:10289000931863E471E0CE0107960E949318AE018D
:1028A0004F5F5F4FBE01695F7F4FC7010E94E9150F
:1028B000CE0107960E94F017CE0101960E94F017F4
:1028C000D701CD90DC901197C114D10409F443C015
:1028D00014960D911C91159701151105E1F1460112
:1028E0005401BFEF8B1A9B0AF5018081082E000C62
:1028F000990B0E94ED32892B99F7015011090C0DAB
:102900001D1DD8018C91082E000C990B0E94ED32F0
:10291000892B81F4A8014F5F5F4F4A195B09F701CA
:1029200055834483CA14DB0458F4B501C6010E94E0
:10293000B62C06C00A151B0568F301501109E1CF3A
:10294000D701ED91FC91119714968D919C9115975B
:10295000E80FF91F10822C960FB6F894DEBF0FBE59
:10296000CDBFDF91CF911F910F91FF90EF90DF903E
:10297000CF90BF90AF909F908F900895CF92DF92AD
:10298000EF92FF920F931F93CF93DF936C017A0125
:102990008B01C0E0D0E0CE15DF0589F0D8016D9144
:1029A0008D01D601ED91FC910190F081E02DC601E1
:1029B0000995892B11F47E0102C02196ECCFC70145
:1029C000DF91CF911F910F91FF90EF90DF90CF900B
:1029D00008950F931F93CF93DF93EC018881998122
:1029E000009729F02A813B812617370788F48B014D
:1029F0006F5F7F4F0E94E72B009761F09983888378
:102A00001B830A832C813D81232B11F4FC0110824E
:102A100081E001C080E0DF91CF911F910F91089577
:102A2000CF93DF93EC0188819981009711F00E9488
:102A3000CA2D198218821D821C821B821A82DF9184
:102A4000CF910895EF92FF920F931F93CF93DF934F
:102A5000EC017B018A01BA010E94E914811104C0D2
:102A6000CE010E94101507C01D830C83B701888119
:102A700099810E94E52CCE01DF91CF911F910F919A
:102A8000FF90EF900895CF93DF93E3EAF8E084910D
:102A9000EFE8F8E0D491EBE7F8E0C491CC2391F0B3
:102AA00081110E947E07EC2FF0E0EE0FFF1FE85926
:102AB000F74FA591B491EC91ED2381E090E021F4E2
:102AC00080E002C080E090E0DF91CF910895DF9236
:102AD000EF92FF920F931F93CF93DF93CDB7DEB7A3
:102AE00029970FB6F894DEBF0FBECDBF8C017B01D6
:102AF000AE014F5F5F4F0E94F00AD82E882309F481
:102B000059C0F7018081803109F454C08FE78D836B
:102B1000F801858196810E946D09B701F8018581D0
:102B200096810E94400940E06EE4F801858196811B
:102B30000E94FE0840E06B81F801858196810E9429
:102B4000FE0840E06C81F801858196810E94FE08B4
:102B5000F7018081803139F040E06D81F801858195
:102B600096810E94FE08F801858196810E946D0978
:102B7000B701F801858196810E944009F8014081E2
:102B800068E4858196810E94FE0864E170E080E03F
:102B900090E00E941308F8018081882331F06AE0F8
:102BA00070E080E090E00E941308F8018581968132
:102BB0000E946D098D2D29960FB6F894DEBF0FBEC9
:102BC000CDBFDF91CF911F910F91FF90EF90DF90DC
:102BD00008952F923F924F925F926F927F928F92C1
:102BE0009F92AF92BF92CF92DF92EF92FF920F939C
:102BF0001F93CF93DF9300D000D0CDB7DEB7FC0199
:102C0000448055804114510409F413C1FB016480D0
:102C100075806114710409F40CC17A016B019C8305
:102C20008B83FA01A480B580A618B708FC01008147
:102C30001181A114B104C1F4F60160817181C80150
:102C40000E94FB2C5C01892B09F4F3C0F701608121
:102C5000718144815581C5010E94B62CF701048120
:102C600015810A0D1B1DE8CFB7FE02C0480106C042
:102C7000FB01208031804201C80148C0F60160811B
:102C80007181C4010E94FB2C2C01892B29F1320196
:102C900068187908A301B401C8010E94B62C060D7A
:102CA000171DF7016081718144815581C8010E941F
:102CB000B62CF70184819581080F191FF6018480D5
:102CC0009580840C951CEB81FC81848195818A0D13
:102CD0009B1D95838483D2CFB401C8010F900F90C0
:102CE0000F900F90DF91CF911F910F91FF90EF9078
:102CF000DF90CF90BF90AF909F908F907F906F901C
:102D00005F904F903F902F900C94E52CB1010E9462
:102D1000FB2C009729F0860D971D8A0C9B1CF6CF83
:102D20008414950409F485C0EB81FC818281938130
:102D30008815990578F4B4016F5F7F4FC8010E9430
:102D4000E72B009709F475C0EB81FC8191838083A8
:102D500093828282EB81FC810481158101501109EB
:102D600017FD67C0F601248035802114310409F471
:102D700060C0EB81FC81648075806114710409F48A
:102D800058C06214730408F454C00615170518F0EF
:102D9000830101501109EB81FC8140805180C20107
:102DA00088248A94982C9201200F311F2817390704
:102DB00058F0F6016081718129833A830E94FB2CCF
:102DC00029813A81009761F597FC33C0280C391CA2
:102DD000C201820D931DA30142195309BC018A0D42
:102DE0009B1D0E94BF2CEB81FC81848195818A0D03
:102DF0009B1D9583848320813181F901E80FF91FA0
:102E00001082EB81FC8180819181F7016081718169
:102E100044815581880D991D0E94B62C84019ECF56
:102E2000AC01441955090417150708F04A01019629
:102E3000BDCF0F900F900F900F90DF91CF911F910A
:102E40000F91FF90EF90DF90CF90BF90AF909F9049
:102E50008F907F906F905F904F903F902F9008954C
:102E6000CF93DF93FC0124813581232B71F0FB018B
:102E7000DC01CD91DC9160817181CE010E94FB2C3F
:102E8000009719F08C1B9D0B02C08FEF9FEFDF9115
:102E9000CF910895EF92FF920F931F93CF93DF93FB
:102EA000FC01248135816115710511F480E019C0A0
:102EB00041155105A9F07B01EC018A01020F131F96
:102EC000B8010E94E914882389F3288139818C8113
:102ED0009D81B701820F931F0E94E52C1D830C83F7
:102EE00081E0DF91CF911F910F91FF90EF900895B6
:102EF0000F931F93CF93DF9300D0CDB7DEB78C0134
:102F000069831A8241E050E0BE016F5F7F4F0E94EB
:102F10004A17811103C0C8010E941015C8010F9003
:102F20000F90DF91CF911F910F910895CF93DF9371
:102F3000EC016115710561F0FB0101900020E9F7DA
:102F40003197AF01461B570B0E944A17811103C0EE
:102F5000CE010E941015CE01DF91CF910895CF933D
:102F6000DF93EC01FB0144815581608171810E94F6
:102F70004A17811103C0CE010E941015CE01DF91C6
:102F8000CF910895CF93DF93EC016115710559F04E
:102F9000FB0101900020E9F73197AF01461B570B69
:102FA0000E94221502C00E941015CE01DF91CF9120
:102FB0000895CF93DF93EC01FB018617970761F02B
:102FC000608171816115710529F0448155810E94EC
:102FD000221502C00E941015CE01DF91CF910895F5
:102FE000FC01808191810C94CA2DEF92FF920F9386
:102FF0001F93CF93DF93CDB7DEB7A1970FB6F894A9
:10300000DEBF0FBECDBF7C01CB01BA01F70111823B
:103010001082138212821582148242E0420F8E01C6
:103020000F5F1F4F0E94152DBC01C7010E94C217E0
:10303000A1960FB6F894DEBF0FBECDBFDF91CF9142
:103040001F910F91FF90EF9008950F931F93CF93CF
:10305000DF93CDB7DEB729970FB6F894DEBF0FBE6A
:10306000CDBF8C01862FF80111821082138212824B
:103070001582148250E0BE016F5F7F4F90E00E9486
:10308000052FBE016F5F7F4FC8010E94C2172996AE
:103090000FB6F894DEBF0FBECDBFDF91CF911F9169
:1030A0000F910895EF92FF920F931F93CF93DF93A9
:1030B000EC01198218821B821A821D821C82611502
:1030C000710509F18B01CB010E94B22E7C01BC017C
:1030D000CE010E94E914811109C0CE01DF91CF9188
:1030E0001F910F91FF90EF900C941015FD82EC82D0
:1030F000B80188819981DF91CF911F910F91FF9045
:10310000EF900C94AB2EDF91CF911F910F91FF9018
:10311000EF900895FC0111821082138212821582B1
:1031200014820C94D917FC0111821082138212822E
:10313000158214826115710551F0FB010190002088
:10314000E9F73197AF01461B570B0C9422150895F0
:10315000DC01ED91FC910190F081E02D0994DC01FE
:10316000ED91FC91DB0114964D915C9115976D9159
:103170007C910280F381E02D09946115710579F04D
:10318000FB0101900020E9F73197AF01461B570B77
:10319000DC01ED91FC910280F381E02D099480E047
:1031A00090E0089567EF71E00C94BD180F931F93A2
:1031B000CF93DF93EC010E94BD188C01CE010E94D9
:1031C000D218800F911FDF91CF911F910F91089519
:1031D0000C94BD18CF93DF93CDB7DEB7C258D10999
:1031E0000FB6F894DEBF0FBECDBF789484B5826071
:1031F00084BD84B5816084BD85B5826085BD85B59B
:10320000816085BD80916E00816080936E00109218
:103210008100809181008260809381008091810093
:103220008160809381008091800081608093800024
:103230008091B10084608093B1008091B000816082
:103240008093B00080917A00846080937A008091AE
:103250007A00826080937A0080917A008160809306
:103260007A0080917A00806880937A001092C10081
:103270000FB6F894A89580916000886180936000F3
:10328000109260000FBEE091E902F091EA0282E044
:103290008083E091E502F091E6021082E091E7027E
:1032A000F091E80280E180831092F102E091ED025A
:1032B000F091EE0286E08083E091EB02F091EC0267
:1032C000808180618083E091EB02F091EC0280814B
:1032D00088608083E091EB02F091EC02808180684D
:1032E0008083E091EB02F091EC0280818F7D8083FE
:1032F00087E892E00E94231061E086E00E94D707F1
:1033000061E08DE00E94D70761E085E00E94D70769
:1033100061E08AE00E94D70761E08FE00E94D70752
:1033200061E08EE00E94D70760E083E00E94D7074B
:1033300060E089E00E94D70740E060E081E00E9401
:103340006B0E6CE271E080E090E00E94130840E0B8
:1033500061E080E00E946B0E6CE271E080E090E042
:103360000E94130841E060E080E00E946B0E6CE276
:1033700071E080E090E00E94130840E060E081E0AE
:103380000E946B0E8BEC93E09093A2038093A103B9
:103390001092A00310929C0399E090939D0381E00A
:1033A00080939E0380939F032DEB33E030938F0334
:1033B00020938E0310928D031092890390938A03B9
:1033C00080938B0380938C032FEA33E030937C034C
:1033D00020937B0310927A031092760390937703E5
:1033E00080937803809379038CE993E00E94510BDA
:1033F00089E893E00E94510B86E793E00E94510B0D
:10340000BE016F5F7F4F8CE993E00E9441138823D8
:1034100039F0BE016F5F7F4F8CE993E00E94671522
:10342000BE016F5F7F4F89E893E00E9441138823BC
:1034300039F0BE016F5F7F4F89E893E00E94671506
:10344000BE016F5F7F4F86E793E00E9441138823A0
:1034500039F0BE016F5F7F4F89E893E00E946715E6
:1034600084E89EE0909303018093020180916900BB
:103470008C6080936900E99A68EB7BE080E090E0E3
:103480000E94130899E288E10FB6F894A8958093FA
:1034900060000FBE90936000512C412C7CE5E72E1C
:1034A00078E0F72E8AE591E00E94231060E086E044
:1034B0000E94A70760E08DE00E94A70761E085E019
:1034C0000E94A70760ED77E080E090E00E9413087B
:1034D00061E08DE00E94A70760E085E00E94A707F9
:1034E0006CED75E080E090E00E94130861E086E0FA
:1034F0000E94A70768EE73E080E090E00E94130846
:1035000060E086E00E94A70700E010E00E944315FB
:10351000009771F40F5F1F4F0536110514F0FC0181
:10352000099564E670E080E090E00E941308EECF19
:1035300060ED77E080E090E00E9413088AE491E07B
:103540000E9423101092BE041092BD041092BC047D
:103550001092BB041092BA041092B9048DEC90E062
:103560009093C0048093BF049091AF04963108F00B
:1035700057C025E530E03093BA042093B9042BEC12
:1035800030E03093BC042093BB0420E930E030935A
:10359000BE042093BD0420916800983050F031E0C3
:1035A0009E3008F430E081E001C0880F3A95EAF7D8
:1035B00001C084E0822B80936800983038F09E3000
:1035C00040F0963148F020E030E008C02DE630E0D1
:1035D00005C02BE630E002C02CE630E03093B704A3
:1035E0002093B604983030F481E001C0880F9A959A
:1035F000EAF70EC0292F30E09E3018F42850310928
:1036000002C02E50310981E001C0880F2A95EAF7E7
:103610008093B8048091BF049091C0040197F1F7A2
:103620008091BD049091BE04892B49F1E09158022C
:10363000F091590224E0E33AF20709F1309739F0AA
:10364000A389B4899C918589809589238C938091E5
:10365000C1048E7F8093C1041092570210925602CB
:1036600083EA94E09093590280935802E091B60463
:10367000F091B70490818091B804892B808383EA0C
:1036800094E09093A2048093A1040EE010E0809156
:10369000A1049091A204DC01ED91FC910480F581DC
:1036A000E02D0995892B61F08091A1049091A204ED
:1036B000DC01ED91FC910680F781E02D0995E7CFC3
:1036C000ECE5F8E0659174918DE694E00E94AB2EF4
:1036D00040E050E060ED77E087E391E00E94E51084
:1036E000811148C064EF71E080E090E00E9413080F
:1036F0000150110961F6F701659174918DE694E02E
:103700000E94AB2E40E050E060ED77E08DE694E063
:103710000E94E51064E670E080E090E00E941308EB
:10372000F701659174918DE694E00E94AB2E40E024
:1037300050E060ED77E08DE694E00E94E51064E6ED
:1037400070E080E090E00E941308F70165917491A9
:103750008DE694E00E94AB2E40E050E060ED77E013
:103760008DE694E00E94E51064E670E080E090E071
:103770000E941308F701659174918DE694E00E9410
:10378000AB2E40E050E060ED77E08DE694E00E94E3
:10379000E510882309F43AC5E8EEF7E065917491E5
:1037A0008DE694E00E94AB2E40E050E060ED77E0C3
:1037B0008DE694E00E94E51064E670E080E090E021
:1037C0000E941308E6EEF7E0659174918DE694E0AF
:1037D0000E94AB2E40E050E060ED77E08DE694E093
:1037E0000E94E51064E670E080E090E00E9413081B
:1037F000EAEEF7E0659174918DE694E00E94AB2EBD
:1038000040E050E060ED77E08DE694E00E94E51046
:1038100064E670E080E090E00E941308ECEEF7E0D0
:10382000659174918DE694E00E94AB2E40E050E0EB
:1038300060ED77E08DE694E00E94E51064E670E0CC
:1038400080E090E00E941308EEEEF7E0659174913D
:103850008DE694E00E94AB2E40E050E060ED77E012
:103860008DE694E00E94E51064E670E080E090E070
:103870000E941308E0EFF7E0659174918DE694E003
:103880000E94AB2E40E050E060ED77E08DE694E0E2
:103890000E94E51064E670E080E090E00E9413086A
:1038A000E2EFF7E0659174918DE694E00E94AB2E13
:1038B00064E670E080E090E00E94130840E050E091
:1038C00060ED77E08AE391E00E94E51064E670E045
:1038D00080E090E00E9413088DE291E00E942310A6
:1038E000E2E2F8E0659174918DE694E00E94AB2EDF
:1038F00008E218E0F801659174918BE894E00E9469
:10390000AB2E40E050E060ED77E08DE694E00E9461
:10391000E51068EE73E080E090E00E94130820ED6F
:1039200037E04BE854E061E471E08DE694E00E94FA
:103930003110813079F084E892E00E9423100EE289
:1039400018E050E3E52E58E0F52E6CE2C62E68E054
:10395000D62E42C46DE070E087EF93E00E94D12C38
:10396000009749F36C01B2E0CB0ED11C6DE070E022
:10397000C6010E94D12C009711F0FC011082B60103
:1039800087EF93E00E94E52C86E291E00E9402100E
:1039900067EF73E081EF93E00E94C21781EF93E03D
:1039A0000E94D71381EF93E00E94D712EEE0F8E077
:1039B000659174918DE694E00E94AB2EF8016591BB
:1039C00074918BE894E00E94AB2E68EE73E080E087
:1039D00090E00E94130820ED37E04BE854E061E4EA
:1039E00071E08DE694E00E943110813061F56DE068
:1039F00070E087EF93E00E94D12C009721F16C01D9
:103A0000F2E0CF0ED11C6DE070E0C6010E94D12C17
:103A1000009711F0DC011C92B60187EF93E00E9441
:103A2000E52C8BE191E00E94021067EF73E089EDD5
:103A300093E00E94C21789ED93E00E94D71389EDAD
:103A400093E00E94D712E0E1F8E0659174918DE671
:103A500094E00E94AB2EF801659174918BE894E09C
:103A60000E94AB2E68EE73E080E090E00E941308A5
:103A700020ED37E04DE654E061E471E0CA010E94B8
:103A80003110813081F56DE070E087EF93E00E94A6
:103A9000D12C009741F16C01B2E0CB0ED11C6DE04E
:103AA00070E0C6010E94D12C009711F0FC01108239
:103AB000B60187EF93E00E94E52C88E091E00E9438
:103AC000021067EF73E0CE0182960E949318CE0138
:103AD00082960E94D713CE0182960E94D712CE0101
:103AE00082960E94F01780915A0290915B02029791
:103AF00039F068EE73E080E090E00E941308F3CFA5
:103B000068EE73E080E090E00E94130881EF90E09F
:103B10000E9402104EE1D42EE4EFF7E0659174911B
:103B20008DE694E00E94AB2E40E050E060ED77E03F
:103B30008DE694E00E94E5108823A9F165E471E028
:103B400087EF93E00E94FB2C009769F1DC0112964D
:103B50002C91213311F0253331F5E6EFF7E0659133
:103B600074918DE694E0CE57DF4F2883C258D04041
:103B70000E94AB2E40E050E068EE73E08DE694E0EA
:103B80000E94E510E8E4F8E0659174918DE694E018
:103B90000E94AB2ECE57DF4F2881C258D040EF96FF
:103BA0002FAFEF9709C068EE73E080E090E00E94CD
:103BB0001308DA94D110B0CF80EE90E00E9402108A
:103BC000EF966FADEF9789ED92E00E94A8188DED0A
:103BD00090E00E940210EF96BFADEF97B13319F459
:103BE0008AEC90E008C0EF962FADEF97253309F0EF
:103BF00093C286EB90E00E94231080915A0290912C
:103C00005B02029709F088C260ED77E080E090E007
:103C10000E9413088EEFC82E87E0D82E98E1692EF7
:103C200098E0792E2AE1A22E28E0B22E3CE1832EE4
:103C300038E0932E0E941B131C018EEA90E00E9434
:103C40000210C1010E94E81268EE73E080E090E08B
:103C50000E9413088EE990E00E942310E6E4F8E049
:103C6000659174918DE694E00E94AB2E40E050E0A7
:103C700060E27EE48DE694E00E94E510E8EFF7E074
:103C8000659174918DE694E00E94AB2E40E050E087
:103C900060ED77E08DE694E00E94E510882309F45A
:103CA00021C2EAEFF7E0659174918DE694E00E94FD
:103CB000AB2E40E050E060ED77E08DE694E00E94AE
:103CC000E510882309F40EC2E4E2F8E065917491EE
:103CD0008DE694E00E94AB2EF801659174918BE81B
:103CE00094E00E94AB2E20ED37E04BE854E061E415
:103CF00071E08DE694E00E9431108130D1F468E4E7
:103D000071E087EF93E00E94FB2C009791F01C017B
:103D1000E2E02E0E311C62E270E0C1010E94D12C63
:103D2000009711F0DC011C92B10187EF93E00E9433
:103D3000E52C67EF73E0CE0188960E949318CE01C0
:103D400088960E94D713F601659174918DE694E0F0
:103D50000E94AB2E6DE674E0CE0182960E9493180D
:103D6000BE016E5D7F4FCE0188960E9430171C0108
:103D7000CE0182960E94F01737FC34C0BCEF2B2E88
:103D8000B7E03B2EF101659174918DE694E00E94BD
:103D9000AB2E6DE674E083E594E00E94C217E0E08C
:103DA000F8E0659174918DE694E00E94AB2E6DE68B
:103DB00074E089E594E00E94C2176DE674E08FE537
:103DC00094E00E94C217F101659174918DE694E030
:103DD0000E94AB2E6DE674E085E694E00E94C21767
:103DE000F6013EC06BE471E0CE0182960E9493180A
:103DF000BE016E5D7F4FCE0188960E9430171C0178
:103E0000CE0182960E94F01737FC31C0E4E0F8E062
:103E1000659174918BE894E00E94AB2E6BE874E09E
:103E200083E594E00E94C217E6E0F8E065917491A2
:103E30008DE694E00E94AB2E6DE674E089E594E097
:103E40000E94C2176DE674E08FE594E00E94C217ED
:103E50006BE874E085E694E00E94C217E2E0F8E0C7
:103E6000659174918DE694E00E94AB2E3CC068E5AC
:103E700071E0CE0182960E949318BE016E5D7F4F65
:103E8000CE0188960E9430171C01CE0182960E94B6
:103E9000F01737FC2EC0E8E0F8E0659174918DE6EC
:103EA00094E00E94AB2EEAE0F8E0659174918BE813
:103EB00094E00E94AB2E6BE874E083E594E00E94EE
:103EC000C21769EF71E089E594E00E94C21769EFBB
:103ED00071E08FE594E00E94C2176BE874E085E61C
:103EE00094E00E94C2176DE674E089ED92E00E94B2
:103EF000D618E2E1F8E0659174918DE694E00E94B5
:103F0000AB2E6DE674E08091A1049091A2040E9412
:103F1000E81863E574E08091A1049091A2040E94E6
:103F2000AF188091A1049091A2040E94D21040E0A9
:103F300050E060ED77E080E090E00E94E5108111B4
:103F400003C0A4E02A2EB8C0E4E1F8E065917491C2
:103F50008DE694E00E94AB2E6DE674E08091A104A2
:103F60009091A2040E94E81869E574E08091A10490
:103F70009091A2040E94AF188091A1049091A20494
:103F80000E94D21040E050E060ED77E080E090E0E9
:103F90000E94E5108823A9F2E6E1F8E065917491AA
:103FA0008DE694E00E94AB2E6DE674E08091A10452
:103FB0009091A2040E94E8186FE574E08091A1043A
:103FC0009091A2040E94AF188091A1049091A20444
:103FD0000E94D21040E050E060ED77E080E090E099
:103FE0000E94E510882309F4ACCFF3016591749128
:103FF0008DE694E00E94AB2E6DE674E08091A10402
:104000009091A2040E94E81865E674E08091A104F2
:104010009091A2040E94AF188091A1049091A204F3
:104020000E94D21040E050E060ED77E080E090E048
:104030000E94E510882309F484CFF50165917491FD
:104040008DE694E00E94AB2E40E050E060E177E224
:104050008DE694E00E94E510F401659174918DE67F
:1040600094E00E94AB2E40E050E060E177E28DE604
:1040700094E00E94E510EEE1F8E0659174918DE620
:1040800094E00E94AB2E40E050E060ED77E08DE6DA
:1040900094E00E94E510E0E2F8E0659174918DE60D
:1040A00094E00E94AB2E40E050E060ED77E08DE6BA
:1040B00094E00E94E510212CCE0188960E94F01712
:1040C000211010C080915A0290915B02039739F041
:1040D00062E370E080E090E00E941308F3CF8BE889
:1040E00090E013C053948AE790E00E94231068E8A0
:1040F00073E180E090E00E94130880915A02909151
:104100005B02039729F488E690E00E94231083C0A5
:10411000442009F48FCD7FC0B4E1B51508F4C2C9BD
:10412000442009F4BFC907CC40E050E068E873E1DF
:104130008BE894E00E94E510811174C0109247044E
:1041400066E172E089ED92E00E94E81867EF73E0A3
:1041500089ED92E00E94D61867EF73E0CE01889651
:104160000E9493186EE772E0CE0182960E94521868
:10417000BE016E5D7F4FCE0188960E9430175C01B4
:10418000CE0182960E94F017B7FC0DC086E692E041
:104190000E94021068EE73E080E090E00E94130835
:1041A000E0E0F0E00995F601659174918DE694E008
:1041B0000E94AB2E40E050E060ED77E08DE694E0A9
:1041C0000E94E51068EE73E080E090E00E94130822
:1041D000CE0188960E94F017F801659174918DE6E2
:1041E00094E00E94AB2EF701659174918BE894E006
:1041F0000E94AB2E40E050E060E177E28DE694E073
:104200000E94E510882309F499CF8ECF80E391E0D6
:104210000E942310FFCFF4E1F51508F08CCB442465
:10422000439440C981E08093470480E090E00E947D
:104230004534823209F446C083E592E00E9423109F
:1042400000E010E060E0C8010E94A30C0F5F1F4F68
:104250000F3FF3E01F07B1F762E280E090E00E94B9
:10426000A30CF4E0EF2EF1E0FF2E08EC10E0D701F4
:104270006D917D011BA30AA3CE0182960E94510F6E
:104280000F5F1F4F0C3C110591F7E0E6EE2EE1E0C9
:10429000FE2E04E610E0F70161917F011BA30AA343
:1042A000CE0182960E94510F0F5F1F4F01371105FB
:1042B00091F760E088E790E00E94A30C82E492E02E
:1042C0000E9423106DE671E085EE93E00E94C21714
:1042D00065EEC62E63E0D62E7CEDE72EF12C8E0126
:1042E0000E5D1F4FD6016D916D01FBA2EAA2C801C0
:1042F0000E94510FBFEFEB1AFB0AE2EEEE16F1043B
:1043000089F788EC90E00E94651188E790E00E94B0
:10431000453491E0811101C090E09093730284E3F1
:1043200092E00E9402106091040170910501809159
:104330000601909107010E94E71186E292E00E9437
:10434000021085EE93E00E94D71287E192E00E946E
:1043500002108091C2049091C304009711F488EC7C
:1043600094E09801281B390BC9010E94E812809142
:10437000730220ED37E04CE751E061E471E08823FF
:1043800049F083E891E00E943110813061F487EFB9
:1043900091E00EC080E991E00E943110813031F04F
:1043A00083EA91E005C08EED91E002C08DEB91E0D3
:1043B0000E9423106DE971E0C8010E949318B801B2
:1043C00088E494E00E9430177C01C8010E94F01735
:1043D000F7FC08C00E94BA10882321F084E991E01C
:1043E0000E94231060ED77E080E090E00E941308C7
:1043F0000E94A50C40E061E080E00E946B0E82E824
:1044000091E00E9423100E944D08609378027093FF
:10441000790280937A0290937B020E944315009761
:1044200011F4FC010995E6E5F8E0659174918DE6DB
:1044300094E00E94AB2EEAE4F8E0659174918BE879
:1044400094E00E94AB2E20ED37E04BE854E066EAA2
:1044500071E08DE694E00E943110813009F0A5C032
:104460008091A1049091A204DC01ED91FC91048063
:10447000F581E02D0995892B09F18091A104909196
:10448000A204DC01ED91FC910680F781E02D0995F5
:1044900080939F049093A00489831A8241E050E0A6
:1044A000BE016F5F7F4F88E494E00E944A176AE084
:1044B00070E080E090E00E941308D2CF87E993E09B
:1044C0000E94021088E494E00E94D71268E172E032
:1044D000CE0101960E949318BE016F5F7F4F88E462
:1044E00094E00E9430177C01CE0101960E94F017E3
:1044F000F7FC41C0BE016F5F7F4F84E690E00E94F1
:10450000690CBE016F5F7F4FCE01C4960E94931865
:104510006DE671E0CE018E960E949318BE016C5C30
:104520007F4F88E494E00E94301797FDF3C689E836
:1045300093E00E942310BE016C5C7F4FC8010E9473
:104540008A1868E474E0CE0188960E948A18B8013F
:10455000CE0188960E948C0DCE0188960E94F0179D
:10456000C8010E94F017CE018E960E94F017CE016E
:10457000C4960E94F0176DE971E0CE0101960E9489
:104580009318BE016F5F7F4F88E494E00E9430175C
:104590007C01CE0101960E94F017F7FED1C669EFAB
:1045A00071E088E494E00E94C2170E944D086B01FC
:1045B0007C0180915C02811104C088EC90E00E9433
:1045C00065118091800290918102A0918202B09148
:1045D000830246015701881A990AAA0ABB0A209148
:1045E0000401309105014091060150910701A8EEA8
:1045F000B3E00E945B3486169706A806B90608F455
:104600001DC688E593E00E9402108091800290917F
:104610008102A0918202B0918302A7019601281B1A
:10462000390B4A0B5B0BCA01B90128EE33E040E0BD
:1046300050E00E943E2BCA01B9010E94E71141E0FF
:1046400060E080E00E946B0EC0928002D0928102F6
:10465000E0928202F09283028CE993E00E94C10A08
:1046600089E893E00E94C10A86E793E00E94C10AAC
:104670008CE993E00E9468136B017C0189E893E068
:104680000E9468134B015C0186E793E00E94681367
:104690002B013C010E941B131C01EE961FAE1EAEA7
:1046A000EE97BE0164587F4F80EA90E00E948F0C25
:1046B000A5019401C701B6010E947B2BA3019201C1
:1046C0000E947B2B2FE832EC41EB52E40E947B2BC3
:1046D000AB01BC0122E0CE01845B9F4F0E94F51725
:1046E0009E012F5F3F4F44E650E0CA01CE57DF4F97
:1046F0002883C258D040C158DF4F3883CF57D040AD
:10470000C058DF4F4883C058D040CF57DF4F588341
:10471000C158D0400E944534CE57DF4F2881C2583F
:10472000D040C158DF4F3881CF57D040D9018D9349
:104730009D01C058DF4F4881C058D040CF57DF4F50
:104740005881C158D0404F5F5F4F4137510569F6DE
:10475000BE016F5F7F4FCE0188960E94931825EEB1
:1047600033E04CED50E0CA01CE57DF4F2883C258EA
:10477000D040C158DF4F3883CF57D040C058DF4FAB
:104780004883C058D040CF57DF4F5883C158D040DE
:104790000E944534CE57DF4F2881C258D040C158BF
:1047A000DF4F3881CF57D040F90181939F01C05826
:1047B000DF4F4881C058D040CF57DF4F5881C15894
:1047C000D0404F5F5F4F423E510569F66DEA71E0A0
:1047D000C8010E949318BE01685D7F4FC8010E9406
:1047E000AF176DEA71E00E94961769ED73E00E94C1
:1047F000AF17BC01CE018E5A9F4F0E948A18C80184
:104800000E94F017CE0188960E94F017EE968EADAA
:104810009FADEE976A961FAE1EAE6A976C961FAE5E
:104820001EAE6C976E961FAE1EAE6E974AE0BE012E
:104830006F5F7F4F0E94BB2EBE016F5F7F4FCE0127
:10484000885A9F4F0E94C21760917402709175023E
:104850008091760290917702A0961FAE1EAEA0972F
:10486000A2961FAE1EAEA297A4961FAE1EAEA49730
:104870002AE0AE014F5F5F4F0E94E32EBE016F5FE3
:104880007F4FCE01825A9F4F0E94C217A6961FAE3D
:104890001EAEA697A8961FAE1EAEA897AA961FAEEC
:1048A0001EAEAA974AE0BE016F5F7F4FC1010E9412
:1048B000BB2EBE016F5F7F4FCE018C599F4F0E9470
:1048C000C21722E0B301A201CE0186599F4F0E9478
:1048D000F51722E0B501A401CE0180599F4F0E9437
:1048E000F51722E0B701A601CE018A589F4F0E941A
:1048F000F5176FEA71E0CE018A5B9F4F0E94931813
:10490000EAE2F8E0659174918DE694E00E94AB2EA6
:1049100040E050E060E177E28DE694E00E94E5102F
:10492000882309F4FBC06AE370E087EF93E00E94FC
:10493000D12C009709F4F2C06CE270E00E94D12CF7
:10494000009709F4EBC07C01FFEFEF1AFF0AC701E3
:104950000E94622E6CE270E0C7010E94D12C009789
:1049600009F4DCC07C012FEFE21AF20AC7010E94B1
:10497000622E6CE270E0C7010E94D12C009709F40E
:10498000CDC07C013FEFE31AF30AC7010E94662EF7
:10499000D82E6FE270E0C7010E94D12C009709F475
:1049A000BDC07C014FEFE41AF40AC7010E94662ED5
:1049B000C82E6FE270E0C7010E94D12C009709F465
:1049C000ADC07C015FEFE51AF50AC7010E94662EB3
:1049D000B82E6CE270E0C7010E94D12C009709F458
:1049E0009DC07C01AFEFEA1AFA0AC7010E94662E49
:1049F000A82E6AE370E0C7010E94D12C009709F449
:104A00008DC07C01BFEFEB1AFB0AC7010E94662E26
:104A1000982E6AE370E0C7010E94D12C009709F438
:104A20007DC001960E94662E4AE0682FCE01019655
:104A30000E9425184AE0692DC8010E9425184AE005
:104A40006A2DCE0188960E9425184AE06B2DCE0172
:104A50008E960E9425184AE06C2DCE01C4960E94C5
:104A6000251860E36D0D4AE0CE01805C9F4F0E94E7
:104A70002518BE01605C7F4FCE01CA960E948A183D
:104A80006FE2CE01CA960E947817BE016C5C7F4F20
:104A90000E94AF176FE20E947817BE01625D7F4FE0
:104AA0000E94AF176CE20E947817BE01685D7F4FCD
:104AB0000E94AF176AE30E947817B8010E94AF17EF
:104AC0006AE30E947817BE016F5F7F4F0E94AF17A5
:104AD00060EC71E00E949617BC01CE018A5B9F4F8B
:104AE0000E94D917CE01CA960E94F017CE01805CB1
:104AF0009F4F0E94F017CE01C4960E94F017CE017E
:104B00008E960E94F017CE0188960E94F017C80179
:104B10000E94F017CE0101960E94F01764EC71E03C
:104B2000CE0101960E94931861EF73E0CE010196C9
:104B30000E94AF176DEA71E00E949617BE016A5B92
:104B40007F4F0E94AF17BC01C8010E948A18CE0196
:104B500001960E94F017CE018A5B9F4F0E94F017CA
:104B6000B801CE0101960E948A186DEA71E0CE016B
:104B700001960E949617BE016A587F4F0E94AF1798
:104B80006DEA71E00E949617BE0160597F4F0E9446
:104B9000AF176DEA71E00E949617BE0166597F4F0C
:104BA0000E94AF176DEA71E00E949617BE016C5922
:104BB0007F4F0E94AF176DEA71E00E949617BE0109
:104BC000625A7F4F0E94AF176DEA71E00E949617FC
:104BD000BE01685A7F4F0E94AF17BE016E5A7F4FC9
:104BE0000E94AF176DEA71E00E949617BE01645BE8
:104BF0007F4F0E94AF17BC01CE01C4960E948A1855
:104C0000CE0101960E94F017C8010E94F017CE0154
:104C10008A589F4F0E94F017CE0180599F4F0E94E3
:104C2000F017CE0186599F4F0E94F017CE018C5984
:104C30009F4F0E94F017CE01825A9F4F0E94F0179B
:104C4000CE01885A9F4F0E94F017CE018E5A9F4F77
:104C50000E94F017CE01845B9F4F0E94F01768AD51
:104C600079AD80E090E04AE00E947F1189ED92E00A
:104C70000E94D21899249394E12CF12C5CE3C52E68
:104C800058E0D52EBE016C5C7F4FCE018E960E94FF
:104C90008A188AE293E00E940210809173028111C7
:104CA00021C068EC71E089ED92E00E94E8186FE3A2
:104CB00089ED92E00E94A818CE018E960E94D7122C
:104CC000BE01625D7F4FCE0101960E948A18BE012F
:104CD0006F5F7F4F88EC91E00E946712CE010196D2
:104CE0000E94F01780916F0290917002A091710262
:104CF000B09172020196A11DB11D80936F02909335
:104D00007002A0937102B093720210926E02EAE3F5
:104D1000F8E0659174918DE694E00E94AB2EF60167
:104D2000659174918BE894E00E94AB2E6BE874E07F
:104D30008DE694E00E94F611823020F084E08093AA
:104D4000470420C081111EC06EE289ED92E00E94EE
:104D500077054AE1B42EBA94BB20C9F28091A10430
:104D60009091A204DC01ED91FC910480F581E02D8D
:104D70000995892B61F66FE070E080E090E00E9479
:104D80001308E9CF809147048430C9F58CE193E0A2
:104D90000E9423108091740290917502A091760276
:104DA000B09177020196A11DB11D8093740290937A
:104DB0007502A0937602B09377020E94980F8091BB
:104DC000740290917502A0917602B0917702459796
:104DD000A105B10568F085EF92E00E94231068EB11
:104DE0007BE080E090E00E941308E0E0F0E00995AD
:104DF00068EB7BE080E090E00E941308E1C189ED60
:104E000092E00E94D218EEE3F8E0659174918DE68D
:104E100094E00E94AB2E6DE674E08091A104909125
:104E2000A2040E94D61883E08093470410924E0497
:104E30000E944D0860934F04709350048093510476
:104E400090935204E0E4F8E0659174918DE694E06B
:104E50000E94AB2EE2E4F8E0659174918BE894E057
:104E60000E94AB2E6BE874E08DE694E00E94F61190
:104E7000813041F710924E0447EF51E064E670E054
:104E800080E090E00E94E51087EF93E00E94662E9C
:104E90005C0140E050E060ED77E080E090E00E944F
:104EA000E510FFE4AF16B10418F03FE4A32EB12CD7
:104EB000F501E950FC4F1082AB2809F4C3CF809173
:104EC0004704843029F58091740290917502A09175
:104ED0007602B09177020196A11DB11D80937402F4
:104EE00090937502A0937602B09377020E94980F78
:104EF0008091740290917502A0917602B091770230
:104F00004597A105B10508F473CF8DEC92E065CF0C
:104F100082EC92E00E94021067EF73E089ED92E06C
:104F20000E94D61867EF73E0CE0188960E9493180E
:104F300069EF71E0C8010E9493188CA59DA50097A8
:104F4000D1F0029720F022E0A22EB12C03C0AA24B7
:104F5000A394B12CE8A5F9A5EA0DFB1D9080108261
:104F600068A579A5C8010E94C21788A599A5FC016A
:104F7000EA0DFB1D90828AA19BA1009719F00E9467
:104F8000842E03C060E070E0CB0121E020936E022C
:104F900061307105F1F569EF71E0CE0101960E9473
:104FA0009318ACA4BDA4F3E0AF16B104D8F02AE086
:104FB000A216B10418F08AE0A82EB12CE8A5F9A534
:104FC000EA0DFB1D9080108268A579A56E5F7F4F6A
:104FD000CE0101960E94C21788A599A5FC01EA0D91
:104FE000FB1D908289819A81009719F00E94842E7E
:104FF00003C060E070E0CB010E94E7116091040102
:105000007091050180910601909107010E94E711BE
:1050100072C062307105F1F5CE0188960E94C2110E
:105020006EE572E084E690E00E94690C6EE572E045
:10503000CE0101960E949318BE016F5F7F4FCE0193
:1050400088960E94B50F882309F455C087EB92E03B
:105050000E942310A12CB12C8CA59DA5A816B906E1
:1050600020F4E8A5F9A5309729F410925D02EDE54A
:10507000F2E002C0EA0DFB1D6081C5018C599F4F13
:105080000E94A30C3FEFA31AB30A4DE0A416B1048B
:1050900019F731C0AB01435051094230510508F4B2
:1050A00058C06530710551F41A821982BE016F5FD4
:1050B0007F4F80EA90E00E94710F4BC0663071050F
:1050C00009F042C0CE0188960E94C2116EE572E0DE
:1050D0008CED90E00E94690C6EE572E0CE010196C5
:1050E0000E949318BE016F5F7F4FCE0188960E9489
:1050F000B50F811105C0CE0101960E94F01729C09D
:105100008CEA92E00E942310A12CB12C8CA59DA5C5
:10511000A816B90620F4E8A5F9A5309729F410924D
:105120005D02EDE5F2E002C0EA0DFB1D6081C50104
:1051300084529F4F0E94A30C5FEFA51AB50A8DE021
:10514000A816B10419F7D7CF6730710511F4109282
:105150005C0285EA92E00E94021060916F027091F9
:10516000700280917102909172024AE00E947F1158
:105170008091740290917502A0917602B0917702AD
:10518000892B8A2B8B2B79F08CE992E00E940210FC
:10519000609174027091750280917602909177020D
:1051A0004AE00E947F1189ED92E00E94D21890900F
:1051B0006E02C8010E94F017CE0188960E94F01777
:1051C000CE018E960E94F01791101CC0AFEFEA1A24
:1051D000FA0A6AEF71E089ED92E00E94E818C701CF
:1051E0000E94E812B6E0EB16F1041CF0E0E0F0E0FB
:1051F00009950E94A50C60E777E180E090E00E94AD
:10520000130840CDCE01C4960E94F01740E061E043
:1052100080E00E946B0E89E493E00E9402102091CE
:10522000C2043091C3042115310511F428EC34E097
:10523000CE010196821B930B0E94E8120E944D083A
:105240006B017C0180917C0290917D02A0917E0295
:10525000B0917F02A7019601281B390B4A0B5B0B0B
:10526000DA01C90180349E47A540B10590F186E37B
:1052700093E00E94021080917C0290917D02A091A7
:105280007E02B0917F02A7019601281B390B4A0BC1
:105290005B0BCA01B90128EE33E040E050E00E9408
:1052A0003E2BCA01B9010E94E71141E060E080E0B5
:1052B0000E946B0EC0927C02D0927D02E0927E0230
:1052C000F0927F020E94A50C40E061E080E00E9425
:1052D0006B0E0E944D08C0907802D0907902E09049
:1052E0007A02F0907B02DC01CB018C199D09AE099A
:1052F000BF0981309C45A642B54018F0E0E0F0E0DF
:10530000099564EF71E080E090E00E9413080E942C
:10531000E00583C8BE01625D7F4F88E494E00E948F
:10532000301797FD08C08FE793E00E942310BE015D
:10533000625D7F4F03C981E793E00E94231013C988
:105340000E94BA10882309F42AC986E693E00E94D5
:10535000231025C989ED93E00E94F0178FED93E0AB
:105360000E94F01785EE93E00E94F0178BEE93E019
:105370000E94F01781EF93E00E94F01785E694E019
:105380000E94F0178FE594E00E94F01789E594E001
:105390000E94F01783E594E00E94F01788E494E0FF
:1053A0000E94F01788E291E09093A4048093A304F4
:1053B0008091580290915902835A944071F4E0917F
:1053C000B604F091B70490818091B8048095892348
:1053D0008083109259021092580208951092DC02B4
:1053E0001092DB0288EE93E0A0E0B0E08093DD0253
:1053F0009093DE02A093DF02B093E00228E131E057
:105400003093DA022093D90225EC30E03093E602A3
:105410002093E50224EC30E03093E8022093E70289
:1054200020EC30E03093EA022093E90221EC30E0F6
:105430003093EC022093EB0222EC30E03093EE024A
:105440002093ED0226EC30E03093F0022093EF023F
:105450001092F2021092F3021092F4021092F502EE
:105460001092A6041092A5048093A7049093A80418
:10547000A093A904B093AA0488E291E09093A404B5
:105480008093A3041092BA041092B9041092BC0441
:105490001092BB041092BE041092BD041092C0047E
:1054A0001092BF046091C1046E7F6D7F6093C10450
:1054B0006695617081E0682787E00E94A70761E038
:1054C00087E00E94D707EDE8F8E0E491E093B304A9
:1054D000E9E7F8E0E491F0E0EE0FFF1FE25AF74F42
:1054E000859194919093B5048093B40460E088E032
:1054F0000E94D7078091C10481FD04C061E088E06B
:105500000E94A70788E08093AF04EEE8F8E0E491FA
:10551000E093B004EAE7F8E0E491F0E0EE0FFF1F5B
:10552000E859F74F859194919093B2048093B10418
:105530001092470469EF71E088E494E00E949318A8
:1055400069EF71E083E594E00E94931869EF71E0E0
:1055500089E594E00E94931869EF71E08FE594E08B
:105560000E94931869EF71E085E694E00E94931819
:105570001092A00410929F0469EF71E081EF93E014
:105580000E94931869EF71E08BEE93E00E949318EC
:1055900069EF71E085EE93E00E94931869EF71E086
:1055A0008FED93E00E94931869EF71E089ED93E02D
:1055B0000E94931860E18BEC93E00E94920A61E1F3
:1055C0008DEB93E00E94920A64E08FEA93E00E94E0
:1055D000920A24E636E03093AE032093AD038BECC1
:1055E00093E09093A2038093A1031092A0031092E2
:1055F0009C0399E090939D0381E080939E038093A8
:105600009F0330939B0320939A034DEB53E05093F9
:105610008F0340938E0310928D0310928903909311
:105620008A0380938B0380938C03309388032093A9
:1056300087032FEA33E030937C0320937B0310929F
:105640007A03109276039093770380937803809384
:105650007903089597FB072E16F4009407D077FD81
:1056600009D00E94602B07FC05D03EF490958195EF
:105670009F4F0895709561957F4F0895A1E21A2E6E
:10568000AA1BBB1BFD010DC0AA1FBB1FEE1FFF1FE6
:10569000A217B307E407F50720F0A21BB30BE40B36
:1056A000F50B661F771F881F991F1A9469F760957D
:1056B0007095809590959B01AC01BD01CF01089537
:1056C000AA1BBB1B51E107C0AA1FBB1FA617B70728
:1056D00010F0A61BB70B881F991F5A95A9F7809544
:1056E0009095BC01CD010895EE0FFF1F0590F49138
:1056F000E02D09945058BB27AA270E94922B0C94A6
:105700000B340E94FD3338F00E94043420F039F449
:105710009F3F19F426F40C94FA330EF4E095E7FB5E
:105720000C94F433E92F0E941C3458F3BA17620723
:1057300073078407950720F079F4A6F50C943E349E
:105740000EF4E0950B2EBA2FA02D0B01B90190019C
:105750000C01CA01A0011124FF27591B99F0593FE0
:1057600050F4503E68F11A16F040A22F232F342F28
:105770004427585FF3CF469537952795A795F04076
:105780005395C9F77EF41F16BA0B620B730B840B8B
:10579000BAF09150A1F0FF0FBB1F661F771F881F43
:1057A000C2F70EC0BA0F621F731F841F48F487959B
:1057B00077956795B795F7959E3F08F0B0CF93958D
:1057C000880F08F09927EE0F979587950895A0E028
:1057D000B0E0EDEEFBE20C946A34EC01009721F4AA
:1057E000CB010E94352DB8C0FC01E60FF71F9C01CC
:1057F00022503109E217F30708F4ACC0D9010D912A
:105800001C91119706171707B0F00530110508F421
:105810009FC0C80104978617970708F499C00250E3
:105820001109061B170B019311936D937C93CF0104
:105830000E94CA2D8DC05B01A01AB10A4C01800ED6
:10584000911EA091C404B091C50440E050E0E12C49
:10585000F12C109709F44AC0A815B905D1F56D903F
:105860007C901197630182E0C80ED11CCA14DB043E
:1058700080F1A3014A195B096A0182E0C80ED11CBC
:105880001296BC9012971396AC91B5E0CB16D1044A
:1058900040F0B282A38351834083D9016D937C93FE
:1058A0000AC00E5F1F4FC301800F911FF901918342
:1058B0008083EB2DFA2FE114F10431F0D701139618
:1058C000FC93EE93129744C0F093C504E093C40494
:1058D0003FC08D919C9111974817590708F4AC016E
:1058E0007D0112960D90BC91A02DB3CF8091C20482
:1058F0009091C30488159905E1F446175707C8F439
:105900008091080190910901009741F48DB79EB7ED
:1059100040910C0150910D01841B950BE817F9077C
:10592000C8F4F093C304E093C204F9017183608367
:105930000FC0CB010E94352D7C01009759F0A801C2
:10594000BE010E94B62CCE010E94CA2DC70104C020
:10595000CE0102C080E090E0CDB7DEB7EEE00C945F
:10596000863481E090E0F8940C94AC34FB01DC01C7
:1059700002C001900D9241505040D8F70895681729
:10598000790768F4FB01DC01E40FF51FA40FB51FD4
:1059900002C002900E9241505040D8F708950C94E6
:1059A000B62CFC018191861721F08823D9F799271D
:1059B00008953197CF010895FB01DC018D9101908D
:1059C00080190110D9F3990B0895FB01DC010190B6
:1059D0000D920020E1F70895FB01DC014150504099
:1059E00048F001900D920020C9F701C01D9241506E
:1059F0005040E0F70895FB0151915523A9F0BF01F4
:105A0000DC014D9145174111E1F759F4CD010190A9
:105A1000002049F04D9140154111C9F3FB0141119E
:105A2000EFCF81E090E001970895EF920F931F93DD
:105A3000CF93DF93E80147FD02C034E001C034E1B9
:105A4000E42F440FFF0BF7FF03C0F195E195F10937
:105A5000E32E022F2E2FAE010E942A2FCE01DF91BE
:105A6000CF911F910F91EF900895CF93DF938230E4
:105A7000910510F482E090E0E091C404F091C50437
:105A800020E030E0C0E0D0E0309711F1408151815A
:105A900048175907C0F04817590761F4828193816C
:105AA000209719F09B838A832BC09093C504809321
:105AB000C40426C02115310519F04217530718F404
:105AC0009A01BE01DF01EF010280F381E02DDCCFFE
:105AD0002115310509F1281B390B2430310590F4CB
