:100000000C94E3030C94A0070C9479070C94C50A94
:100010000C94C50A0C94C50A0C940B040C940B04A4
:100020000C940B040C940B040C940B040C940B0414
:100030000C940B040C940B040C940B040C940B0404
:100040000C942F070C940B040C9422060C94FC05C2
:100050000C940B040C940B040C940B040C940B04E4
:100060000C940B040C940B04000000080002010027
:100070000003040700000000000000004750525336
:1000800020636F6E6E656374204F4B212D004661B7
:10009000696C656420696E69742047505253000A88
:1000A0004750525320636F6E6E656374204F4B212F
:1000B0002B004750525320636F6E6E656374202E81
:1000C0002E0072737369202E2E000A5265676973C1
:1000D000746572656420726F616D696E67000A52A3
:1000E0006567697374657265642028686F6D65293A
:1000F000003A20000A4E6574776F726B207374614A
:10010000747573200053657474696E672075702070
:100110006E6574776F726B2E2E2E000A494D45491D
:100120003A004F4B00436F756C646E27742066690C
:100130006E64206D6F64756C65204750525300509B
:100140006F7765722053494D383030204F6E00492B
:100150006E697469616C697A696E672E2E2E2E281D
:100160004D61792074616B6520352D3130207365C8
:10017000636F6E647329000A53494D383030207321
:100180006574757020656E6400496E746572766181
:100190006C207365633A00436C656172204545507D
:1001A000524F4D20456E6400537461727420636C2D
:1001B00065617220454550524F4D000A4E6F2069CF
:1001C0006E7465726E657420636F6E6E65637469BC
:1001D0006F6E004552524F52004F4B000A20534958
:1001E0004D3830302073657475702073746172748B
:1001F00000204572726F72733A00546F74616C3AEA
:10020000006E6F20636F6D70617265006E6F2063AA
:100210006F6D70617265006E6F20636F6D706172DB
:1002200065006E6F20636F6D70617265005B506179
:10023000796C6F61645D2000546865206E756D6235
:100240006572206F662073657276657220657272C2
:100250006F72732065786365656465642032300071
:10026000436F6E6E656374206572726F72005265C3
:100270007175657374696E6720000A667265652022
:100280006D656D6F72793A2000496E7465727661A2
:100290006C207365633A00534D533A00005EBCE234
:1002A000613FDD83C29C7E20A3FD1F419DC3217F52
:1002B000FCA2401E5F01E3BD3E6082DC237D9FC146
:1002C000421CFEA0E1BF5D0380DE3C62BEE0025C3A
:1002D000DF81633D7C22C09E1D43A1FF4618FAA426
:1002E00027799BC584DA3866E5BB5907DB85673912
:1002F000BAE406581947A5FB7826C49A653BD98706
:10030000045AB8E6A7F91B45C6987A24F8A6441AF9
:1003100099C7257B3A6486D85B05E7B98CD2306EE5
:10032000EDB3510F4E10F2AC2F7193CD114FADF3D1
:10033000702ECC92D38D6F31B2EC0E50AFF1134DC5
:10034000CE90722C6D33D18F0C52B0EE326C8ED0B9
:10035000530DEFB1F0AE4C1291CF2D73CA947628A5
:10036000ABF517490856B4EA6937D58B5709EBB591
:1003700036688AD495CB2977F4AA4816E9B7550B85
:1003800088D6346A2B7597C94A14F6A8742AC89679
:10039000154BA9F7B6E80A54D7896B350000000061
:1003A000240027002A000D0A004572726F72002B8C
:1003B00048545450524541443A200041542B48542B
:1003C00054505245414400302C363000302C3230ED
:1003D000300041542B48545450414354494F4E3DF2
:1003E000300041542B48545450504152413D225505
:1003F000524C222C220041542B4854545041435417
:10040000494F4E3D300041542B48545450504152B6
:10041000413D2255524C222C220041542B48545429
:1004200050504152413D22434944222C3100415415
:100430002B48545450494E49540041542B4854546D
:10044000505445524D0041542B43495047534D4C55
:100450004F433D312C31004552524F520D004F4B0E
:100460000D0041542B434F50533F0041542B4753F1
:100470004E0041542B43504D533D22534D222C22CC
:10048000534D222C22534D220041542B434D4746BD
:100490003D310041542B53415042523D322C3100EA
:1004A00041542B53415042523D312C310041542B89
:1004B000434744434F4E543D312C224950222C2275
:1004C0000041542B53415042523D332C312C225089
:1004D0005744222C220041542B53415042523D3369
:1004E0002C312C2255534552222C220041542B539F
:1004F000415042523D332C312C2241504E222C226D
:1005000000696E7465726E65742E54454C45322ECA
:1005100072750054454C4532004D454741464F4E9B
:1005200000696E7465726E6574004D656761466F33
:100530006E006265656C696E6500696E7465726EE9
:1005400065742E6265656C696E652E727500426514
:10055000656C696E65006D7473004D545300696E6F
:100560007465726E65742E6D74732E7275004154CD
:100570002B53415042523D332C312C22436F6E7429
:10058000797065222C2247505253220041542B434C
:10059000474154543F0041542B4353510041542B85
:1005A000435245473F0041542B434E4D493D322C69
:1005B000320041542B435343533D2247534D2200B5
:1005C00041542B434C49503D310041542B434D473E
:1005D000463D310041542B4346554E3D3100415478
:1005E0002B4950523D3139323030004154453000B2
:1005F000EB05DE05D405CA05C005B205A6059D05B7
:1006000096058C056E055E055A0556054E053A059C
:1006100032052A052105190513050105EC04D60448
:10062000C104AD04A0049304890472046B04620441
:100630005E04570446043A042E041A040604F60322
:10064000E203D203CC03C703BB03AF03A903A60392
:1006500000000000250028002B00000000002300FF
:100660002600290004040404040404040202020213
:100670000202030303030303010204081020408065
:100680000102040810200102040810204E414E49C6
:100690004E495459494E46CDCCCC3D0AD7233C1740
:1006A000B7D13877CC2B329595E6241FB14F0A008D
:1006B0000020410000C84200401C4620BCBE4CCA7D
:1006C0001B0E5AAEC59D7400407A10F35A00A072FA
:1006D0004E18090010A5D4E80000E876481700007D
:1006E000E40B54020000CA9A3B000000E1F505004B
:1006F0000080969800000040420F000000A0860194
:10070000000000102700000000E803000000006463
:1007100000000000000A00000000000100000000CE
:10072000002C76D888DC674F0823DFC1DFAE59E1A3
:10073000B1B796E5E3E453C63AE651997696E8E612
:10074000C28426EB898C9B62ED407C6FFCEFBC9CE5
:100750009F40F2BAA56FA5F490055A2AF75C936BF7
:100760006CF9676DC11BFCE0E40D47FEF520E6B5B2
:1007700000D0ED902E0300943577050080841E088C
:100780000000204E0A000000C80C333333330F98AA
:100790006E12831141EF8D2114893BE65516CFFE71
:1007A000E6DB18D1844B381BF77C1D901DA4BBE4FD
:1007B00024203284725E228100C9F124ECA1E53D3F
:1007C0002700FD24BD2411241FBECFEFD8E0DEBFDB
:1007D000CDBF12E0A0E0B1E0E2E7FFE502C0059086
:1007E0000D92A634B107D9F725E0A6E4B2E001C026
:1007F0001D92AB32B207E1F713E0C2EED3E004C0C2
:100800002197FE010E947D26C13ED107C9F70E94B3
:1008100019150C94AC2F0C940000FC01918D828D65
:10082000981761F0828DDF01A80FB11D5D968C9144
:10083000928D9F5F9F73928F90E008958FEF9FEF4F
:100840000895FC01918D828D981731F0828DE80F0B
:10085000F11D858D90E008958FEF9FEF0895FC01C5
:10086000918D228D892F90E0805C9F4F821B910992
:100870008F739927089580EC92E00E942F0421E065
:10088000892B09F420E0822F0895FC01848DDF017B
:10089000A80FB11DA35ABF4F2C91848D90E00196F3
:1008A0008F739927848FA689B7892C93A089B189E2
:1008B0008C9180648C93938D848D981306C00288EC
:1008C000F389E02D80818F7D80830895EF92FF92E0
:1008D0000F931F93CF93DF93EC0181E0888F9B8D63
:1008E0008C8D981305C0E889F989808185FD24C025
:1008F000F62E0B8D10E00F5F1F4F0F731127E02EA8
:100900008C8DE8120CC00FB607FCFACFE889F98984
:10091000808185FFF5CFCE010E944504F1CF8B8DFC
:10092000FE01E80FF11DE35AFF4FF0820B8FEA89B9
:10093000FB898081806207C0EE89FF896083E88936
:10094000F98980818064808381E090E0DF91CF919C
:100950001F910F91FF90EF900895CF93DF93EC01DB
:10096000888D8823C9F0EA89FB89808185FD05C0CF
:10097000A889B9898C9186FD0FC00FB607FCF5CF09
:10098000808185FFF2CFA889B9898C9185FFEDCF51
:10099000CE010E944504E7CFDF91CF91089580E01A
:1009A00090E0892B29F00E943B0481110C940000F7
:1009B00008953FB7F8948091AB029091AC02A0915A
:1009C000AD02B091AE0226B5A89B05C02F3F19F02D
:1009D0000196A11DB11D3FBFBA2FA92F982F8827BF
:1009E000820F911DA11DB11DBC01CD0142E0660F1A
:1009F000771F881F991F4A95D1F708950895089584
:100A0000FC0190810180F281E02DF8948181892B95
:100A100081832281892F809528232283A7E0B0E05B
:100A20001197F1F7218182238183A3E2B0E011972E
:100A3000F1F780817894EFECF0E03197F1F79823AB
:100A400081E009F480E00895FC0190810180F28149
:100A5000E02D892F809560FF12C0F89422818223B7
:100A600082838181892B8183A3E2B0E01197F1F722
:100A70008281982B9283789487ED90E011C0F8944E
:100A80002281822382838181892B8183AFEFB0E031
:100A90001197F1F78281982B928378948FE090E000
:100AA0000197F1F708950895209148023091490285
:100AB0002817390771F490914602809147029817E0
:100AC00041F0E0914602F0E0EA59FD4F808190E06C
:100AD00008958FEF9FEF089508951F93CF93DF93AD
:100AE000DC015C962D913C915D972115310539F41F
:100AF00081E090E013969C938E9312973DC051969F
:100B0000ED91FC91529750969C915097892F80952A
:100B10001FB75E964C915E9741FB772770F941FDB8
:100B20006095F8944081772311F0492B01C0482348
:100B30004083E9012197F1F748E0508160FF02C04E
:100B4000592B01C058235083E9012197F1F766958D
:100B5000415099F7772321F090818923808303C046
:100B60008081982B90831FBF5C968D919C915D979F
:100B70000197F1F721E030E0C901DF91CF911F919A
:100B8000089520914802309149022817390771F4DD
:100B9000809147022091460290E0805C9F4F821B2B
:100BA000910960E470E00E943326089580E090E0AF
:100BB0000895209148023091490228173907B9F465
:100BC0009091460280914702981789F0E091460281
:100BD000F0E0EA59FD4F80812091460230E02F5F1E
:100BE0003F4F2F7333272093460290E008958FEFF5
:100BF0009FEF08950E94BA271F920F920FB60F928F
:100C000011242F933F934F935F936F937F938F9311
:100C10009F93AF93BF93EF93FF9380EC92E00E947A
:100C20004504FF91EF91BF91AF919F918F917F917B
:100C30006F915F914F913F912F910F900FBE0F9049
:100C40001F9018951F920F920FB60F9211242F9399
:100C50008F939F93EF93FF93E091D002F091D10295
:100C60008081E091D602F091D70282FD12C090817E
:100C70008091D9028F5F8F732091DA02821751F031
:100C8000E091D902F0E0E054FD4F958F8093D902B6
:100C900001C08081FF91EF919F918F912F910F90D3
:100CA0000FBE0F901F901895833081F028F481308B
:100CB00099F08230A1F008958730A9F08830B9F01A
:100CC0008430D1F4809180008F7D03C080918000BA
:100CD0008F7780938000089584B58F7702C084B5A4
:100CE0008F7D84BD08958091B0008F7703C080917F
:100CF000B0008F7D8093B00008951F93CF93DF9352
:100D0000282F30E0F901E859FF4F8491F901E858A4
:100D1000F94FD491F901EC59F94FC491CC23C9F0A2
:100D2000162F81110E945406EC2FF0E0EE0FFF1FEA
:100D3000E05BF94FA591B4918FB7F894111105C0FC
:100D40009C91ED2FE095E92302C0EC91ED2BEC9303
:100D50008FBFDF91CF911F910895CF93DF9390E0E4
:100D6000FC01E858F94F2491FC01EC59F94F8491AA
:100D7000882361F190E0880F991FFC01E456FC4F35
:100D8000C591D491FC01E05BF94FA591B49161113B
:100D900009C09FB7F8948881209582238883EC91BD
:100DA0002E230BC0623061F49FB7F8943881822FF4
:100DB000809583238883EC912E2B2C939FBF06C0B4
:100DC0008FB7F894E8812E2B28838FBFDF91CF91C6
:100DD00008958F929F92AF92BF92CF92DF92EF923F
:100DE000FF926B017C010E94D9044B015C01C1148C
:100DF000D104E104F104F1F00E94D904DC01CB013B
:100E000088199909AA09BB09883E9340A105B10533
:100E100070F321E0C21AD108E108F10888EE880ECB
:100E200083E0981EA11CB11CC114D104E104F1049B
:100E300019F7DDCFFF90EF90DF90CF90BF90AF908C
:100E40009F908F9008952FB7F8946091A7027091AA
:100E5000A8028091A9029091AA022FBF08951F9223
:100E60000F920FB60F9211242F933F938F939F935E
:100E7000AF93BF938091A7029091A802A091A9027D
:100E8000B091AA023091A60223E0230F2D3720F45F
:100E90000196A11DB11D05C026E8230F0296A11DD4
:100EA000B11D2093A6028093A7029093A802A0935D
:100EB000A902B093AA028091AB029091AC02A091DA
:100EC000AD02B091AE020196A11DB11D8093AB029F
:100ED0009093AC02A093AD02B093AE02BF91AF91DC
:100EE0009F918F913F912F910F900FBE0F901F9068
:100EF00018951F920F920FB60F9211242F933F93C4
:100F00004F935F936F937F938F939F93AF93BF9311
:100F1000EF93FF93E0910201F09103010995FF9196
:100F2000EF91BF91AF919F918F917F916F915F9161
:100F30004F913F912F910F900FBE0F901F901895DA
:100F40001F920F920FB60F9211242F933F934F933E
:100F50005F936F937F938F939F93AF93BF93EF9321
:100F6000FF93E0910001F09101010995FF91EF914C
:100F7000BF91AF919F918F917F916F915F914F91B1
:100F80003F912F910F900FBE0F901F901895DC018D
:100F9000E0E0615038F08D91E827F0E0E456FD4F35
:100FA000E491F7CF8E2F0895CF92DF92EF92FF92C8
:100FB0000F931F93CF93DF931F92CDB7DEB76C01D2
:100FC000E62E08E010E0FF24F39461E08F2D8E21DF
:100FD00009F460E0C60149830E942405FF0C01501A
:100FE000110949810115110581F7411115C0F894C6
:100FF000D6011196ED91FC91129791818C9180957B
:10100000892381831196ED91FC91129792818C91A5
:1010100080958923828378940F90DF91CF911F91DF
:101020000F91FF90EF90DF90CF900895CF92DF92D5
:10103000EF92FF920F931F93CF93DF931F92CDB741
:10104000DEB78C01F62E40E065E579830E94D40777
:10105000CF2C7981D72E760188E0E80EF11CF601BD
:1010600061916F0140E0C8010E94D407CE14DF04F3
:10107000B1F70F90DF91CF911F910F91FF90EF90FB
:10108000DF90CF900895FC0190810180F281E02DE6
:10109000F8948181292F20958223818378948DE78C
:1010A00043E050E0815021F1DA011197F1F73081EE
:1010B0003923C1F3F8948281822382838181892B31
:1010C00081837894ABE7B7E01197F1F7F8948181C9
:1010D00028232183A3E1B1E01197F1F780819823C0
:1010E00081E009F080E07894E3E6F6E03197F1F7EB
:1010F0000895AF92BF92CF92DF92EF92FF920F933B
:101100001F93CF93DF931F92CDB7DEB75C01E62E1E
:10111000D72EFC01858581115DC0C5010E94430861
:10112000811105C0F5011386158614866BC040E059
:1011300060EFC5010E94D40701E0F12CC12C11E041
:10114000C5010E940005682FC50169830E94000542
:101150006981613019F48130B9F433C04F2D50E00A
:1011600068131BC0F5018385181730F4E40FF51FD1
:101170008381802349F402C0181731F060E01930F0
:1011800058F4F501148708C0F501EF0DF11D8381B6
:10119000802B838361E009C0C12EF501E40FF51FA8
:1011A0009381802F809589238383C5010E94240524
:1011B0001F5F000F11F4F39401E0F7E0FF1508F052
:1011C000BFCF113438F0F501C386C11015C081E0DE
:1011D000858712C0F50113861586148680E0D50137
:1011E0001396EE2DFD2D9501255F3F4F9D91919317
:1011F000A217B307D9F706C0F5018381882351F3FD
:1012000081E0EDCF0F90DF91CF911F910F91FF9073
:10121000EF90DF90CF90BF90AF9008956F927F9244
:101220008F929F92AF92BF92CF92DF92EF92FF92F6
:101230000F931F93CF93DF931F92CDB7DEB78C012F
:10124000F42EFC018581968159830E94160840E0A6
:101250006EEBF801858196810E94D4076F2C59812D
:10126000752E5301F9E0AF0EB11CF8018580968010
:1012700088E0C82ED12CEE24E394F12CC4010E9406
:1012800000058111FE28EE0CF1E0CF1AD108B1F76C
:10129000F301F1923F01EA15FB0539F7F801858169
:1012A00096810E94430891E0813009F090E0892FF7
:1012B0000F90DF91CF911F910F91FF90EF90DF90F2
:1012C000CF90BF90AF909F908F907F906F90089538
:1012D0000F931F93CF93DF93EC01162F60E0812FC4
:1012E0000E94AD06612F70E0FB01E858F94FE491D0
:1012F000E883FB01EC59F94FE491F0E0EE0FFF1F9A
:10130000E65AF94F859194919A8389831B861D86AD
:101310001C86FE013B968E010D5F1F4F1292E01757
:10132000F107E1F7DF91CF911F910F910895CF93CE
:10133000DF93EC018D819E810E94430840E06CECBC
:101340008D819E810E94D407488164E48D819E81B5
:101350000E94D4078A818823B1F0E981E950E33003
:1013600040F4F0E0EE0FFF1FE25FFE4F60817181FD
:1013700002C06EEE72E0072E000C880B990BDF9115
:10138000CF910C94E906DF91CF910895EF92FF92EF
:101390000F931F93CF93DF9300D0CDB7DEB78C01AF
:1013A0007A01FC018581968169837A830E944308D2
:1013B00069817A81882371F0A701C8010E940E0912
:1013C000882341F068E0C7010E94C70791E0F70158
:1013D0002085821390E0892F0F900F90DF91CF919D
:1013E0001F910F91FF90EF900895CF93DF93CDB7AA
:1013F000DEB729970FB6F894DEBF0FBECDBFFB0155
:1014000020812031D1F0AE014F5F5F4F0E94C609AD
:10141000882389F08D818F3361F020F48F3159F466
:1014200089E00CC08F3519F08F3739F004C08BE09C
:1014300005C08AE003C080E001C08CE029960FB6A9
:10144000F894DEBF0FBECDBFDF91CF910895EF922C
:10145000FF920F931F93CF93DF93CDB7DEB76197C2
:101460000FB6F894DEBF0FBECDBF8C01DC01159620
:10147000ED91FC911697138615861486DF011B9655
:1014800033961E92AE17BF07E1F7F8011482FF24CE
:10149000F394BE01665F7F4FF801858196810E94BB
:1014A0007908882309F464C067E0CE010A960E9497
:1014B000C70799898913EDCFD8018C91811126C076
:1014C00015968D919C9116970E944308BE01665F08
:1014D0007F4FF801858196810E94160840E064EBF9
:1014E000D80115968D919C9116970E94D407F8010A
:1014F000858196810E940005E82ED80115968D9170
:101500009C9116970E944308EE2079F1F80185819D
:1015100096810E944308882349F0AE014F5F5F4FD8
:10152000BE01665F7F4FC8010E940E09D801119667
:10153000EC90BE01665F7F4FC8010E94F5098E15D1
:1015400018F4F801818106C0BE01665F7F4FC801B3
:101550000E94F509D80111968C93119714968C91DD
:1015600014978F5F14968C9394CFD801FC92CECFB2
:1015700061960FB6F894DEBF0FBECDBFDF91CF915D
:101580001F910F91FF90EF9008951F920F920FB649
:101590000F9211242F933F934F935F936F937F93F9
:1015A0008F939F93AF93BF93EF93FF93E091480284
:1015B000F0914902309709F451C0968DA685B78500
:1015C000858591FF04C09C91892329F447C09C9193
:1015D000892309F043C0A389B4899C9185898095AA
:1015E00089238C93868997890197F1F7608D718D96
:1015F000A685B785558538E020E0CB010197F1F746
:10160000822F90E095958795282F4C91452309F0DE
:101610002068315091F7868D81FD20958091470299
:1016200090E001968F73992730914602381749F060
:10163000A0914702B0E0AA59BD4F2C938093470276
:1016400003C0868D8160868F828D938D0197F1F71F
:10165000A389B4899C918589892B8C93FF91EF9103
:10166000BF91AF919F918F917F916F915F914F91BA
:101670003F912F910F900FBE0F901F901895CF9212
:10168000DF92EF92FF920F931F93CF93DF93EB01C3
:101690007B012DE0E20EF11C8B016C01C61AD70A0A
:1016A000C601800F911F0E94452FF80181938F0181
:1016B000EE15FF05A9F7CE01DF91CF911F910F9194
:1016C000FF90EF90DF90CF9008950F931F93CF93EB
:1016D000DF938C01EB010E94452F8883C80101969E
:1016E0000E94452F8983CE01DF91CF911F910F91E9
:1016F00008950C944D2F1F93CF93DF931F92CDB776
:10170000DEB7162F682F8AE049830E947D06612F7D
:101710008EE00E947D064981642F8FE00F90DF915B
:10172000CF911F910C947D060F931F930E94230766
:10173000009162021091630220916402309165026F
:101740009B01201B310B3093610220936002609358
:1017500062027093630280936402909365028091A9
:10176000600290916102803F9B403CF0809160025A
:10177000909161028E3F9B408CF08091600290912D
:101780006102883593406CF0809160029091610213
:101790008636934034F481E090E05BC082E090E0D4
:1017A00058C080916002909161028F35914044F061
:1017B0008091600290916102823791400CF447C0A1
:1017C00080914A0290914B020197E1F420915E02D0
:1017D00030915F0281E090E0232B11F080E090E0F7
:1017E00090935F0280935E0280915E0290915F020F
:1017F00040E0892B19F460E081E002C061E080E004
:101800000E947B0B80914A0290914B02029731F526
:1018100020915E0230915F0281E090E0232B11F075
:1018200080E090E090935F0280935E0280915E0280
:1018300090915F02892B21F440E060E081E003C0D9
:1018400041E060E080E01F910F910C947B0B83E0FE
:1018500090E090934B0280934A02B2CF1F910F9178
:101860000895EF92FF920F931F93CF93DF931F92F0
:10187000CDB7DEB77C01FC0100811181C80169830D
:101880000E94452F6981681719F0C8010E944D2FE9
:10189000C7010F90DF91CF911F910F91FF90EF90B3
:1018A0000895AF92BF92CF92DF92EF92FF920F9383
:1018B0001F93CF93DF9300D0CDB7DEB78B016B01C1
:1018C0002DE0C20ED11C7B015C01A61AB70A95015E
:1018D0002E0D3F1DF70161917F013A832983CE01CF
:1018E00001960E94310CEC14FD0489F7C8010F9099
:1018F0000F90DF91CF911F910F91FF90EF90DF90AC
:10190000CF90BF90AF900895EF92FF920F931F93E7
:10191000CF93DF9300D0CDB7DEB78C017B01FB0105
:1019200060819A838983CE0101960E94310CF70170
:1019300061810F5F1F4F1A830983CE0101960E94B8
:10194000310CC7010F900F90DF91CF911F910F9134
:10195000FF90EF900895CF93DF9300D0CDB7DEB71F
:10196000BE016F5F7F4F80EA90E00E94650B898126
:101970009A8101969A838983BE016F5F7F4F80EAC7
:1019800090E00E94840C0F900F90DF91CF9108950A
:10199000FC0124813581FB014481558124173507E1
:1019A00021F5FC0180819181FB01608171810097AB
:1019B00019F061157105A1F46115710549F0232B2A
:1019C000B1F0FB01808190E09195819591090AC069
:1019D000009769F0232B59F0FC01808190E002C050
:1019E0000E94E52721E0892B19F020E001C021E0C9
:1019F00081E082270895CF92DF92EF92FF920F93BA
:101A00001F93CF93DF936C017A018B01C0E0D0E08C
:101A1000CE15DF0589F0D8016D918D01D601ED91CC
:101A2000FC910190F081E02DC6010995892B11F4FC
:101A30007E0102C02196ECCFC701DF91CF911F91AB
:101A40000F91FF90EF90DF90CF9008950F931F9329
:101A5000CF93DF93CDB7DEB761970FB6F894DEBFB3
:101A60000FBECDBF8C01BE01665F7F4F0E94DD14AB
:101A7000811105C060E070E08EEF92EC4BC0AE01CA
:101A80004F5F5F4FBE01665F7F4FC8010E94C6096E
:101A9000882359F1698148E0649FB00111248A814B
:101AA000282F30E0322F2227330F330F330F262B0E
:101AB000372B8A858031E1F4688570E08F81AB0136
:101AC000481B5109CA019695982F882797958795A5
:101AD0000E94332660517109207F53E0220F331F8B
:101AE0005A95E1F7620F731F04C060E874EE01C0FD
:101AF000B901613854EE75070CF4BCCF072E000C09
:101B0000880B990B0E94252E20E030E040E05CE33A
:101B10000E94842E61960FB6F894DEBF0FBECDBF33
:101B2000DF91CF911F910F910895DF92EF92FF9275
:101B30000F931F93CF93DF93CDB7DEB729970FB6DF
:101B4000F894DEBF0FBECDBF8C017B01AE014F5FAD
:101B50005F4F0E94C609D82E882309F459C0F701A7
:101B60008081803109F454C08FE78D83F80185812D
:101B700096810E944308B701F801858196810E94F1
:101B8000160840E06EE4F801858196810E94D40732
:101B900040E06B81F801858196810E94D40740E086
:101BA0006C81F801858196810E94D407F7018081BC
:101BB000803139F040E06D81F801858196810E9485
:101BC000D407F801858196810E944308B701F80186
:101BD000858196810E941608F801408168E485811C
:101BE00096810E94D40764E170E080E090E00E945A
:101BF000E906F8018081882331F06AE070E080E036
:101C000090E00E94E906F801858196810E944308D0
:101C10008D2D29960FB6F894DEBF0FBECDBFDF9194
:101C2000CF911F910F91FF90EF90DF9008952F9229
:101C30003F924F925F926F927F928F929F92AF925C
:101C4000BF92CF92DF92EF92FF920F931F93CF93A9
:101C5000DF9300D000D0CDB7DEB7FC0144805580C3
:101C60004114510409F413C1FB01648075806114AF
:101C7000710409F40CC17A016B019C838B83FA0116
:101C8000A480B580A618B708FC0100811181A114B9
:101C9000B104C1F4F60160817181C8010E94042879
:101CA0005C01892B09F4F3C0F701608171814481E3
:101CB0005581C5010E94BF27F701048115810A0DD6
:101CC0001B1DE8CFB7FE02C0480106C0FB01208003
:101CD00031804201C80148C0F60160817181C401B0
:101CE0000E9404282C01892B29F1320168187908F7
:101CF000A301B401C8010E94BF27060D171DF701FB
:101D00006081718144815581C8010E94BF27F7011C
:101D100084819581080F191FF60184809580840CB9
:101D2000951CEB81FC81848195818A0D9B1D958397
:101D30008483D2CFB401C8010F900F900F900F9001
:101D4000DF91CF911F910F91FF90EF90DF90CF9097
:101D5000BF90AF909F908F907F906F905F904F90CB
:101D60003F902F900C94EE27B1010E940428009719
:101D700029F0860D971D8A0C9B1CF6CF84149504C0
:101D800009F485C0EB81FC818281938188159905D6
:101D900078F4B4016F5F7F4FC8010E94F02600976E
:101DA00009F475C0EB81FC819183808393828282E8
:101DB000EB81FC81048115810150110917FD67C079
:101DC000F601248035802114310409F460C0EB81D0
:101DD000FC81648075806114710409F458C0621438
:101DE000730408F454C00615170518F08301015058
:101DF0001109EB81FC8140805180C20188248A94C2
:101E0000982C9201200F311F2817390758F0F6013E
:101E10006081718129833A830E94042829813A8153
:101E2000009761F597FC33C0280C391CC201820D64
:101E3000931DA30142195309BC018A0D9B1D0E94E9
:101E4000C827EB81FC81848195818A0D9B1D958338
:101E5000848320813181F901E80FF91F1082EB8121
:101E6000FC8180819181F70160817181448155817C
:101E7000880D991D0E94BF2784019ECFAC01441993
:101E800055090417150708F04A010196BDCF0F90B8
:101E90000F900F900F90DF91CF911F910F91FF90B6
:101EA000EF90DF90CF90BF90AF909F908F907F90FA
:101EB0006F905F904F903F902F900895CF93DF9356
:101EC000FC0124813581232B71F0FB01DC01CD91D4
:101ED000DC9160817181CE010E940428009719F085
:101EE0008C1B9D0B02C08FEF9FEFDF91CF91089568
:101EF000FC01248135816217730720F48081918170
:101F0000009729F41092AF028FEA92E00895860FAD
:101F1000971F08950F931F93CF93DF93EC01888150
:101F20009981009729F02A813B812617370788F489
:101F30008B016F5F7F4F0E94F026009761F09983BD
:101F400088831B830A832C813D81232B11F4FC01A0
:101F5000108281E001C080E0DF91CF911F910F914D
:101F60000895EF92FF920F931F93CF93DF93FC019D
:101F7000248135816115710511F480E019C0411586
:101F80005105A9F07B01EC018A01020F131FB80172
:101F90000E948A0F882389F3288139818C819D8151
:101FA000B701820F931F0E94EE271D830C8381E0EF
:101FB000DF91CF911F910F91FF90EF900895CF93F4
:101FC000DF93EC0188819981009711F00E94D3285A
:101FD000198218821D821C821B821A82DF91CF9186
:101FE00008950F931F93CF93DF9300D0CDB7DEB743
:101FF0008C0169831A8241E050E0BE016F5F7F4F20
:102000000E94B10F811103C0C8010E94DF0FC801F7
:102010000F900F90DF91CF911F910F910895CF9363
:10202000DF93EC016115710561F0FB010190002067
:10203000E9F73197AF01461B570B0E94B10F811191
:1020400003C0CE010E94DF0FCE01DF91CF91089532
:10205000CF93DF93EC01FB01448155816081718155
:102060000E94B10F811103C0CE010E94DF0FCE018B
:10207000DF91CF910895EF92FF920F931F93CF932B
:10208000DF93EC017B018A01BA010E948A0F811162
:1020900004C0CE010E94DF0F07C01D830C83B7016F
:1020A000888199810E94EE27CE01DF91CF911F9107
:1020B0000F91FF90EF900895CF93DF93EC0161159E
:1020C000710559F0FB0101900020E9F73197AF014C
:1020D000461B570B0E943B1002C00E94DF0FCE012F
:1020E000DF91CF910895CF93DF93EC01FB01861729
:1020F000970761F0608171816115710529F0448154
:1021000055810E943B1002C00E94DF0FCE01DF917B
:10211000CF910895FC01808191810C94D328EF9296
:10212000FF920F931F93CF93DF93CDB7DEB7A197A5
:102130000FB6F894DEBF0FBECDBF7C01CB01BA0154
:10214000F70111821082138212821582148242E0FA
:10215000420F8E010F5F1F4F0E941E28BC01C70156
:102160000E945C10A1960FB6F894DEBF0FBECDBFE3
:10217000DF91CF911F910F91FF90EF9008950F93F2
:102180001F93CF93DF93CDB7DEB729970FB6F8949F
:10219000DEBF0FBECDBF8C01862FF80111821082E9
:1021A000138212821582148250E0BE016F5F7F4F4E
:1021B00090E00E94052ABE016F5F7F4FC8010E9418
:1021C0005C1029960FB6F894DEBF0FBECDBFDF912D
:1021D000CF911F910F910895FC01118210821382FB
:1021E0001282158214820C947310FC0111821082E9
:1021F00013821282158214826115710551F0FB0160
:1022000001900020E9F73197AF01461B570B0C9462
:102210003B10089564EC71E00C9404150F931F9328
:10222000CF93DF93EC010E9404158C01CE010E9434
:102230000A11800F911FDF91CF911F910F91089587
:102240009F92AF92BF92CF92DF92EF92FF920F9345
:102250001F93CF93DF937C01EB018A01892B49F017
:102260000E946212B70180910405909105050E94B9
:102270000E110E9423076B017C01912C23E6B22EE4
:102280008091040590910505DC01ED91FC9104809D
:10229000F581E02D0995892BA9F180910405909194
:1022A0000505DC01ED91FC910680F781E02D099593
:1022B000B6ECB91558F4ECE3F4E0A8EDB3E09B2DCF
:1022C00001900D929A95E1F793E6992EAA24A39492
:1022D000A90CE92DF0E0E852FC4F8083EA2DF0E0F4
:1022E000E852FC4F1082BE0188ED93E00E94042862
:1022F000892BC1F4B80188ED93E00E940428892B52
:1023000099F49A2C0E942307DC01CB018C199D09BA
:10231000AE09BF09803D9740A105B10508F4B0CFD3
:1023200080E003C081E001C082E0DF91CF911F9186
:102330000F91FF90EF90DF90CF90BF90AF909F9064
:102340000895DC01ED91FC910190F081E02D09945C
:10235000CF92DF92EF92FF92CF93DF936C01990FB0
:10236000EE08FF08F7FE14C06DE280EC92E00E94D8
:10237000A111EC0166277727CB016C197D098E0925
:102380009F094AE00E940C137C01EC0EFD1E06C062
:102390004AE0C701B6010E940C137C0180EC92E078
:1023A0000E940A118E0D9F1DDF91CF91FF90EF903B
:1023B000DF90CF9008950C940415DC01ED91FC9111
:1023C000DB0114964D915C9115976D917C91028083
:1023D000F381E02D09940F931F93CF93DF93CCECFF
:1023E000D3E08C010C5C1340C8018C0F9D1F0E9430
:1023F000452F899383E0C23DD807B1F78CEC93E079
:10240000DF91CF911F910F9108950F931F93CF9359
:10241000DF93C0EBD2E08C01005B1240C8018C0F4F
:102420009D1F0E94452F899382E0C03CD807B1F7D9
:1024300080EB92E0DF91CF911F910F9108950F9360
:102440001F93CF93DF93C4E0D1E08C01045011407F
:10245000C8018C0F9D1F0E94452F899381E0C830D1
:10246000D807B1F784E091E0DF91CF911F910F91F0
:102470000895EF92FF920F931F93CF93DF9300D0B5
:10248000CDB7DEB704E011E0845091407C019701A4
:10249000200F311FF80161918F013A832983CE010A
:1024A00001960E94310CF1E008301F0781F784E0AB
:1024B00091E00F900F90DF91CF911F910F91FF90BE
:1024C000EF9008958091040590910505DC01ED9150
:1024D000FC910480F581E02D0995892B61F08091B4
:1024E000040590910505DC01ED91FC910680F781D2
:1024F000E02D0995E7CF08954F925F926F927F92FA
:102500009F92AF92BF92CF92DF92EF92FF920F9382
:102510001F93CF93DF93EC016B018A01892B49F064
:102520000E946212BE0180910405909105050E94EF
:102530000E110E9423072B013C01C0E080E3A82E6E
:1025400086E0B82ED3E6E12CF12C80910405909121
:102550000505DC01ED91FC910480F581E02D0995E4
:10256000892BC9F18091040590910505DC01ED915D
:10257000FC910680F781E02D0995C73C50F0ECE313
:10258000F4E0A8EDB3E09D2F01900D929A95E1F74C
:10259000C3E6992493949C0EEC2FF0E0E852FC4F94
:1025A0008083E92DF0E0E852FC4F1082F50165913F
:1025B000749186EC94E00E94B4290115110519F478
:1025C00066EC74E001C0B80188ED93E00E94042835
:1025D000892B89F4C92D0E942307DC01CB018419C2
:1025E0009509A609B7098C159D05AE05BF0508F428
:1025F000ACCF80E001C0892DDF91CF911F910F9169
:10260000FF90EF90DF90CF90BF90AF909F907F9022
:102610006F905F904F9008958F929F92AF92BF926C
:102620000F931F93CF93DF93CDB7DEB7A1970FB66C
:10263000F894DEBF0FBECDBF19A2423008F44AE0C5
:102640008E010F5D1F4F842E912CA12CB12CA50162
:1026500094010E944726E62FB901CA0101501109D1
:10266000EA3014F4E05D01C0E95CD801EC93232B5F
:10267000242B252B61F7B80180EC92E00E94041511
:10268000A1960FB6F894DEBF0FBECDBFDF91CF91FC
:102690001F910F91BF90AF909F908F9008950F93CF
:1026A0001F93CF93DF938C01C0E0D0E0F801EC0FD3
:1026B000FD1F6491662371F0E091C002F091C102A8
:1026C0000190F081E02D80EC92E00995892B11F0CA
:1026D0002196ECCFCE01DF91CF911F910F910895FC
:1026E000CF93DF930E944F13EC0180EC92E00E94A5
:1026F0000A118C0F9D1FDF91CF910895CF93DF9327
:10270000FC014481558141155105D1F042305105FC
:1027100018F461E070E002C062E070E0EC018881D2
:102720009981461B570B5D834C83680F791F0E946C
:10273000F527E881F9818C819D81E80FF91F1082CE
:10274000DF91CF910895CF93DF934AE00E940C135D
:10275000EC0180EC92E00E940A118C0F9D1FDF912A
:10276000CF910895FF920F931F93CF93DF938C0126
:10277000EB0183E6F82E8091040590910505DC01BC
:10278000ED91FC910480F581E02D0995892BD9F11B
:102790008091040590910505DC01ED91FC91068086
:1027A000F781E02D09959091A704973C58F0F0929D
:1027B000A704ECE3F4E0A8EDB3E09F2D01900D92A7
:1027C0009A95E1F7A091A704E1E0EA0FE093A7044E
:1027D000B0E0A852BC4F8C93F0E0E852FC4F10825E
:1027E000B80188ED93E00E940428892B19F5209701
:1027F00011F2BE0188ED93E00E940428892B09F4B0
:10280000BACF82E01AC00E9423070091A804109159
:10281000A9042091AA043091AB04DC01CB01801BF8
:10282000910BA20BB30B80319742A105B10520F0AB
:1028300083E003C081E001C080E0DF91CF911F9170
:102840000F91FF9008950F931F93CF93DF93EC01A7
:1028500062E20E94A1118C01CE010E940A11800F38
:10286000911FDF91CF911F910F9108950F931F93A7
:10287000CF93DF938C01EB01E0E4F6E06591749176
:1028800086EC94E00E94B42966EC74E08091040523
:10289000909105050E94DB11B8018091040590918B
:1028A00005050E94DB1188819981892BD1F58091E2
:1028B0000405909105050E94231464EF71E080E007
:1028C00090E00E94E90640E050E060ED77E080E0B3
:1028D00090E00E947C12882301F1E2E4F6E0659129
:1028E000749186EC94E00E94B42966EC74E08091C7
:1028F0000405909105050E940E1182E08093A004CA
:102900001092A7040E9423076093A8047093A9045F
:102910008093AA049093AB0413C084E08093A00436
:102920000FC06FE380910405909105050E94A111ED
:10293000BE0180910405909105050E94DD11B7CF7D
:1029400080E0DF91CF911F910F910895CF93DF9396
:10295000BC0180EC92E00E94DD11EC0180EC92E081
:102960000E940A118C0F9D1FDF91CF910895E0E026
:10297000F6E06591749186EC94E00E94B42940E001
:1029800050E060ED77E086EC94E00E947C1260E419
:1029900072E088ED93E00E940428009759F00596B4
:1029A0000E946F298336910529F08F3F2FEF920700
:1029B00009F0089580E090E00895CF93DF93EB0154
:1029C000DC011596ED91FC911697138615861486F9
:1029D000DF011B9633961E92AE17BF07E1F7BE01CB
:1029E000FC01858196810E947908882349F067E07F
:1029F000CE010E94C7079F81891302C081E001C0F8
:102A000080E0DF91CF9108956115710579F0FB01A8
:102A100001900020E9F73197AF01461B570BDC010D
:102A2000ED91FC910280F381E02D099480E090E02B
:102A30000895CF93DF93CDB7DEB7CF57D1090FB647
:102A4000F894DEBF0FBECDBF789484B5826084BD9C
:102A500084B5816084BD85B5826085BD85B58160A2
:102A600085BD80916E00816080936E001092810020
:102A700080918100826080938100809181008160DB
:102A8000809381008091800081608093800080919C
:102A9000B10084608093B1008091B0008160809328
:102AA000B00080917A00846080937A0080917A00EF
:102AB000826080937A0080917A00816080937A00AE
:102AC00080917A00806880937A001092C100E09132
:102AD000D002F091D10282E08083E091CC02F091AB
:102AE000CD021082E091CE02F091CF0287E6808382
:102AF0001092D802E091D402F091D50286E0808352
:102B0000E091D202F091D302808180618083E091D4
:102B1000D202F091D302808188608083E091D2025A
:102B2000F091D302808180688083E091D202F0919D
:102B3000D30280818F7D80838CED91E00E947013A1
:102B400061E086E00E94AD0661E08DE00E94AD0686
:102B500061E085E00E94AD0661E08AE00E94AD067A
:102B600061E08FE00E94AD0661E08EE00E94AD065C
:102B700060E083E00E94AD0660E089E00E94AD065F
:102B800040E060E081E00E947B0B6CE271E080E05D
:102B900090E00E94E90640E061E080E00E947B0B4B
:102BA0006CE271E080E090E00E94E90641E060E0C4
:102BB00080E00E947B0B6CE271E080E090E00E947C
:102BC000E90640E060E081E00E947B0B82EB93E04D
:102BD0009093890380938803109287031092830354
:102BE00099E09093840381E080938503809386032A
:102BF00024EA33E030937603209375031092740334
:102C00001092700390937103809372038093730307
:102C100026E933E03093630320936203109261034B
:102C200010925D0390935E0380935F038093600333
:102C300083E893E00E94270A80E793E00E94270A36
:102C40008DE593E00E94270ABE016F5F7F4F83E806
:102C500093E00E94DD14882339F0BE016F5F7F4F3F
:102C600083E893E00E94950DBE016F5F7F4F80E780
:102C700093E00E94DD14882339F0BE016F5F7F4F1F
:102C800080E793E00E94950DBE016F5F7F4F8DE559
:102C900093E00E94DD14882339F0BE016F5F7F4FFF
:102CA00080E793E00E94950D84E99BE090930301F7
:102CB00080930201809169008C6080936900E99A99
:102CC000B12CA12C9DEC292E312C8FE491E00E9497
:102CD000701360E086E00E947D0660E08DE00E9457
:102CE0007D0661E085E00E947D0660ED77E080E092
:102CF00090E00E94E90661E08DE00E947D0660E0C0
:102D000085E00E947D066CED75E080E090E00E9419
:102D1000E90661E086E00E947D0668EE73E080E0EF
:102D200090E00E94E90660E086E00E947D06E1E70F
:102D3000F0E08491E1E8F6E00491EDE6F6E014912C
:102D40001123A9F381110E945406E12FF0E0EE0F48
:102D5000FF1FE65AF94FA591B4918C91082339F3DE
:102D600060ED77E080E090E00E94E9068FE391E07B
:102D70000E947013109221051092200510921F05D9
:102D800010921E0510921D0510921C05309223050D
:102D90002092220590911205963108F057C025E542
:102DA00030E030931D0520931C052BEC30E0309370
:102DB0001F0520931E0520E930E030932105209364
:102DC000200520916800983050F031E09E3008F4E2
:102DD00030E081E001C0880F3A95EAF701C084E055
:102DE000822B80936800983038F09E3040F0963106
:102DF00048F020E030E008C02DE630E005C02BE6CA
:102E000030E002C02CE630E030931A05209319051B
:102E1000983030F481E001C0880F9A95EAF70EC02F
:102E2000292F30E09E3018F42850310902C02E506E
:102E3000310981E001C0880F2A95EAF780931B05CC
:102E400080912205909123050197F1F7809120054B
:102E500090912105892B49F1E0914802F0914902B6
:102E600025E0E630F20709F1309739F0A389B489FB
:102E70009C918589809589238C93809124058E7FF0
:102E800080932405109247021092460286E095E056
:102E90009093490280934802E0911905F0911A0538
:102EA000908180911B05892B808386E095E090932B
:102EB0000505809304050EE010E0809104059091D3
:102EC0000505DC01ED91FC910480F581E02D09956B
:102ED000892B61F08091040590910505DC01ED914D
:102EE000FC910680F781E02D0995E7CF40E050E0A6
:102EF00060ED77E087E391E00E947C12811133C09E
:102F000064EF71E080E090E00E94E9060150110951
:102F1000A1F640E050E060ED77E087E391E00E94A9
:102F20007C1264E670E080E090E00E94E90640E0F8
:102F300050E060ED77E087E391E00E947C1264E668
:102F400070E080E090E00E94E90640E050E060ED33
:102F500077E087E391E00E947C1264E670E080E015
:102F600090E00E94E90640E050E060ED77E087E302
:102F700091E00E947C12882309F4CEC4E2EFF5E0D0
:102F80006591749186EC94E00E94B42940E050E091
:102F900060ED77E086EC94E00E947C1264E670E0DD
:102FA00080E090E00E94E906E0EFF5E06591749121
:102FB00086EC94E00E94B42940E050E060ED77E0B8
:102FC00086EC94E00E947C1264E670E080E090E081
:102FD0000E94E906E4EFF5E06591749186EC94E0D7
:102FE0000E94B42940E050E060ED77E086EC94E088
:102FF0000E947C1264E670E080E090E00E94E906A6
:10300000E6EFF5E06591749186EC94E00E94B429B6
:1030100040E050E060ED77E086EC94E00E947C12A6
:1030200064E670E080E090E00E94E906E8EFF5E0F9
:103030006591749186EC94E00E94B42940E050E0E0
:1030400060ED77E086EC94E00E947C1264E670E02C
:1030500080E090E00E94E906EAEFF5E06591749166
:1030600086EC94E00E94B42940E050E060ED77E007
:1030700086EC94E00E947C1264E670E080E090E0D0
:103080000E94E906ECEFF5E06591749186EC94E01E
:103090000E94B42964E670E080E090E00E94E906B6
:1030A00064E670E080E090E00E94E90682E291E050
:1030B0000E947013ECE2F6E06591749186EC94E066
:1030C0000E94B42940E050E060ED77E086EC94E0A7
:1030D0000E947C1268EE73E080E090E00E94E906B6
:1030E0004AE351E061E471E085E491E00E9420113F
:1030F000813009F56DE070E088ED93E00E94DA27F9
:103100000097C9F08C010E5F1F4F6DE070E0C801A1
:103110000E94DA27009711F0FC011082B80188EDB7
:1031200093E00E94EE278BE191E00E944F1380EC28
:1031300093E00E94A61480914A0290914B0202975C
:1031400039F068EE73E080E090E00E94E906F3CF8A
:1031500068EE73E080E090E00E94E90685E091E08F
:103160000E944F131EE1F12E0EEF15E0F80165915C
:10317000749186EC94E00E94B42940E050E060ED48
:1031800077E086EC94E00E947C12882369F16CE47D
:1031900071E088ED93E00E940428009729F1DC019A
:1031A00012962C91213311F02533F1F4E0E0F6E092
:1031B0006591749186EC94E0C158DF4F2883CF5716
:1031C000D0400E94B42940E050E068EE73E086EC05
:1031D00094E00E947C12C158DF4F2881CF57D04025
:1031E000EF962FAFEF9709C068EE73E080E090E0B4
:1031F0000E94E906FA94F110B9CF84EF90E00E94A2
:103200004F13EF966FADEF9780EC92E00E94A11103
:1032100081EF90E00E944F13EF962FADEF9721338F
:1032200019F48EED90E008C0EF962FADEF9725339F
:1032300009F03AC38AEC90E00E94701380914A0230
:1032400090914B02029709F02FC360ED77E080E088
:1032500090E00E94E906A8E08A2EA6E09A2EB4E249
:103260006B2EB6E07B2E0E94B7148C0182EC90E0AE
:103270000E944F13C8010E94A81168EE73E080E01D
:1032800090E00E94E90682EB90E00E94701340E01B
:1032900050E060E27EE48FE491E00E947C12E2E084
:1032A000F6E06591749186EC94E00E94B42940E0C8
:1032B00050E060ED77E086EC94E00E947C12882379
:1032C00009F4D3C2E4E0F6E06591749186EC94E0F1
:1032D0000E94B42940E050E060ED77E086EC94E095
:1032E0000E947C12882309F4C0C2EEE2F6E06591E8
:1032F000749186EC94E00E94B429E2E3F6E06591D3
:1033000074918EEE94E00E94B4294EEE54E061E494
:1033100071E086EC94E00E9420118130C9F46AE5E6
:1033200071E088ED93E00E940428009789F08C01F9
:103330000E5F1F4F62E270E0C8010E94DA2700971B
:1033400011F0DC011C92B80188ED93E00E94EE2799
:1033500068ED73E0CE018E960E94F51066EC71E088
:10336000CE0188960E94F5106DE571E0CE0182963F
:103370000E94F510AE01485D5F4FBE016E5D7F4F4C
:10338000CE018E960E94170ECE0182960E948A1060
:10339000CE0188960E948A1066EC71E0CE01889674
:1033A0000E94F5106BE571E0CE0182960E94F51047
:1033B000AE01485D5F4FBE016E5D7F4FCE018E96C0
:1033C0000E94170ECE0182960E948A10CE01889626
:1033D0000E948A1066EC71E0CE0188960E94F5107A
:1033E00065EC71E0CE0182960E94F510AE01485D59
:1033F0005F4FBE016E5D7F4FCE018E960E94170E0D
:10340000CE0182960E948A10CE0188960E948A1070
:1034100066EC71E0CE0188960E94F51063E471E0DD
:10342000CE0182960E94F510AE01485D5F4FBE014D
:103430006E5D7F4FCE018E960E94170ECE01829652
:103440000E948A10CE0188960E948A10CEA4DFA422
:10345000C114D104E1F10AA91BA901151105B9F1A3
:1034600026017201BFEF4B1A5B0AF7018081082E1B
:10347000000C990B0E94ED2D892B99F70150110931
:103480000C0D1D1DD8018C91082E000C990B0E946B
:10349000ED2D892B79F40F5F1F4FA8014E195F099D
:1034A0005BAB4AABCE14DF0458F4B701C6010E94EF
:1034B000BF2706C00E151F0570F301501109E2CF9A
:1034C000EEA5FFA58AA99BA9E80FF91F1082F401B8
:1034D0006591749186EC94E00E94B42966EC74E0E6
:1034E000CE0182960E94F510BE016E5D7F4FCE0127
:1034F0008E960E945E0F8C01CE0182960E948A10E9
:1035000017FD32C006E016E0F8016591749186EC73
:1035100094E00E94B42966EC74E08CEA94E00E9486
:103520005C10EAE0F6E06591749186EC94E00E940C
:10353000B42966EC74E082EB94E00E945C1066ECC7
:1035400074E088EB94E00E945C10F801659174913E
:1035500086EC94E00E94B42966EC74E08EEB94E073
:103560000E945C10F4013EC060E671E0CE018296DC
:103570000E94F510BE016E5D7F4FCE018E960E94B7
:103580005E0F8C01CE0182960E948A1017FD31C019
:10359000EEE0F6E0659174918EEE94E00E94B4291D
:1035A0006EEE74E08CEA94E00E945C10E0E1F6E0DC
:1035B0006591749186EC94E00E94B42966EC74E005
:1035C00082EB94E00E945C1066EC74E088EB94E07F
:1035D0000E945C106EEE74E08EEB94E00E945C1032
:1035E000ECE0F6E06591749186EC94E00E94B429D9
:1035F0003CC06DE671E0CE0182960E94F510BE01DE
:103600006E5D7F4FCE018E960E945E0F8C01CE01C3
:1036100082960E948A1017FD2EC0E2E1F6E06591C5
:10362000749186EC94E00E94B429E4E1F6E065919F
:1036300074918EEE94E00E94B4296EEE74E08CEAF0
:1036400094E00E945C1066EC71E082EB94E00E94D2
:103650005C1066EC71E088EB94E00E945C106EEE0A
:1036600074E08EEB94E00E945C1066EC74E080ECF9
:1036700092E00E940E11ECE1F6E06591749186EC07
:1036800094E00E94B42966EC74E080910405909166
:1036900005050E94DB116CEA74E0809104059091AD
:1036A00005050E94DD1180910405909105050E9499
:1036B000231440E050E060ED77E080E090E00E946D
:1036C0007C12811102C014E0BAC0EEE1F6E065910F
:1036D000749186EC94E00E94B42966EC74E08091C9
:1036E0000405909105050E94DB1162EB74E0809166
:1036F0000405909105050E94DD11809104059091CB
:1037000005050E94231440E050E060ED77E080E082
:1037100090E00E947C128823B1F2E0E2F6E065912D
:10372000749186EC94E00E94B42966EC74E0809178
:103730000405909105050E94DB1168EB74E080910F
:103740000405909105050E94DD118091040590917A
:1037500005050E94231440E050E060ED77E080E032
:1037600090E00E947C12882309F4ADCFE2E2F6E0FB
:103770006591749186EC94E00E94B42966EC74E043
:1037800080910405909105050E94DB116EEB74E0B9
:1037900080910405909105050E94DD11809104053A
:1037A000909105050E94231440E050E060ED77E021
:1037B00080E090E00E947C12882309F484CFF3011A
:1037C0006591749186EC94E00E94B42940E050E049
:1037D00060E177E286EC94E00E947C12E6E2F6E09B
:1037E0006591749186EC94E00E94B42940E050E029
:1037F00060E177E286EC94E00E947C12E8E2F6E079
:103800006591749186EC94E00E94B42940E050E008
:1038100060ED77E086EC94E00E947C12EAE2F6E04C
:103820006591749186EC94E00E94B42940E050E0E8
:1038300060ED77E086EC94E00E947C1210E0CE010F
:103840008E960E948A10111110C080914A029091A8
:103850004B02039739F062E370E080E090E00E9451
:10386000E906F3CF8FE990E013C0B3948EE890E0BF
:103870000E94701368E873E180E090E00E94E9061E
:1038800080914A0290914B02039751F48CE790E0AB
:103890000E94701340E061E080E00E947B0B41C019
:1038A000AA2009F4E0CC3DC0B4E1BB1508F40DCA70
:1038B000AA2009F40ACA89ED91E00E94701308E376
:1038C00016E0EAE3EE2EE6E0FE2EF6E3CF2EF6E07B
:1038D000DF2EF8016591749186EC94E00E94B42982
:1038E000F701659174918EEE94E00E94B42940E056
:1038F00050E060E177E286EC94E00E947C1288233D
:10390000B9F040E050E068E873E18EEE94E00E9488
:103910007C12882369F072C085E291E00E947013E6
:10392000FFCFF4E1FB1508F0C6CFAA24A394CDC9BC
:103930001092A0046EE272E080EC92E00E94DB1133
:1039400068ED73E080EC92E00E940E1168ED73E088
:10395000CE0188960E94F5101BA21AA21DA21CA2DD
:103960001FA21EA265E070E0CE0182960E948A0F1F
:10397000811105C0CE0182960E94DF0F0AC085E04A
:1039800090E09FA38EA363ED71E08AA19BA10E94AA
:10399000B429BE016E5D7F4FCE0188960E945E0FF6
:1039A0005C01CE0182960E948A10B7FC0DC08BEBA1
:1039B00091E00E944F1368EE73E080E090E00E9477
:1039C000E906E0E0F0E00995F6016591749186EC76
:1039D00094E00E94B42940E050E060ED77E086EC8E
:1039E00094E00E947C1268EE73E080E090E00E9418
:1039F000E906CE0188960E948A106BCF81E0809301
:103A0000A00480E090E00E94452F8032A9F188EA6E
:103A100091E00E94701300E010E060E0C8010E9495
:103A2000790B0F5F1F4F0F3FF3E01F07B1F760E205
:103A300080E090E00E94790B88EC90E00E943912BF
:103A400065E771E084E690E00E94510C62E871E065
:103A500088E790E00E94510C6FE871E08CE890E0FC
:103A60000E94510C6FE871E08CED90E00E94510CC7
:103A700087E991E00E9470136CE971E08CEC93E0AF
:103A80000E945C107CECE72E73E0F72E0CED10E04A
:103A9000D7016D917D011BA30AA3CE0182960E94DE
:103AA000310C0F5F1F4F023E110591F788EC90E03B
:103AB0000E941F128CED90E00E94EB1189E891E0CA
:103AC0000E944F13609104017091050180910601DD
:103AD000909107010E94A3138CEC93E00E94A6141E
:103AE00087E791E00E9470130E94230760935502BC
:103AF0007093560280935702909358028E010F5F85
:103B00001F4F43EA51E069EA71E080EB91E00E94C7
:103B10002011813009F083C06AEB71E080EC92E003
:103B20000E94DB1168ED73E080EC92E00E940E11C0
:103B300044EC51E064E670E080E090E00E947C128A
:103B400040E050E060ED77E080E090E00E947C1281
:103B5000882309F464C040E050E060ED77E087EC32
:103B600091E00E947C128091040590910505DC0192
:103B7000ED91FC910480F581E02D0995892B09F4E4
:103B80004EC064E670E080E090E00E94E90680911B
:103B9000040590910505DC01ED91FC910480F5810F
:103BA000E02D0995892BE9F0809104059091050598
:103BB000DC01ED91FC910680F781E02D0995809361
:103BC00002059093030589831A8241E050E0B80111
:103BD00081EA94E00E94B10F6AE070E080E090E03A
:103BE000D4CF81EA94E00E94A6146AEB71E080ECE5
:103BF00092E00E94DB1168ED73E080EC92E00E949D
:103C00000E1187E992E00E944F1381EA94E00E942E
:103C1000A61468ED73E080EC92E00E940E110E9401
:103C200023076B017C0180915D02811104C088EC47
:103C300090E00E941F128091590290915A02A09127
:103C40005B02B0915C0246015701881A990AAA0AE0
:103C5000BB0A209104013091050140910601509169
:103C60000701A8EEB3E00E945B2F86169706A80610
:103C7000B90608F461C689E892E00E944F1380916A
:103C8000590290915A02A0915B02B0915C02A70187
:103C90009601281B390B4A0B5B0BCA01B90128EEB0
:103CA00033E040E050E00E944726CA01B9010E947B
:103CB000A31341E060E080E00E947B0BC0925902B8
:103CC000D0925A02E0925B02F0925C0283E893E0A9
:103CD0000E94970980E793E00E9497098DE593E0A1
:103CE0000E94970983E893E00E94260D6B017C01F6
:103CF00080E793E00E94260D4B015C018DE593E087
:103D00000E94260D2B013C010E94B7141C01EE9667
:103D10001FAE1EAEEE97BE0164587F4F80EA90E062
:103D20000E94650BA5019401C701B6010E9484267B
:103D3000A30192010E9484262FE832EC41EB52E469
:103D40000E948426AB01BC0122E0CE01845B9F4F20
:103D50000E948F10B80184E690E00E943F0BB801EA
:103D6000CE018A5B9F4F0E94F510B80188E790E072
:103D70000E943F0BB801CE01805C9F4F0E94F5105E
:103D8000B8018CE890E00E943F0BB801CE01CA96C2
:103D90000E94F5108CED90E00E94EB1161ED71E056
:103DA000CE0182960E94F510BE016A5B7F4FCE0164
:103DB00082960E942810BC01CE01C4960E94EC108D
:103DC000CE0182960E948A1068ED71E0CE01829643
:103DD0000E94F510BE01605C7F4FCE0182960E946A
:103DE0002810BC01CE018E960E94EC10CE01829666
:103DF0000E948A106EED71E0CE0182960E94F5104D
:103E0000BE01665C7F4FCE0182960E942810BC01E5
:103E1000CE0188960E94EC10CE0182960E948A10F4
:103E200064EE71E0CE0182960E94F510BE016A5BDD
:103E30007F4FCE0182960E94281064EE71E00E94AE
:103E40000F10BE01605C7F4F0E94281064EE71E08D
:103E50000E940F10BE01665C7F4F0E94281064EE26
:103E600071E00E940F106CEC73E00E942810BC01FE
:103E7000CE018E5A9F4F0E94EC10CE0182960E9476
:103E80008A10CE0188960E948A10CE018E960E94DA
:103E90008A10CE01C4960E948A10CE01CA960E9452
:103EA0008A10CE01805C9F4F0E948A10CE018A5BEF
:103EB0009F4F0E948A10EE968EAD9FADEE976A9648
:103EC0001FAE1EAE6A976C961FAE1EAE6C976E96B6
:103ED0001FAE1EAE6E974AE0B8010E94BB29B80122
:103EE000CE01885A9F4F0E945C10609151027091E0
:103EF00052028091530290915402A0961FAE1EAEC2
:103F0000A097A2961FAE1EAEA297A4961FAE1EAE9D
:103F1000A4972AE0A8010E94E329B801CE01825AA1
:103F20009F4F0E945C10A6961FAE1EAEA697A89645
:103F30001FAE1EAEA897AA961FAE1EAEAA974AE065
:103F4000B801C1010E94BB29B801CE018C599F4F15
:103F50000E945C1022E0B301A201CE0186599F4F5E
:103F60000E948F1022E0B501A401CE0180599F4F1D
:103F70000E948F1022E0B701A601CE018A589F4F00
:103F80000E948F1066EE71E0CE018A5B9F4F0E9407
:103F9000F510E4E3F6E06591749186EC94E00E94FC
:103FA000B42940E050E060E177E286EC94E00E94C2
:103FB0007C12882309F4FBC06AE370E088ED93E08B
:103FC0000E94DA27009709F4F2C06CE270E00E94C8
:103FD000DA27009709F4EBC07C013FEFE31AF30AFC
:103FE000C7010E946B296CE270E0C7010E94DA27CA
:103FF000009709F4DCC07C014FEFE41AF40AC70112
:104000000E946B296CE270E0C7010E94DA270097DA
:1040100009F4CDC06C015FEFC51AD50AC6010E9434
:104020006F29F82E6FE270E0C6010E94DA27009730
:1040300009F4BDC06C01AFEFCA1ADA0AC6010E94CA
:104040006F29E82E6FE270E0C6010E94DA27009720
:1040500009F4ADC05C01BFEFAB1ABB0AC5010E94F9
:104060006F29D82E6CE270E0C5010E94DA27009714
:1040700009F49DC05C01EFEFAE1ABE0AC5010E94B3
:104080006F29C82E6AE370E0C5010E94DA27009705
:1040900009F48DC04C01FFEF8F1A9F0AC4010E94E2
:1040A0006F29B82E6AE370E0C4010E94DA270097F6
:1040B00009F47DC001960E946F294AE0682FC8016B
:1040C0000E94BF104AE06B2DCE0182960E94BF1065
:1040D0004AE06C2DCE0188960E94BF104AE06D2DFB
:1040E000CE018E960E94BF104AE06E2DCE01C4967E
:1040F0000E94BF1060E36F0D4AE0CE01805C9F4FCD
:104100000E94BF10BE01605C7F4FCE01CA960E9424
:10411000EC106FE2CE01CA960E94F10FBE016C5CFA
:104120007F4F0E9428106FE20E94F10FBE01625D76
:104130007F4F0E9428106CE20E94F10FBE01685D63
:104140007F4F0E9428106AE30E94F10FBE016E5D4E
:104150007F4F0E9428106AE30E94F10FB8010E946D
:10416000281067EF71E00E940F10BC01CE018A5B3E
:104170009F4F0E947310CE01CA960E948A10CE01F2
:10418000805C9F4F0E948A10CE01C4960E948A10C4
:10419000CE018E960E948A10CE0188960E948A10C7
:1041A000CE0182960E948A10C8010E948A106BEF8D
:1041B00071E0C8010E94F51060EC73E0C8010E9434
:1041C000281064EE71E00E940F10BE016A5B7F4F01
:1041D0000E942810BC01CE0182960E94EC10C801FA
:1041E0000E948A10CE018A5B9F4F0E948A10BE01F6
:1041F0006E5D7F4FC8010E94EC1064EE71E0C80153
:104200000E940F10BE016A587F4F0E94281064EE72
:1042100071E00E940F10BE0160597F4F0E9428106C
:1042200064EE71E00E940F10BE0166597F4F0E943C
:10423000281064EE71E00E940F10BE016C597F4F90
:104240000E94281064EE71E00E940F10BE01625AB5
:104250007F4F0E94281064EE71E00E940F10BE0193
:10426000685A7F4F0E942810BE016E5A7F4F0E94ED
:10427000281064EE71E00E940F10BE01645B7F4F56
:104280000E942810BC01CE01C4960E94EC10C80107
:104290000E948A10CE0182960E948A10CE018A580E
:1042A0009F4F0E948A10CE0180599F4F0E948A1012
:1042B000CE0186599F4F0E948A10CE018C599F4F84
:1042C0000E948A10CE01825A9F4F0E948A10CE010E
:1042D000885A9F4F0E948A10CE018E5A9F4F0E948B
:1042E0008A10CE01845B9F4F0E948A1068AD79AD21
:1042F00080E090E04AE00E940C1380EC92E00E9483
:104300000A11BE016C5C7F4FCE018E960E94EC10AC
:104310008EE692E00E944F136FEF71E080EC92E026
:104320000E94DB116FE380EC92E00E94A111CE01AC
:104330008E960E94A614BE01625D7F4FC8010E9446
:10434000EC10B8018FEF91E00E943614C8010E9472
:104350008A1080914D0290914E02A0914F02B0912F
:1043600050020196A11DB11D80934D0290934E0203
:10437000A0934F02B09350020297A105B10518F027
:1043800081E080934C0244E4E42E46E0F42E56E4AF
:10439000C52E56E0D52EF7016591749186EC94E018
:1043A0000E94B429F601659174918EEE94E00E940A
:1043B000B4296EEE74E086EC94E00E94B213823071
:1043C00020F084E08093A00420C081111EC06EE222
:1043D00080EC92E00E9466046AE1B62EBA94BB209B
:1043E000D1F28091040590910505DC01ED91FC91DD
:1043F0000480F581E02D0995892B69F66AE070E06B
:1044000080E090E00E94E906E9CF8091A00484302A
:1044100079F580E692E00E947013809151029091AC
:104420005202A0915302B09154020196A11DB11DF8
:104430008093510290935202A0935302B09354027E
:104440000E94AB0C8091510290915202A0915302B4
:10445000B09154024597A105B10518F0E0E0F0E0F5
:10446000099568EB7BE080E090E00E94E90645C298
:1044700080EC92E00E940A11E8E4F6E06591749104
:1044800086EC94E00E94B42966EC74E08091040507
:10449000909105050E940E1183E08093A004109274
:1044A000A7040E9423076093A8047093A904809333
:1044B000AA049093AB04EAE4F6E06591749186EC6B
:1044C00094E00E94B429ECE4F6E0659174918EEEDC
:1044D00094E00E94B4296EEE74E086EC94E00E94B1
:1044E000B213813041F71092A70444EC51E064E626
:1044F00070E080E090E00E947C1288ED93E00E94E2
:104500006F297C0140E050E060ED77E080E090E0D2
:104510000E947C12F7ECEF16F10418F037ECE32E52
:10452000F12CF701E852FC4F1082EF2809F4C3CFB9
:104530008091A004843039F580915102909152020B
:10454000A0915302B09154020196A11DB11D809318
:10455000510290935202A0935302B09354020E94CE
:10456000AB0C8091510290915202A0915302B091F4
:1045700054024597A105B10508F473CF88E392E092
:104580000E9470136BCF8DE292E00E944F1368ED92
:1045900073E080EC92E00E940E1168ED73E0CE01B2
:1045A00088960E94F51066EC71E0CE0182960E941A
:1045B000F5108CA59DA50097D9F0029720F022E078
:1045C000E22EF12C03C0EE24E394F12CE8A5F9A52A
:1045D000EE0DFF1DD080108268A579A5CE018296D0
:1045E0000E945C1088A599A5FC01EE0DFF1DD082EC
:1045F0008AA19BA1009719F00E948D2903C060E059
:1046000070E0CB016130710509F067C066EC71E0C4
:10461000C8010E94F510ECA4FDA4F3E0EF16F1042C
:10462000D0F02AE0E216F10418F08AE0E82EF12C2E
:10463000E8A5F9A5EE0DFF1DD080108268A579A52B
:104640006E5F7F4FC8010E945C1088A599A5FC0190
:10465000EE0DFF1DD08289819A81009729F00E947A
:104660008D296B017C0103C0C12CD12C7601C701BF
:10467000B6010E94A313D701C6010B97A109B10986
:1046800086379145A140B105E8F4809104019091ED
:104690000501A0910601B0910701C816D906EA06E6
:1046A000FB0681F080915D0281110CC0C092040173
:1046B000D0920501E0920601F092070188EC90E0AB
:1046C0000E943912609104017091050180910601E8
:1046D000909107010E94A313B7C06230710579F56C
:1046E000CE0188960E947E1384E690E00E94051217
:1046F00060EB72E0C8010E94F510B801CE01889607
:104700000E94C80C882309F49FC082E292E00E94B4
:104710007013E12CF12CB701CE0188960E94780F1E
:10472000DC016C91C7018C599F4F0E94790BBFEF40
:10473000EB1AFB0AEDE0EE16F10469F785C0633071
:10474000710579F5CE0188960E947E1388E790E086
:104750000E94051260EB72E0C8010E94F510B801DA
:10476000CE0188960E94C80C882309F46DC087E1A9
:1047700092E00E947013E12CF12CB701CE018896D3
:104780000E94780FDC016C91C70188589F4F0E94EE
:10479000790BBFEFEB1AFB0AEDE0EE16F10469F7B7
:1047A00053C06430710571F5CE0188960E947E1366
:1047B0008CE890E00E94051260EB72E0C8010E9454
:1047C000F510B801CE0188960E94C80C8823E1F14B
:1047D0008CE092E00E947013E12CF12CB701CE0125
:1047E00088960E94780FDC016C91C70184579F4F17
:1047F0000E94790BBFEFEB1AFB0AEDE0EE16F10415
:1048000069F722C06530710541F41A821982B80136
:1048100080EA90E00E94840C3AC06630710591F500
:10482000CE0188960E947E138CED90E00E940512C6
:1048300060EB72E0C8010E94F510B801CE018896C5
:104840000E94C80C811104C0C8010E948A101FC0B8
:1048500081E092E00E947013E12CF12CB701CE01AF
:1048600088960E94780FDC016C91C70184529F4F9B
:104870000E94790BBFEFEB1AFB0AEDE0EE16F10494
:1048800069F7E2CF6730710511F410925D028AEF8B
:1048900091E00E944F1360914D0270914E02809101
:1048A0004F02909150024AE00E940C1380915102F5
:1048B00090915202A0915302B0915402892B8A2BFD
:1048C0008B2B79F081EF91E00E944F1360915102A0
:1048D0007091520280915302909154024AE00E94DA
:1048E0000C1380EC92E00E940A11CE0182960E9485
:1048F0008A10CE0188960E948A10CE018E960E9460
:104900008A10CE01C4960E948A1040E061E080E0E7
:104910000E947B0B8AE792E00E944F13809125054D
:1049200090912605009711F48BE295E09801281BE1
:10493000390BC9010E94A8110E942307C09055029B
:10494000D0905602E0905702F0905802DC01CB0163
:104950008C199D09AE09BF0981309C45A642B5401E
:1049600018F0E0E0F0E0099564EF71E080E090E09D
:104970000E94E9060E94CF04C4C880EC93E00E9424
:104980008A1086EC93E00E948A108CEC93E00E94DF
:104990008A1082ED93E00E948A108EEB94E00E94D0
:1049A0008A1088EB94E00E948A1082EB94E00E94C7
:1049B0008A108CEA94E00E948A1081EA94E00E94B6
:1049C0008A1088E291E09093070580930605809114
:1049D0004802909149028650954071F4E091190582
:1049E000F0911A05908180911B0580958923808321
:1049F000109249021092480208951092C302109238
:104A0000C20288EE93E0A0E0B0E08093C4029093ED
:104A1000C502A093C602B093C70228E131E03093EB
:104A2000C1022093C00225EC30E03093CD022093E8
:104A3000CC0224EC30E03093CF022093CE0220EC65
:104A400030E03093D1022093D00221EC30E030935B
:104A5000D3022093D20222EC30E03093D50220938F
:104A6000D40226EC30E03093D7022093D602109285
:104A7000D9021092DA021092DB021092DC0210923C
:104A800009051092080580930A0590930B05A093E1
:104A90000C05B0930D0588E291E090930705809393
:104AA000060510921D0510921C0510921F0510920C
:104AB0001E051092210510922005109223051092D8
:104AC0002205609124056E7F6D7F609324056695B5
:104AD000617081E0682787E00E947D0661E087E0E1
:104AE0000E94AD06EFE7F6E0E491E0931605EBE6F1
:104AF000F6E0E491F0E0EE0FFF1FE05BF94F8591E7
:104B00009491909318058093170560E088E00E94C7
:104B1000AD068091240581FD04C061E088E00E941B
:104B20007D0688E080931205E0E8F6E0E491E093EA
:104B30001305ECE6F6E0E491F0E0EE0FFF1FE65A15
:104B4000F94F8591949190931505809314051092D7
:104B5000A00466EC71E081EA94E00E94F51066EC36
:104B600071E08CEA94E00E94F51066EC71E082EB53
:104B700094E00E94F51066EC71E088EB94E00E94EE
:104B8000F51066EC71E08EEB94E00E94F510109247
:104B900003051092020566EC71E082ED93E00E943D
:104BA000F51066EC71E08CEC93E00E94F51066EC79
:104BB00071E086EC93E00E94F51060E372E080EC17
:104BC00093E00E94F51060E182EB93E00E94680997
:104BD00061E184EA93E00E94680964E086E993E079
:104BE0000E94680923E535E03093950320939403F0
:104BF00082EB93E09093890380938803109287035C
:104C00001092830399E09093840381E0809385035D
:104C100080938603309382032093810344EA53E018
:104C200050937603409375031092740310927003AF
:104C300090937103809372038093730330936F0397
:104C400020936E0326E933E03093630320936203DD
:104C50001092610310925D0390935E0380935F0353
:104C600080936003089597FB072E16F4009407D0F5
:104C700077FD09D00E94692607FC05D03EF4909587
:104C800081959F4F0895709561957F4F0895A1E29A
:104C90001A2EAA1BBB1BFD010DC0AA1FBB1FEE1FB6
:104CA000FF1FA217B307E407F50720F0A21BB30B01
:104CB000E40BF50B661F771F881F991F1A9469F77D
:104CC00060957095809590959B01AC01BD01CF01D9
:104CD0000895AA1BBB1B51E107C0AA1FBB1FA61743
:104CE000B70710F0A61BB70B881F991F5A95A9F795
:104CF00080959095BC01CD010895EE0FFF1F0590A2
:104D0000F491E02D09945058BB27AA270E949B26B6
:104D10000C940B2F0E94FD2E38F00E94042F20F0DF
:104D200039F49F3F19F426F40C94FA2E0EF4E09512
:104D3000E7FB0C94F42EE92F0E941C2F58F3BA17AE
:104D4000620773078407950720F079F4A6F50C94A1
:104D50003E2F0EF4E0950B2EBA2FA02D0B01B901BA
:104D600090010C01CA01A0011124FF27591B99F0E1
:104D7000593F50F4503E68F11A16F040A22F232FED
:104D8000342F4427585FF3CF469537952795A7953D
:104D9000F0405395C9F77EF41F16BA0B620B730BE4
:104DA000840BBAF09150A1F0FF0FBB1F661F771F55
:104DB000881FC2F70EC0BA0F621F731F841F48F40A
:104DC000879577956795B795F7959E3F08F0B0CF93
:104DD0009395880F08F09927EE0F9795879508957A
:104DE000A0E0B0E0E6EFF6E20C946A2FEC01009749
:104DF00021F4CB010E943E28B8C0FC01E60FF71F4A
:104E00009C0122503109E217F30708F4ACC0D90124
:104E10000D911C91119706171707B0F00530110579
:104E200008F49FC0C80104978617970708F499C033
:104E300002501109061B170B019311936D937C937C
:104E4000CF010E94D3288DC05B01A01AB10A4C018A
:104E5000800E911EA0912705B091280540E050E0FA
:104E6000E12CF12C109709F44AC0A815B905D1F529
:104E70006D907C901197630182E0C80ED11CCA141A
:104E8000DB0480F1A3014A195B096A0182E0C80EC4
:104E9000D11C1296BC9012971396AC91B5E0CB162C
:104EA000D10440F0B282A38351834083D9016D9332
:104EB0007C930AC00E5F1F4FC301800F911FF90141
:104EC00091838083EB2DFA2FE114F10431F0D701A7
:104ED0001396FC93EE93129744C0F0932805E09349
:104EE00027053FC08D919C9111974817590708F4E9
:104EF000AC017D0112960D90BC91A02DB3CF809195
:104F000025059091260588159905E1F44617570760
:104F1000C8F48091080190910901009741F48DB780
:104F20009EB740910C0150910D01841B950BE81721
:104F3000F907C8F4F0932605E0932505F90171837C
:104F400060830FC0CB010E943E287C01009759F07E
:104F5000A801BE010E94BF27CE010E94D328C7012D
:104F600004C0CE0102C080E090E0CDB7DEB7EEE035
:104F70000C94862F81E090E0F8940C94AC2FFB0108
:104F8000DC0102C001900D9241505040D8F70895C5
:104F90006817790768F4FB01DC01E40FF51FA40F23
:104FA000B51F02C002900E9241505040D8F70895AC
:104FB0000C94BF27FC018191861721F08823D9F733
:104FC000992708953197CF010895FB01DC018D9158
:104FD000019080190110D9F3990B0895FB01DC01B0
:104FE00001900D920020E1F70895FB01DC01415092
:104FF000504048F001900D920020C9F701C01D9269
:1050000041505040E0F70895FB0151915523A9F01C
:10501000BF01DC014D9145174111E1F759F4CD0174
:105020000190002049F04D9140154111C9F3FB0159
:105030004111EFCF81E090E001970895EF920F9337
:105040001F93CF93DF93E80147FD02C034E001C016
:1050500034E1E42F440FFF0BF7FF03C0F195E19516
:10506000F109E32E022F2E2FAE010E942A2ACE0133
:10507000DF91CF911F910F91EF900895CF93DF9320
:105080008230910510F482E090E0E0912705F091E4
:10509000280520E030E0C0E0D0E0309711F14081F9
:1050A000518148175907C0F04817590761F48281A8
:1050B0009381209719F09B838A832BC090932805B6
:1050C0008093270526C02115310519F04217530793
:1050D00018F49A01BE01DF01EF010280F381E02D97
:1050E000DCCF2115310509F1281B390B243031059E
:1050F00090F412968D919C9113976115710521F092
:10510000FB019383828304C0909328058093270535
:10511000FD01329644C0FD01E20FF31F819391938C
:10512000225031092D933C933AC0209125053091AE
:105130002605232B41F420910A0130910B01309375
:10514000260520932505209108013091090121159C
:10515000310541F42DB73EB740910C0150910D013E
:10516000241B350BE0912505F0912605E217F30786
:10517000A0F42E1B3F0B2817390778F0AC014E5FC7
:105180005F4F2417350748F04E0F5F1F50932605D9
:10519000409325058193919302C0E0E0F0E0CF01B8
:1051A000DF91CF9108950F931F93CF93DF930097D3
:1051B00009F48CC0FC0132971382128200912705FA
:1051C000109128050115110581F420813181820F8C
:1051D000931F20912505309126052817390779F569
:1051E000F0932605E093250571C0D80140E050E01A
:1051F000AE17BF0750F412962D913C911397AD0155
:105200002115310509F1D901F3CF9D01DA0133836D
:10521000228360817181860F971F8217930769F43B
:10522000EC0128813981260F371F2E5F3F4F3183D4
:1052300020838A819B8193838283452B29F4F09379
:105240002805E093270542C01396FC93EE9312972E
:10525000ED01499159919E01240F351FE217F30783
:1052600071F480819181840F951F029611969C9311
:105270008E938281938113969C938E931297E0E094
:10528000F0E0D80112968D919C911397009719F038
:10529000F8018C01F6CF8D919C9198012E5F3F4FC4
:1052A000820F931F20912505309126052817390775
:1052B00069F4309729F4109228051092270502C04E
:1052C000138212821093260500932505DF91CF915A
:1052D0001F910F910895662777270C94B82BFC0136
:1052E00088279927E89421912032E9F3293010F09A
:1052F0002E30C8F32B3241F02D3239F4689404C0BB
:105300000E94DB29820F911D219120532A30C0F386
:105310001EF4909581959F4F08951F93FC01992746
:105320008827BC01E89411911032E9F3193010F08C
:105330001E30C8F31B3251F01D3249F4689406C088
:105340000E94C629610F711D811D911D119110537D
:105350001A30B0F33EF490958095709561957F4F2B
:105360008F4F9F4F1F910895FB01DC0105900D9217
:105370000020E1F70895BB274A3031F4992322F445
:10538000BDE2909581959F4F0C94112A592F482F7B
:10539000372F262F660F771F881F991F660F771FDD
:1053A000881F991F620F731F841F951F660F771F39
:1053B000881F991F08957AE0979F902D879F802DD1
:1053C000910D11240895BB27FA01A62F62177105CC
:1053D00081059105330B30FB66F0AA27660F771F16
:1053E000881F991FAA1FA21710F0A21B639538509F
:1053F000A9F7A05DAA3308F0A95DA19336F7B11112
:10540000B1931082CA010C940E2E4532510520F43E
:10541000423010F00C94102AFB011082CB01089549
:10542000BB27FB015527AA27880F991FAA1FA4177E
:1054300010F0A41B83955051B9F7A05DAA3308F072
:10544000A95DA193009779F7B111B1931192CB01A6
:105450000C940E2E4F925F926F927F929F92AF921A
:10546000BF92CF92DF92EF92FF920F931F93CF9351
:10547000DF93CDB7DEB729970FB6F894DEBF0FBE26
:10548000CDBF6A01122FB02E2BE3201720F0FF248E
:10549000F394F00E02C0BCE3FB2E0F2D27E0AE010B
:1054A0004F5F5F4F0E94152DAC018981982F997035
:1054B000913031F0E1FC06C0E0FE06C090E205C08C
:1054C0009DE203C09BE201C090E0EE2DE07183FFFE
:1054D0003CC0911102C083E001C084E0811718F440
:1054E000212F281B01C020E0E1110BC0F601822F03
:1054F00030E2882319F031938150FBCFC20ED11CCA
:1055000020E0992329F0D6019C93F60131966F0192
:10551000C6010396E2FE0AC03EE4D6013C9341E494
:1055200011964C93119712963C9306C03EE6F601F5
:10553000308341E641833283FC01322F40E2332342
:1055400009F442C041933150FACF82FF44C0911117
:1055500002C083E001C084E0811718F4212F281BCA
:1055600001C020E0E1110BC0F601822F30E2882358
:1055700019F031938150FBCFC20ED11C20E099234A
:1055800029F0D6019C93F60131966F01C60103966E
:10559000E2FE0BC039E4D6013C933EE411963C9305
:1055A000119736E412963C9307C039E6F601308332
:1055B0003EE6318336E63283FC01322F40E233236C
:1055C00019F041933150FBCFFC01E20FF11D108225
:1055D0008EEF9FEFB7C0F1E0911101C0F0E06F2FA7
:1055E00070E01416150624F49A012F5F3F4F02C095
:1055F00021E030E0260F371FBB2029F06B2D70E033
:105600006F5F7F4F02C060E070E0260F371F612F91
:1056100070E0261737071CF4121B212F01C020E071
:105620003E2D387159F4D601322F60E2332319F040
:105630006D933150FBCFC20ED11C20E0FF2331F01F
:10564000D6019C93B6016F5F7F4F6B01E1110BC0D8
:10565000F601922F30E3992319F031939150FBCF4B
:10566000C20ED11C20E09F2D940F3A81782F7071CB
:10567000A72E84FF03C0313309F49150191624F486
:10568000993018F098E001C091E0E42F852F57FF82
:1056900002C0E0E080E06E2F782FE0E0F0E0AEE2C4
:1056A0009A2E3A01691A71082A01461A570A0B2DD7
:1056B00010E01195019511096F3F8FEF780729F4DC
:1056C000D6019C92C60101966C014617570784F0DB
:1056D000661677066CF47F01E40CF51CA1E0B0E0DF
:1056E000AC0FBD1FEA0EFB1ED7011196BC9002C085
:1056F00090E3B92E615071093196C60101967C0183
:105700006017710724F0D601BC926C01D5CF6417E5
:10571000750741F4363320F4353321F4A11002C06B
:1057200081E3B82EF601B082F701822F90E2882340
:1057300019F091938150FBCFF701E20FF11D108218
:1057400080E090E029960FB6F894DEBF0FBECDBF83
:10575000DF91CF911F910F91FF90EF90DF90CF904D
:10576000BF90AF909F907F906F905F904F90089503
:10577000A0E0B0E0EEEBFBE20C946A2FEC017B01C1
:105780006115710519F0DB018D939C938E010F5FFC
:105790001F4F7880872D90E00E94ED2D892B11F00E
:1057A000E801F4CFBDE27B1205C00F5F1F4F798087
:1057B000C1E008C0EBE27E1204C08E010E5F1F4FF5
:1057C0007980C0E06801F1E0CF1AD10843E050E0F1
:1057D00064E976E0C6010E94F62D892BF1F4680198
:1057E00022E0C20ED11C45E050E06FE876E0C60131
:1057F0000E94F62D892B21F4680187E0C80ED11C88
:10580000E114F10419F0D701CD92DC92C111FFC06F
:1058100060E070E080E89FE703C143E050E06CE89F
:1058200076E0C6010E94F62D892B51F4E114F104B3
:1058300009F4F2C00E5F1F4FF70111830083ECC023
:10584000680160E070E0CB0100E010E0F601D0ED0F
:10585000D70DDA3058F52C2F2260622E2C2F2870AD
:10586000C2FF05C0211128C00F5F1F4F25C0222392
:1058700011F001501109A5E0B0E09B01AC010E94BC
:105880005B2F4B015C01880C991CAA1CBB1CC50139
:10589000B4016D0F711D811D911D6839A9E97A0749
:1058A0008A07A9E19A0740F0C66005C0DE3F51F4BF
:1058B000C3FD44C0C8606C2EBFEFCB1ADB0A7080FA
:1058C000C62DC4CF2D2F2F7D2531C1F540814D32FE
:1058D00011F4C06106C04B3221F0319621E030E076
:1058E00006C03296D60111964C9122E030E0A0ED30
:1058F000A40FAA3018F0E21BF30B20C040E050E0E8
:105900004038BCE05B075CF49A01220F331F220F82
:10591000331F420F531F440F551F4A0F511D31961D
:10592000DF0111972C91A0EDA20FAA3048F3C4FF1C
:1059300003C0519541955109040F151FC1FF07C0C0
:10594000E114F10421F03197D701ED93FC930E940B
:10595000232EC370C33019F06B017C0106C06B01AC
:105960007C01F7FAF094F7F8F09420E030E0A90118
:10597000C701B6010E941E2E882309F445C017FFF7
:1059800006C0119501951109CBEAD6E002C0C3EC1F
:10599000D6E05E01B8E1AB1AB1084601BE2DAF2DCD
:1059A00090E2E92EF12C0E151F0584F0FE012591E1
:1059B000359145915491B4018B2F9A2F0E94842EDA
:1059C0004B01B82FA92F0E191F09EDCF2497F5947D
:1059D000E794CA15DB0539F76401EB2EFA2E8E2DFC
:1059E000880F8F2D881F8F3F49F020E030E0A901FC
:1059F000C701B6010E941E2E811106C082E290E00E
:105A000090932A0580932905C701B60109C060E07B
:105A100070E080E89FEF04C060E070E080EC9FE7FA
:105A2000CDB7DEB7EEE00C94862F283008F027E0E3
:105A30003327DA01990F311D87FD916000966105CA
:105A4000710539F432602E5F3D9330E32A95E1F71A
:105A500008959F3F30F080387105610509F03C5F83
:105A60003C5F3D93913008F08068911DDF93CF93A8
:105A70001F930F93FF92EF92192F987F9695E92F1E
:105A800096959695E90FFF27EF5DF84F99273327F5
:105A9000EE24FF24A701E70105900894079428F459
:105AA000360FE71EF81E491F511D660F771F881F0E
:105AB000991F0694A1F70590079428F4E70EF81EA5
:105AC000491F561FC11D770F881F991F661F069417
:105AD000A1F70590079428F4F80E491F561FC71F19
