:100000000C94F6030C94B3070C948C070C94D80A48
:100010000C94D80A0C94D80A0C941E040C941E0458
:100020000C941E040C941E040C941E040C941E04C8
:100030000C941E040C941E040C941E040C941E04B8
:100040000C9442070C941E040C9435060C940F0675
:100050000C941E040C941E040C941E040C941E0498
:100060000C941E040C941E04000000080002010001
:100070000003040700000000000000004750525336
:1000800020636F6E6E656374204F4B212D004661B7
:10009000696C656420696E69742047505253000A88
:1000A0004750525320636F6E6E656374204F4B212F
:1000B0002B004750525320636F6E6E656374202E81
:1000C0002E0072737369202E2E000A5265676973C1
:1000D000746572656420726F616D696E67000A52A3
:1000E0006567697374657265642028686F6D65293A
:1000F000003A20000A4E6574776F726B207374614A
:10010000747573200053657474696E672075702070
:100110006E6574776F726B2E2E2E000A494D45491D
:100120003A004F4B00436F756C646E27742066690C
:100130006E64206D6F64756C65204750525300509B
:100140006F7765722053494D383030204F6E00492B
:100150006E697469616C697A696E672E2E2E2E281D
:100160004D61792074616B6520352D3130207365C8
:10017000636F6E647329000A53494D383030207321
:100180006574757020656E6400496E746572766181
:100190006C207365633A00436C656172204545507D
:1001A000524F4D20456E6400537461727420636C2D
:1001B00065617220454550524F4D000A4E6F2069CF
:1001C0006E7465726E657420636F6E6E65637469BC
:1001D0006F6E004552524F52004F4B000A20534958
:1001E0004D3830302073657475702073746172748B
:1001F00000204572726F72733A00546F74616C3AEA
:10020000006E6F20636F6D70617265006E6F2063AA
:100210006F6D70617265006E6F20636F6D706172DB
:1002200065006E6F20636F6D70617265005B506179
:10023000796C6F61645D2000546865206E756D6235
:100240006572206F662073657276657220657272C2
:100250006F72732065786365656465642032300071
:10026000436F6E6E656374206572726F72005265C3
:100270007175657374696E6720000A667265652022
:100280006D656D6F72793A2000496E7465727661A2
:100290006C207365633A0052656369657665642016
:1002A0004D6573736167653A2000446174657469D4
:1002B0006D653A200046726F6D206E756D626572D5
:1002C0003A2000005EBCE2613FDD83C29C7E20A339
:1002D000FD1F419DC3217FFCA2401E5F01E3BD3E87
:1002E0006082DC237D9FC1421CFEA0E1BF5D0380D4
:1002F000DE3C62BEE0025CDF81633D7C22C09E1D6D
:1003000043A1FF4618FAA427799BC584DA3866E52D
:10031000BB5907DB856739BAE406581947A5FB784E
:1003200026C49A653BD987045AB8E6A7F91B45C687
:10033000987A24F8A6441A99C7257B3A6486D85B34
:1003400005E7B98CD2306EEDB3510F4E10F2AC2FE1
:100350007193CD114FADF3702ECC92D38D6F31B21E
:10036000EC0E50AFF1134DCE90722C6D33D18F0C3B
:1003700052B0EE326C8ED0530DEFB1F0AE4C129104
:10038000CF2D73CA947628ABF517490856B4EA699D
:1003900037D58B5709EBB536688AD495CB2977F4D6
:1003A000AA4816E9B7550B88D6346A2B7597C94AFF
:1003B00014F6A8742AC896154BA9F7B6E80A54D7BC
:1003C000896B3500000000240027002A000D0A0078
:1003D0004572726F72002B48545450524541443A52
:1003E000200041542B485454505245414400302C75
:1003F000363000302C3230300041542B48545450A9
:10040000414354494F4E3D300041542B48545450C1
:10041000504152413D2255524C222C220041542B36
:1004200048545450414354494F4E3D300041542BA1
:1004300048545450504152413D2255524C222C2296
:100440000041542B48545450504152413D2243499D
:1004500044222C310041542B48545450494E4954A5
:100460000041542B485454505445524D0041542B94
:1004700043495047534D4C4F433D312C3100455279
:10048000524F520D004F4B0D0041542B434F5053D0
:100490003F0041542B47534E0041542B43504D5382
:1004A0003D22534D222C22534D222C22534D22000B
:1004B00041542B434D47463D310041542B5341504D
:1004C00042523D322C310041542B53415042523D57
:1004D000312C310041542B434744434F4E543D315E
:1004E0002C224950222C220041542B53415042527D
:1004F0003D332C312C22505744222C220041542BC6
:1005000053415042523D332C312C225553455222F7
:100510002C220041542B53415042523D332C312C5C
:100520002241504E222C2200696E7465726E6574F1
:100530002E54454C45322E72750054454C453200C0
:100540004D454741464F4E00696E7465726E657445
:10055000004D656761466F6E006265656C696E652A
:1005600000696E7465726E65742E6265656C696E85
:10057000652E7275004265656C696E65006D7473F9
:10058000004D545300696E7465726E65742E6D74FF
:10059000732E72750041542B53415042523D332CFF
:1005A000312C22436F6E74797065222C2247505291
:1005B00053220041542B43474154543F0041542B94
:1005C0004353510041542B435245473F0041542B64
:1005D000434E4D493D322C320041542B435343533B
:1005E0003D2247534D220041542B434C49503D314D
:1005F0000041542B434D47463D310041542B434667
:10060000554E3D310041542B4950523D3139323025
:100610003000415445300012060506FB05F105E7A0
:1006200005D905CD05C405BD05B30595058505812D
:10063000057D057505610559055105480540053AD3
:100640000528051305FD04E804D404C704BA04B062
:100650000499049204890485047E046D04610455A0
:100660000441042D041D040904F903F303EE03E21D
:1006700003D603D003CD0300000000250028002B83
:1006800000000000002300260029000404040404E4
:10069000040404020202020202030303030303012F
:1006A0000204081020408001020408102001020406
:1006B0000810204E414E494E495459494E46CDCC22
:1006C000CC3D0AD7233C17B7D13877CC2B32959540
:1006D000E6241FB14F0A000020410000C84200403C
:1006E0001C4620BCBE4CCA1B0E5AAEC59D740040B1
:1006F0007A10F35A00A0724E18090010A5D4E80031
:1007000000E87648170000E40B54020000CA9A3B48
:10071000000000E1F50500008096980000004042CE
:100720000F000000A086010000001027000000005C
:10073000E803000000006400000000000A00000060
:1007400000000100000000002C76D888DC674F080C
:1007500023DFC1DFAE59E1B1B796E5E3E453C63A12
:10076000E651997696E8E6C28426EB898C9B62ED89
:10077000407C6FFCEFBC9C9F40F2BAA56FA5F49043
:10078000055A2AF75C936B6CF9676DC11BFCE0E4BA
:100790000D47FEF520E6B500D0ED902E0300943510
:1007A00077050080841E080000204E0A000000C863
:1007B0000C333333330F986E12831141EF8D2114B4
:1007C000893BE65516CFFEE6DB18D1844B381BF784
:1007D0007C1D901DA4BBE424203284725E22810023
:1007E000C9F124ECA1E53D27F425B42511241FBE51
:1007F000CFEFD8E0DEBFCDBF12E0A0E0B1E0E0E691
:10080000F1E602C005900D92A034B107D9F725E0BA
:10081000A0E4B2E001C01D92A932B207E1F713E0F3
:10082000C5EFD3E004C02197FE010E947427C43FA6
:10083000D107C9F70E9425150C94A3300C94000031
:10084000FC01918D828D981761F0828DDF01A80FD8
:10085000B11D5D968C91928D9F5F9F73928F90E0FA
:1008600008958FEF9FEF0895FC01918D828D981769
:1008700031F0828DE80FF11D858D90E008958FEFA6
:100880009FEF0895FC01918D228D892F90E0805C6F
:100890009F4F821B91098F739927089585EE92E0EF
:1008A0000E94420421E0892B09F420E0822F089560
:1008B000FC01848DDF01A80FB11DA35ABF4F2C91FD
:1008C000848D90E001968F739927848FA689B789CC
:1008D0002C93A089B1898C9180648C93938D848DA5
:1008E000981306C00288F389E02D80818F7D808374
:1008F0000895EF92FF920F931F93CF93DF93EC0134
:1009000081E0888F9B8D8C8D981305C0E889F989CB
:10091000808185FD24C0F62E0B8D10E00F5F1F4FE8
:100920000F731127E02E8C8DE8120CC00FB607FC58
:10093000FACFE889F989808185FFF5CFCE010E9441
:100940005804F1CF8B8DFE01E80FF11DE35AFF4FE4
:10095000F0820B8FEA89FB898081806207C0EE8973
:10096000FF896083E889F98980818064808381E0E0
:1009700090E0DF91CF911F910F91FF90EF9008953C
:10098000CF93DF93EC01888D8823C9F0EA89FB8936
:10099000808185FD05C0A889B9898C9186FD0FC02D
:1009A0000FB607FCF5CF808185FFF2CFA889B98902
:1009B0008C9185FFEDCFCE010E945804E7CFDF91E7
:1009C000CF91089580E090E0892B29F00E944E0499
:1009D00081110C94000008953FB7F8948091D102E2
:1009E0009091D202A091D302B091D40226B5A89BD7
:1009F00005C02F3F19F00196A11DB11D3FBFBA2FB1
:100A0000A92F982F8827820F911DA11DB11DBC0110
:100A1000CD0142E0660F771F881F991F4A95D1F7D5
:100A2000089508950895FC0190810180F281E02DE0
:100A3000F8948181892B81832281892F80952823B5
:100A40002283A7E0B0E01197F1F72181822381830F
:100A5000A3E2B0E01197F1F780817894EFECF0E039
:100A60003197F1F7982381E009F480E00895FC01C3
:100A700090810180F281E02D892F809560FF12C066
:100A8000F8942281822382838181892B8183A3E24E
:100A9000B0E01197F1F78281982B9283789487EDDB
:100AA00090E011C0F8942281822382838181892B76
:100AB0008183AFEFB0E01197F1F78281982B928399
:100AC00078948FE090E00197F1F7089508952091D0
:100AD0004202309143022817390771F49091400285
:100AE00080914102981741F0E0914002F0E0E45714
:100AF000FD4F808190E008958FEF9FEF0895089556
:100B00001F93CF93DF93DC015C962D913C915D9711
:100B10002115310539F481E090E013969C938E9372
:100B200012973DC05196ED91FC91529750969C9131
:100B30005097892F80951FB75E964C915E9741FB29
:100B4000772770F941FD6095F8944081772311F083
:100B5000492B01C048234083E9012197F1F748E080
:100B6000508160FF02C0592B01C058235083E90116
:100B70002197F1F76695415099F7772321F09081FD
:100B80008923808303C08081982B90831FBF5C964C
:100B90008D919C915D970197F1F721E030E0C901BB
:100BA000DF91CF911F91089520914202309143022D
:100BB0002817390771F4809141022091400290E09A
:100BC000805C9F4F821B910960E470E00E942A279D
:100BD000089580E090E00895209142023091430210
:100BE00028173907B9F49091400280914102981773
:100BF00089F0E0914002F0E0E457FD4F80812091C0
:100C0000400230E02F5F3F4F2F7333272093400285
:100C100090E008958FEF9FEF08950E94B1281F92F2
:100C20000F920FB60F9211242F933F934F935F9320
:100C30006F937F938F939F93AF93BF93EF93FF93A4
:100C400085EE92E00E945804FF91EF91BF91AF9121
:100C50009F918F917F916F915F914F913F912F91D4
:100C60000F900FBE0F901F9018951F920F920FB606
:100C70000F9211242F938F939F93EF93FF93E09103
:100C8000F502F091F6028081E091FB02F091FC0206
:100C900082FD12C090818091FE028F5F8F73209140
:100CA000FF02821751F0E091FE02F0E0EB51FD4FA0
:100CB000958F8093FE0201C08081FF91EF919F91FB
:100CC0008F912F910F900FBE0F901F90189583302A
:100CD00081F028F4813099F08230A1F008958730B6
:100CE000A9F08830B9F08430D1F4809180008F7DF4
:100CF00003C0809180008F7780938000089584B531
:100D00008F7702C084B58F7D84BD08958091B00037
:100D10008F7703C08091B0008F7D8093B0000895DD
:100D20001F93CF93DF93282F30E0F901E859FF4F4D
:100D30008491F901E156F94FD491F901E557F94F42
:100D4000C491CC23C9F0162F81110E946706EC2FA5
:100D5000F0E0EE0FFF1FE958F94FA591B4918FB75E
:100D6000F894111105C09C91ED2FE095E92302C084
:100D7000EC91ED2BEC938FBFDF91CF911F910895F4
:100D8000CF93DF9390E0FC01E156F94F2491FC01F1
:100D9000E557F94F8491882361F190E0880F991FFE
:100DA000FC01ED53FC4FC591D491FC01E958F94F7A
:100DB000A591B491611109C09FB7F89488812095DD
:100DC00082238883EC912E230BC0623061F49FB79D
:100DD000F8943881822F809583238883EC912E2B81
:100DE0002C939FBF06C08FB7F894E8812E2B2883E1
:100DF0008FBFDF91CF9108958F929F92AF92BF9254
:100E0000CF92DF92EF92FF926B017C010E94EC0483
:100E10004B015C01C114D104E104F104F1F00E9422
:100E2000EC04DC01CB0188199909AA09BB09883EA9
:100E30009340A105B10570F321E0C21AD108E10881
:100E4000F10888EE880E83E0981EA11CB11CC11425
:100E5000D104E104F10419F7DDCFFF90EF90DF90AA
:100E6000CF90BF90AF909F908F9008952FB7F89438
:100E70006091CD027091CE028091CF029091D0020C
:100E80002FBF08951F920F920FB60F9211242F9328
:100E90003F938F939F93AF93BF938091CD02909197
:100EA000CE02A091CF02B091D0023091CC0223E0CB
:100EB000230F2D3720F40196A11DB11D05C026E892
:100EC000230F0296A11DB11D2093CC028093CD0269
:100ED0009093CE02A093CF02B093D0028091D10222
:100EE0009091D202A091D302B091D4020196A11D9B
:100EF000B11D8093D1029093D202A093D302B093FC
:100F0000D402BF91AF919F918F913F912F910F90FC
:100F10000FBE0F901F9018951F920F920FB60F9251
:100F200011242F933F934F935F936F937F938F93EE
:100F30009F93AF93BF93EF93FF93E0910201F091E2
:100F400003010995FF91EF91BF91AF919F918F910F
:100F50007F916F915F914F913F912F910F900FBEB5
:100F60000F901F9018951F920F920FB60F92112499
:100F70002F933F934F935F936F937F938F939F93A1
:100F8000AF93BF93EF93FF93E0910001F0910101C4
:100F90000995FF91EF91BF91AF919F918F917F91B3
:100FA0006F915F914F913F912F910F900FBE0F90D6
:100FB0001F901895DC01E0E0615038F08D91E82732
:100FC000F0E0ED53FD4FE491F7CF8E2F0895CF92CF
:100FD000DF92EF92FF920F931F93CF93DF931F92B5
:100FE000CDB7DEB76C01E62E08E010E0FF24F394E5
:100FF00061E08F2D8E2109F460E0C60149830E94D3
:101000003705FF0C0150110949810115110581F7C0
:10101000411115C0F894D6011196ED91FC911297EB
:1010200091818C918095892381831196ED91FC911A
:10103000129792818C9180958923828378940F9066
:10104000DF91CF911F910F91FF90EF90DF90CF90A4
:101050000895CF92DF92EF92FF920F931F93CF9359
:10106000DF931F92CDB7DEB78C01F62E40E065E529
:1010700079830E94E707CF2C7981D72E760188E00B
:10108000E80EF11CF60161916F0140E0C8010E9479
:10109000E707CE14DF04B1F70F90DF91CF911F91D6
:1010A0000F91FF90EF90DF90CF900895FC01908119
:1010B0000180F281E02DF8948181292F20958223EF
:1010C000818378948DE743E050E0815021F1DA018B
:1010D0001197F1F730813923C1F3F894828182238B
:1010E00082838181892B81837894ABE7B7E0119764
:1010F000F1F7F894818128232183A3E1B1E01197CE
:10110000F1F78081982381E009F080E07894E3E6AC
:10111000F6E03197F1F70895AF92BF92CF92DF9248
:10112000EF92FF920F931F93CF93DF931F92CDB750
:10113000DEB75C01E62ED72EFC01858581115DC0EE
:10114000C5010E945608811105C0F5011386158658
:1011500014866BC040E060EFC5010E94E70701E024
:10116000F12CC12C11E0C5010E941305682FC501A7
:1011700069830E9413056981613019F48130B9F4E3
:1011800033C04F2D50E068131BC0F501838518173D
:1011900030F4E40FF51F8381802349F402C018174F
:1011A00031F060E0193058F4F501148708C0F501FA
:1011B000EF0DF11D8381802B838361E009C0C12E77
:1011C000F501E40FF51F9381802F80958923838398
:1011D000C5010E9437051F5F000F11F4F39401E071
:1011E000F7E0FF1508F0BFCF113438F0F501C386E2
:1011F000C11015C081E0858712C0F50113861586E0
:10120000148680E0D5011396EE2DFD2D9501255F06
:101210003F4F9D919193A217B307D9F706C0F501EF
:101220008381882351F381E0EDCF0F90DF91CF913F
:101230001F910F91FF90EF90DF90CF90BF90AF90F4
:1012400008956F927F928F929F92AF92BF92CF92AA
:10125000DF92EF92FF920F931F93CF93DF931F9232
:10126000CDB7DEB78C01F42EFC01858196815983C0
:101270000E94290840E06EEBF801858196810E946A
:10128000E7076F2C5981752E5301F9E0AF0EB11CA1
:10129000F8018580968088E0C82ED12CEE24E39456
:1012A000F12CC4010E9413058111FE28EE0CF1E01F
:1012B000CF1AD108B1F7F301F1923F01EA15FB050E
:1012C00039F7F801858196810E94560891E08130B6
:1012D00009F090E0892F0F90DF91CF911F910F912E
:1012E000FF90EF90DF90CF90BF90AF909F908F9046
:1012F0007F906F9008950F931F93CF93DF93EC012E
:10130000162F60E0812F0E94C006612F70E0FB0164
:10131000E156F94FE491E883FB01E557F94FE49179
:10132000F0E0EE0FFF1FEF57F94F859194919A83EC
:1013300089831B861D861C86FE013B968E010D5FF0
:101340001F4F1292E017F107E1F7DF91CF911F9144
:101350000F910895CF93DF93EC018D819E810E94C0
:10136000560840E06CEC8D819E810E94E707488121
:1013700064E48D819E810E94E7078A818823B1F011
:10138000E981E950E33040F4F0E0EE0FFF1FE25F47
:10139000FE4F6081718102C06EEE72E0072E000C7C
:1013A000880B990BDF91CF910C94FC06DF91CF91C4
:1013B0000895EF92FF920F931F93CF93DF9300D086
:1013C000CDB7DEB78C017A01FC01858196816983F6
:1013D0007A830E94560869817A81882371F0A70177
:1013E000C8010E942109882341F068E0C7010E94DA
:1013F000DA0791E0F7012085821390E0892F0F90A2
:101400000F90DF91CF911F910F91FF90EF90089572
:10141000CF93DF93CDB7DEB729970FB6F894DEBF31
:101420000FBECDBFFB0120812031D1F0AE014F5F57
:101430005F4F0E94D909882389F08D818F3361F035
:1014400020F48F3159F489E00CC08F3519F08F37B3
:1014500039F004C08BE005C08AE003C080E001C021
:101460008CE029960FB6F894DEBF0FBECDBFDF919A
:10147000CF910895EF92FF920F931F93CF93DF9335
:10148000CDB7DEB761970FB6F894DEBF0FBECDBF04
:101490008C01DC011596ED91FC911697138615864B
:1014A0001486DF011B9633961E92AE17BF07E1F735
:1014B000F8011482FF24F394BE01665F7F4FF801A8
:1014C000858196810E948C08882309F464C067E0B6
:1014D000CE010A960E94DA0799898913EDCFD801C7
:1014E0008C91811126C015968D919C9116970E9422
:1014F0005608BE01665F7F4FF801858196810E9484
:10150000290840E064EBD80115968D919C911697BF
:101510000E94E707F801858196810E941305E82E55
:10152000D80115968D919C9116970E945608EE2031
:1015300079F1F801858196810E945608882349F047
:10154000AE014F5F5F4FBE01665F7F4FC8010E94D3
:101550002109D8011196EC90BE01665F7F4FC8014A
:101560000E94080A8E1518F4F801818106C0BE0198
:10157000665F7F4FC8010E94080AD80111968C93BC
:10158000119714968C9114978F5F14968C9394CF27
:10159000D801FC92CECF61960FB6F894DEBF0FBE95
:1015A000CDBFDF91CF911F910F91FF90EF900895E4
:1015B0001F920F920FB60F9211242F933F934F93C8
:1015C0005F936F937F938F939F93AF93BF93EF93AB
:1015D000FF93E0914202F0914302309709F451C029
:1015E000968DA685B785858591FF04C09C9189233A
:1015F00029F447C09C91892309F043C0A389B48989
:101600009C918589809589238C93868997890197F8
:10161000F1F7608D718DA685B785558538E020E09E
:10162000CB010197F1F7822F90E095958795282FB0
:101630004C91452309F02068315091F7868D81FD4A
:1016400020958091410290E001968F739927309107
:101650004002381749F0A0914102B0E0A457BD4FB5
:101660002C938093410203C0868D8160868F828D8A
:10167000938D0197F1F7A389B4899C918589892B72
:101680008C93FF91EF91BF91AF919F918F917F913B
:101690006F915F914F913F912F910F900FBE0F90DF
:1016A0001F901895CF92DF92EF92FF920F931F93A6
:1016B000CF93DF93EB017B012DE0E20EF11C8B0158
:1016C0006C01C61AD70AC601800F911F0E943C30D8
:1016D000F80181938F01EE15FF05A9F7CE01DF9187
:1016E000CF911F910F91FF90EF90DF90CF900895D1
:1016F0000F931F93CF93DF938C01EB010E943C303B
:101700008883C80101960E943C308983CE01DF9115
:10171000CF911F910F9108950C9444301F93CF9354
:10172000DF931F92CDB7DEB7162F682F8AE049836B
:101730000E949006612F8EE00E9490064981642FDE
:101740008FE00F90DF91CF911F910C9490060F9333
:101750001F930E9436070091880210918902209100
:101760008A0230918B029B01201B310B3093870240
:1017700020938602609388027093890280938A0284
:1017800090938B028091860290918702803F9B40CC
:101790003CF080918602909187028E3F9B408CF0B6
:1017A0008091860290918702883593406CF08091F9
:1017B0008602909187028636934034F481E090E06F
:1017C0005BC082E090E058C08091860290918702D1
:1017D0008F35914044F08091860290918702823744
:1017E00091400CF447C080914402909145020197CA
:1017F000E1F4209184023091850281E090E0232B76
:1018000011F080E090E090938502809384028091B3
:1018100084029091850240E0892B19F460E081E018
:1018200002C061E080E00E948E0B809144029091A2
:101830004502029731F5209184023091850281E0C2
:1018400090E0232B11F080E090E09093850280934C
:1018500084028091840290918502892B21F440E0DA
:1018600060E081E003C041E060E080E01F910F9103
:101870000C948E0B83E090E0909345028093440299
:10188000B2CF1F910F910895EF92FF920F931F9384
:10189000CF93DF931F92CDB7DEB77C01FC010081AF
:1018A0001181C80169830E943C306981681719F071
:1018B000C8010E944430C7010F90DF91CF911F9162
:1018C0000F91FF90EF900895AF92BF92CF92DF9269
:1018D000EF92FF920F931F93CF93DF9300D0CDB77A
:1018E000DEB78B016B012DE0C20ED11C7B015C01C8
:1018F000A61AB70A95012E0D3F1DF70161917F01D0
:101900003A832983CE0101960E94440CEC14FD0415
:1019100089F7C8010F900F90DF91CF911F910F9120
:10192000FF90EF90DF90CF90BF90AF900895EF922F
:10193000FF920F931F93CF93DF9300D0CDB7DEB705
:101940008C017B01FB0160819A838983CE01019622
:101950000E94440CF70161810F5F1F4F1A830983B6
:10196000CE0101960E94440CC7010F900F90DF91A9
:10197000CF911F910F91FF90EF900895CF93DF9338
:1019800000D0CDB7DEB7BE016F5F7F4F80EA90E039
:101990000E94780B89819A8101969A838983BE017E
:1019A0006F5F7F4F80EA90E00E94970C0F900F903E
:1019B000DF91CF910895FC0124813581FB014481A1
:1019C00055812417350721F5FC0180819181FB01A8
:1019D00060817181009719F061157105A1F461159D
:1019E000710549F0232BB1F0FB01808190E09195C6
:1019F000819591090AC0009769F0232B59F0FC01E9
:101A0000808190E002C00E94DC2821E0892B19F03F
:101A100020E001C021E081E0822708950F931F9309
:101A2000CF93DF93C1EFD3E08C01015F1340C80176
:101A30008C0F9D1F0E943C30899383E0C73FD807DD
:101A4000B1F781EF93E0DF91CF911F910F9108954E
:101A50000F931F93CF93DF93C5EDD2E08C01055D0B
:101A60001240C8018C0F9D1F0E943C30899382E078
:101A7000C53ED807B1F785ED92E0DF91CF911F9178
:101A80000F9108950F931F93CF93DF93C4E0D1E09C
:101A90008C0104501140C8018C0F9D1F0E943C30E6
:101AA000899381E0C830D807B1F784E091E0DF91F5
:101AB000CF911F910F910895EF92FF920F931F9373
:101AC000CF93DF9300D0CDB7DEB704E011E08450B0
:101AD00091407C019701200F311FF80161918F0126
:101AE0003A832983CE0101960E94440CF1E008302C
:101AF0001F0781F784E091E00F900F90DF91CF9165
:101B00001F910F91FF90EF900895809101059091A2
:101B10000205DC01ED91FC910480F581E02D099531
:101B2000892B61F08091010590910205DC01ED9116
:101B3000FC910680F781E02D0995E7CF08954F923B
:101B40005F926F927F929F92AF92BF92CF92DF92FD
:101B5000EF92FF920F931F93CF93DF93EC016B01F2
:101B60008A01892B49F00E94850DBE0180910105F3
:101B7000909102050E9411150E9436072B013C012D
:101B8000C0E087E5A82E86E0B82EDFE4E12CF12C3A
:101B90008091010590910205DC01ED91FC9104809A
:101BA000F581E02D0995892BC9F18091010590916E
:101BB0000205DC01ED91FC910680F781E02D09958D
:101BC000CF3950F0EDE4F4E0ADEFB3E09D2F01909C
:101BD0000D929A95E1F7CFE4992493949C0EEC2F03
:101BE000F0E0E350FC4F8083E92DF0E0E350FC4F40
:101BF0001082F5016591749183EC94E00E94AB2A08
:101C00000115110519F463EC74E001C0B8018DEF02
:101C100093E00E94FB28892B89F4C92D0E94360786
:101C2000DC01CB0184199509A609B7098C159D051E
:101C3000AE05BF0508F4ACCF80E001C0892DDF916F
:101C4000CF911F910F91FF90EF90DF90CF90BF90B9
:101C5000AF909F907F906F905F904F9008958F927C
:101C60009F92AF92BF920F931F93CF93DF93CDB705
:101C7000DEB7A1970FB6F894DEBF0FBECDBF19A295
:101C8000423008F44AE08E010F5D1F4F842E912CE4
:101C9000A12CB12CA50194010E943E27E62FB90189
:101CA000CA0101501109EA3014F4E05D01C0E95C99
:101CB000D801EC93232B242B252B61F7B80185EE5B
:101CC00092E00E94F814A1960FB6F894DEBF0FBE02
:101CD000CDBFDF91CF911F910F91BF90AF909F909B
:101CE0008F9008950F931F93CF93DF938C01C0E0E3
:101CF000D0E0F801EC0FFD1F6491662371F0E091D4
:101D0000E502F091E6020190F081E02D85EE92E08F
:101D10000995892B11F02196ECCFCE01DF91CF915F
:101D20001F910F910895CF93DF930E94720EEC01E3
:101D300085EE92E00E940D158C0F9D1FDF91CF91D3
:101D40000895CF93DF93FC014481558141155105DE
:101D5000D1F04230510518F461E070E002C062E059
:101D600070E0EC0188819981461B570B5D834C83A1
:101D7000680F791F0E94EC28E881F9818C819D8190
:101D8000E80FF91F1082DF91CF910895CF93DF9371
:101D90004AE00E942F0EEC0185EE92E00E940D15A4
:101DA0008C0F9D1FDF91CF910895FF920F931F938A
:101DB000CF93DF938C01EB018FE4F82E8091010526
:101DC00090910205DC01ED91FC910480F581E02DFC
:101DD0000995892BD9F18091010590910205DC01CB
:101DE000ED91FC910680F781E02D09959091A40476
:101DF0009F3958F0F092A404EDE4F4E0ADEFB3E0C5
:101E00009F2D01900D929A95E1F7A091A404E1E035
:101E1000EA0FE093A404B0E0A350BC4F8C93F0E031
:101E2000E350FC4F1082B8018DEF93E00E94FB2835
:101E3000892B19F5209711F2BE018DEF93E00E94D6
:101E4000FB28892B09F4BACF82E01AC00E9436071A
:101E50000091A5041091A6042091A7043091A80434
:101E6000DC01CB01801B910BA20BB30B803197429D
:101E7000A105B10520F083E003C081E001C080E04E
:101E8000DF91CF911F910F91FF9008950F931F93B2
:101E9000CF93DF93EC0162E20E94E3148C01CE0148
:101EA0000E940D15800F911FDF91CF911F910F910F
:101EB00008950F931F93CF93DF938C01EB01E7E617
:101EC000F6E06591749183EC94E00E94AB2A63EC98
:101ED00074E080910105909102050E942315B801DC
:101EE00080910105909102050E94231588819981B6
:101EF000892BD1F580910105909102050E94460F32
:101F000064EF71E080E090E00E94FC0640E050E069
:101F100060ED77E080E090E00E949F0D882301F162
:101F2000E9E6F6E06591749183EC94E00E94AB2AB7
:101F300063EC74E080910105909102050E941115F7
:101F400082E080939D041092A4040E94360760935F
:101F5000A5047093A6048093A7049093A80413C0CB
:101F600084E080939D040FC06FE380910105909100
:101F700002050E94E314BE018091010590910205C3
:101F80000E94EA14B7CF80E0DF91CF911F910F91AB
:101F90000895CF93DF93BC0185EE92E00E94EA148E
:101FA000EC0185EE92E00E940D158C0F9D1FDF91D4
:101FB000CF910895E7E2F6E06591749183EC94E0A7
:101FC0000E94AB2A40E050E060ED77E083EC94E0C3
:101FD0000E949F0D66E372E08DEF93E00E94FB2864
:101FE000009759F005960E94662A8336910529F0DC
:101FF0008F3F2FEF920709F0089580E090E0089559
:10200000CF93DF93EB01DC011596ED91FC911697D0
:10201000138615861486DF011B9633961E92AE1723
:10202000BF07E1F7BE01FC01858196810E948C0803
:10203000882349F067E0CE010E94DA079F81891367
:1020400002C081E001C080E0DF91CF9108950F933D
:102050001F93CF93DF93CDB7DEB761970FB6F89498
:10206000DEBF0FBECDBF8C01BE01665F7F4F0E94F9
:102070000010811105C060E070E08EEF92EC4BC063
:10208000AE014F5F5F4FBE01665F7F4FC8010E9488
:10209000D909882359F1698148E0649FB00111246E
:1020A0008A81282F30E0322F2227330F330F330F4E
:1020B000262B372B8A858031E1F4688570E08F818B
:1020C000AB01481B5109CA019695982F882797950F
:1020D00087950E942A2760517109207F53E0220FC3
:1020E000331F5A95E1F7620F731F04C060E874EE66
:1020F00001C0B901613854EE75070CF4BCCF072E4E
:10210000000C880B990B0E941C2F20E030E040E06F
:102110005CE30E947B2F61960FB6F894DEBF0FBE82
:10212000CDBFDF91CF911F910F910895BF92CF92B4
:10213000DF92EF92FF920F931F93CF93DF938C0167
:10214000EB01892B49F00E94850DB80180910105B2
:10215000909102050E9411150E9436076B017C01C7
:1021600000E01FE48091010590910205DC01ED91F2
:10217000FC910480F581E02D0995892BA1F18091D6
:10218000010590910205DC01ED91FC910680F7813B
:10219000E02D09950F3950F0EDE4F4E0ADEFB3E038
:1021A000912F01900D929A95E1F70FE4BB24B3941F
:1021B000B00EE02FF0E0E350FC4F8083EB2DF0E019
:1021C000E350FC4F10826BE372E08DEF93E00E94CE
:1021D000FB28892BC1F4BE018DEF93E00E94FB2800
:1021E000892B99F40B2D0E943607DC01CB018C1949
:1021F0009D09AE09BF09803D9740A105B10508F4CE
:10220000B1CF80E003C081E001C082E0DF91CF91D7
:102210001F910F91FF90EF90DF90CF90BF900895A6
:10222000CF92DF92EF92FF92CF93DF936C01990FE1
:10223000EE08FF08F7FE14C06DE285EE92E00E9402
:10224000E314EC0166277727CB016C197D098E0911
:102250009F094AE00E942F0E7C01EC0EFD1E06C075
:102260004AE0C701B6010E942F0E7C0185EE92E084
:102270000E940D158E0D9F1DDF91CF91FF90EF9065
:10228000DF90CF900895DF92EF92FF920F931F930C
:10229000CF93DF93CDB7DEB729970FB6F894DEBFA3
:1022A0000FBECDBF8C017B01AE014F5F5F4F0E941F
:1022B000D909D82E882309F459C0F70180818031CB
:1022C00009F454C08FE78D83F801858196810E94BF
:1022D0005608B701F801858196810E94290840E0DF
:1022E0006EE4F801858196810E94E70740E06B81EA
:1022F000F801858196810E94E70740E06C81F80132
:10230000858196810E94E707F7018081803139F04D
:1023100040E06D81F801858196810E94E707F80110
:10232000858196810E945608B701F80185819681C2
:102330000E942908F801408168E4858196810E9405
:10234000E70764E170E080E090E00E94FC06F8019D
:102350008081882331F06AE070E080E090E00E94A4
:10236000FC06F801858196810E9456088D2D2996DC
:102370000FB6F894DEBF0FBECDBFDF91CF911F9196
:102380000F91FF90EF90DF9008952F923F924F9220
:102390005F926F927F928F929F92AF92BF92CF92F5
:1023A000DF92EF92FF920F931F93CF93DF9300D0B2
:1023B00000D0CDB7DEB7FC014480558041145104F4
:1023C00009F413C1FB01648075806114710409F480
:1023D0000CC17A016B019C838B83FA01A480B580C8
:1023E000A618B708FC0100811181A114B104C1F441
:1023F000F60160817181C8010E94FB285C01892B74
:1024000009F4F3C0F7016081718144815581C501F0
:102410000E94B628F701048115810A0D1B1DE8CF23
:10242000B7FE02C0480106C0FB0120803180420196
:10243000C80148C0F60160817181C4010E94FB2877
:102440002C01892B29F1320168187908A301B40104
:10245000C8010E94B628060D171DF7016081718121
:1024600044815581C8010E94B628F7018481958175
:10247000080F191FF60184809580840C951CEB8150
:10248000FC81848195818A0D9B1D95838483D2CFA5
:10249000B401C8010F900F900F900F90DF91CF9172
:1024A0001F910F91FF90EF90DF90CF90BF90AF9072
:1024B0009F908F907F906F905F904F903F902F9064
:1024C0000C94E528B1010E94FB28009729F0860DA5
:1024D000971D8A0C9B1CF6CF8414950409F485C0C3
:1024E000EB81FC81828193818815990578F4B40190
:1024F0006F5F7F4FC8010E94E727009709F475C0FE
:10250000EB81FC819183808393828282EB81FC81C9
:10251000048115810150110917FD67C0F60124805F
:1025200035802114310409F460C0EB81FC816480A2
:1025300075806114710409F458C06214730408F4BE
:1025400054C00615170518F0830101501109EB81DD
:10255000FC8140805180C20188248A94982C920189
:10256000200F311F2817390758F0F601608171815B
:1025700029833A830E94FB2829813A81009761F5DB
:1025800097FC33C0280C391CC201820D931DA30196
:1025900042195309BC018A0D9B1D0E94BF28EB8183
:1025A000FC81848195818A0D9B1D95838483208184
:1025B0003181F901E80FF91F1082EB81FC818081E4
:1025C0009181F7016081718144815581880D991D48
:1025D0000E94B62884019ECFAC0144195509041706
:1025E000150708F04A010196BDCF0F900F900F908C
:1025F0000F90DF91CF911F910F91FF90EF90DF909F
:10260000CF90BF90AF909F908F907F906F905F9092
:102610004F903F902F900895CF93DF93FC0124813A
:102620003581232B71F0FB01DC01CD91DC916081C0
:102630007181CE010E94FB28009719F08C1B9D0B25
:1026400002C08FEF9FEFDF91CF910895FC012481AD
:1026500035816217730720F480819181009729F4F6
:102660001092220582E295E00895860F971F089543
:102670000F931F93CF93DF9300D0CDB7DEB78C01BC
:1026800069831A8241E050E0BE016F5F7F4F0E9474
:10269000A813811103C0C8010E94D613C8010F906E
:1026A0000F90DF91CF911F910F910895CF92DF92FC
:1026B000EF92FF920F931F93CF93DF936C017A01F8
:1026C0008B01C0E0D0E0CE15DF0589F0D8016D9117
:1026D0008D01D601ED91FC910190F081E02DC601B4
:1026E0000995892B11F47E0102C02196ECCFC70118
:1026F000DF91CF911F910F91FF90EF90DF90CF90DE
:1027000008950F931F93CF93DF93EC0188819981F4
:10271000009729F02A813B812617370788F48B011F
:102720006F5F7F4F0E94E727009761F0998388834E
:102730001B830A832C813D81232B11F4FC01108221
:1027400081E001C080E0DF91CF911F910F9108954A
:10275000EF92FF920F931F93CF93DF93FC0124819D
:1027600035816115710511F480E019C041155105DD
:10277000A9F07B01EC018A01020F131FB8010E942E
:102780008113882389F3288139818C819D81B70148
:10279000820F931F0E94E5281D830C8381E0DF9147
:1027A000CF911F910F91FF90EF900895CF93DF93FA
:1027B000EC0188819981009711F00E94CA29198241
:1027C00018821D821C821B821A82DF91CF9108958C
:1027D000CF93DF93EC016115710561F0FB0101906E
:1027E0000020E9F73197AF01461B570B0E94A81351
:1027F000811103C0CE010E94D613CE01DF91CF918B
:102800000895CF93DF93EC01FB01448155816081F2
:1028100071810E94A813811103C0CE010E94D613BA
:10282000CE01DF91CF910895EF92FF920F931F9306
:10283000CF93DF93EC017B018A01BA010E948113DF
:10284000811104C0CE010E94D61307C01D830C83E2
:10285000B701888199810E94E528CE01DF91CF914F
:102860001F910F91FF90EF900895CF93DF93EC01AC
:102870006115710559F0FB0101900020E9F73197CE
:10288000AF01461B570B0E94141402C00E94D613BE
:10289000CE01DF91CF910895CF93DF93EC01FB013F
:1028A0008617970761F0608171816115710529F0C4
:1028B000448155810E94141402C00E94D613CE0197
:1028C000DF91CF910895FC01808191810C94CA29F8
:1028D000EF92FF920F931F93CF93DF93CDB7DEB7A5
:1028E000A1970FB6F894DEBF0FBECDBF7C01CB0120
:1028F000BA01F701118210821382128215821482AA
:1029000042E0420F8E010F5F1F4F0E941529BC014C
:10291000C7010E943514A1960FB6F894DEBF0FBE12
:10292000CDBFDF91CF911F910F91FF90EF90089550
:102930000F931F93CF93DF93CDB7DEB729970FB6D1
:10294000F894DEBF0FBECDBF8C01862FF801118237
:102950001082138212821582148250E0BE016F5FD2
:102960007F4F90E00E94FC2ABE016F5F7F4FC8013D
:102970000E94351429960FB6F894DEBF0FBECDBF66
:10298000DF91CF911F910F910895FC011182108268
:1029900013821282158214820C944C14FC01118251
:1029A000108213821282158214826115710551F012
:1029B000FB0101900020E9F73197AF01461B570B4F
:1029C0000C9414140895DC01ED91FC910190F081B8
:1029D000E02D0994DC01ED91FC91DB0114964D9101
:1029E0005C9115976D917C910280F381E02D0994A3
:1029F0006115710579F0FB0101900020E9F731972D
:102A0000AF01461B570BDC01ED91FC910280F38175
:102A1000E02D099480E090E0089561E272E00C946A
:102A2000F8140F931F93CF93DF93EC010E94F814D7
:102A30008C01CE010E940D15800F911FDF91CF9167
:102A40001F910F9108950C94F814CF93DF93CDB795
:102A5000DEB7C058D1090FB6F894DEBF0FBECDBFA8
:102A6000789484B5826084BD84B5816084BD85B569
:102A7000826085BD85B5816085BD80916E00816075
:102A800080936E001092810080918100826080931B
:102A9000810080918100816080938100809180001D
:102AA0008160809380008091B10084608093B10048
:102AB0008091B00081608093B00080917A00846042
:102AC00080937A0080917A00826080937A0080916E
:102AD0007A00816080937A0080917A008068809388
:102AE0007A001092C100E091F502F091F60282E0C6
:102AF0008083E091F102F091F2021082E091F30202
:102B0000F091F40280E180831092FD02E091F902DD
:102B1000F091FA0286E08083E091F702F091F802EA
:102B2000808180618083E091F702F091F8028081DA
:102B300088608083E091F702F091F80280818068DC
:102B40008083E091F702F091F80280818F7D80838D
:102B50008CED91E00E94930E61E086E00E94C00639
:102B600061E08DE00E94C00661E085E00E94C00641
:102B700061E08AE00E94C00661E08FE00E94C0062A
:102B800061E08EE00E94C00660E083E00E94C00623
:102B900060E089E00E94C00640E060E081E00E94C1
:102BA0008E0B6CE271E080E090E00E94FC0640E059
:102BB00061E080E00E948E0B6CE271E080E090E0CA
:102BC0000E94FC0641E060E080E00E948E0B6CE217
:102BD00071E080E090E00E94FC0640E060E081E06F
:102BE0000E948E0B87ED93E09093AE038093AD032C
:102BF0001092AC031092A80399E09093A90381E08E
:102C00008093AA038093AB0329EC33E030939B03BA
:102C100020939A0310929903109295039093960330
:102C200080939703809398032BEB33E030938803D2
:102C3000209387031092860310928203909383035C
:102C4000809384038093850388EA93E00E943A0A84
:102C500085E993E00E943A0A82E893E00E943A0AEA
:102C6000BE016F5F7F4F88EA93E00E9400108823C7
:102C700039F0BE016F5F7F4F88EA93E00E944311F5
:102C8000BE016F5F7F4F85E993E00E9400108823AB
:102C900039F0BE016F5F7F4F85E993E00E944311D9
:102CA000BE016F5F7F4F82E893E00E94001088238F
:102CB00039F0BE016F5F7F4F85E993E00E944311B9
:102CC00087EA9BE090930301809302018091690061
:102CD0008C6080936900E99AB12CA12C9DEC292E7F
:102CE000312C8FE491E00E94930E60E086E00E9418
:102CF000900660E08DE00E94900661E085E00E9411
:102D0000900660ED77E080E090E00E94FC0661E0D4
:102D10008DE00E94900660E085E00E9490066CEDD8
:102D200075E080E090E00E94FC0661E086E00E9491
:102D3000900668EE73E080E090E00E94FC0660E0A0
:102D400086E00E949006E1E7F0E08491E8EAF6E090
:102D50000491E4E9F6E014911123A9F381110E9492
:102D60006706E12FF0E0EE0FFF1FEF57F94FA59137
:102D7000B4918C91082339F360ED77E080E090E026
:102D80000E94FC068FE391E00E94930E10921E05B4
:102D900010921D0510921C0510921B0510921A0529
:102DA000109219053092200520921F0590910F0571
:102DB000963108F057C025E530E030931A0520938E
:102DC00019052BEC30E030931C0520931B0520E9FE
:102DD00030E030931E0520931D0520916800983047
:102DE00050F031E09E3008F430E081E001C0880FFF
:102DF0003A95EAF701C084E0822B8093680098300E
:102E000038F09E3040F0963148F020E030E008C0C5
:102E10002DE630E005C02BE630E002C02CE630E0C5
:102E20003093170520931605983030F481E001C0E7
:102E3000880F9A95EAF70EC0292F30E09E3018F4DB
:102E40002850310902C02E50310981E001C0880F9D
:102E50002A95EAF78093180580911F059091200527
:102E60000197F1F780911D0590911E05892B49F17D
:102E7000E0914202F091430225E0E330F20709F1CC
:102E8000309739F0A389B4899C91858980958923ED
:102E90008C93809121058E7F8093210510924102B1
:102EA0001092400283E095E09093430280934202A7
:102EB000E0911605F0911705908180911805892BF6
:102EC000808383E095E090930205809301050EE0F6
:102ED00010E08091010590910205DC01ED91FC91DB
:102EE0000480F581E02D0995892B61F08091010521
:102EF00090910205DC01ED91FC910680F781E02DB7
:102F00000995E7CF40E050E060ED77E087E391E09E
:102F10000E949F0D811133C064EF71E080E090E06A
:102F20000E94FC0601501109A1F640E050E060ED5E
:102F300077E087E391E00E949F0D64E670E080E017
:102F400090E00E94FC0640E050E060ED77E087E30F
:102F500091E00E949F0D64E670E080E090E00E94A6
:102F6000FC0640E050E060ED77E087E391E00E94EE
:102F70009F0D64E670E080E090E00E94FC0640E077
:102F800050E060ED77E087E391E00E949F0D882399
:102F900009F4D2C4E9E1F6E06591749183EC94E020
:102FA0000E94AB2A40E050E060ED77E083EC94E0D3
:102FB0000E949F0D64E670E080E090E00E94FC06B5
:102FC000E7E1F6E06591749183EC94E00E94AB2A0E
:102FD00040E050E060ED77E083EC94E00E949F0DCC
:102FE00064E670E080E090E00E94FC06EBE1F6E031
:102FF0006591749183EC94E00E94AB2A40E050E02C
:1030000060ED77E083EC94E00E949F0D64E670E051
:1030100080E090E00E94FC06EDE1F6E0659174919D
:1030200083EC94E00E94AB2A40E050E060ED77E052
:1030300083EC94E00E949F0D64E670E080E090E0F5
:103040000E94FC06EFE1F6E06591749183EC94E058
:103050000E94AB2A40E050E060ED77E083EC94E022
:103060000E949F0D64E670E080E090E00E94FC0604
:10307000E1E2F6E06591749183EC94E00E94AB2A62
:1030800040E050E060ED77E083EC94E00E949F0D1B
:1030900064E670E080E090E00E94FC06E3E2F6E087
:1030A0006591749183EC94E00E94AB2A64E670E031
:1030B00080E090E00E94FC0640E050E060ED77E0A8
:1030C0008AE391E00E949F0D64E670E080E090E06A
:1030D0000E94FC0682E291E00E94930EE3E5F6E096
:1030E0006591749183EC94E00E94AB2A40E050E03B
:1030F00060ED77E083EC94E00E949F0D68EE73E052
:1031000080E090E00E94FC066DE471E084E591E0CF
:103110000E949610813009F56DE070E08DEF93E02C
:103120000E94D1280097C9F08C010E5F1F4F6DE0FF
:1031300070E0C8010E94D128009711F0FC011082B4
:10314000B8018DEF93E00E94E5288BE191E00E94A9
:10315000720E85EE93E00E94C90F80914402909117
:103160004502029739F068EE73E080E090E00E943B
:10317000FC06F3CF68EE73E080E090E00E94FC066E
:1031800085E091E00E94720E1EE1F12E05E216E04C
:10319000F8016591749183EC94E00E94AB2A40E0C1
:1031A00050E060ED77E083EC94E00E949F0D88236F
:1031B00069F16BE571E08DEF93E00E94FB280097C9
:1031C00029F1DC0112962C91213311F02533F1F411
:1031D000E7E2F6E06591749183EC94E0C058DF4F2C
:1031E0002883C058D0400E94AB2A40E050E068EEEF
:1031F00073E083EC94E00E949F0DC058DF4F28815C
:10320000C058D040EF962FAFEF9709C068EE73E03B
:1032100080E090E00E94FC06FA94F110B9CF84EFB0
:1032200090E00E94720EEF966FADEF9785EE92E000
:103230000E94E31481EF90E00E94720EEF962FAD92
:10324000EF97213319F48EED90E008C0EF962FAD83
:10325000EF97253309F038C38AEC90E00E94930E73
:103260008091440290914502029709F02DC360EDD0
:1032700077E080E090E00E94FC06AFE28A2EA6E0B4
:103280009A2EBBE46B2EB6E07B2E0E94DA0F8C01E7
:1032900082EC90E00E94720EC8010E94101168EE4C
:1032A00073E080E090E00E94FC0682EB90E00E94D8
:1032B000930E40E050E060E27EE48EE591E00E94F3
:1032C0009F0DE9E2F6E06591749183EC94E00E9431
:1032D000AB2A40E050E060ED77E083EC94E00E94A0
:1032E0009F0D882309F4D1C2EBE2F6E06591749159
:1032F00083EC94E00E94AB2A40E050E060ED77E080
:1033000083EC94E00E949F0D882309F4BEC2E5E59A
:10331000F6E06591749183EC94E00E94AB2AE9E5B4
:10332000F6E0659174918BEE94E00E94AB2A6BEE0F
:1033300074E083EC94E00E9496108130C9F469E651
:1033400071E08DEF93E00E94FB28009789F08C01DB
:103350000E5F1F4F62E270E0C8010E94D128009703
:1033600011F0DC011C92B8018DEF93E00E94E5287A
:103370006DEF73E0CE018E960E94CE1463E272E090
:10338000CE0188960E94CE146CE671E0CE01829642
:103390000E94CE14AE01485D5F4FBE016E5D7F4F4F
:1033A000CE018E960E94C511CE0182960E946314B2
:1033B000CE0188960E94631463E272E0CE01889683
:1033C0000E94CE146AE671E0CE0182960E94CE146D
:1033D000AE01485D5F4FBE016E5D7F4FCE018E96A0
:1033E0000E94C511CE0182960E946314CE01889678
:1033F0000E94631463E272E0CE0188960E94CE14AC
:1034000062E272E0CE0182960E94CE14AE01485D67
:103410005F4FBE016E5D7F4FCE018E960E94C5113B
:10342000CE0182960E946314CE0188960E94631496
:1034300063E272E0CE0188960E94CE146DE372E0E2
:10344000CE0182960E94CE14AE01485D5F4FBE0150
:103450006E5D7F4FCE018E960E94C511CE01829681
:103460000E946314CE0188960E946314CEA4DFA448
:10347000C114D104E1F10AA91BA901151105B9F183
:1034800026017201BFEF4B1A5B0AF7018081082EFB
:10349000000C990B0E94E42E892B99F70150110919
:1034A0000C0D1D1DD8018C91082E000C990B0E944B
:1034B000E42E892B79F40F5F1F4FA8014E195F0985
:1034C0005BAB4AABCE14DF0458F4B701C6010E94CF
:1034D000B62806C00E151F0570F301501109E2CF82
:1034E000EEA5FFA58AA99BA9E80FF91F1082F40198
:1034F0006591749183EC94E00E94AB2A63EC74E0D4
:10350000CE0182960E94CE14BE016E5D7F4FCE0129
:103510008E960E940C138C01CE0182960E94631439
:1035200017FD32C00DE216E0F8016591749183EC4D
:1035300094E00E94AB2A63EC74E089EA94E00E9474
:103540003514E1E3F6E06591749183EC94E00E9418
:10355000AB2A63EC74E08FEA94E00E94351463ECCC
:1035600074E085EB94E00E943514F8016591749144
:1035700083EC94E00E94AB2A63EC74E08BEB94E064
:103580000E943514F4013EC06FE671E0CE018296D0
:103590000E94CE14BE016E5D7F4FCE018E960E94BA
:1035A0000C138C01CE0182960E94631417FD31C06A
:1035B000E5E3F6E0659174918BEE94E00E94AB2A0E
:1035C0006BEE74E089EA94E00E943514E7E3F6E0DC
:1035D0006591749183EC94E00E94AB2A63EC74E0F3
:1035E0008FEA94E00E94351463EC74E085EB94E07C
:1035F0000E9435146BEE74E08BEB94E00E9435145E
:10360000E3E3F6E06591749183EC94E00E94AB2AC9
:103610003CC06CE771E0CE0182960E94CE14BE01E0
:103620006E5D7F4FCE018E960E940C138C01CE01F1
:1036300082960E94631417FD2EC0E9E3F6E06591BF
:10364000749183EC94E00E94AB2AEBE3F6E0659181
:1036500074918BEE94E00E94AB2A6BEE74E089EAE1
:1036600094E00E94351463E272E08FEA94E00E94D5
:10367000351463E272E085EB94E00E9435146BEE42
:1036800074E08BEB94E00E94351463EC74E085EEFB
:1036900092E00E941115E3E4F6E06591749183ECE9
:1036A00094E00E94AB2A63EC74E080910105909154
:1036B00002050E94231569EA74E08091010590914A
:1036C00002050E94EA1480910105909102050E9472
:1036D000460F40E050E060ED77E080E090E00E942F
:1036E0009F0D811102C014E0BAC0E5E4F6E06591D7
:1036F000749183EC94E00E94AB2A63EC74E08091B7
:103700000105909102050E9423156FEA74E08091F3
:103710000105909102050E94EA14809101059091A3
:1037200002050E94460F40E050E060ED77E080E047
:1037300090E00E949F0D8823B1F2E7E4F6E06591E6
:10374000749183EC94E00E94AB2A63EC74E0809166
:103750000105909102050E94231565EB74E08091AC
:103760000105909102050E94EA1480910105909153
:1037700002050E94460F40E050E060ED77E080E0F7
:1037800090E00E949F0D882309F4ADCFE9E4F6E0B4
:103790006591749183EC94E00E94AB2A63EC74E031
:1037A00080910105909102050E9423156BEB74E056
:1037B00080910105909102050E94EA148091010513
:1037C000909102050E94460F40E050E060ED77E0E6
:1037D00080E090E00E949F0D882309F484CFF301DC
:1037E0006591749183EC94E00E94AB2A40E050E034
:1037F00060E177E283EC94E00E949F0DEDE4F6E057
:103800006591749183EC94E00E94AB2A40E050E013
:1038100060E177E283EC94E00E949F0DEFE4F6E034
:103820006591749183EC94E00E94AB2A40E050E0F3
:1038300060ED77E083EC94E00E949F0DE1E5F6E017
:103840006591749183EC94E00E94AB2A40E050E0D3
:1038500060ED77E083EC94E00E949F0D10E0CE01D4
:103860008E960E946314111110C0809144029091B1
:103870004502039739F062E370E080E090E00E9437
:10388000FC06F3CF8FE990E013C0B3948EE890E08C
:103890000E94930E68E873E180E090E00E94FC06CD
:1038A0008091440290914502039751F48CE790E097
:1038B0000E94930E40E061E080E00E948E0B41C0C8
:1038C000AA2009F4E2CC3DC0B4E1BB1508F409CA52
:1038D000AA2009F406CA89ED91E00E94930E0FE533
:1038E00016E0E1E6EE2EE6E0FE2EFDE5CF2EF6E058
:1038F000DF2EF8016591749183EC94E00E94AB2A6D
:10390000F701659174918BEE94E00E94AB2A40E040
:1039100050E060E177E283EC94E00E949F0D882301
:10392000B9F040E050E068E873E18BEE94E00E946B
:103930009F0D882369F072C085E291E00E94930E8A
:10394000FFCFF4E1FB1508F0C6CFAA24A394C9C9A0
:1039500010929D0464E272E085EE92E00E942315CD
:103960006DEF73E085EE92E00E9411156DEF73E04C
:10397000CE0188960E94CE141BA21AA21DA21CA2E0
:103980001FA21EA265E070E0CE0182960E94811304
:10399000811105C0CE0182960E94D6130AC085E02F
:1039A00090E09FA38EA363ED71E08AA19BA10E948A
:1039B000AB2ABE016E5D7F4FCE0188960E940C132C
:1039C0005C01CE0182960E946314B7FC0DC08BEBA4
:1039D00091E00E94720E68EE73E080E090E00E9439
:1039E000FC06E0E0F0E00995F6016591749183EC46
:1039F00094E00E94AB2A40E050E060ED77E083EC79
:103A000094E00E949F0D68EE73E080E090E00E94D9
:103A1000FC06CE0188960E9463146BCF81E08093F0
:103A20009D0480E090E00E943C308032A9F188EA59
:103A300091E00E94930E00E010E060E0C8010E9457
:103A40008C0B0F5F1F4F0F3FF3E01F07B1F760E2D2
:103A500080E090E00E948C0B88EC90E00E945C0D6E
:103A600064E871E084E690E00E94640C61E971E032
:103A700088E790E00E94640C6EE971E08CE890E0C9
:103A80000E94640C6EE971E08CED90E00E94640C81
:103A900087E991E00E94930E6BEA71E081EF93E079
:103AA0000E94351471EFE72E73E0F72E0CED10E055
:103AB000D7016D917D011BA30AA3CE0182960E94BE
:103AC000440C0F5F1F4F023E110591F788EC90E008
:103AD0000E94420D8CED90E00E940E0D89E891E06D
:103AE0000E94720E6091040170910501809106019F
:103AF000909107010E94C60E81EF93E00E94C90FCA
:103B000087E791E00E94930E0E94360760934F0270
:103B1000709350028093510290935202212C312CC9
:103B200002EB11E0B1E00B3B1B0779F0F80161916A
:103B30008F018091010590910205DC01ED91FC91CE
:103B40000190F081E02D0995EDCF0E9436074B01E1
:103B50005C01C12CD12C760100E010E080910105C0
:103B600090910205DC01ED91FC910480F581E02D3E
:103B70000995892BF1F08091010590910205DC01F6
:103B8000ED91FC910680F781E02D0995782E0E9439
:103B900036076B017C01F801E454FE4F80818711E8
:103BA00006C00F5F1F4F0730110519F425C000E054
:103BB00010E00E943607DC01CB0188199909AA0997
:103BC000BB0989389341A105B10508F013C10E94D2
:103BD0003607DC01CB018C199D09AE09BF098D3D6B
:103BE0009540A105B10508F4B9CFC114D104E10491
:103BF000F10409F4B3CFFEC00E94850D0E94850D2B
:103C00000E9436074B015C01C12CD12C760100E0EB
:103C100010E08091010590910205DC01ED91FC918D
:103C20000480F581E02D0995892B89F180910105AA
:103C300090910205DC01ED91FC910680F781E02D69
:103C40000995782E0E9436076B017C01C801019608
:103C5000F801E350FC4F7082803A9105B4F0EDEF2B
:103C6000F3E001900020E9F731978F010D5F1340D9
:103C70006DEF73E085EE92E00E9411158091FD03D7
:103C8000823251F180E090E03BC08C01C2CF003A1B
:103C900011052CF70E943607DC01CB018819990920
:103CA000AA09BB0989389341A105B105C0F60E9454
:103CB0003607DC01CB018C199D09AE09BF098D3D8A
:103CC0009540A105B10508F4A4CFC114D104E104C5
:103CD000F10409F49ECFC3CFEEEFF3E0A5EDB2E01F
:103CE000CF018D5F93409D01255D3240419142326D
:103CF00011F04D93F5CFF901EB52FD4F1082019673
:103D0000FC01E350FC4F20812C3209F40196FC01A8
:103D1000E350FC4F2081223241F40196FC01E35034
:103D2000FC4F208101962232C9F7FC01E350FC4F81
:103D300020812C3209F40196FC01E350FC4F2081D4
:103D4000223299F40196E8E5F2E09F0128553240CD
:103D5000DC01A350BC4F4C910196423211F04193CB
:103D6000F4CFF901E85AFD4F1082FC01E350FC4FFB
:103D700020812D3009F40196FC01E350FC4F208195
:103D80002A3009F40196DC01A350BC4FE0E7F2E0D1
:103D900080579240025011099F0120573240AC01D8
:103DA0004E0F5F1F401751071CF42D912193F4CF44
:103DB000F901E059FD4F108285EB92E00E94720EEE
:103DC00065ED72E085EE92E00E9411158AEA92E0BC
:103DD0000E94720E68E572E085EE92E00E94111575
:103DE00087E992E00E94720E60E772E085EE92E051
:103DF0000E9411150E9436076B017C0180915702C9
:103E0000811104C088EC90E00E94420D8091530221
:103E100090915402A0915502B0915602460157016B
:103E2000881A990AAA0ABB0A209104013091050157
:103E30004091060150910701A8EEB3E00E94523074
:103E400086169706A806B90608F46DC689E892E0BA
:103E50000E94720E8091530290915402A0915502DB
:103E6000B0915602A7019601281B390B4A0B5B0B38
:103E7000CA01B90128EE33E040E050E00E943E273D
:103E8000CA01B9010E94C60E41E060E080E00E94D4
:103E90008E0BC0925302D0925402E0925502F092DF
:103EA000560288EA93E00E94AA0985E993E00E94FD
:103EB000AA0982E893E00E94AA0988EA93E00E9496
:103EC00027106B017C0185E993E00E9427104B01CC
:103ED0005C0182E893E00E9427102B013C010E94C4
:103EE000DA0FC258DF4F99838883CE57D040EE96C1
:103EF0001FAE1EAEEE97BE0164587F4F80EA90E081
:103F00000E94780BA5019401C701B6010E947B278E
:103F1000A30192010E947B272FE832EC41EB52E48F
:103F20000E947B27AB01BC0122E0CE01845B9F4F46
:103F30000E9468148E010F5F1F4FB80184E690E065
:103F40000E94520BB801CE018A5B9F4F0E94CE1493
:103F5000B80188E790E00E94520BB801CE01805C66
:103F60009F4F0E94CE14B8018CE890E00E94520B43
:103F7000B801CE01CA960E94CE148CED90E00E944A
:103F80000E0D64EC71E0CE0182960E94CE14BE014B
:103F90006A5B7F4FCE0182960E940114BC01CE0164
:103FA000C4960E94C514CE0182960E9463146BECE5
:103FB00071E0CE0182960E94CE14BE01605C7F4FFC
:103FC000CE0182960E940114BC01CE018E960E9401
:103FD000C514CE0182960E94631461ED71E0CE019A
:103FE00082960E94CE14BE01665C7F4FCE018296FF
:103FF0000E940114BC01CE0188960E94C514CE0116
:1040000082960E94631467ED71E0CE0182960E9451
:10401000CE14BE016A5B7F4FCE0182960E940114CE
:1040200067ED71E00E94E813BE01605C7F4F0E9463
:10403000011467ED71E00E94E813BE01665C7F4FDA
:104040000E94011467ED71E00E94E81361EF73E0D4
:104050000E940114BC01CE018E5A9F4F0E94C514CC
:10406000CE0182960E946314CE0188960E9463144A
:10407000CE018E960E946314CE01C4960E946314F2
:10408000CE01CA960E946314CE01805C9F4F0E94AD
:104090006314CE018A5B9F4F0E946314EE968EAD2F
:1040A0009FADEE976A961FAE1EAE6A976C961FAED6
:1040B0001EAE6C976E961FAE1EAE6E974AE0B801AC
:1040C0000E94B22AB801CE01885A9F4F0E9435142F
:1040D00060914B0270914C0280914D0290914E0282
:1040E000A0961FAE1EAEA097A2961FAE1EAEA297C0
:1040F000A4961FAE1EAEA4972AE0A8010E94DA2A59
:10410000B801CE01825A9F4F0E943514A6961FAE69
:104110001EAEA697A8961FAE1EAEA897AA961FAE73
:104120001EAEAA974AE0B801C258DF4F8881998134
:10413000CE57D0400E94B22AB801CE018C599F4F71
:104140000E94351422E0B301A201CE0186599F4F8F
:104150000E94681422E0B501A401CE0180599F4F4E
:104160000E94681422E0B701A601CE018A589F4F31
:104170000E94681469ED71E0CE018A5B9F4F0E9436
:10418000CE14EBE5F6E06591749183EC94E00E9427
:10419000AB2A40E050E060E177E283EC94E00E94DB
:1041A0009F0D882309F4FBC06AE370E08DEF93E074
:1041B0000E94D128009709F4F2C06CE270E00E94DE
:1041C000D128009709F4EBC07C013FEFE31AF30A12
:1041D000C7010E94622A6CE270E0C7010E94D128E8
:1041E000009709F4DCC07C014FEFE41AF40AC70120
:1041F0000E94622A6CE270E0C7010E94D1280097F9
:1042000009F4CDC07C015FEFE51AF50AC7010E94F1
:10421000662AD82E6FE270E0C7010E94D12800976D
:1042200009F4BDC07C01AFEFEA1AFA0AC7010E9487
:10423000662AC82E6FE270E0C7010E94D12800975D
:1042400009F4ADC07C01BFEFEB1AFB0AC7010E9465
:10425000662AB82E6CE270E0C7010E94D128009750
:1042600009F49DC07C01EFEFEE1AFE0AC7010E941F
:10427000662AA82E6AE370E0C7010E94D128009741
:1042800009F48DC07C01FFEFEF1AFF0AC7010E94FD
:10429000662A982E6AE370E0C7010E94D128009731
:1042A00009F47DC001960E94662A4AE0682FC80181
:1042B0000E9498144AE0692DCE0182960E949814BB
:1042C0004AE06A2DCE0188960E9498144AE06B2D30
:1042D000CE018E960E9498144AE06C2DCE01C496B1
:1042E0000E94981460E36D0D4AE0CE01805C9F4F00
:1042F0000E949814BE01605C7F4FCE01CA960E9456
:10430000C5146FE2CE01CA960E943813BE016C5CE0
:104310007F4F0E9401146FE20E943813BE01625D5C
:104320007F4F0E9401146CE20E943813BE01685D49
:104330007F4F0E9401146AE30E943813BE016E5D34
:104340007F4F0E9401146AE30E943813B8010E9453
:1043500001146AEE71E00E94E813BC01CE018A5B91
:104360009F4F0E944C14CE01CA960E946314CE0146
:10437000805C9F4F0E946314CE01C4960E94631418
:10438000CE018E960E946314CE0188960E9463141B
:10439000CE0182960E946314C8010E9463146EEEDF
:1043A00071E0C8010E94CE1465EE73E0C8010E945E
:1043B000011467ED71E00E94E813BE016A5B7F4F54
:1043C0000E940114BC01CE0182960E94C514C8014E
:1043D0000E946314CE018A5B9F4F0E946314BE014A
:1043E0006E5D7F4FC8010E94C51467ED71E0C80182
:1043F0000E94E813BE016A587F4F0E94011467EDC6
:1044000071E00E94E813BE0160597F4F0E940114C1
:1044100067ED71E00E94E813BE0166597F4F0E946C
:10442000011467ED71E00E94E813BE016C597F4FE3
:104430000E94011467ED71E00E94E813BE01625A08
:104440007F4F0E94011467ED71E00E94E813BE01E6
:10445000685A7F4F0E940114BE016E5A7F4F0E941E
:10446000011467ED71E00E94E813BE01645B7F4FA9
:104470000E940114BC01CE01C4960E94C514C8015B
:104480000E946314CE0182960E946314CE018A5862
:104490009F4F0E946314CE0180599F4F0E94631466
:1044A000CE0186599F4F0E946314CE018C599F4FB5
:1044B0000E946314CE01825A9F4F0E946314CE0162
:1044C000885A9F4F0E946314CE018E5A9F4F0E94BC
:1044D0006314CE01845B9F4F0E94631468AD79AD75
:1044E00080E090E04AE00E942F0E85EE92E00E946C
:1044F0000D15BE016C5C7F4FCE018E960E94C514D7
:104500008EE692E00E94720E62EF71E085EE92E01C
:104510000E9423156FE385EE92E00E94E314CE0122
:104520008E960E94C90FBE01625D7F4FC8010E9436
:10453000C514B80182EF91E00E94590FC8010E9492
:1045400063148091470290914802A0914902B09172
:104550004A020196A11DB11D809347029093480223
:10456000A0934902B0934A020297A105B10518F041
:1045700081E0809346024BE6E42E46E0F42E5DE6B1
:10458000C52E56E0D52EF7016591749183EC94E029
:104590000E94AB2AF601659174918BEE94E00E9423
:1045A000AB2A6BEE74E083EC94E00E94D50E82306F
:1045B00020F084E080939D0420C081111EC06EE233
:1045C00085EE92E00E9479046AE1B62EBA94BB208F
:1045D000D1F28091010590910205DC01ED91FC91F1
:1045E0000480F581E02D0995892B69F66AE070E079
:1045F00080E090E00E94FC06E9CF80919D04843029
:1046000071F580E692E00E94930E80914B029091AA
:104610004C02A0914D02B0914E020196A11DB11D18
:1046200080934B0290934C02A0934D02B0934E02A4
:104630000E94BE0C80914B0290914C02A0914D02C1
:10464000B0914E024597A105B10510F0F101099511
:1046500068EB7BE080E090E00E94FC0645C285EEBE
:1046600092E00E940D15EFE6F6E06591749183ECFF
:1046700094E00E94AB2A63EC74E080910105909174
:1046800002050E94111583E080939D041092A404FA
:104690000E9436076093A5047093A6048093A70434
:1046A0009093A804E1E7F6E06591749183EC94E0BF
:1046B0000E94AB2AE3E7F6E0659174918BEE94E0FB
:1046C0000E94AB2A6BEE74E083EC94E00E94D50E5E
:1046D000813041F71092A40441E252E064E670E0B8
:1046E00080E090E00E949F0D8DEF93E00E94662A8B
:1046F0007C0140E050E060ED77E080E090E00E94D7
:104700009F0DFFE9EF16F10418F03FE9E32EF12CBD
:10471000F701E350FC4F1082EF2809F4C3CF8091DA
:104720009D04843039F580914B0290914C02A09108
:104730004D02B0914E020196A11DB11D80934B0216
:1047400090934C02A0934D02B0934E020E94BE0C77
:1047500080914B0290914C02A0914D02B0914E027B
:104760004597A105B10508F473CF88E392E00E9454
:10477000930E6CCF8DE292E00E94720E6DEF73E0AB
:1047800085EE92E00E9411156DEF73E0CE018896E0
:104790000E94CE1463E272E0CE0182960E94CE1493
:1047A0008CA59DA50097D9F0029720F022E0E22E7B
:1047B000F12C03C0EE24E394F12CE8A5F9A5EE0D4D
:1047C000FF1DD080108268A579A5CE0182960E9437
:1047D000351488A599A5FC01EE0DFF1DD0828AA194
:1047E0009BA1009719F00E94842A03C060E070E04A
:1047F000CB016130710509F067C063E272E0C80166
:104800000E94CE14ECA4FDA4F3E0EF16F104D0F066
:104810002AE0E216F10418F08AE0E82EF12CE8A56F
:10482000F9A5EE0DFF1DD080108268A579A56E5FF9
:104830007F4FC8010E94351488A599A5FC01EE0D93
:10484000FF1DD08289819A81009729F00E94842AD5
:104850006B017C0103C0C12CD12C7601C701B601CC
:104860000E94C60ED701C6010B97A109B109863770
:104870009145A140B105E8F48091040190910501B2
:10488000A0910601B0910701C816D906EA06FB06F9
:1048900081F08091570281110CC0C0920401D09226
:1048A0000501E0920601F092070188EC90E00E9479
:1048B0005C0D609104017091050180910601909159
:1048C00007010E94C60EB7C06230710579F5CE01AE
:1048D00088960E94A10E84E690E00E94280D65ED66
:1048E00072E0C8010E94CE14B801CE0188960E94E1
:1048F000DB0C882309F49FC082E292E00E94930EB1
:10490000E12CF12CB701CE0188960E942613DC0120
:104910006C91C7018C599F4F0E948C0BBFEFEB1A13
:10492000FB0AEDE0EE16F10469F785C0633071050E
:1049300079F5CE0188960E94A10E88E790E00E944A
:10494000280D65ED72E0C8010E94CE14B801CE01B9
:1049500088960E94DB0C882309F46DC087E192E001
:104960000E94930EE12CF12CB701CE0188960E9493
:104970002613DC016C91C70188589F4F0E948C0B55
:10498000BFEFEB1AFB0AEDE0EE16F10469F753C036
:104990006430710571F5CE0188960E94A10E8CE8F5
:1049A00090E00E94280D65ED72E0C8010E94CE14CF
:1049B000B801CE0188960E94DB0C8823E1F18CE0DF
:1049C00092E00E94930EE12CF12CB701CE01889663
:1049D0000E942613DC016C91C70184579F4F0E94EF
:1049E0008C0BBFEFEB1AFB0AEDE0EE16F10469F752
:1049F00022C06530710541F41A821982B80180EA3B
:104A000090E00E94970C3AC06630710591F5CE0196
:104A100088960E94A10E8CED90E00E94280D65ED15
:104A200072E0C8010E94CE14B801CE0188960E949F
:104A3000DB0C811104C0C8010E9463141FC081E017
:104A400092E00E94930EE12CF12CB701CE018896E2
:104A50000E942613DC016C91C70184529F4F0E9473
:104A60008C0BBFEFEB1AFB0AEDE0EE16F10469F7D1
:104A7000E2CF6730710511F4109257028AEF91E08E
:104A80000E94720E60914702709148028091490223
:104A900090914A024AE00E942F0E80914B02909121
:104AA0004C02A0914D02B0914E02892B8A2B8B2B88
:104AB00079F081EF91E00E94720E60914B0270914B
:104AC0004C0280914D0290914E024AE00E942F0EBE
:104AD00085EE92E00E940D15CE0182960E9463142D
:104AE000CE0188960E946314CE018E960E946314B4
:104AF000CE01C4960E94631440E061E080E00E9411
:104B00008E0B8AE792E00E94720E809123059091AD
:104B10002405009711F489E295E09801281B390BD0
:104B2000C9010E9410110E94360700914F02109196
:104B300050022091510230915202DC01CB01801BC6
:104B4000910BA20BB30B81309C45A642B54010F0EF
:104B5000F101099564EF71E080E090E00E94FC06AD
:104B60000E94E2040C94901D85EE93E00E94631471
:104B70008BEE93E00E94631481EF93E00E94631434
:104B800087EF93E00E9463148BEB94E00E94631420
:104B900085EB94E00E9463148FEA94E00E94631412
:104BA00089EA94E00E9463148EE994E00E94631401
:104BB00088E291E09093040580930305809142027E
:104BC000909143028350954071F4E0911605F09165
:104BD0001705908180911805809589238083109214
:104BE00043021092420208951092E8021092E702E6
:104BF00088EE93E0A0E0B0E08093E9029093EA02AF
:104C0000A093EB02B093EC0228E131E03093E6028E
:104C10002093E50225EC30E03093F2022093F1027C
:104C200024EC30E03093F4022093F30220EC30E0E7
:104C30003093F6022093F50221EC30E03093F80235
:104C40002093F70222EC30E03093FA022093F9022D
:104C500026EC30E03093FC022093FB021092FE021F
:104C60001092FF02109200031092010310920605A9
:104C7000109205058093070590930805A0930905F8
:104C8000B0930A0588E291E09093040580930305B0
:104C900010921A051092190510921C0510921B050E
:104CA00010921E0510921D051092200510921F05EE
:104CB000609121056E7F6D7F60932105669561701F
:104CC00081E0682787E00E94900661E087E00E940B
:104CD000C006E6EAF6E0E491E0931305E2E9F6E0C7
:104CE000E491F0E0EE0FFF1FE958F94F85919491A0
:104CF000909315058093140560E088E00E94C0063B
:104D00008091210581FD04C061E088E00E94900649
:104D100088E080930F05E7EAF6E0E491E093100560
:104D2000E3E9F6E0E491F0E0EE0FFF1FEF57F94FF3
:104D300085919491909312058093110510929D0492
:104D400063E272E08EE994E00E94CE1463E272E0C6
:104D500089EA94E00E94CE1463E272E08FEA94E064
:104D60000E94CE1463E272E085EB94E00E94CE14C0
:104D700063E272E08BEB94E00E94CE141092000587
:104D80001092FF0463E272E087EF93E00E94CE147A
:104D900063E272E081EF93E00E94CE1463E272E07E
:104DA0008BEE93E00E94CE1466E272E085EE93E013
:104DB0000E94CE1460E187ED93E00E947B0961E1DF
:104DC00089EC93E00E947B0964E08BEB93E00E9406
:104DD0007B0926E635E03093BA032093B90387EDCB
:104DE00093E09093AE038093AD031092AC031092C6
:104DF000A80399E09093A90381E08093AA0380938C
:104E0000AB033093A7032093A60349EC53E05093E0
:104E10009B0340939A0310929903109295039093E9
:104E20009603809397038093980330939403209381
:104E300093032BEB33E03093880320938703109286
:104E4000860310928203909383038093840380935C
:104E50008503089597FB072E16F4009407D077FD7D
:104E600009D00E94602707FC05D03EF490958195FB
:104E70009F4F0895709561957F4F0895A1E21A2E76
:104E8000AA1BBB1BFD010DC0AA1FBB1FEE1FFF1FEE
:104E9000A217B307E407F50720F0A21BB30BE40B3E
:104EA000F50B661F771F881F991F1A9469F7609585
:104EB0007095809590959B01AC01BD01CF0108953F
:104EC000AA1BBB1B51E107C0AA1FBB1FA617B70730
:104ED00010F0A61BB70B881F991F5A95A9F780954C
:104EE0009095BC01CD010895EE0FFF1F0590F49140
:104EF000E02D09945058BB27AA270E9492270C94B2
:104F000002300E94F42F38F00E94FB2F20F039F479
:104F10009F3F19F426F40C94F12F0EF4E095E7FB73
:104F20000C94EB2FE92F0E94133058F3BA17620745
:104F300073078407950720F079F4A6F50C943530B3
:104F40000EF4E0950B2EBA2FA02D0B01B9019001A4
:104F50000C01CA01A0011124FF27591B99F0593FE8
:104F600050F4503E68F11A16F040A22F232F342F30
:104F70004427585FF3CF469537952795A795F0407E
:104F80005395C9F77EF41F16BA0B620B730B840B93
:104F9000BAF09150A1F0FF0FBB1F661F771F881F4B
:104FA000C2F70EC0BA0F621F731F841F48F48795A3
:104FB00077956795B795F7959E3F08F0B0CF939595
:104FC000880F08F09927EE0F979587950895A0E030
:104FD000B0E0EDEEF7E20C946130EC01009721F4C3
:104FE000CB010E943529B8C0FC01E60FF71F9C01D8
:104FF00022503109E217F30708F4ACC0D9010D9132
:105000001C91119706171707B0F00530110508F429
:105010009FC0C80104978617970708F499C00250EB
:105020001109061B170B019311936D937C93CF010C
:105030000E94CA298DC05B01A01AB10A4C01800EE2
:10504000911EA0912505B091260540E050E0E12C8D
:10505000F12C109709F44AC0A815B905D1F56D9047
:105060007C901197630182E0C80ED11CCA14DB0446
:1050700080F1A3014A195B096A0182E0C80ED11CC4
:105080001296BC9012971396AC91B5E0CB16D10452
:1050900040F0B282A38351834083D9016D937C9306
:1050A0000AC00E5F1F4FC301800F911FF90191834A
:1050B0008083EB2DFA2FE114F10431F0D701139620
:1050C000FC93EE93129744C0F0932605E0932505D8
:1050D0003FC08D919C9111974817590708F4AC0176
:1050E0007D0112960D90BC91A02DB3CF8091230528
:1050F0009091240588159905E1F446175707C8F4DF
:105100008091080190910901009741F48DB79EB7F5
:1051100040910C0150910D01841B950BE817F90784
:10512000C8F4F0932405E0932305F90171836083AB
:105130000FC0CB010E9435297C01009759F0A801CE
:10514000BE010E94B628CE010E94CA29C70104C030
:10515000CE0102C080E090E0CDB7DEB7EEE00C9467
:105160007D3081E090E0F8940C94A330FB01DC01E9
:1051700002C001900D9241505040D8F70895681731
:10518000790768F4FB01DC01E40FF51FA40FB51FDC
:1051900002C002900E9241505040D8F708950C94EE
:1051A000B628FC018191861721F08823D9F7992729
:1051B00008953197CF010895FB01DC018D91019095
:1051C00080190110D9F3990B0895FB01DC010190BE
:1051D0000D920020E1F70895FB01DC0141505040A1
:1051E00048F001900D920020C9F701C01D92415076
:1051F0005040E0F70895FB0151915523A9F0BF01FC
:10520000DC014D9145174111E1F759F4CD010190B1
:10521000002049F04D9140154111C9F3FB014111A6
:10522000EFCF81E090E001970895EF920F931F93E5
:10523000CF93DF93E80147FD02C034E001C034E1C1
:10524000E42F440FFF0BF7FF03C0F195E195F1093F
:10525000E32E022F2E2FAE010E94212BCE01DF91D3
:10526000CF911F910F91EF900895CF93DF938230EC
:10527000910510F482E090E0E0912505F09126057B
:1052800020E030E0C0E0D0E0309711F14081518162
:1052900048175907C0F04817590761F48281938174
:1052A000209719F09B838A832BC0909326058093C7
:1052B000250526C02115310519F04217530718F4AA
:1052C0009A01BE01DF01EF010280F381E02DDCCF06
:1052D0002115310509F1281B390B2430310590F4D3
:1052E00012968D919C9113976115710521F0FB0128
:1052F0009383828304C09093260580932505FD0146
:10530000329644C0FD01E20FF31F81939193225026
:1053100031092D933C933AC0209123053091240507
:10532000232B41F420910A0130910B013093240585
:1053300020932305209108013091090121153105A1
:1053400041F42DB73EB740910C0150910D01241B43
:10535000350BE0912305F0912405E217F307A0F443
:105360002E1B3F0B2817390778F0AC014E5F5F4FBB
:105370002417350748F04E0F5F1F509324054093C4
:1053800023058193919302C0E0E0F0E0CF01DF912B
:10539000CF9108950F931F93CF93DF93009709F454
:1053A0008CC0FC0132971382128200912505109166
:1053B00026050115110581F420813181820F931F8B
:1053C00020912305309124052817390779F5F093AA
:1053D0002405E093230571C0D80140E050E0AE17EA
:1053E000BF0750F412962D913C911397AD012115F2
:1053F000310509F1D901F3CF9D01DA01338322830D
:1054000060817181860F971F8217930769F4EC0101
:1054100028813981260F371F2E5F3F4F318320832C
:105420008A819B8193838283452B29F4F0932605FF
:10543000E093250542C01396FC93EE931297ED017D
:10544000499159919E01240F351FE217F30771F41A
:1054500080819181840F951F029611969C938E9363
:105460008281938113969C938E931297E0E0F0E0F3
:10547000D80112968D919C911397009719F0F8011D
:105480008C01F6CF8D919C9198012E5F3F4F820F3A
:10549000931F20912305309124052817390769F4BB
:1054A000309729F4109226051092250502C0138228
:1054B00012821093240500932305DF91CF911F9151
:1054C0000F910895662777270C94AF2CFC0188274D
:1054D0009927E89421912032E9F3293010F02E30F9
:1054E000C8F32B3241F02D3239F4689404C00E9485
:1054F000D22A820F911D219120532A30C0F31EF42D
:10550000909581959F4F08951F93FC0199278827B7
:10551000BC01E89411911032E9F3193010F01E30FB
:10552000C8F31B3251F01D3249F4689406C00E9442
:10553000BD2A610F711D811D911D119110531A30EB
:10554000B0F33EF490958095709561957F4F8F4FA5
:105550009F4F1F910895FB01DC0105900D920020E3
:10556000E1F70895BB274A3031F4992322F4BDE2D4
:10557000909581959F4F0C94082B592F482F372FCA
:10558000262F660F771F881F991F660F771F881FAA
:10559000991F620F731F841F951F660F771F881F47
:1055A000991F08957AE0979F902D879F802D910DE8
:1055B00011240895BB27FA01A62F621771058105F2
:1055C0009105330B30FB66F0AA27660F771F881F03
:1055D000991FAA1FA21710F0A21B63953850A9F7B4
:1055E000A05DAA3308F0A95DA19336F7B111B1937C
:1055F0001082CA010C94052F4532510520F4423027
:1056000010F00C94072BFB011082CB010895BB27EF
:10561000FB015527AA27880F991FAA1FA41710F06E
:10562000A41B83955051B9F7A05DAA3308F0A95D7A
:10563000A193009779F7B111B1931192CB010C941A
:10564000052F4F925F926F927F929F92AF92BF927F
:10565000CF92DF92EF92FF920F931F93CF93DF933E
:10566000CDB7DEB729970FB6F894DEBF0FBECDBF1A
:105670006A01122FB02E2BE3201720F0FF24F394A1
:10568000F00E02C0BCE3FB2E0F2D27E0AE014F5FF2
:105690005F4F0E940C2EAC018981982F9970913038
:1056A00031F0E1FC06C0E0FE06C090E205C09DE2DC
:1056B00003C09BE201C090E0EE2DE07183FF3CC08F
:1056C000911102C083E001C084E0811718F4212FFA
:1056D000281B01C020E0E1110BC0F601822F30E24F
:1056E000882319F031938150FBCFC20ED11C20E0EA
:1056F000992329F0D6019C93F60131966F01C601DA
:105700000396E2FE0AC03EE4D6013C9341E41196C2
:105710004C93119712963C9306C03EE6F6013083F7
:1057200041E641833283FC01322F40E2332309F406
:1057300042C041933150FACF82FF44C0911102C060
:1057400083E001C084E0811718F4212F281B01C0D9
:1057500020E0E1110BC0F601822F30E2882319F01E
:1057600031938150FBCFC20ED11C20E0992329F048
:10577000D6019C93F60131966F01C6010396E2FEB5
:105780000BC039E4D6013C933EE411963C9311974B
:1057900036E412963C9307C039E6F60130833EE6C4
:1057A000318336E63283FC01322F40E2332319F095
:1057B00041933150FBCFFC01E20FF11D10828EEFBF
:1057C0009FEFB7C0F1E0911101C0F0E06F2F70E0E2
:1057D0001416150624F49A012F5F3F4F02C021E0F2
:1057E00030E0260F371FBB2029F06B2D70E06F5F74
:1057F0007F4F02C060E070E0260F371F612F70E01E
:10580000261737071CF4121B212F01C020E03E2D64
:10581000387159F4D601322F60E2332319F06D93B9
:105820003150FBCFC20ED11C20E0FF2331F0D60156
:105830009C93B6016F5F7F4F6B01E1110BC0F601C6
:10584000922F30E3992319F031939150FBCFC20E80
:10585000D11C20E09F2D940F3A81782F7071A72ED4
:1058600084FF03C0313309F49150191624F49930A0
:1058700018F098E001C091E0E42F852F57FF02C097
:10588000E0E080E06E2F782FE0E0F0E0AEE29A2ECC
:105890003A01691A71082A01461A570A0B2D10E0BD
:1058A0001195019511096F3F8FEF780729F4D60103
:1058B0009C92C60101966C014617570784F0661644
:1058C00077066CF47F01E40CF51CA1E0B0E0AC0FAE
:1058D000BD1FEA0EFB1ED7011196BC9002C090E3DB
:1058E000B92E615071093196C60101967C0160178D
:1058F000710724F0D601BC926C01D5CF64177507EF
:1059000041F4363320F4353321F4A11002C081E391
:10591000B82EF601B082F701822F90E2882319F0A9
:1059200091938150FBCFF701E20FF11D108280E0CF
:1059300090E029960FB6F894DEBF0FBECDBFDF9181
:10594000CF911F910F91FF90EF90DF90CF90BF907C
:10595000AF909F907F906F905F904F900895A0E0E0
:10596000B0E0E5EBFCE20C946130EC017B016115E9
:10597000710519F0DB018D939C938E010F5F1F4F12
:105980007880872D90E00E94E42E892B11F0E801A9
:10599000F4CFBDE27B1205C00F5F1F4F7980C1E0DD
:1059A00008C0EBE27E1204C08E010E5F1F4F7980AB
:1059B000C0E06801F1E0CF1AD10843E050E06BEBA2
:1059C00076E0C6010E94ED2E892BF1F4680122E0F9
:1059D000C20ED11C45E050E066EB76E0C6010E94A5
:1059E000ED2E892B21F4680187E0C80ED11CE1144B
:1059F000F10419F0D701CD92DC92C111FFC060E033
:105A000070E080E89FE703C143E050E063EB76E09D
:105A1000C6010E94ED2E892B51F4E114F10409F422
:105A2000F2C00E5F1F4FF70111830083ECC06801C5
:105A300060E070E0CB0100E010E0F601D0EDD70DA2
:105A4000DA3058F52C2F2260622E2C2F2870C2FFDE
:105A500005C0211128C00F5F1F4F25C0222311F060
:105A600001501109A5E0B0E09B01AC010E94523049
:105A70004B015C01880C991CAA1CBB1CC501B4011C
:105A80006D0F711D811D911D6839A9E97A078A077B
:105A9000A9E19A0740F0C66005C0DE3F51F4C3FD9E
:105AA00044C0C8606C2EBFEFCB1ADB0A7080C62DD5
:105AB000C4CF2D2F2F7D2531C1F540814D3211F4FA
:105AC000C06106C04B3221F0319621E030E006C0C3
:105AD0003296D60111964C9122E030E0A0EDA40F51
