:100000000C947D040C943A080C9413080C945F0B28
:100010000C945F0B0C945F0B0C94A5040C94A5043A
:100020000C94A5040C94A5040C94A5040C94A504AC
:100030000C94A5040C94A5040C94A5040C94A5049C
:100040000C94C9070C94A5040C94BC060C94960659
:100050000C94A5040C94A5040C94A5040C94A5047C
:100060000C94A5040C94A5044750525320636F6E62
:100070006E656374204F4B212D004661696C656489
:1000800020696E69742047505253000A47505253FA
:1000900020636F6E6E656374204F4B212B004750B9
:1000A000525320636F6E6E656374202E2E00727340
:1000B0007369202E2E000A52656769737465726534
:1000C0006420726F616D696E67000A5265676973BB
:1000D00074657265642028686F6D6529003A200098
:1000E0000A4E6574776F726B207374617475732038
:1000F0000053657474696E67207570206E6574773F
:100100006F726B2E2E2E000A494D45493A004F4B17
:1001100000436F756C646E27742066696E64206D91
:100120006F64756C65204750525300506F7765724D
:100130002053494D383030204F6E00496E69746944
:10014000616C697A696E672E2E2E2E284D6179209A
:1001500074616B6520352D3130207365636F6E647B
:100160007329000A53494D38303020736574757017
:1001700020656E64000A66726565206D656D6F723C
:10018000793A2000534D532064656C6574650049CD
:100190006E74657276616C207365633A00436C65BA
:1001A000617220454550524F4D20456E6400537496
:1001B00061727420636C65617220454550524F4DE9
:1001C000000A4E6F20696E7465726E657420636FED
:1001D0006E6E656374696F6E004552524F52004FE8
:1001E0004B000A2053494D383030207365747570C8
:1001F00020737461727400204572726F72733A00DA
:10020000546F74616C3A006E6F20636F6D70617231
:1002100065006E6F20636F6D70617265006E6F2098
:10022000636F6D70617265006E6F20636F6D7061DA
:100230007265005B5061796C6F61645D2000546889
:1002400065206E756D626572206F662073657276CB
:100250006572206572726F7273206578636565647C
:10026000656420323000436F6E6E65637420657282
:10027000726F720052657175657374696E672000E4
:100280000A66726565206D656D6F72793A20004966
:100290006E74657276616C207365633A00534D53DA
:1002A0002064656C6574650070686F6E65206967B1
:1002B0006E6F72656400534D532063656E747200F7
:1002C000436F6D6D616E64612074656C3200436FC5
:1002D0006D6D616E64612074656C3100534D533AED
:1002E00000556E6B6E6F776E20636F6D6D616E641F
:1002F0000054696D656F666600526573746172744F
:1003000000526573746172740054696D657365742D
:10031000002E2E204F6B21002E2E2066616C7365FF
:10032000210050696E672000005EBCE2613FDD8302
:10033000C29C7E20A3FD1F419DC3217FFCA2401EC5
:100340005F01E3BD3E6082DC237D9FC1421CFEA0B5
:10035000E1BF5D0380DE3C62BEE0025CDF81633DA5
:100360007C22C09E1D43A1FF4618FAA427799BC595
:1003700084DA3866E5BB5907DB856739BAE4065885
:100380001947A5FB7826C49A653BD987045AB8E675
:10039000A7F91B45C6987A24F8A6441A99C7257B65
:1003A0003A6486D85B05E7B98CD2306EEDB3510F55
:1003B0004E10F2AC2F7193CD114FADF3702ECC9245
:1003C000D38D6F31B2EC0E50AFF1134DCE90722C35
:1003D0006D33D18F0C52B0EE326C8ED0530DEFB125
:1003E000F0AE4C1291CF2D73CA947628ABF5174915
:1003F0000856B4EA6937D58B5709EBB536688AD405
:1004000095CB2977F4AA4816E9B7550B88D6346AF4
:100410002B7597C94A14F6A8742AC896154BA9F7E4
:10042000B6E80A54D7896B35000000002400270085
:100430002A0041540041542B434D4744413D22443E
:10044000454C20414C4C220041542B434D47443DE8
:10045000310041542B434D47523D31002B4349500D
:1004600050494E470041542B43495050494E473D57
:10047000220041542B43494653520041542B4349D7
:100480004943520041542B435354543D22696E74E6
:1004900065726E657422004552524F5200435351AB
:1004A0003A200041542B43495053485554000D0AFB
:1004B000004572726F72002B4854545052454144AB
:1004C0003A200041542B4854545052454144003086
:1004D0002C363000302C3230300041542B485454EC
:1004E00050414354494F4E3D300041542B485454E1
:1004F00050504152413D2255524C222C2200415431
:100500002B48545450414354494F4E3D30004154C0
:100510002B48545450504152413D2255524C222CAC
:10052000220041542B48545450504152413D2243E3
:100530004944222C310041542B48545450494E49CF
:10054000540041542B485454505445524D0041548A
:100550002B43495047534D4C4F433D312C310045BF
:1005600052524F520D004F4B0D0041542B434F50F0
:10057000533F0041542B47534E0041542B43504DA1
:10058000533D22534D222C22534D222C22534D22D7
:100590000041542B434D47463D310041542B5341BC
:1005A0005042523D322C310041542B534150425263
:1005B0003D312C310041542B434744434F4E543D71
:1005C000312C224950222C220041542B53415042BD
:1005D000523D332C312C22505744222C22004154BE
:1005E0002B53415042523D332C312C22555345520E
:1005F000222C220041542B53415042523D332C3186
:100600002C2241504E222C2200696E7465726E6558
:10061000742E54454C45322E72750054454C45326B
:10062000004D454741464F4E00696E7465726E65D8
:1006300074004D656761466F6E006265656C696E3A
:100640006500696E7465726E65742E6265656C69AD
:100650006E652E7275004265656C696E65006D741D
:1006600073004D545300696E7465726E65742E6D1F
:1006700074732E72750041542B53415042523D33D6
:100680002C312C22436F6E74797065222C224750D6
:100690005253220041542B43474154543F0041548C
:1006A0002B4353510041542B435245473F00415483
:1006B0002B434E4D493D322C320041542B43534382
:1006C000533D2247534D220041542B434C49503D4A
:1006D000310041542B434D47463D310041542B439B
:1006E00046554E3D310041542B4950523D3139322F
:1006F0003030004154453000000000080002010085
:10070000000304070000000000000000F306E606F6
:10071000DC06D206C806BA06AE06A5069E069406F4
:100720007606660662065E06560642063A063206F9
:10073000290621061B060906F405DE05C905B505CF
:10074000A8059B0591057A0573056A0566055F0591
:100750004E054205360522050E05FE04EA04DA04BC
:10076000D404CF04C304B704B104AE04A3049D04AD
:10077000970484047B04720465045C0452044804F6
:100780003504320400000000250028002B00000082
:1007900000002300260029000404040404040404C7
:1007A000020202020202030303030303010204081C
:1007B00010204080010204081020010204081020CB
:1007C0004E414E494E495459494E46CDCCCC3D0A36
:1007D000D7233C17B7D13877CC2B329595E6241F19
:1007E000B14F0A000020410000C84200401C4620D2
:1007F000BCBE4CCA1B0E5AAEC59D7400407A10F3A5
:100800005A00A0724E18090010A5D4E80000E8763E
:1008100048170000E40B54020000CA9A3B00000095
:10082000E1F505000080969800000040420F0000AE
:1008300000A08601000000102700000000E803006F
:100840000000006400000000000A00000000000139
:1008500000000000002C76D888DC674F0823DFC139
:10086000DFAE59E1B1B796E5E3E453C63AE65199F4
:100870007696E8E6C28426EB898C9B62ED407C6F1D
:10088000FCEFBC9C9F40F2BAA56FA5F490055A2AD4
:10089000F75C936B6CF9676DC11BFCE0E40D47FEE0
:1008A000F520E6B500D0ED902E03009435770500D5
:1008B00080841E080000204E0A000000C80C33335C
:1008C00033330F986E12831141EF8D2114893BE66B
:1008D0005516CFFEE6DB18D1844B381BF77C1D90F4
:1008E0001DA4BBE424203284725E228100C9F1245D
:1008F000ECA1E53D2700B727772711241FBECFEFD6
:10090000D8E0DEBFCDBF12E0A0E0B1E0E8EFF4E652
:1009100002C005900D92A03BB107D9F725E0A0EBEE
:10092000B2E001C01D92A835B207E1F714E0CCE7B0
:10093000D4E004C02197FE010E943729CB37D107AC
:10094000C9F70E9472170C946F320C940000FC01DE
:10095000918D828D981761F0828DDF01A80FB11DF6
:100960005D968C91928D9F5F9F73928F90E008951A
:100970008FEF9FEF0895FC01918D828D981731F0D4
:10098000828DE80FF11D858D90E008958FEF9FEF28
:100990000895FC01918D228D892F90E0805C9F4FFE
:1009A000821B91098F73992708958DE293E00E942D
:1009B000C90421E0892B09F420E0822F0895FC016D
:1009C000848DDF01A80FB11DA35ABF4F2C91848DD8
:1009D00090E001968F739927848FA689B7892C930D
:1009E000A089B1898C9180648C93938D848D9813A8
:1009F00006C00288F389E02D80818F7D8083089571
:100A0000EF92FF920F931F93CF93DF93EC0181E05E
:100A1000888F9B8D8C8D981305C0E889F98980811A
:100A200085FD24C0F62E0B8D10E00F5F1F4F0F7356
:100A30001127E02E8C8DE8120CC00FB607FCFACF00
:100A4000E889F989808185FFF5CFCE010E94DF0416
:100A5000F1CF8B8DFE01E80FF11DE35AFF4FF082BD
:100A60000B8FEA89FB898081806207C0EE89FF894C
:100A70006083E889F98980818064808381E090E0E7
:100A8000DF91CF911F910F91FF90EF900895CF9339
:100A9000DF93EC01888D8823C9F0EA89FB89808186
:100AA00085FD05C0A889B9898C9186FD0FC00FB658
:100AB00007FCF5CF808185FFF2CFA889B9898C9199
:100AC00085FFEDCFCE010E94DF04E7CFDF91CF910C
:100AD000089580E090E0892B29F00E94D5048111CF
:100AE0000C94000008953FB7F894809119039091F9
:100AF0001A03A0911B03B0911C0326B5A89B05C047
:100B00002F3F19F00196A11DB11D3FBFBA2FA92F8C
:100B1000982F8827820F911DA11DB11DBC01CD0109
:100B200042E0660F771F881F991F4A95D1F70895F5
:100B300008950895FC0190810180F281E02DF894E0
:100B40008181892B81832281892F8095282322838B
:100B5000A7E0B0E01197F1F7218182238183A3E21E
:100B6000B0E01197F1F780817894EFECF0E03197E5
:100B7000F1F7982381E009F480E00895FC01908169
:100B80000180F281E02D892F809560FF12C0F894DA
:100B90002281822382838181892B8183A3E2B0E039
:100BA0001197F1F78281982B9283789487ED90E0EA
:100BB00011C0F8942281822382838181892B8183D1
:100BC000AFEFB0E01197F1F78281982B9283789480
:100BD0008FE090E00197F1F7089508952091B20217
:100BE0003091B3022817390771F49091B0028091C7
:100BF000B102981741F0E091B002F0E0EC52FD4FE5
:100C0000808190E008958FEF9FEF089508951F93DE
:100C1000CF93DF93DC015C962D913C915D9721157C
:100C2000310539F481E090E013969C938E931297EE
:100C30003DC05196ED91FC91529750969C915097E2
:100C4000892F80951FB75E964C915E9741FB772761
:100C500070F941FD6095F8944081772311F0492B9C
:100C600001C048234083E9012197F1F748E0508112
:100C700060FF02C0592B01C058235083E90121971E
:100C8000F1F76695415099F7772321F090818923F8
:100C9000808303C08081982B90831FBF5C968D91C9
:100CA0009C915D970197F1F721E030E0C901DF9158
:100CB000CF911F9108952091B2023091B30228176D
:100CC000390771F48091B1022091B00290E0805C0C
:100CD0009F4F821B910960E470E00E94ED28089507
:100CE00080E090E008952091B2023091B30228177D
:100CF0003907B9F49091B0028091B102981789F048
:100D0000E091B002F0E0EC52FD4F80812091B00202
:100D100030E02F5F3F4F2F7333272093B00290E0D6
:100D200008958FEF9FEF08950E94742A1F920F92EB
:100D30000FB60F9211242F933F934F935F936F93AE
:100D40007F938F939F93AF93BF93EF93FF938DE226
:100D500093E00E94DF04FF91EF91BF91AF919F91CB
:100D60008F917F916F915F914F913F912F910F9054
:100D70000FBE0F901F9018951F920F920FB60F92F3
:100D800011242F938F939F93EF93FF93E0913D0353
:100D9000F0913E038081E0914303F091440382FD92
:100DA00012C09081809146038F5F8F73209147031B
:100DB000821751F0E0914603F0E0E35DFC4F958F20
:100DC0008093460301C08081FF91EF919F918F91A5
:100DD0002F910F900FBE0F901F901895833081F0C8
:100DE00028F4813099F08230A1F008958730A9F07D
:100DF0008830B9F08430D1F4809180008F7D03C0B9
:100E0000809180008F7780938000089584B58F77DC
:100E100002C084B58F7D84BD08958091B0008F7726
:100E200003C08091B0008F7D8093B00008951F9320
:100E3000CF93DF93282F30E0F901E850F94F8491E8
:100E4000F901E455F84FD491F901E856F84FC491EF
:100E5000CC23C9F0162F81110E94EE06EC2FF0E092
:100E6000EE0FFF1FEC57F84FA591B4918FB7F89490
:100E7000111105C09C91ED2FE095E92302C0EC9182
:100E8000ED2BEC938FBFDF91CF911F910895CF93FE
:100E9000DF9390E0FC01E455F84F2491FC01E85603
:100EA000F84F8491882361F190E0880F991FFC012D
:100EB000E85DFB4FC591D491FC01EC57F84FA5912B
:100EC000B491611109C09FB7F8948881209582235D
:100ED0008883EC912E230BC0623061F49FB7F894A5
:100EE0003881822F809583238883EC912E2B2C933D
:100EF0009FBF06C08FB7F894E8812E2B28838FBF41
:100F0000DF91CF9108958F929F92AF92BF92CF922F
:100F1000DF92EF92FF926B017C010E9473054B01FF
:100F20005C01C114D104E104F104F1F00E947305E5
:100F3000DC01CB0188199909AA09BB09883E9340B5
:100F4000A105B10570F321E0C21AD108E108F1084A
:100F500088EE880E83E0981EA11CB11CC114D10438
:100F6000E104F10419F7DDCFFF90EF90DF90CF900F
:100F7000BF90AF909F908F9008952FB7F894609195
:100F800015037091160380911703909118032FBFDA
:100F900008951F920F920FB60F9211242F933F9333
:100FA0008F939F93AF93BF938091150390911603F6
:100FB000A0911703B09118033091140323E0230F7D
:100FC0002D3720F40196A11DB11D05C026E8230F81
:100FD0000296A11DB11D20931403809315039093D5
:100FE0001603A0931703B0931803809119039091EF
:100FF0001A03A0911B03B0911C030196A11DB11D02
:101000008093190390931A03A0931B03B0931C03BE
:10101000BF91AF919F918F913F912F910F900FBEF4
:101020000F901F9018951F920F920FB60F921124D8
:101030002F933F934F935F936F937F938F939F93E0
:10104000AF93BF93EF93FF93E0910201F0910301FF
:101050000995FF91EF91BF91AF919F918F917F91F2
:101060006F915F914F913F912F910F900FBE0F9015
:101070001F9018951F920F920FB60F9211242F9365
:101080003F934F935F936F937F938F939F93AF9310
:10109000BF93EF93FF93E0910001F0910101099557
:1010A000FF91EF91BF91AF919F918F917F916F9140
:1010B0005F914F913F912F910F900FBE0F901F9016
:1010C0001895DC01E0E0615038F08D91E827F0E000
:1010D000E85DFC4FE491F7CF8E2F0895CF92DF9219
:1010E000EF92FF920F931F93CF93DF931F92CDB791
:1010F000DEB76C01E62E08E010E0FF24F39461E017
:101100008F2D8E2109F460E0C60149830E94BE053F
:10111000FF0C0150110949810115110581F7411199
:1011200015C0F894D6011196ED91FC91129791811A
:101130008C918095892381831196ED91FC91129772
:1011400092818C9180958923828378940F90DF918E
:10115000CF911F910F91FF90EF90DF90CF90089566
:10116000CF92DF92EF92FF920F931F93CF93DF9373
:101170001F92CDB7DEB78C01F62E40E065E579838E
:101180000E946E08CF2C7981D72E760188E0E80E78
:10119000F11CF60161916F0140E0C8010E946E08E8
:1011A000CE14DF04B1F70F90DF91CF911F910F9113
:1011B000FF90EF90DF90CF900895FC019081018027
:1011C000F281E02DF8948181292F2095822381835B
:1011D00078948DE743E050E0815021F1DA011197D6
:1011E000F1F730813923C1F3F8948281822382831D
:1011F0008181892B81837894ABE7B7E01197F1F770
:10120000F894818128232183A3E1B1E01197F1F7BC
:101210008081982381E009F080E07894E3E6F6E0AD
:101220003197F1F70895AF92BF92CF92DF92EF928C
:10123000FF920F931F93CF93DF931F92CDB7DEB72B
:101240005C01E62ED72EFC01858581115DC0C501AC
:101250000E94DD08811105C0F501138615861486EC
:101260006BC040E060EFC5010E946E0801E0F12C08
:10127000C12C11E0C5010E949A05682FC501698340
:101280000E949A056981613019F48130B9F433C044
:101290004F2D50E068131BC0F5018385181730F4FB
:1012A000E40FF51F8381802349F402C0181731F041
:1012B00060E0193058F4F501148708C0F501EF0D0E
:1012C000F11D8381802B838361E009C0C12EF5016C
:1012D000E40FF51F9381802F809589238383C501B7
:1012E0000E94BE051F5F000F11F4F39401E0F7E0C8
:1012F000FF1508F0BFCF113438F0F501C386C110D7
:1013000015C081E0858712C0F50113861586148605
:1013100080E0D5011396EE2DFD2D9501255F3F4F01
:101320009D919193A217B307D9F706C0F501838168
:10133000882351F381E0EDCF0F90DF91CF911F9182
:101340000F91FF90EF90DF90CF90BF90AF900895F6
:101350006F927F928F929F92AF92BF92CF92DF92C5
:10136000EF92FF920F931F93CF93DF931F92CDB70E
:10137000DEB78C01F42EFC018581968159830E9491
:10138000B00840E06EEBF801858196810E946E08FE
:101390006F2C5981752E5301F9E0AF0EB11CF80185
:1013A0008580968088E0C82ED12CEE24E394F12C21
:1013B000C4010E949A058111FE28EE0CF1E0CF1ABB
:1013C000D108B1F7F301F1923F01EA15FB0539F7B6
:1013D000F801858196810E94DD0891E0813009F055
:1013E00090E0892F0F90DF91CF911F910F91FF9087
:1013F000EF90DF90CF90BF90AF909F908F907F90B5
:101400006F9008950F931F93CF93DF93EC01162FE6
:1014100060E0812F0E944707612F70E0FB01E455D7
:10142000F84FE491E883FB01E856F84FE491F0E0CF
:10143000EE0FFF1FE257F84F859194919A838983AD
:101440001B861D861C86FE013B968E010D5F1F4F7D
:101450001292E017F107E1F7DF91CF911F910F9101
:101460000895CF93DF93EC018D819E810E94DD086A
:1014700040E06CEC8D819E810E946E08488164E49E
:101480008D819E810E946E088A818823B1F0E98156
:10149000E950E33040F4F0E0EE0FFF1FE25FFE4F53
:1014A0006081718102C06EEE72E0072E000C880B25
:1014B000990BDF91CF910C948307DF91CF91089521
:1014C000EF92FF920F931F93CF93DF9300D0CDB78E
:1014D000DEB78C017A01FC018581968169837A836C
:1014E0000E94DD0869817A81882371F0A701C80113
:1014F0000E94A809882341F068E0C7010E946108A2
:1015000091E0F7012085821390E0892F0F900F90D2
:10151000DF91CF911F910F91FF90EF900895CF939E
:10152000DF93CDB7DEB729970FB6F894DEBF0FBEB5
:10153000CDBFFB0120812031D1F0AE014F5F5F4F65
:101540000E94600A882389F08D818F3361F020F436
:101550008F3159F489E00CC08F3519F08F3739F08D
:1015600004C08BE005C08AE003C080E001C08CE0CD
:1015700029960FB6F894DEBF0FBECDBFDF91CF9195
:101580000895EF92FF920F931F93CF93DF93CDB700
:10159000DEB761970FB6F894DEBF0FBECDBF8C01EA
:1015A000DC011596ED91FC9116971386158614862D
:1015B000DF011B9633961E92AE17BF07E1F7F801C5
:1015C0001482FF24F394BE01665F7F4FF80185818A
:1015D00096810E941309882309F464C067E0CE0154
:1015E0000A960E94610899898913EDCFD8018C91E0
:1015F000811126C015968D919C9116970E94DD0849
:10160000BE01665F7F4FF801858196810E94B00818
:1016100040E064EBD80115968D919C9116970E943D
:101620006E08F801858196810E949A05E82ED801FE
:1016300015968D919C9116970E94DD08EE2079F108
:10164000F801858196810E94DD08882349F0AE016A
:101650004F5F5F4FBE01665F7F4FC8010E94A809C0
:10166000D8011196EC90BE01665F7F4FC8010E94C1
:101670008F0A8E1518F4F801818106C0BE01665FDD
:101680007F4FC8010E948F0AD80111968C93119741
:1016900014968C9114978F5F14968C9394CFD801E5
:1016A000FC92CECF61960FB6F894DEBF0FBECDBFD1
:1016B000DF91CF911F910F91FF90EF9008951F92AE
:1016C0000F920FB60F9211242F933F934F935F9376
:1016D0006F937F938F939F93AF93BF93EF93FF93FA
:1016E000E091B202F091B302309709F451C0968DA7
:1016F000A685B785858591FF04C09C91892329F42F
:1017000047C09C91892309F043C0A389B4899C9167
:101710008589809589238C93868997890197F1F72C
:10172000608D718DA685B785558538E020E0CB01A9
:101730000197F1F7822F90E095958795282F4C918E
:10174000452309F02068315091F7868D81FD209561
:101750008091B10290E001968F7399273091B00289
:10176000381749F0A091B102B0E0AC52BD4F2C93B4
:101770008093B10203C0868D8160868F828D938DA8
:101780000197F1F7A389B4899C918589892B8C9362
:10179000FF91EF91BF91AF919F918F917F916F9149
:1017A0005F914F913F912F910F900FBE0F901F901F
:1017B0001895CF92DF92EF92FF920F931F93CF93E2
:1017C000DF93EB017B012DE0E20EF11C8B016C013C
:1017D000C61AD70AC601800F911F0E940832F8016D
:1017E00081938F01EE15FF05A9F7CE01DF91CF910F
:1017F0001F910F91FF90EF90DF90CF9008950F937E
:101800001F93CF93DF938C01EB010E9408328883F2
:10181000C80101960E9408328983CE01DF91CF91E1
:101820001F910F9108950C941032CF93DF93C0E075
:10183000D0E082E293E00E94FD0E67E272E08DE26A
:1018400093E00E94701740E050E068EE73E085E39B
:1018500092E00E941A1068EE73E080E090E00E942F
:10186000830740E050E068EE73E08FE392E00E946F
:101870001A1068EE73E080E090E00E94830740E079
:1018800050E068EE73E082E592E00E941A1068EE84
:1018900073E080E090E00E94830740E050E068EB56
:1018A0007BE08BE592E00E941A1068EE73E080E026
:1018B00090E00E94830764E672E080913005909189
:1018C00031050E94701767E272E0809130059091B7
:1018D00031050E94701780913005909131050E946A
:1018E000071028EB3BE043EA51E061E772E080E05B
:1018F00090E00E947E0F813091F088E193E00E9499
:101900001E0F2196C630D1051CF0E0E0F0E00995ED
:1019100068EE73E080E090E00E9483078ACF81E167
:1019200093E0DF91CF910C941E0FCF92DF92EF9254
:10193000FF920F931F93CF93DF9300D000D000D07E
:10194000CDB7DEB78C017B011A8219821C821B8203
:101950001E821D8269E073E0CE0101960E945A1634
:10196000BE016F5F7F4FC8010E9431156C01CE012F
:1019700001960E94B016D7FC16C088E290E0A0E065
:10198000B0E08093040190930501A0930601B09309
:10199000070181E08093B60268E270E080E090E0A9
:1019A0000E946F0F52C01A8219821C821B821E82F3
:1019B0001D8261E073E0CE0101960E945A16BE01BD
:1019C0006F5F7F4FC8010E9431156C01CE010196F7
:1019D0000E94B016D7FC19C0B7018DE293E00E94B7
:1019E00037176AE772E08DE293E00E94701789EF83
:1019F00092E00E941E0F68EE73E080E090E00E948B
:101A00008307E0E0F0E0099520C01A8219821C8269
:101A10001B821E821D8261EF72E0CE0101960E9440
:101A20005A16BE016F5F7F4FC8010E9431158C01AD
:101A3000CE0101960E94B01617FD03C01092B602A7
:101A400004C081EE92E00E941E0F26960FB6F89415
:101A5000DEBF0FBECDBFDF91CF911F910F91FF90E1
:101A6000EF90DF90CF9008951F93CF93DF931F9255
:101A7000CDB7DEB7162F682F8AE049830E9417077B
:101A8000612F8EE00E9417074981642F8FE00F902D
:101A9000DF91CF911F910C9417070F931F930E9412
:101AA000BD070091D0021091D1022091D202309155
:101AB000D3029B01201B310B3093CF022093CE0227
:101AC0006093D0027093D1028093D2029093D3029C
:101AD0008091CE029091CF02803F9B403CF080915C
:101AE000CE029091CF028E3F9B4084F08091CE0237
:101AF0009091CF028835934014F18091CE0290915D
:101B0000CF02863693400CF479C019C082E090E091
:101B10009093B5028093B4028091CC029091CD0253
:101B200001969093CD028093CC028091CC0290914B
:101B3000CD02459764F0E0E0F0E0099508C080919F
:101B4000CE029091CF028F3591400CF048C0809129
:101B5000B4029091B5020197E1F42091C80230914E
:101B6000C90281E090E0232B11F080E090E0909397
:101B7000C9028093C8028091C8029091C90240E0D6
:101B8000892B19F460E081E002C061E080E00E94EE
:101B9000340D8091B4029091B502029709F046C0CD
:101BA0002091C8023091C90281E090E0232B11F00E
:101BB00080E090E09093C9028093C8028091C802AF
:101BC0009091C902892B21F440E060E081E003C0DC
:101BD00041E060E080E01F910F910C94340D809102
:101BE000CE029091CF02823791400CF0B0CF83E0CB
:101BF00090E09093B5028093B402A9CF81E090E089
:101C00009093B5028093B4028091CA029091CB0266
:101C100001969093CB028093CA028091CA02909160
:101C2000CB02893791050CF492CF85CF1F910F918C
:101C30000895EF92FF920F931F93CF93DF931F921C
:101C4000CDB7DEB77C01FC0100811181C801698339
:101C50000E9408326981681719F0C8010E94103289
:101C6000C7010F90DF91CF911F910F91FF90EF90DF
:101C70000895AF92BF92CF92DF92EF92FF920F93AF
:101C80001F93CF93DF9300D0CDB7DEB78B016B01ED
:101C90002DE0C20ED11C7B015C01A61AB70A95018A
:101CA0002E0D3F1DF70161917F013A832983CE01FB
:101CB00001960E94190EEC14FD0489F7C8010F90DB
:101CC0000F90DF91CF911F910F91FF90EF90DF90D8
:101CD000CF90BF90AF900895EF92FF920F931F9314
:101CE000CF93DF9300D0CDB7DEB78C017B01FB0132
:101CF00060819A838983CE0101960E94190EF701B3
:101D000061810F5F1F4F1A830983CE0101960E94E4
:101D1000190EC7010F900F90DF91CF911F910F9176
:101D2000FF90EF900895CF93DF9300D0CDB7DEB74B
:101D3000BE016F5F7F4F80EA90E00E94FF0B8981B8
:101D40009A8101969A838983BE016F5F7F4F80EAF3
:101D500090E00E946C0E0F900F90DF91CF9108954C
:101D6000FC0124813581FB0144815581241735070D
:101D700021F5FC0180819181FB01608171810097D7
:101D800019F061157105A1F46115710549F0232B56
:101D9000B1F0FB01808190E09195819591090AC095
:101DA000009769F0232B59F0FC01808190E002C07C
:101DB0000E949F2A21E0892B19F020E001C021E038
:101DC00081E0822708958091300590913105DC01F2
:101DD000ED91FC910480F581E02D0995892B61F04E
:101DE0008091300590913105DC01ED91FC910680E8
:101DF000F781E02D0995E7CF08950F931F93CF93B7
:101E0000DF938C01C0E0D0E0F801EC0FFD1F64917E
:101E1000662371F0E0912D03F0912E030190F08183
:101E2000E02D8DE293E00995892B11F02196ECCFFE
:101E3000CE01DF91CF911F910F910895CF93DF9342
:101E40000E94FD0EEC018DE293E00E945A178C0F68
:101E50009D1FDF91CF9108958F929F92AF92BF9275
:101E60000F931F93CF93DF93CDB7DEB7A1970FB634
:101E7000F894DEBF0FBECDBF19A2423008F44AE08D
:101E80008E010F5D1F4F842E912CA12CB12CA5012A
:101E900094010E940129E62FB901CA0101501109DC
:101EA000EA3014F4E05D01C0E95CD801EC93232B27
:101EB000242B252B61F7B8018DE293E00E94451792
:101EC000A1960FB6F894DEBF0FBECDBFDF91CF91C4
:101ED0001F910F91BF90AF909F908F900895CF93D7
:101EE000DF934AE00E942C0FEC018DE293E00E9408
:101EF0005A178C0F9D1FDF91CF9108954F925F92DB
:101F00006F927F929F92AF92BF92CF92DF92EF92A9
:101F1000FF920F931F93CF93DF93EC018B015A0134
:101F20006901892B49F00E94E30EBE0180913005C2
:101F3000909131050E945E170E94BD072B013C0164
:101F4000C0E0D5E4E12CF12C809130059091310571
:101F5000DC01ED91FC910480F581E02D0995892B40
:101F600099F18091300590913105DC01ED91FC9162
:101F70000680F781E02D0995CB3850F0EBE8F4E0CE
:101F8000A5E4B4E09D2F01900D929A95E1F7C5E488
:101F9000992493949C0EEC2FF0E0EB5BFB4F808335
:101FA000E92DF0E0EB5BFB4F1082B80185E494E093
:101FB0000E94BE2A892BC1F4B50185E494E00E94F9
:101FC000BE2A892B99F4C92D0E94BD07DC01CB01E3
:101FD00084199509A609B7098C159D05AE05BF059D
:101FE00008F4B2CF80E003C081E001C082E0DF915D
:101FF000CF911F910F91FF90EF90DF90CF90BF9006
:10200000AF909F907F906F905F904F9008950F9347
:102010001F93CF93DF93EC0162E20E9430178C0193
:10202000CE010E945A17800F911FDF91CF911F910F
:102030000F9108957F928F929F92AF92BF92CF920D
:10204000DF92EF92FF920F931F93CF93DF938C0158
:102050006B01EA01892B49F00E94E30EB8018091DF
:102060003005909131050E945E170E94BD074B011B
:102070005C0100E015E4E12CF12C80913005909199
:102080003105DC01ED91FC910480F581E02D09958D
:10209000892B89F18091300590913105DC01ED911A
:1020A000FC910680F781E02D09950B3850F0EBE8A4
:1020B000F4E0A5E4B4E0912F01900D929A95E1F738
:1020C00005E477247394700EE02FF0E0EB5BFB4F98
:1020D0008083E72DF0E0EB5BFB4F1082209711F03F
:1020E000BE0102C061E471E085E494E00E94BE2A72
:1020F000892B89F4072D0E94BD07DC01CB018819CB
:102100009909AA09BB098C159D05AE05BF0508F400
:10211000B4CF80E001C0872DDF91CF911F910F9147
:10212000FF90EF90DF90CF90BF90AF909F908F90F7
:102130007F9008950F931F93CF93DF93C9E3D4E06B
:102140008C0109531440C8018C0F9D1F0E94083256
:10215000899384E0CF33D807B1F789E394E0DF9126
:10216000CF911F910F9108950F931F93CF93DF93FA
:10217000CDE1D3E08C010D511340C8018C0F9D1FA0
:102180000E940832899383E0CD32D807B1F78DE100
:1021900093E0DF91CF911F910F9108950F931F93BB
:1021A000CF93DF93C4E0D1E08C0104501140C8010B
:1021B0008C0F9D1F0E940832899381E0C830D80798
:1021C000B1F784E091E0DF91CF911F910F910895D5
:1021D000EF92FF920F931F93CF93DF9300D0CDB771
:1021E000DEB704E011E0845091407C019701200F9C
:1021F000311FF80161918F013A832983CE01019645
:102200000E94190EF1E008301F0781F784E091E089
:102210000F900F90DF91CF911F910F91FF90EF9052
:102220000895CF93DF93FC014481558141155105F9
:10223000D1F04230510518F461E070E002C062E074
:1022400070E0EC0188819981461B570B5D834C83BC
:10225000680F791F0E94AF2AE881F9818C819D81E6
:10226000E80FF91F1082DF91CF910895FF920F932D
:102270001F93CF93DF938C01EB0185E4F82E8091BF
:10228000300590913105DC01ED91FC910480F581E0
:10229000E02D0995892BD9F1809130059091310578
:1022A000DC01ED91FC910680F781E02D099590917C
:1022B000D8049B3858F0F092D804EBE8F4E0A5E499
:1022C000B4E09F2D01900D929A95E1F7A091D8046A
:1022D000E1E0EA0FE093D804B0E0AB5BBB4F8C9336
:1022E000F0E0EB5BFB4F1082B80185E494E00E94C4
:1022F000BE2A892B19F5209711F2BE0185E494E0DE
:102300000E94BE2A892B09F4BACF82E01AC00E942B
:10231000BD070091D9041091DA042091DB043091BB
:10232000DC04DC01CB01801B910BA20BB30B8031D1
:102330009742A105B10520F083E003C081E001C010
:1023400080E0DF91CF911F910F91FF9008950F933F
:102350001F93CF93DF938C01EB01ECE5F7E06591E0
:10236000749187EF94E00E946E2C67EF74E0809187
:102370003005909131050E947017B80180913005A9
:10238000909131050E94701788819981892BD1F530
:1023900080913005909131050E94071064EF71E043
:1023A00080E090E00E94830740E050E060ED77E03D
:1023B00080E090E00E941A10882301F1EEE5F7E03A
:1023C0006591749187EF94E00E946E2C67EF74E042
:1023D00080913005909131050E945E1782E08093D4
:1023E000D1041092D8040E94BD076093D904709361
:1023F000DA048093DB049093DC0413C084E08093C0
:10240000D1040FC06FE380913005909131050E9497
:102410003017BE0180913005909131050E94371729
:10242000B7CF80E0DF91CF911F910F910895CF93A7
:10243000DF93BC018DE293E00E943717EC018DE23F
:1024400093E00E945A178C0F9D1FDF91CF91089542
:10245000ECE1F7E06591749187EF94E00E946E2CB7
:1024600040E050E060ED77E087EF94E00E941A10C2
:102470006DE872E085E494E00E94BE2A009759F06E
:1024800005960E94292C8336910529F08F3F2FEF66
:10249000920709F0089580E090E00895CF93DF93CC
:1024A000EB01DC011596ED91FC91169713861586CC
:1024B0001486DF011B9633961E92AE17BF07E1F715
:1024C000BE01FC01858196810E941309882349F091
:1024D00067E0CE010E9461089F81891302C081E0FC
:1024E00001C080E0DF91CF9108950F931F93CF93A8
:1024F000DF93CDB7DEB761970FB6F894DEBF0FBE9E
:10250000CDBF8C01BE01665F7F4F0E944E128111CC
:1025100005C060E070E08EEF92EC4BC0AE014F5F03
:102520005F4FBE01665F7F4FC8010E94600A88232B
:1025300059F1698148E0649FB00111248A81282FF4
:1025400030E0322F2227330F330F330F262B372B58
:102550008A858031E1F4688570E08F81AB01481B8A
:102560005109CA019695982F8827979587950E94BB
:10257000ED2860517109207F53E0220F331F5A95D7
:10258000E1F7620F731F04C060E874EE01C0B90187
:10259000613854EE75070CF4BCCF072E000C880B85
:1025A000990B0E94E83020E030E040E05CE30E94BC
:1025B000473161960FB6F894DEBF0FBECDBFDF91F5
:1025C000CF911F910F910895CF92DF92EF92FF92DA
:1025D000CF93DF936C01990FEE08FF08F7FE14C04C
:1025E0006DE28DE293E00E943017EC0166277727B9
:1025F000CB016C197D098E099F094AE00E942C0FBE
:102600007C01EC0EFD1E06C04AE0C701B6010E9427
:102610002C0F7C018DE293E00E945A178E0D9F1DB6
:10262000DF91CF91FF90EF90DF90CF900895CF93FF
:10263000DF93E1E0F7E08491E5EBF7E0D491E1EAA4
:10264000F7E0C491CC2391F081110E94EE06EC2FAB
:10265000F0E0EE0FFF1FE257F84FA591B491EC9117
:10266000ED2381E090E021F480E002C080E090E082
:10267000DF91CF910895CF93DF93EC0120ED37E008
:1026800043EA51E069EA71E080EB91E00E947E0F3D
:10269000813011F080E019C040E050E060ED77E05B
:1026A00080E090E00E941A108823A1F340E050E0FF
:1026B00060ED77E01C161D061CF482E992E002C072
:1026C0008CE992E00E941A1081E0DF91CF91089589
:1026D000DF92EF92FF920F931F93CF93DF93CDB7CB
:1026E000DEB729970FB6F894DEBF0FBECDBF8C01C1
:1026F0007B01AE014F5F5F4F0E94600AD82E882396
:1027000009F459C0F7018081803109F454C08FE782
:102710008D83F801858196810E94DD08B701F8015B
:10272000858196810E94B00840E06EE4F8018581C1
:1027300096810E946E0840E06B81F8018581968148
:102740000E946E0840E06C81F801858196810E94AC
:102750006E08F7018081803139F040E06D81F80129
:10276000858196810E946E08F801858196810E947C
:10277000DD08B701F801858196810E94B008F80153
:10278000408168E4858196810E946E0864E170E072
:1027900080E090E00E948307F8018081882331F077
:1027A0006AE070E080E090E00E948307F801858194
:1027B00096810E94DD088D2D29960FB6F894DEBF14
:1027C0000FBECDBFDF91CF911F910F91FF90EF9082
:1027D000DF9008952F923F924F925F926F927F9277
:1027E0008F929F92AF92BF92CF92DF92EF92FF9221
:1027F0000F931F93CF93DF9300D000D0CDB7DEB7F8
:10280000FC01448055804114510409F413C1FB01BB
:10281000648075806114710409F40CC17A016B0144
:102820009C838B83FA01A480B580A618B708FC01AD
:1028300000811181A114B104C1F4F601608171819C
:10284000C8010E94BE2A5C01892B09F4F3C0F7017C
:102850006081718144815581C5010E94792AF70107
:10286000048115810A0D1B1DE8CFB7FE02C0480187
:1028700006C0FB01208031804201C80148C0F6013A
:1028800060817181C4010E94BE2A2C01892B29F12B
:10289000320168187908A301B401C8010E94792A9D
:1028A000060D171DF7016081718144815581C801B2
:1028B0000E94792AF70184819581080F191FF6017A
:1028C00084809580840C951CEB81FC8184819581AA
:1028D0008A0D9B1D95838483D2CFB401C8010F90CC
:1028E0000F900F900F90DF91CF911F910F91FF905C
:1028F000EF90DF90CF90BF90AF909F908F907F90A0
:102900006F905F904F903F902F900C94A82AB10148
:102910000E94BE2A009729F0860D971D8A0C9B1CE9
:10292000F6CF8414950409F485C0EB81FC81828183
:1029300093818815990578F4B4016F5F7F4FC801C2
:102940000E94AA29009709F475C0EB81FC8191834C
:10295000808393828282EB81FC8104811581015006
:10296000110917FD67C0F601248035802114310458
:1029700009F460C0EB81FC8164807580611471048E
:1029800009F458C06214730408F454C006151705FE
:1029900018F0830101501109EB81FC8140805180C6
:1029A000C20188248A94982C9201200F311F281785
:1029B000390758F0F6016081718129833A830E94BA
:1029C000BE2A29813A81009761F597FC33C0280C13
:1029D000391CC201820D931DA30142195309BC0188
:1029E0008A0D9B1D0E94822AEB81FC818481958146
:1029F0008A0D9B1D9583848320813181F901E80F25
:102A0000F91F1082EB81FC8180819181F701608147
:102A1000718144815581880D991D0E94792A840114
:102A20009ECFAC01441955090417150708F04A0157
:102A30000196BDCF0F900F900F900F90DF91CF9127
:102A40001F910F91FF90EF90DF90CF90BF90AF90CC
:102A50009F908F907F906F905F904F903F902F90BE
:102A60000895CF93DF93FC0124813581232B71F0EE
:102A7000FB01DC01CD91DC9160817181CE010E946E
:102A8000BE2A009719F08C1B9D0B02C08FEF9FEFA1
:102A9000DF91CF910895FC0124813581621773077E
:102AA00020F480819181009729F41092510581E5ED
:102AB00095E00895860F971F0895CF92DF92EF92C9
:102AC000FF920F931F93CF93DF936C017A018B01D9
:102AD000C0E0D0E0CE15DF0589F0D8016D918D0101
:102AE000D601ED91FC910190F081E02DC601099590
:102AF000892B11F47E0102C02196ECCFC701DF9132
:102B0000CF911F910F91FF90EF90DF90CF9008959C
:102B10000F931F93CF93DF93EC01888199810097E6
:102B200029F02A813B812617370788F48B016F5FD4
:102B30007F4F0E94AA29009761F0998388831B83A5
:102B40000A832C813D81232B11F4FC01108281E04A
:102B500001C080E0DF91CF911F910F910895CF9335
:102B6000DF93EC0188819981009711F00E948D2BF1
:102B7000198218821D821C821B821A82DF91CF91DA
:102B80000895EF92FF920F931F93CF93DF93EC0181
:102B90007B018A01BA010E948815811104C0CE010F
:102BA0000E94AF1507C01D830C83B70188819981EE
:102BB0000E94A82ACE01DF91CF911F910F91FF9023
:102BC000EF900895EF92FF920F931F93CF93DF93AF
:102BD000FC01248135816115710511F480E019C073
:102BE00041155105A9F07B01EC018A01020F131F69
:102BF000B8010E948815882389F3288139818C8146
:102C00009D81B701820F931F0E94A82A1D830C8308
:102C100081E0DF91CF911F910F91FF90EF90089588
:102C20000F931F93CF93DF9300D0CDB7DEB78C0106
:102C300069831A8241E050E0BE016F5F7F4F0E94BE
:102C4000E215811103C0C8010E94AF15C8010F90A1
:102C50000F90DF91CF911F910F910895CF93DF9344
:102C6000EC016115710561F0FB0101900020E9F7AD
:102C70003197AF01461B570B0E94E215811103C02B
:102C8000CE010E94AF15CE01DF91CF910895CF9371
:102C9000DF93EC01FB0144815581608171810E94C9
:102CA000E215811103C0CE010E94AF15CE01DF9164
:102CB000CF910895EF92FF920F931F93CF93DF93DD
:102CC000EC018B016115710551F0CB010E94752C4F
:102CD0007C01BC01CE010E948815811104C0CE0187
:102CE0000E94AF1507C0FD82EC82B80188819981EE
:102CF0000E946E2CCE01DF91CF911F910F91FF901A
:102D0000EF900895CF93DF93EC016115710559F0B1
:102D1000FB0101900020E9F73197AF01461B570BEB
:102D20000E94C11502C00E94AF15CE01DF91CF9164
:102D30000895CF93DF93EC01FB018617970761F0AD
:102D4000608171816115710529F0448155810E946E
:102D5000C11502C00E94AF15CE01DF91CF91089539
:102D6000FC01808191810C948D2BEF92FF920F9347
:102D70001F93CF93DF93CDB7DEB7A1970FB6F8942B
:102D8000DEBF0FBECDBF7C01CB01BA01F7011182BE
:102D90001082138212821582148242E0420F8E0149
:102DA0000F5F1F4F0E94D82ABC01C7010E948216E4
:102DB000A1960FB6F894DEBF0FBECDBFDF91CF91C5
:102DC0001F910F91FF90EF9008950F931F93CF9352
:102DD000DF93CDB7DEB729970FB6F894DEBF0FBEED
:102DE000CDBF8C01862FF8011182108213821282CE
:102DF0001582148250E0BE016F5F7F4F90E00E9409
:102E0000C82CBE016F5F7F4FC8010E9482162996B1
:102E10000FB6F894DEBF0FBECDBFDF91CF911F91EB
:102E20000F910895FC011182108213821282158283
:102E300014820C949916FC01118210821382128262
:102E4000158214826115710551F0FB01019000207B
:102E5000E9F73197AF01461B570B0C94C115089544
:102E6000DC01ED91FC910190F081E02D0994DC01F1
:102E7000ED91FC91DB0114964D915C9115976D914C
:102E80007C910280F381E02D09946115710579F040
:102E9000FB0101900020E9F73197AF01461B570B6A
:102EA000DC01ED91FC910280F381E02D099480E03A
:102EB00090E0089567E172E00C9445170F931F931B
:102EC000CF93DF93EC010E9445178C01CE010E9445
:102ED0005A17800F911FDF91CF911F910F91089585
:102EE0000C944517CF93DF93CDB7DEB7CE57D109FA
:102EF0000FB6F894DEBF0FBECDBF789484B5826064
:102F000084BD84B5816084BD85B5826085BD85B58D
:102F1000816085BD80916E00816080936E0010920B
:102F20008100809181008260809381008091810086
:102F30008160809381008091800081608093800017
:102F40008091B10084608093B1008091B000816075
:102F50008093B00080917A00846080937A008091A1
:102F60007A00826080937A0080917A0081608093F9
:102F70007A0080917A00806880937A001092C10074
:102F8000E0913D03F0913E0382E08083E0913903BC
:102F9000F0913A031082E0913B03F0913C0380E111
:102FA000808310924503E0914103F091420386E053
:102FB0008083E0913F03F0914003808180618083B2
:102FC000E0913F03F0914003808188608083E0912D
:102FD0003F03F0914003808180688083E0913F034C
:102FE000F091400380818F7D808382EE91E00E948A
:102FF0001E0F61E086E00E94470761E08DE00E94BD
:10300000470761E085E00E94470761E08AE00E948F
:10301000470761E08FE00E94470761E08EE00E9471
:10302000470760E083E00E94470760E089E00E9474
:10303000470740E060E081E00E94340D6CE271E0FF
:1030400080E090E00E94830740E061E080E00E9421
:10305000340D6CE271E080E090E00E94830741E073
:1030600060E080E00E94340D6CE271E080E090E06E
:103070000E94830740E060E081E00E94340D8FE110
:1030800094E09093F6038093F5031092F40310926A
:10309000F00399E09093F10381E08093F203809331
:1030A000F30321E134E03093E3032093E203109231
:1030B000E1031092DD039093DE038093DF0380939E
:1030C000E00323E034E03093D0032093CF03109249
:1030D000CE031092CA039093CB038093CC038093CA
:1030E000CD0380EF93E00E94C10A8DED93E00E9432
:1030F000C10A8AEC93E00E94C10ABE016F5F7F4F54
:1031000080EF93E00E944E12882339F0BE016F5F7A
:103110007F4F80EF93E00E946813BE016F5F7F4F87
:103120008DED93E00E944E12882339F0BE016F5F4F
:103130007F4F8DED93E00E946813BE016F5F7F4F5C
:103140008AEC93E00E944E12882339F0BE016F5F33
:103150007F4F8DED93E00E9468138DE49DE0909386
:10316000030180930201809169008C608093690063
:10317000E99AB12CA12C1AE1212E17E0312E8BE314
:1031800091E00E941E0F60E086E00E94170760E059
:103190008DE00E94170761E085E00E94170760ED4F
:1031A00077E080E090E00E94830761E08DE00E947C
:1031B000170760E085E00E9417076CED75E080E07E
:1031C00090E00E94830761E086E00E94170768EEA6
:1031D00073E080E090E00E94830760E086E00E9458
:1031E000170700E010E00E941713009771F40F5FBB
:1031F0001F4F0536110514F0FC01099564E670E0D7
:1032000080E090E00E948307EECF60ED77E080E001
:1032100090E00E9483078BE291E00E941E0F1092C3
:103220004D0510924C0510924B0510924A051092D4
:103230004905109248058DEC90E090934F058093DE
:103240004E0590913E05963108F057C025E530E0D7
:1032500030934905209348052BEC30E030934B0523
:1032600020934A0520E930E030934D0520934C052A
:1032700020916800983050F031E09E3008F430E042
:1032800081E001C0880F3A95EAF701C084E0822B03
:1032900080936800983038F09E3040F0963148F0C6
:1032A00020E030E008C02DE630E005C02BE630E03D
:1032B00002C02CE630E03093460520934505983057
:1032C00030F481E001C0880F9A95EAF70EC0292FEB
:1032D00030E09E3018F42850310902C02E503109D8
:1032E00081E001C0880F2A95EAF780934705809115
:1032F0004E0590914F050197F1F780914C05909103
:103300004D05892B49F1E091B202F091B30225E01D
:10331000E233F20709F1309739F0A389B4899C911F
:103320008589809589238C93809150058E7F809329
:1033300050051092B1021092B00282E395E0909392
:10334000B3028093B202E0914505F0914605908169
:1033500080914705892B808382E395E09093310526
:10336000809330050EE010E080913005909131059A
:10337000DC01ED91FC910480F581E02D0995892B0C
:1033800061F08091300590913105DC01ED91FC9167
:103390000680F781E02D0995E7CF40E050E060ED31
:1033A00077E087E391E00E941A10811133C064EF47
:1033B00071E080E090E00E94830701501109A1F6BE
:1033C00040E050E060ED77E087E391E00E941A1062
:1033D00064E670E080E090E00E94830740E050E007
:1033E00060ED77E087E391E00E941A1064E670E0F8
:1033F00080E090E00E94830740E050E060ED77E0DD
:1034000087E391E00E941A1064E670E080E090E0AB
:103410000E94830740E050E060ED77E087E391E0B1
:103420000E941A10882309F4C7C4EEE0F7E0659102
:10343000749187EF94E00E946E2C40E050E060EDC4
:1034400077E087EF94E00E941A1064E670E080E075
:1034500090E00E948307ECE0F7E06591749187EFBC
:1034600094E00E946E2C40E050E060ED77E087EF42
:1034700094E00E941A1064E670E080E090E00E9400
:103480008307E0E1F7E06591749187EF94E00E9493
:103490006E2C40E050E060ED77E087EF94E00E9412
:1034A0001A1064E670E080E090E00E948307E2E199
:1034B000F7E06591749187EF94E00E946E2C40E0F4
:1034C00050E060ED77E087EF94E00E941A1064E628
:1034D00070E080E090E00E948307E4E1F7E065910E
:1034E000749187EF94E00E946E2C40E050E060ED14
:1034F00077E087EF94E00E941A1064E670E080E0C5
:1035000090E00E948307E6E1F7E06591749187EF10
:1035100094E00E946E2C40E050E060ED77E087EF91
:1035200094E00E941A1064E670E080E090E00E944F
:103530008307E8E1F7E06591749187EF94E00E94DA
:103540006E2C64E670E080E090E00E94830764E601
:1035500070E080E090E00E9483078EE091E00E949E
:103560001E0FE8E4F7E06591749187EF94E00E9404
:103570006E2C40E050E060ED77E087EF94E00E9431
:103580001A1068EE73E080E090E00E94830720ED5F
:1035900037E04AE351E061E471E085E491E00E94A4
:1035A0007E0F813009F56DE070E085E494E00E94C3
:1035B000942A0097C9F08C010E5F1F4F6DE070E0F8
:1035C000C8010E94942A009711F0FC011082B801F2
:1035D00085E494E00E94A82A87E091E00E94FD0E15
:1035E0008DE294E00E9417128091B4029091B5028E
:1035F000029739F068EE73E080E090E00E94830764
:10360000F3CF68EE73E080E090E00E94830781EFE3
:1036100090E00E94FD0E1EE1F1016591749187EF2B
:1036200094E00E946E2C40E050E060ED77E087EF80
:1036300094E00E941A10882319F16CE471E085E48B
:1036400094E00E94BE2A0097D9F0DC0112960C91FA
:10365000013311F00533A1F4ECE1F7E065917491C9
:1036600087EF94E00E946E2C40E050E068EE73E03B
:1036700087EF94E00E941A10EF960FAFEF9709C002
:1036800068EE73E080E090E00E948307115009F03B
:10369000C3CF80EE90E00E94FD0EEF966FADEF97E6
:1036A0008DE293E00E9430178DED90E00E94FD0EB8
:1036B000EF96BFADEF97B13319F48AEC90E008C0F4
:1036C000EF962FADEF97253309F03EC386EB90E0E0
:1036D0000E941E0F8091B4029091B502029709F0EA
:1036E00033C360ED77E080E090E00E948307A4E2BE
:1036F0008A2EA7E09A2EB0E46B2EB7E07B2E0E94B4
:1037000028128C018EEA90E00E94FD0EC8010E94F2
:10371000E41268EE73E080E090E00E9483078EE997
:1037200090E00E941E0F40E050E060E27EE48FE4F3
:1037300091E00E941A10EEE1F7E06591749187EF35
:1037400094E00E946E2C40E050E060ED77E087EF5F
:1037500094E00E941A10882309F4DCC2E0E2F7E04A
:103760006591749187EF94E00E946E2C40E050E0E8
:1037700060ED77E087EF94E00E941A10882309F447
:10378000C9C2EAE4F7E06591749187EF94E00E9482
:103790006E2CEEE4F7E0659174918AE195E00E9469
:1037A0006E2C20ED37E04AE155E061E471E087EFEF
:1037B00094E00E947E0F8130C9F46AE571E085E4EF
:1037C00094E00E94BE2A009789F08C010E5F1F4F83
:1037D00062E270E0C8010E94942A009711F0FC0197
:1037E0001082B80185E494E00E94A82A65E474E0A0
:1037F000CE018E960E941B1769E172E0CE01889679
:103800000E941B176DE571E0CE0182960E941B1786
:10381000AE01485D5F4FBE016E5D7F4FCE018E965B
:103820000E94EA13CE0182960E94B016CE018896BD
:103830000E94B01669E172E0CE0188960E941B17C3
:103840006BE571E0CE0182960E941B17AE01485DC8
:103850005F4FBE016E5D7F4FCE018E960E94EA13D0
:10386000CE0182960E94B016CE0188960E94B016B4
:1038700069E172E0CE0188960E941B1768E172E050
:10388000CE0182960E941B17AE01485D5F4FBE01BC
:103890006E5D7F4FCE018E960E94EA13CE01829616
:1038A0000E94B016CE0188960E94B01669E172E0BF
:1038B000CE0188960E941B1763E471E0CE018296C8
:1038C0000E941B17AE01485D5F4FBE016E5D7F4FCA
:1038D000CE018E960E94EA13CE0182960E94B01607
:1038E000CE0188960E94B016CEA4DFA4C114D104E4
:1038F000E1F10AA91BA901151105B9F1260172010F
:10390000FFEF4F1A5F0AD7018C91082E000C990B1C
:103910000E94B030892B99F7015011090C0D1D1D23
:10392000F8018081082E000C990B0E94B030892B81
:1039300079F40F5F1F4FA8014E195F095BAB4AABCB
:10394000CE14DF0458F4B701C6010E94792A06C0DC
:103950000E151F0570F301501109E2CFEEA5FFA56A
:103960008AA99BA9E80FF91F1082F401659174914F
:1039700087EF94E00E946E2C67EF74E0CE01829690
:103980000E941B17BE016E5D7F4FCE018E960E9476
:1039900031158C01CE0182960E94B01617FD32C0FF
:1039A00002E217E0F8016591749187EF94E00E94BC
:1039B0006E2C67EF74E08DED94E00E948216E6E2D3
:1039C000F7E06591749187EF94E00E946E2C67EFA9
:1039D00074E083EE94E00E94821667EF74E089EE53
:1039E00094E00E948216F8016591749187EF94E04B
:1039F0000E946E2C67EF74E08FEE94E00E948216B6
:103A0000F4013EC060E671E0CE0182960E941B1771
:103A1000BE016E5D7F4FCE018E960E9431158C01E6
:103A2000CE0182960E94B01617FD31C0EAE2F7E09F
:103A3000659174918AE195E00E946E2C6AE175E0CF
:103A40008DED94E00E948216ECE2F7E065917491AE
:103A500087EF94E00E946E2C67EF74E083EE94E0B1
:103A60000E94821667EF74E089EE94E00E9482164D
:103A70006AE175E08FEE94E00E948216E8E2F7E0DA
:103A80006591749187EF94E00E946E2C3CC06DE6C6
:103A900071E0CE0182960E941B17BE016E5D7F4FC2
:103AA000CE018E960E9431158C01CE0182960E9425
:103AB000B01617FD2EC0EEE2F7E06591749187EF26
:103AC00094E00E946E2CE0E3F7E0659174918AE146
:103AD00095E00E946E2C6AE175E08DED94E00E9405
:103AE000821669E172E083EE94E00E94821669E139
:103AF00072E089EE94E00E9482166AE175E08FEE32
:103B000094E00E94821667EF74E08DE293E00E94D9
:103B10005E17E8E3F7E06591749187EF94E00E9407
:103B20006E2C67EF74E080913005909131050E9412
:103B300070176DED74E080913005909131050E9411
:103B4000371780913005909131050E94071040E0B1
:103B500050E060ED77E080E090E00E941A10811163
:103B600002C014E0BAC0EAE3F7E06591749187EF10
:103B700094E00E946E2C67EF74E080913005909184
:103B800031050E94701763EE74E0809130059091CA
:103B900031050E94371780913005909131050E94C0
:103BA000071040E050E060ED77E080E090E00E9498
:103BB0001A108823B1F2ECE3F7E06591749187EF76
:103BC00094E00E946E2C67EF74E080913005909134
:103BD00031050E94701769EE74E080913005909174
:103BE00031050E94371780913005909131050E9470
:103BF000071040E050E060ED77E080E090E00E9448
:103C00001A10882309F4ADCFEEE3F7E065917491C3
:103C100087EF94E00E946E2C67EF74E0809130058E
:103C2000909131050E9470176FEE74E0809130051D
:103C3000909131050E9437178091300590913105A0
:103C40000E94071040E050E060ED77E080E090E0F7
:103C50000E941A10882309F484CFF30165917491AE
:103C600087EF94E00E946E2C40E050E060E177E244
:103C700087EF94E00E941A10E2E4F7E065917491F6
:103C800087EF94E00E946E2C40E050E060E177E224
:103C900087EF94E00E941A10E4E4F7E065917491D4
:103CA00087EF94E00E946E2C40E050E060ED77E0FA
:103CB00087EF94E00E941A10E6E4F7E065917491B2
:103CC00087EF94E00E946E2C40E050E060ED77E0DA
:103CD00087EF94E00E941A1010E0CE018E960E94A9
:103CE000B016111117C08091B4029091B5020397DC
:103CF00039F062E370E080E090E00E948307F3CF48
:103D00008BE890E00E941E0F40E061E080E00E949E
:103D1000340D57C0B3948AE790E00E941E0F68E804
:103D200073E180E090E00E9483078091B40290915B
:103D3000B502039729F488E690E00E941E0F41C067
:103D4000AA2009F4DCCC3DC0F4E1FB1508F417CA45
:103D5000AA2009F414CA8FED91E00E941E0F04E519
:103D600017E0E6E5EE2EE7E0FE2EF2E5CF2EF7E0D7
:103D7000DF2EF8016591749187EF94E00E946E2C1C
:103D8000F701659174918AE195E00E946E2C40E004
:103D900050E060E177E287EF94E00E941A108823F8
:103DA000B9F040E050E068E873E18AE195E00E94F4
:103DB0001A10882369F061C081E191E00E941E0F12
:103DC000FFCFF4E1FB1508F0C6CFAA24A394D7C90E
:103DD0001092D1046AE172E08DE293E00E947017C4
:103DE00065E474E08DE293E00E945E1765E474E0A0
:103DF000CE0188960E941B171BA21AA21DA21CA20C
:103E00001FA21EA269ED71E0CE0182960E945A1691
:103E1000BE016E5D7F4FCE0188960E9431155C0118
:103E2000CE0182960E94B016B7FC0DC081EC91E0E5
:103E30000E94FD0E68EE73E080E090E00E94830730
:103E4000E0E0F0E00995F6016591749187EF94E068
:103E50000E946E2C40E050E060ED77E087EF94E048
:103E60000E941A1068EE73E080E090E00E948307E1
:103E7000CE0188960E94B0167CCF81E08093D10459
:103E800080E090E00E9408328032A9F18EEA91E051
:103E90000E941E0F00E010E060E0C8010E94130CB9
:103EA0000F5F1F4F0F3FF3E01F07B1F760E280E0A5
:103EB00090E00E94130C88EC90E00E94E81065E707
:103EC00071E084E690E00E94390E62E871E088E7D4
:103ED00090E00E94390E6FE871E08CE890E00E945B
:103EE000390E6FE871E08CED90E00E94390E8DE99B
:103EF00091E00E941E0F6CE971E089E394E00E945A
:103F0000821679E3C72E74E0D72E0CED10E07E0107
:103F100022E2E20EF11CD6016D916D011BA30AA3F2
:103F2000C7010E94190E0F5F1F4F023E110599F73E
:103F300088EC90E00E94CE108CED90E00E949A10E8
:103F40008FE891E00E94FD0E6091040170910501DF
:103F500080910601909107010E946F0F89E394E020
:103F60000E94171280E090E00E943B13882321F00A
:103F700084E891E00E941E0F85E791E00E94FD0E0B
:103F800020915205309153052115310511F428E592
:103F900035E0C701821B930B0E94E4120E94150CAE
:103FA00040E061E080E00E94340D83E691E00E94F1
:103FB0001E0F0E94BD076093C0027093C1028093E0
:103FC000C2029093C3028E010F5F1F4F0E9417130E
:103FD000009711F4FC01099520ED37E043EA51E028
:103FE00069EA71E080EB91E00E947E0F813009F078
:103FF000A7C08091300590913105DC01ED91FC91D5
:104000000480F581E02D0995892BF9F08091300528
:1040100090913105DC01ED91FC910680F781E02D56
:10402000099580932E0590932F0589831A8241E08C
:1040300050E0B80182ED94E00E94E2156AE070E081
:1040400080E090E00E948307D4CF8CED92E00E9444
:10405000FD0E82ED94E00E9417126CE172E0C8013F
:104060000E941B17B80182ED94E00E9431157C017B
:10407000C8010E94B016F7FC53C0B80188E790E071
:104080000E94D90BB801CE01CA960E941B17B80135
:104090008CE890E00E94D90BB801CE01C4960E9432
:1040A0001B17B8018CED90E00E94D90BB801CE012E
:1040B0008E960E941B17BE01665C7F4F82ED94E0D6
:1040C0000E94311597FDECC68EEC92E00E941E0F07
:1040D000BE01665C7F4FCE0182960E94121762ED90
:1040E00074E0CE0188960E941217BE016E5D7F4F6C
:1040F000CE0188960E94950CCE0188960E94B0163B
:10410000CE0182960E94B016CE018E960E94B01605
:10411000CE01C4960E94B016CE01CA960E94B01677
:1041200069E172E082ED94E00E94821681E090E005
:104130000E943B13882321F08DE992E00E941E0F1C
:104140000E94BD076B017C018091B602811104C001
:1041500088EC90E00E94CE108091C4029091C5023C
:10416000A091C602B091C70246015701881A990A68
:10417000AA0ABB0A20910401309105014091060171
:1041800050910701A8EEB3E00E941E3286169706F2
:10419000A806B90608F463C68FE892E00E94FD0EF7
:1041A0008091C4029091C502A091C602B091C7024D
:1041B000A7019601281B390B4A0B5B0BCA01B901F9
:1041C00028EE33E040E050E00E940129CA01B90125
:1041D0000E946F0F41E060E080E00E94340DC092C9
:1041E000C402D092C502E092C602F092C7020E94B9
:1041F000150C80EF93E00E94310A8DED93E00E9450
:10420000310A8AEC93E00E94310A80EF93E00E9429
:1042100075126B017C018DED93E00E9475124B01CC
:104220005C018AEC93E00E9475122B013C010E9414
:1042300028121C01EE961FAE1EAEEE97BE0164580A
:104240007F4F80EA90E00E94FF0BA5019401C70117
:10425000B6010E943E29A30192010E943E292FE847
:1042600032EC41EB52E40E943E29AB01BC0122E05A
:10427000CE01845B9F4F0E94B516B80184E690E0A2
:104280000E94D90BB801CE018A5B9F4F0E941B1779
:10429000B80188E790E00E94D90BB801CE01805C9C
:1042A0009F4F0E941B17B8018CE890E00E94D90B29
:1042B000B801CE01CA960E941B178CED90E00E94B7
:1042C0009A106AEB71E0CE0182960E941B17BE0124
:1042D0006A5B7F4FCE0182960E944716BC01CE01D9
:1042E000C4960E941217CE0182960E94B01661EC0D
:1042F00071E0CE0182960E941B17BE01605C7F4F69
:10430000CE0182960E944716BC01CE018E960E9475
:104310001217CE0182960E94B01667EC71E0CE01B2
:1043200082960E941B17BE01665C7F4FCE0182966B
:104330000E944716BC01CE0188960E941217CE013A
:1043400082960E94B0166DEC71E0CE0182960E94BA
:104350001B17BE016A5B7F4FCE0182960E944716F3
:104360006DEC71E00E942E16BE01605C7F4F0E94D2
:1043700047166DEC71E00E942E16BE01665C7F4F01
:104380000E9447166DEC71E00E942E1669E374E0FE
:104390000E944716BC01CE018E5A9F4F0E941217F1
:1043A000CE0182960E94B016CE0188960E94B01669
:1043B000CE018E960E94B016CE01C4960E94B01611
:1043C000CE01CA960E94B016CE01805C9F4F0E941B
:1043D000B016CE018A5B9F4F0E94B016EE968EAD4E
:1043E0009FADEE976A961FAE1EAE6A976C961FAE93
:1043F0001EAE6C976E961FAE1EAE6E974AE0B80169
:104400000E947E2CB801CE01885A9F4F0E948216CE
:104410006091BC027091BD028091BE029091BF027A
:10442000A0961FAE1EAEA097A2961FAE1EAEA2977C
:10443000A4961FAE1EAEA4972AE0A8010E94A62C47
:10444000B801CE01825A9F4F0E948216A6961FAED7
:104450001EAEA697A8961FAE1EAEA897AA961FAE30
:104460001EAEAA974AE0B801C1010E947E2CB80195
:10447000CE018C599F4F0E94821622E0B301A20107
:10448000CE0186599F4F0E94B51622E0B501A401C6
:10449000CE0180599F4F0E94B51622E0B701A601B8
:1044A000CE018A589F4F0E94B5166FEC71E0CE0185
:1044B0008A5B9F4F0E941B17E0E5F7E065917491BE
:1044C00087EF94E00E946E2C40E050E060E177E2DC
:1044D00087EF94E00E941A10882309F4FBC06AE376
:1044E00070E085E494E00E94942A009709F4F2C0F9
:1044F0006CE270E00E94942A009709F4EBC07C0102
:104500003FEFE31AF30AC7010E94252C6CE270E02A
:10451000C7010E94942A009709F4DCC07C014FEF88
:10452000E41AF40AC7010E94252C6CE270E0C7016E
:104530000E94942A009709F4CDC06C015FEFC51A60
:10454000D50AC6010E94292CF82E6FE270E0C60140
:104550000E94942A009709F4BDC06C01AFEFCA1AFB
:10456000DA0AC6010E94292CE82E6FE270E0C6012B
:104570000E94942A009709F4ADC05C01BFEFAB1A0A
:10458000BB0AC5010E94292CD82E6CE270E0C5013F
:104590000E94942A009709F49DC05C01EFEFAE1AC7
:1045A000BE0AC5010E94292CC82E6AE370E0C5012D
:1045B0000E94942A009709F48DC04C01FFEF8F1AD6
:1045C0009F0AC4010E94292CB82E6AE370E0C4013E
:1045D0000E94942A009709F47DC001960E94292C1C
:1045E0004AE0682FC8010E94E5164AE06B2DCE0113
:1045F00082960E94E5164AE06C2DCE0188960E94B4
:10460000E5164AE06D2DCE018E960E94E5164AE031
:104610006E2DCE01C4960E94E51660E36F0D4AE050
:10462000CE01805C9F4F0E94E516BE01605C7F4F0B
:10463000CE01CA960E9412176FE2CE01CA960E945E
:104640001016BE016C5C7F4F0E9447166FE20E94FD
:104650001016BE01625D7F4F0E9447166CE20E94F9
:104660001016BE01685D7F4F0E9447166AE30E94E4
:104670001016BE016E5D7F4F0E9447166AE30E94CE
:104680001016B8010E94471660EE71E00E942E16C7
:10469000BC01CE018A5B9F4F0E949916CE01CA963B
:1046A0000E94B016CE01805C9F4F0E94B016CE01D2
:1046B000C4960E94B016CE018E960E94B016CE010E
:1046C00088960E94B016CE0182960E94B016C8014C
:1046D0000E94B01664EE71E0C8010E941B176DE2E3
:1046E00074E0C8010E9447166DEC71E00E942E161E
:1046F000BE016A5B7F4F0E944716BC01CE018296C5
:104700000E941217C8010E94B016CE018A5B9F4F0B
:104710000E94B016BE016E5D7F4FC8010E94121745
:104720006DEC71E0C8010E942E16BE016A587F4FE1
:104730000E9447166DEC71E00E942E16BE01605972
:104740007F4F0E9447166DEC71E00E942E16BE014D
:1047500066597F4F0E9447166DEC71E00E942E163D
:10476000BE016C597F4F0E9447166DEC71E00E94AC
:104770002E16BE01625A7F4F0E9447166DEC71E003
:104780000E942E16BE01685A7F4F0E944716BE0136
:104790006E5A7F4F0E9447166DEC71E00E942E16F4
:1047A000BE01645B7F4F0E944716BC01CE01C496D8
:1047B0000E941217C8010E94B016CE0182960E9474
:1047C000B016CE018A589F4F0E94B016CE01805974
:1047D0009F4F0E94B016CE0186599F4F0E94B0167F
:1047E000CE018C599F4F0E94B016CE01825A9F4F26
:1047F0000E94B016CE01885A9F4F0E94B016CE017B
:104800008E5A9F4F0E94B016CE01845B9F4F0E942C
:10481000B01668AD79AD80E090E04AE00E942C0FC0
:104820008DE293E00E945A17BE016C5C7F4FCE016F
:104830008E960E94121784E792E00E94FD0E68EEA9
:1048400071E08DE293E00E9470176FE38DE293E0D8
:104850000E943017CE018E960E941712BE01625D33
:104860007F4FC8010E941217B80188EE91E00E94A4
:10487000A711C8010E94B0168091B8029091B902A8
:10488000A091BA02B091BB020196A11DB11D809307
:10489000B8029093B902A093BA02B093BB020297F8
:1048A000A105B10518F081E08093B70240E6E42E3F
:1048B00047E0F42E52E6C52E57E0D52EF70165915C
:1048C000749187EF94E00E946E2CF60165917491CB
:1048D0008AE195E00E946E2C6AE175E087EF94E032
:1048E0000E943611823020F084E08093D10420C0F1
:1048F00081111EC06EE28DE293E00E9400056AE124
:10490000B62EBA94BB20D1F280913005909131053A
:10491000DC01ED91FC910480F581E02D0995892B56
:1049200069F66FE070E080E090E00E948307E9CFD5
:104930008091D104843079F586E692E00E941E0FC2
:104940008091BC029091BD02A091BE02B091BF02C5
:104950000196A11DB11D8093BC029093BD02A0934E
:10496000BE02B093BF020E94930E8091BC02909150
:10497000BD02A091BE02B091BF024597A105B1054D
:1049800018F0E0E0F0E0099568EB7BE080E090E073
:104990000E94830745C28DE293E00E945A17E4E625
:1049A000F7E06591749187EF94E00E946E2C67EFB9
:1049B00074E080913005909131050E945E1783E08C
:1049C0008093D1041092D8040E94BD076093D9044B
:1049D0007093DA048093DB049093DC04E6E6F7E05E
:1049E0006591749187EF94E00E946E2CE8E6F7E001
:1049F000659174918AE195E00E946E2C6AE175E000
:104A000087EF94E00E943611813041F71092D8046C
:104A100047E152E064E670E080E090E00E941A1006
:104A200085E494E00E94292C7C0140E050E060ED98
:104A300077E080E090E00E941A10FBE8EF16F104A6
:104A400018F03BE8E32EF12CF701EB5BFB4F1082F3
:104A5000EF2809F4C3CF8091D104843039F58091D7
:104A6000BC029091BD02A091BE02B091BF0201961E
:104A7000A11DB11D8093BC029093BD02A093BE0204
:104A8000B093BF020E94930E8091BC029091BD0230
:104A9000A091BE02B091BF024597A105B10508F4EF
:104AA00073CF8EE392E00E941E0F6BCF83E392E000
:104AB0000E94FD0E65E474E08DE293E00E945E17B3
:104AC00065E474E0CE0188960E941B1769E172E0EC
:104AD000CE0182960E941B178CA59DA50097D9F048
:104AE000029720F022E0E22EF12C03C0EE24E394A2
:104AF000F12CE8A5F9A5EE0DFF1DD080108268A568
:104B000079A5CE0182960E94821688A599A5FC01FE
:104B1000EE0DFF1DD0828AA19BA1009719F00E9483
:104B2000472C03C060E070E0CB016130710509F0F3
:104B300067C069E172E0C8010E941B17ECA4FDA4E4
:104B4000F3E0EF16F104D0F02AE0E216F10418F0D9
:104B50008AE0E82EF12CE8A5F9A5EE0DFF1DD08026
:104B6000108268A579A56E5F7F4FC8010E948216EA
:104B700088A599A5FC01EE0DFF1DD08289819A813F
:104B8000009729F00E94472C6B017C0103C0C12CC7
:104B9000D12C7601C701B6010E946F0FD701C60163
:104BA0000B97A109B10986379145A140B105E8F4F9
:104BB0008091040190910501A0910601B091070137
:104BC000C816D906EA06FB0681F08091B60281116B
:104BD0000CC0C0920401D0920501E0920601F0924F
:104BE000070188EC90E00E94E81060910401709148
:104BF000050180910601909107010E946F0FB7C0D7
:104C00006230710579F5CE0188960E94111184E613
:104C100090E00E94B4106DE173E0C8010E941B1780
:104C2000B801CE0188960E94B00E882309F49FC077
:104C300088E292E00E941E0FE12CF12CB701CE0118
:104C400088960E944B15DC016C91C7018C599F4FCF
:104C50000E94130CBFEFEB1AFB0AEDE0EE16F10415
:104C600069F785C06330710579F5CE0188960E9499
:104C7000111188E790E00E94B4106DE173E0C80163
:104C80000E941B17B801CE0188960E94B00E88239F
:104C900009F46DC08DE192E00E941E0FE12CF12C11
:104CA000B701CE0188960E944B15DC016C91C701BB
:104CB00088589F4F0E94130CBFEFEB1AFB0AEDE0E0
:104CC000EE16F10469F753C06430710571F5CE0139
:104CD00088960E9411118CE890E00E94B4106DE15A
:104CE00073E0C8010E941B17B801CE0188960E948C
:104CF000B00E8823E1F182E192E00E941E0FE12CC8
:104D0000F12CB701CE0188960E944B15DC016C9105
:104D1000C70184579F4F0E94130CBFEFEB1AFB0A89
:104D2000EDE0EE16F10469F722C06530710541F43B
:104D30001A821982B80180EA90E00E946C0E3AC093
:104D40006630710591F5CE0188960E9411118CEDA7
:104D500090E00E94B4106DE173E0C8010E941B173F
:104D6000B801CE0188960E94B00E811104C0C8011E
:104D70000E94B0161FC087E092E00E941E0FE12C37
:104D8000F12CB701CE0188960E944B15DC016C9185
:104D9000C70184529F4F0E94130CBFEFEB1AFB0A0E
:104DA000EDE0EE16F10469F7E2CF6730710511F41A
:104DB0001092B60280E092E00E94FD0E6091B8026F
:104DC0007091B9028091BA029091BB024AE00E94B0
:104DD0002C0F8091BC029091BD02A091BE02B091B7
:104DE000BF02892B8A2B8B2B79F087EF91E00E94F1
:104DF000FD0E6091BC027091BD028091BE02909147
:104E0000BF024AE00E942C0F8DE293E00E945A17E5
:104E1000CE0182960E94B016CE0188960E94B016EE
:104E2000CE018E960E94B016CE01C4960E94B01696
:104E300040E061E080E00E94340D80E892E00E9452
:104E4000FD0E8091520590915305009711F488E56D
:104E500095E09801281B390BC9010E94E4120E94B9
:104E6000BD07C090C002D090C102E090C202F09095
:104E7000C302DC01CB018C199D09AE09BF09813049
:104E80009C45A642B54018F0E0E0F0E0099564EFDB
:104E900071E080E090E00E9483070E94690596C857
:104EA000BE016C5C7F4F82ED94E00E94311597FD4E
:104EB00008C080EC92E00E941E0FBE016C5C7F4F28
:104EC0000AC9BE01625D7F4F82ED94E00E943115F8
:104ED00097FD08C086EB92E00E941E0FBE01625D46
:104EE0007F4FF9C888EA92E00E941E0F0DC98DE23B
:104EF00094E00E94B01683E394E00E94B01689E328
:104F000094E00E94B0168FE394E00E94B0168FEEFA
:104F100094E00E94B01689EE94E00E94B01683EEF1
:104F200094E00E94B0168DED94E00E94B01682EDE0
:104F300094E00E94B01688E291E09093330580934C
:104F400032058091B2029091B3028253954071F480
:104F5000E0914505F0914605908180914705809547
:104F6000892380831092B3021092B20208951092A6
:104F7000300310922F0388EE93E0A0E0B0E080931E
:104F8000310390933203A0933303B093340328E1A9
:104F900031E030932E0320932D0325EC30E0309345
:104FA0003A032093390324EC30E030933C03209300
:104FB0003B0320EC30E030933E0320933D0321EC93
:104FC00030E03093400320933F0322EC30E03093F5
:104FD00042032093410326EC30E0309344032093B6
:104FE0004303109246031092470310924803109215
:104FF000490310923505109234058093360590933D
:105000003705A0933805B093390588E291E0909375
:10501000330580933205109249051092480510928D
:105020004B0510924A0510924D0510924C051092B6
:105030004F0510924E05609150056E7F6D7F609315
:1050400050056695617081E0682787E00E94170728
:1050500061E087E00E944707E3EBF7E0E491E0932B
:105060004205EFE9F7E0E491F0E0EE0FFF1FEC57A7
:10507000F84F85919491909344058093430560E0A7
:1050800088E00E9447078091500581FD04C061E0DF
:1050900088E00E94170788E080933E05E4EBF7E084
:1050A000E491E0933F05E0EAF7E0E491F0E0EE0FF1
:1050B000FF1FE257F84F859194919093410580939B
:1050C00040051092D10469E172E082ED94E00E9403
:1050D0001B1769E172E08DED94E00E941B1769E1F6
:1050E00072E083EE94E00E941B1769E172E089EEA2
:1050F00094E00E941B1769E172E08FEE94E00E9439
:105100001B1710922F0510922E0569E172E08FE3B4
:1051100094E00E941B1769E172E089E394E00E9429
:105120001B1769E172E083E394E00E941B176DE7AF
:1051300072E08DE294E00E941B1760E18FE194E041
:105140000E94020A61E181E194E00E94020A64E0A7
:1051500083E094E00E94020A2DEE35E030930204D1
:10516000209301048FE194E09093F6038093F5037C
:105170001092F4031092F00399E09093F10381E010
:105180008093F2038093F3033093EF032093EE03B5
:1051900041E154E05093E3034093E2031092E103B2
:1051A0001092DD039093DE038093DF038093E0038E
:1051B0003093DC032093DB0323E034E03093D0030F
:1051C0002093CF031092CE031092CA039093CB0387
:1051D0008093CC038093CD03089597FB072E16F49C
:1051E000009407D077FD09D00E94232907FC05D041
:1051F0003EF4909581959F4F0895709561957F4FEE
:105200000895A1E21A2EAA1BBB1BFD010DC0AA1F07
:10521000BB1FEE1FFF1FA217B307E407F50720F01F
:10522000A21BB30BE40BF50B661F771F881F991F9A
:105230001A9469F760957095809590959B01AC01E3
:10524000BD01CF010895AA1BBB1B51E107C0AA1FD6
:10525000BB1FA617B70710F0A61BB70B881F991F17
:105260005A95A9F780959095BC01CD010895EE0F50
:10527000FF1F0590F491E02D09945058BB27AA27F1
:105280000E9455290C94CE310E94C03138F00E9402
:10529000C73120F039F49F3F19F426F40C94BD3146
:1052A0000EF4E095E7FB0C94B731E92F0E94DF3153
:1052B00058F3BA17620773078407950720F079F44B
:1052C000A6F50C9401320EF4E0950B2EBA2FA02D0A
:1052D0000B01B90190010C01CA01A0011124FF27A3
:1052E000591B99F0593F50F4503E68F11A16F0409E
:1052F000A22F232F342F4427585FF3CF469537959D
:105300002795A795F0405395C9F77EF41F16BA0B61
:10531000620B730B840BBAF09150A1F0FF0FBB1F0F
:10532000661F771F881FC2F70EC0BA0F621F731F58
:10533000841F48F4879577956795B795F7959E3FB5
:1053400008F0B0CF9395880F08F09927EE0F979546
:1053500087950895A0E0B0E0E0EBF9E20C942D32DF
:10536000EC01009721F4CB010E94F82AB8C0FC019F
:10537000E60FF71F9C0122503109E217F30708F4EA
:10538000ACC0D9010D911C91119706171707B0F009
:105390000530110508F49FC0C801049786179707C8
:1053A00008F499C002501109061B170B01931193C1
:1053B0006D937C93CF010E948D2B8DC05B01A01A51
:1053C000B10A4C01800E911EA0915405B091550573
:1053D00040E050E0E12CF12C109709F44AC0A815E8
:1053E000B905D1F56D907C901197630182E0C80EEC
:1053F000D11CCA14DB0480F1A3014A195B096A01BC
:1054000082E0C80ED11C1296BC9012971396AC91F4
:10541000B5E0CB16D10440F0B282A3835183408320
:10542000D9016D937C930AC00E5F1F4FC301800F9B
:10543000911FF90191838083EB2DFA2FE114F10480
:1054400031F0D7011396FC93EE93129744C0F0937A
:105450005505E09354053FC08D919C9111974817D5
:10546000590708F4AC017D0112960D90BC91A02D56
:10547000B3CF809152059091530588159905E1F4B9
:1054800046175707C8F480910801909109010097C9
:1054900041F48DB79EB740910C0150910D01841BD2
:1054A000950BE817F907C8F4F0935305E0935205FC
:1054B000F901718360830FC0CB010E94F82A7C013F
:1054C000009759F0A801BE010E94792ACE010E94DE
:1054D0008D2BC70104C0CE0102C080E090E0CDB7A3
:1054E000DEB7EEE00C94493281E090E0F8940C9441
:1054F0006F32FB01DC0102C001900D92415050401F
:10550000D8F708956817790768F4FB01DC01E40F08
:10551000F51FA40FB51F02C002900E9241505040DB
:10552000D8F708950C94792AFC018191861721F00F
:105530008823D9F7992708953197CF010895FB0162
:10554000DC018D91019080190110D9F3990B089518
:10555000FB01DC0101900D920020E1F70895FB01B1
:10556000DC014150504048F001900D920020C9F7F5
:1055700001C01D9241505040E0F70895FB01519148
:105580005523A9F0BF01DC014D9145174111E1F709
:1055900059F4CD010190002049F04D914015411181
:1055A000C9F3FB014111EFCF81E090E0019708952D
:1055B000EF920F931F93CF93DF93E80147FD02C053
:1055C00034E001C034E1E42F440FFF0BF7FF03C0C8
:1055D000F195E195F109E32E022F2E2FAE010E94E5
:1055E000ED2CCE01DF91CF911F910F91EF90089597
:1055F000CF93DF938230910510F482E090E0E09148
:105600005405F091550520E030E0C0E0D0E030973F
:1056100011F14081518148175907C0F048175907C7
:1056200061F482819381209719F09B838A832BC038
:10563000909355058093540526C02115310519F026
:105640004217530718F49A01BE01DF01EF010280EF
:10565000F381E02DDCCF2115310509F1281B390B31
:105660002430310590F412968D919C911397611519
:10567000710521F0FB019383828304C0909355054B
:1056800080935405FD01329644C0FD01E20FF31FE3
:1056900081939193225031092D933C933AC02091EC
:1056A000520530915305232B41F420910A0130918A
:1056B0000B0130935305209352052091080130913E
:1056C00009012115310541F42DB73EB740910C0178
:1056D00050910D01241B350BE0915205F0915305BB
:1056E000E217F307A0F42E1B3F0B2817390778F0B9
:1056F000AC014E5F5F4F2417350748F04E0F5F1F18
:1057000050935305409352058193919302C0E0E07A
:10571000F0E0CF01DF91CF9108950F931F93CF93C6
:10572000DF93009709F48CC0FC0132971382128238
:1057300000915405109155050115110581F4208142
:105740003181820F931F2091520530915305281704
:10575000390779F5F0935305E093520571C0D801EC
:1057600040E050E0AE17BF0750F412962D913C91E7
:105770001397AD012115310509F1D901F3CF9D0131
:10578000DA013383228360817181860F971F82172C
:10579000930769F4EC0128813981260F371F2E5FAA
:1057A0003F4F318320838A819B8193838283452B62
:1057B00029F4F0935505E093540542C01396FC93E9
:1057C000EE931297ED01499159919E01240F351FD7
:1057D000E217F30771F480819181840F951F02967F
:1057E00011969C938E938281938113969C938E93B2
:1057F0001297E0E0F0E0D80112968D919C911397FA
:10580000009719F0F8018C01F6CF8D919C919801C9
:105810002E5F3F4F820F931F209152053091530509
:105820002817390769F4309729F41092550510921A
:10583000540502C01382128210935305009352053F
:10584000DF91CF911F910F910895662777270C94D0
:105850007B2EFC0188279927E89421912032E9F3D7
:10586000293010F02E30C8F32B3241F02D3239F4AC
:10587000689404C00E949E2C820F911D2191205398
:105880002A30C0F31EF4909581959F4F08951F9381
:10589000FC0199278827BC01E89411911032E9F3A3
:1058A000193010F01E30C8F31B3251F01D3249F48C
:1058B000689406C00E94892C610F711D811D911D85
:1058C000119110531A30B0F33EF490958095709575
:1058D00061957F4F8F4F9F4F1F910895FB01DC0112
:1058E00005900D920020E1F70895FC01059000203D
:1058F000E9F7809590958E0F9F1F0895BB274A303A
:1059000031F4992322F4BDE2909581959F4F0C9438
:10591000D42C592F482F372F262F660F771F881F1B
:10592000991F660F771F881F991F620F731F841FAF
:10593000951F660F771F881F991F08957AE0979F1C
:10594000902D879F802D910D11240895BB27FA017A
:10595000A62F6217710581059105330B30FB66F0A8
:10596000AA27660F771F881F991FAA1FA21710F07A
:10597000A21B63953850A9F7A05DAA3308F0A95D72
:10598000A19336F7B111B1931082CA010C94D130B2
:105990004532510520F4423010F00C94D32CFB0119
:1059A0001082CB010895BB27FB015527AA27880F3A
:1059B000991FAA1FA41710F0A41B83955051B9F783
:1059C000A05DAA3308F0A95DA193009779F7B11102
:1059D000B1931192CB010C94D1304F925F926F92A0
:1059E0007F929F92AF92BF92CF92DF92EF92FF92FF
:1059F0000F931F93CF93DF93CDB7DEB729970FB6E1
:105A0000F894DEBF0FBECDBF6A01122FB02E2BE37C
:105A1000201720F0FF24F394F00E02C0BCE3FB2E0D
:105A20000F2D27E0AE014F5F5F4F0E94D82FAC01D2
:105A30008981982F9970913031F0E1FC06C0E0FE29
:105A400006C090E205C09DE203C09BE201C090E069
:105A5000EE2DE07183FF3CC0911102C083E001C0D4
:105A600084E0811718F4212F281B01C020E0E111E8
:105A70000BC0F601822F30E2882319F03193815058
:105A8000FBCFC20ED11C20E0992329F0D6019C93B4
:105A9000F60131966F01C6010396E2FE0AC03EE4AC
:105AA000D6013C9341E411964C93119712963C9386
:105AB00006C03EE6F601308341E641833283FC01B5
:105AC000322F40E2332309F442C041933150FACFE0
:105AD00082FF44C0911102C083E001C084E08117BD
