:100000000C9410050C9459120C9432120C9437175E
:100010000C9437170C9437170C9438050C9438054A
:100020000C9438050C941A140C9438050C9438056B
:100030000C9438050C9438050C9438050C9438054C
:100040000C94E8110C9438050C94DB100C94B5104A
:100050000C9438050C9438050C9438050C9438052C
:100060000C9438050C94380541542B434349440003
:100070000A53494D20434349443A0041542B5341CC
:100080005042523D312C3100436F6E6E65637420D7
:10009000475052532E2E0041542B434744434F4E5A
:1000A000543D312C224950222C220041542B5341E3
:1000B0005042523D332C312C22505744222C2200E6
:1000C00041542B53415042523D332C312C22555335
:1000D0004552222C220041542B53415042523D3371
:1000E0002C312C2241504E222C220041542B5341C2
:1000F0005042523D332C312C22436F6E747970651F
:10010000222C22475052532200496E7465726E654C
:100110007420636F6E6E656374204F4B212D005702
:10012000616974204950000A4661696C6564206306
:100130006F6E6E65637420696E7465726E657400AF
:10014000496E7465726E657420636F6E6E6563745C
:10015000204F4B212D0057616974204950000A49F6
:100160006E7465726E6574204854545020636F6ECF
:100170006E656374202E2E0041542B485454505009
:100180004152413D22434944222C310041542B48E5
:10019000545450494E49540041542B4854545053E0
:1001A000534C3D310041542B4854545053534C3D13
:1001B000300041542B4854545052454144004F4E56
:1001C000004F464600446576696365202E2E006E1A
:1001D0006F20636F6D706172650054656C20636F92
:1001E0006D70617265006E6F20636F6D7061726516
:1001F00000204572726F72733A2000546F74616C04
:100200003A20005B5061796C6F61645D2000546836
:1002100065206E756D626572206F662073657276FB
:100220006572206572726F727320657863656564AC
:100230006564203230004572726F72732065786396
:10024000656564656400436F6E6E656374206572F6
:10025000726F72000A485454505F73736C3A207383
:100260006574204F464620737563636573736675C6
:100270006C6C7921000A485454505F73736C3A20B7
:10028000736574204F4E2073756363657373667571
:100290006C6C7921000A4E6F20696E7465726E6510
:1002A0007420636F6E6E656374696F6E00455252A1
:1002B0004F520052657175657374696E67202E2EFA
:1002C000205761697400746F53656E642E6C656E9F
:1002D0006774683A20004154202B20434D47462044
:1002E0003D20310041542B435343533D2247534D4E
:1002F000220041542B434C49503D310041542B4383
:100300004D47463D310041542B4346554E3D31004B
:10031000415445300041542B4950523D313932301F
:1003200030004154004154004154004154004154B4
:100330000041542B47534E0041542B435245473FF5
:10034000004D454741464F4E00696E7465726E65BB
:100350007400696E7465726E6574004D6567610046
:100360004265656C696E6500696E7465726E657470
:100370002E6265656C696E652E7275006265656CCE
:10038000696E65006265656C696E6500696E7465AD
:10039000726E65742E6265656C696E652E7275008D
:1003A000426565004D545300696E7465726E6574E4
:1003B0002E6D74732E7275006D7473006D747300FE
:1003C000696E7465726E65742E6D74732E7275002D
:1003D0004D54530041542B434F50533F004750520C
:1003E0005320636F6E6E656374202E2E00727373DC
:1003F00069202E2E000A5265676973746572656400
:1004000020726F616D696E67000A556E6B6E6F7753
:100410006E000A44656E696564000A4E6F7420724E
:1004200065676973746572656420287365617263BA
:1004300068696E6729000A52656769737465726539
:10044000642028686F6D6529000A4E6F74207265FC
:100450006769737465726564003A20000A4E6574BA
:10046000776F726B2073746174757320002E000AAD
:1004700053657474696E67207570206D6F62696C66
:1004800065206E6574776F726B2E2E2E000A494DB3
:1004900045493A004F4B00436F756C646E277420DA
:1004A00066696E64206D6F64756C652047505253A9
:1004B00000506F7765722053494D383030204F6EB1
:1004C00000496E697469616C697A696E672E2E2EB7
:1004D0002E284D61792074616B6520352D313020D7
:1004E0007365636F6E647329000A53494D38303069
:1004F00020736574757020656E6400416C6C2053C8
:100500004D532064656C657465000A6672656520EC
:100510006D656D6F72793A2000496E74657276610F
:100520006C207365633A00436C65617220454550E9
:10053000524F4D20456E6400537461727420636C99
:1005400065617220454550524F4D004F4B000A5394
:10055000494D383030207365747570207374617242
:10056000740041542B434D47523D310041542B43BD
:100570004D47443D3100446576696365204F4E0028
:10058000446576696365204F464600496E7465721E
:1005900076616C2070696E67207365633A000A6645
:1005A000726565206D656D6F72793A2000496E74D1
:1005B000657276616C207365633A00534D53206415
:1005C000656C6574650070686F6E652069676E6F35
:1005D00072656400534D532063656E747200436FFF
:1005E0006D6D616E64612074656C3100534D5320F4
:1005F00064656C65746500534D533A00005EBCE25F
:10060000613FDD83C29C7E20A3FD1F419DC3217FEE
:10061000FCA2401E5F01E3BD3E6082DC237D9FC1E2
:10062000421CFEA0E1BF5D0380DE3C62BEE0025CD6
:10063000DF81633D7C22C09E1D43A1FF4618FAA4C2
:1006400027799BC584DA3866E5BB5907DB856739AE
:10065000BAE406581947A5FB7826C49A653BD987A2
:10066000045AB8E6A7F91B45C6987A24F8A6441A96
:1006700099C7257B3A6486D85B05E7B98CD2306E82
:10068000EDB3510F4E10F2AC2F7193CD114FADF36E
:10069000702ECC92D38D6F31B2EC0E50AFF1134D62
:1006A000CE90722C6D33D18F0C52B0EE326C8ED056
:1006B000530DEFB1F0AE4C1291CF2D73CA94762842
:1006C000ABF517490856B4EA6937D58B5709EBB52E
:1006D00036688AD495CB2977F4AA4816E9B7550B22
:1006E00088D6346A2B7597C94A14F6A8742AC89616
:1006F000154BA9F7B6E80A54D7896B3500000000FE
:10070000240027002A000000000800020100000366
:1007100004070000000000000000556E6B6E6F774C
:100720006E20636F6D6D616E64004465766963650C
:10073000204F4646004465766F66660044657669DC
:100740006365204F4E004465766F6E0048545450E8
:100750002053534C204F46460053736C6F6666001F
:10076000485454502053534C204F4E0053736C6FD9
:100770006E0054696D656F66660054696D656F66DD
:1007800066005265737461727400526573746172AD
:10079000740054696D657365740041542B43494975
:1007A00043520041542B435354543D22696E7465A7
:1007B000726E6574220041542B435354543D226998
:1007C0006E7465726E65742E6265656C696E652EF9
:1007D0007275220041542B435354543D22696E7468
:1007E00065726E65742E6D74732E727522000A4EDA
:1007F0006F204750525320636F6E6E656374696F4C
:100800006E004552524F52003E0041542B43474127
:1008100054543F000A4E6F204750525320636F6E6E
:100820006E656374696F6E004552524F52004154B9
:100830002B435245473F002E2E204F6B21002E2E7A
:100840002066616C736521000A50696E67202D3E39
:1008500020002E2E204F6B210050696E67202D3E08
:10086000200041542B4353510041542B48545450C1
:10087000414354494F4E3D300041542B485454504D
:10088000504152413D2255524C222C220041542BC2
:10089000485454505445524D0041542B53415042FA
:1008A000523D322C310041542B434950534855544A
:1008B0000041542B434950534855540041542B4355
:1008C000495050494E473D220041542B434946531D
:1008D000520000000000250028002B00000000004E
:1008E0002300260029000404040404040404020272
:1008F000020202020303030303030102040810209F
:100900004080010204081020010204081020415414
:100910002B434D4744413D2244454C20414C4C2201
:100920000000407A10F35A00A0724E18090010A57A
:10093000D4E80000E87648170000E40B54020000F9
:10094000CA9A3B000000E1F505000080969800007F
:100950000040420F000000A08601000000102700A8
:10096000000000E803000000006400000000000A2E
:1009700000000000000100000000002C76D888DC98
:10098000674F0823DFC1DFAE59E1B1B796E5E3E475
:1009900053C63AE651997696E8E6C28426EB898CEE
:1009A0009B62ED407C6FFCEFBC9C9F40F2BAA56F50
:1009B000A5F490055A2AF75C936B6CF9676DC11B1F
:1009C000FCE0E40D47FEF520E6B500D0ED902E03E7
:1009D00000943577050080841E080000204E0A0030
:1009E0000000C80C333333330F986E12831141EF7C
:1009F0008D2114893BE65516CFFEE6DB18D1844BDA
:100A0000381BF77C1D901DA4BBE424203284725E49
:100A1000228100C9F124ECA1E53D2700412D052DDF
:100A200011241FBECFEFD8E0DEBFCDBF12E0A0E0A3
:100A3000B1E0EEEDFCE602C005900D92AC37B107D7
:100A4000D9F725E0ACE7B2E001C01D92A431B207AE
:100A5000E1F715E0CFE0D5E004C02197FE010E9448
:100A6000DB2ECE30D107C9F70E9461240C94623688
:100A70000C9400001F93CF93DF931F92CDB7DEB786
:100A8000162F682F8AE049830E943611612F8EE06D
:100A90000E9436114981642F8FE00F90DF91CF9132
:100AA0001F910C94361180919A0290919B02892B90
:100AB00029F440E060E081E00E943A0580919A02CA
:100AC00090919B020197D9F420917C0230917D0294
:100AD00081E090E0232B11F080E090E090937D0284
:100AE00080937C0280917C0290917D0240E060E0E6
:100AF000892B11F481E001C080E00E943A058091C9
:100B00009A0290919B020297D9F420917C02309135
:100B10007D0281E090E0232B11F080E090E0909343
:100B20007D0280937C0280917C0290917D02892BD2
:100B300011F440E001C041E060E080E00E943A052D
:100B400080919A0290919B020397D9F420917C02A4
:100B500030917D0281E090E0232B11F080E090E065
:100B600090937D0280937C0280917C0290917D0223
:100B700040E0892B11F460E001C061E080E00C945A
:100B80003A050895FC01808191810C94FB350F9307
:100B90001F93CF93DF931F92CDB7DEB78C0169838C
:100BA0000E94C2056981681729F0F801808191814E
:100BB0000E940336C8010F90DF91CF911F910F91D2
:100BC0000895CF93DF9300D000D0CDB7DEB7BE013C
:100BD0006D5F7F4F80EA90E00E9417186B817C81E7
:100BE0006F5F7F4F7C836B8380EA90E09A83898379
:100BF000CE0101960E94C7056C8181EA90E09A833C
:100C00008983CE0101960E94C7050F900F900F9027
:100C10000F90DF91CF9108952F923F924F925F9264
:100C20006F927F928F929F92AF92BF92CF92DF92FC
:100C3000EF92FF920F931F93CF93DF93CDB7DEB761
:100C4000CB57D1090FB6F894DEBF0FBECDBF81ECF4
:100C500093E00E94DA148EEA93E00E94DA148BE9A2
:100C600093E00E94DA1481EC93E00E94451F6B012F
:100C70007C018EEA93E00E94451F4B015C018BE9E9
:100C800093E00E94451F2B013C01A5019401C7017F
:100C9000B6010E94E22EA30192010E94E22E2FE8EB
:100CA00032EC41EB52E40E94E22EEA966CAF7DAF4B
:100CB0008EAF9FAFEA970E94EC1EEC969FAF8EAF6F
:100CC000EC97E6961FAE1EAEE697BE016C587F4FBE
:100CD00080EA90E00E94171884E480937C00809161
:100CE0007A00806480937A0080917A0086FDFCCF40
:100CF0002090780080917900312C382A8CE00E9475
:100D00000D118C0184E091E09A838983CE010196D4
:100D10000E94C20580939C02E0961FAE1EAEE09733
:100D2000E2961FAE1EAEE297E4961FAE1EAEE497AB
:100D30004AE0BE016F5F7F4F90E00E946432BE01C7
:100D40006F5F7F4FCE0182599F4F0E94C82261E0A2
:100D500070E0012B11F460E070E04AE0CE018859A8
:100D60009F4F0E942B234AE0B101CE018E599F4F25
:100D70000E942B2322E0EA964CAD5DAD6EAD7FADB7
:100D8000EA97CE01845A9F4F0E94FB2264EC71E0E7
:100D9000CE01C8960E948E2368E670E0CE010196CF
:100DA0000E945723CE0101960E94CD1A182FCE0122
:100DB00001960E94F622113009F047C06DE070E004
:100DC0008AE094E00E943830009709F43EC08C011C
:100DD0000E5F1F4F6DE070E0C8010E943830009731
:100DE00011F0DC011C92B8018AE094E00E944C30C2
:100DF000EAE0F4E08191282F082E000C330B2853F1
:100E0000314061F090ED980F9A3020F4DF01AB563D
:100E1000BF4F8C9324E0E238F20761F760E770E09F
:100E20008EEF92E00E94FE2360EA74E0CE01C89645
:100E30000E94C822CE01C8960E94931CBE01685C25
:100E40007F4F8EEF92E00E943B24CE0101961C0161
:100E500004E610E01BA30AA3CE0182960E94C205FD
:100E6000D1018D931D010F5F1F4F0137110591F7C0
:100E7000BE016F5F7F4FCE01C2960E948E236AE350
:100E800071E0CE0182960E948E23BE016E5C7F4F80
:100E9000CE0182960E948D22BC01CE01C2960E9494
:100EA000DF22CE0182960E94F62254E0252E54E0E5
:100EB000352E0CED10E01BA30AA3CE0182960E94F2
:100EC000C205F10181931F010F5F1F4F023E110503
:100ED00091F76FE371E0CE0182960E948E23BE01EE
:100EE0006E5C7F4FCE0182960E948D226FE371E08F
:100EF0000E94742261E471E00E947422BE01685C69
:100F00007F4F0E948D22BC01CE018A5A9F4F0E94C2
:100F10008523CE0182960E94F622CE01C2960E94BF
:100F2000F622CE01C8960E94F622E6966EAD7FADFF
:100F3000E6974AE0CE01805B9F4F0E942B23609191
:100F400085027091860280918702909188022C968A
:100F50001FAE1EAE2C972E961FAE1EAE2E9760961D
:100F60001FAE1EAE60972AE0AE014F5F5F4F0E943A
:100F70004232BE016F5F7F4FCE01865B9F4F0E9462
:100F8000C8224AE0EC966EAD7FADEC97CE01CE96CE
:100F90000E942B2322E0B301A201CE01C8960E9439
:100FA000FB2222E0B501A401CE01C2960E94FB22E1
:100FB00022E0B701A601CE0182960E94FB2266E4E0
:100FC00071E0CE0101960E948E236EEF73E0CE0198
:100FD00001960E948D226FE371E00E9474226AE400
:100FE00071E00E947422BE016E5D7F4F0E948D22CF
:100FF0006FE371E00E9474226EE471E00E9474223B
:10100000BE016E5C7F4F0E948D226FE371E00E94F3
:10101000742262E571E00E947422BE01685C7F4F19
:101020000E948D226FE371E00E94742266E571E0F8
:101030000E947422BE01625C7F4F0E948D226FE38A
:1010400071E00E9474226BE571E00E947422BE017F
:10105000665B7F4F0E948D226FE371E00E947422D5
:1010600060E671E00E947422BE01605B7F4F0E94C7
:101070008D22BE016A5A7F4F0E948D226FE371E07C
:101080000E94742265E671E00E947422BE01645AD7
:101090007F4F0E948D226FE371E00E9474226AE606
:1010A00071E00E947422BE016E597F4F0E948D2212
:1010B0006FE371E00E9474226FE671E00E94742277
:1010C000BE0168597F4F0E948D226FE371E00E943C
:1010D000742264E771E00E947422BE0162597F4F5E
:1010E0000E948D228E010C5B1F4FBC01C8010E9423
:1010F0008523CE0101960E94F622CE0182960E949F
:10110000F622CE01C2960E94F622CE01C8960E9417
:10111000F622CE01CE960E94F622CE01865B9F4F2C
:101120000E94F622CE01805B9F4F0E94F622CE01E4
:101130008A5A9F4F0E94F622CE01845A9F4F0E94E6
:10114000F622CE018E599F4F0E94F622CE01885979
:101150009F4F0E94F622CE0182599F4F0E94F62295
:1011600066EC72E08EEF92E00E94FE23D8011496A6
:101170006D917C91159780E090E04AE00E94411CBF
:101180008EEF92E00E943724E12CF12CE7960FAF0E
:10119000E797EB961FAFEB97A12CB12CE7966FADBD
:1011A000E797EB967FADEB97CE01865B9F4F0E9452
:1011B000852363EB72E08EEF92E00E94FE2341E014
:1011C00060E080E00E943A0500E010E06EE571E02A
:1011D0008EEF92E00E944D246BEE70E0CE010196FE
:1011E0000E945723CE0101960E94CD1AD82ECE011F
:1011F00001960E94F622DD2009F4DBC066ED70E066
:101200008091ED049091EE040E94FE2362EC74E064
:101210008091ED049091EE040E94F0238091ED0402
:101220009091EE040E94501B6AED74E0CE0101968D
:101230000E948523CE0101960E94CD1AD82ECE01A0
:1012400001960E94F622DD2009F4B3C060EC70E044
:101250008091ED049091EE040E94FE2368EC74E00E
:101260008091ED049091EE040E94F0238091ED04B2
:101270009091EE040E94501B6AED74E0CE0101963D
:101280000E948523CE0101960E94CD1AD82ECE0150
:1012900001960E94F622DD2009F48BC06BEA70E013
:1012A0008091ED049091EE040E94FE236EEC74E0B8
:1012B0008091ED049091EE040E94F0238091ED0462
:1012C0009091EE040E94501B6AED74E0CE010196ED
:1012D0000E948523CE0101960E94CD1AD82ECE0100
:1012E00001960E94F622DD2009F463C067E970E0F0
:1012F0008091ED049091EE040E94FE2364ED74E071
:101300008091ED049091EE040E94F0238091ED0411
:101310009091EE040E94501B6AED74E0CE0101969C
:101320000E948523CE0101960E94CD1AD82ECE01AF
:1013300001960E94F622DD20E1F188E99AE390937C
:10134000E9048093E80468E870E08EEF92E00E9480
:10135000FE2381E090E00E94AA1D6BE770E0CE01C1
:1013600001960E945723CE0101960E94CD1ACE010C
:1013700001960E94F62280ED97E09093E904809315
:10138000E80480919A0290919B02039739F062E3FE
:1013900070E080E090E00E94A211F3CF66E571E07A
:1013A0008EEF92E00E944D240E947A1D60E471E06D
:1013B00024C00F5F1F4F0B30110514F0F501099584
:1013C00067E271E08EEF92E00E944D2468EE73E0D8
:1013D00080E090E00E94A21180919A0290919B027D
:1013E000039709F0F3CE6FE171E08EEF92E00E9477
:1013F0004D240E947A1D69E071E08EEF92E00E9418
:101400004D2400E010E080E1882E87E2982E90EDD8
:10141000C92E97E0D92E9092E9048092E8046CE8F6
:1014200071E0CE0182960E945723CE0182960E94DF
:10143000CD1A882399F068E771E0CE0101960E94E9
:101440005723CE0101960E94CD1A772473948111FF
:10145000712CCE0101960E94F62202C0772473946B
:10146000CE0182960E94F6227720B9F11092B6043E
:10147000D092E904C092E80469E771E08EEF92E04F
:101480000E945F248AE094E00E94071C6AE074E0F6
:10149000CE0182960E948E236DEA72E0CE01019603
:1014A0000E945723BE016F5F7F4FCE0182960E943C
:1014B0000D223C01CE0101960E94F62277FC17C056
:1014C00065E972E08EEF92E00E944D2468EE73E0D1
:1014D00080E090E00E94A2110AC081E08093B604EF
:1014E00000ED17E080910401811115C033C00E9406
:1014F000DD1D68EE73E080E090E00E94A2110F5FB6
:101500001F4F0135110514F0F5010995CE018296A2
:101510000E94F62280CF80EA9FE09093E9048093B6
:10152000E80468E971E0CE0101960E945723CE01DC
:1015300001960E94CD1AD82ECE0101960E94F62265
:10154000F1E0DF1204C01093E9040093E80465E7BA
:1015500072E01EC080EA9FE09093E9048093E80463
:1015600065EA71E0CE0101960E945723CE010196F3
:101570000E94CD1AD82ECE0101960E94F62221E0BB
:10158000D21204C01093E9040093E80464E572E009
:101590008EEF92E00E944D24809104018823F9F09F
:1015A0006BE771E08EEF92E00E945F246FE38EEFB5
:1015B00092E00E94E923BE01665B7F4F8EEF92E0CE
:1015C0000E943B24BE01665B7F4FCE0101960E94C4
:1015D0008523BE016F5F7F4F8BE791E01EC062E9FC
:1015E00071E08EEF92E00E945F246FE38EEF92E055
:1015F0000E94E923BE01665B7F4F8EEF92E00E945E
:101600003B24BE01665B7F4FCE0101960E9485237D
:10161000BE016F5F7F4F82E991E00E94751ECE018F
:1016200001960E94F6228091810290918202A091FF
:101630008302B09184020196A11DB11D80938102A5
:1016400090938202A0938302B0938402109280024E
:1016500048E95AE368EA71E08DEA91E00E94FB1DD7
:10166000823020F084E08093B6041EC081111CC03B
:101670006EE28EEF92E00E94C00F13E3115041F32F
:101680008091ED049091EE04DC01ED91FC910480D9
:10169000F581E02D0995892BD9F66FE070E080E0A7
:1016A00090E00E94A211EACF8091B6048430E1F567
:1016B00066E472E08EEF92E00E944D2480918502F4
:1016C00090918602A0918702B09188020196A11D97
:1016D000B11D8093850290938602A0938702B093F8
:1016E00088020E94E1058091850290918602A09176
:1016F0008702B09188024597A105B10570F066E3B5
:1017000072E08EEF92E00E944D2468EB7BE080E077
:1017100090E00E94A211F501099568EB7BE080E062
:1017200090E00E94A21194C38EEF92E00E943724B1
:1017300062EB71E08091ED049091EE040E944D24E3
:1017400083E08093B6041092BD040E94DC11609384
:10175000BE047093BF048093C0049093C1040AE454
:101760006091E6047091E70440E157E283EB91E079
:101770000E94FB1D8130A1F71092BD046AED74E058
:10178000CE0101960E9485236FEB71E0CE01019698
:101790000E94272281110BC00E94B31ABE016F5F05
:1017A0007F4F8091ED049091EE040E943B240E94B3
:1017B000DC111B012C0110E08091ED049091EE04EE
:1017C000DC01ED91FC910480F581E02D0995892BD8
:1017D00009F44CC08091ED049091EE04DC01ED9190
:1017E000FC910680F781E02D0995153950F0E5E56B
:1017F000F4E0AAE0B4E0902F01900D929A95E1F701
:101800001AE4DD24D394D10EE12FF0E0E65FFB4F24
:101810008083ED2DF0E0E65FFB4F108262EC71E01B
:101820008AE094E00E945330892BF9F0CE010196B2
:101830000E94F6228AE094E00E94BA316C016AEDBF
:1018400074E0CE0101960E948523CE0101960E948C
:10185000CD1ACE0101960E94F622B5E9CB16D1042D
:10186000A0F045E9C42ED12C10C01D2D0E94DC1122
:10187000DC01CB0182199309A409B50984369105CD
:10188000A105B10508F498CFD1CFF601E65FFB4F73
:101890001082CD2809F464CF8091B604843029F5F4
:1018A0008091850290918602A0918702B091880272
:1018B0000196A11DB11D8093850290938602A0938D
:1018C0008702B09388020E94E10580918502909181
:1018D0008602A0918702B09188024597A105B105C3
:1018E00008F41BCF6EE072E00CCF63E072E08EEF85
:1018F00092E00E94FE238AE094E00E94071C6AE0C6
:1019000074E0CE01CE960E948E2381E08093800207
:1019100065EC71E0CE0101960E948E23BE016F5FDF
:101920007F4FCE01CE960E940D228C01CE010196F2
:101930000E94F62217FD9BC067EC71E0CE01019674
:101940000E948E23BE016F5F7F4FCE01CE960E9414
:101950000D229BA38AA3CE0101960E94F6226BEC76
:1019600071E0CE0101960E948E23BE016F5F7F4F12
:10197000CE01CE960E940D229DA38CA3CE0101968E
:101980000E94F6226FEC71E0CE0101960E948E2338
:10199000BE016F5F7F4FCE01CE960E940D229FA3A6
:1019A0008EA3CE0101960E94F62263ED71E0CE0176
:1019B00001960E948E23BE016F5F7F4FCE01CE96AF
:1019C0000E940D2299A788A7CE0101960E94F622B7
:1019D00067ED71E0CE0101960E948E23BE016F5F1C
:1019E0007F4FCE01CE960E940D229BA78AA7CE01E3
:1019F00001960E94F6226BED71E0CE0101960E94E5
:101A00008E23BE016F5F7F4FCE01CE960E940D22C6
:101A10009DA78CA7CE0101960E94F6226FED71E082
:101A2000CE0101960E948E23BE016F5F7F4FCE01D3
:101A3000CE960E940D229FA78EA7CE0101960E94EE
:101A4000F62224968EAD9FAD2497892B61F00EADC2
:101A50001FAD63E270E0C8010E943830009719F0B2
:101A6000801B910B02C08FEF9FEF99AB88ABCE012B
:101A700082966C011E0190E3290E311C28E0422E53
:101A80005524539434E0632E77247394D6014D91FA
:101A90005D916D014A01B5E08B0E911C4D5F5F4F6A
:101AA0009401BE01625C7F4FCE01C8960E94A323C1
:101AB000CE01C8960E94BB208B01CB010E94AA1DBB
:101AC000F60120813181A401BE01625C7F4FCE010D
:101AD00001960E94A32388AD99AD0097A9F0698172
:101AE0007A816115710571F04AAD5BAD2D813E8142
:101AF0004217530738F00E944C308D819E819DAF74
:101B00008CAF12C00E94223189819A8199AF88AF2F
:101B10008B819C819BAF8AAF8D819E819DAF8CAF65
:101B20001A8219821C821B821E821D82CE0101969E
:101B30000E94F62210927E02BE01685C7F4F8EEFFB
:101B400092E00E943B24BE01685C7F4FCE01C296AA
:101B50000E94852364961CAE1DAE1EAE1FAE649718
:101B60000330110509F4A2C044F40130110581F0DD
:101B70000230110509F454C010C10530110509F4F3
:101B8000D5C00CF4C7C00630110509F4DBC005C18F
:101B9000CE01C2960E94BB2064966CAF7DAF8EAF23
:101BA0009FAF64970E94841C64968CAD9DADAEADD2
:101BB000BFAD6497AC01BD014E5151096109710976
:101BC000433651456140710500F540910501509142
:101BD0000601609107017091080184179507A60717
:101BE000B70799F020919D0221110FC08093050144
:101BF00090930601A0930701B0930801BE01605BBA
:101C00007F4F88EC90E00E94E4176091050170918D
:101C1000060180910701909108010E94841CBDC0BB
:101C2000BE016F5F7F4F84E690E00E94B117CE0146
:101C300001960E94071CBE016F5F7F4FCE01C296C6
:101C40000E94272281112FC066EE71E08EEF92E094
:101C50000E944D2400E010E08EA99FA908171907E3
:101C600020F4EAA9FBA9309729F410927E02EEE74E
:101C7000F2E002C0E00FF11F6081C8018C599F4F54
:101C80000E943E180F5F1F4F0D30110529F7BE014E
:101C90006F5F7F4F84E690E00E94B117CE010196FE
:101CA0000E94071C7AC06AED71E073C0BE016F5FCD
:101CB0007F4F8CED90E00E94B117BE016F5F7F4FA8
:101CC000CE01C2960E942722811167C06FEC71E09D
:101CD0008EEF92E00E944D2400E010E08EA99FA9B3
:101CE0000817190720F4EAA9FBA9309729F41092E4
:101CF0007E02EEE7F2E002C0E00FF11F6081C80152
:101D000084529F4F0E943E180F5F1F4F0D301105E8
:101D100029F743C0CE01C2960E94BB2061307105F5
:101D200081059105D1F510927F0237C0CE01C29690
:101D30000E94BB20613071058105910571F51092FB
:101D40009D022BC05A824982CE0101960E94C20593
:101D5000811123C0CE01C2960E94BB20162F7A8229
:101D60006982CE0101960E94C2051817B1F0612F59
:101D700084E091E00E943E1865EC71E08EEF92E005
:101D80000E944D24111103C061EC71E002C06EEBA2
:101D900071E08EEF92E00E944D24CE01C2960E9427
:101DA000F622CE01C8960E94F622C214D30409F08E
:101DB0006DCE6BEF71E08EEF92E00E94FE2360919A
:101DC00081027091820280918302909184024AE0A4
:101DD0000E94411C8091850290918602A091870209
:101DE000B0918802892B8A2B8B2B89F061EF71E0EF
:101DF0008EEF92E00E94FE23609185027091860230
:101E000080918702909188024AE00E94411C8EEFE7
:101E100092E00E94372463EE71E08EEF92E00E9420
:101E20005F246091050170910601809107019091F6
:101E300008010E94841C0E94DD1D40E061E080E0FA
:101E40000E943A0570908002CE01CE960E94F62242
:101E5000CE01865B9F4F0E94F622711019C02FEFB2
:101E6000E21AF20A6DEE71E08EEF92E00E945F24BA
:101E7000C7010E94AA1D88E0E816F10414F00E9430
:101E8000401868E873E180E090E00E94A21186C9E2
:101E9000CE018C5B9F4F0E94F622C558DF4F0FB6D4
:101EA000F894DEBF0FBECDBFDF91CF911F910F9190
:101EB000FF90EF90DF90CF90BF90AF909F908F906A
:101EC0007F906F905F904F903F902F900895FC010E
:101ED000918D828D981761F0828DDF01A80FB11D61
:101EE0005D968C91928D9F5F9F73928F90E0089585
:101EF0008FEF9FEF0895FC01918D828D981731F03F
:101F0000828DE80FF11D858D90E008958FEF9FEF92
:101F10000895FC01918D228D892F90E0805C9F4F68
:101F2000821B91098F73992708958EEF92E00E948A
:101F3000890F21E0892B09F420E0822F0895FC010C
:101F4000848DDF01A80FB11DA35ABF4F2C91848D42
:101F500090E001968F739927848FA689B7892C9377
:101F6000A089B1898C9180648C93938D848D981312
:101F700006C00288F389E02D80818F7D80830895DB
:101F8000EF92FF920F931F93CF93DF93EC0181E0C9
:101F9000888F9B8D8C8D981305C0E889F989808185
:101FA00085FD24C0F62E0B8D10E00F5F1F4F0F73C1
:101FB0001127E02E8C8DE8120CC00FB607FCFACF6B
:101FC000E889F989808185FFF5CFCE010E949F0FB6
:101FD000F1CF8B8DFE01E80FF11DE35AFF4FF08228
:101FE0000B8FEA89FB898081806207C0EE89FF89B7
:101FF0006083E889F98980818064808381E090E052
:10200000DF91CF911F910F91FF90EF900895CF93A3
:10201000DF93EC01888D8823C9F0EA89FB898081F0
:1020200085FD05C0A889B9898C9186FD0FC00FB6C2
:1020300007FCF5CF808185FFF2CFA889B9898C9103
:1020400085FFEDCFCE010E949F0FE7CFDF91CF91AB
:10205000089580E090E0892B29F00E94950F81116E
:102060000C9400000895833081F028F4813099F0B9
:102070008230A1F008958730A9F08830B9F084301B
:10208000D1F4809180008F7D03C0809180008F7794
:1020900080938000089584B58F7702C084B58F7DCA
:1020A00084BD08958091B0008F7703C08091B00007
:1020B0008F7D8093B00008953FB7F8948091B0026F
:1020C0009091B102A091B202B091B30226B5A89B43
:1020D00005C02F3F19F00196A11DB11D3FBFBA2FBA
:1020E000A92F982F8827820F911DA11DB11DBC011A
:1020F000CD0142E0660F771F881F991F4A95D1F7DF
:10210000089508950895FC0190810180F281E02DE9
:10211000892F809560FF12C0F894228182238283E8
:102120008181892B8183A3E2B0E01197F1F782814D
:10213000982B9283789487ED90E011C0F8942281D7
:10214000822382838181892B8183AFEFB0E0119755
:10215000F1F78281982B928378948FE090E0019739
:10216000F1F7089508950E9418301F920F920FB64C
:102170000F9211242F933F934F935F936F937F930D
:102180008F939F93AF93BF93EF93FF938EEF92E064
:102190000E949F0FFF91EF91BF91AF919F918F91FF
:1021A0007F916F915F914F913F912F910F900FBE53
:1021B0000F901F9018951F920F920FB60F92112437
:1021C0002F938F939F93EF93FF93E0910E03F091E2
:1021D0000F038081E0911403F091150382FD12C07A
:1021E0009081809117038F5F8F732091180382175E
:1021F00051F0E0911703F0E0E250FD4F958F80938E
:10220000170301C08081FF91EF919F918F912F91D2
:102210000F900FBE0F901F901895CF93DF93282F2C
:1022200030E0F901EA5FF84F8491F901E650F74F89
:10223000D491F901EA51F74FC491CC2391F0811167
:102240000E943310EC2FF0E0EE0FFF1FE452F74F27
:10225000A591B491EC91ED2381E090E021F480E030
:1022600002C080E090E0DF91CF9108951F93CF935B
:10227000DF93282F30E0F901EA5FF84F8491F901EC
:10228000E650F74FD491F901EA51F74FC491CC23AE
:10229000C9F0162F81110E943310EC2FF0E0EE0FE1
:1022A000FF1FEE52F74FA591B4918FB7F89411111B
:1022B00005C09C91ED2FE095E92302C0EC91ED2B38
:1022C000EC938FBFDF91CF911F910895CF93DF9350
:1022D00090E0FC01E650F74F2491FC01EA51F74FE2
:1022E0008491882361F190E0880F991FFC01E450EC
:1022F000F94FC591D491FC01EE52F74FA591B491DD
:10230000611109C09FB7F894888120958223888342
:10231000EC912E230BC0623061F49FB7F8943881A2
:10232000822F809583238883EC912E2B2C939FBF43
:1023300006C08FB7F894E8812E2B28838FBFDF91DA
:10234000CF9108958F929F92AF92BF92CF92DF92DA
:10235000EF92FF926B017C010E945C104B015C01CB
:10236000C114D104E104F104F1F00E945C10DC011D
:10237000CB0188199909AA09BB09883E9340A10598
:10238000B10570F321E0C21AD108E108F10888EE26
:10239000880E83E0981EA11CB11CC114D104E10475
:1023A000F10419F7DDCFFF90EF90DF90CF90BF9051
:1023B000AF909F908F9008952FB7F8946091AC02E2
:1023C0007091AD028091AE029091AF022FBF08953F
:1023D0001F920F920FB60F9211242F933F938F935A
:1023E0009F93AF93BF938091AC029091AD02A09167
:1023F000AE02B091AF023091AB0223E0230F2D3734
:1024000020F40196A11DB11D05C026E8230F0296F8
:10241000A11DB11D2093AB028093AC029093AD023D
:10242000A093AE02B093AF028091B0029091B1023E
:10243000A091B202B091B3020196A11DB11D80938B
:10244000B0029093B102A093B202B093B302BF91D5
:10245000AF919F918F913F912F910F900FBE0F9051
:102460001F9018951F920F920FB60F9211242F9361
:102470003F934F935F936F937F938F939F93AF930C
:10248000BF93EF93FF93E0910201F091030109954F
:10249000FF91EF91BF91AF919F918F917F916F913C
:1024A0005F914F913F912F910F900FBE0F901F9012
:1024B00018951F920F920FB60F9211242F933F93EE
:1024C0004F935F936F937F938F939F93AF93BF933C
:1024D000EF93FF93E0910001F09101010995FF91C5
:1024E000EF91BF91AF919F918F917F916F915F918C
:1024F0004F913F912F910F900FBE0F901F90189505
:10250000DC01E0E0615038F08D91E827F0E0E45024
:10251000FA4FE491F7CF8E2F0895CF92DF92EF928A
:10252000FF920F931F93CF93DF931F92CDB7DEB728
:102530006C01E62E08E010E0FF24F39461E08F2D9B
:102540008E2109F460E0C60149830E948310FF0CCC
:102550000150110949810115110581F7411115C07B
:10256000F894D6011196ED91FC91129791818C917E
:102570008095892381831196ED91FC911297928128
:102580008C9180958923828378940F90DF91CF91ED
:102590001F910F91FF90EF90DF90CF900895CF9211
:1025A000DF92EF92FF920F931F93CF93DF931F92CF
:1025B000CDB7DEB78C01F62E40E065E579830E9449
:1025C0008D12CF2C7981D72E760188E0E80EF11C90
:1025D000F60161916F0140E0C8010E948D12CE1496
:1025E000DF04B1F70F90DF91CF911F910F91FF9012
:1025F000EF90DF90CF900895FC0190810180F281EF
:10260000E02DF8948181892B81832281892F809507
:1026100028232283A7E0B0E01197F1F721818223DC
:102620008183A3E2B0E01197F1F780817894EFEC19
:10263000F0E03197F1F7982381E009F480E0089504
:10264000FC0190810180F281E02DF8948181292F95
:1026500020958223818378948DE743E050E0815078
:1026600021F1DA011197F1F730813923C1F3F894A0
:102670008281822382838181892B81837894ABE755
:10268000B7E01197F1F7F894818128232183A3E122
:10269000B1E01197F1F78081982381E009F080E0A3
:1026A0007894E3E6F6E03197F1F70895AF92BF92A0
:1026B000CF92DF92EF92FF920F931F93CF93DF930E
:1026C0001F92CDB7DEB75C01E62ED72EFC018585C3
:1026D00081115DC0C5010E942013811105C0F50163
:1026E0001386158614866BC040E060EFC5010E941A
:1026F0008D1201E0F12CC12C11E0C5010E94FC12E9
:10270000682FC50169830E94FC126981613019F448
:102710008130B9F433C04F2D50E068131BC0F50170
:102720008385181730F4E40FF51F8381802349F463
:1027300002C0181731F060E0193058F4F501148721
:1027400008C0F501EF0DF11D8381802B838361E0CB
:1027500009C0C12EF501E40FF51F9381802F8095EC
:1027600089238383C5010E9483101F5F000F11F42A
:10277000F39401E0F7E0FF1508F0BFCF113438F013
:10278000F501C386C11015C081E0858712C0F5012F
:1027900013861586148680E0D5011396EE2DFD2D47
:1027A0009501255F3F4F9D919193A217B307D9F7EC
:1027B00006C0F5018381882351F381E0EDCF0F90AE
:1027C000DF91CF911F910F91FF90EF90DF90CF900D
:1027D000BF90AF9008950F931F93CF93DF93EC01B9
:1027E000162F60E0812F0E946611612F70E0FB01BF
:1027F000E650F74FE491E883FB01EA51F74FE4918B
:10280000F0E0EE0FFF1FE452F74F859194919A8309
:1028100089831B861D861C86FE013B968E010D5FFB
:102820001F4F1292E017F107E1F7DF91CF911F914F
:102830000F9108951F920F920FB60F9211242F93AC
:102840003F934F935F936F937F938F939F93AF9338
:10285000BF93EF93FF9380918F02909190028093AA
:10286000B2008091920290919302A0919402B09153
:1028700095020196A11DB11D80939202909393023F
:10288000A0939402B09395024091920250919302CA
:10289000609194027091950280918B0290918C02CC
:1028A000A0918D02B0918E02481759076A077B07E5
:1028B000B0F080919102811112C081E08093910269
:1028C000109292021092930210929402109295022A
:1028D000E0918902F0918A02099510929102FF918C
:1028E000EF91BF91AF919F918F917F916F915F9188
:1028F0004F913F912F910F900FBE0F901F90189501
:102900006F927F928F929F92AF92BF92CF92DF92FF
:10291000EF92FF920F931F93CF93DF931F92CDB748
:10292000DEB78C01F42EFC018581968159830E94CB
:10293000CF1240E06EEBF801858196810E948D12E6
:102940006F2C5981752E5301F9E0AF0EB11CF801BF
:102950008580968088E0C82ED12CEE24E394F12C5B
:10296000C4010E94FC128111FE28EE0CF1E0CF1A86
:10297000D108B1F7F301F1923F01EA15FB0539F7F0
:10298000F801858196810E94201391E0813009F041
:1029900090E0892F0F90DF91CF911F910F91FF90C1
:1029A000EF90DF90CF90BF90AF909F908F907F90EF
:1029B0006F900895CF93DF93EC018D819E810E94EB
:1029C000201340E06CEC8D819E810E948D12488125
:1029D00064E48D819E810E948D128A818823B1F0EA
:1029E000E981E950E33040F4F0E0EE0FFF1FE15FD2
:1029F000FE4F6081718102C06EEE72E0072E000C06
:102A0000880B990BDF91CF910C94A211DF91CF919C
:102A10000895EF92FF920F931F93CF93DF9300D00F
:102A2000CDB7DEB78C017A01FC018581968169837F
:102A30007A830E94201369817A81882371F0A7012B
:102A4000C8010E948014882341F068E0C7010E94F9
:102A5000801291E0F7012085821390E0892F0F907A
:102A60000F90DF91CF911F910F91FF90EF900895FC
:102A7000CF93DF93CDB7DEB729970FB6F894DEBFBB
:102A80000FBECDBFFB0120812031D1F0AE014F5FE1
:102A90005F4F0E940915882389F08D818F3361F083
:102AA00020F48F3159F489E00CC08F3519F08F373D
:102AB00039F004C08BE005C08AE003C080E001C0AB
:102AC0008CE029960FB6F894DEBF0FBECDBFDF9124
:102AD000CF910895209198023091990228173907D3
:102AE00071F49091960280919702981741F0E091CD
:102AF0009602F0E0E254FD4F808190E008958FEF60
:102B00009FEF089508951F93CF93DF93DC015C96A8
:102B10002D913C915D972115310539F481E090E0CC
:102B200013969C938E9312973DC05196ED91FC9114
:102B3000529750969C915097892F80951FB75E961B
:102B40004C915E9741FB772770F941FD6095F894B1
:102B50004081772311F0492B01C048234083E901CC
:102B60002197F1F748E0508160FF02C0592B01C066
:102B700058235083E9012197F1F76695415099F761
:102B8000772321F090818923808303C08081982B53
:102B900090831FBF5C968D919C915D970197F1F793
:102BA00021E030E0C901DF91CF911F91089520917C
:102BB0009802309199022817390771F48091970291
:102BC0002091960290E0805C9F4F821B910960E407
:102BD00070E00E94912E089580E090E00895209189
:102BE00098023091990228173907B9F4909196020A
:102BF00080919702981789F0E0919602F0E0E254F4
:102C0000FD4F80812091960230E02F5F3F4F2F7360
:102C100033272093960290E008958FEF9FEF089559
:102C20000F931F930E94DC11A8950091BA02109196
:102C3000BB022091BC023091BD029B01201B310BD5
:102C40003093B9022093B8026093BA027093BB022A
:102C50008093BC029093BD028091B8029091B9021A
:102C6000803F9B403CF08091B8029091B9028E3F2A
:102C70009B407CF08091B8029091B90288359340D6
:102C8000E4F08091B8029091B9028636934054F1F5
:102C900014C082E090E090939B0280939A0280910E
:102CA000B6029091B70201969093B7028093B60254
:102CB0008091B6029091B70228C08091B80290919D
:102CC000B9028F35914094F18091B8029091B90288
:102CD000823791405CF583E090E090939B02809373
:102CE0009A0224C081E090E090939B0280939A0224
:102CF0008091B4029091B50201969093B5028093B1
:102D0000B4028091B4029091B5028B3F910574F0AA
:102D100010929B0210929A02809170008E7F809395
:102D20007000E0E0F0E01F910F9109941F910F9166
:102D30000895EF92FF920F931F93CF93DF93CDB738
:102D4000DEB761970FB6F894DEBF0FBECDBF8C0122
:102D5000DC011596ED91FC91169713861586148665
:102D6000DF011B9633961E92AE17BF07E1F7F801FD
:102D70001482FF24F394BE01665F7F4FF8018581C2
:102D800096810E945613882309F464C067E0CE013F
:102D90000A960E94801299898913EDCFD8018C91EF
:102DA000811126C015968D919C9116970E94201333
:102DB000BE01665F7F4FF801858196810E94CF1228
:102DC00040E064EBD80115968D919C9116970E9476
:102DD0008D12F801858196810E94FC12E82ED8019F
:102DE00015968D919C9116970E942013EE2079F1F3
:102DF000F801858196810E942013882349F0AE0155
:102E00004F5F5F4FBE01665F7F4FC8010E94801415
:102E1000D8011196EC90BE01665F7F4FC8010E94F9
:102E200038158E1518F4F801818106C0BE01665F61
:102E30007F4FC8010E943815D80111968C931197C5
:102E400014968C9114978F5F14968C9394CFD8011D
:102E5000FC92CECF61960FB6F894DEBF0FBECDBF09
:102E6000DF91CF911F910F91FF90EF9008951F92E6
:102E70000F920FB60F9211242F933F934F935F93AE
:102E80006F937F938F939F93AF93BF93EF93FF9332
:102E9000E0919802F0919902309709F451C0968D13
:102EA000A685B785858591FF04C09C91892329F467
:102EB00047C09C91892309F043C0A389B4899C91A0
:102EC0008589809589238C93868997890197F1F765
:102ED000608D718DA685B785558538E020E0CB01E2
:102EE0000197F1F7822F90E095958795282F4C91C7
:102EF000452309F02068315091F7868D81FD20959A
:102F00008091970290E001968F73992730919602F5
:102F1000381749F0A0919702B0E0A254BD4F2C930E
:102F20008093970203C0868D8160868F828D938DFA
:102F30000197F1F7A389B4899C918589892B8C939A
:102F4000FF91EF91BF91AF919F918F917F916F9181
:102F50005F914F913F912F910F900FBE0F901F9057
:102F60001895AF92BF92CF92DF92EF92FF920F939C
:102F70001F93CF93DF9300D0CDB7DEB78B016B01EA
:102F800020E1C20ED11C7B015C01A61AB70A950193
:102F90002E0D3F1D3A832983CE0101960E94C20562
:102FA000F70181937F01EC15FD0589F7C8010F90AA
:102FB0000F90DF91CF911F910F91FF90EF90DF90D5
:102FC000CF90BF90AF900895AF92BF92CF92DF9213
:102FD000EF92FF920F931F93CF93DF9300D0CDB763
:102FE000DEB78B016B0124E0C20ED11C7B015C01BA
:102FF000A61AB70A95012E0D3F1DF70161917F01B9
:103000003A832983CE0101960E94C705EC14FD0482
:1030100089F7C8010F900F90DF91CF911F910F9109
:10302000FF90EF90DF90CF90BF90AF900895EF9218
:10303000FF920F931F93CF93DF9300D0CDB7DEB7EE
:103040008C017B019A838983CE0101960E94C2057F
:10305000F70180830F5F1F4F1A830983CE0101960A
:103060000E94C205F7018183C7010F900F90DF9185
:10307000CF911F910F91FF90EF9008950C9403361C
:10308000EF92FF920F931F93CF93DF93CDB7DEB7ED
:103090002C970FB6F894DEBF0FBECDBF00E010E056
:1030A0006EE278E0CE0101960E945723CE01019690
:1030B0000E94CD1AF82ECE0101960E94F62281E0E0
:1030C000F81609F445C069E771E08EEF92E00E94BE
:1030D0005F248AE094E00E94071C6AE074E0CE015D
:1030E00007960E948E2368E278E0CE0101960E9446
:1030F0005723BE016F5F7F4FCE0107960E940D22BE
:103100007C01CE0101960E94F622F7FC0CC064E11E
:1031100078E08EEF92E00E944D2468EE73E080E04C
:1031200090E00E94A21168EE73E080E090E00E94BF
:10313000A2110F5F1F4F0D3311052CF0E091EF042A
:10314000F091F0040995CE0107960E94F622A8CFCF
:1031500068EE73E080E090E00E94A21100E010E0D1
:103160006AE078E0CE0101960E945723CE010196D5
:103170000E94CD1AF82ECE0101960E94F622E1E0BF
:10318000FE1609F445C068E078E08EEF92E00E94F8
:10319000FE238AE094E00E94071C6AE074E0CE01FE
:1031A00007960E948E2362E078E0CE0101960E948D
:1031B0005723BE016F5F7F4FCE0107960E940D22FD
:1031C0007C01CE0101960E94F622F7FC0CC06EEE47
:1031D00077E08EEF92E00E944D2468EE73E080E08D
:1031E00090E00E94A21168EE73E080E090E00E94FF
:1031F000A2110F5F1F4F0D3311052CF0E091EF046A
:10320000F091F0040995CE0107960E94F622A8CF0E
:103210008091EA04813049F028F08230A1F463EA19
:1032200077E005C064ED77E002C066EB77E0CE01A1
:1032300001960E945723CE0101960E94CD1ACE011D
:1032400001960E94F62268EE73E080E090E00E9412
:10325000A21180E197E29093E9048093E8046AE97F
:1032600077E0CE0101960E945723CE0101960E947D
:10327000CD1ACE0101960E94F62280ED97E0909340
:10328000E9048093E80400E010E0E12CF12C809147
:103290009A0290919B02039779F062E370E080E0DC
:1032A00090E00E94A2110F5F1F4F093BFBE01F0738
:1032B00074F3F7010995EBCF00E010E0E12CF12C5D
:1032C00069E578E08EEF92E00E94FE2386E492E0CA
:1032D0000E94071C86E492E00E94631B882319F079
:1032E00062E578E012C068E478E08EEF92E00E9438
:1032F000FE2380E592E00E94071C80E592E00E9498
:10330000631B882399F067E378E08EEF92E00E94D8
:103310004D242C960FB6F894DEBF0FBECDBFDF91C3
:10332000CF911F910F91FF90EF9008956EE378E099
:103330008EEF92E00E944D240F5F1F4F0830110561
:1033400014F0F701099568EE73E080E090E00E94C8
:10335000A211B6CFCF92DF92EF92FF920F931F93FD
:10336000CF93DF9300D000D000D0CDB7DEB78C0173
:103370007B0162E977E0CE0101960E945723BE01EE
:103380006F5F7F4FC8010E940D226C01CE01019634
:103390000E94F622D7FC16C088E290E0A0E0B0E0E0
:1033A0008093050190930601A0930701B093080153
:1033B00081E080939D0268E270E080E090E00E94EE
:1033C000841CC2C06AE877E0CE0101960E945723B0
:1033D000BE016F5F7F4FC8010E940D226C01CE01BC
:1033E00001960E94F622D7FC0EC0B7018EEF92E044
:1033F0000E94F02366E072E08EEF92E00E945F246C
:1034000062E877E04DC06AE777E0CE0101960E945E
:103410005723BE016F5F7F4FC8010E940D227C01C0
:10342000CE0101960E94F622F7FC05C010929D0283
:1034300062E777E085C06CE677E0CE0101960E94F6
:103440005723BE016F5F7F4FC8010E940D227C0190
:10345000CE0101960E94F622F7FC08C061E088E7E1
:1034600090E00E943E1860E677E01AC069E577E0D8
:10347000CE0101960E945723BE016F5F7F4FC801A6
:103480000E940D227C01CE0101960E94F622F7FCDB
:1034900015C060E088E790E00E943E186CE477E099
:1034A0008EEF92E00E944D2460ED77E080E090E0A6
:1034B0000E94A211E0E0F0E0099546C066E477E0E2
:1034C000CE0101960E945723BE016F5F7F4FC80156
:1034D0000E940D227C01CE0101960E94F622F7FC8B
:1034E0000DC061E084E091E00E943E1861E088E058
:1034F00091E00E943E186CE377E022C065E377E03C
:10350000CE0101960E945723BE016F5F7F4FC80115
:103510000E940D228C01CE0101960E94F62217FD19
:103520000DC060E084E091E00E943E1860E088E019
:1035300091E00E943E186AE277E002C06AE177E01B
:103540008EEF92E00E944D2426960FB6F894DEBFCF
:103550000FBECDBFDF91CF911F910F91FF90EF90E4
:10356000DF90CF9008958091ED049091EE04DC01FE
:10357000ED91FC910480F581E02D0995892B61F096
:103580008091ED049091EE04DC01ED91FC910680B8
:10359000F781E02D0995E7CF0895CF92DF92EF9262
:1035A000FF921F93CF93DF93EC016FEB71E00E94CA
:1035B0002722811109C00E94B31ABE018091ED0437
:1035C0009091EE040E943B240E94DC116B017C016F
:1035D000D0E0CAE48091ED049091EE04DC01ED911D
:1035E000FC910480F581E02D0995892BC1F1809132
:1035F000ED049091EE04DC01ED91FC910680F781E1
:10360000E02D0995D53950F0E5E5F4E0AAE0B4E005
:103610009C2F01900D929A95E1F7DAE411E01D0FCD
:10362000ED2FF0E0E65FFB4F8083E12FF0E0E65FF7
:10363000FB4F10826091E0047091E1048AE094E015
:103640000E945330892B09F56091E2047091E304E4
:103650008AE094E00E945330892BC9F4D12F0E9454
:10366000DC11AB01BC014C195D096E097F09809129
:10367000E8049091E904A0E0B0E0481759076A0710
:103680007B0708F4A7CF80E003C081E001C082E09F
:10369000DF91CF911F91FF90EF90DF90CF90089531
:1036A0000F931F93CF93DF93EC0162E20E94E92313
:1036B0008C01CE010E943724800F911FDF91CF91A2
:1036C0001F910F9108950F931F93CF93DF9300D015
:1036D00000D000D0CDB7DEB78C0169EC78E0CE0128
:1036E00001960E945723CE0101960E94CD1ACE0169
:1036F00001960E94F62268EE73E080E090E00E945E
:10370000A2116CEB78E08091ED049091EE040E94A0
:10371000FE23B8018091ED049091EE040E945F2495
:103720008091ED049091EE040E94501B68E873E1D3
:1037300080E090E00E94A2118AE692E09093E1047A
:103740008093E0048091E6049091E7049093E30471
:103750008093E20480E197E29093E9048093E80487
:103760006AED74E0CE0101960E948523CE01019698
:103770000E94CD1A182FCE0101960E94F622809148
:10378000ED049091EE041130E1F461EB78E00E94D9
:10379000FE238091E4049091E5049093E1048093EA
:1037A000E0048091E6049091E7049093E304809311
:1037B000E20480ED97E09093E9048093E80481E0CF
:1037C0001BC02091E4043091E5043093E104209380
:1037D000E0042091E6043091E7043093E304209361
:1037E000E20420ED37E03093E9042093E80466EA30
:1037F00078E00E94FE2380E026960FB6F894DEBFA4
:103800000FBECDBFDF91CF911F910F910895CF9340
:10381000DF93BC018EEF92E00E942224EC018EEF38
:1038200092E00E9437248C0F9D1FDF91CF91089565
:10383000EF92FF920F931F93CF93DF9300D0CDB7FA
:10384000DEB705E011E0855091407C019701200F23
:10385000311F3A832983CE0101960E94C205F801E7
:1038600081938F01F1E009301F0781F785E091E036
:103870000F900F90DF91CF911F910F91FF90EF90DC
:1038800008958F929F92AF92BF920F931F93CF9301
:10389000DF93CDB7DEB7A1970FB6F894DEBF0FBEAA
:1038A000CDBF19A2423008F44AE08E010F5D1F4FD0
:1038B000842E912CA12CB12CA50194010E94A52E3F
:1038C000E62FB901CA0101501109EA3014F4E05D94
:1038D00001C0E95CD801EC93232B242B252B61F745
:1038E000B8018EEF92E00E942224A1960FB6F894C0
:1038F000DEBF0FBECDBFDF91CF911F910F91BF9063
:10390000AF909F908F900895CF93DF934AE00E94ED
:10391000411CEC018EEF92E00E9437248C0F9D1F1A
:10392000DF91CF9108958F929F92AF92BF92CF92E5
:10393000DF92EF92FF920F931F93CF93DF93CDB758
:10394000DEB72C970FB6F894DEBF0FBECDBF7C015B
:1039500064EC71E0CE0101960E948E2363E772E071
:10396000CE0107960E948E23AE014F5F5F4FBE01CE
:10397000695F7F4FC7010E94C620CE0107960E9453
:10398000F622CE0101960E94F62264EC71E0CE018F
:1039900001960E948E236DE072E0CE0107960E9490
:1039A0008E23AE014F5F5F4FBE01695F7F4FC7013E
:1039B0000E94C620CE0107960E94F622CE010196F3
:1039C0000E94F62264EC71E0CE0101960E948E23E3
:1039D00063EC71E0CE0107960E948E23AE014F5F2B
:1039E0005F4FBE01695F7F4FC7010E94C620CE01B5
:1039F00007960E94F622CE0101960E94F62264EC00
:103A000071E0CE0101960E948E2361E672E0CE0144
:103A100007960E948E23AE014F5F5F4FBE01695F24
:103A20007F4FC7010E94C620CE0107960E94F62252
:103A3000CE0101960E94F622D701CD90DC9011971D
:103A4000C114D10409F443C014960D911C9115972B
:103A500001151105E1F146015401BFEF8B1A9B0AD4
:103A6000F5018081082E000C990B0E94E434892B0B
:103A700099F7015011090C0D1D1DD8018C91082ECC
:103A8000000C990B0E94E434892B81F4A8014F5F4C
:103A90005F4F4A195B09F70155834483CA14DB045D
:103AA00058F4B501C6010E941D3006C00A151B0559
:103AB00068F301501109E1CFD701ED91FC91119705
:103AC00014968D919C911597E80FF91F10822C96F2
:103AD0000FB6F894DEBF0FBECDBFDF91CF911F911F
:103AE0000F91FF90EF90DF90CF90BF90AF909F909D
:103AF0008F9008951F93CF93DF9300D000D000D014
:103B0000CDB7DEB788E99AE39093E9048093E8049F
:103B100069E978E0CE0101960E945723CE01019613
:103B20000E94CD1A182FCE0101960E94F622112371
:103B300031F080ED97E09093E9048093E80481E010
:103B400026960FB6F894DEBF0FBECDBFDF91CF91A2
:103B50001F910895CF92DF92EF92FF92CF93DF9360
:103B60006C01990FEE08FF08F7FE14C06DE28EEFAE
:103B700092E00E94E923EC0166277727CB016C19BC
:103B80007D098E099F094AE00E94411C7C01EC0ED0
:103B9000FD1E06C04AE0C701B6010E94411C7C011F
:103BA0008EEF92E00E9437248E0D9F1DDF91CF9102
:103BB000FF90EF90DF90CF900895CF93DF9300D0E8
:103BC00000D000D0CDB7DEB76DE878E0CE01019629
:103BD0000E945723CE0101960E94CD1ACE01019674
:103BE0000E94F62226960FB6F894DEBF0FBECDBF18
:103BF000DF91CF910895DF92EF92FF920F931F9381
:103C0000CF93DF937C018B01EA018AE4D82E809167
:103C1000ED049091EE04DC01ED91FC910480F581BE
:103C2000E02D0995892BE1F18091ED049091EE044E
:103C3000DC01ED91FC910680F781E02D09959091D2
:103C4000BD04953958F0D092BD04E5E5F4E0AAE052
:103C5000B4E09D2D01900D929A95E1F7A091BD04DD
:103C6000E1E0EA0FE093BD04B0E0A65FBB4F8C93A8
:103C7000F0E0E65FFB4F1082B7018AE094E00E941B
:103C80005330892B39F50115110509F2B8018AE085
:103C900094E00E945330892B09F4B9CF82E01DC013
:103CA0000E94DC110091BE041091BF042091C00459
:103CB0003091C104AB01BC01401B510B620B730B73
:103CC000CE01A0E0B0E0481759076A077B0720F053
:103CD00083E003C081E001C080E0DF91CF911F91BC
:103CE0000F91FF90EF90DF900895EF92FF920F9366
:103CF0001F93CF93DF9300D000D000D0CDB7DEB7B5
:103D00007C018B0169E778E08091ED049091EE04ED
:103D10000E94FE23B7018091ED049091EE040E9471
:103D20005F24F80180819181892BC9F58091ED0490
:103D30009091EE040E94501B64EF71E080E090E0EF
:103D40000E94A2116AED74E0CE0101960E948523C3
:103D5000CE0101960E94CD1A182FCE0101960E9425
:103D6000F6221123C1F069E678E08091ED0490918C
:103D7000EE040E944D2482E08093B6041092BD04AC
:103D80000E94DC116093BE047093BF048093C00452
:103D90009093C10413C084E08093B6040FC06FE316
:103DA0008091ED049091EE040E94E923B801809186
:103DB000ED049091EE040E94F023B8CF80E02696A7
:103DC0000FB6F894DEBF0FBECDBFDF91CF911F912C
:103DD0000F91FF90EF900895CF93DF9300D000D024
:103DE00000D0CDB7DEB762E678E0CE0101960E9442
:103DF0005723CE0101960E94CD1ACE0101960E9452
:103E0000F62266E772E08AE094E00E945330009761
:103E100051F005960E94BA318336910521F08F3F0B
:103E20002FEF920711F480E090E026960FB6F894F9
:103E3000DEBF0FBECDBFDF91CF910895CF93DF934B
:103E4000EB01DC011596ED91FC9116971386158612
:103E50001486DF011B9633961E92AE17BF07E1F75B
:103E6000BE01FC01858196810E945613882349F08A
:103E700067E0CE010E9480129F81891302C081E019
:103E800001C080E0DF91CF9108950F931F93CF93EE
:103E9000DF93CDB7DEB761970FB6F894DEBF0FBEE4
:103EA000CDBF8C01BE01665F7F4F0E941E1F811136
:103EB00005C060E070E08EEF92EC4BC0AE014F5F4A
:103EC0005F4FBE01665F7F4FC8010E9409158823BE
:103ED00059F1698148E0649FB00111248A81282F3B
:103EE00030E0322F2227330F330F330F262B372B9F
:103EF0008A858031E1F4688570E08F81AB01481BD1
:103F00005109CA019695982F8827979587950E9401
:103F1000912E60517109207F53E0220F331F5A9573
:103F2000E1F7620F731F04C060E874EE01C0B901CD
:103F3000613854EE75070CF4BCCF072E000C880BCB
:103F4000990B0E94FF3420E030E040E05CE30E94E7
:103F50003A3561960FB6F894DEBF0FBECDBFDF9144
:103F6000CF911F910F910895CF92DF92EF92FF9220
:103F70000F931F93CF93DF936C017A018B01C0E005
:103F8000D0E0CE15DF0589F0D8016D918D01D60105
:103F9000ED91FC910190F081E02DC6010995892BEE
:103FA00011F47E0102C02196ECCFC701DF91CF91C1
:103FB0001F910F91FF90EF90DF90CF9008950F9396
:103FC0001F93CF93DF93EC0188819981009729F0AB
:103FD0002A813B812617370788F48B016F5F7F4F5B
:103FE0000E944E2F009761F0998388831B830A8378
:103FF0002C813D81232B11F4FC01108281E001C052
:1040000080E0DF91CF911F910F910895CF93DF93BF
:10401000EC0188819981009711F00E942231198268
:1040200018821D821C821B821A82DF91CF91089513
:10403000EF92FF920F931F93CF93DF93EC017B01DD
:104040008A01BA010E94DF1F811104C0CE010E94C3
:10405000062007C01D830C83B701888199810E94C7
:104060004C30CE01DF91CF911F910F91FF90EF90D7
:104070000895DF92EF92FF920F931F93CF93DF93F8
:10408000CDB7DEB729970FB6F894DEBF0FBECDBF10
:104090008C017B01AE014F5F5F4F0E940915D82E46
:1040A000882309F459C0F7018081803109F454C094
:1040B0008FE78D83F801858196810E942013B701D7
:1040C000F801858196810E94CF1240E06EE4F801EC
:1040D000858196810E948D1240E06B81F801858177
:1040E00096810E948D1240E06C81F8018581968155
:1040F0000E948D12F7018081803139F040E06D819E
:10410000F801858196810E948D12F8018581968142
:104110000E942013B701F801858196810E94CF1279
:10412000F801408168E4858196810E948D1264E1E6
:1041300070E080E090E00E94A211F8018081882365
:1041400031F06AE070E080E090E00E94A211F80196
:10415000858196810E9420138D2D29960FB6F894A3
:10416000DEBF0FBECDBFDF91CF911F910F91FF90AA
:10417000EF90DF900895FC0180819181009711F00C
:104180000C94D83160E070E0CB0108952F923F92FB
:104190004F925F926F927F928F929F92AF92BF9257
:1041A000CF92DF92EF92FF920F931F93CF93DF9303
:1041B00000D000D0CDB7DEB7FC014480558041145B
:1041C000510409F413C1FB0164807580611471040A
:1041D00009F40CC17A016B019C838B83FA01A480E2
:1041E000B580A618B708FC0100811181A114B104A3
:1041F000C1F4F60160817181C8010E9453305C01F5
:10420000892B09F4F3C0F7016081718144815581E4
:10421000C5010E941D30F701048115810A0D1B1D87
:10422000E8CFB7FE02C0480106C0FB012080318004
:104230004201C80148C0F60160817181C4010E9439
:1042400053302C01892B29F1320168187908A30118
:10425000B401C8010E941D30060D171DF7016081D1
:10426000718144815581C8010E941D30F70184810C
:104270009581080F191FF60184809580840C951C88
:10428000EB81FC81848195818A0D9B1D95838483BC
:10429000D2CFB401C8010F900F900F900F90DF9113
:1042A000CF911F910F91FF90EF90DF90CF90BF9033
:1042B000AF909F908F907F906F905F904F903F90C6
:1042C0002F900C944C30B1010E945330009729F08C
:1042D000860D971D8A0C9B1CF6CF8414950409F457
:1042E00085C0EB81FC81828193818815990578F4E2
:1042F000B4016F5F7F4FC8010E944E2F009709F4F1
:1043000075C0EB81FC819183808393828282EB81F3
:10431000FC81048115810150110917FD67C0F60168
:10432000248035802114310409F460C0EB81FC81C4
:10433000648075806114710409F458C062147304B8
:1043400008F454C00615170518F08301015011092F
:10435000EB81FC8140805180C20188248A94982C92
:104360009201200F311F2817390758F0F60160819C
:10437000718129833A830E94533029813A810097C1
:1043800061F597FC33C0280C391CC201820D931DC6
:10439000A30142195309BC018A0D9B1D0E942630BE
:1043A000EB81FC81848195818A0D9B1D958384839B
:1043B00020813181F901E80FF91F1082EB81FC8126
:1043C00080819181F7016081718144815581880DDF
:1043D000991D0E941D3084019ECFAC0144195509DE
:1043E0000417150708F04A010196BDCF0F900F90F2
:1043F0000F900F90DF91CF911F910F91FF90EF9051
:10440000DF90CF90BF90AF909F908F907F906F90F4
:104410005F904F903F902F900895CF93DF93FC01D2
:1044200024813581232B71F0FB01DC01CD91DC91DE
:1044300060817181CE010E945330009719F08C1B6E
:104440009D0B02C08FEF9FEFDF91CF910895FC018C
:1044500024813581232B31F421E061157105A1F010
:10446000FB0108C0FC01808191816115710531F467
:1044700021E0FC018081882339F005C00E9443308F
:1044800021E0892B09F020E0822F0895EF92FF921E
:104490000F931F93CF93DF93FC0124813581611526
:1044A000710511F480E019C041155105A9F07B0197
:1044B000EC018A01020F131FB8010E94DF1F88233D
:1044C00089F3288139818C819D81B701820F931FE7
:1044D0000E944C301D830C8381E0DF91CF911F91AE
:1044E0000F91FF90EF900895CF93DF93EC0161154A
:1044F000710561F0FB0101900020E9F73197AF01F0
:10450000461B570B0E944622811103C0CE010E9418
:104510000620CE01DF91CF910895CF93DF93EC0178
:10452000FB0144815581608171810E944622811185
:1045300003C0CE010E940620CE01DF91CF910895E5
:10454000EF92FF920F931F93CF93DF93EC018B01B8
:104550006115710551F0CB010E9406327C01BC014E
:10456000CE010E94DF1F811104C0CE010E940620EF
:1045700007C0FD82EC82B801888199810E94FF31D9
:10458000CE01DF91CF911F910F91FF90EF90089591
:10459000CF93DF93EC016115710559F0FB01019098
:1045A0000020E9F73197AF01461B570B0E941820F6
:1045B00002C00E940620CE01DF91CF910895CF93D3
:1045C000DF93EC01FB018617970761F06081718131
:1045D0006115710529F0448155810E94182002C09F
:1045E0000E940620CE01DF91CF910895FC018081C9
:1045F00091810C942231EF92FF920F931F93CF93EE
:10460000DF93CDB7DEB7A1970FB6F894DEBF0FBE2C
:10461000CDBF7C01CB01BA01F70111821082138258
:1046200012821582148242E0420F8E010F5F1F4FEB
:104630000E946D30BC01C7010E94C822A1960FB62E
:10464000F894DEBF0FBECDBFDF91CF911F910F91C8
:10465000FF90EF9008950F931F93CF93DF93CDB703
:10466000DEB762970FB6F894DEBF0FBECDBF8C01E8
:10467000CB01F801118210821382128215821482FA
:1046800050E0BE016F5F7F4F0E940F32BE016F5F2F
:104690007F4FC8010E94C82262960FB6F894DEBF11
:1046A0000FBECDBFDF91CF911F910F910895FC01F7
:1046B0001182108213821282158214820C94A0221D
:1046C0001F93CF93DF9300D000D000D0CDB7DEB7DB
:1046D0006EE079E0CE0101960E945723CE0101964B
:1046E0000E94CD1A182FCE0101960E94F62281E079
:1046F000113009F080E026960FB6F894DEBF0FBEA9
:10470000CDBFDF91CF911F910895FC0111821082DE
:1047100013821282158214820C94DF22FC01118212
:10472000108213821282158214826115710551F074
:10473000FB0101900020E9F73197AF01461B570BB1
:104740000C9418200895BF92CF92DF92EF92FF92BF
:104750000F931F93CF93DF937C016B018A01E901D3
:104760002417350720F4812F8901C42FD82F64EC3A
:1047700071E0C7010E948E23D60114968D919C9101
:10478000159708171907D0F48C179D0708F4EC014A
:10479000D601ED91FC911197EC0FFD1FB0801082B6
:1047A0004D915C91BA01600F711FC7010E94C82230
:1047B000D601ED91FC91EC0FFD1FB082C701DF9196
:1047C000CF911F910F91FF90EF90DF90CF90BF900E
:1047D0000895DC01ED91FC910190F081E02D0994A8
:1047E000DC01ED91FC91DB0114964D915C911597E4
:1047F0006D917C910280F381E02D0994EF92FF92FC
:104800000F931F93CF93DF938C017B01C0E0D0E027
:10481000F701EC0FFD1F6491662361F0D801ED9163
:10482000FC910190F081E02DC8010995892B11F0D0
:104830002196EECFCE01DF91CF911F910F91FF9086
:10484000EF9008956115710579F0FB01019000204A
:10485000E9F73197AF01461B570BDC01ED91FC9155
:104860000280F381E02D099480E090E0089562ECED
:1048700071E00C9422240F931F93CF93DF93EC01EC
:104880000E94F0238C01CE010E943724800F911FDB
:10489000DF91CF911F910F9108950F931F93CF93A5
:1048A000DF93EC010E94FE238C01CE010E9437248D
:1048B000800F911FDF91CF911F910F9108950C945C
:1048C0002224CF93DF93CDB7DEB7AD970FB6F89420
:1048D000DEBF0FBECDBF789484B5826084BD84B541
:1048E000816084BD85B5826085BD85B5816085BDEB
:1048F00080916E00816080936E00109281008091A3
:10490000810082608093810080918100816080932A
:104910008100809180008160809380008091B1004F
:1049200084608093B1008091B00081608093B0007A
:1049300080917A00846080937A0080917A0082600E
:1049400080937A0080917A00816080937A008091D0
:104950007A00806880937A001092C1000FB6F894B4
:10496000A89580916000886180936000109260003B
:104970000FBEE0910E03F0910F0382E08083E0917F
:104980000A03F0910B031082E0910C03F0910D03E8
:1049900080E1808310921603E0911203F0911303DB
:1049A00086E08083E0911003F091110380818061A3
:1049B0008083E0911003F0911103808188608083EF
:1049C000E0911003F0911103808180688083E09171
:1049D0001003F091110380818F7D80836EE475E078
:1049E0008EEF92E00E944D2461E086E00E94661105
:1049F00060E086E00E94361161E08DE00E94661161
:104A000061E085E00E94661161E08AE00E94661123
:104A100061E08FE00E94661161E08EE00E94661105
:104A200060E083E00E94661160E089E00E94661108
:104A300060E08CE00E94661161E083E10E946611F3
:104A400061E08CE00E94361160E083E10E94361143
:104A500040E060E081E00E943A056CE271E080E0B5
:104A600090E00E94A21140E061E080E00E943A05DF
:104A70006CE271E080E090E00E94A21141E060E011
:104A800080E00E943A056CE271E080E090E00E94D4
:104A9000A21140E060E081E00E943A0580EF93E0DF
:104AA0009093C7038093C6031092C5031092C1036D
:104AB00099E09093C20381E08093C3038093C40381
:104AC00022EE33E03093B4032093B3031092B20389
:104AD0001092AE039093AF038093B0038093B10321
:104AE00024ED33E03093A1032093A00310929F03A1
:104AF00010929B0390939C0380939D0380939E034D
:104B000081EC93E00E9499168EEA93E00E94991638
:104B10008BE993E00E949916BE016F5F7F4F81EC95
:104B200093E00E941E1F882339F0BE016F5F7F4F04
:104B300081EC93E00E943920BE016F5F7F4F8EEAC7
:104B400093E00E941E1F882339F0BE016F5F7F4FE4
:104B50008EEA93E00E943920BE016F5F7F4F8BE9A0
:104B600093E00E941E1F882339F0BE016F5F7F4FC4
:104B70008EEA93E00E94392080E196E19093030150
:104B800080930201809169008C6080936900E99AAA
:104B900068EE73E080E090E00E94A21199E288E163
:104BA0000FB6F894A895809360000FBE90936000B4
:104BB000809170008E7F809370008091B0008C7F18
:104BC0008093B0008091B100877F8093B100809185
:104BD000B6008F7D8093B600809170008D7F8093AA
:104BE00070008091B10084608093B1008091B10029
:104BF0008C7F8093B10086E090E090939002809348
:104C00008F028CE291E0A0E0B0E080938B02909361
:104C10008C02A0938D02B0938E0283E595E0909371
:104C20008A0280938902109292021092930210924B
:104C30009402109295021092910280918F029091AD
:104C400090028093B2008091700081608093700028
:104C5000FDEC2F2E312CA5E56A2E712CBBECAB2E72
:104C6000B12C10E9812E912C4424439401EFC02EE5
:104C700004E0D02E8E010F5E1F4F61EC74E08EEFCA
:104C800092E00E944D2468EE73E080E090E00E9484
:104C9000A21160E086E00E94361160E08DE00E9483
:104CA000361161E085E00E94361189E00E940D1105
:104CB000892B39F064E670E080E090E00E94A21158
:104CC000F4CF68EE73E080E090E00E94A21161E012
:104CD0008DE00E94361160E085E00E94361160EDA3
:104CE00077E080E090E00E94A21161E086E00E94FF
:104CF000361160EB74E080E090E00E94A21160E069
:104D000086E00E943611E12CF12C89E00E940D1101
:104D1000009781F42FEFE21AF20A35E6E316F10468
:104D200014F0FC01099560E177E280E090E00E94D8
:104D3000A211EBCF60ED77E080E090E00E94A2113D
:104D400061EB74E08EEF92E00E944D2499E288E1DD
:104D50000FB6F894A895809360000FBE9093600002
:104D600010920C0510920B0510920A05109209057D
:104D7000109208051092070530920E0520920D053D
:104D80008091FD04863108F053C07092080560924E
:104D90000705B0920A05A092090590920C05809231
:104DA0000B0590916800883058F021E08E3008F4AF
:104DB00020E0F42D01C0FF0F2A95EAF72F2F01C044
:104DC00024E0922B90936800883038F08E3040F0C9
:104DD000863148F020E030E008C02DE630E005C024
:104DE0002BE630E002C02CE630E03093050520933E
:104DF0000405883038F4242D01C0220F8A95EAF783
:104E0000822F0EC0282F30E08E3018F42850310940
:104E100002C02E503109842D01C0880F2A95EAF76F
:104E20008093060580910D0590910E050197F1F78D
:104E300080910B0590910C05892B39F1E091980236
:104E4000F091990234E0E13FF307F9F0309739F03F
:104E5000A389B4899C918589809589238C938091BD
:104E60000F058E7F80930F05109297021092960285
:104E7000D0929902C0929802E0910405F091050544
:104E8000908180910605892B8083D092EE04C09298
:104E9000ED04EEE0EE2EF12C8091ED049091EE0405
:104EA000DC01ED91FC910480F581E02D0995892BC1
:104EB00061F08091ED049091EE04DC01ED91FC91A4
:104EC0000680F781E02D0995E7CF6EE273E0C80117
:104ED0000E945723C8010E94CD1A282FC8012DA770
:104EE0000E94F6222DA521113DC064EF71E080E003
:104EF00090E00E94A211B1E0EB1AF10869F66BE2B2
:104F000073E0C8010E945723C8010E94CD1AC8014E
:104F10000E94F62264E670E080E090E00E94A21118
:104F200068E273E0C8010E945723C8010E94CD1AAD
:104F3000C8010E94F62264E670E080E090E00E94E2
:104F4000A21165E273E0C8010E945723C8010E94C4
:104F5000CD1AC8010E94F62264E670E080E090E07D
:104F60000E94A21162E273E0C8010E945723C801A7
:104F70000E94CD1AF82EC8010E94F622FF2009F4E3
:104F80002DC265E173E0C8010E945723C8010E9449
:104F9000CD1AC8010E94F62264E670E080E090E03D
:104FA0000E94A21160E173E0C8010E945723C8016A
:104FB0000E94CD1AC8010E94F62264E670E080E0EB
:104FC00090E00E94A21166E073E0C8010E9457239E
:104FD000C8010E94CD1AC8010E94F62264E670E062
:104FE00080E090E00E94A2116CEF72E0C8010E9484
:104FF0005723C8010E94CD1AC8010E94F62264E618
:1050000070E080E090E00E94A21162EF72E0C801BF
:105010000E945723C8010E94CD1AC8010E94F6229F
:1050200064E670E080E090E00E94A21164EE72E01D
:10503000C8010E945723C8010E94CD1AC8010E94CE
:10504000F62264E670E080E090E00E94A21164E63F
:1050500070E080E090E00E94A21166ED72E0C8016D
:105060000E945723C8010E94CD1AC8010E94F6224F
:1050700064E974E08EEF92E00E944D2461E373E0F6
:10508000C8010E945723C8010E94CD1AF82EC801FA
:105090000E94F622E1E0FE1230C06DE070E08AE08E
:1050A00094E00E943830009741F17C01F2E0EF0E6D
:1050B000F11C6DE070E0C7010E943830009711F0DC
:1050C000DC011C92B7018AE094E00E944C306DE84C
:1050D00074E08EEF92E00E94FE236AE074E08EEFAF
:1050E00093E00E94C8228EEF93E00E94931C6EEF23
:1050F00073E08EEF92E00E943B246FE674E08EEF47
:1051000092E00E94FE2380919A0290919B02029766
:1051100069F06DE674E08EEF92E00E94FE2368EE87
:1051200073E080E090E00E94A211EDCF68EE73E0A2
:1051300080E090E00E94A2117EE1F72E68E373E028
:10514000C8010E945723C8010E94CD1AE82EC80149
:105150000E94F622EE2059F069E072E08AE094E0C5
:105160000E945330009719F0FC01528009C068EE8C
:1051700073E080E090E00E94A211FA94F110DECF7B
:105180006CE574E08EEF92E00E94FE23652D8EEFB9
:1051900092E00E94E92369E574E08EEF92E00E94BC
:1051A000FE23F0E35F1203C069E474E00BC021E367
:1051B000521203C066E374E01BC032E3531207C00F
:1051C0006AE174E08EEF92E00E944D2456CD43E3F5
:1051D000541203C062E174E0F5CF54E3551203C0EA
:1051E00069E074E0EFCF85E358120BC465EF73E01C
:1051F0008EEF92E00E944D2480919A0290919B0242
:10520000029709F03ACD60ED77E080E090E00E94EF
:10521000A2110E94EC1E7C016DEE73E08EEF92E015
:105220000E94FE23C7010E94AA1D68EE73E080E081
:1052300090E00E94A2116DED73E08EEF92E00E946B
:105240004D2464ED73E0C8010E945723C8010E94F9
:10525000CD1AF82EC8010E94F62291E0F912C5C0BD
:105260006CE072E08AE094E00E945330009709F409
:10527000BCC07C01A2E0EA0EF11C62E270E0C70152
:105280000E943830009711F0FC011082B7018AE0CB
:1052900094E00E944C306AE074E0CE0147960E9490
:1052A0008E2360ED73E0C8010E945723B801CE0140
:1052B00047960E940D227C01C8010E94F622F7FC4D
:1052C00021C060EC73E082EC94E00E94A0226CEBC1
:1052D00073E088EC94E00E94A02268EB73E08EEC0F
:1052E00094E00E94A02268EA73E084ED94E00E94BA
:1052F000A02264EA73E08EEF92E00E944D241092A7
:10530000EA0461C060EA73E0C8010E945723B80153
:10531000CE0147960E940D227C01C8010E94F62210
:10532000F7FC20C06CE873E082EC94E00E94A022BD
:1053300064E873E088EC94E00E94A0226CE773E0DC
:105340008EEC94E00E94A02268E673E084ED94E085
:105350000E94A02260E673E08EEF92E00E944D244E
:1053600081E02FC06BE573E0C8010E945723B801AC
:10537000CE0147960E940D227C01C8010E94F622B0
:10538000F7FC21C062E573E082EC94E00E94A02269
:1053900064EC71E088EC94E00E94C82264EC71E057
:1053A0008EEC94E00E94C82269E473E084ED94E0FE
:1053B0000E94A02261E473E08EEF92E00E944D24EF
:1053C00082E08093EA0462EC74E08EEF92E00E9447
:1053D0003B24CE0147960E94F62207C067E974E09D
:1053E0008EEF92E00E944D24FFCF6BE475E08EEFCC
:1053F00092E00E944D241A8A198AC8010E94C205AF
:10540000833209F456C068E375E08EEF92E00E94A3
:105410004D24E12CF12C60E0C7010E943E18FFEF03
:10542000EF1AFF0A2FEFE21623E0F206A1F763E27C
:1054300080E090E00E943E1865E071E088EC90E02A
:105440000E94E4175FE0C52E52E0D52E64E6E62EFA
:10545000F12CD6016D916D01FA8AE98AC8010E948A
:10546000C705BFEFEB1AFB0AE1E7EE16F10489F777
:105470003CE1C32E32E0D32E4CEDE42EF12CD601CC
:105480006D916D01FA8AE98AC8010E94C705BFEFD4
:10549000EB1AFB0AEBEEEE16F10489F761E088E700
:1054A00090E00E943E1867E275E08EEF92E00E9465
:1054B0004D2488EC90E00E94181C88E790E09A8BBD
:1054C000898BC8010E94C20591E0811101C090E062
:1054D0009093040169E175E08EEF92E00E94FE2353
:1054E000609105017091060180910701909108017A
:1054F0000E94841C6AE075E08EEF92E00E94FE2319
:105500008091100590911105009711F484E195E0C8
:105510009801281B390BC9010E94AA1D6BE272E099
:10552000C8010E948E23B80187EB94E00E940D22EF
:105530007C01C8010E94F622F7FC0AC00E94602389
:10554000882331F06BEF74E08EEF92E00E944D24DF
:105550000E94401860EA7FE080E090E00E94A21183
:10556000809170008E7F8093700040E061E080E069
:105570000E943A050E940C060E94DC1160939E0274
:1055800070939F028093A0029093A10269EE74E051
:105590008EEF92E00E944D2484E3282E82E0382E84
:1055A000AE014F5F5F4F7A0198EE492E93E0592E7E
:1055B000612C712C24E0C22EDD24D39489E00E945A
:1055C0000D11009711F4FC0109953092E10420922D
:1055D000E0048091E6049091E7049093E3048093C3
:1055E000E20462E675E0CE0101960E945723CE01E7
:1055F00001960E94CD1AB82ECE0101960E94F62285
:10560000F1E0BF1259C08091ED049091EE04DC01ED
:10561000ED91FC910480F581E02D0995892BF9F03D
:105620008091ED049091EE04DC01ED91FC910680F7
:10563000F781E02D09958093EB049093EC04898326
:105640001A8241E050E0B70187EB94E00E944622C5
:105650006AE070E080E090E00E94A211D4CF8091D7
:10566000E4049091E5049093E1048093E004809138
:10567000E6049091E7049093E3048093E20467EFDB
:1056800075E08EEF92E00E94FE2367EB74E08EEFF0
:1056900092E00E943B246BE372E0C7010E948E23DC
:1056A000B70187EB94E00E940D225C01C7010E94C4
:1056B000F622B7FE12C07EC08091E4049091E5040A
:1056C0009093E1048093E0048091E6049091E704D4
:1056D0009093E3048093E2048DC0B70184E690E0E8
:1056E0000E94B117B701CE0183960E948E23B701A5
:1056F0008CED90E00E94B117B701CE014D960E944B
:105700008E236CE675E0C8010E945723C8010E94F1
:10571000CD1AB82EC8010E94F622B1E0BB1609F4DA
:1057200069C1BE016D5D7F4F87EB94E00E940D2241
:1057300097FD0AC06EED75E08EEF92E00E944D2459
:10574000BE016D5D7F4F12C0BE01635E7F4F87EB70
:1057500094E00E940D2297FD1FC064ED75E08EEF6E
:1057600092E00E944D24BE01635E7F4FC8010E94FB
:10577000852367EB74E0CE0147960E948523B8012C
:10578000CE0147960E94AA19CE0147960E94F622A2
:10579000C8010E94F62206C066EC75E08EEF92E02A
:1057A0000E944D24CE014D960E94F622CE01839692
:1057B0000E94F6226BE272E0C7010E948E23B701BD
:1057C00087EB94E00E940D225C01C7010E94F62243
:1057D000B7FC0AC00E946023882331F06BEB75E0B0
:1057E0008EEF92E00E944D2464EC71E087EB94E030
:1057F0000E94C8220E94DC114B015C0180919D0235
:10580000811104C088EC90E00E94181C8091A702CE
:105810009091A802A091A902B091AA02A5019401B9
:10582000281B390B4A0B5B0B29A73AA74BA75CA790
:105830002091050130910601409107015091080126
:10584000A8EEB3E00E94113629A53AA54BA55CA5A8
:105850002617370748075907E0F16DEA75E08EEF24
:1058600092E00E94FE238091A7029091A802A0914D
:10587000A902B091AA02A5019401281B390B4A0B79
:105880005B0BCA01B901A30192010E94A52ECA01B6
:10589000B9010E94841C8092A7029092A802A09253
:1058A000A902B092AA020E940C066EE975E08EEF82
:1058B00092E00E94FE2380911005909111050097BF
:1058C00011F484E195E0A701481B590BCA010E941D
:1058D000AA1D0E94DC114B015C018091A3029091F2
:1058E000A402A091A502B091A602A5019401281BD3
:1058F000390B4A0B5B0BDA01C90180369C4CA54081
:10590000B10590F16BE875E08EEF92E00E94FE2306
:105910008091A3029091A402A091A502B091A60249
:10592000A5019401281B390B4A0B5B0BCA01B90175
:10593000A30192010E94A52ECA01B9010E94841CF4
:1059400041E060E080E00E943A058092A3029092DC
:10595000A402A092A502B092A6020E94401840E0C4
:1059600061E080E00E943A05DA82C982C7010E94A4
:10597000C20580939C029091A2028917D1F091E018
:10598000811101C090E09093A202811108C060E8EB
:1059900075E08EEF92E00E944D2460E007C066E75C
:1059A00075E08EEF92E00E944D2461E083E10E9459
:1059B00036110E94DC1180909E0290909F02A09070
:1059C000A002B090A102DC01CB0188199909AA09B3
:1059D000BB0981309C45A642B54018F0E0E0F0E0FC
:1059E000099564EF71E080E090E00E94A2110E94AE
:1059F0002910E4CD6CEE75E08EEF92E00E944D240C
:105A000090CEF1E35F1239C9F7CB8EEF93E00E949D
:105A1000F62284E094E00E94F6228AED94E00E944F
:105A2000F62284ED94E00E94F6228EEC94E00E942F
:105A3000F62288EC94E00E94F62282EC94E00E9428
:105A4000F62287EB94E00E94F62289E291E090939F
:105A5000F2048093F1048091980290919902815F01
:105A6000944071F4E0910405F091050590818091D6
:105A700006058095892380831092990210929802DE
:105A80000895109201031092000388EE93E0A0E0C5
:105A9000B0E08093020390930303A0930403B093B8
:105AA000050329E131E03093FF022093FE0225EC4B
:105AB00030E030930B0320930A0324EC30E0309362
:105AC0000D0320930C0320EC30E030930F03209360
:105AD0000E0321EC30E0309311032093100322ECED
