:100000000C9447040C940D130C94E6120C941706F0
:100010000C9417060C9417060C946F040C946F0440
:100020000C946F040C946F040C946F040C946F0484
:100030000C946F040C946F040C946F040C946F0474
:100040000C949C120C946F040C948F110C946911F5
:100050000C946F040C946F040C946F040C946F0454
:100060000C946F040C946F0400000008000201005F
:100070000003040700000000000000004750525336
:1000800020636F6E6E656374204F4B212D004661B7
:10009000696C656420696E69742047505253000A88
:1000A0004750525320636F6E6E656374204F4B212F
:1000B0002B004750525320636F6E6E656374202E81
:1000C0002E0072737369202E2E000A5265676973C1
:1000D000746572656420726F616D696E67000A52A3
:1000E0006567697374657265642028686F6D65293A
:1000F000003A20000A4E6574776F726B207374614A
:10010000747573200053657474696E672075702070
:100110006E6574776F726B2E2E2E000A494D45491D
:100120003A004F4B00436F756C646E27742066690C
:100130006E64206D6F64756C65204750525300509B
:100140006F7765722053494D383030204F6E00492B
:100150006E697469616C697A696E672E2E2E2E281D
:100160004D61792074616B6520352D3130207365C8
:10017000636F6E647329000A53494D383030207321
:100180006574757020656E6400496E746572766181
:100190006C207365633A00436C656172204545507D
:1001A000524F4D20456E6400537461727420636C2D
:1001B00065617220454550524F4D000A4E6F2069CF
:1001C0006E7465726E657420636F6E6E65637469BC
:1001D0006F6E004552524F52004F4B000A20534958
:1001E0004D3830302073657475702073746172748B
:1001F000000A66726565206D656D6F72793A200040
:10020000496E74657276616C207365633A0070683C
:100210006F6E652069676E6F72656400534D532081
:1002200063656E747200436F6D6D616E64612074FE
:10023000656C3200436F6D6D616E64612074656C36
:100240003100436F756C646E27742064656C65744F
:1002500065004F4B21000A0D44656C6574696E673B
:1002600020534D532023002A2A2A2A2A00292062BB
:1002700079746573202A2A2A2A2A002A2A2A2A2AF5
:1002800020534D532023005B656D70747920736C8F
:100290006F745D004661696C656421000A0D5265EA
:1002A0006164696E6720534D5320230020457272AC
:1002B0006F72733A00546F74616C3A006E6F206312
:1002C0006F6D70617265006E6F20636F6D7061722B
:1002D00065006E6F20636F6D70617265006E6F20D8
:1002E000636F6D70617265005B5061796C6F616402
:1002F0005D2000546865206E756D626572206F66C2
:1003000020736572766572206572726F72732065F4
:100310007863656564656420323000436F6E6E6596
:100320006374206572726F720052657175657374C3
:10033000696E672000556E6B6E6F776E20636F6D10
:100340006D616E640054696D656F66660052657319
:100350007461727400526573746172740054696DD3
:1003600065736574000D0A004572726F72002B4848
:10037000545450524541443A200041542B4854545F
:10038000505245414400302C363000302C32303051
:100390000041542B48545450414354494F4E3D3032
:1003A0000041542B48545450504152413D22555223
:1003B0004C222C220041542B485454504143544960
:1003C0004F4E3D300041542B4854545050415241FF
:1003D0003D2255524C222C220041542B485454505B
:1003E000504152413D22434944222C310041542B7B
:1003F00048545450494E49540041542B4854545089
:100400005445524D0041542B43495047534D4C4F96
:10041000433D312C31004552524F520D004F4B0D90
:100420000041542B434F50533F0041542B47534EF0
:100430000041542B43504D533D22534D222C225307
:100440004D222C22534D220041542B434D47463D13
:10045000310041542B53415042523D322C31004126
:10046000542B53415042523D312C310041542B43C7
:100470004744434F4E543D312C224950222C2200F8
:1004800041542B53415042523D332C312C22505772
:1004900044222C220041542B53415042523D332CD4
:1004A000312C2255534552222C220041542B5341CA
:1004B0005042523D332C312C2241504E222C2200EE
:1004C000696E7465726E65742E54454C45322E7299
:1004D000750054454C4532004D454741464F4E004E
:1004E000696E7465726E6574004D656761466F6E06
:1004F000006265656C696E6500696E7465726E6533
:10050000742E6265656C696E652E72750042656554
:100510006C696E65006D7473004D545300696E74A0
:1005200065726E65742E6D74732E72750041542B56
:1005300053415042523D332C312C22436F6E74791B
:100540007065222C2247505253220041542B4347BE
:100550004154543F0041542B4353510041542B43C9
:100560005245473F0041542B434E4D493D322C32BA
:100570000041542B435343533D2247534D220041E6
:10058000542B434C49503D310041542B434D474679
:100590003D310041542B4346554E3D310041542BD3
:1005A0004950523D3139323030004154453000AA73
:1005B000059D05930589057F05710565055C055554
:1005C000054B052D051D05190515050D05F904F14A
:1005D00004E904E004D804D204C004AB0495048008
:1005E000046C045F045204480431042A0421041DED
:1005F0000416040504F903ED03D903C503B503A1EB
:100600000391038B0386037A036E0368036503007B
:10061000000000250028002B000000000023002619
:100620000029000404040404040404020202020277
:1006300002030303030303010204081020408001A6
:100640000204081020010204081020005EBCE261D0
:100650003FDD83C29C7E20A3FD1F419DC3217FFC03
:10066000A2401E5F01E3BD3E6082DC237D9FC1424C
:100670001CFEA0E1BF5D0380DE3C62BEE0025CDFE9
:1006800081633D7C22C09E1D43A1FF4618FAA4272A
:10069000799BC584DA3866E5BB5907DB856739BACB
:1006A000E406581947A5FB7826C49A653BD9870408
:1006B0005AB8E6A7F91B45C6987A24F8A6441A99B1
:1006C000C7257B3A6486D85B05E7B98CD2306EEDDE
:1006D000B3510F4E10F2AC2F7193CD114FADF3709B
:1006E0002ECC92D38D6F31B2EC0E50AFF1134DCEB4
:1006F00090722C6D33D18F0C52B0EE326C8ED05381
:100700000DEFB1F0AE4C1291CF2D73CA947628AB99
:10071000F517490856B4EA6937D58B5709EBB53652
:10072000688AD495CB2977F4AA4816E9B7550B887F
:10073000D6346A2B7597C94A14F6A8742AC8961538
:100740004BA9F7B6E80A54D7896B3500000000249E
:100750000027002A004E414E494E495459494E4601
:10076000CDCCCC3D0AD7233C17B7D13877CC2B3230
:100770009595E6241FB14F0A000020410000C842B1
:1007800000401C4620BCBE4CCA1B0E5AAEC59D7410
:1007900000407A10F35A00A0724E18090010A5D438
:1007A000E80000E87648170000E40B54020000CA95
:1007B0009A3B000000E1F5050000809698000000DB
:1007C00040420F000000A08601000000102700003A
:1007D0000000E803000000006400000000000A00C0
:1007E000000000000100000000002C76D888DC67C3
:1007F0004F0823DFC1DFAE59E1B1B796E5E3E4531B
:10080000C63AE651997696E8E6C28426EB898C9B37
:1008100062ED407C6FFCEFBC9C9F40F2BAA56FA5D7
:10082000F490055A2AF75C936B6CF9676DC11BFC59
:10083000E0E40D47FEF520E6B500D0ED902E030074
:10084000943577050080841E080000204E0A0000C1
:1008500000C80C333333330F986E12831141EF8D80
:100860002114893BE65516CFFEE6DB18D1844B38C0
:100870001BF77C1D901DA4BBE424203284725E22F1
:100880008100C9F124ECA1E53D272329E3281124A7
:100890001FBECFEFD8E0DEBFCDBF12E0A0E0B1E0D9
:1008A000EEE2F8E602C005900D92A836B107D9F73E
:1008B00025E0A8E6B2E001C01D92A73BB207E1F730
:1008C00014E0C6E4D4E004C02197FE010E94AF2AE0
:1008D000C534D107C9F70E944F1A0C940A340C94FE
:1008E000000020916A0230916B022817390771F4D9
:1008F0009091680280916902981741F0E091680236
:10090000F0E0EB53FD4F808190E008958FEF9FEF73
:10091000089508951F93CF93DF93DC015C962D918A
:100920003C915D972115310539F481E090E01396F3
:100930009C938E9312973DC05196ED91FC915297E6
:1009400050969C915097892F80951FB75E964C9139
:100950005E9741FB772770F941FD6095F8944081DF
:10096000772311F0492B01C048234083E9012197E7
:10097000F1F748E0508160FF02C0592B01C05823B5
:100980005083E9012197F1F76695415099F7772354
:1009900021F090818923808303C08081982B9083EC
:1009A0001FBF5C968D919C915D970197F1F721E0B7
:1009B00030E0C901DF91CF911F91089520916A0223
:1009C00030916B022817390771F4809169022091E8
:1009D000680290E0805C9F4F821B910960E470E0A8
:1009E0000E94652A089580E090E0089520916A02AF
:1009F00030916B0228173907B9F490916802809101
:100A00006902981789F0E0916802F0E0EB53FD4F1E
:100A100080812091680230E02F5F3F4F2F73332792
:100A20002093680290E008958FEF9FEF0895FC01F6
:100A300024813581FB01448155812417350721F537
:100A4000FC0180819181FB0160817181009719F027
:100A500061157105A1F46115710549F0232BB1F001
:100A6000FB01808190E09195819591090AC00097E2
:100A700069F0232B59F0FC01808190E002C00E94B4
:100A8000172C21E0892B19F020E001C021E081E042
:100A900082270895EF92FF920F931F93CF93DF93D6
:100AA00000D0CDB7DEB78C017A01FC01858196813B
:100AB00069837A830E94D41369817A81882371F0D3
:100AC000A701C8010E94CE14882341F068E0C70145
:100AD0000E94341391E0F7012085821390E0892F62
:100AE0000F900F90DF91CF911F910F91FF90EF909A
:100AF0000895EF92FF920F931F93CF93DF93CDB79B
:100B0000DEB761970FB6F894DEBF0FBECDBF8C0184
:100B1000DC011596ED91FC911697138615861486C7
:100B2000DF011B9633961E92AE17BF07E1F7F8015F
:100B30001482FF24F394BE01665F7F4FF801858124
:100B400096810E940A14882309F464C067E0CE01EC
:100B50000A960E94341399898913EDCFD8018C919C
:100B6000811126C015968D919C9116970E94D413E1
:100B7000BE01665F7F4FF801858196810E948313D5
:100B800040E064EBD80115968D919C9116970E94D8
:100B90004113F801858196810E94B013E82ED80197
:100BA00015968D919C9116970E94D413EE2079F1A1
:100BB000F801858196810E94D413882349F0AE0103
:100BC0004F5F5F4FBE01665F7F4FC8010E94CE142A
:100BD000D8011196EC90BE01665F7F4FC8010E945C
:100BE00057158E1518F4F801818106C0BE01665FA5
:100BF0007F4FC8010E945715D80111968C93119709
:100C000014968C9114978F5F14968C9394CFD8017F
:100C1000FC92CECF61960FB6F894DEBF0FBECDBF6B
:100C2000DF91CF911F910F91FF90EF9008951F9248
:100C30000F920FB60F9211242F933F934F935F9310
:100C40006F937F938F939F93AF93BF93EF93FF9394
:100C5000E0916A02F0916B02309709F451C0968DD1
:100C6000A685B785858591FF04C09C91892329F4C9
:100C700047C09C91892309F043C0A389B4899C9102
:100C80008589809589238C93868997890197F1F7C7
:100C9000608D718DA685B785558538E020E0CB0144
:100CA0000197F1F7822F90E095958795282F4C9129
:100CB000452309F02068315091F7868D81FD2095FC
:100CC0008091690290E001968F73992730916802B4
:100CD000381749F0A0916902B0E0AB53BD4F2C9397
:100CE0008093690203C0868D8160868F828D938D8B
:100CF0000197F1F7A389B4899C918589892B8C93FD
:100D0000FF91EF91BF91AF919F918F917F916F91E3
:100D10005F914F913F912F910F900FBE0F901F90B9
:100D20001895CF92DF92EF92FF920F931F93CF937C
:100D3000DF93EB017B012DE0E20EF11C8B016C01D6
:100D4000C61AD70AC601800F911F0E94A333F8016B
:100D500081938F01EE15FF05A9F7CE01DF91CF91A9
:100D60001F910F91FF90EF90DF90CF9008950F9318
:100D70001F93CF93DF938C01EB010E94A3338883F1
:100D8000C80101960E94A3338983CE01DF91CF91E0
:100D90001F910F9108950C94AB33CF92DF92EF9295
:100DA000FF920F931F93CF93DF9300D000D000D01A
:100DB000CDB7DEB78C017B011A8219821C821B829F
:100DC0001E821D826DE573E0CE0101960E94A0187F
:100DD000BE016F5F7F4FC8010E942A186C01CE01CF
:100DE00001960E94F618D7FC16C084E190E0A0E0BE
:100DF000B0E08093040190930501A0930601B093A5
:100E0000070181E08093720264E170E080E090E08D
:100E10000E942B0C52C01A8219821C821B821E82D5
:100E20001D8265E573E0CE0101960E94A018BE0107
:100E30006F5F7F4FC8010E942A186C01CE01019696
:100E40000E94F618D7FC19C0B70185E093E00E9414
:100E50002C1A60E172E085E093E00E942A1A8DE48A
:100E600093E00E941D0C68EE73E080E090E00E9429
:100E70005612E0E0F0E0099520C01A8219821C8227
:100E80001B821E821D8265E473E0CE0101960E94E2
:100E9000A018BE016F5F7F4FC8010E942A188C0105
:100EA000CE0101960E94F61817FD03C0109272023F
:100EB00004C085E393E00E941D0C26960FB6F894BB
:100EC000DEBF0FBECDBFDF91CF911F910F91FF907D
:100ED000EF90DF90CF9008951F93CF93DF931F92F1
:100EE000CDB7DEB7162F682F8AE049830E94EA113A
:100EF000612F8EE00E94EA114981642F8FE00F90EC
:100F0000DF91CF911F910C94EA110F931F930E94D0
:100F100090120091C1021091C2022091C30230913F
:100F2000C4029B01201B310B3093C0022093BF02EF
:100F30006093C1027093C2028093C3029093C40273
:100F40008091BF029091C002803F9B403CF0809115
:100F5000BF029091C0028E3F9B408CF08091BF02F7
:100F60009091C002883593406CF08091BF029091BF
:100F7000C0028636934034F481E090E05BC082E0AA
:100F800090E058C08091BF029091C0028F3591408F
:100F900044F08091BF029091C002823791400CF4DE
:100FA00047C080916C0290916D020197E1F420910D
:100FB000BD023091BE0281E090E0232B11F080E071
:100FC00090E09093BE028093BD028091BD0290910B
:100FD000BE0240E0892B19F460E081E002C061E0CC
:100FE00080E00E946C0780916C0290916D020297E4
:100FF00031F52091BD023091BE0281E090E0232BBB
:1010000011F080E090E09093BE028093BD02809149
:10101000BD029091BE02892B21F440E060E081E0A6
:1010200003C041E060E080E01F910F910C946C07D9
:1010300083E090E090936D0280936C02B2CF1F9199
:101040000F910895EF92FF920F931F93CF93DF9329
:101050001F92CDB7DEB77C01FC0100811181C80170
:1010600069830E94A3336981681719F0C8010E943F
:10107000AB33C7010F90DF91CF911F910F91FF907C
:10108000EF900895AF92BF92CF92DF92EF92FF92CE
:101090000F931F93CF93DF9300D0CDB7DEB78B01B3
:1010A0006B012DE0C20ED11C7B015C01A61AB70AB0
:1010B00095012E0D3F1DF70161917F013A83298330
:1010C000CE0101960E942208EC14FD0489F7C801A4
:1010D0000F900F90DF91CF911F910F91FF90EF90A4
:1010E000DF90CF90BF90AF900895EF92FF920F9353
:1010F0001F93CF93DF9300D0CDB7DEB78C017B0178
:10110000FB0160819A838983CE0101960E942208A7
:10111000F70161810F5F1F4F1A830983CE0101968A
:101120000E942208C7010F900F90DF91CF911F916D
:101130000F91FF90EF900895CF93DF9300D0CDB73C
:10114000DEB7BE016F5F7F4F80EA90E00E94B70676
:1011500089819A8101969A838983BE016F5F7F4F4F
:1011600080EA90E00E9475080F900F90DF91CF9178
:101170000895CF92DF92EF92FF920F931F93CF9338
:10118000DF93CDB7DEB762970FB6F894DEBF0FBE20
:10119000CDBF8C0189E293E00E94FC0B63E172E019
:1011A00085E093E00E942A1A6FE385E093E00E94B5
:1011B000231AC8010E942B0DB801CE0101960E948E
:1011C0005819BE016F5F7F4F83E192E00E94E50DE9
:1011D000CE0101960E94F6188091B9029091BA0250
:1011E000A091BB02B091BC020196A11DB11D8093DC
:1011F000B9029093BA02A093BB02B093BC020297CB
:10120000A105B10518F081E08093B80223E0E22E39
:1012100026E0F22E35E0C32E36E0D32EF70165919D
:10122000749188E495E00E94EF2DF6016591749128
:1012300080E795E00E94EF2D60E775E088E495E097
:101240000E94610D823020F084E080931C051EC056
:1012500081111CC06EE285E093E00E949D101AE1AE
:101260001150E1F28091860590918705DC01ED91A6
:10127000FC910480F581E02D0995892B79F66AE0CF
:1012800070E080E090E00E945612EACF80911C0549
:10129000843079F58BE193E00E941D0C80916E0201
:1012A00090916F02A0917002B09171020196A11D00
:1012B000B11D80936E0290936F02A0937002B09361
:1012C00071020E949C0880916E0290916F02A09121
:1012D0007002B09171024597A105B10518F0E0E0E8
:1012E000F0E0099568EB7BE080E090E00E94561208
:1012F0005AC285E093E00E94BF19E7E0F6E06591ED
:10130000749188E495E00E94EF2D68E475E0809187
:101310008605909187050E94C31983E080931C0580
:10132000109225050E949012609326057093270560
:10133000809328059093290589E0E82E86E0F82E11
:101340009BE0C92E96E0D92EF7016591749188E44F
:1013500095E00E94EF2DF6016591749180E795E08C
:101360000E94EF2D60E775E088E495E00E94610D32
:10137000813051F71092250542E452E064E670E0B6
:1013800080E090E00E949B0C8DE194E00E94A12DF2
:101390008C0140E050E060ED77E080E090E00E945A
:1013A0009B0C0E3F110510F00EEF10E0F801E35E0C
:1013B000FB4F1082012B09F4C7CF80911C058430AC
:1013C00039F580916E0290916F02A0917002B091F8
:1013D00071020196A11DB11D80936E0290936F0260
:1013E000A0937002B09371020E949C0880916E02DB
:1013F00090916F02A0917002B09171024597A10582
:10140000B10508F46FCF83EF92E00E941D0C67CF07
:1014100088EE92E00E94FC0B6DE174E085E093E0C1
:101420000E94C3196DE174E0CE010D960E9461190E
:1014300064E472E0CE0107960E94611989899A8955
:101440000097C9F0029718F002E010E002C001E036
:1014500010E0ED85FE85E00FF11FF08010826D85B4
:101460007E85CE0107960E94C8188D859E85FC0159
:10147000E00FF11FF0828F819885009719F00E948C
:10148000BF2D03C060E070E0CB016130710509F051
:1014900066C064E472E0CE0101960E946119098978
:1014A0001A8903301105C8F00A30110510F00AE05E
:1014B00010E0ED85FE85E00FF11FF08010826D8554
:1014C0007E856E5F7F4FCE0101960E94C8188D8584
:1014D0009E85FC01E00FF11FF08289819A810097BF
:1014E00029F00E94BF2D6B017C0103C0C12CD12CBF
:1014F0007601C701B6010E942B0CD701C6010B97DC
:10150000A109B10986379145A140B105E8F4809160
:10151000040190910501A0910601B0910701C81640
:10152000D906EA06FB0681F08091720281110CC097
:10153000C0920401D0920501E0920601F0920701E9
:1015400088EC90E00E94720C60910401709105019A
:1015500080910601909107010E942B0CC8C0623057
:10156000710591F5CE010D960E943C0D6BEA72E07B
:1015700084E690E00E9491066BEA72E0CE0101964B
:101580000E946119BE016F5F7F4FCE010D960E94D0
:101590001705882309F4ABC08DED92E00E941D0C65
:1015A00000E010E0B801CE010D960E944418DC0165
:1015B0006C91C8018C599F4F0E94CB060F5F1F4F43
:1015C0000D30110579F793C06330710591F5CE01A7
:1015D0000D960E943C0D6BEA72E088E790E00E9455
:1015E00091066BEA72E0CE0101960E946119BE017C
:1015F0006F5F7F4FCE010D960E941705882309F477
:1016000076C082ED92E00E941D0C00E010E0B8016F
:10161000CE010D960E944418FC016081C8018858D3
:101620009F4F0E94CB060F5F1F4F0D30110579F7BA
:101630005EC06430710591F5CE010D960E943C0D9F
:101640006BEA72E08CE890E00E9491066BEA72E02F
:10165000CE0101960E946119BE016F5F7F4FCE01DE
:101660000D960E941705882309F441C087EC92E08B
:101670000E941D0C00E010E0B801CE010D960E9402
:101680004418DC016C91C80184579F4F0E94CB061F
:101690000F5F1F4F0D30110579F729C065307105B7
:1016A00051F41A821982BE016F5F7F4F80EA90E089
:1016B0000E9475083EC066307105B1F5CE010D96E9
:1016C0000E943C0D6BEA72E08CED90E00E94910666
:1016D0006BEA72E0CE0101960E946119BE016F5F54
:1016E0007F4FCE010D960E941705811105C0CE01D6
:1016F00001960E94F6181DC08CEB92E00E941D0C12
:1017000000E010E0B801CE010D960E944418FC01E3
:101710006081C80184529F4F0E94CB060F5F1F4F0C
:101720000D30110579F7E3CF6730710511F4109290
:10173000720285EB92E00E94FC0B4091B90250913D
:10174000BA026091BB027091BC022AE085E093E08E
:101750000E94761980916E0290916F02A0917002A2
:10176000B0917102892B8A2B8B2B89F08CEA92E045
:101770000E94FC0B40916E0250916F0260917002CA
:10178000709171022AE085E093E00E94761985E06D
:1017900093E00E94BF19CE0107960E94F618CE0171
:1017A0000D960E94F61862960FB6F894DEBF0FBE33
:1017B000CDBFDF91CF911F910F91FF90EF90DF9000
:1017C000CF9008958091860590918705DC01ED9179
:1017D000FC910480F581E02D0995892B61F08091C1
:1017E000860590918705DC01ED91FC910680F781DB
:1017F000E02D0995E7CF08950F931F93CF93DF93C3
:101800008C01C0E0D0E0F801EC0FFD1F649166236D
:1018100071F0E0910503F09106030190F081E02D55
:1018200085E093E00995892B11F02196ECCFCE014C
:10183000DF91CF911F910F910895CF93DF930E9475
:10184000FC0BEC0185E093E00E94BF198C0F9D1FFB
:10185000DF91CF910895CF93DF93AB01BC012AE0D4
:1018600085E093E00E947619EC0185E093E00E9408
:10187000BF198C0F9D1FDF91CF9108950F931F9378
:10188000CF93DF93C1E1D4E08C0101511440C80132
:101890008C0F9D1F0E94A333899384E0C731D80722
:1018A000B1F781E194E0DF91CF911F910F910895FD
:1018B0000F931F93CF93DF93C4E0D1E08C010450CA
:1018C0001140C8018C0F9D1F0E94A333899381E0B2
:1018D000C830D807B1F784E091E0DF91CF911F9134
:1018E0000F910895EF92FF920F931F93CF93DF9381
:1018F00000D0CDB7DEB704E011E0845091407C0108
:101900009701200F311FF80161918F013A832983DC
:10191000CE0101960E942208F1E008301F0781F7EE
:1019200084E091E00F900F90DF91CF911F910F9184
:10193000FF90EF9008954F925F926F927F929F92E7
:10194000AF92BF92CF92DF92EF92FF920F931F93CD
:10195000CF93DF93EC016B018A01892B49F00E9440
:10196000E20BBE0180918605909187050E94C31904
:101970000E9490122B013C01C0E08FEEA82E85E062
:10198000B82EDEE7E12CF12C809186059091870539
:10199000DC01ED91FC910480F581E02D0995892B06
:1019A000C9F18091860590918705DC01ED91FC914C
:1019B0000680F781E02D0995CE3F50F0ECE9F4E088
:1019C000ADE1B4E09D2F01900D929A95E1F7CEE73D
:1019D000992493949C0EEC2FF0E0E35EFB4F808300
:1019E000E92DF0E0E35EFB4F1082F5016591749103
:1019F00088E495E00E94EF2D0115110519F468E4C3
:101A000075E001C0B8018DE194E00E94362C892B6D
:101A100089F4C92D0E949012DC01CB01841995092B
:101A2000A609B7098C159D05AE05BF0508F4ACCF16
:101A300080E001C0892DDF91CF911F910F91FF9020
:101A4000EF90DF90CF90BF90AF909F907F906F907E
:101A50005F904F900895CF93DF93BC0185E093E0B2
:101A60000E942C1AEC0185E093E00E94BF198C0FB4
:101A70009D1FDF91CF910895CF93DF93FC014481A7
:101A8000558141155105D1F04230510518F461E0FE
:101A900070E002C062E070E0EC0188819981461B31
:101AA000570B5D834C83680F791F0E94272CE881B8
:101AB000F9818C819D81E80FF91F1082DF91CF9110
:101AC0000895FF920F931F93CF93DF938C01EB0147
:101AD0008EE7F82E8091860590918705DC01ED91C7
:101AE000FC910480F581E02D0995892BD9F1809135
:101AF000860590918705DC01ED91FC910680F781C8
:101B0000E02D0995909125059E3F58F0F09225050E
:101B1000ECE9F4E0ADE1B4E09F2D01900D929A95CF
:101B2000E1F7A0912505E1E0EA0FE0932505B0E09B
:101B3000A35EBB4F8C93F0E0E35EFB4F1082B801D5
:101B40008DE194E00E94362C892B19F5209711F233
:101B5000BE018DE194E00E94362C892B09F4BACFA6
:101B600082E01AC00E94901200912605109127056C
:101B70002091280530912905DC01CB01801B910BB8
:101B8000A20BB30B80319742A105B10520F083E091
:101B900003C081E001C080E0DF91CF911F910F91E0
:101BA000FF9008950F931F93CF93DF93EC0162E2B0
:101BB0000E94231A8C01CE010E94BF19800F911F31
:101BC000DF91CF911F910F9108950F931F93CF93A2
:101BD000DF938C01EB01EFEFF5E06591749188E400
:101BE00095E00E94EF2D68E475E080918605909164
:101BF00087050E942A1AB801809186059091870571
:101C00000E942A1A88819981892BD1F580918605B5
:101C1000909187050E94D20D64EF71E080E090E022
:101C20000E94561240E050E060ED77E080E090E0E6
:101C30000E949B0C882301F1E1E0F6E0659174912C
:101C400088E495E00E94EF2D68E475E080918605B8
:101C5000909187050E94C31982E080931C05109221
:101C600025050E94901260932605709327058093A6
:101C700028059093290513C084E080931C050FC0AC
:101C80006FE380918605909187050E94231ABE011B
:101C900080918605909187050E942C1AB7CF80E02D
:101CA000DF91CF911F910F910895EFEBF5E06591D2
:101CB000749188E495E00E94EF2D40E050E060EDE3
:101CC00077E088E495E00E949B0C65E572E08DE189
:101CD00094E00E94362C009759F005960E94A12DA1
:101CE0008336910529F08F3F2FEF920709F0089571
:101CF00080E090E00895CF93DF93EB01DC0115962F
:101D0000ED91FC911697138615861486DF011B96BC
:101D100033961E92AE17BF07E1F7BE01FC01858125
:101D200096810E940A14882349F067E0CE010E9440
:101D300034139F81891302C081E001C080E0DF91EC
:101D4000CF9108950F931F93CF93DF93CDB7DEB755
:101D500061970FB6F894DEBF0FBECDBF8C01BE01F8
:101D6000665F7F4F0E947B0E811105C060E070E0CE
:101D70008EEF92EC4BC0AE014F5F5F4FBE01665FCE
:101D80007F4FC8010E944A05882359F1698148E0C4
:101D9000649FB00111248A81282F30E0322F22273E
:101DA000330F330F330F262B372B8A858031E1F425
:101DB000688570E08F81AB01481B5109CA01969577
:101DC000982F8827979587950E94652A60517109F9
:101DD000207F53E0220F331F5A95E1F7620F731FE4
:101DE00004C060E874EE01C0B901613854EE7507B3
:101DF0000CF4BCCF072E000C880B990B0E94833289
:101E000020E030E040E05CE30E94E23261960FB6F1
:101E1000F894DEBF0FBECDBFDF91CF911F910F9120
:101E20000895BF92CF92DF92EF92FF920F931F938C
:101E3000CF93DF938C01EB01892B49F00E94E20BD9
:101E4000B80180918605909187050E94C3190E9470
:101E500090126B017C0100E01EE780918605909155
:101E60008705DC01ED91FC910480F581E02D099559
:101E7000892BA1F18091860590918705DC01ED9178
:101E8000FC910680F781E02D09950E3F50F0ECE9BA
:101E9000F4E0ADE1B4E0912F01900D929A95E1F755
:101EA0000EE7BB24B394B00EE02FF0E0E35EFB4FEF
:101EB0008083EB2DF0E0E35EFB4F10826AE572E079
:101EC0008DE194E00E94362C892BC1F4BE018DE196
:101ED00094E00E94362C892B99F40B2D0E949012CD
:101EE000DC01CB018C199D09AE09BF09803D9740EB
:101EF000A105B10508F4B1CF80E003C081E001C0C5
:101F000082E0DF91CF911F910F91FF90EF90DF90D2
:101F1000CF90BF900895CF92DF92EF92FF92CF9330
:101F2000DF936C01990FEE08FF08F7FE16C06DE213
:101F300085E093E00E94231AEC0144275527BA015B
:101F40004C195D096E097F092AE085E093E00E9443
:101F500076197C01EC0EFD1E08C02AE0B701A6012F
:101F600085E093E00E9476197C0185E093E00E9471
:101F7000BF198E0D9F1DDF91CF91FF90EF90DF90E5
:101F8000CF900895DF92EF92FF920F931F93CF931C
:101F9000DF93CDB7DEB729970FB6F894DEBF0FBE3B
:101FA000CDBF8C017B01AE014F5F5F4F0E944A05A0
:101FB000D82E882309F459C0F7018081803109F4B3
:101FC00054C08FE78D83F801858196810E94D413D8
:101FD000B701F801858196810E94831340E06EE489
:101FE000F801858196810E94411340E06B81F801E0
:101FF000858196810E94411340E06C81F8018581C2
:1020000096810E944113F7018081803139F040E0D0
:102010006D81F801858196810E944113F8018581C7
:1020200096810E94D413B701F801858196810E94A0
:102030008313F801408168E4858196810E944113F1
:1020400064E170E080E090E00E945612F801808127
:10205000882331F06AE070E080E090E00E94561240
:10206000F801858196810E94D4138D2D29960FB693
:10207000F894DEBF0FBECDBFDF91CF911F910F91BE
:10208000FF90EF90DF900895FC01918D828D98175D
:1020900061F0828DDF01A80FB11D5D968C91928D4C
:1020A0009F5F9F73928F90E008958FEF9FEF089549
:1020B000FC01918D828D981731F0828DE80FF11D12
:1020C000858D90E008958FEF9FEF0895FC01918D2D
:1020D000228D892F90E0805C9F4F821B91098F7326
:1020E0009927089585E093E00E94661021E0892BEE
:1020F00009F420E0822F0895FC01848DDF01A80FF0
:10210000B11DA35ABF4F2C91848D90E001968F731F
:102110009927848FA689B7892C93A089B1898C913E
:1021200080648C93938D848D981306C00288F38904
:10213000E02D80818F7D80830895EF92FF920F9331
:102140001F93CF93DF93EC0181E0888F9B8D8C8D63
:10215000981305C0E889F989808185FD24C0F62E91
:102160000B8D10E00F5F1F4F0F731127E02E8C8D2A
:10217000E8120CC00FB607FCFACFE889F989808114
:1021800085FFF5CFCE010E947C10F1CF8B8DFE0133
:10219000E80FF11DE35AFF4FF0820B8FEA89FB89AC
:1021A0008081806207C0EE89FF896083E889F989B0
:1021B00080818064808381E090E0DF91CF911F91E6
:1021C0000F91FF90EF900895CF93DF93EC01888DEE
:1021D0008823C9F0EA89FB89808185FD05C0A8892B
:1021E000B9898C9186FD0FC00FB607FCF5CF8081B1
:1021F00085FFF2CFA889B9898C9185FFEDCFCE01FB
:102200000E947C10E7CFDF91CF91089580E090E0AD
:10221000892B29F00E94721081110C9400000895FE
:102220003FB7F8948091AC059091AD05A091AE05B3
:10223000B091AF0526B5A89B05C02F3F19F00196B8
:10224000A11DB11D3FBFBA2FA92F982F8827820F3C
:10225000911DA11DB11DBC01CD0142E0660F771F8C
:10226000881F991F4A95D1F7089508950895FC0194
:1022700090810180F281E02D892F809560FF12C04E
:10228000F8942281822382838181892B8183A3E236
:10229000B0E01197F1F78281982B9283789487EDC3
:1022A00090E011C0F8942281822382838181892B5E
:1022B0008183AFEFB0E01197F1F78281982B928381
:1022C00078948FE090E00197F1F7089508950E94C7
:1022D000EC2B1F920F920FB60F9211242F933F9366
:1022E0004F935F936F937F938F939F93AF93BF931E
:1022F000EF93FF9385E093E00E947C10FF91EF91B4
:10230000BF91AF919F918F917F916F915F914F910D
:102310003F912F910F900FBE0F901F9018951F9215
:102320000F920FB60F9211242F938F939F93EF93D9
:10233000FF93E0911503F09116038081E0911B0358
:10234000F0911C0382FD12C0908180911E038F5F6B
:102350008F7320911F03821751F0E0911E03F0E06C
:10236000EB5FFC4F958F80931E0301C08081FF912E
:10237000EF919F918F912F910F900FBE0F901F9013
:102380001895833081F028F4813099F08230A1F0E3
:1023900008958730A9F08830B9F08430D1F4809165
:1023A00080008F7D03C0809180008F7780938000B4
:1023B000089584B58F7702C084B58F7D84BD08955C
:1023C0008091B0008F7703C08091B0008F7D8093A3
:1023D000B00008951F93CF93DF93282F30E0F901C9
:1023E000E859FF4F8491F901E95CF94FD491F90163
:1023F000ED5DF94FC491CC23C9F0162F81110E94D5
:10240000C111EC2FF0E0EE0FFF1FE15FF94FA59136
:10241000B4918FB7F894111105C09C91ED2FE09500
:10242000E92302C0EC91ED2BEC938FBFDF91CF91AC
:102430001F910895CF93DF9390E0FC01E95CF94F81
:102440002491FC01ED5DF94F8491882361F190E0C6
:10245000880F991FFC01E55BF84FC591D491FC01F1
:10246000E15FF94FA591B491611109C09FB7F8944C
:102470008881209582238883EC912E230BC06230C3
:1024800061F49FB7F8943881822F809583238883E5
:10249000EC912E2B2C939FBF06C08FB7F894E88148
:1024A0002E2B28838FBFDF91CF9108958F929F921B
:1024B000AF92BF92CF92DF92EF92FF926B017C01BD
:1024C0000E9410114B015C01C114D104E104F1041C
:1024D000F1F00E941011DC01CB0188199909AA09B9
:1024E000BB09883E9340A105B10570F321E0C21AF3
:1024F000D108E108F10888EE880E83E0981EA11C3F
:10250000B11CC114D104E104F10419F7DDCFFF902F
:10251000EF90DF90CF90BF90AF909F908F900895F5
:102520002FB7F8946091A8057091A9058091AA052C
:102530009091AB052FBF08951F920F920FB60F9287
:1025400011242F933F938F939F93AF93BF938091C9
:10255000A8059091A905A091AA05B091AB0530916D
:10256000A70523E0230F2D3720F40196A11DB11DEF
:1025700005C026E8230F0296A11DB11D2093A705D3
:102580008093A8059093A905A093AA05B093AB05E5
:102590008091AC059091AD05A091AE05B091AF05CD
:1025A0000196A11DB11D8093AC059093AD05A0933C
:1025B000AE05B093AF05BF91AF919F918F913F91C1
:1025C0002F910F900FBE0F901F9018951F920F9292
:1025D0000FB60F9211242F933F934F935F936F93F6
:1025E0007F938F939F93AF93BF93EF93FF93E0916C
:1025F0000201F09103010995FF91EF91BF91AF9115
:102600009F918F917F916F915F914F913F912F910A
:102610000F900FBE0F901F9018951F920F920FB63C
:102620000F9211242F933F934F935F936F937F9358
:102630008F939F93AF93BF93EF93FF93E09100012C
:10264000F09101010995FF91EF91BF91AF919F9199
:102650008F917F916F915F914F913F912F910F904B
:102660000FBE0F901F901895DC01E0E0615038F02C
:102670008D91E827F0E0E55BF94FE491F7CF8E2FDD
:102680000895CF92DF92EF92FF920F931F93CF9313
:10269000DF931F92CDB7DEB76C01E62E08E010E0A5
:1026A000FF24F39461E08F2D8E2109F460E0C601D0
:1026B00049830E943711FF0C01501109498101150E
:1026C000110581F7411115C0F894D6011196ED91CD
:1026D000FC91129791818C91809589238183119629
:1026E000ED91FC91129792818C9180958923828340
:1026F00078940F90DF91CF911F910F91FF90EF9001
:10270000DF90CF900895CF92DF92EF92FF920F93D8
:102710001F93CF93DF931F92CDB7DEB78C01F62EB8
:1027200040E065E579830E944113CF2C7981D72E53
:10273000760188E0E80EF11CF60161916F0140E03E
:10274000C8010E944113CE14DF04B1F70F90DF914E
:10275000CF911F910F91FF90EF90DF90CF90089550
:10276000FC0190810180F281E02DF8948181892B18
:1027700081832281892F809528232283A7E0B0E0DE
:102780001197F1F7218182238183A3E2B0E01197B1
:10279000F1F780817894EFECF0E03197F1F798232E
:1027A00081E009F480E00895FC0190810180F281CC
:1027B000E02DF8948181292F2095822381837894BC
:1027C0008DE743E050E0815021F1DA011197F1F7F4
:1027D00030813923C1F3F8948281822382838181FD
:1027E000892B81837894ABE7B7E01197F1F7F894E0
:1027F000818128232183A3E1B1E01197F1F7808142
:10280000982381E009F080E07894E3E6F6E03197E0
:10281000F1F70895AF92BF92CF92DF92EF92FF92BD
:102820000F931F93CF93DF931F92CDB7DEB75C0159
:10283000E62ED72EFC01858581115DC0C5010E9461
:10284000D413811105C0F5011386158614866BC05B
:1028500040E060EFC5010E94411301E0F12CC12C62
:1028600011E0C5010E94B013682FC50169830E9461
:10287000B0136981613019F48130B9F433C04F2D40
:1028800050E068131BC0F5018385181730F4E40F7E
:10289000F51F8381802349F402C0181731F060E0EE
:1028A000193058F4F501148708C0F501EF0DF11D3A
:1028B0008381802B838361E009C0C12EF501E40F81
:1028C000F51F9381802F809589238383C5010E9402
:1028D00037111F5F000F11F4F39401E0F7E0FF15CB
:1028E00008F0BFCF113438F0F501C386C11015C010
:1028F00081E0858712C0F50113861586148680E075
:10290000D5011396EE2DFD2D9501255F3F4F9D912D
:102910009193A217B307D9F706C0F50183818823E5
:1029200051F381E0EDCF0F90DF91CF911F910F9187
:10293000FF90EF90DF90CF90BF90AF9008950F93EE
:102940001F93CF93DF93EC01162F60E0812F0E943D
:102950001A12612F70E0FB01E95CF94FE491E88302
:10296000FB01ED5DF94FE491F0E0EE0FFF1FE75E34
:10297000F94F859194919A8389831B861D861C86C5
:10298000FE013B968E010D5F1F4F1292E017F1077B
:10299000E1F7DF91CF911F910F9108956F927F9290
:1029A0008F929F92AF92BF92CF92DF92EF92FF925F
:1029B0000F931F93CF93DF931F92CDB7DEB78C0198
:1029C000F42EFC018581968159830E94831340E097
:1029D0006EEBF801858196810E9441136F2C59811D
:1029E000752E5301F9E0AF0EB11CF8018580968079
:1029F00088E0C82ED12CEE24E394F12CC4010E946F
:102A0000B0138111FE28EE0CF1E0CF1AD108B1F716
:102A1000F301F1923F01EA15FB0539F7F8018581D1
:102A200096810E94D41391E0813009F090E0892FC3
:102A30000F90DF91CF911F910F91FF90EF90DF905A
:102A4000CF90BF90AF909F908F907F906F900895A0
:102A5000CF93DF93EC018D819E810E94D41340E0DF
:102A60006CEC8D819E810E944113488164E48D81CC
:102A70009E810E9441138A818823B1F0E981E95047
:102A8000E33040F4F0E0EE0FFF1FEF5CFE4F60819B
:102A9000718102C06EEE72E0072E000C880B990B5C
:102AA000DF91CF910C945612DF91CF910895CF937F
:102AB000DF93CDB7DEB729970FB6F894DEBF0FBE10
:102AC000CDBFFB0120812031D1F0AE014F5F5F4FC0
:102AD0000E944A05882389F08D818F3361F020F4AC
:102AE0008F3159F489E00CC08F3519F08F3739F0E8
:102AF00004C08BE005C08AE003C080E001C08CE028
:102B000029960FB6F894DEBF0FBECDBFDF91CF91EF
:102B10000895CF92DF92EF92FF920F931F93CF937E
:102B2000DF936C017A018B01C0E0D0E0CE15DF05A8
:102B300089F0D8016D918D01D601ED91FC91019044
:102B4000F081E02DC6010995892B11F47E0102C0A8
:102B50002196ECCFC701DF91CF911F910F91FF908C
:102B6000EF90DF90CF9008950F931F93CF93DF9353
:102B7000EC0188819981009729F02A813B812617F1
:102B8000370788F48B016F5F7F4F0E94222B0097DD
:102B900061F0998388831B830A832C813D81232BD9
:102BA00011F4FC01108281E001C080E0DF91CF913F
:102BB0001F910F910895EF92FF920F931F93CF9360
:102BC000DF93FC01248135816115710511F480E0EA
:102BD00019C041155105A9F07B01EC018A01020FD2
:102BE000131FB8010E94B415882389F32881398105
:102BF0008C819D81B701820F931F0E94202C1D8321
:102C00000C8381E0DF91CF911F910F91FF90EF90A6
:102C10000895CF93DF93EC0188819981009711F09B
:102C20000E94052D198218821D821C821B821A8225
:102C3000DF91CF910895EF92FF920F931F93CF935F
:102C4000DF93EC017B018A01BA010E94B415811166
:102C500004C0CE010E94091607C01D830C83B70172
:102C6000888199810E94202CCE01DF91CF911F9104
:102C70000F91FF90EF9008950F931F93CF93DF93E1
:102C80008C01C0E0D0E00115110591F1CE3FD105D6
:102C900078F58091860590918705DC01ED91FC9196
:102CA0000480F581E02D0995892BC1F0809186057E
:102CB00090918705DC01ED91FC910680F781E02D74
:102CC00009958D3031F38A3019F4209711F310C033
:102CD000FE01E35EFB4F80832196DBCF015011099B
:102CE00039F061E070E080E090E00E945612CBCFB6
:102CF000FE01E35EFB4F10828C2FDF91CF911F917D
:102D00000F910895CF93DF93C0E0D0E0CE010196FC
:102D1000A89718F5EC018091860590918705DC0154
:102D2000ED91FC910480F581E02D0995892B71F0DE
:102D30008091860590918705DC01ED91FC910680DC
:102D4000F781E02D0995C0E0D0E0E5CF61E070E0CB
:102D500080E090E00E945612D9CFDF91CF91089584
:102D6000DF92EF92FF920F931F93CF93DF938C012B
:102D70007B01D42EBC018DE194E00E94FF2DEC017B
:102D8000892BC1F0C8010E94F62D8C0F9D1FC0E059
:102D9000CD1549F06CE270E00E940C2C009751F0C8
:102DA0000196CF5FF5CF0E94A12DF701918380831B
:102DB00081E001C080E0DF91CF911F910F91FF90E2
:102DC000EF90DF9008952F923F924F925F926F9213
:102DD0007F928F929F92AF92BF92CF92DF92EF92AB
:102DE000FF920F931F93CF93DF9300D000D0CDB706
:102DF000DEB7FC01448055804114510409F413C12D
:102E0000FB01648075806114710409F40CC17A01BE
:102E10006B019C838B83FA01A480B580A618B70848
:102E2000FC0100811181A114B104C1F4F60160819B
:102E30007181C8010E94362C5C01892B09F4F3C012
:102E4000F7016081718144815581C5010E94F12B98
:102E5000F701048115810A0D1B1DE8CFB7FE02C0E2
:102E6000480106C0FB01208031804201C80148C0F2
:102E7000F60160817181C4010E94362C2C01892BDE
:102E800029F1320168187908A301B401C8010E9430
:102E9000F12B060D171DF701608171814481558169
:102EA000C8010E94F12BF70184819581080F191F39
:102EB000F60184809580840C951CEB81FC818481D3
:102EC00095818A0D9B1D95838483D2CFB401C8015F
:102ED0000F900F900F900F90DF91CF911F910F9156
:102EE000FF90EF90DF90CF90BF90AF909F908F902A
:102EF0007F906F905F904F903F902F900C94202C7C
:102F0000B1010E94362C009729F0860D971D8A0C7E
:102F10009B1CF6CF8414950409F485C0EB81FC81D9
:102F2000828193818815990578F4B4016F5F7F4F92
:102F3000C8010E94222B009709F475C0EB81FC8127
:102F40009183808393828282EB81FC81048115814D
:102F50000150110917FD67C0F60124803580211446
:102F6000310409F460C0EB81FC81648075806114D8
:102F7000710409F458C06214730408F454C00615AF
:102F8000170518F0830101501109EB81FC81408085
:102F90005180C20188248A94982C9201200F311FFD
:102FA0002817390758F0F6016081718129833A8327
:102FB0000E94362C29813A81009761F597FC33C035
:102FC000280C391CC201820D931DA301421953091B
:102FD000BC018A0D9B1D0E94FA2BEB81FC81848130
:102FE00095818A0D9B1D9583848320813181F90110
:102FF000E80FF91F1082EB81FC8180819181F7013C
:103000006081718144815581880D991D0E94F12B49
:1030100084019ECFAC01441955090417150708F027
:103020004A010196BDCF0F900F900F900F90DF9146
:10303000CF911F910F91FF90EF90DF90CF90BF90B5
:10304000AF909F908F907F906F905F904F903F9048
:103050002F900895CF93DF93FC0124813581232B9A
:1030600071F0FB01DC01CD91DC9160817181CE01B9
:103070000E94362C009719F08C1B9D0B02C08FEF1D
:103080009FEFDF91CF910895FC0124813581621774
:10309000730720F480819181009729F41092B00584
:1030A00080EB95E00895860F971F08950F931F9367
:1030B000CF93DF9300D0CDB7DEB78C0169831A823E
:1030C00041E050E0BE016F5F7F4F0E94DB15811130
:1030D00003C0C8010E940916C8010F900F90DF912C
:1030E000CF911F910F910895CF93DF93EC0161155C
:1030F000710561F0FB0101900020E9F73197AF0104
:10310000461B570B0E94DB15811103C0CE010E94A4
:103110000916CE01DF91CF910895CF93DF93EC0193
:10312000FB0144815581608171810E94DB15811111
:1031300003C0CE010E940916CE01DF91CF91089500
:10314000EF92FF920F931F93CF93DF93EC018B01CC
:103150006115710551F0CB010E94F62D7C01BC0177
:10316000CE010E94B415811104C0CE010E9409163F
:1031700007C0FD82EC82B801888199810E94EF2D01
:10318000CE01DF91CF911F910F91FF90EF900895A5
:10319000CF93DF93EC016115710559F0FB010190AC
:1031A0000020E9F73197AF01461B570B0E941B1611
:1031B00002C00E940916CE01DF91CF910895CF93EE
:1031C000DF93EC01FB018617970761F06081718145
:1031D0006115710529F0448155810E941B1602C0BA
:1031E0000E940916CE01DF91CF910895FC018081E4
:1031F00091810C94052DEF92FF920F931F93CF9323
:10320000DF93CDB7DEB7A1970FB6F894DEBF0FBE40
:10321000CDBF7C01CB01BA01F7011182108213826C
:1032200012821582148242E0420F8E010F5F1F4FFF
:103230000E94502CBC01C7010E94C818A1960FB66D
:10324000F894DEBF0FBECDBFDF91CF911F910F91DC
:10325000FF90EF9008950F931F93CF93DF93CDB717
:10326000DEB729970FB6F894DEBF0FBECDBF8C0135
:10327000862FF80111821082138212821582148225
:1032800050E0BE016F5F7F4F90E00E94632EBE0151
:103290006F5F7F4FC8010E94C81829960FB6F89437
:1032A000DEBF0FBECDBFDF91CF911F910F9108956B
:1032B000FC011182108213821282158214820C94F6
:1032C000DF18FC011182108213821282158214828F
:1032D0006115710551F0FB0101900020E9F731976C
:1032E000AF01461B570B0C941B1608954F925F922B
:1032F0006F927F92EF92FF920F931F93CF93DF9382
:10330000CDB7DEB7A1970FB6F894DEBF0FBECDBF25
:103310007C01FA01CB0119A2223008F42AE08E01C7
:103320000F5D1F4F422E512C612C712CBF01A30148
:1033300092010E94792AF901CA01015011096A30EB
:1033400014F4605D01C0695CD8016C93232B242BBD
:10335000252B61F7B801C7010E943A1AA1960FB652
:10336000F894DEBF0FBECDBFDF91CF911F910F91BB
:10337000FF90EF907F906F905F904F90089562E480
:1033800072E00C943A1A0F931F93CF93DF93EC01E2
:103390000E943A1A8C01CE010E94BF19800F911F22
:1033A000DF91CF911F910F9108950F931F93CF93AA
:1033B000DF93EC018B010E9482166EE572E0809132
:1033C0008605909187050E94C31984EF91E00E94C1
:1033D0003C1640E0B801CE010E94B016C82F8823E9
:1033E00021F084EF91E00E943C168C2FDF91CF9169
:1033F0001F910F910895EF92FF920F931F93CF9318
:10340000DF937C01EB018A010E948216B701809153
:103410008605909187050E94C319C8010E943C1639
:10342000882341F0BE018DE194E00E94E62D21E069
:10343000892B09F020E0822FDF91CF911F910F910E
:10344000FF90EF900895DC01ED91FC910190F081E7
:10345000E02D09940C943A1ADC01ED91FC91DB010A
:1034600014964D915C9115976D917C910280F3813A
:10347000E02D09946115710579F0FB0101900020A0
:10348000E9F73197AF01461B570BDC01ED91FC9139
:103490000280F381E02D099480E090E00895CF93BD
:1034A000DF93CDB7DEB7CF57D1090FB6F894DEBFA3
:1034B0000FBECDBF789484B5826084BD84B5816031
:1034C00084BD85B5826085BD85B5816085BD8091EF
:1034D0006E00816080936E00109281008091810067
:1034E000826080938100809181008160809381005F
:1034F000809180008160809380008091B100846021
:103500008093B1008091B00081608093B000809181
:103510007A00846080937A0080917A008260809340
:103520007A0080917A00816080937A0080917A009D
:10353000806880937A001092C100E0911503F091A9
:10354000160382E08083E0911103F0911203108250
:10355000E0911303F091140387E6808310921D031A
:10356000E0911903F0911A0386E08083E09117033C
:10357000F0911803808180618083E0911703F091BE
:103580001803808188608083E0911703F09118030D
:10359000808180688083E0911703F0911803808117
:1035A0008F7D80838CED91E00E941D0C61E086E0B0
:1035B0000E941A1261E08DE00E941A1261E085E01B
:1035C0000E941A1261E08AE00E941A1261E08FE004
:1035D0000E941A1261E08EE00E941A1260E083E0FD
:1035E0000E941A1260E089E00E941A1240E060E036
:1035F00081E00E946C076CE271E080E090E00E9444
:10360000561240E061E080E00E946C076CE271E0DD
:1036100080E090E00E94561241E060E080E00E946D
:103620006C076CE271E080E090E00E94561240E08E
:1036300060E081E00E946C0787EF93E09093CE03F7
:103640008093CD031092CC031092C80399E090931D
:10365000C90381E08093CA038093CB0329EE33E052
:103660003093BB032093BA031092B9031092B503B1
:103670009093B6038093B7038093B8032BED33E0A8
:103680003093A8032093A7031092A6031092A203DD
:103690009093A3038093A4038093A50388EC93E005
:1036A0000E94790585EB93E00E94790582EA93E018
:1036B0000E947905BE016F5F7F4F88EC93E00E9406
:1036C0007B0E882339F0BE016F5F7F4F88EC93E05B
:1036D0000E94C20FBE016F5F7F4F85EB93E00E9497
:1036E0007B0E882339F0BE016F5F7F4F85EB93E03F
:1036F0000E94C20FBE016F5F7F4F82EA93E00E947B
:103700007B0E882339F0BE016F5F7F4F85EB93E01E
:103710000E94C20F85E897E0909303018093020115
:10372000809169008C6080936900E99AB12CA12C8A
:10373000EDEC2E2E312C8FE491E00E941D0C60E008
:1037400086E00E94EA1160E08DE00E94EA1161E0EB
:1037500085E00E94EA1160ED77E080E090E00E9451
:10376000561261E08DE00E94EA1160E085E00E945F
:10377000EA116CED75E080E090E00E94561261E085
:1037800086E00E94EA1168EE73E080E090E00E941B
:10379000561260E086E00E94EA11E1E7F0E08491D1
:1037A000E0E4F6E00491ECE2F6E014911123A9F3D1
:1037B00081110E94C111E12FF0E0EE0FFF1FE75EC3
:1037C000F94FA591B4918C91082339F360ED77E01E
:1037D00080E090E00E9456128FE391E00E941D0C61
:1037E0001092A3051092A2051092A1051092A005B7
:1037F00010929F0510929E053092A5052092A40577
:1038000090919405963108F057C025E530E030934B
:103810009F0520939E052BEC30E03093A10520936B
:10382000A00520E930E03093A3052093A205209164
:103830006800983050F031E09E3008F430E081E0CC
:1038400001C0880F3A95EAF701C084E0822B80938B
:103850006800983038F09E3040F0963148F020E013
:1038600030E008C02DE630E005C02BE630E002C0B5
:103870002CE630E030939C0520939B05983030F483
:1038800081E001C0880F9A95EAF70EC0292F30E039
:103890009E3018F42850310902C02E50310981E0C1
:1038A00001C0880F2A95EAF780939D058091A405B1
:1038B0009091A5050197F1F78091A2059091A3053C
:1038C000892B49F1E0916A02F0916B0225E0E8381A
:1038D000F20709F1309739F0A389B4899C91858961
:1038E000809589238C938091A6058E7F8093A60571
:1038F000109269021092680288E895E090936B023A
:1039000080936A02E0919B05F0919C0590818091E3
:103910009D05892B808388E895E0909387058093A7
:1039200086050EE010E08091860590918705DC0108
:10393000ED91FC910480F581E02D0995892B61F0D2
:103940008091860590918705DC01ED91FC910680C0
:10395000F781E02D0995E7CF40E050E060ED77E09A
:1039600087E391E00E949B0C811133C064EF71E00A
:1039700080E090E00E94561201501109A1F640E04B
:1039800050E060ED77E087E391E00E949B0C64E6F5
:1039900070E080E090E00E94561240E050E060ED60
:1039A00077E087E391E00E949B0C64E670E080E0A2
:1039B00090E00E94561240E050E060ED77E087E32F
:1039C00091E00E949B0C64E670E080E090E00E9431
:1039D000561240E050E060ED77E087E391E00E940E
:1039E0009B0C882309F4CBC4E1EBF5E0659174915D
:1039F00088E495E00E94EF2D40E050E060ED77E034
:103A000088E495E00E949B0C64E670E080E090E022
:103A10000E945612EFEAF5E06591749188E495E012
:103A20000E94EF2D40E050E060ED77E088E495E003
:103A30000E949B0C64E670E080E090E00E945612C9
:103A4000E3EBF5E06591749188E495E00E94EF2D39
:103A500040E050E060ED77E088E495E00E949B0C48
:103A600064E670E080E090E00E945612E5EBF5E03D
:103A70006591749188E495E00E94EF2D40E050E05C
:103A800060ED77E088E495E00E949B0C64E670E0CE
:103A900080E090E00E945612E7EBF5E065917491AA
:103AA00088E495E00E94EF2D40E050E060ED77E083
:103AB00088E495E00E949B0C64E670E080E090E072
:103AC0000E945612E9EBF5E06591749188E495E067
:103AD0000E94EF2D40E050E060ED77E088E495E053
:103AE0000E949B0C64E670E080E090E00E94561219
:103AF000EBEBF5E06591749188E495E00E94EF2D81
:103B000064E670E080E090E00E94561264E670E0A7
:103B100080E090E00E94561282E291E00E941D0C2B
:103B2000EBEEF5E06591749188E495E00E94EF2D4D
:103B300040E050E060ED77E088E495E00E949B0C67
:103B400068EE73E080E090E00E9456126AE371E054
:103B500081E491E00E94110F813009F56DE070E081
:103B60008DE194E00E940C2C0097C9F08C010E5F4F
:103B70001F4F6DE070E0C8010E940C2C009711F0FF
:103B8000FC011082B8018DE194E00E94202C8BE1B1
:103B900091E00E94FC0B85E094E00E942B0D809147
:103BA0006C0290916D02029739F068EE73E080E04C
:103BB00090E00E945612F3CF68EE73E080E090E050
:103BC0000E94561285E091E00E94FC0B6EE1F62EF9
:103BD0000DEB15E0F8016591749188E495E00E9481
:103BE000EF2D40E050E060ED77E088E495E00E9442
:103BF0009B0C882369F168E471E08DE194E00E94F8
:103C0000362C009729F1DC0112962C91213311F00A
:103C10002533F1F4EFEBF5E06591749188E495E0DC
:103C2000C158DF4F2883CF57D0400E94EF2D40E08E
:103C300050E068EE73E088E495E00E949B0CC15868
:103C4000DF4F2881CF57D040EF962FAFEF9709C0B5
:103C500068EE73E080E090E00E945612FA94F11052
:103C6000B9CF84EF90E00E94FC0BEF966FADEF9719
:103C700085E093E00E94231A81EF90E00E94FC0B04
:103C8000EF962FADEF97213319F48EED90E008C039
:103C9000EF962FADEF97253309F039C38AEC90E00A
:103CA0000E941D0C80916C0290916D02029709F0A8
:103CB0002EC360ED77E080E090E00E94561247EC62
:103CC000842E45E0942E53EE652E55E0752E0E940D
:103CD000550E8C0182EC90E00E94FC0BC8010E9402
:103CE0008B0F68EE73E080E090E00E94561282EB4A
:103CF00090E00E941D0C40E050E060E27EE48BE426
:103D000091E00E949B0CE1ECF5E06591749188E4F0
:103D100095E00E94EF2D40E050E060ED77E088E410
:103D200095E00E949B0C882309F4D2C2E3ECF5E0F5
:103D30006591749188E495E00E94EF2D40E050E099
:103D400060ED77E088E495E00E949B0C882309F4FD
:103D5000BFC2EDEEF5E06591749188E495E00E94B4
:103D6000EF2DE1EFF5E06591749180E795E00E9419
:103D7000EF2D60E775E088E495E00E94110F813037
:103D8000C9F466E571E08DE194E00E94362C00975D
:103D900089F08C010E5F1F4F62E270E0C8010E9443
:103DA0000C2C009711F0DC011C92B8018DE194E01D
:103DB0000E94202C6DE174E0CE018E960E94611964
:103DC00064E472E0CE0188960E94611969E571E0B1
:103DD000CE0182960E946119AE01485D5F4FBE011F
:103DE0006E5D7F4FCE018E960E94E316CE018296C5
:103DF0000E94F618CE0188960E94F61864E472E0DC
:103E0000CE0188960E94611967E571E0CE01829625
:103E10000E946119AE01485D5F4FBE016E5D7F4F2C
:103E2000CE018E960E94E316CE0182960E94F6186D
:103E3000CE0188960E94F61864E472E0CE0188965E
:103E40000E94611963E472E0CE0182960E946119BA
:103E5000AE01485D5F4FBE016E5D7F4FCE018E9615
:103E60000E94E316CE0182960E94F618CE01889633
:103E70000E94F61864E472E0CE0188960E946119EF
:103E80006CE572E0CE0182960E946119AE01485D38
:103E90005F4FBE016E5D7F4FCE018E960E94E3168E
:103EA000CE0182960E94F618CE0188960E94F618DE
:103EB000CEA4DFA4C114D104E9F10AA91BA90115FC
:103EC0001105C1F126017201BFEF4B1A5B0AF70120
:103ED0008081082E000C990B0E944B32892B99F798
:103EE000015011090C0D1D1DD8018C91082E000CDC
:103EF000990B0E944B32892B79F40F5F1F4FA80159
:103F00004E195F095BAB4AABCE14DF0458F4B7011E
:103F1000C6010E94F12B06C00E151F0570F301505B
:103F20001109E2CF2EA53FA58AA99BA9F901E80FA7
:103F3000F91F1082F4016591749188E495E00E9464
:103F4000EF2D68E475E0CE0182960E946119BE01F2
:103F50006E5D7F4FCE018E960E942A188C01CE0195
:103F600082960E94F61817FD32C005EC15E0F801A4
:103F70006591749188E495E00E94EF2D68E475E006
:103F80008AE295E00E94C818E9ECF5E06591749129
:103F900088E495E00E94EF2D68E475E080E395E009
:103FA0000E94C81868E475E086E395E00E94C8188E
:103FB000F8016591749188E495E00E94EF2D68E422
:103FC00075E08CE395E00E94C818F4013EC06CE5F2
:103FD00071E0CE0182960E946119BE016E5D7F4F35
:103FE000CE018E960E942A188C01CE0182960E94E4
:103FF000F61817FD31C0EDECF5E06591749180E79E
:1040000095E00E94EF2D60E775E08AE295E00E945E
:10401000C818EFECF5E06591749188E495E00E9492
:10402000EF2D68E475E080E395E00E94C81868E42D
:1040300075E086E395E00E94C81860E775E08CE3C0
:1040400095E00E94C818EBECF5E06591749188E466
:1040500095E00E94EF2D3CC069E671E0CE018296AA
:104060000E946119BE016E5D7F4FCE018E960E9447
:104070002A188C01CE0182960E94F61817FD2EC0D8
:10408000E1EDF5E06591749188E495E00E94EF2DF3
:10409000E3EDF5E06591749180E795E00E94EF2DE6
:1040A00060E775E08AE295E00E94C81864E472E077
:1040B00080E395E00E94C81864E472E086E395E02E
:1040C0000E94C81860E775E08CE395E00E94C8186C
:1040D00068E475E085E093E00E94C319EBEDF5E03C
:1040E0006591749188E495E00E94EF2D68E475E095
:1040F00080918605909187050E942A1A6AE275E0F0
:1041000080918605909187050E942C1A80918605E2
:10411000909187050E94D20D40E050E060ED77E07D
:1041200080E090E00E949B0C811102C014E0BAC0B4
:10413000EDEDF5E06591749188E495E00E94EF2D36
:1041400068E475E080918605909187050E942A1A9F
:1041500060E375E080918605909187050E942C1A96
:1041600080918605909187050E94D20D40E050E035
:1041700060ED77E080E090E00E949B0C8823B1F234
:10418000EFEDF5E06591749188E495E00E94EF2DE4
:1041900068E475E080918605909187050E942A1A4F
:1041A00066E375E080918605909187050E942C1A40
:1041B00080918605909187050E94D20D40E050E0E5
:1041C00060ED77E080E090E00E949B0C882309F48A
:1041D000ADCFE1EEF5E06591749188E495E00E9441
:1041E000EF2D68E475E080918605909187050E9427
:1041F0002A1A6CE375E080918605909187050E94EC
:104200002C1A80918605909187050E94D20D40E07E
:1042100050E060ED77E080E090E00E949B0C882306
:1042200009F484CFF3016591749188E495E00E94CC
:10423000EF2D40E050E060E177E288E495E00E94F5
:104240009B0CE5EEF5E06591749188E495E00E94A1
:10425000EF2D40E050E060E177E288E495E00E94D5
:104260009B0CE7EEF5E06591749188E495E00E947F
:10427000EF2D40E050E060ED77E088E495E00E94AB
:104280009B0CE9EEF5E06591749188E495E00E945D
:10429000EF2D40E050E060ED77E088E495E00E948B
:1042A0009B0C10E0CE018E960E94F618111110C0E2
:1042B00080916C0290916D02039739F062E370E097
:1042C00080E090E00E945612F3CF8FE990E013C097
:1042D000B3948EE890E00E941D0C68E873E180E0E2
:1042E00090E00E94561280916C0290916D020397AB
:1042F00051F48CE790E00E941D0C40E061E080E00A
:104300000E946C0741C0AA2009F4E1CC3DC0B4E191
:10431000BB1508F410CAAA2009F40DCA89ED91E072
:104320000E941D0C07EF15E029EFE22E25E0F22E8A
:1043300035EFC32E35E0D32EF8016591749188E4F2
:1043400095E00E94EF2DF7016591749180E795E06B
:104350000E94EF2D40E050E060E177E288E495E0D4
:104360000E949B0C8823B9F040E050E068E873E1BC
:1043700080E795E00E949B0C882369F061C085E28C
:1043800091E00E941D0CFFCFF4E1FB1508F0C6CFB1
:10439000AA24A394D0C910921C0562E072E085E0C3
:1043A00093E00E942A1A6DE174E085E093E00E9498
:1043B000C3196DE174E0CE0188960E9461191BA2B9
:1043C0001AA21DA21CA21FA21EA263ED71E0CE01C3
:1043D00082960E94A018BE016E5D7F4FCE01889626
:1043E0000E942A185C01CE0182960E94F618B7FC42
:1043F0000DC08BEB91E00E94FC0B68EE73E080E057
:1044000090E00E945612E0E0F0E00995F601659117
:10441000749188E495E00E94EF2D40E050E060ED5B
:1044200077E088E495E00E949B0C68EE73E080E002
:1044300090E00E945612CE0188960E94F6187CCF1A
:1044400081E080931C0580E090E00E94A3338032DD
:10445000A9F188EA91E00E941D0C00E010E060E004
:10446000C8010E94CB060F5F1F4F0F3FF3E01F07ED
:10447000B1F760E280E090E00E94CB0688EC90E02B
:104480000E94720C61E771E084E690E00E944208AD
:104490006EE771E088E790E00E9442086BE871E007
:1044A0008CE890E00E9442086BE871E08CED90E0AF
:1044B0000E94420887E991E00E941D0C68E971E0C2
:1044C00081E194E00E94C81891E1E92E94E0F92E70
:1044D0000CED10E0D7016D917D011BA30AA3CE0165
:1044E00082960E9422080F5F1F4F023E110591F72E
:1044F00088EC90E00E94580C8CED90E00E943E0CFD
:1045000089E891E00E94FC0B609104017091050123
:1045100080910601909107010E942B0C81E194E0AB
:104520000E942B0D87E791E00E941D0C0E949012C3
:104530006093730270937402809375029093760275
:10454000609123057091240544EF51E08FE991E0DB
:104550000E94FB19882309F460C2BE016F5F7F4F80
:1045600089EA91E00E94D51981110AC0BE016F5FEE
:104570007F4F8FEA91E00E94D519882309F44DC23C
:10458000698016140CF049C2772473948CE992E088
:104590000E94FC0BC72C072C000CDD08C6010E94F2
:1045A0008B0F609123057091240544EF51E08FE952
:1045B00091E00E94FB19882309F48BC060912305C8
:1045C0007091240544EF51E087EB91E00E94FB19C4
:1045D000882309F47EC01A82198261EC71E080910F
:1045E0008605909187050E942A1A009186051091F0
:1045F0008705872C912CA12CB12C2AE0B501A401B0
:10460000C8010E947619C8010E94BF1988EE93E084
:104610000E943C164BE0BE016F5F7F4F8AEC91E039
:104620000E94B016582E882309F453C009811A81BC
:104630008DE1282E84E0382EE12CF12CE016F106D5
:1046400011F5F801E35EFB4F10820E948216EDE146
:10465000F4E001900020E9F731978F010D511440EB
:104660000B3F110510F00AEF10E0A8016DE174E0B6
:104670008BE792E00E94272CF801E558FD4F10824D
:1046800051102CC026C02EEFE216F104F9F08091F3
:10469000860590918705DC01ED91FC910480F58100
:1046A000E02D0995892B51F280918605909187051F
:1046B000DC01ED91FC910680F781E02D0995F10177
:1046C00081931F01FFEFEF1AFF0AB8CF0EEF10E042
:1046D000B8CF84E992E00E941D0C9FC1011511051D
:1046E00031F487E892E00E941D0C639492C18BE73D
:1046F00092E00E94FC0B272C072C000C3308440886
:10470000550857FE0EC06DE285E093E00E94231A23
:1047100044275527BA0142195309640975092AE04B
:1047200003C02AE0B201A10185E093E00E9476195E
:1047300061ED71E085E093E00E942A1AA80160E033
:1047400070E02AE085E093E00E9476198DE692E021
:104750000E941D0C6BE772E085E093E00E94C31994
:1047600087E692E00E941D0C6BE772E0CE018A5B47
:104770009F4F0E946119609123057091240544EFB9
:1047800051E08FE991E00E94FB19882309F43CC1B4
:10479000609123057091240544EF51E087EB91E08F
:1047A0000E94FB19F82E882309F42EC161EC71E0F8
:1047B00080918605909187050E942A1A00918605AE
:1047C000109187052AE0B501A401C8010E9476195D
:1047D000C8010E94BF1988EE93E00E943C166AEC63
:1047E00071E08DE194E00E94FF2D009769F16CE289
:1047F00070E006960E940C2C009731F1FC01319676
:1048000050E040E0252F30E02D303105F4F4842FC6
:1048100090E0DF010D900020E9F71197AE1BBF0B70
:104820008A179B0708F0CAC4DF01A80FB91F8C9133
:104830008C3209F4C3C4823229F0D901A558BD4F86
:104840008C935F5F4F5FDECFF12C0E948216FF20BA
:1048500009F4DAC06BE772E085E093E00E94C319C7
:104860006BE772E0CE01805C9F4F0E94611986E584
:1048700092E00E94FC0BC6010E948B0F6091230501
:104880007091240544EF51E08FE991E00E94FB19FB
:10489000882339F1E4E0F2E0DE0111968CE001902A
:1048A0000D928A95E1F7872D64E60E94592A20E34C
:1048B000280F2987892F6AE00E94592A805D8A87FC
:1048C000905D9B87609123057091240540ED57E032
:1048D000CE0101960E94FB19882319F082E592E02F
:1048E00002C082E492E00E941D0CBE016F5F7F4F08
:1048F00088E790E00E949106BE016F5F7F4FCE0176
:10490000CA960E946119BE016F5F7F4F8CE890E0EC
:104910000E949106BE016F5F7F4FCE01C4960E9438
:104920006119BE016F5F7F4F8CED90E00E94910690
:10493000BE016F5F7F4FCE018E960E946119BE014E
:10494000665C7F4FCE01805C9F4F0E942A1897FDC6
:1049500008C084E392E00E941D0CBE01665C7F4F9C
:1049600011C0BE016C5C7F4FCE01805C9F4F0E94E6
:104970002A1897FD22C086E292E00E941D0CBE011B
:104980006C5C7F4FCE0182960E945819BE016A5B13
:104990007F4FCE0188960E945819BE016E5D7F4FF1
:1049A000CE0188960E94CD06CE0188960E94F61808
:1049B000CE0182960E94F61816C0BE01625D7F4F3E
:1049C000CE01805C9F4F0E942A1897FD08C08CE1A1
:1049D00092E00E941D0CBE01625D7F4FD3CF8EE03E
:1049E00092E00E941D0CCE018E960E94F618CE0118
:1049F000C4960E94F618CE01CA960E94F618CE01FF
:104A0000805C9F4F0E94F618CE018A5B9F4F0E94E8
:104A1000F618739467140CF0B9CD0E9490126B01D4
:104A20007C0180917202811104C088EC90E00E94A8
:104A3000580C8091770290917802A0917902B09100
:104A40007A0246015701881A990AAA0ABB0A2091DC
:104A50000401309105014091060150910701A8EE33
:104A6000B3E00E94B93386169706A806B90608F483
:104A700084C380E092E00E94FC0B809177029091C9
:104A80007802A0917902B0917A02A7019601281BC1
:104A9000390B4A0B5B0BCA01B90128EE33E040E049
:104AA00050E00E94792ACA01B9010E942B0C41E012
:104AB00060E080E00E946C07C0927702D09278029A
:104AC000E0927902F0927A0288EC93E00E94281535
:104AD00085EB93E00E94281582EA93E00E94281556
:104AE00088EC93E00E94A20E6B017C0185EB93E0C1
:104AF0000E94A20E4B015C0182EA93E00E94A20E8A
:104B00002B013C010E94550E1C01EE961FAE1EAEFD
:104B1000EE97BE0164587F4F80EA90E00E94B7068E
:104B2000A5019401C701B6010E94B62AA301920112
:104B30000E94B62A2FE832EC41EB52E40E94B62ADA
:104B4000AB01BC0122E0CE01845B9F4F0E94FB18A9
:104B50008E010F5F1F4FB80184E690E00E9491061E
:104B6000B801CE018A5B9F4F0E946119CE018A5B1A
:104B70009F4F0E942B0DB80188E790E00E9491069C
:104B8000B801CE01805C9F4F0E946119CE01805C0C
:104B90009F4F0E942B0DB8018CE890E00E94910677
:104BA000B801CE01CA960E946119CE01CA960E9430
:104BB0002B0D8CED90E00E943E0C64ED71E0CE0177
:104BC00082960E946119BE016A5B7F4FCE01829678
:104BD0000E948D18BC01CE01C4960E945819CE01C6
:104BE00082960E94F6186BED71E0CE0182960E94CB
:104BF0006119BE01605C7F4FCE0182960E948D18C4
:104C0000BC01CE018E960E945819CE0182960E9458
:104C1000F61861EE71E0CE0182960E946119BE0124
:104C2000665C7F4FCE0182960E948D18BC01CE013A
:104C300088960E945819CE0182960E94F61867EE57
:104C400071E0CE0182960E946119BE016A5B7F4FBE
:104C5000CE0182960E948D1867EE71E00E94741852
:104C6000BE01605C7F4F0E948D1867EE71E00E946C
:104C70007418BE01665C7F4F0E948D1867EE71E06C
:104C80000E94741861E174E00E948D18BC01CE018D
:104C90008E5A9F4F0E945819CE0182960E94F61894
:104CA000CE0188960E94F618CE018E960E94F618C4
:104CB000CE01C4960E94F618CE01CA960E94F6183C
:104CC000CE01805C9F4F0E94F618CE018A5B9F4FF9
:104CD0000E94F618EE968EAD9FADEE976A961FAEC7
:104CE0001EAE6A976C961FAE1EAE6C976E961FAE88
:104CF0001EAE6E974AE0B8010E94192EB801CE018F
:104D0000885A9F4F0E94C81860916E0270916F027E
:104D10008091700290917102A0961FAE1EAEA09776
:104D2000A2961FAE1EAEA297A4961FAE1EAEA4976B
:104D30002AE0A8010E94412EB801CE01825A9F4F5D
:104D40000E94C818A6961FAE1EAEA697A8961FAEC4
:104D50001EAEA897AA961FAE1EAEAA974AE0B8014B
:104D6000C1010E94192EB801CE018C599F4F0E949B
:104D7000C81822E0B301A201CE0186599F4F0E94BC
:104D8000FB1822E0B501A401CE0180599F4F0E947B
:104D9000FB1822E0B701A601CE018A589F4F0E945E
:104DA000FB1869EE71E0CE018A5B9F4F0E9461198A
:104DB000E3EFF5E06591749188E495E00E94EF2DB2
:104DC00040E050E060E177E288E495E00E949B0CCF
:104DD000882309F4FBC06AE370E08DE194E00E944F
:104DE0000C2C009709F4F2C06CE270E00E940C2CCD
:104DF000009709F4EBC07C013FEFE31AF30AC70107
:104E00000E949D2D6CE270E0C7010E940C2C00975F
:104E100009F4DCC07C014FEFE41AF40AC7010E94D8
:104E20009D2D6CE270E0C7010E940C2C009709F4E4
:104E3000CDC07C015FEFE51AF50AC7010E94A12DE4
:104E4000D82E6FE270E0C7010E940C2C009709F485
:104E5000BDC07C01AFEFEA1AFA0AC7010E94A12D7A
:104E6000C82E6FE270E0C7010E940C2C009709F475
:104E7000ADC07C01BFEFEB1AFB0AC7010E94A12D58
:104E8000B82E6CE270E0C7010E940C2C009709F468
:104E90009DC07C01EFEFEE1AFE0AC7010E94A12D12
:104EA000A82E6AE370E0C7010E940C2C009709F459
:104EB0008DC07C01FFEFEF1AFF0AC7010E94A12DF0
:104EC000982E6AE370E0C7010E940C2C009709F449
:104ED0007DC001960E94A12D4AE0682FC8010E9462
:104EE0002B194AE0692DCE0182960E942B194AE0C7
:104EF0006A2DCE0188960E942B194AE06B2DCE01B7
:104F00008E960E942B194AE06C2DCE01C4960E9409
:104F10002B1960E36D0D4AE0CE01805C9F4F0E942B
:104F20002B19BE01605C7F4FCE01CA960E945819B2
:104F30006FE2CE01CA960E945618BE016C5C7F4F8C
:104F40000E948D186FE20E945618BE01625D7F4F6D
:104F50000E948D186CE20E945618BE01685D7F4F5A
:104F60000E948D186AE30E945618BE016E5D7F4F45
:104F70000E948D186AE30E945618B8010E948D188D
:104F80006AEF71E00E947418BC01CE018A5B9F4FEA
:104F90000E94DF18CE01CA960E94F618CE01805CEE
:104FA0009F4F0E94F618CE01C4960E94F618CE01BB
:104FB0008E960E94F618CE0188960E94F618CE01B1
:104FC00082960E94F618C8010E94F6186EEF71E0F2
:104FD000C8010E94611965E074E0C8010E948D1843
:104FE00067EE71E00E947418BE016A5B7F4F0E94F9
:104FF0008D18BC01CE0182960E945819C8010E94EA
:10500000F618CE018A5B9F4F0E94F618BE016E5DB6
:105010007F4FC8010E94581967EE71E0C8010E94D5
:105020007418BE016A587F4F0E948D1867EE71E0B8
:105030000E947418BE0160597F4F0E948D1867EE60
:1050400071E00E947418BE0166597F4F0E948D184E
:1050500067EE71E00E947418BE016C597F4F0E9488
:105060008D1867EE71E00E947418BE01625A7F4F7E
:105070000E948D1867EE71E00E947418BE01685A94
:105080007F4F0E948D18BE016E5A7F4F0E948D186F
:1050900067EE71E00E947418BE01645B7F4F0E944E
:1050A0008D18BC01CE0188960E945819C8010E9433
:1050B000F618CE0182960E94F618CE018A589F4FAC
:1050C0000E94F618CE0180599F4F0E94F618CE011B
:1050D00086599F4F0E94F618CE018C599F4F0E940F
:1050E000F618CE01825A9F4F0E94F618CE01885AB8
:1050F0009F4F0E94F618CE018E5A9F4F0E94F618BD
:10510000CE01845B9F4F0E94F618CE0188960E94C4
:105110002B0D4CA55DA560E070E02AE085E093E0F2
:105120000E94761985E093E00E94BF19BE01685D78
:105130007F4FC8010E945819C8010E94B908C801D0
:105140000E94F618CE0188960E94F61840E061E0B1
:1051500080E00E946C0781EF91E00E94FC0B80913F
:10516000B1059091B205009711F487EB95E0980195
:10517000281B390BC9010E948B0F0E9490120091CD
:105180007302109174022091750230917602DC0155
:10519000CB01801B910BA20BB30B81309C45A64227
:1051A000B54018F0E0E0F0E0099564EF71E080E0D0
:1051B00090E00E9456120E940611C2C9F901E558FA
:1051C000FD4F108242CB85E094E00E94F6188BE000
:1051D00094E00E94F61881E194E00E94F61887E1BD
:1051E00094E00E94F6188CE395E00E94F61886E39E
:1051F00095E00E94F61880E395E00E94F6188AE296
:1052000095E00E94F6188DE195E00E94F61882E282
:1052100091E0909389058093880580916A0290912E
:105220006B028858954071F4E0919B05F0919C05C4
:10523000908180919D0580958923808310926B02D7
:1052400010926A020895109208031092070388EEE4
:1052500093E0A0E0B0E08093090390930A03A09349
:105260000B03B0930C0322E131E03093060320934B
:10527000050325EC30E0309312032093110324EC56
:1052800030E0309314032093130320EC30E030938C
:1052900016032093150321EC30E03093180320937C
:1052A000170322EC30E030931A032093190326EC05
:1052B00030E030931C0320931B0310921E031092C6
:1052C0001F03109220031092210310928B0510925D
:1052D0008A0580938C0590938D05A0938E05B093DD
:1052E0008F0582E291E09093890580938805109262
:1052F0009F0510929E051092A1051092A005109294
:10530000A3051092A2051092A5051092A405609124
:10531000A6056E7F6D7F6093A6056695617081E03E
:10532000682787E00E94EA1161E087E00E941A1274
:10533000EEE3F6E0E491E0939805EAE2F6E0E4912A
:10534000F0E0EE0FFF1FE15FF94F8591949190938C
:105350009A058093990560E088E00E941A12809176
:10536000A60581FD04C061E088E00E94EA1188E0A2
:1053700080939405EFE3F6E0E491E0939505EBE28A
:10538000F6E0E491F0E0EE0FFF1FE75EF94F859144
:105390009491909397058093960510921C0564E470
:1053A00072E08DE195E00E94611964E472E08AE2A6
:1053B00095E00E94611964E472E080E395E00E9448
:1053C000611964E472E086E395E00E94611964E487
:1053D00072E08CE395E00E946119109285051092AD
:1053E000840564E472E087E194E00E94611964E45A
:1053F00072E081E194E00E94611964E472E08BE064
:1054000094E00E94611965E472E085E094E00E94F6
:10541000611960E187EF93E00E949F1461E189EEDA
:1054200093E00E949F1464E08BED93E00E949F1430
:1054300026E631E13093DA032093D90387EF93E036
:105440009093CE038093CD031092CC031092C803A7
:1054500099E09093C90381E08093CA038093CB03C2
:105460003093C7032093C60349EE53E05093BB0328
:105470004093BA031092B9031092B5039093B60308
:105480008093B7038093B8033093B4032093B3039E
:105490002BED33E03093A8032093A7031092A603CB
:1054A0001092A2039093A3038093A4038093A50377
:1054B0000895991B79E004C0991F961708F0961B70
:1054C000881F7A95C9F78095089597FB072E16F4E3
:1054D000009407D077FD09D00E949B2A07FC05D0D5
:1054E0003EF4909581959F4F0895709561957F4FFB
:1054F0000895A1E21A2EAA1BBB1BFD010DC0AA1F15
:10550000BB1FEE1FFF1FA217B307E407F50720F02C
:10551000A21BB30BE40BF50B661F771F881F991FA7
:105520001A9469F760957095809590959B01AC01F0
:10553000BD01CF010895AA1BBB1B51E107C0AA1FE3
:10554000BB1FA617B70710F0A61BB70B881F991F24
:105550005A95A9F780959095BC01CD010895EE0F5D
:10556000FF1F0590F491E02D09945058BB27AA27FE
:105570000E94CD2A0C9469330E945B3338F00E945C
:10558000623320F039F49F3F19F426F40C94583319
:105590000EF4E095E7FB0C945233E92F0E947A3326
:1055A00058F3BA17620773078407950720F079F458
:1055B000A6F50C949C330EF4E0950B2EBA2FA02D7B
:1055C0000B01B90190010C01CA01A0011124FF27B0
:1055D000591B99F0593F50F4503E68F11A16F040AB
:1055E000A22F232F342F4427585FF3CF46953795AA
:1055F0002795A795F0405395C9F77EF41F16BA0B6F
:10560000620B730B840BBAF09150A1F0FF0FBB1F1C
:10561000661F771F881FC2F70EC0BA0F621F731F65
:10562000841F48F4879577956795B795F7959E3FC2
:1056300008F0B0CF9395880F08F09927EE0F979553
:1056400087950895A0E0B0E0E8E2FBE20C94C8334F
:10565000EC01009721F4CB010E94702CB8C0FC0132
:10566000E60FF71F9C0122503109E217F30708F4F7
:10567000ACC0D9010D911C91119706171707B0F016
:105680000530110508F49FC0C801049786179707D5
:1056900008F499C002501109061B170B01931193CE
:1056A0006D937C93CF010E94052D8DC05B01A01AE4
:1056B000B10A4C01800E911EA091B305B091B405C2
:1056C00040E050E0E12CF12C109709F44AC0A815F5
:1056D000B905D1F56D907C901197630182E0C80EF9
:1056E000D11CCA14DB0480F1A3014A195B096A01C9
:1056F00082E0C80ED11C1296BC9012971396AC9102
:10570000B5E0CB16D10440F0B282A383518340832D
:10571000D9016D937C930AC00E5F1F4FC301800FA8
:10572000911FF90191838083EB2DFA2FE114F1048D
:1057300031F0D7011396FC93EE93129744C0F09387
:10574000B405E093B3053FC08D919C911197481724
:10575000590708F4AC017D0112960D90BC91A02D63
:10576000B3CF8091B1059091B20588159905E1F408
:1057700046175707C8F480910801909109010097D6
:1057800041F48DB79EB740910C0150910D01841BDF
:10579000950BE817F907C8F4F093B205E093B1054B
:1057A000F901718360830FC0CB010E94702C7C01D2
:1057B000009759F0A801BE010E94F12BCE010E9472
:1057C000052DC70104C0CE0102C080E090E0CDB736
:1057D000DEB7EEE00C94E43381E090E0F8940C94B2
:1057E0000A34FB01DC0102C001900D92415050408F
:1057F000D8F708956817790768F4FB01DC01E40F16
:10580000F51FA40FB51F02C002900E9241505040E8
:10581000D8F708950C94F12BFC018191861721F0A3
:105820008823D9F7992708953197CF010895FB016F
:10583000DC018D91019080190110D9F3990B089525
:10584000FB01DC0101900D920020E1F70895FB01BE
:10585000DC014150504048F001900D920020C9F702
:1058600001C01D9241505040E0F70895FB01519155
:105870005523A9F0BF01DC014D9145174111E1F716
:1058800059F4CD010190002049F04D91401541118E
:10589000C9F3FB014111EFCF81E090E0019708953A
:1058A000EF920F931F93CF93DF93E80147FD02C060
:1058B00034E001C034E1E42F440FFF0BF7FF03C0D5
:1058C000F195E195F109E32E022F2E2FAE010E94F2
:1058D000882ECE01DF91CF911F910F91EF90089507
:1058E000CF93DF938230910510F482E090E0E09155
:1058F000B305F091B40520E030E0C0E0D0E030978F
:1059000011F14081518148175907C0F048175907D4
:1059100061F482819381209719F09B838A832BC045
:105920009093B4058093B30526C02115310519F075
:105930004217530718F49A01BE01DF01EF010280FC
:10594000F381E02DDCCF2115310509F1281B390B3E
:105950002430310590F412968D919C911397611526
:10596000710521F0FB019383828304C09093B405F9
:105970008093B305FD01329644C0FD01E20FF31F91
:1059800081939193225031092D933C933AC02091F9
:10599000B1053091B205232B41F420910A013091D9
:1059A0000B013093B2052093B1052091080130918D
:1059B00009012115310541F42DB73EB740910C0185
:1059C00050910D01241B350BE091B105F091B2050A
:1059D000E217F307A0F42E1B3F0B2817390778F0C6
:1059E000AC014E5F5F4F2417350748F04E0F5F1F25
:1059F0005093B2054093B1058193919302C0E0E0CA
:105A0000F0E0CF01DF91CF9108950F931F93CF93D3
:105A1000DF93009709F48CC0FC0132971382128245
:105A20000091B3051091B4050115110581F4208191
:105A30003181820F931F2091B1053091B205281753
:105A4000390779F5F093B205E093B10571C0D8013B
:105A500040E050E0AE17BF0750F412962D913C91F4
:105A60001397AD012115310509F1D901F3CF9D013E
:105A7000DA013383228360817181860F971F821739
:105A8000930769F4EC0128813981260F371F2E5FB7
:105A90003F4F318320838A819B8193838283452B6F
:105AA00029F4F093B405E093B30542C01396FC9338
:105AB000EE931297ED01499159919E01240F351FE4
:105AC000E217F30771F480819181840F951F02968C
:105AD00011969C938E938281938113969C938E93BF
