:100000000C942A040C94F0220C941D230C943F2190
:100010000C943F210C943F210C9452040C945204F4
:100020000C9452040C9452040C9452040C945204F8
:100030000C9452040C9452040C9452040C945204E8
:100040000C944A230C9452040C9437260C94692681
:100050000C9452040C9452040C9452040C945204C8
:100060000C9452040C9452040A66726565206D6506
:100070006D6F72793A2000496E74657276616C20FA
:100080007365633A0070686F6E652069676E6F72A2
:10009000656400534D532063656E747200436F6D49
:1000A0006D616E64612074656C3200436F6D6D61CB
:1000B0006E64612074656C31002B434D5400534DC8
:1000C000533A000A53494D383030207365747570C7
:1000D00020656E6400496E74657276616C2073658C
:1000E000633A00436C65617220454550524F4D2084
:1000F000456E6400537461727420636C6561722094
:10010000454550524F4D000A4E6F20696E7465721E
:100110006E657420636F6E6E656374696F6E004503
:1001200052524F52004F4B000A2053494D38303045
:100130002073657475702073746172740047505237
:100140005320636F6E6E656374204F4B212D004604
:1001500061696C656420696E697420475052530070
:100160000A4750525320636F6E6E656374204F4B85
:10017000212B004750525320636F6E6E65637420CD
:100180002E2E0072737369202E2E000A5265676945
:1001900073746572656420726F616D696E67000AC1
:1001A000556E6B6E6F776E000A44656E696564000C
:1001B0000A4E6F7420726567697374657265642096
:1001C00028736561726368696E6729000A52656702
:1001D000697374657265642028686F6D6529000A0B
:1001E0004E6F742072656769737465726564003A56
:1001F00020000A4E6574776F726B2073746174759A
:1002000073200053657474696E67207570206E6585
:1002100074776F726B2E2E2E000A494D45493A00B5
:100220004F4B00506F7765722053494D3830302066
:100230004F6E00496E697469616C697A696E672EE8
:100240002E2E2E284D61792074616B652035207328
:1002500065636F6E64732900556E6B6E6F776E20E9
:10026000636F6D6D616E640054696D656F666600E5
:1002700052657374617274005265737461727400B4
:1002800054696D6573657400204572726F72733ABC
:1002900000546F74616C3A006E6F20636F6D706113
:1002A0007265006E6F20636F6D70617265006E6FB6
:1002B00020636F6D70617265006E6F20636F6D708B
:1002C000617265005B5061796C6F61645D20005400
:1002D0006865206E756D626572206F662073657249
:1002E000766572206572726F7273206578636565DA
:1002F00064656420323000436F6E6E656374206500
:1003000072726F720052657175657374696E6720E1
:1003100000005EBCE2613FDD83C29C7E20A3FD1F26
:10032000419DC3217FFCA2401E5F01E3BD3E608270
:10033000DC237D9FC1421CFEA0E1BF5D0380DE3C4B
:1003400062BEE0025CDF81633D7C22C09E1D43A152
:10035000FF4618FAA427799BC584DA3866E5BB59AD
:1003600007DB856739BAE406581947A5FB7826C428
:100370009A653BD987045AB8E6A7F91B45C6987A0F
:1003800024F8A6441A99C7257B3A6486D85B05E70A
:10039000B98CD2306EEDB3510F4E10F2AC2F719379
:1003A000CD114FADF3702ECC92D38D6F31B2EC0ED8
:1003B00050AFF1134DCE90722C6D33D18F0C52B0E3
:1003C000EE326C8ED0530DEFB1F0AE4C1291CF2DBA
:1003D00073CA947628ABF517490856B4EA6937D53D
:1003E0008B5709EBB536688AD495CB2977F4AA48A0
:1003F00016E9B7550B88D6346A2B7597C94A14F697
:10040000A8742AC896154BA9F7B6E80A54D7896B81
:1004100035B606A9069F0695068B067D0671066809
:10042000066106570639062906250621061906051E
:1004300006FD05F505EC05E405DE05CC05B705A1CF
:10044000058C0578056B055E0554053D0536052DC3
:10045000052905220511050505F904E504D104C1A6
:1004600004AD049D049704920486047A0474047114
:10047000040D0A004572726F72002B48545450529A
:100480004541443A200041542B4854545052454170
:100490004400302C363000302C3230300041542BA8
:1004A00048545450414354494F4E3D300041542B21
:1004B00048545450504152413D2255524C222C2216
:1004C0000041542B48545450414354494F4E3D3001
:1004D0000041542B48545450504152413D225552F2
:1004E0004C222C220041542B48545450504152412C
:1004F0003D22434944222C310041542B485454504E
:10050000494E49540041542B485454505445524D7F
:100510000041542B43495047534D4C4F433D312CE0
:1005200031004552524F520D004F4B0D0041542B9C
:10053000434F50533F0041542B47534E0041542BDF
:1005400043504D533D22534D222C22534D222C22F9
:10055000534D220041542B434D47463D31004154F9
:100560002B53415042523D322C310041542B5341C8
:100570005042523D312C310041542B434744434FAC
:100580004E543D312C224950222C220041542B53F1
:10059000415042523D332C312C22505744222C22C0
:1005A0000041542B53415042523D332C312C2255A3
:1005B000534552222C220041542B53415042523D6C
:1005C000332C312C2241504E222C2200696E74654E
:1005D000726E65742E54454C45322E72750054452A
:1005E0004C4532004D454741464F4E00696E74659B
:1005F000726E6574004D656761466F6E0062656579
:100600006C696E6500696E7465726E65742E6265E4
:10061000656C696E652E7275004265656C696E6504
:10062000006D7473004D545300696E7465726E658D
:10063000742E6D74732E72750041542B53415042C9
:10064000523D332C312C22436F6E74797065222C0D
:100650002247505253220041542B43474154543FA8
:100660000041542B4353510041542B435245473FC3
:100670000041542B434E4D493D322C320041542B06
:10068000435343533D2247534D220041542B434C87
:1006900049503D310041542B434D47463D310041C7
:1006A000542B4346554E3D310041542B4950523D49
:1006B000313932303000415445300000000008002C
:1006C0000201000003040700000000000000000118
:1006D00002040810204080010204081020010204D6
:1006E00008102004040404040404040202020202A8
:1006F0000203030303030300000000230026002974
:100700000000000000250028002B0000000000244D
:100710000027002A004E414E494E495459494E4641
:10072000CDCCCC3D0AD7233C17B7D13877CC2B3270
:100730009595E6241FB14F0A000020410000C842F1
:1007400000401C4620BCBE4CCA1B0E5AAEC59D7450
:1007500000407A10F35A00A0724E18090010A5D478
:10076000E80000E87648170000E40B54020000CAD5
:100770009A3B000000E1F50500008096980000001B
:1007800040420F000000A08601000000102700007A
:100790000000E803000000006400000000000A0000
:1007A000000000000100000000002C76D888DC6703
:1007B0004F0823DFC1DFAE59E1B1B796E5E3E4535B
:1007C000C63AE651997696E8E6C28426EB898C9B78
:1007D00062ED407C6FFCEFBC9C9F40F2BAA56FA518
:1007E000F490055A2AF75C936B6CF9676DC11BFC9A
:1007F000E0E40D47FEF520E6B500D0ED902E0300B5
:10080000943577050080841E080000204E0A000001
:1008100000C80C333333330F986E12831141EF8DC0
:100820002114893BE65516CFFEE6DB18D1844B3800
:100830001BF77C1D901DA4BBE424203284725E2231
:100840008100C9F124ECA1E53D274C11E017992660
:10085000AC11E71711241FBECFEFD8E0DEBFCDBF2C
:1008600012E0A0E0B1E0E2E1FEE602C005900D92E8
:10087000A23BB107D9F725E0A2EBB2E001C01D927F
:10088000A435B207E1F718E0C0E5D8E004C022972C
:10089000FE010E94612FCA34D107C9F70E94DD26EC
:1008A0000C94FC360C9400000C94D332CF92DF925F
:1008B000EF92FF920F931F93CF93DF9300D0CDB7AA
:1008C000DEB76C018B017C018DE0E80EF11CC601E6
:1008D00069837A830E94CB32F80181938F01FFEF05
:1008E000CF1ADF0A69817A81CE14DF0481F7CB0148
:1008F0000F900F90DF91CF911F910F91FF90EF908C
:10090000DF90CF9008950F931F93CF93DF93C9E3A8
:10091000D3E08C0109531340C8018C0F9D1F0E9426
:10092000CB32899383E0CF33D807B1F789E393E0E3
:10093000DF91CF911F910F9108950F931F93CF9344
:10094000DF93C5E1D1E08C0105511140C8018C0F46
:100950009D1F0E94CB32899381E0C931D807B1F73E
:1009600085E191E0DF91CF911F910F9108950F9351
:100970001F93CF93DF938C01EB010E94CB328883CE
:10098000C80101960E94CB328983CE01DF91CF91BD
:100990001F910F910895DC01ED91FC910190F08180
:1009A000E02D0994EF92FF920F931F93CF93DF9363
:1009B0001F92CDB7DEB77C01FC0100811181C80117
:1009C00069830E94CB326981681719F0C8010E94BF
:1009D000D332C7010F90DF91CF911F910F91FF90FC
:1009E000EF900895EF92FF920F931F93CF93DF93B1
:1009F00000D0CDB7DEB77C018B01FB0160819A830B
:100A00008983CE0101960E94D204F8016181FFEF33
:100A1000EF1AFF0AFA82E982CE0101960E94D204FF
:100A2000C8010F900F90DF91CF911F910F91FF9010
:100A3000EF900895BF92CF92DF92EF92FF920F93C3
:100A40001F93CF93DF9300D01F92CDB7DEB78C01F9
:100A5000B62EE62EF72E6C018DE0C80ED11CF701E4
:100A600061917F011A830983CE0101967B830E94E5
:100A7000D2040F5F1F4F7B810C151D0581F78B2D55
:100A8000972F0F900F900F90DF91CF911F910F91A3
:100A9000FF90EF90DF90CF90BF900895EF92FF927C
:100AA0000F931F93CF93DF9300D0CDB7DEB705E14F
:100AB00011E0855191407C01C701800F911FF80121
:100AC00061918F019A838983CE0101960E94D2049D
:100AD000F1E009311F0781F785E191E00F900F9058
:100AE000DF91CF911F910F91FF90EF9008951F9389
:100AF000CF93DF931F92CDB7DEB7162F682F8AE012
:100B000049830E949324612F8EE00E94932449819F
:100B1000642F8FE00F90DF91CF911F910C9493245D
:100B20000F931F930E949423009136041091370471
:100B300020913804309139049B01201B310B3093F4
:100B40003B0420933A0460933604709337048093F7
:100B500038049093390480913A0490913B04803F8B
:100B60009B403CF080913A0490913B048E3F9B4027
:100B70008CF080913A0490913B04883593406CF05E
:100B800080913A0490913B048636934034F481E09E
:100B900090E05BC082E090E058C080913A04909170
:100BA0003B048F35914044F080913A0490913B048E
:100BB000823791400CF447C080913C0490913D04F1
:100BC0000197E1F420913E0430913F0481E090E0F0
:100BD000232B11F080E090E090933F0480933E043B
:100BE00080913E0490913F0440E0892B19F460E02D
:100BF00081E002C061E080E00E94770580913C04C2
:100C000090913D04029731F520913E0430913F04CC
:100C100081E090E0232B11F080E090E090933F047E
:100C200080933E0480913E0490913F04892B21F4EF
:100C300040E060E081E003C041E060E080E01F91BF
:100C40000F910C94770583E090E090933D0480939E
:100C50003C04B2CF1F910F9108950F931F93CF9330
:100C6000DF93CDB7DEB7EE970FB6F894DEBF0FBEB9
:100C7000CDBF8C016DE171E0CE01C9960E941029B3
:100C8000BE016F5F7F4F8DE493E00E94131A8823AB
:100C900009F47AC04AE06E85CE010F960E947F2942
:100CA0004AE06D85CE0145960E947F294AE06C8519
:100CB000CE014B960E947F294AE06B85CE0181963A
:100CC0000E947F294AE06A85CE0187960E947F298B
:100CD0004AE06985CE01C3960E947F29BE016D5C02
:100CE0007F4FCE018D960E945E296FE2CE018D96D8
:100CF0000E94CB2ABE01695D7F4F0E949E2A6FE24F
:100D00000E94CB2ABE016F5D7F4F0E949E2A6CE23B
:100D10000E94CB2ABE01655E7F4F0E949E2A6AE335
:100D20000E94CB2ABE016B5E7F4F0E949E2A6AE31F
:100D30000E94CB2ABE01615F7F4F0E949E2A6EE215
:100D400071E00E94B12ABC01CE01C9960E944729D8
:100D5000CE018D960E94A228CE01C3960E94A228A1
:100D6000CE0187960E94A228CE0181960E94A228D9
:100D7000CE014B960E94A228CE0145960E94A22841
:100D8000CE010F960E94A22862E371E0CE010F9679
:100D90000E9410296DE273E0CE010F960E949E2AF8
:100DA00066E371E00E94B12ABE01675C7F4F0E943A
:100DB0009E2ABC01C8010E945E29CE010F960E94A6
:100DC000A228CE01C9960E94A228C801EE960FB6AD
:100DD000F894DEBF0FBECDBFDF91CF911F910F9171
:100DE00008950F931F93CF93DF93CDB7DEB7E797A7
:100DF0000FB6F894DEBF0FBECDBF8C01BE016F5F92
:100E00007F4F80911301909114010E945604BE01FE
:100E10006F5F7F4FCE01C2960E941029BE016E5CAB
:100E20007F4F80EB94E00E947C27BE016F5F7F4F75
:100E300080911101909112010E945604BE016F5FD2
:100E40007F4FCE018C960E941029BE01645D7F4FBA
:100E500080EB94E00E947C27BE016F5F7F4F809102
:100E60000F01909110010E945604BE016F5F7F4FE9
:100E7000CE0186960E941029BE016A5D7F4F80EBED
:100E800094E00E947C278091090190910A010E94C0
:100E9000830468E371E0CE010E960E941029BE0122
:100EA0006E5C7F4FCE010E960E949E2ABC01CE0141
:100EB00080960E945E29CE010E960E94A2286FE3C2
:100EC00071E0CE010E960E941029BE01645D7F4F35
:100ED000CE010E960E949E2ABC01CE014A960E9427
:100EE0005E29CE010E960E94A22865E471E0CE0133
:100EF0000E960E941029BE016A5D7F4FCE010E96AC
:100F00000E949E2ABC01CE0144960E945E29CE0119
:100F10000E960E94A22866E371E0CE010E960E9412
:100F20001029BE016E5C7F4FCE010E960E949E2A54
:100F300066E371E00E94B12ABE01645D7F4F0E94AA
:100F40009E2A66E371E00E94B12ABE016A5D7F4F6E
:100F50000E949E2A66E371E00E94B12A69E373E071
:100F60000E949E2ABC01C8010E945E29CE010E96F5
:100F70000E94A228CE0144960E94A228CE014A9641
:100F80000E94A228CE0180960E94A228CE018696B9
:100F90000E94A228CE018C960E94A228CE01C29661
:100FA0000E94A228C801E7960FB6F894DEBF0FBED4
:100FB000CDBFDF91CF911F910F910895CF93DF9314
:100FC00000D0CDB7DEB7BE016F5F7F4F80910D01BE
:100FD00090910E010E94B70489819A8101969A83AB
:100FE0008983BE016F5F7F4F80910D0190910E014B
:100FF0000E94F2040F900F90DF91CF910895CF924D
:10100000DF92EF92FF921F93CF93DF93CDB7DEB7BE
:1010100062970FB6F894DEBF0FBECDBF7C0165E0CE
:1010200073E080EB94E00E942A276BE471E080EB90
:1010300094E00E945D276FE380EB94E00E945F27BD
:10104000B70180EB94E00E947C27B701CE010196A6
:101050000E945E29AE014F5F5F4F6BE471E08DE44B
:1010600093E00E94141BCE0101960E94A228809159
:10107000490390914A03A0914B03B0914C03019610
:10108000A11DB11D8093490390934A03A0934B0384
:10109000B0934C030297A105B10590F081E08093D5
:1010A00035040EC06AE070E080E090E00E94C32347
:1010B000115031F08DE493E00E944220882391F397
:1010C0008DE493E00E949918811108C06EE270E0EF
:1010D00080EB94E00E94CB0419E1ECCF8091CD032A
:1010E000843099F567EF72E080EB94E00E946A2704
:1010F0008091450390914603A0914703B091480326
:101100000196A11DB11D8093450390934603A093C2
:101110004703B09348030E94DE07809145039091F6
:101120004603A0914703B09148034597A105B10537
:1011300028F0E091B202F091B302099568EB7BE0F0
:1011400080E090E00E94C32315C280EB94E00E94EF
:1011500066278DE493E00E94B8178DE493E00E9427
:10116000891B892BD1F38091CD03843041F5809187
:10117000450390914603A0914703B091480301961F
:10118000A11DB11D8093450390934603A09347038F
:10119000B09348030E94DE07809145039091460377
:1011A000A0914703B09148034597A105B10530F2DE
:1011B0006FEC72E080EB94E00E946A27BACF64EC97
:1011C00072E080EB94E00E942A276DE473E080EBEC
:1011D00094E00E948E276DE473E0CE010D960E948C
:1011E000102922E030E040E050E0BE01635F7F4F15
:1011F000CE0107960E949C2BCE0107960E94612D7E
:101200006130710509F051C02AE030E042E050E061
:10121000BE01635F7F4FCE0101960E949C2BCE01E1
:1012200001960E94612D6B017C012AE030E0AB0148
:10123000BC0180EB94E00E949028D701C6010B9777
:10124000A109B10986379145A140B105F8F4809113
:10125000150190911601A0911701B0911801C816BF
:10126000D906EA06FB0691F08091240381110EC095
:10127000C0921501D0921601E0921701F092180168
:1012800080910B0190910C010E944E054091150137
:101290005091160160911701709118012AE030E019
:1012A00080EB94E00E949028FBC06230710509F049
:1012B0003FC042E050E060E070E0CE010D960E9439
:1012C000D42C67E173E080911301909114010E9486
:1012D000560467E173E0CE0101960E941029BE0119
:1012E0006F5F7F4FCE010D960E94092B8111D8C0F0
:1012F00069EB72E080EB94E00E946A27E12CF12C0C
:10130000B701CE010D960E941C2B20911301309144
:101310001401FC016081C701820F931F0E945404D5
:10132000FFEFEF1AFF0A2DE0E216F10449F7B8C00B
:101330006330710509F03FC042E050E060E070E0CA
:10134000CE010D960E94D42C67E173E080911101CB
:10135000909112010E94560467E173E0CE0101965C
:101360000E941029BE016F5F7F4FCE010D960E9433
:10137000092B811195C06EEA72E080EB94E00E9427
:101380006A27E12CF12CB701CE010D960E941C2B8F
:101390002091110130911201FC016081C701820F7F
:1013A000931F0E945404FFEFEF1AFF0A2DE0E2168C
:1013B000F10449F775C06430710509F03FC042E09F
:1013C00050E060E070E0CE010D960E94D42C67E101
:1013D00073E080910F01909110010E94560467E123
:1013E00073E0CE0101960E941029BE016F5F7F4F0E
:1013F000CE010D960E94092B811152C063EA72E062
:1014000080EB94E00E946A27E12CF12CB701CE0119
:101410000D960E941C2B20910F0130911001FC01B0
:101420006081C701820F931F0E945404FFEFEF1ADF
:10143000FF0A2DE0E216F10449F732C0653071056C
:1014400061F41A821982BE016F5F7F4F80910D0196
:1014500090910E010E94F2044DC06630710509F0B2
:1014600044C042E050E060E070E0CE010D960E9482
:10147000D42C67E173E08091090190910A010E94E8
:10148000560467E173E0CE0101960E941029BE0167
:101490006F5F7F4FCE010D960E94092B882329F0A4
:1014A000CE0101960E94A22825C068E972E080EB77
:1014B00094E00E946A27E12CF12CB701CE010D9631
:1014C0000E941C2B2091090130910A01FC016081CE
:1014D000C701820F931F0E945404FFEFEF1AFF0A07
:1014E0002DE0E216F10449F7DBCF6730710511F406
:1014F0001092240361E972E080EB94E00E942A27B5
:101500004091490350914A0360914B0370914C0301
:101510002AE030E080EB94E00E946D288091450342
:1015200090914603A0914703B0914803892B8A2BE1
:101530008B2BA1F068E872E080EB94E00E942A27F0
:1015400040914503509146036091470370914803D1
:101550002AE030E080EB94E00E946D2880EB94E07C
:101560000E946627CE0107960E94A228CE010D9602
:101570000E94A22862960FB6F894DEBF0FBECDBFC0
:10158000DF91CF911F91FF90EF90DF90CF90089562
:101590004F925F926F927F928F929F92AF92BF9283
:1015A000CF92DF92EF92FF920F931F93CF93DF932F
:1015B000CDB7DEB7C454D1090FB6F894DEBF0FBE65
:1015C000CDBF8AED92E00E94681487EC92E00E9401
:1015D000681484EB92E00E94681460E08AED92E067
:1015E0000E94FD146B017C0160E087EC92E00E9498
:1015F000FD144B015C0160E084EB92E00E94FD145D
:101600002B013C018DE493E00E94E4198C012596A6
:101610001FAE1EAE2597BE016D5B7F4F80910D0101
:1016200090910E010E94B704A5019401C701B60173
:101630000E946E2DA30192010E946E2D2FE832ECC4
:1016400041EB52E40E946E2DAB01BC0122E0CE01C1
:1016500001960E94052ACE0107960E94F106259662
:101660006EAD7FAD25974AE0CE010D960E94AC2964
:1016700040914503509146036091470370914803A0
:101680002AE0CE0143960E94D8294AE0B801CE0153
:1016900049960E94AC2922E0B301A201CE014F96E7
:1016A0000E94052A22E0B501A401CE0185960E9480
:1016B000052A22E0B701A601CE018B960E94052AD9
:1016C000CE01C7960E942D06BE01695C7F4FCE01F8
:1016D000C1960E945E2966E371E0CE01C1960E9428
:1016E000B12ABE01655D7F4F0E949E2A66E371E0CC
:1016F0000E94B12ABE016B5D7F4F0E949E2A66E365
:1017000071E00E94B12ABE01615E7F4F0E949E2A55
:1017100066E371E00E94B12ABE01675E7F4F0E94BE
:101720009E2A66E371E00E94B12ABE016D5E7F4F82
:101730000E949E2A66E371E00E94B12ABE01635FA7
:101740007F4F0E949E2ABE01695F7F4F0E949E2AA2
:1017500066E371E00E94B12ABE016F5F7F4F0E9475
:101760009E2ABC01CE01CD960E945E29CE01C19673
:101770000E94A228CE01C7960E94A228CE018B9675
:101780000E94A228CE0185960E94A228CE014F96E3
:101790000E94A228CE0149960E94A228CE0143961B
:1017A0000E94A228CE010D960E94A228CE01079683
:1017B0000E94A228CE0101960E94A228BE01635C6D
:1017C0007F4F80EB94E00E947C2723966EAD7FAD27
:1017D00023974AE050E080EB94E00E947A28BE0113
:1017E000635C7F4FCE0101960E945E29CE01019677
:1017F0000E94FF07CE0101960E94A228CE01CD963D
:101800000E94A228CC5BDF4F0FB6F894DEBF0FBE5C
:10181000CDBFDF91CF911F910F91FF90EF90DF909F
:10182000CF90BF90AF909F908F907F906F905F9080
:101830004F900895CF93DF9300D0CDB7DEB72091BE
:101840004E0530914F052115310511F424E535E0A1
:10185000CE010196821B930B0F900F90DF91CF91D9
:101860000895CF92DF92EF92FF920F931F93CF9341
:10187000DF9300D000D000D0CDB7DEB78C017B0164
:1018800060E872E0CE0101960E94562ABE016F5FA9
:101890007F4FC8010E944A2B6C01CE0101960E9425
:1018A000A228D7FC1AC084E190E0A0E0B0E08093C9
:1018B000150190931601A0931701B093180181E0D0
:1018C000809324032AE030E044E150E060E070E0DF
:1018D00080EB94E00E9490284CC068E772E0CE0153
:1018E00001960E94562ABE016F5F7F4FC8010E9479
:1018F0004A2B6C01CE0101960E94A228D7FC1DC084
:10190000B70180EB94E00E944F276AE771E080EB1B
:1019100094E00E945D2760E772E080EB94E00E9413
:101920006A2768EE73E080E090E00E94C323E091B4
:10193000B202F091B30209951CC068E672E0CE01D4
:1019400001960E94562ABE016F5F7F4FC8010E9418
:101950004A2B8C01CE0101960E94A22817FD03C0DC
:101960001092240306C068E572E080EB94E00E94C8
:101970006A2726960FB6F894DEBF0FBECDBFDF9163
:10198000CF911F910F91FF90EF90DF90CF9008952E
:101990000F931F93CF93DF9310E000E063E372E0B7
:1019A00080EB94E00E946A2760E086E00E94932426
:1019B00060E08DE00E94932461E085E00E94932422
:1019C00060ED77E080E090E00E94C32361E08DE06D
:1019D0000E94932460E085E00E9493246CED75E002
:1019E00080E090E00E94C32361E086E00E9493249F
:1019F00068EE73E080E090E00E94C32360E086E040
:101A00000E94932489E00E94C924892BD9F360EDB8
:101A100077E080E090E00E94C32363E272E080EB15
:101A200094E00E946A2740E05BE460E070E08DE4AF
:101A300093E00E94DB1B811107C06EE270E080EB37
:101A400094E00E94CB04EFCF60E272E080EB94E080
:101A50000E946A278DE493E00E949B1D882361F019
:101A600069E172E080EB94E00E942A276DE273E066
:101A700080EB94E00E947C2780913C0490913D048F
:101A8000029739F068EE73E080E090E00E94C32393
:101A9000F3CF68EE73E080E090E00E94C32363E040
:101AA00072E080EB94E00E942A278DE493E00E948C
:101AB0009019C82F62EF71E080EB94E00E942A2712
:101AC0006C2F80EB94E00E945F276FEE71E080EB5B
:101AD00094E00E942A27C03319F46FED71E013C01F
:101AE000C13319F46CEC71E017C0C23319F460EB28
:101AF00071E009C0C33319F468EA71E004C0C4336B
:101B000039F46FE971E080EB94E00E946A2770C0BD
:101B1000C53339F46BE871E080EB94E00E946A27EA
:101B200003C0C13309F064C080913C0490913D042E
:101B3000029709F05DC060ED77E080E090E00E94E0
:101B4000C3238DE493E00E94E419EC0163E871E0A3
:101B500080EB94E00E942A274AE050E0BE0180EB2F
:101B600094E00E94552868EE73E080E090E00E94C7
:101B7000C32363E771E080EB94E00E946A278DE461
:101B800093E00E94321E811110C080913C0490911C
:101B90003D04039739F062E370E080E090E00E943A
:101BA000C323F3CF60E671E015C01F5F6FE471E0FF
:101BB00080EB94E00E946A2768E873E180E090E09F
:101BC0000E94C32380913C0490913D04039761F4EB
:101BD0006DE371E080EB94E00E946A2740E061E0F1
:101BE00080E00E9477050BC0002309F4AACF07C04C
:101BF000153108F0D3CE002309F4D0CE04C015313E
:101C000010F001E0CBCEDF91CF911F910F9108959D
:101C1000EF92FF920F931F93CF93DF93CDB7DEB771
:101C200064970FB6F894DEBF0FBECDBF26E040E04C
:101C30005BE460E070E080EB94E00E94D52568E210
:101C400071E080EB94E00E946A2761E086E00E94E8
:101C50005A2461E08DE00E945A2461E085E00E94F0
:101C60005A2461E08AE00E945A2461E08FE00E94D9
:101C70005A2461E08EE00E945A2460E083E00E94D2
:101C80005A2460E089E00E945A2440E060E081E04C
:101C90000E9477056CE271E080E090E00E94C3232F
:101CA00040E061E080E00E9477056CE271E080E056
:101CB00090E00E94C32341E060E080E00E9477054D
:101CC0006CE271E080E090E00E94C32340E060E0BD
:101CD00081E00E94770569E073E08AED92E00E945E
:101CE000E0116BEF72E087EC92E00E94E0116DEE84
:101CF00072E084EB92E00E94E0118AED92E00E9493
:101D0000821387EC92E00E94821384EB92E00E949F
:101D1000821340E0BE016F5F7F4F8AED92E00E9428
:101D2000FA11882341F04CE0BE016F5F7F4F8AEDCE
:101D300092E00E940C1340E0BE016F5F7F4F87EC82
:101D400092E00E94FA11882341F04CE0BE016F5FDF
:101D50007F4F87EC92E00E940C1340E0BE016F5F62
:101D60007F4F84EB92E00E94FA11882341F04CE00F
:101D7000BE016F5F7F4F87EC92E00E940C1343E03F
:101D800050E060E975E081E00E94D0220E94C80C1A
:101D900065E271E080EB94E00E946A278DE493E0B5
:101DA0000E94D41A811146C06DE771E080EB94E087
:101DB0000E945D276DE473E080EB94E00E948E2723
:101DC0006DE473E0CE010F960E9410296FE171E07F
:101DD000CE0109960E94562ABE01675F7F4FCE0151
:101DE0000F960E944A2B8C01CE0109960E94A228D0
:101DF00017FD11C067E071E080EB94E00E942A2794
:101E000068EE73E080E090E00E94C323E091B202AC
:101E1000F091B30209958DE493E00E94B91A68EE3F
:101E200073E080E090E00E94C323CE010F960E94F1
:101E3000A228B4CF80E090E00E94CB32803209F437
:101E400043C064EF70E080EB94E00E946A2700E0FA
:101E500010E060E0C8010E9454040F5F1F4F0F3F65
:101E600083E01807B1F760E280E090E00E9454043C
:101E700080910B0190910C010E944E056FE771E07B
:101E800080911301909114010E941A056CE871E091
:101E900080911101909112010E941A0569E971E087
:101EA00080910F01909110010E941A0569E971E07B
:101EB0008091090190910A010E941A0563EE70E079
:101EC00080EB94E00E946A2766EA71E089E393E080
:101ED0000E946729E0900901F0900A0109E313E0EC
:101EE000F701E953F3407F01C701800F911FF8010B
:101EF00061918F019A878987CE0109960E94D20449
:101F0000F3E00F331F0781F780910B0190910C01D3
:101F10000E949D048091090190910A010E9483040E
:101F200065ED70E080EB94E00E942A274091150156
:101F30005091160160911701709118012AE030E06C
:101F400080EB94E00E94902869E373E080EB94E0DA
:101F50000E947C2763EC70E080EB94E00E946A278B
:101F60000E9494236093290370932A0380932B0388
:101F700090932C0364960FB6F894DEBF0FBECDBFCE
:101F8000DF91CF911F910F91FF90EF9008958F9265
:101F90009F92AF92BF92CF92DF92EF92FF92CF9338
:101FA000DF93CDB7DEB7AB970FB6F894DEBF0FBEA9
:101FB000CDBF8DE493E00E94EB17882309F4BAC0EB
:101FC0006EEB70E080EB94E00E942A276EEC73E0E9
:101FD00080EB94E00E947C2769EB70E0CE010196D3
:101FE0000E94562ABE016F5F7F4F8EEC93E00E94E5
:101FF0004A2B7C01CE0101960E94A228F7FC94C0D6
:10200000BE016F5F7F4F80911101909112010E947C
:102010005604BE016F5F7F4FCE0186960E94102945
:10202000BE016F5F7F4F80910F01909110010E9460
:102030005604BE016F5F7F4FCE0180960E9410292B
:10204000BE016F5F7F4F8091090190910A010E944C
:102050005604BE016F5F7F4FCE014A960E94102941
:10206000BE016A5D7F4F8EEC93E00E944A2B97FD84
:102070000AC06BEA70E080EB94E00E946A27BE0120
:102080006A5D7F4F12C0BE01605E7F4F8EEC93E0B1
:102090000E944A2B97FD23C06DE970E080EB94E02D
:1020A0000E946A27BE01605E7F4FCE010E960E949D
:1020B0005E296EEC73E0CE0144960E945E29BE015B
:1020C000625F7F4FCE0144960E94310CCE01449650
:1020D0000E94A228CE010E960E94A22819C0BE011D
:1020E000665E7F4F8EEC93E00E944A2B97FD0AC0FC
:1020F00063E970E080EB94E00E946A27BE01665EAF
:102100007F4FD3CF65E870E080EB94E00E946A27B0
:10211000CE014A960E94A228CE0180960E94A22853
:10212000CE0186960E94A22864E172E08EEC93E0D4
:102130000E9467290E9494236B017C0180912403F3
:10214000811106C080910B0190910C010E949D04A9
:102150008091250390912603A0912703B091280335
:1021600046015701881A990AAA0ABB0A209115014B
:10217000309116014091170150911801A8EEB3E07B
:102180000E94402F86169706A806B90608F447C095
:1021900067E770E080EB94E00E942A278091250396
:1021A00090912603A0912703B0912803A7019601DF
:1021B000281B390B4A0B5B0BCA01B90128EE33E02F
:1021C00040E050E00E94FF2EBA01A9012AE030E071
:1021D00080EB94E00E94902841E060E080E00E9463
:1021E0007705C0922503D0922603E0922703F09250
:1021F00028030E94C80A40E061E080E00E94770561
:1022000068E670E080EB94E00E942A270E941A0C96
:102210004AE050E0BC0180EB94E00E9455280E9407
:1022200094236B017C018091290390912A03A09152
:102230002B03B0912C03C81AD90AEA0AFB0A209191
:10224000190130911A0140911B0150911C01A8EE17
:10225000B3E00E94402F6C157D058E059F0528F484
:10226000E091B202F091B302099564EF71E080E071
:1022700090E00E94C323AB960FB6F894DEBF0FBE6A
:10228000CDBFDF91CF91FF90EF90DF90CF90BF90C7
:10229000AF909F908F9008951092CD0364E172E00B
:1022A0008EEC93E00E94102964E172E089ED93E0E6
:1022B0000E94102964E172E08FED93E00E941029E2
:1022C00064E172E085EE93E00E94102964E172E01F
:1022D0008BEE93E00E941029109234041092330484
:1022E00064E172E08FE393E00E94102964E172E000
:1022F00089E393E00E94102964E172E083E393E0B4
:102300000E9410296DEA71E08DE293E00E9410298D
:102310006091060189E093E00E94611660910701D7
:102320008BEF92E00E946116609108018DEE92E0C1
:102330000E94611669E073E08AED92E00E94D1117B
:102340006BEF72E087EC92E00E94D1116DEE72E0CB
:1023500084EB92E00C94D1118DE293E00E94A228CC
:1023600083E393E00E94A22889E393E00E94A228DD
:102370008FE393E00E94A2288BEE93E00E94A228B4
:1023800085EE93E00E94A2288FED93E00E94A228A0
:1023900089ED93E00E94A2288EEC93E00C94A22891
:1023A0000895FC0180ED91E1928B818B76836583AA
:1023B0001482108289E0818381E08283838308957F
:1023C000FC01768365831482108289E0818381E039
:1023D000828383830895CF93DF93EB0167E0CE017F
:1023E0000E941C1791E02F81821390E0892FDF91CA
:1023F000CF910895EF92FF920F931F93CF93DF93A6
:10240000EC018B01E42E8D819E810E944F16F12CF0
:10241000B8018D819E810E948416882359F0FE1098
:1024200006C0B801CE010E94EB11811104C0F394E3
:10243000EF1470F780E0DF91CF911F910F91FF9023
:10244000EF900895CF92DF92EF92FF920F931F9338
:10245000CF93DF9300D0CDB7DEB76C01F42EE52E1D
:10246000FC018581968169837A830E9428156981A0
:102470007A81882311F1F601858196810E942316C5
:1024800040E06EEBF601858196810E94C5150F2D07
:102490001E2D89E0F82EF601858196810E9407168F
:1024A000F80181938F01FA94B1F7F6018581968145
:1024B0000E94281591E0813009F090E0892F0F905B
:1024C0000F90DF91CF911F910F91FF90EF90DF90D0
:1024D000CF900895CF93DF93EA010E9422128823C0
:1024E00051F068E0CE010E941C1791E0288582130C
:1024F00090E0892F01C080E0DF91CF910895EF92A5
:10250000FF920F931F93CF93DF93EC018B017A011E
:102510008D819E810E942815B8018D819E810E9427
:10252000231640E06EE48D819E810E94C51540E037
:10253000F70162818D819E810E94C51540E0F701FF
:1025400063818D819E810E94C515F8018081803153
:1025500039F040E0F70164818D819E810E94C515AC
:102560008D819E810E942815B8018D819E810E94D7
:102570002316488168E48D819E810E94C51564E11F
:1025800070E080E090E00E94C3238881882331F0CE
:102590006AE070E080E090E00E94C3238D819E811C
:1025A000DF91CF911F910F91FF90EF900C94281520
:1025B000EF92FF921F93CF93DF9300D0CDB7DEB79A
:1025C0007C01FC018581968169837A830E942815AC
:1025D00069817A81F701858196810E94231640E006
:1025E00064EBF701858196810E94C515F70185810D
:1025F00096810E949A15182FF701858196810E9475
:10260000281581E0111180E00F900F90DF91CF919C
:102610001F91FF90EF900895EF92FF920F931F93F9
:10262000CF93DF93CDB7DEB72A970FB6F894DEBF0E
:102630000FBECDBF7C018B01242FAE014F5F5F4FDA
:102640002A870E946A122A858823D1F0F8018081A6
:102650008031C1F02B3041F02C3021F02A3031F4A0
:102660008FE305C08FE703C08FE501C08FE18D8345
:10267000AE014F5F5F4FB801C7010E947F1202C0D9
:1026800080E001C081E02A960FB6F894DEBF0FBE4D
:10269000CDBFDF91CF911F910F91FF90EF900895E3
:1026A000CF93DF93CDB7DEB729970FB6F894DEBF8F
:1026B0000FBECDBFFB0120812031D1F0AE014F5FB5
:1026C0005F4F0E946A12882379F08D818F3351F019
:1026D00020F48F3149F489E00CC08F3539F08F3701
:1026E00039F002C08AE005C080E003C08BE001C081
:1026F0008CE029960FB6F894DEBF0FBECDBFDF91F8
:10270000CF910895EF92FF920F931F93CF93DF9392
:10271000CDB7DEB761970FB6F894DEBF0FBECDBF61
:102720008C01FC01858196810E944F16F80114826C
:10273000FF24F394BE01665F7F4FF8018581968187
:102740000E9484168823C9F1BE01665F7F4FC801CD
:102750000E94EB11882371F3F8018081811108C078
:10276000BE01665F7F4FC8010E94D812811122C04E
:10277000AE014F5F5F4FBE01665F7F4FC8010E9491
:102780002212F801E180BE01665F7F4FC8010E94FE
:1027900050138E1518F4F801818106C0BE01665FE2
:1027A0007F4FC8010E945013F801818384818F5F9D
:1027B0008483C0CFF801F082DBCF61960FB6F89426
:1027C000DEBF0FBECDBFDF91CF911F910F91FF9064
:1027D000EF900895CF93DF93CDB7DEB729970FB66B
:1027E000F894DEBF0FBECDBFAE014F5F5F4F0E94BA
:1027F000221281E09981911101C080E029960FB6E3
:10280000F894DEBF0FBECDBFDF91CF9108958F92B8
:102810009F92AF92BF92CF92DF92EF92FF920F936F
:102820001F93CF93DF93EC018A016950633048F422
:10283000E62FF0E0EE0FFF1FE354FE4F8080918003
:1028400004C09EEE892E92E0992E0115110501F12A
:102850008B818823E9F0888181111AC00E9494231A
:102860006B017C01AA2497FCA094BA2CB801CE017C
:102870000E94EA1381111FC00E94942368197909EC
:102880008A099B096C157D058E059F05A0F4EECF86
:10289000B401882777FD8095982FDF91CF911F9104
:1028A0000F91FF90EF90DF90CF90BF90AF909F90EF
:1028B0008F900C94C323DF91CF911F910F91FF90C4
:1028C000EF90DF90CF90BF90AF909F908F90089542
:1028D000CF93DF93EC018D819E810E9428158D811D
:1028E0009E810E944B16488164E48D819E810E94E6
:1028F000C5158A81882341F040E050E06981CE010E
:10290000DF91CF910C940714DF91CF910895FA01D4
:10291000208148E0249F90011124818190E0982F2C
:102920008827990F990F990F282B392BDB018C9150
:102930008031C1F4678170E08681AB01481B510989
:10294000CA019695982F8827979587950E94EB2E18
:1029500060517109207F53E0220F331F5A95E1F730
:10296000260F371FC9010895EF92FF920F931F930F
:10297000CF93DF93CDB7DEB729970FB6F894DEBFBC
:102980000FBECDBF8C017B01AE014F5F5F4F0E9438
:102990006A12882341F0AE014F5F5F4FB701C80153
:1029A0000E94871402C080E894EE29960FB6F8942E
:1029B000DEBF0FBECDBFDF91CF911F910F91FF9072
:1029C000EF900895813824EE920774F0BC018827B7
:1029D00077FD8095982F0E94D82D20E030E040E0D0
:1029E0005CE30E94882E089560E070E08EEF92EC28
:1029F00008950E94B4140C94E2140F931F93CF9384
:102A0000DF93CDB7DEB728970FB6F894DEBF0FBEC1
:102A1000CDBF8C01462FBE016F5F7F4F0E94FA1120
:102A2000882339F0BE016F5F7F4FC8010E94F914FF
:102A300004C060E070E08EEF92EC28960FB6F89438
:102A4000DEBF0FBECDBFDF91CF911F910F910895D3
:102A5000FF920F931F93CF93DF93FC010081C181FD
:102A6000D281F8948981F02EF0948F218983789413
:102A70001DE7115029F182E090E00E94EB2388814C
:102A80008023B9F3F8948A818F218A838981802BEE
:102A90008983789480EE91E00E94EB23F8948981F9
:102AA0008F21898386E490E00E94EB238881802334
:102AB00011E009F010E078948AE991E00E94EB239C
:102AC000812FDF91CF911F910F91FF9008951F9358
:102AD000CF93DF93FC011081C181D281912F90951A
:102AE00060FF12C0F8948A8189238A838981812BAF
:102AF00089838AE090E00E94EB238A81812B8A837C
:102B0000789487E390E011C0F8948A8189238A83BE
:102B10008981812B898381E490E00E94EB238A8163
:102B2000812B8A83789485E090E0DF91CF911F918B
:102B30000C94EB230F931F93CF93DF93FC01108131
:102B4000C181D281F8948981812B89838A81012F67
:102B5000009580238A8383E090E00E94EB238981A3
:102B6000802389838AE090E00E94EB23C8817894D7
:102B700085E390E00E94EB231C2381E009F480E0D0
:102B8000DF91CF911F910F910895CF92DF92EF9235
:102B9000FF920F931F93CF93DF931F92CDB7DEB7B2
:102BA0006C01E62E08E010E0FF24F39461E09F2D15
:102BB0009E2109F460E0C60149830E946715FF0C5D
:102BC0000150110949810115110581F7411115C005
:102BD000F894D6011196ED91FC91129791818C9108
:102BE0008095892381831196ED91FC9112979281B2
:102BF0008C9180958923828378940F90DF91CF9177
:102C00001F910F91FF90EF90DF90CF900895EF927A
:102C1000FF920F931F93CF93DF938C01C8E0D0E016
:102C2000F12CEE24E394C8010E949A158111FE282C
:102C3000EE0C2197C1F78F2DDF91CF911F910F914E
:102C4000FF90EF900895CF92DF92FF920F931F9322
:102C5000CF93DF931F92CDB7DEB78C01F62E40E005
:102C600065E579830E94C515CF2C7981D72E88E040
:102C7000F82EF60161916F0140E0C8010E94C51570
:102C8000FA94B9F70F90DF91CF911F910F91FF90B8
:102C9000DF90CF90089540E06CEC0C94C515FC01DA
:102CA00013861586148627E030E0DF01A20FB31FDC
:102CB00013961C922115310519F021503109F5CFD9
:102CC00008951F93CF93DF93EC01162F60E0812FBF
:102CD0000E945A24612F70E0FB01E153F94FE49107
:102CE000E883FB01ED51F94FE491F0E0EE0FFF1F97
:102CF000E950F94F859194919A838983CE01DF91B0
:102D0000CF911F910C944F16AF92BF92CF92DF924A
:102D1000EF92FF920F931F93CF93DF931F92CDB744
:102D2000DEB75C01E62ED72EFC01858581115DC0E2
:102D3000C5010E942815811105C0F501138615866D
:102D400014866EC040E060EFC5010E94C51501E029
:102D5000F12CC12C11E0C5010E949A15682FC50104
:102D600069830E949A156981613019F48130B9F440
:102D700033C02F2D30E068131BC0F5018385181771
:102D800030F4E20FF31F8381802349F402C0181747
:102D900031F060E0193058F4F501148708C0F501EE
:102DA000EF0DF11D8381802B838361E009C0C12E6B
:102DB000F501E20FF31F8381902F90958923838380
:102DC000C5010E9467151F5F000F11F4F39401E025
:102DD000F7E0FF1508F0BFCF113438F0F501C386D6
:102DE000C11018C081E0858715C0F50113861586CE
:102DF000148680E0EE2DFD2D20E030E0D501A20FFD
:102E0000B31F13969C9191932F5F3F4F283031054C
:102E1000A9F706C0F5018381882339F381E0EACF61
:102E20000F90DF91CF911F910F91FF90EF90DF9066
:102E3000CF90BF90AF900895DC0180E0615038F0F2
:102E4000ED91E827F0E0EF5EFC4F8491F7CF089515
:102E500008950F931F93CF93DF93CDB7DEB72C97D1
:102E60000FB6F894DEBF0FBECDBF8B0164E172E0F8
:102E7000CE0101960E94102963EC71E0CE01079605
:102E80000E941029AE014F5F5F4FBE01695F7F4F07
:102E9000C8010E94E12BCE0107960E94A228CE0114
:102EA00001960E94A22864E172E0CE0101960E9480
:102EB000102962E472E0CE0107960E941029AE014B
:102EC0004F5F5F4FBE01695F7F4FC8010E94E12BDA
:102ED000CE0107960E94A228CE0101960E94A22848
:102EE00064E172E0CE0101960E94102963E172E074
:102EF000CE0107960E941029AE014F5F5F4FBE01C1
:102F0000695F7F4FC8010E94E12BCE0107960E94A6
:102F1000A228CE0101960E94A22864E172E0CE01AF
:102F200001960E94102968E372E0CE0107960E9484
:102F30001029AE014F5F5F4FBE01695F7F4FC8012F
:102F40000E94E12BCE0107960E94A228CE01019695
:102F50000E94A228C8010E94022D2C960FB6F89458
:102F6000DEBF0FBECDBFDF91CF911F910F910895AE
:102F70000F931F93CF93DF93EC01E9E6F4E06591A3
:102F800074918C0106551F4FC8010E94D731B801BA
:102F900080E494E00E948E27FE01E058FF4F83E01A
:102FA0008083379610820E949423C857DF4F68832E
:102FB00079838A839B83DF91CF911F910F9108952D
:102FC00020E047E068E080E494E00C94122280E482
:102FD00094E00C94B9210F931F93CF93DF938C014E
:102FE00080E494E00E94D920892B51F164E670E0DE
:102FF00080E090E00E94C323E801CF57DF4F0A51E1
:103000001F4F80E494E00E94D920892B91F080E446
:1030100094E00E944C20F80180839183682FCE01B8
:103020000E948B2A6AE070E080E090E00E94C32357
:10303000E8CFBE0180EB94E00E947C2781E001C0D4
:1030400080E0DF91CF911F910F9108957F928F9231
:103050009F92AF92BF92CF92DF92EF92FF920F9327
:103060001F93CF93DF937C015B016A018901EC011F
:10307000C957DF4F8FE3782E470180E4880E911CFB
:1030800080E494E00E94D920892B61F180E494E0EF
:103090000E944C2098819F3740F07882F401D7013C
:1030A000972D01900D929A95E1F7288191E0920F6A
:1030B0009883F701E20FF11D8083F701E90FF11DFD
:1030C0001082B501C7010E942C32892B09F5C11469
:1030D000D104B1F2B601C7010E942C32892B81F2D2
:1030E00082E019C00E949423F701E857FF4FC08087
:1030F000D180E280F3806C197D098E099F0920E060
:1031000030E0601771078207930720F480E003C066
:1031100081E001C083E0DF91CF911F910F91FF907B
:10312000EF90DF90CF90BF90AF909F908F907F9067
:103130000895EF92FF920F931F93CF93DF93EC01CB
:10314000E5E6F4E0659174918C0106551F4FC801C6
:103150000E94D731E7E6F4E0659174917E0182ED3B
:10316000E80EF11CC7010E94D73120E137E2A70128
:10317000B801CE010E942618823028F0C058DF4FD7
:1031800084E088838FEFDF91CF911F910F91FF90A3
:10319000EF90089580E494E00E94D920892B29F0D3
:1031A00080E494E00E944C20F5CF08952F923F9246
:1031B0004F925F926F927F928F929F92AF92BF9247
:1031C000CF92DF92EF92FF920F931F93CF93DF93F3
:1031D00000D01F92CDB7DEB79B838A838B016A0133
:1031E00079016115710589F00E94CA186EE380EBC0
:1031F00094E00E945F27B80180EB94E00E948E2744
:10320000B80180E494E00E948E270E9494234B0131
:103210005C010A811B8106551F4FE114F10419F06E
:103220002E2CF98202C0202E1983312CEA80FB80DB
:1032300080E4E80EF11C2601612C712C80E494E0FE
:103240000E94D920892B09F43CC080E494E00E94BC
:103250004C209EE7931550F4F701AA81BB819FE3B0
:1032600001900D929A95E1F79FE3392EDD24D394D6
:10327000D30CEA81FB81E30DF11D8083EA81FB81A0
:10328000ED0DF11D1082E1E5F4E065917491C80146
:103290000E94D731622D79818A819B810E942C32D4
:1032A000892B71F066EC71E080EB94E00E945D2761
:1032B0006A817B8180EB94E00E948E278D2D1AC05D
:1032C0003D2C0E949423681979098A099B09641589
:1032D00075058605970508F4B1CF6AEC71E080EBBF
:1032E00094E00E945D276A817B8180EB94E00E94DC
:1032F0008E2780E00F900F900F90DF91CF911F915C
:103300000F91FF90EF90DF90CF90BF90AF909F9084
:103310008F907F906F905F904F903F902F90089587
:10332000CF92DF92EF92FF920F931F93CF93DF9391
:10333000EC012EE1D22E3FE1E32E34E0F32E8C019E
:1033400006551F4FF70165917491C8010E94D7314E
:1033500020E030E040ED57E0B801CE010E94D618E1
:10336000882301F16EEC71E0CE010E942C320097AF
:10337000C9F0FC01C280F1E3CF1619F085E3C81251
:1033800011C0E1E2F4E065917491C8010E94D73167
:1033900020E030E048EE53E0B801CE010E94D6189C
:1033A0008C2D09C068EE73E080E090E00E94C3239A
:1033B000DA9409F0C7CFDF91CF911F910F91FF9061
:1033C000EF90DF90CF9008950F931F93CF93DF93EB
:1033D000EC01E1E2F4E0659174918C0106551F4F18
:1033E000C8010E94D73120E030E040ED57E0B8013D
:1033F000CE010E94D6186DE072E0CE010E942C3200
:10340000009751F005960E948A318336910521F08C
:103410008F3F2FEF920711F480E090E0DF91CF9182
:103420001F910F910895EF92FF920F931F93CF93E7
:10343000DF938C01EB01E5E5F4E0659174917C018B
:103440008AEAE80EF11CC7010E94D73120E030E083
:1034500040E157E2B701C8010E94D618811102C0AD
:1034600080E080C06AE370E0C8010E9402320097E9
:10347000B9F36CE270E00E940232009789F38C018C
:103480000F5F1F4FC8010E9486316C837D838E833E
:103490009F836CE270E0C8010E940232009701F342
:1034A0008C010F5F1F4FC8010E94863168837983AA
:1034B0008A839B836CE270E0C8010E94023200970D
:1034C00079F28C010F5F1F4FC8010E948A31805D25
:1034D00088876FE270E0C8010E940232009709F409
:1034E000BFCF8C010F5F1F4FC8010E948A318987AF
:1034F0006FE270E0C8010E940232009709F4B0CF79
:103500008C010F5F1F4FC8010E948A318A876CE2CD
:1035100070E0C8010E940232009709F4A1CF8C012B
:103520000F5F1F4FC8010E948A318B876AE370E0EA
:10353000C8010E940232009709F492CF8C010F5FFC
:103540001F4FC8010E948A318C876AE370E0C8016E
:103550000E940232009709F483CF01960E948A31BB
:103560008D8781E0DF91CF911F910F91FF90EF90B8
:1035700008950F931F93CF93DF93EC01E7E5F4E0F9
:10358000659174918C0106551F4FC8010E94D73177
:1035900020E030E040ED57E0B801CE01DF91CF915F
:1035A0001F910F910C94D618EF92FF920F931F93D7
:1035B000CF93DF93EC01E9E5F4E0659174918C0120
:1035C00006551F4FC8010E94D731EBE5F4E0659125
:1035D00074917E0182EDE80EF11CC7010E94D73183
:1035E00020E030E040E157E2B801CE010E94D61859
:1035F0000A521109882371F020E030E048E853E1D5
:10360000B701CE010E94D618882321F081E0F8018D
:10361000808303C0F801108280E0DF91CF911F9179
:103620000F91FF90EF900895CF92DF92EF92FF926B
:103630000F931F93CF93DF93EC016B017A01E1E6C7
:10364000F4E0659174918C0106551F4FC8010E94EA
:10365000D731B80180E494E00E945D27B60180E490
:1036600094E00E945D27F70180819181892B21F0F0
:1036700088E297E1892BC1F562E280E494E00E9440
:10368000A02764EF71E080E090E00E94C32320E077
:1036900030E040ED57E060E070E0CE010E94D618C7
:1036A0009E0120583F4F79018823D1F0E3E6F4E0F2
:1036B00065917491C8010E94D731B80180E494E00B
:1036C0000E948E2782E0F7018083379610820E9445
:1036D0009423C857DF4F688379838A839B830FC005
:1036E00084E0F90180830BC06FE380E494E00E94E2
:1036F0005F27B70180E494E00E944F27BDCF80E0B0
:10370000DF91CF911F910F91FF90EF90DF90CF90BD
:103710000895EF92FF920F931F93CF93DF93EC01E5
:10372000EBE6F4E0659174918C0106551F4FC801DA
:103730000E94D731EDE6F4E0659174917E0182ED4F
:10374000E80EF11CC7010E94D73120E137E2A70142
:10375000B801CE010E942618813021F5FE01E957FB
:10376000FF4F108222E132E044E650E060E070E07A
:10377000CE010E94D618CE010E948A318C0120E031
:1037800030E040ED57E060E070E0CE010E94D618D6
:103790000F37110510F00FE710E0C00FD11F18828E
:1037A000C80102C080E090E0DF91CF911F910F919E
:1037B000FF90EF9008950F931F93CF93DF93EC0149
:1037C00080E494E00E9442220EE010E080E494E065
:1037D0000E94D920892B29F080E494E00E944C209B
:1037E000F5CF20E030E040ED57E065E172E0CE013A
:1037F0000E94D618811136C064EF71E080E090E03D
:103800000E94C3230150110909F720E030E040ED88
:1038100057E065E172E0CE010E94D61864E670E0E0
:1038200080E090E00E94C32320E030E040ED57E0CC
:1038300065E172E0CE010E94D61864E670E080E097
:1038400090E00E94C32320E030E040ED57E065E1C6
:1038500072E0CE010E94D61864E670E080E090E04D
:103860000E94C32320E030E040ED57E065E172E0C4
:10387000CE010E94D618882309F4A7C0E3E1F4E042
:10388000659174918E0106551F4FC8010E94D73172
:1038900020E030E040ED57E0B801CE010E94D6189C
:1038A00064E670E080E090E00E94C323E1E1F4E090
:1038B00065917491C8010E94D73120E030E040ED5D
:1038C00057E0B801CE010E94D61864E670E080E0AF
:1038D00090E00E94C323E5E1F4E065917491C80192
:1038E0000E94D73120E030E040ED57E0B801CE0132
:1038F0000E94D61864E670E080E090E00E94C32346
:10390000E7E1F4E065917491C8010E94D73120E0AD
:1039100030E040ED57E0B801CE010E94D61864E6D1
:1039200070E080E090E00E94C323E9E1F4E065915B
:103930007491C8010E94D73120E030E040ED57E09B
:10394000B801CE010E94D61864E670E080E090E0F5
:103950000E94C323EBE1F4E065917491C8010E94D9
:10396000D73120E030E040ED57E0B801CE010E94B1
:10397000D61864E670E080E090E00E94C323EDE199
:10398000F4E065917491C8010E94D73120E030E0E5
:1039900040ED57E0B801CE010E94D61864E670E011
:1039A00080E090E00E94C32320E030E040ED57E04B
:1039B00068E172E0CE010E94D61864E670E080E013
:1039C00090E00E94C32381E001C080E0DF91CF91AD
:1039D0001F910F9108952F923F924F925F926F9295
:1039E0007F928F929F92AF92BF92CF92DF92EF928F
:1039F000FF920F931F93CF93DF9300D000D0CDB7EA
:103A0000DEB71C015B017A0169016115710589F05E
:103A10000E94CA186EE380EB94E00E945F27B50114
:103A200080EB94E00E948E27B50180E494E00E9430
:103A30008E270E9494232B013C01812C510120E40C
:103A4000A20EB11C5FE3952E980140E050E029835F
:103A50003A834B835C8380E494E00E94D920892BD5
:103A600009F441C080E494E00E944C203EE7381500
:103A700048F4F501D101992D01900D929A95E1F745
:103A80004FE3842E11E0180DF101E80DF11D808344
:103A9000F101E10FF11D1082B701C1010E942C322A
:103AA000892B69F066EC71E080EB94E00E945D2761
:103AB000B10180EB94E00E948E2781E025C0B60121
:103AC000C1010E942C32892B69F06BE272E080EB1D
:103AD00094E00E945D27B10180EB94E00E948E2764
:103AE00082E012C0812E0E94942364197509860910
:103AF000970929813A814B815C816217730784079A
:103B0000950708F4A8CF80E00F900F900F900F90CA
:103B1000DF91CF911F910F91FF90EF90DF90CF90A9
:103B2000BF90AF909F908F907F906F905F904F90DD
:103B30003F902F9008950F931F93CF93DF93EC0145
:103B4000EDE4F4E0659174918C0106551F4FC801B6
:103B50000E94D73120E030E040ED57E0B801CE01BF
:103B60000E94D61868EE73E080E090E00E94C323C4
:103B700000ED17E02FE232E046E352E06AE372E044
:103B8000CE010E94EB1C8130C9F46DE070E0CE01E3
:103B90000E940232009791F08C010E5F1F4F6DE082
:103BA00070E0C8010E940232009711F0FC011082FF
:103BB000B801CE010E94163281E001C080E0DF91A1
:103BC000CF911F910F910895CF92DF92EF92FF92C4
:103BD0000F931F93CF93DF93EC01EFE4F4E0659133
:103BE00074917C012AEAE20EF11CC7010E94D731D0
:103BF000E3E5F4E0659174916E0182EDC80ED11C8D
:103C0000C6010E94D73100ED17E0960146E352E06D
:103C1000B701CE010E94EB1C8130D1F461E472E067
:103C2000CE010E942C32009799F07C01E2E0EE0E6A
:103C3000F11C62E270E0C7010E940232009711F0AD
:103C4000FC011082B701CE010E94163281E001C052
:103C500080E0DF91CF911F910F91FF90EF90DF9067
:103C6000CF9008958F929F92AF92BF92CF92DF92A2
:103C7000EF92FF920F931F93CF93DF93CDB7DEB7F1
:103C80002C970FB6F894DEBF0FBECDBF7C0120E0AD
:103C900030E040E25EE464E472E00E94D618E3E2C1
:103CA000F4E065917491870106551F4FC8010E9489
:103CB000D73120E030E040ED57E0B801C7010E9465
:103CC000D618882309F4C7C1E5E2F4E06591749140
:103CD000C8010E94D73120E030E040ED57E0B80144
:103CE000C7010E94D618882309F4B7C1C7010E94F2
:103CF000E41DB701CE0107960E941029BE01695F3D
:103D00007F4FC7010E94291779E2A72E74E0B72ED2
:103D1000F50165917491C8010E94D731B801CE01B7
:103D200001960E941029BE016F5F7F4FCE0107965A
:103D30000E944A2B4C01CE0101960E94A228C70185
:103D400084579F4F6C0197FC2FC067E2862E64E07A
:103D5000962EF40165917491C8010E94D731B80183
:103D6000C6010E946729EBE2F4E065917491C801F5
:103D70000E94D731B801C7018E569F4F0E94672914
:103D8000B801C70188569F4F0E946729F4016591C9
:103D90007491C8010E94D731B801C70182569F4F64
:103DA0000E946729F5013EC06FE472E0CE010196E2
:103DB0000E941029BE016F5F7F4FCE0107960E94BF
:103DC0004A2B5C01CE0101960E94A228B7FC30C0AC
:103DD000EFE2F4E065917491570192EDA90EB11CE8
:103DE000C5010E94D731B501C6010E946729E1E3F0
:103DF000F4E065917491C8010E94D731B801C70100
:103E00008E569F4F0E946729B801C70188569F4F61
:103E10000E946729B501C70182569F4F0E946729FA
:103E2000EDE2F4E065917491C8010E94D7313EC083
:103E30006CE572E0CE0101960E941029BE016F5F11
:103E40007F4FCE0107960E944A2B5C01CE0101965E
:103E50000E94A228B7FC2FC0E3E3F4E065917491BF
:103E6000C8010E94D731E5E3F4E0659174915701F0
:103E700082EDA80EB11CC5010E94D731B501C60163
:103E80000E94672964E172E0C7018E569F4F0E942D
:103E9000672964E172E0C70188569F4F0E94672935
:103EA000B501C70182569F4F0E946729B80180EB78
:103EB00094E00E948E27EDE3F4E065917491C801CF
:103EC0000E94D731B80180E494E00E945D27B601DA
:103ED00080E494E00E944F2762E280E494E00E9434
:103EE000A02720E030E040ED57E060E070E0C7013F
:103EF0000E94D618811102C014E0A8C0EFE3F4E0DC
:103F000065917491C8010E94D731B80180E494E0B2
:103F10000E945D27B7016E567F4F80E494E00E94B7
:103F20004F2762E280E494E00E94A02720E030E086
:103F300040ED57E060E070E0C7010E94D61888238A
:103F4000D9F2E1E4F4E065917491C8010E94D7319F
:103F5000B80180E494E00E945D27B70168567F4F66
:103F600080E494E00E944F2762E280E494E00E94A3
:103F7000A02720E030E040ED57E060E070E0C701AE
:103F80000E94D618882309F4B7CFE3E4F4E06591E2
:103F90007491C8010E94D731B80180E494E00E9476
:103FA0005D27B70162567F4F80E494E00E944F275F
:103FB00062E280E494E00E94A02720E030E040ED3F
:103FC00057E060E070E0C7010E94D618882309F42A
:103FD00093CFE5E4F4E065917491C8010E94D73174
:103FE00020E030E040E157E2B801C7010E94D61856
:103FF000E7E4F4E065917491C8010E94D73120E0B4
:1040000030E040E157E2B801C7010E94D618E9E468
:10401000F4E065917491C8010E94D73120E030E04E
:1040200040ED57E0B801C7010E94D618EBE4F4E078
:1040300065917491C8010E94D73120E030E040EDD5
:1040400057E0B801C7010E94D61810E0CE010796CC
:104050000E94A22803C012E001C013E0812F2C9619
:104060000FB6F894DEBF0FBECDBFDF91CF911F9189
:104070000F91FF90EF90DF90CF90BF90AF909F9007
:104080008F90089580E494E00E94D92021E0892B4C
:1040900009F420E0822F08952091A1043091A20418
:1040A00028173907B9F490915F048091600498173C
:1040B00089F0E0915F04F0E0EF59FB4F808120919F
:1040C0005F0430E02F5F3F4F2F73332720935F044F
:1040D00090E008958FEF9FEF08951F93CF93DF93A4
:1040E000DC015C968D919C915D97009749F481E08D
:1040F00090E013969C938E93129780E090E03BC0E3
:104100005196ED91FC91529750962C915097322FE9
:1041100030951FB75E964C915E9741FB772770F9FB
:1041200041FD6095F8944081772311F0422B01C046
:1041300043234083EC012197F1F748E0508160FF71
:1041400002C0522B01C053235083EC012197F1F799
:104150006695415099F78081772311F0832301C040
:10416000822B80831FBF5C968D919C915D970197F8
:10417000F1F781E090E0DF91CF911F9108952091B8
:10418000A1043091A2042817390781F490915F04AB
:1041900080916004981751F0E0915F04F0E0EF59CE
:1041A000FB4F8081992787FD909508958FEF9FEFB2
:1041B00008952091A1043091A2042817390771F4C1
:1041C0008091600420915F0490E0805C9F4F821B8F
:1041D000910960E470E00E94EB2E089580E090E089
:1041E00008952091A1043091A2042817390739F4C9
:1041F0008FB7F8941092600410925F048FBF0895F7
:10420000E091A104F091A204E817F90769F4A389E9
:10421000B4899C918589809589238C931092A204FE
:104220001092A10481E0089580E00895CF93DF9378
:10423000EC018A8D9B8D892BF1F08091A1049091E6
:10424000A2048C179D07B9F0009711F00E9400217D
:104250008E8D8E7F8E8F1092600410925F04D093AB
:10426000A204C093A104EB89FC8980819D89892BDC
:10427000808381E001C080E0DF91CF9108951F929B
:104280000F920FB60F9211242F933F934F935F938A
:104290006F937F938F939F93AF93BF93EF93FF930E
:1042A000E091A104F091A204309709F451C0868DE9
:1042B000A685B785958581FF04C08C91892329F453
:1042C00047C08C91892309F043C0A389B4899C918C
:1042D0008589809589238C93868997890197F1F741
:1042E000208D318DA685B785758558E040E0C901E0
:1042F0000197F1F7842F90E095958795482F6C9161
:10430000672309F04068515091F7868D81FD4095F3
:104310008091600490E001968F73992720915F044B
:10432000281749F0A0916004B0E0AF59BB4F4C93FF
:104330008093600403C0868D8160868F828D938D0B
:104340000197F1F7A389B4898C919589892B8C9376
:10435000FF91EF91BF91AF919F918F917F916F915D
:104360005F914F913F912F910F900FBE0F901F9033
:10437000189529E832E0FC01318320830C94002158
:104380001F93CF93DF93EC01162F6E8D66956170AE
:1043900081E06827812F0E94932461E0812F0E9491
:1043A0005A24812F90E0FC01E153F94FE491E88B0E
:1043B000FC01ED51F94FE491F0E0EE0FFF1FEF5FCC
:1043C000F84F859194919A8B898BDF91CF911F91B2
:1043D00008951F93CF93DF93EC01162F60E0812F98
:1043E0000E945A248E8D81FD04C061E0812F0E94BD
:1043F00093241C87812F90E0FC01E153F94FE49155
:10440000ED87FC01ED51F94FE491F0E0EE0FFF1F55
:10441000E950F94F859194919F878E87DF91CF91D5
:104420001F910895FF920F931F93CF93DF93EC0199
:10443000F62E522F1B821A8208EE13E020E030E0A5
:104440000C831D832E833F8389E892E099838883C0
:104450001F8A1E8A198E188E1B8E1A8E1D8E1C8E18
:104460008E8D8E7F50FB81F98E8F642FCE010E943E
:10447000C0216F2DCE01DF91CF911F910F91FF9041
:104480000C94E921CF93DF93EC019A01AB011B8ED1
:104490001A8E198E188E1F8A1E8A60E079E08DE3CD
:1044A00090E00E94212FC9012430310520F0B9018C
:1044B0006350710902C061E070E07D8F6C8FEC8504
:1044C000E63108F068C0B9017695679564317105E9
:1044D00018F06351710902C061E070E07F8B6E8B50
:1044E000069718F0C901059702C081E090E0998F06
:1044F000888FC901880F991F820F931F9695879502
:10450000969587958D30910510F00C9702C081E04B
:1045100090E09B8F8A8F20916800E83050F091E006
:10452000EE3008F490E081E001C0880F9A95EAF738
:1045300001C084E0822B809368002C85283038F0FD
:104540002E3040F0263148F48CE690E008C08DE62D
:1045500090E005C08BE690E002C080E090E09C8B8C
:104560008B8B283030F481E001C0880F2A95EAF760
:104570000DC0822F90E02E3010F4089701C00E97E6
:1045800091E001C0990F8A95EAF7892F8D8B8C8D68
:104590009D8D0197F1F7CE01DF91CF910C941621FB
:1045A0008230E8F4E82FF0E0EE0FFF1FED55FB4FEF
:1045B00071836083813041F0809169008C7F842B0E
:1045C00080936900E89A089580916900440F551F0F
:1045D000440F551F837F842B80936900E99A0895C7
:1045E0001F920F920FB60F9211242F933F934F9368
:1045F0005F936F937F938F939F93AF93BF93EF934B
:10460000FF938091A3049091A404892B29F0E09159
:10461000A304F091A4040995FF91EF91BF91AF918C
:104620009F918F917F916F915F914F913F912F91CA
:104630000F900FBE0F901F9018951F920F920FB6FC
:104640000F9211242F933F934F935F936F937F9318
:104650008F939F93AF93BF93EF93FF938091A504A4
:104660009091A604892B29F0E091A504F091A6046D
:104670000995FF91EF91BF91AF919F918F917F919C
:104680006F915F914F913F912F910F900FBE0F90BF
:104690001F9018951F920F920FB60F9211242F930F
:1046A0003F938F939F93AF93BF938091A804909172
:1046B000A904A091AA04B091AB043091A70423E00F
:1046C000230F2D3720F40196A11DB11D05C026E84A
:1046D000230F0296A11DB11D2093A7048093A80467
:1046E0009093A904A093AA04B093AB048091AC0466
:1046F0009091AD04A091AE04B091AF040196A11DBC
:10470000B11D8093AC049093AD04A093AE04B0931C
:10471000AF04BF91AF919F918F913F912F910F90D7
:104720000FBE0F901F9018952FB7F8946091A804B2
:104730007091A9048091AA049091AB042FBF0895B1
:104740003FB7F8948091AC049091AD04A091AE0471
:10475000B091AF0426B5A89B05C02F3F19F0019674
:10476000A11DB11D3FBF6627782F892F9A2F620F99
:10477000711D811D911D42E0660F771F881F991FD3
:104780004A95D1F70895CF92DF92EF92FF92CF939F
:10479000DF936B017C010E94A023EB01C114D104C3
:1047A000E104F10489F00E946C2D0E94A0236C1B8F
:1047B0007D0B683E734090F381E0C81AD108E10890
:1047C000F108C851DC4FEACFDF91CF91FF90EF9015
:1047D000DF90CF9008958230910538F0880F991FAF
:1047E000880F991F05970197F1F70895789484B57C
:1047F000826084BD84B5816084BD85B5826085BDDD
:1048000085B5816085BDEEE6F0E0808181608083C2
:10481000E1E8F0E0108280818260808380818160A5
:104820008083E0E8F0E0808181608083E1EBF0E06C
:10483000808184608083E0EBF0E080818160808310
:10484000EAE7F0E0808184608083808182608083F9
:104850008081816080838081806880831092C10024
:104860000895833081F028F4813099F08230A1F0EE
:1048700008958730A9F08830B9F08430D1F4809160
:1048800080008F7D03C0809180008F7780938000AF
:10489000089584B58F7702C084B58F7D84BD089557
:1048A0008091B0008F7703C08091B0008F7D80939E
:1048B000B0000895CF93DF9390E0FC01E153F94FEE
:1048C0002491FC01ED51F94F8491882349F190E046
:1048D000880F991FFC01E55FF84FA591B4918F5F98
:1048E000984FFC01C591D4919FB7611108C0F8940D
:1048F0008C91209582238C93888182230AC0623018
:1049000051F4F8948C91322F309583238C938881C5
:10491000822B888304C0F8948C91822B8C939FBF48
:10492000DF91CF9108950F931F93CF93DF931F9241
:10493000CDB7DEB7282F30E0F901E554F94F849167
:10494000F901E153F94F1491F901ED51F94F049137
:104950000023C9F0882321F069830E9431246981F2
:10496000E02FF0E0EE0FFF1FEF5FF84FA591B4913D
:104970009FB7F8948C91611103C01095812301C0F9
:10498000812B8C939FBF0F90DF91CF911F910F913F
:104990000895CF93DF93282F30E0F901E554F94FC4
:1049A0008491F901E153F94FD491F901ED51F94F97
:1049B000C491CC2391F081110E943124EC2FF0E0BE
:1049C000EE0FFF1FE950F94FA591B4912C912D23C3
:1049D00081E090E021F480E002C080E090E0DF918F
:1049E000CF910895FC01818D228D90E0805C9F4FD6
:1049F000821B91098F7399270895FC01918D828DF7
:104A0000981731F0828DE80FF11D858D90E00895A3
:104A10008FEF9FEF0895FC01918D828D981761F0C3
:104A2000828DDF01A80FB11D5D968C91928D9F5FE5
:104A30009F73928F90E008958FEF9FEF08958FE816
:104A400096E2892B49F080E090E0892B29F00E94C2
:104A50008F2681110C9400000895FC01848DDF01E4
:104A6000A80FB11DA35ABF4F2C91848D90E00196E1
:104A70008F739927848FA689B7892C93A089B189D0
:104A80008C9180648C93938D848D981306C00288DA
:104A9000F389E02D80818F7D80830895CF93DF930C
:104AA000EC01888D8823C9F0EA89FB89808185FD26
:104AB00005C0A889B9898C9186FD0FC00FB607FC87
:104AC000F5CF808185FFF2CFA889B9898C9185FFC8
:104AD000EDCFCE010E942D25E7CFDF91CF91089534
:104AE000CF92DF92FF920F931F93CF93DF931F928A
:104AF000CDB7DEB76C0181E0D60158968C935897FC
:104B00005B969C915B975C968C915C97981307C021
:104B10005096ED91FC915197808185FD2EC0F60154
:104B2000038D10E00F5F1F4F0F731127F02EF6015A
:104B3000848DF81211C00FB607FCF9CFD60150963C
:104B4000ED91FC915197808185FFF1CFC60169837A
:104B50000E942D256981EBCF838DE80FF11DE35A6B
:104B6000FF4F6083D6015B960C935B975296ED9155
:104B7000FC915397808180620CC0D6015696ED91CE
:104B8000FC91579760835096ED91FC9151978081ED
:104B90008064808381E090E00F90DF91CF911F913E
:104BA0000F91FF90DF90CF900895BF92CF92DF9248
:104BB000EF92FF92CF93DF93EC016A017B01B22E5B
:104BC000E889F98982E08083411581EE5807610503
:104BD0007105A1F060E079E08DE390E0A701960116
:104BE0000E94FF2E215031094109510956954795E0
:104BF00037952795211580E1380798F0E889F989DC
:104C0000108260E874E88EE190E0A70196010E94AE
:104C1000FF2E215031094109510956954795379585
:104C20002795EC85FD853083EE85FF852083188EE2
:104C3000EC89FD89B082EA89FB898081806180836B
:104C4000EA89FB89808188608083EA89FB89808189
:104C500080688083EA89FB8980818F7D8083DF91F2
:104C6000CF91FF90EF90DF90CF90BF9008951F926B
:104C70000F920FB60F9211242F938F939F93EF9360
:104C8000FF93E091C004F091C1048081E091C604DB
:104C9000F091C70482FD12C090818091C9048F5F9A
:104CA0008F732091CA04821751F0E091C904F0E09B
:104CB000E055FB4F958F8093C90401C08081FF911F
:104CC000EF919F918F912F910F900FBE0F901F909A
:104CD00018951F920F920FB60F9211242F933F93A6
:104CE0004F935F936F937F938F939F93AF93BF93F4
:104CF000EF93FF9380EB94E00E942D25FF91EF91BD
:104D0000BF91AF919F918F917F916F915F914F91E3
:104D10003F912F910F900FBE0F901F90189580EB31
:104D200094E00E94F22421E0892B09F420E0822FF4
:104D300008951092B3041092B20488EE93E0A0E0BC
:104D4000B0E08093B4049093B504A093B604B093FC
:104D5000B70489E992E09093B1048093B00485ECA4
:104D600090E09093BD048093BC0484EC90E0909319
:104D7000BF048093BE0480EC90E09093C1048093C4
:104D8000C00481EC90E09093C3048093C20482EC51
:104D900090E09093C5048093C40486EC90E09093D7
:104DA000C7048093C6041092C9041092CA041092DA
:104DB000CB041092CC04089508950E94F6230E941B
:104DC000DC260E94080ECFE1D5E20E94C70F209793
:104DD000E1F30E941F25F9CFCF92DF92EF92FF926D
:104DE0000F931F93CF93DF936C017A01EB01E60ED3
:104DF000F71E00E010E0CE15DF0561F06991D601E5
:104E0000ED91FC910190F081E02DC6010995080F0C
:104E1000191FF1CFC801DF91CF911F910F91FF9022
:104E2000EF90DF90CF9008956115710581F0DB015F
:104E30000D900020E9F7AD0141505109461B570B79
:104E4000DC01ED91FC910280F381E02D099480E07A
:104E500090E00895EF92FF920F931F93CF93DF930B
:104E60008C01FB01C0E0D0E064917F018FEFE81A74
:104E7000F80A662361F0D801ED91FC910190F08170
:104E8000E02DC8010995C80FD91FF701EDCFCE015C
:104E9000DF91CF911F910F91FF90EF900895DC016A
:104EA000ED91FC91DB0114964D915C9115976D91FC
:104EB0007C910280F381E02D09940C941427DC018D
:104EC000ED91FC910190F081E02D099462E172E096
:104ED0000C9414270F931F93CF93DF93EC010E9440
:104EE0002A278C01CE010E946627800F911FDF9137
:104EF000CF911F910F9108950F931F93CF93DF933D
:104F0000EC010E944F278C01CE010E946627800F82
:104F1000911FDF91CF911F910F9108950F931F93D0
:104F2000CF93DF93EC010E9414278C01CE010E94E5
:104F30006627800F911FDF91CF911F910F910895E8
:104F40000F931F93CF93DF93EC010E945F278C0197
:104F5000CE010E946627800F911FDF91CF911F9194
:104F60000F9108958F929F92AF92BF92CF92DF924E
:104F7000EF92FF920F931F93CF93DF93CDB7DEB7DE
:104F8000A1970FB6F894DEBF0FBECDBF7C01C42E33
:104F9000E52FCB01D22E19A221E02D1510F02AE029
:104FA000D22E8E010F5D1F4F8D2C912CA12CB12C78
:104FB0006C2D7E2FA50194010E94FF2E8C2DD29E78
:104FC00080191124015011098A3014F4805D01C048
:104FD000895CF8018083211531054105510521F0D7
:104FE000C22EE32FCA01E4CFB801C7010E941427E3
:104FF000A1960FB6F894DEBF0FBECDBFDF91CF9163
:105000001F910F91FF90EF90DF90CF90BF90AF90E6
:105010009F908F900895CF92DF92EF92FF920F931F
:105020001F93CF93DF93EC016A017B0121153105BA
:1050300079F4E881F9810190F081E02D642FDF910E
:10504000CF911F910F91FF90EF90DF90CF90099437
:105050002A303105E9F477FF1AC06DE20E945F271C
:105060008C0144275527BA014C195D096E097F0947
:105070002AE0CE010E94B227800F911FDF91CF91CD
:105080001F910F91FF90EF90DF90CF9008952AE04D
:10509000B701A601CE01DF91CF911F910F91FF9033
:1050A000EF90DF90CF900C94B2270F931F93CF9384
:1050B000DF93EC019A01AB01662757FD6095762FCF
:1050C0000E940B288C01CE010E946627800F911F41
:1050D000DF91CF911F910F9108952115310541F472
:1050E000DC01ED91FC910190F081E02D642F099499
:1050F0000C94B2270F931F93CF93DF93EC019A0187
:10510000AB0160E070E00E946D288C01CE010E942E
:105110006627800F911FDF91CF911F910F91089506
:105120000F931F93CF93DF93EC010E946D288C01A6
:10513000CE010E946627800F911FDF91CF911F91B2
:105140000F910895FC01808191810C942D30CF93B3
:10515000DF93EC0188819981009711F00E942D3036
:10516000198218821D821C821B821A82DF91CF91C4
:1051700008950F931F93CF93DF93EC018B016F5F23
:105180007F4F888199810E94BC30009731F09983CC
:1051900088831B830A8381E001C080E0DF91CF9187
:1051A0001F910F910895CF93DF93EC01888199812E
:1051B000892B29F08A819B818617970760F4CE019D
:1051C0000E94B928882341F08C819D81892B19F494
:1051D000E881F981108281E0DF91CF910895EF920B
:1051E000FF920F931F93CF93DF93EC017B018A0112
:1051F000BA010E94D328811104C0CE010E94A728C1
:1052000007C01D830C83B701888199810E941632E3
:10521000CE01DF91CF911F910F91FF90EF900895F4
:10522000FC01118210821382128215821482611590
:10523000710559F0FB0101900020E9F7AF014150E1
:105240005109461B570B0C94EF280895EF92FF92DB
:105250000F931F93CF93DF93EC017B018A01BA0177
:105260000E94D328811104C0CE010E94A72807C044
:105270001D830C83B701888199810E94D731CE01AB
:10528000DF91CF911F910F91FF90EF900895CF93F1
:10529000DF93EC01FB018617970761F06081718154
:1052A0006115710529F0448155810E94EF2802C0E3
:1052B0000E94A728CE01DF91CF910895FC011182B1
:1052C000108213821282158214820C944729CF9384
:1052D000DF93EC016115710561F0FB010190002085
:1052E000E9F7AF0141505109461B570B0E94EF28C7
:1052F00002C00E94A728CE01DF91CF9108950F939D
:105300001F93CF93DF93CDB7DEB729970FB6F894ED
:10531000DEBF0FBECDBF8C01862FF8011182108237
:10532000138212821582148250E0BE016F5F7F4F9C
:1053300090E00E94A632BE016F5F7F4FC8010E94BD
:10534000672929960FB6F894DEBF0FBECDBFDF9157
:10535000CF911F910F9108950F931F93CF93DF93D8
:10536000CDB7DEB762970FB6F894DEBF0FBECDBFE4
:105370008C01CB01F80111821082138212821582F6
:10538000148250E0BE016F5F7F4F0E944632BE0123
:105390006F5F7F4FC8010E94672962960FB6F8942D
:1053A000DEBF0FBECDBFDF91CF911F910F9108954A
:1053B0000F931F93CF93DF93CDB7DEB7A1970FB6AF
:1053C000F894DEBF0FBECDBF8C01CB01BA01F8014E
:1053D00011821082138212821582148230E0AE0193
:1053E0004F5F5F4F0E947932BE016F5F7F4FC801F0
:1053F0000E946729A1960FB6F894DEBF0FBECDBFFD
:10540000DF91CF911F910F910895EF92FF920F932B
:105410001F93CF93DF93CDB7DEB7A1970FB6F89464
:10542000DEBF0FBECDBF7C01CB01BA01F7011182F7
:105430001082138212821582148242E0420F8E0182
:105440000F5F1F4F0E94742FBC01C7010E94672984
:10545000A1960FB6F894DEBF0FBECDBFDF91CF91FE
:105460001F910F91FF90EF9008950F931F93CF938B
:10547000DF9300D0CDB7DEB78C016115710561F007
:10548000CB0169837A830E94DE31AC0169817A8124
:10549000C8010E94262902C00E94A728C8010F90B7
:1054A0000F90DF91CF911F910F910895FC01118210
:1054B000108213821282158214820C94352AEF9284
:1054C000FF920F931F93CF93DF93EC017B010C812D
:1054D0001D816115710511F480E016C0411551055B
:1054E00091F0040F151FB8010E94D3288823A1F35F
:1054F000288139818C819D81B701820F931F0E9481
:1055000016321D830C8381E0DF91CF911F910F91A3
:10551000FF90EF900895CF93DF9300D0CDB7DEB723
:1055200069831A8241E050E0BE016F5F7F4F0E94A5
:105530005F2A0F900F90DF91CF910895CF93DF9363
:10554000EC01FB0144815581608171810E945F2AD9
:10555000811103C0CE010E94A728CE01DF91CF9117
:105560000895CF93DF93EC016115710569F0FB019C
:1055700001900020E9F7AF0141505109461B570B3C
:105580000E945F2A811103C0CE010E94A728CE018C
:10559000DF91CF910895CF93DF93EC010E948B2A86
:1055A000811103C0CE010E94A728CE01DF91CF91C7
:1055B0000895CF93DF93DC01ED91FC91EB01A8817D
:1055C000B981309711F01097C9F4109759F0EB0199
:1055D0002C813D81232B31F08C9190E09195819528
:1055E000910914C0309781F0DC0114968D919C9143
:1055F0001597892B49F0808190E008C0BD01CF014B
:10560000DF91CF910C940D3280E090E0DF91CF914B
:105610000895FC0144815581FB01248135814217A5
:10562000530741F40E94D92A21E0892B09F020E098
:10563000822F089580E00895FC0184819581681788
:10564000790720F480819181009729F410924D050B
:105650008DE495E00895860F971F0895CF93DF930B
:10566000FC01848195814817590778F4C081D18164
:10567000FB0160817181CE01840F951F0E942C3245
:10568000009719F08C1B9D0B02C08FEF9FEFDF91ED
:10569000CF91089540E050E00C942E2BAF92BF9232
:1056A000CF92DF92EF92FF920F931F93CF93DF93EE
:1056B0007B01EA01FB01448155814115510569F1E6
:1056C000FC01248135812115310539F12417350775
:1056D00020F1C217D30710F0E9012197FC010081E6
:1056E0001181C801AA24AA94BB24BA946801CC0EE3
:1056F000DD1EC816D906A0F0F701608171810E94F5
:105700002C32009769F09C01201B310BC217D30784
:1057100008F4950101965901ECCF8FEF9FEF01C07E
:10572000C501DF91CF911F910F91FF90EF90DF9016
:10573000CF90BF90AF900895BF92CF92DF92EF923B
:10574000FF920F931F93CF93DF936C017B01EA01CC
:1057500089012417350720F48D2FE901042F182F14
:1057600064E172E0C6010E941029D70114968D9160
:105770009C911597C817D907C8F48017910708F4AA
:105780008C01D701ED91FC911197E00FF11FB080D2
:1057900010826D917C916C0F7D1FC6010E9467295C
:1057A000D701ED91FC91E00FF11FB082C601DF91AE
:1057B000CF911F910F91FF90EF90DF90CF90BF900E
:1057C00008952F923F924F925F926F927F928F92A5
:1057D0009F92AF92BF92CF92DF92EF92FF920F9380
:1057E0001F93CF93DF93EC015B017A014C805D80C6
:1057F0004114510409F4C5C0FB0164807580611433
:10580000710409F4BEC0FA01C480D580C618D70857
:1058100008811981C114D104C1F4F501608171813D
:10582000C8010E942C32EC01009709F4AAC0F701CC
:105830006081718144815581CE010E94E731F70179
:10584000048115810C0F1D1FE8CFD7FC05C0FB019B
:1058500020803180420143C04801F501608171819F
:10586000C8010E942C322C01009719F13201601AF4
:10587000710AA301B801C4010E94E731680C791CC8
:10588000F7016081718144815581C3010E94E73134
:10589000F70184809580860C971CF50104811581A1
:1058A000040D151D8C819D818C0D9D1D9D838C8308
:1058B000D4CFB801C401DF91CF911F910F91FF9018
:1058C000EF90DF90CF90BF90AF909F908F907F90A0
:1058D0006F905F904F903F902F900C941632B101D3
:1058E000C8010E942C32009731F08C01060D171D63
:1058F0008C0C9D1CF4CF8414950409F442C08A8159
:105900009B818815990530F4B401CE010E94B92815
:105910008823B9F14C815D814150510957FD31C057
:10592000B501CE010E944E2B8C0197FD2AC08881C3
:105930009981F50124813581200F311F820F931F3A
:105940004C815D81421B530BBC018C0D9D1D0E943F
:10595000F0318C819D818C0D9D1D9D838C83E88110
:10596000F981E80FF91F108288819981F701608120
:10597000718144815581800F911F0E94E731A801F8
:10598000CBCFDF91CF911F910F91FF90EF90DF90E0
:10599000CF90BF90AF909F908F907F906F905F90CF
:1059A0004F903F902F900895CF93DF93EC01CB0160
:1059B0002C813D816217730710F541155105F9F0EF
:1059C000B901681B790B4617570708F4BA01E8813B
:1059D000F981261B370B3D832C83A901481B590BEA
:1059E000680F791F6E0F7F1F8E0F9F1F0E941D3241
:1059F000E881F9818C819D81E80FF91F1082DF9188
:105A0000CF910895AF92BF92CF92DF92EF92FF9223
:105A10000F931F93CF93DF937C01DC01CD90DC903B
:105A20001197C114D10409F441C01496CD91DC91B1
:105A300015972097D9F156018501BFEFAB1ABB0A24
:105A4000F8018081992787FD90950E94CF31892B9D
:105A500099F72197CC0DDD1D8881992787FD9095B9
:105A60000E94CF31892B91F4AE014F5F5F4F401BF5
:105A7000510BD70115965C934E931497C016D1061F
:105A800050F4B801C6010E94E73105C0C017D10724
:105A900058F32197E1CFD701ED91FC91119714961E
:105AA0008D919C911597E80FF91F1082DF91CF918E
:105AB0001F910F91FF90EF90DF90CF90BF90AF902C
:105AC0000895FC0180819181009711F00C94A83118
:105AD00060E070E0CB01089508955058BB27AA27D5
