:100000000C94A9020C9465060C943E060C943409D9
:100010000C9434090C9434090C94D1020C94D10240
:100020000C94D1020C94D1020C94D1020C94D10204
:100030000C94D1020C94D1020C94D1020C94D102F4
:100040000C94F4050C94D1020C94E7040C94C104B4
:100050000C94D1020C94D1020C94D1020C94D102D4
:100060000C94D1020C94D10200000008000201009F
:100070000003040700000000000000000A5265674A
:100080006973746572656420726F616D696E670073
:100090000A556E6B6E6F776E000A44656E69656413
:1000A000000A4E6F742072656769737465726564C7
:1000B0002028736561726368696E6729000A52655A
:1000C00067697374657265642028686F6D652900BF
:1000D0000A4E6F7420726567697374657265640097
:1000E0003A20000A4E6574776F726B2073746174E6
:1000F0007573200053657474696E67207570206E87
:100100006574776F726B2E2E2E000A494D45493A61
:10011000004F4B00506F7765722053494D38303097
:10012000204F6E00496E697469616C697A696E6707
:100130002E2E2E2E284D61792074616B652035207E
:100140007365636F6E647329000A2053494D38301C
:100150003020736574757020737461727400005E72
:10016000BCE2613FDD83C29C7E20A3FD1F419DC395
:10017000217FFCA2401E5F01E3BD3E6082DC237D47
:100180009FC1421CFEA0E1BF5D0380DE3C62BEE079
:10019000025CDF81633D7C22C09E1D43A1FF4618A7
:1001A000FAA427799BC584DA3866E5BB5907DB8555
:1001B0006739BAE406581947A5FB7826C49A653B07
:1001C000D987045AB8E6A7F91B45C6987A24F8A639
:1001D000441A99C7257B3A6486D85B05E7B98CD267
:1001E000306EEDB3510F4E10F2AC2F7193CD114F15
:1001F000ADF3702ECC92D38D6F31B2EC0E50AFF1C7
:10020000134DCE90722C6D33D18F0C52B0EE326CF8
:100210008ED0530DEFB1F0AE4C1291CF2D73CA9426
:100220007628ABF517490856B4EA6937D58B5709D4
:10023000EBB536688AD495CB2977F4AA4816E9B786
:10024000550B88D6346A2B7597C94A14F6A8742AB8
:10025000C896154BA9F7B6E80A54D7896B35000044
:100260000000240027002A000D0A004572726F72F8
:10027000002B48545450524541443A200041542BDD
:10028000485454505245414400302C363000302CF4
:100290003230300041542B48545450414354494F5C
:1002A0004E3D300041542B48545450504152413D32
:1002B0002255524C222C220041542B485454504178
:1002C0004354494F4E3D300041542B4854545050F4
:1002D0004152413D2255524C222C220041542B4880
:1002E000545450504152413D22434944222C310044
:1002F00041542B48545450494E49540041542B48C2
:100300005454505445524D0041542B434950475387
:100310004D4C4F433D312C31004552524F520D0050
:100320004F4B0D0041542B434F50533F0041542B32
:1003300047534E0041542B43504D533D22534D22C1
:100340002C22534D222C22534D220041542B434D3D
:1003500047463D310041542B53415042523D322CCF
:10036000310041542B53415042523D312C31004118
:10037000542B434744434F4E543D312C2249502285
:100380002C220041542B53415042523D332C312CEE
:1003900022505744222C220041542B5341504252A8
:1003A0003D332C312C2255534552222C22004154EE
:1003B0002B53415042523D332C312C2241504E227E
:1003C0002C2200696E7465726E65742E54454C451E
:1003D000322E72750054454C4532004D454741461A
:1003E0004F4E00696E7465726E6574004D6567618D
:1003F000466F6E006265656C696E6500696E746556
:10040000726E65742E6265656C696E652E7275001C
:100410004265656C696E65006D7473004D545300E0
:10042000696E7465726E65742E6D74732E727500CC
:1004300041542B53415042523D332C312C22436FB7
:100440006E74797065222C22475052532200415419
:100450002B43474154543F0041542B4353510041D7
:10046000542B435245473F0041542B434E4D493D89
:10047000322C320041542B435343533D2247534DBA
:10048000220041542B434C49503D310041542B43F1
:100490004D47463D310041542B4346554E3D3100BA
:1004A00041542B4950523D3139323030004154458E
:1004B0003000AD04A00496048C0482047404680423
:1004C0005F0458044E04300420041C041804100473
:1004D000FC03F403EC03E303DB03D503C303AE0324
:1004E000980383036F03620355034B0334032D0307
:1004F0002403200319030803FC02F002DC02C802F3
:10050000B802A40294028E0289027D0271026B027B
:10051000680200000000250028002B0000000000F9
:100520002300260029000404040404040404020235
:100530000202020203030303030301020408102062
:1005400040800102040810200102040810207D16DA
:100550003D1611241FBECFEFD8E0DEBFCDBF11E0A6
:10056000A0E0B1E0E6E8F5E302C005900D92A23804
:10057000B107D9F723E0A2E8B1E001C01D92AC3F7A
:10058000B207E1F712E0C8EAD2E004C02197FE0109
:100590000E94FD17C73AD107C9F70E94AC0E0C9410
:1005A000B61A0C940000FC01918D828D981761F0B1
:1005B000828DDF01A80FB11D5D968C91928D9F5F9A
:1005C0009F73928F90E008958FEF9FEF0895FC0145
:1005D000918D828D981731F0828DE80FF11D858DF8
:1005E00090E008958FEF9FEF0895FC01918D228D8B
:1005F000892F90E0805C9F4F821B91098F73992710
:10060000089587ED91E00E94F50221E0892B09F41D
:1006100020E0822F0895FC01848DDF01A80FB11D19
:10062000A35ABF4F2C91848D90E001968F73992728
:10063000848FA689B7892C93A089B1898C91806415
:100640008C93938D848D981306C00288F389E02DD6
:1006500080818F7D80830895EF92FF920F931F9387
:10066000CF93DF93EC0181E0888F9B8D8C8D981365
:1006700005C0E889F989808185FD24C0F62E0B8D9F
:1006800010E00F5F1F4F0F731127E02E8C8DE812C3
:100690000CC00FB607FCFACFE889F989808185FF85
:1006A000F5CFCE010E940B03F1CF8B8DFE01E80F39
:1006B000F11DE35AFF4FF0820B8FEA89FB8980819D
:1006C000806207C0EE89FF896083E889F9898081AB
:1006D0008064808381E090E0DF91CF911F910F9142
:1006E000FF90EF900895CF93DF93EC01888D8823DE
:1006F000C9F0EA89FB89808185FD05C0A889B9898F
:100700008C9186FD0FC00FB607FCF5CF808185FF69
:10071000F2CFA889B9898C9185FFEDCFCE010E94D7
:100720000B03E7CFDF91CF91089580E090E0892B14
:1007300029F00E94010381110C94000008953FB735
:10074000F8948091D3019091D401A091D501B091FA
:10075000D60126B5A89B05C02F3F19F00196A11D13
:10076000B11D3FBFBA2FA92F982F8827820F911D47
:10077000A11DB11DBC01CD0142E0660F771F881F8E
:10078000991F4A95D1F708950895FC019081018041
:10079000F281E02DF8948181892B81832281892F38
:1007A000809528232283A7E0B0E01197F1F72181FB
:1007B00082238183A3E2B0E01197F1F780817894DE
:1007C000EFECF0E03197F1F7982381E009F480E055
:1007D0000895FC0190810180F281E02D892F8095A0
:1007E00060FF12C0F8942281822382838181892B49
:1007F0008183A3E2B0E01197F1F78281982B928375
:10080000789487ED90E011C0F8942281822382834E
:100810008181892B8183AFEFB0E01197F1F782815D
:10082000982B928378948FE090E00197F1F70895E8
:1008300008952091C5033091C6032817390771F434
:100840009091820180918301981741F0E09182019B
:10085000F0E0E257FE4F808190E008958FEF9FEF28
:10086000089508951F93CF93DF93DC015C962D913B
:100870003C915D972115310539F481E090E01396A4
:100880009C938E9312973DC05196ED91FC91529797
:1008900050969C915097892F80951FB75E964C91EA
:1008A0005E9741FB772770F941FD6095F894408190
:1008B000772311F0492B01C048234083E901219798
:1008C000F1F748E0508160FF02C0592B01C0582366
:1008D0005083E9012197F1F76695415099F7772305
:1008E00021F090818923808303C08081982B90839D
:1008F0001FBF5C968D919C915D970197F1F721E068
:1009000030E0C901DF91CF911F9108952091C50377
:100910003091C6032817390771F480918301209123
:10092000820190E0805C9F4F821B910960E470E03F
:100930000E94B317089580E090E008952091C503C8
:100940003091C60328173907B9F49091820180913C
:100950008301981789F0E0918201F0E0E257FE4FA1
:1009600080812091820130E02F5F3F4F2F7333272A
:100970002093820190E008958FEF9FEF08950E94E9
:10098000CD181F920F920FB60F9211242F933F9301
:100990004F935F936F937F938F939F93AF93BF9387
:1009A000EF93FF9387ED91E00E940B03FF91EF918E
:1009B000BF91AF919F918F917F916F915F914F9177
:1009C0003F912F910F900FBE0F901F9018951F927F
:1009D0000F920FB60F9211242F938F939F93EF9343
:1009E000FF93E091E701F091E8018081E091ED0152
:1009F000F091EE0182FD12C090818091F0018F5F35
:100A00008F732091F101821751F0E091F001F0E035
:100A1000E952FE4F958F8093F00101C08081FF91D4
:100A2000EF919F918F912F910F900FBE0F901F907C
:100A30001895833081F028F4813099F08230A1F04C
:100A400008958730A9F08830B9F08430D1F48091CE
:100A500080008F7D03C0809180008F77809380001D
:100A6000089584B58F7702C084B58F7D84BD0895C5
:100A70008091B0008F7703C08091B0008F7D80930C
:100A8000B00008951F93CF93DF93282F30E0F90132
:100A9000E859FF4F8491F901E65CFA4FD491F901CE
:100AA000EA5DFA4FC491CC23C9F0162F81110E9440
:100AB0001905EC2FF0E0EE0FFF1FEE5EFA4FA59147
:100AC000B4918FB7F894111105C09C91ED2FE0956A
:100AD000E92302C0EC91ED2BEC938FBFDF91CF9116
:100AE0001F910895CF93DF9390E0FC01E65CFA4FED
:100AF0002491FC01EA5DFA4F8491882361F190E032
:100B0000880F991FFC01E25AFD4FC591D491FC0159
:100B1000EE5EFA4FA591B491611109C09FB7F894A8
:100B20008881209582238883EC912E230BC062302C
:100B300061F49FB7F8943881822F8095832388834E
:100B4000EC912E2B2C939FBF06C08FB7F894E881B1
:100B50002E2B28838FBFDF91CF9108958F929F9284
:100B6000AF92BF92CF92DF92EF92FF926B017C0126
:100B70000E949F034B015C01C114D104E104F10404
:100B8000F1F00E949F03DC01CB0188199909AA09A1
:100B9000BB09883E9340A105B10570F321E0C21A5C
:100BA000D108E108F10888EE880E83E0981EA11CA8
:100BB000B11CC114D104E104F10419F7DDCFFF9099
:100BC000EF90DF90CF90BF90AF909F908F9008955F
:100BD0002FB7F8946091CF017091D0018091D1012D
:100BE0009091D2012FBF08951F920F920FB60F92CE
:100BF00011242F933F938F939F93AF93BF93809133
:100C0000CF019091D001A091D101B091D20130914A
:100C1000CE0123E0230F2D3720F40196A11DB11D35
:100C200005C026E8230F0296A11DB11D2093CE0119
:100C30008093CF019093D001A093D101B093D201C2
:100C40008091D3019091D401A091D501B091D601AA
:100C50000196A11DB11D8093D3019093D401A0935F
:100C6000D501B093D601BF91AF919F918F913F91E4
:100C70002F910F900FBE0F901F9018951F920F92FB
:100C80000FB60F9211242F933F934F935F936F935F
:100C90007F938F939F93AF93BF93EF93FF93E091D5
:100CA0000201F09103010995FF91EF91BF91AF917E
:100CB0009F918F917F916F915F914F913F912F9174
:100CC0000F900FBE0F901F9018951F920F920FB6A6
:100CD0000F9211242F933F934F935F936F937F93C2
:100CE0008F939F93AF93BF93EF93FF93E091000196
:100CF000F09101010995FF91EF91BF91AF919F9103
:100D00008F917F916F915F914F913F912F910F90B4
:100D10000FBE0F901F901895DC01E0E0615038F095
:100D20008D91E827F0E0E25AFE4FE491F7CF8E2F45
:100D30000895CF92DF92EF92FF920F931F93CF937C
:100D4000DF931F92CDB7DEB76C01E62E08E010E00E
:100D5000FF24F39461E08F2D8E2109F460E0C60139
:100D600049830E94E903FF0C0150110949810115D3
:100D7000110581F7411115C0F894D6011196ED9136
:100D8000FC91129791818C91809589238183119692
:100D9000ED91FC91129792818C91809589238283A9
:100DA00078940F90DF91CF911F910F91FF90EF906A
:100DB000DF90CF900895CF92DF92EF92FF920F9342
:100DC0001F93CF93DF931F92CDB7DEB78C01F62E22
:100DD00040E065E579830E949906CF2C7981D72E72
:100DE000760188E0E80EF11CF60161916F0140E0A8
:100DF000C8010E949906CE14DF04B1F70F90DF916D
:100E0000CF911F910F91FF90EF90DF90CF900895B9
:100E1000FC0190810180F281E02DF8948181292FDD
:100E200020958223818378948DE743E050E08150C0
:100E300021F1DA011197F1F730813923C1F3F894E8
:100E40008281822382838181892B81837894ABE79D
:100E5000B7E01197F1F7F894818128232183A3E16A
:100E6000B1E01197F1F78081982381E009F080E0EB
:100E70007894E3E6F6E03197F1F70895AF92BF92E8
:100E8000CF92DF92EF92FF920F931F93CF93DF9356
:100E90001F92CDB7DEB75C01E62ED72EFC0185850B
:100EA00081115DC0C5010E940807811105C0F501CF
:100EB0001386158614866BC040E060EFC5010E9462
:100EC000990601E0F12CC12C11E0C5010E94C50377
:100ED000682FC50169830E94C5036981613019F4D7
:100EE0008130B9F433C04F2D50E068131BC0F501B9
:100EF0008385181730F4E40FF51F8381802349F4AC
:100F000002C0181731F060E0193058F4F501148769
:100F100008C0F501EF0DF11D8381802B838361E013
:100F200009C0C12EF501E40FF51F9381802F809534
:100F300089238383C5010E94E9031F5F000F11F419
:100F4000F39401E0F7E0FF1508F0BFCF113438F05B
:100F5000F501C386C11015C081E0858712C0F50177
:100F600013861586148680E0D5011396EE2DFD2D8F
:100F70009501255F3F4F9D919193A217B307D9F734
:100F800006C0F5018381882351F381E0EDCF0F90F6
:100F9000DF91CF911F910F91FF90EF90DF90CF9055
:100FA000BF90AF9008950F931F93CF93DF93EC0101
:100FB000162F60E0812F0E947205612F70E0FB0107
:100FC000E65CFA4FE491E883FB01EA5DFA4FE491B5
:100FD000F0E0EE0FFF1FE45EFA4F859194919A8343
:100FE00089831B861D861C86FE013B968E010D5F44
:100FF0001F4F1292E017F107E1F7DF91CF911F9198
:101000000F9108956F927F928F929F92AF92BF92AD
:10101000CF92DF92EF92FF920F931F93CF93DF93C4
:1010200000D0CDB7DEB78C017A01FC0185819681B5
:1010300069837A830E94080769817A81882391F104
:10104000F801858196810E94DB0640E06EEBF80195
:10105000858196810E94990637015701F9E0AF0E0C
:10106000B11CF8018580968088E0C82ED12CEE2432
:10107000E394F12CC4010E94C5038111FE28EE0CFB
:10108000F1E0CF1AD108B1F7F301F1923F01EA156F
:10109000FB0539F7F801858196810E94080791E0E8
:1010A000813009F090E0892F0F900F90DF91CF9160
:1010B0001F910F91FF90EF90DF90CF90BF90AF9076
:1010C0009F908F907F906F900895CF93DF93CDB7CF
:1010D000DEB729970FB6F894DEBF0FBECDBFFB0178
:1010E0002081203119F1AE014F5F5F4F0E9402084D
:1010F000882379F068E0CE0101960E948C069985DC
:10110000891307C008C0803458F08F3569F08F37D5
:1011100069F080E00CC08D818F33A9F78AE007C0A9
:101120008F31B9F789E003C08BE001C08CE02996CC
:101130000FB6F894DEBF0FBECDBFDF91CF910895FB
:10114000EF92FF920F931F93CF93DF93CDB7DEB74C
:1011500061970FB6F894DEBF0FBECDBF8C01DC01E6
:101160001596ED91FC911697138615861486DF016E
:101170001B9633961E92AE17BF07E1F7F801148253
:10118000FF24F394BE01665F7F4FD80115968D91C1
:101190009C9116970E943E07882309F458C067E087
:1011A000CE010A960E948C0699898913EBCFD8014B
:1011B0008C91811126C015968D919C9116970E9455
:1011C0000807BE01665F7F4FF801858196810E9406
:1011D000DB0640E064EBD80115968D919C91169743
:1011E0000E949906F801858196810E94C503E82E28
:1011F000D80115968D919C9116970E940807EE20B4
:1012000019F1AE014F5F5F4FBE01665F7F4FC801AE
:101210000E940208F801E180BE01665F7F4FC801AD
:101220000E9465088E1520F4D80111968C9106C095
:10123000BE01665F7F4FC8010E946508F801818387
:1012400084818F5F84839ECFF801F082DACF61962C
:101250000FB6F894DEBF0FBECDBFDF91CF911F91C7
:101260000F91FF90EF9008951F920F920FB60F927B
:1012700011242F933F934F935F936F937F938F939B
:101280009F93AF93BF93EF93FF93E091C503F091CA
:10129000C603309709F451C0968DA685B78585851C
:1012A00091FF04C09C91892329F447C09C91892314
:1012B00009F043C0A389B4899C91858980958923CD
:1012C0008C93868997890197F1F7608D718DA6853A
:1012D000B785558538E020E0CB010197F1F7822FE3
:1012E00090E095958795282F4C91452309F020682B
:1012F000315091F7868D81FD20958091830190E09A
:1013000001968F73992730918201381749F0A09187
:101310008301B0E0A257BE4F2C938093830103C09A
:10132000868D8160868F828D938D0197F1F7A389D9
:10133000B4899C918589892B8C93FF91EF91BF9102
:10134000AF919F918F917F916F915F914F913F915D
:101350002F910F900FBE0F901F9018951F93CF9352
:10136000DF931F92CDB7DEB7162F682F8AE049832F
:101370000E944205612F8EE00E9442054981642F40
:101380008FE00F90DF91CF911F910C944205CF9287
:10139000DF92EF92FF920E94E805C0908A01D09000
:1013A0008B01E0908C01F0908D019B012C193D097F
:1013B000309389012093880160938A0170938B0197
:1013C00080938C0190938D01C0908801D090890109
:1013D0000D2C000CEE08FF08F7FE0EC06DE287ED45
:1013E00091E00E946C0E66277727CB016C197D096E
:1013F0008E099F094AE003C04AE0C701B6010E9476
:101400008D0A60E471E087ED91E00E94810E809189
:10141000880190918901803F9B4054F08091880120
:10142000909189018E3F9B401CF482E090E06BC05C
:1014300080918801909189018835934054F0809182
:10144000880190918901863693401CF481E090E0F8
:101450005AC080918801909189018F35914044F064
:101460008091880190918901823791400CF449C0A4
:1014700080918401909185010197E1F4209186018A
:101480003091870181E090E0232B11F080E090E023
:1014900090938701809386018091860190918701C6
:1014A00040E0892B19F460E081E002C061E080E057
:1014B0000E94AE098091840190918501029741F5C7
:1014C000209186013091870181E090E0232B11F07B
:1014D00080E090E09093870180938601809186015F
:1014E00090918701892B21F440E060E081E003C006
:1014F00041E060E080E0FF90EF90DF90CF900C94AF
:10150000AE0983E090E09093850180938401B0CF91
:10151000FF90EF90DF90CF9008958F929F92AF92BF
:10152000BF920F931F93CF93DF93CDB7DEB7A197F1
:101530000FB6F894DEBF0FBECDBF19A2423008F43B
:101540004AE08E010F5D1F4F842E912CA12CB12CEF
:10155000A50194010E94C717E62FB901CA010150E5
:101560001109EA3014F4E05D01C0E95CD801EC93A4
:10157000232B242B252B61F7B80187ED91E00E94E6
:10158000810EA1960FB6F894DEBF0FBECDBFDF91DE
:10159000CF911F910F91BF90AF909F908F90089522
:1015A0000F931F93CF93DF938C01C0E0D0E0F8013D
:1015B000EC0FFD1F6491662371F0E091D701F0916B
:1015C000D8010190F081E02D87ED91E00995892BFC
:1015D00011F02196ECCFCE01DF91CF911F910F91A9
:1015E0000895CF93DF930E94D00AEC0160E471E08C
:1015F00087ED91E00E94810E8C0F9D1FDF91CF91AE
:1016000008957F928F929F92AF92BF92CF92DF9276
:10161000EF92FF920F931F93CF93DF93EC016B0137
:10162000892BD1F087EC93E00E948604892B29F066
:1016300087EC93E00E949E04F5CF6EE387ED91E086
:101640000E946C0EBE0187ED91E00E94960EBE01D5
:1016500087EC93E00E94960E0E94E8054B015C0126
:10166000712CC2EFD4E01FE3E12CF12C87EC93E066
:101670000E948604892B09F43CC087EC93E00E9409
:101680009E049EE7971558F4EDE1F3E0ADEDB2E06E
:10169000912F01900D929A95E1F79FE3792E01E049
:1016A000070DE72DF0E0E352FD4F8083E02FF0E0DF
:1016B000E352FD4F1082FE016591749187E893E03B
:1016C0000E94641A67E873E08DED92E00E94FF18B3
:1016D000892B71F06AE471E087ED91E00E94AA0E17
:1016E0006DED72E087ED91E00E94960E802F1CC098
:1016F000702E0E94E805DC01CB0188199909AA091E
:10170000BB098C159D05AE05BF0508F4AFCF6EE78C
:1017100071E087ED91E00E94AA0E6DED72E087ED19
:1017200091E00E94960E80E0DF91CF911F910F9182
:10173000FF90EF90DF90CF90BF90AF909F908F90F1
:101740007F900895CF93DF9362E287EC93E00E944D
:101750006C0EEC0160E471E087EC93E00E94810E76
:101760008C0F9D1FDF91CF910895EF92FF920F9301
:101770001F93CF93DF93CDB7DEB729970FB6F894B9
:10178000DEBF0FBECDBF8C017B01AE014F5F5F4F4F
:101790000E940208882309F463C068E0CE01019624
:1017A0000E948C06998589135BC0F7018081803186
:1017B00009F454C08FE78D83F801858196810E94DA
:1017C0000807B701F801858196810E94DB0640E099
:1017D0006EE4F801858196810E94990640E06B8154
:1017E000F801858196810E94990640E06C81F8019C
:1017F000858196810E949906F7018081803139F0B8
:1018000040E06D81F801858196810E949906F8017A
:10181000858196810E940807B701F801858196812C
:101820000E94DB06F801408168E4858196810E9470
:10183000990664E170E080E090E00E94AE05F80156
:101840008081882331F06AE070E080E090E00E94BF
:10185000AE05F801858196810E94080781E001C0EC
:1018600080E029960FB6F894DEBF0FBECDBFDF91A2
:10187000CF911F910F91FF90EF900895CF93DF9339
:10188000EB01DC011596ED91FC91169713861586F8
:101890001486DF011B9633961E92AE17BF07E1F741
:1018A000BE01FC01858196810E943E07882349F094
:1018B00067E0CE010E948C069F81891302C081E0FF
:1018C00001C080E0DF91CF9108952F923F924F9217
:1018D0005F926F927F928F929F92AF92BF92CF92C0
:1018E000DF92EF92FF920F931F93CF93DF9300D07D
:1018F00000D0CDB7DEB7FC014480558041145104BF
:1019000009F413C1FB01648075806114710409F44A
:101910000CC17A016B019C838B83FA01A480B58092
:10192000A618B708FC0100811181A114B104C1F40B
:10193000F60160817181C8010E94FF185C01892B4A
:1019400009F4F3C0F7016081718144815581C501BB
:101950000E94D218F701048115810A0D1B1DE8CFE2
:10196000B7FE02C0480106C0FB0120803180420161
:10197000C80148C0F60160817181C4010E94FF184E
:101980002C01892B29F1320168187908A301B401CF
:10199000C8010E94D218060D171DF70160817181E0
:1019A00044815581C8010E94D218F7018481958134
:1019B000080F191FF60184809580840C951CEB811B
:1019C000FC81848195818A0D9B1D95838483D2CF70
:1019D000B401C8010F900F900F900F90DF91CF913D
:1019E0001F910F91FF90EF90DF90CF90BF90AF903D
:1019F0009F908F907F906F905F904F903F902F902F
:101A00000C94F818B1010E94FF18009729F0860D78
:101A1000971D8A0C9B1CF6CF8414950409F485C08D
:101A2000EB81FC81828193818815990578F4B4015A
:101A30006F5F7F4FC8010E940318009709F475C0BB
:101A4000EB81FC819183808393828282EB81FC8194
:101A5000048115810150110917FD67C0F60124802A
:101A600035802114310409F460C0EB81FC8164806D
:101A700075806114710409F458C06214730408F489
:101A800054C00615170518F0830101501109EB81A8
:101A9000FC8140805180C20188248A94982C920154
:101AA000200F311F2817390758F0F6016081718126
:101AB00029833A830E94FF1829813A81009761F5B2
:101AC00097FC33C0280C391CC201820D931DA30161
:101AD00042195309BC018A0D9B1D0E94DB18EB8142
:101AE000FC81848195818A0D9B1D9583848320814F
:101AF0003181F901E80FF91F1082EB81FC818081AF
:101B00009181F7016081718144815581880D991D12
:101B10000E94D21884019ECFAC01441955090417C4
:101B2000150708F04A010196BDCF0F900F900F9056
:101B30000F90DF91CF911F910F91FF90EF90DF9069
:101B4000CF90BF90AF909F908F907F906F905F905D
:101B50004F903F902F900895CF93DF93FC01248105
:101B60003581232B71F0FB01DC01CD91DC9160818B
:101B70007181CE010E94FF18009719F08C1B9D0BFC
:101B800002C08FEF9FEFDF91CF910895CF93DF9346
:101B9000EC016115710559F0FB0101900020E9F796
:101BA0003197AF01461B570B0E94120E0CC0888163
:101BB0009981009711F00E94AE19198218821D8236
:101BC0001C821B821A82CE01DF91CF910895CF92A1
:101BD000DF92EF92FF920F931F93CF93DF936C01ED
:101BE0007A018B01C0E0D0E0CE15DF0589F0D80185
:101BF0006D918D01D601ED91FC910190F081E02D68
:101C0000C6010995892B11F47E0102C02196ECCF03
:101C1000C701DF91CF911F910F91FF90EF90DF905F
:101C2000CF900895EF92FF920F931F93CF93DF937E
:101C3000EC017B018A0188819981009729F02A8132
:101C40003B8124173507F8F4B8016F5F7F4F0E947E
:101C50000318009759F0998388831B830A832C818A
:101C60003D81232B81F4FC0110820DC08881998174
:101C7000009711F00E94AE19198218821D821C82F1
:101C80001B821A8207C01D830C83B701888199814A
:101C90000E94F818CE01DF91CF911F910F91FF9014
:101CA000EF900895FC01808191810C94AE19FC01A4
:101CB00011821082138212821582148261157105BD
:101CC00051F0FB0101900020E9F73197AF01461B6D
:101CD000570B0C94120E0895DC01ED91FC910190CC
:101CE000F081E02D0994DC01ED91FC91DB0114966B
:101CF0004D915C9115976D917C910280F381E02D5F
:101D000009946115710579F0FB0101900020E9F754
:101D10003197AF01461B570BDC01ED91FC9102801E
:101D2000F381E02D099480E090E008950F931F93D4
:101D3000CF93DF93EC010E94810E8C0160E471E08F
:101D4000CE010E94810E800F911FDF91CF911F91D4
:101D50000F9108950C94810ECF93DF93CDB7DEB72A
:101D60006A970FB6F894DEBF0FBECDBF789484B5E6
:101D7000826084BD84B5816084BD85B5826085BD87
:101D800085B5816085BD80916E00816080936E0015
:101D90001092810080918100826080938100809107
:101DA00081008160809381008091800081608093B8
:101DB00080008091B10084608093B1008091B00078
:101DC00081608093B00080917A00846080937A0073
:101DD00080917A00826080937A0080917A0081609D
:101DE00080937A0080917A00806880937A001092C4
:101DF000C100E091E701F091E80182E08083E09189
:101E0000E301F091E4011082E091E501F091E60137
:101E100087E680831092EF01E091EB01F091EC01F5
:101E200086E08083E091E901F091EA0180818061A0
:101E30008083E091E901F091EA01808188608083EC
:101E4000E091E901F091EA01808180688083E0916E
:101E5000E901F091EA0180818F7D808389E491E03E
:101E60000E94F10A61E086E00E94720561E08DE067
:101E70000E94720561E085E00E94720561E08AE0DF
:101E80000E94720561E08FE00E94720561E08EE0C1
:101E90000E94720560E083E00E94720560E089E0C4
:101EA0000E94720540E060E081E00E94AE096CE2B1
:101EB00071E080E090E00E94AE0540E061E080E0EB
:101EC0000E94AE096CE271E080E090E00E94AE05F5
:101ED00041E060E080E00E94AE096CE271E080E0E9
:101EE00090E00E94AE0540E060E081E00E94AE0913
:101EF00089EC92E09093A00280939F0210929E0240
:101F000010929A0299E090939B0281E080939C0248
:101F100080939D022BEB32E030938D0220938C0254
:101F200010928B021092870290938802809389020C
:101F300080938A022DEA32E030937A02209379026C
:101F40001092780210927402909375028093760238
:101F5000809377028AE992E00E94A00887E892E0E5
:101F60000E94A00884E792E00E94A008BE016F5F73
:101F70007F4F8AE992E00E943E0C882339F0BE012F
:101F80006F5F7F4F8AE992E00E94B50BBE016F5FE1
:101F90007F4F87E892E00E943E0C882339F0BE0113
:101FA0006F5F7F4F87E892E00E94B50BBE016F5FC5
:101FB0007F4F84E792E00E943E0C882339F0BE01F7
:101FC0006F5F7F4F87E892E00E94B50B87EC99E046
:101FD0009093030180930201809169008C6080934B
:101FE0006900E99A84E291E00E94F10A60E086E0EB
:101FF0000E94420560E08DE00E94420561E085E0BC
:102000000E94420560ED77E080E090E00E94AE051E
:1020100061E08DE00E94420560E085E00E9442059B
:102020006CED75E080E090E00E94AE0561E086E036
:102030000E94420568EE73E080E090E00E94AE05E9
:1020400060E086E00E94420501E710E0F3E4EF2E35
:10205000F5E0FF2EAFE2CA2EA5E0DA2EF80184915A
:10206000F701A490F601B490BB20C1F381110E9446
:1020700019058B2D90E0880F991F845E9A4FFC0103
:10208000A591B4918C91A82249F360ED77E080E0AE
:1020900090E00E94AE0584E191E00E94F10A8DEC8F
:1020A000682E712C95E5E92EF12C2BECC22ED12C4B
:1020B00030E9A32EB12C4424439447EC842E43E012
:1020C000942E1092E2031092E1031092E00310921A
:1020D000DF031092DE031092DD037092E40360923E
:1020E000E3038091D303863108F053C0F092DE03FE
:1020F000E092DD03D092E003C092DF03B092E203EE
:10210000A092E10390916800883058F021E08E3071
:1021100008F420E0F42D01C0FF0F2A95EAF72F2FD5
:1021200001C024E0922B90936800883038F08E3004
:1021300040F0863148F020E030E008C02DE630E085
:1021400005C02BE630E002C02CE630E03093DB0324
:102150002093DA03883038F4242D01C0220F8A95A9
:10216000EAF7822F0EC0282F30E08E3018F4285066
:10217000310902C02E503109842D01C0880F2A95E3
:10218000EAF78093DC038091E3039091E4030197E5
:10219000F1F78091E1039091E203892B39F1E0910D
:1021A000C503F091C60333E0E73CF307F9F030973D
:1021B00039F0A389B4899C918589809589238C9372
:1021C0008091E5038E7F8093E50310928301109246
:1021D00082019092C6038092C503E091DA03F091E8
:1021E000DB0390818091DC03892B80830EE010E07B
:1021F00087EC93E00E948604892B29F087EC93E01A
:102200000E949E04F5CF60ED77E08AE291E00E94A3
:10221000010B81112DC064EF71E080E090E00E941D
:10222000AE050150110921F760ED77E08AE291E0F7
:102230000E94010B64E670E080E090E00E94AE0531
:1022400060ED77E08AE291E00E94010B64E670E0C5
:1022500080E090E00E94AE0560ED77E08AE291E0D8
:102260000E94010B64E670E080E090E00E94AE0501
:1022700060ED77E08AE291E00E94010B811106C0D7
:102280006EE287ED91E00E942C031BCFE4EBF4E0BB
:102290006591749187E893E00E94641A60ED77E09D
:1022A00087E893E00E94010B64E670E080E090E034
:1022B0000E94AE05E2EBF4E06591749187E893E04B
:1022C0000E94641A60ED77E087E893E00E94010BBA
:1022D00064E670E080E090E00E94AE05E6EBF4E09A
:1022E0006591749187E893E00E94641A60ED77E04D
:1022F00087E893E00E94010B64E670E080E090E0E4
:102300000E94AE05E8EBF4E06591749187E893E0F4
:102310000E94641A60ED77E087E893E00E94010B69
:1023200064E670E080E090E00E94AE05EAEBF4E045
:102330006591749187E893E00E94641A60ED77E0FC
:1023400087E893E00E94010B64E670E080E090E093
:102350000E94AE05ECEBF4E06591749187E893E0A0
:102360000E94641A60ED77E087E893E00E94010B19
:1023700064E670E080E090E00E94AE05EEEBF4E0F1
:102380006591749187E893E00E94641A60ED77E0AC
:1023900087E893E00E94010B64E670E080E090E043
:1023A0000E94AE0560ED77E08DE291E00E94010BA6
:1023B00064E670E080E090E00E94AE0581E191E08B
:1023C0000E94F10AEEEEF4E06591749187E893E0E3
:1023D0000E94641A60ED77E087E893E00E94010BA9
:1023E00068EE73E080E090E00E94AE058AE091E044
:1023F0000E94D00A67ED72E087ED91E00E94730EB3
:1024000060E471E087ED91E00E94810E809184018B
:1024100090918501029739F068EE73E080E090E0DA
:102420000E94AE05F3CF68EE73E080E090E00E947A
:10243000AE0584EF90E00E94D00A1EE170ECE72E1A
:1024400074E0F72E60ECC62E64E0D62EF70165919D
:10245000749187E893E00E94641A60ED77E087E862
:1024600093E00E94010B882369F163E471E08DED34
:1024700092E00E94FF18009729F1FC0182818B7F76
:10248000813301F5E2ECF4E06591749187E893E023
:102490000E94641A68EE73E087E893E00E94010BE3
:1024A000E4ECF4E06591749187E893E00E94641A8B
:1024B00060ED77E087E893E00E94010B882309F440
:1024C00068C30AC068EE73E080E090E00E94AE0549
:1024D000115009F0B7CF5DC3E6ECF4E0659174915B
:1024E00087E893E00E94641A60ED77E087E893E064
:1024F0000E94010B882309F44CC3E0EFF4E06591DE
:10250000749187E893E00E94641AE4EFF4E0659127
:1025100074918FEA93E00E94641A87E893E0892B14
:10252000E1F087EC93E00E948604892B29F087EC88
:1025300093E00E949E04F5CF6EE387ED91E00E9448
:102540006C0E67E873E087ED91E00E94960E67E8F5
:1025500073E087EC93E00E94960E0E94E8054B0121
:102560005C0110E00FE387EC93E00E948604892B66
:1025700009F450C087EC93E00E949E041F3750F08E
:10258000EDE1F3E0ADEDB2E0902F01900D929A9560
:10259000E1F71FE3FF24F394F10EE12FF0E0E352A3
:1025A000FD4F8083EF2DF0E0E352FD4F108266E493
:1025B00071E08DED92E00E94FF18892BA9F06AE48A
:1025C00071E087ED91E00E94AA0E6DED72E087ED5B
:1025D00091E00E94960E6EE471E08DED92E00E9413
:1025E000FF18009731F536C06FEA73E08DED92E089
:1025F0000E94FF18892B69F061E571E087ED91E099
:102600000E94AA0E6DED72E087ED91E00E94960E99
:1026100021C01F2D0E94E805DC01CB018819990912
:10262000AA09BB09803D9740A105B10508F49BCFDD
:1026300011C08C010E5F1F4F62E270E0C8010E9462
:10264000ED18009711F0FC011082B8018DED92E0B9
:102650000E94F8186DED72E0CE0145960E94570E6B
:1026600062E471E0CE010F960E94570E65E571E0BD
:10267000CE0109960E94570EAE01415F5F4FBE0129
:10268000675F7F4FCE0145960E94650CCE0109968B
:102690000E94520ECE010F960E94520E62E471E02B
:1026A000CE010F960E94570E6FE471E0CE0109969D
:1026B0000E94570EAE01415F5F4FBE01675F7F4FC3
:1026C000CE0145960E94650CCE0109960E94520EDD
:1026D000CE010F960E94520E62E471E0CE010F9679
:1026E0000E94570E61E471E0CE0109960E94570ED8
:1026F000AE01415F5F4FBE01675F7F4FCE014596E0
:102700000E94650CCE0109960E94520ECE010F96D2
:102710000E94520E62E471E0CE010F960E94570EA5
:1027200068E471E0CE0109960E94570EAE01415F48
:102730005F4FBE01675F7F4FCE0145960E94650CDB
:10274000CE0109960E94520ECE010F960E94520EA3
:10275000ED88FE88E114F104E1F1098D1A8D01156F
:102760001105B9F147015401FFEF8F1A9F0AF501D6
:102770008081082E000C990B0E94731A892B99F7FF
:10278000015011090E0D1F1DF8018081082E000C4B
:10279000990B0E94731A892B79F4A8014F5F5F4F40
:1027A0004A195B095A8F498FEA14FB0458F4B501A2
:1027B000C7010E94D21806C00A151B0570F301500C
:1027C0001109E2CFED89FE89898D9A8DE80FF91FF5
:1027D00010820AEC14E0F8016591749187E893E0A7
:1027E0000E94641A67E873E0CE0109960E94570EB2
:1027F000BE01675F7F4FCE0145960E94AC0D7C0104
:10280000CE0109960E94520EF7FC34C058ECE52E1A
:1028100054E0F52EF7016591749187E893E00E94EA
:10282000641A67E873E089E693E00E94C60DECEC59
:10283000F4E06591749187E893E00E94641A67E878
:1028400073E08FE693E00E94C60D67E873E085E7CA
:1028500093E00E94C60DF7016591749187E893E0BB
:102860000E94641A67E873E08BE793E00E94C60D4C
:10287000F8013EC068E571E0CE0109960E94570E4E
:10288000BE01675F7F4FCE0145960E94AC0D8C0163
:10289000CE0109960E94520E17FD31C0E0EDF4E022
:1028A000659174918FEA93E00E94641A6FEA73E075
:1028B00089E693E00E94C60DE2EDF4E06591749123
:1028C00087E893E00E94641A67E873E08FE693E07C
:1028D0000E94C60D67E873E085E793E00E94C60D8D
:1028E0006FEA73E08BE793E00E94C60DEEECF4E034
:1028F0006591749187E893E00E94641A77C060E65E
:1029000071E0CE0109960E94570EBE01675F7F4FAE
:10291000CE0145960E94AC0D8C01CE0109960E9415
:10292000520E17FD27C0E4EDF4E06591749187E83D
:1029300093E00E94641AE6EDF4E0659174918FEAE9
:1029400093E00E94641A6FEA73E089E693E00E94C4
:10295000C60D62E471E08FE693E00E94C60D62E46A
:1029600071E085E793E00E94C60D6FEA73E08BE7A4
:1029700093E03AC068E671E0CE0109960E94570ED6
:10298000BE01675F7F4FCE0145960E94AC0D8C0162
:10299000CE0109960E94520E17FD2EC0EAEDF4E01A
:1029A0006591749187E893E00E94641AECEDF4E07D
:1029B000659174918FEA93E00E94641A6FEA73E064
:1029C00089E693E00E94C60D62E471E08FE693E031
:1029D0000E94C60D62E471E085E793E00E94C60D97
:1029E0006FEA73E089E693E00E94C60D67E873E042
:1029F00087ED91E00E94960EEEEDF4E06591749102
:102A000087E893E00E94641A67E873E087EC93E03C
:102A10000E94AA0E69E673E087EC93E00E94730EB1
:102A20000E94A20B60ED77E080E090E00E94010B35
:102A3000811102C014E095C0E0EEF4E0659174915C
:102A400087E893E00E94641A67E873E087EC93E0FC
:102A50000E94AA0E6FE673E087EC93E00E94730E6B
:102A60000E94A20B60ED77E080E090E00E94010BF5
:102A7000882301F3E2EEF4E06591749187E893E036
:102A80000E94641A67E873E087EC93E00E94AA0E44
:102A900065E773E087EC93E00E94730E0E94A20B3F
:102AA00060ED77E080E090E00E94010B882309F45C
:102AB000C1CFE4EEF4E06591749187E893E00E9461
:102AC000641A67E873E087EC93E00E94AA0E6BE754
:102AD00073E087EC93E00E94730E0E94A20B60EDFE
:102AE00077E080E090E00E94010B882309F4A2CFF8
:102AF000E6EEF4E06591749187E893E00E94641A31
:102B000060E177E287E893E00E94010BE8EEF4E0F1
:102B10006591749187E893E00E94641A60E177E21E
:102B200087E893E00E94010BEAEEF4E0659174916E
:102B300087E893E00E94641A60ED77E087E893E00D
:102B40000E94010BECEEF4E06591749187E893E04C
:102B50000E94641A60ED77E087E893E00E94010B21
:102B600010E0CE0145960E94520E111112C08091C4
:102B7000840190918501039739F062E370E080E071
:102B800090E00E94AE05F3CF40E061E080E00E945B
:102B9000AE091EE1F6016591749187E893E00E9409
:102BA000641A60ED77E087E893E00E94010B8823C8
:102BB00019F163E471E08DED92E00E94FF18009737
:102BC000D9F0FC010281013311F00533A9F4E2ECE4
:102BD000F4E06591749187E893E00E94641A68EECE
:102BE00073E087E893E00E94010B802F000F990BA0
:102BF0000E94461A582E09C068EE73E080E090E00B
:102C00000E94AE05115009F0C5CF83EE90E00E94FE
:102C1000D00A852D90E0A0E0B0E04AE0BC01CD01F3
:102C20000E948D0A80EE90E00E94D00A511003C0ED
:102C300080ED90E01DC0F1E05F1203C08DEB90E0ED
:102C400017C022E0521203C081EA90E011C033E0C5
:102C5000531203C089E990E00BC084E0581203C00E
:102C600080E990E005C095E0591204C08CE790E03F
:102C70000E94F10A0E949503FDCF87ED92E00E9429
:102C8000520E86EE93E00E94520E8CEE93E00E946C
:102C9000520E82EF93E00E94520E8BE793E00E9467
:102CA000520E85E793E00E94520E8FE693E00E9459
:102CB000520E89E693E00E94520E8EE593E00E9448
:102CC000520E8EE191E09093C8038093C7038091E8
:102CD000C5039091C603875C934071F4E091DA03D9
:102CE000F091DB0390818091DC03809589238083C0
:102CF0001092C6031092C50308951092DA01109243
:102D0000D90188EE93E0A0E0B0E08093DB019093DE
:102D1000DC01A093DD01B093DE012EE031E03093C1
:102D2000D8012093D70125EC30E03093E4012093C3
:102D3000E30124EC30E03093E6012093E50120EC40
:102D400030E03093E8012093E70121EC30E030934C
:102D5000EA012093E90122EC30E03093EC0120936A
:102D6000EB0126EC30E03093EE012093ED01109260
:102D7000F0011092F1011092F2011092F301109201
:102D8000CA031092C9038093CB039093CC03A09302
:102D9000CD03B093CE038EE191E09093C80380936E
:102DA000C7031092DE031092DD031092E00310922D
:102DB000DF031092E2031092E1031092E4031092F9
:102DC000E3036091E5036E7F6D7F6093E503669595
:102DD000617081E0682787E00E94420561E087E03A
:102DE0000E947205E1E4F5E0E491E093D703EDE29F
:102DF000F5E0E491F0E0EE0FFF1FEE5EFA4F8591F3
:102E000094919093D9038093D80360E088E00E9466
:102E100072058091E50381FD04C061E088E00E94B5
:102E2000420588E08093D303E2E4F5E0E491E09387
:102E3000D403EEE2F5E0E491F0E0EE0FFF1FE45E74
:102E4000FA4F859194919093D6038093D503109275
:102E50005D0362E471E08EE593E00E94570E62E448
:102E600071E089E693E00E94570E62E471E08FE61C
:102E700093E00E94570E62E471E085E793E00E94C0
:102E8000570E62E471E08BE793E00E94570E1092B8
:102E9000C4031092C30362E471E082EF93E00E94E6
:102EA000570E62E471E08CEE93E00E94570E62E4EC
:102EB00071E086EE93E00E94570E6EE671E087EDBA
:102EC00092E00E94570E60E189EC92E00E94D307E5
:102ED00061E18BEB92E00E94D30764E08DEA92E01F
:102EE0000E94D30728E134E03093AC022093AB0278
:102EF00089EC92E09093A00280939F0210929E0230
:102F000010929A0299E090939B0281E080939C0238
:102F100080939D0230939902209398024BEB52E0EC
:102F200050938D0240938C0210928B021092870274
:102F3000909388028093890280938A02309386025C
:102F4000209385022DEA32E030937A0220937902B1
:102F50001092780210927402909375028093760218
:102F600080937702089597FB072E16F4009407D0FC
:102F700077FD09D00E94E91707FC05D03EF4909533
:102F800081959F4F0895709561957F4F0895A1E2B7
:102F90001A2EAA1BBB1BFD010DC0AA1FBB1FEE1FD3
:102FA000FF1FA217B307E407F50720F0A21BB30B1E
:102FB000E40BF50B661F771F881F991F1A9469F79A
:102FC00060957095809590959B01AC01BD01CF01F6
:102FD0000895AA1BBB1B51E107C0AA1FBB1FA61760
:102FE000B70710F0A61BB70B881F991F5A95A9F7B2
:102FF00080959095BC01CD010895EE0FFF1F0590BF
:10300000F491E02D0994A0E0B0E0E9E0F8E10C943F
:10301000831AEC01009721F4CB010E941919B8C062
:10302000FC01E60FF71F9C0122503109E217F3075C
:1030300008F4ACC0D9010D911C9111970617170720
:10304000B0F00530110508F49FC0C8010497861739
:10305000970708F499C002501109061B170B01933A
:1030600011936D937C93CF010E94AE198DC05B01CB
:10307000A01AB10A4C01800E911EA091FA03B091E2
:10308000FB0340E050E0E12CF12C109709F44AC01A
:10309000A815B905D1F56D907C901197630182E078
:1030A000C80ED11CCA14DB0480F1A3014A195B09C4
:1030B0006A0182E0C80ED11C1296BC90129713963A
:1030C000AC91B5E0CB16D10440F0B282A38351831A
:1030D0004083D9016D937C930AC00E5F1F4FC301DB
:1030E000800F911FF90191838083EB2DFA2FE1145A
:1030F000F10431F0D7011396FC93EE93129744C07C
:10310000F093FB03E093FA033FC08D919C911197DC
:103110004817590708F4AC017D0112960D90BC9137
:10312000A02DB3CF8091F8039091F90388159905EC
:10313000E1F446175707C8F4809104019091050106
:10314000009741F48DB79EB7409108015091090155
:10315000841B950BE817F907C8F4F093F903E09383
:10316000F803F901718360830FC0CB010E94191924
:103170007C01009759F0A801BE010E94D218CE012F
:103180000E94AE19C70104C0CE0102C080E090E0E9
:10319000CDB7DEB7EEE00C949F1A81E090E0F89492
:1031A0000C94B61AFB01DC0102C001900D92415053
:1031B0005040D8F708956817790768F4FB01DC01DF
:1031C000E40FF51FA40FB51F02C002900E924150EC
:1031D0005040D8F708950C94D218FC0181918617BD
:1031E00021F08823D9F7992708953197CF010895C1
:1031F000FB01DC0101900D920020E1F70895FB0135
:1032000051915523A9F0BF01DC014D9145174111A2
:10321000E1F759F4CD010190002049F04D9140159E
:103220004111C9F3FB014111EFCF81E090E001971B
:103230000895CF93DF938230910510F482E090E0FF
:10324000E091FA03F091FB0320E030E0C0E0D0E031
:10325000309711F14081518148175907C0F0481744
:10326000590761F482819381209719F09B838A83A7
:103270002BC09093FB038093FA0326C021153105E0
:1032800019F04217530718F49A01BE01DF01EF014C
:103290000280F381E02DDCCF2115310509F1281BD7
:1032A000390B2430310590F412968D919C9113972F
:1032B0006115710521F0FB019383828304C0909313
:1032C000FB038093FA03FD01329644C0FD01E20F37
:1032D000F31F81939193225031092D933C933AC06F
:1032E0002091F8033091F903232B41F4209106013A
:1032F000309107013093F9032093F80320910401E2
:10330000309105012115310541F42DB73EB74091AB
:10331000080150910901241B350BE091F803F0914D
:10332000F903E217F307A0F42E1B3F0B2817390708
:1033300078F0AC014E5F5F4F2417350748F04E0F11
:103340005F1F5093F9034093F8038193919302C058
:10335000E0E0F0E0CF01DF91CF9108950F931F934C
:10336000CF93DF93009709F48CC0FC01329713824E
:1033700012820091FA031091FB030115110581F4EB
:1033800020813181820F931F2091F8033091F9033E
:103390002817390779F5F093F903E093F80371C022
:1033A000D80140E050E0AE17BF0750F412962D91BF
:1033B0003C911397AD012115310509F1D901F3CFE6
:1033C0009D01DA013383228360817181860F971F0B
:1033D0008217930769F4EC0128813981260F371F82
:1033E0002E5F3F4F318320838A819B819383828329
:1033F000452B29F4F093FB03E093FA0342C01396A4
:10340000FC93EE931297ED01499159919E01240F7F
:10341000351FE217F30771F480819181840F951FA6
:10342000029611969C938E938281938113969C931E
:103430008E931297E0E0F0E0D80112968D919C9166
:103440001397009719F0F8018C01F6CF8D919C919C
:1034500098012E5F3F4F820F931F2091F803309108
:10346000F9032817390769F4309729F41092FB0300
:103470001092FA0302C0138212821093F903009390
:10348000F803DF91CF911F910F910895FC018827D8
:103490009927E89421912032E9F3293010F02E3059
:1034A000C8F32B3241F02D3239F4689404C00E94E5
:1034B0006B1A820F911D219120532A30C0F31EF404
:1034C000909581959F4F0895FB01DC0105900D9229
:1034D0000020E1F708957AE0979F902D879F802D37
:1034E000910D1124089591110C947C1A803219F0D9
:1034F00089508550C8F708959927882708952F92F5
:103500003F924F925F926F927F928F929F92AF9273
:10351000BF92CF92DF92EF92FF920F931F93CF93C0
:10352000DF93CDB7DEB7CA1BDB0B0FB6F894DEBF57
:103530000FBECDBF09942A88398848885F846E847D
:103540007D848C849B84AA84B984C884DF80EE80C7
:10355000FD800C811B81AA81B981CE0FD11D0FB6D0
:10356000F894DEBF0FBECDBFED01089512E0C8EAAA
:10357000D2E004C0FE010E94FD172196C93AD1078E
:06358000C9F7F894FFCF2B
:10358600C403C4030000FC038000000000002C03F9
:10359600E70DF502D302E7027303000000003204D0
:1035A600E70D86049E041904310441540041542B4E
:1035B600434D4744413D2244454C20414C4C22005A
:1035C6000D0A00302C004F4B0D005B315D002C22A4
:1035D600005B325D004F4B004265656C696E6500AD
:1035E6004D656761466F6E0054454C45320038366E
:1035F60031343435303330333632323638005B309E
:023606005D0065
:107800000C94343C0C94513C0C94513C0C94513CE1
:107810000C94513C0C94513C0C94513C0C94513CB4
:107820000C94513C0C94513C0C94513C0C94513CA4
:107830000C94513C0C94513C0C94513C0C94513C94
:107840000C94513C0C94513C0C94513C0C94513C84
:107850000C94513C0C94513C0C94513C0C94513C74
:107860000C94513C0C94513C11241FBECFEFD8E036
:10787000DEBFCDBF11E0A0E0B1E0ECE9FFE702C060
:1078800005900D92A230B107D9F712E0A2E0B1E065
:1078900001C01D92AD30B107E1F70E942D3D0C945F
:1078A000CC3F0C94003C982F959595959595959582
:1078B000905D8F708A307CF0282F295A8091C0000B
:1078C00085FFFCCF9093C6008091C00085FFFCCF60
:1078D0002093C6000895282F205DF0CF982F809127
:1078E000C00085FFFCCF9093C6000895EF92FF92F1
:1078F0000F931F93EE24FF2487018091C00087FD22
:1079000017C00894E11CF11C011D111D81E4E8164B
:1079100082E4F8068FE0080780E0180770F3E09132
:107920000401F091050109958091C00087FFE9CF1E
:107930008091C6001F910F91FF90EF9008950E94D3
:10794000763C982F8091C00085FFFCCF9093C600B5
:1079500091362CF490330CF09053892F089597555D
:10796000892F08951F930E949F3C182F0E949F3CCF
:107970001295107F810F1F9108951F93182F882350
:1079800021F00E94763C1150E1F71F9108951F935A
:10799000182F0E94763C803249F0809103018F5F5E
:1079A000809303018530C1F01F9108958091C0003C
:1079B00085FFFCCF84E18093C6008091C00085FFE5
:1079C000FCCF1093C6008091C00085FFFCCF80E102
:1079D0008093C6001F910895E0910401F091050184
:1079E00009951F9108950E94763C803241F0809164
:1079F00003018F5F80930301853081F008958091AA
:107A0000C00085FFFCCF84E18093C6008091C00058
:107A100085FFFCCF80E18093C6000895E0910401CA
:107A2000F09105010995089540E951E08823A1F0FE
:107A30002D9A28EE33E0FA013197F1F721503040CA
:107A4000D1F72D9828EE33E0FA013197F1F7215064
:107A50003040D1F7815061F708953F924F925F9285
:107A60006F927F928F929F92AF92BF92CF92DF924E
:107A7000EF92FF920F931F93CF93DF93000080E16B
:107A80008093C4001092C50088E18093C10086E015
:107A90008093C2005098589A259A81E00E94143D24
:107AA00024E1F22E9EE1E92E85E9D82E0FE0C02ECA
:107AB00010E1B12EAA24A394B1E49B2EA6E58A2E50
:107AC000F2E57F2EE0E26E2E79E4572E63E5462E36
:107AD00050E5352E0E94763C8033B1F18133B9F107
:107AE000803409F46FC0813409F476C0823409F41B
:107AF00085C0853409F488C0803531F1823521F1A3
:107B0000813511F1853509F485C0863509F48DC0BC
:107B1000843609F496C0843709F403C1853709F423
:107B200072C1863709F466C0809103018F5F80932C
:107B30000301853079F6E0910401F0910501099582
:107B40000E94763C803351F60E94F33CC3CF0E94E2
:107B5000763C803249F78091C00085FFFCCFF092DF
:107B6000C6008091C00085FFFCCF9092C600809136
:107B7000C00085FFFCCF8092C6008091C00085FFC9
:107B8000FCCF7092C6008091C00085FFFCCF609250
:107B9000C6008091C00085FFFCCF5092C600809146
:107BA000C00085FFFCCF4092C6008091C00085FFD9
:107BB000FCCF3092C6008091C00085FFFCCFB09210
:107BC000C60088CF0E94763C863808F4BDCF0E945C
:107BD000763C0E94F33C7ECF0E94763C803809F4CC
:107BE0009CC0813809F40BC1823809F43CC1883942
:107BF00009F48FC080E00E94C73C6CCF84E10E94F2
:107C0000BD3C0E94F33C66CF85E00E94BD3C0E94D3
:107C1000F33C60CF0E94763C809306010E94763C44
:107C2000809307010E94F33C55CF0E94763C80333D
:107C300009F41DC183E00E94BD3C80E00E94C73C66
:107C400049CF0E94763C809309020E94763C809343
:107C5000080280910C028E7F80930C020E94763C79
:107C6000853409F415C18091080290910902892B8D
:107C700089F000E010E00E94763CF801E85FFE4FDA
:107C800080830F5F1F4F80910802909109020817AF
:107C9000190788F30E94763C803209F045CF809125
:107CA0000C0280FF01C16091060170910701660F0F
:107CB000771F7093070160930601A0910802B091AD
:107CC00009021097C9F0E8E0F1E09B01AD014E0F09
:107CD0005F1FF999FECF32BD21BD819180BDFA9A17
:107CE000F99A2F5F3F4FE417F50799F76A0F7B1F4B
:107CF00070930701609306018091C00085FFFCCF5F
:107D0000F092C6008091C00085FFFCCFB092C60003
:107D1000E1CE83E00E94C73CDDCE82E00E94C73CFA
:107D2000D9CE0E94763C809309020E94763C8093D3
:107D300008028091060190910701880F991F909386
:107D40000701809306010E94763C853409F4A6C0A1
:107D500080910C028E7F80930C020E94763C8032D0
:107D600009F0B8CE8091C00085FFFCCFF092C6002C
:107D7000609108027091090261157105B9F140E046
:107D800050E080910C02A82FA170B82FB27011C0E2
:107D9000BB2309F45CC0E0910601F0910701319624
:107DA000F0930701E09306014F5F5F4F46175707B7
:107DB000E8F4AA2369F3F999FECF209106013091E6
:107DC000070132BD21BDF89A90B58091C00085FFB2
:107DD000FCCF9093C6002F5F3F4F30930701209355
:107DE00006014F5F5F4F4617570718F38091C00099
:107DF00085FDE5CE8091C00085FFF8CFE0CE81E023
:107E00000E94C73C67CE0E94763C803209F08CCE3F
:107E10008091C00085FFFCCFF092C6008091C00029
:107E200085FFFCCFE092C6008091C00085FFFCCFAB
:107E3000D092C6008091C00085FFFCCFC092C600E2
:107E40008091C00085FFFCCFB092C60043CEE09188
:107E50000601F091070194918091C00085FFFCCF4D
:107E60009093C6009CCF80E10E94C73C33CE0E9415
:107E7000763C0E94763C182F0E94763C112309F430
:107E800083C0113009F484C08FE00E94C73C22CE29
:107E900080910C02816080930C02E5CE80910C02EF
:107EA000816080930C0259CF809107018823880F4D
:107EB000880B8A2180930B02809106019091070123
:107EC000880F991F90930701809306018091080203
:107ED00080FF09C080910802909109020196909359
:107EE000090280930802F894F999FECF1127E091D6
:107EF0000601F0910701C8E0D1E08091080290915D
:107F00000902103091F40091570001700130D9F34B
:107F100003E000935700E89500915700017001308D
:107F2000D9F301E100935700E89509901990009169
:107F3000570001700130D9F301E000935700E89534
:107F40001395103498F011270091570001700130FB
:107F5000D9F305E000935700E895009157000170B0
:107F60000130D9F301E100935700E895329602976A
:107F700009F0C7CF103011F00296E5CF112480919F
:107F8000C00085FFB9CEBCCE8EE10E94C73CA2CD19
:0C7F900085E90E94C73C9ECDF894FFCF0D
:027F9C00800063
:040000030000780081
:00000001FF