:100000000C94D7030C9494070C946D070C94B90AC4
:100010000C94B90A0C94B90A0C94FF030C94FF03D6
:100020000C94FF030C94FF030C94FF030C94FF0348
:100030000C94FF030C94FF030C94FF030C94FF0338
:100040000C9423070C94FF030C9416060C94F005F3
:100050000C94FF030C94FF030C94FF030C94FF0318
:100060000C94FF030C94FF03000000080002010041
:100070000003040700000000000000005468652031
:100080006E6574776F726B206973206E6F74206475
:100090006566696E6564000A494D45493A005365D5
:1000A0007474696E67207570206E6574776F726BFB
:1000B0002E2E2E004F4B00506F7765722053494D06
:1000C000383030204F6E00496E697469616C697A0E
:1000D000696E672E2E2E2E284D61792074616B6516
:1000E0002035207365636F6E647329000A53494D90
:1000F00038303020736574757020656E6400496E09
:1001000074657276616C207365633A00436C656157
:100110007220454550524F4D20456E640053746126
:10012000727420636C65617220454550524F4D00DA
:100130000A4E6F20696E7465726E657420636F6E0F
:100140006E656374696F6E004552524F52004F4B9B
:10015000000A2053494D3830302073657475702083
:10016000737461727400204572726F72733A005436
:100170006F74616C3A006E6F20636F6D70617265B1
:10018000006E6F20636F6D70617265006E6F20632B
:100190006F6D70617265005B5061796C6F61645D59
:1001A0002000546865206E756D626572206F662050
:1001B000736572766572206572726F7273206578EE
:1001C00063656564656420323000436F6E6E6563FD
:1001D00074206572726F720052657175657374690F
:1001E0006E672000537472696E67206C656E677469
:1001F000683A20000A54656D70000A6672656520D1
:100200006D656D6F72793A2000496E746572766122
:100210006C207365633A0070686F6E652069676E65
:100220006F72656400534D532063656E74720043B2
:100230006F6D6D616E64612074656C3200436F6D2B
:100240006D616E64612074656C31002B434D540008
:10025000534D533A00556E6B6E6F776E20636F6D22
:100260006D616E640054696D656F666600526573FA
:100270007461727400526573746172740054696DB4
:100280006573657400005EBCE2613FDD83C29C7EE5
:1002900020A3FD1F419DC3217FFCA2401E5F01E3FF
:1002A000BD3E6082DC237D9FC1421CFEA0E1BF5D9C
:1002B0000380DE3C62BEE0025CDF81633D7C22C0E5
:1002C0009E1D43A1FF4618FAA427799BC584DA38FE
:1002D00066E5BB5907DB856739BAE406581947A5B7
:1002E000FB7826C49A653BD987045AB8E6A7F91B60
:1002F00045C6987A24F8A6441A99C7257B3A64869D
:10030000D85B05E7B98CD2306EEDB3510F4E10F2C9
:10031000AC2F7193CD114FADF3702ECC92D38D6F66
:1003200031B2EC0E50AFF1134DCE90722C6D33D133
:100330008F0C52B0EE326C8ED0530DEFB1F0AE4C4C
:100340001291CF2D73CA947628ABF517490856B48D
:10035000EA6937D58B5709EBB536688AD495CB292E
:1003600077F4AA4816E9B7550B88D6346A2B7597E7
:10037000C94A14F6A8742AC896154BA9F7B6E80A14
:1003800054D7896B3500000000240027002A000D97
:100390000A004572726F72002B4854545052454106
:1003A000443A200041542B48545450524541440093
:1003B000302C363000302C3230300041542B485431
:1003C0005450414354494F4E3D300041542B485402
:1003D0005450504152413D2255524C222C22004152
:1003E000542B48545450414354494F4E3D300041E2
:1003F000542B48545450504152413D2255524C22A6
:100400002C220041542B48545450504152413D221B
:10041000434944222C310041542B48545450494EF6
:1004200049540041542B485454505445524D0041B6
:10043000542B43495047534D4C4F433D312C3100D1
:100440004552524F520D004F4B0D0041542B434F1C
:1004500050533F0041542B47534E0041542B4350BF
:100460004D533D22534D222C22534D222C22534DCD
:10047000220041542B434D47463D310041542B53FC
:10048000415042523D322C310041542B5341504295
:10049000523D312C310041542B434744434F4E547D
:1004A0003D312C224950222C220041542B534150E3
:1004B00042523D332C312C22505744222C220041F1
:1004C000542B53415042523D332C312C225553452D
:1004D00052222C220041542B53415042523D332C86
:1004E000312C2241504E222C2200696E7465726EAE
:1004F00065742E54454C45322E72750054454C455A
:1005000032004D454741464F4E00696E7465726E2C
:100510006574004D656761466F6E006265656C6964
:100520006E6500696E7465726E65742E6265656CC9
:10053000696E652E7275004265656C696E65006D49
:100540007473004D545300696E7465726E65742E39
:100550006D74732E72750041542B53415042523DBD
:10056000332C312C22436F6E74797065222C224714
:10057000505253220041542B43474154543F0041B1
:10058000542B4353510041542B435245473F0041A4
:10059000542B434E4D493D322C320041542B435392
:1005A00043533D2247534D220041542B434C495065
:1005B0003D310041542B434D47463D310041542BC2
:1005C0004346554E3D310041542B4950523D31393F
:1005D000323030004154453000D405C705BD05B365
:1005E00005A9059B058F0586057F057505570547F8
:1005F0000543053F05370523051B0513050A0502BD
:1006000005FC04EA04D504BF04AA04960489047C0A
:100610000472045B0454044B04470440042F042375
:100620000417040304EF03DF03CB03BB03B503B0DC
:1006300003A403980392038F030000000025002801
:10064000002B000000000023002600290004040401
:10065000040404040402020202020203030303036B
:100660000301020408102040800102040810200148
:1006700002040810204E414E494E495459494E46F5
:10068000CDCCCC3D0AD7233C17B7D13877CC2B3211
:100690009595E6241FB14F0A000020410000C84292
:1006A00000401C4620BCBE4CCA1B0E5AAEC59D74F1
:1006B00000407A10F35A00A0724E18090010A5D419
:1006C000E80000E87648170000E40B54020000CA76
:1006D0009A3B000000E1F5050000809698000000BC
:1006E00040420F000000A08601000000102700001B
:1006F0000000E803000000006400000000000A00A1
:10070000000000000100000000002C76D888DC67A3
:100710004F0823DFC1DFAE59E1B1B796E5E3E453FB
:10072000C63AE651997696E8E6C28426EB898C9B18
:1007300062ED407C6FFCEFBC9C9F40F2BAA56FA5B8
:10074000F490055A2AF75C936B6CF9676DC11BFC3A
:10075000E0E40D47FEF520E6B500D0ED902E030055
:10076000943577050080841E080000204E0A0000A2
:1007700000C80C333333330F986E12831141EF8D61
:100780002114893BE65516CFFEE6DB18D1844B38A1
:100790001BF77C1D901DA4BBE424203284725E22D2
:1007A0008100C9F124ECA1E53D273225F224112472
:1007B0001FBECFEFD8E0DEBFCDBF12E0A0E0B1E0BA
:1007C000EEEEFFE502C005900D92A830B107D9F713
:1007D00024E0A8E0B2E001C01D92A43AB207E1F71C
:1007E00013E0C6EDD3E004C02197FE010E94B226BB
:1007F000C53DD107C9F70E947B150C94EA2F0C94D4
:100800000000FC01918D828D981761F0828DDF01CF
:10081000A80FB11D5D968C91928D9F5F9F73928FF3
:1008200090E008958FEF9FEF0895FC01918D828DE8
:10083000981731F0828DE80FF11D858D90E00895B5
:100840008FEF9FEF0895FC01918D228D892F90E00D
:10085000805C9F4F821B91098F73992708958CE7C5
:1008600092E00E94230421E0892B09F420E0822FEA
:100870000895FC01848DDF01A80FB11DA35ABF4F5D
:100880002C91848D90E001968F739927848FA6898F
:10089000B7892C93A089B1898C9180648C93938DB6
:1008A000848D981306C00288F389E02D80818F7DA6
:1008B00080830895EF92FF920F931F93CF93DF935E
:1008C000EC0181E0888F9B8D8C8D981305C0E889A1
:1008D000F989808185FD24C0F62E0B8D10E00F5F15
:1008E0001F4F0F731127E02E8C8DE8120CC00FB62E
:1008F00007FCFACFE889F989808185FFF5CFCE0121
:100900000E943904F1CF8B8DFE01E80FF11DE35AEF
:10091000FF4FF0820B8FEA89FB898081806207C0DC
:10092000EE89FF896083E889F9898081806480830A
:1009300081E090E0DF91CF911F910F91FF90EF90B8
:100940000895CF93DF93EC01888D8823C9F0EA895D
:10095000FB89808185FD05C0A889B9898C9186FDB8
:100960000FC00FB607FCF5CF808185FFF2CFA889B5
:10097000B9898C9185FFEDCFCE010E943904E7CF74
:10098000DF91CF91089580E090E0892B29F00E94BB
:100990002F0481110C94000008953FB7F8948091C2
:1009A000780290917902A0917A02B0917B0226B5EB
:1009B000A89B05C02F3F19F00196A11DB11D3FBF97
:1009C000BA2FA92F982F8827820F911DA11DB11D25
:1009D000BC01CD0142E0660F771F881F991F4A9521
:1009E000D1F7089508950895FC0190810180F28166
:1009F000E02DF8948181892B81832281892F809534
:100A000028232283A7E0B0E01197F1F72181822308
:100A10008183A3E2B0E01197F1F780817894EFEC45
:100A2000F0E03197F1F7982381E009F480E0089530
:100A3000FC0190810180F281E02D892F809560FF7B
:100A400012C0F8942281822382838181892B818341
:100A5000A3E2B0E01197F1F78281982B928378940A
:100A600087ED90E011C0F8942281822382838181F6
:100A7000892B8183AFEFB0E01197F1F78281982B3A
:100A8000928378948FE090E00197F1F708950895AC
:100A900020917004309171042817390771F49091F6
:100AA000080280910902981741F0E0910802F0E0F5
:100AB000ED5CFD4F808190E008958FEF9FEF0895EA
:100AC00008951F93CF93DF93DC015C962D913C91A9
:100AD0005D972115310539F481E090E013969C93E0
:100AE0008E9312973DC05196ED91FC91529750967E
:100AF0009C915097892F80951FB75E964C915E9779
:100B000041FB772770F941FD6095F8944081772388
:100B100011F0492B01C048234083E9012197F1F7E7
:100B200048E0508160FF02C0592B01C05823508318
:100B3000E9012197F1F76695415099F7772321F064
:100B400090818923808303C08081982B90831FBF6D
:100B50005C968D919C915D970197F1F721E030E0D3
:100B6000C901DF91CF911F910895209170043091B8
:100B700071042817390771F4809109022091080245
:100B800090E0805C9F4F821B910960E470E00E94BE
:100B90006826089580E090E00895209170043091D7
:100BA000710428173907B9F490910802809109025D
:100BB000981789F0E0910802F0E0ED5CFD4F80812C
:100BC0002091080230E02F5F3F4F2F73332720938F
:100BD000080290E008958FEF9FEF08950E94EF279D
:100BE0001F920F920FB60F9211242F933F934F93A2
:100BF0005F936F937F938F939F93AF93BF93EF9385
:100C0000FF938CE792E00E943904FF91EF91BF912E
:100C1000AF919F918F917F916F915F914F913F9194
:100C20002F910F900FBE0F901F9018951F920F924B
:100C30000FB60F9211242F938F939F93EF93FF93EF
:100C4000E0918C02F0918D028081E0919202F0910E
:100C5000930282FD12C09081809195028F5F8F7305
:100C600020919602821751F0E0919502F0E0E4584D
:100C7000FD4F958F8093950201C08081FF91EF9188
:100C80009F918F912F910F900FBE0F901F901895ED
:100C9000833081F028F4813099F08230A1F00895FA
:100CA0008730A9F08830B9F08430D1F48091800089
:100CB0008F7D03C0809180008F778093800008959E
:100CC00084B58F7702C084B58F7D84BD08958091EF
:100CD000B0008F7703C08091B0008F7D8093B0000B
:100CE00008951F93CF93DF93282F30E0F901E8593F
:100CF000FF4F8491F901EF59F94FD491F901E35B6A
:100D0000F94FC491CC23C9F0162F81110E944806D7
:100D1000EC2FF0E0EE0FFF1FE75CF94FA591B491C7
:100D20008FB7F894111105C09C91ED2FE095E92340
:100D300002C0EC91ED2BEC938FBFDF91CF911F910F
:100D40000895CF93DF9390E0FC01EF59F94F249180
:100D5000FC01E35BF94F8491882361F190E0880FF7
:100D6000991FFC01EB57FC4FC591D491FC01E75C46
:100D7000F94FA591B491611109C09FB7F89488818A
:100D8000209582238883EC912E230BC0623061F47E
:100D90009FB7F8943881822F809583238883EC91C4
:100DA0002E2B2C939FBF06C08FB7F894E8812E2B73
:100DB00028838FBFDF91CF9108958F929F92AF923A
:100DC000BF92CF92DF92EF92FF926B017C010E9463
:100DD000CD044B015C01C114D104E104F104F1F034
:100DE0000E94CD04DC01CB0188199909AA09BB092D
:100DF000883E9340A105B10570F321E0C21AD108E5
:100E0000E108F10888EE880E83E0981EA11CB11C51
:100E1000C114D104E104F10419F7DDCFFF90EF9084
:100E2000DF90CF90BF90AF909F908F9008952FB795
:100E3000F89460917402709175028091760290919D
:100E400077022FBF08951F920F920FB60F921124B1
:100E50002F933F938F939F93AF93BF93809174028F
:100E600090917502A0917602B09177023091730251
:100E700023E0230F2D3720F40196A11DB11D05C0DD
:100E800026E8230F0296A11DB11D209373028093C3
:100E9000740290937502A0937602B09377028091CA
:100EA000780290917902A0917A02B0917B0201962A
:100EB000A11DB11D8093780290937902A0937A02CC
:100EC000B0937B02BF91AF919F918F913F912F91F2
:100ED0000F900FBE0F901F9018951F920F920FB694
:100EE0000F9211242F933F934F935F936F937F93B0
:100EF0008F939F93AF93BF93EF93FF93E091020182
:100F0000F09103010995FF91EF91BF91AF919F91EE
:100F10008F917F916F915F914F913F912F910F90A2
:100F20000FBE0F901F9018951F920F920FB60F9241
:100F300011242F933F934F935F936F937F938F93DE
:100F40009F93AF93BF93EF93FF93E0910001F091D4
:100F500001010995FF91EF91BF91AF919F918F9101
:100F60007F916F915F914F913F912F910F900FBEA5
:100F70000F901F901895DC01E0E0615038F08D91E2
:100F8000E827F0E0EB57FD4FE491F7CF8E2F08955F
:100F9000CF92DF92EF92FF920F931F93CF93DF9345
:100FA0001F92CDB7DEB76C01E62E08E010E0FF24FB
:100FB000F39461E08F2D8E2109F460E0C60149832E
:100FC0000E941805FF0C01501109498101151105F6
:100FD00081F7411115C0F894D6011196ED91FC915D
:100FE000129791818C918095892381831196ED913F
:100FF000FC91129792818C918095892382837894B9
:101000000F90DF91CF911F910F91FF90EF90DF90A4
:10101000CF900895CF92DF92EF92FF920F931F939C
:10102000CF93DF931F92CDB7DEB78C01F62E40E051
:1010300065E579830E94C807CF2C7981D72E760188
:1010400088E0E80EF11CF60161916F0140E0C801F3
:101050000E94C807CE14DF04B1F70F90DF91CF9143
:101060001F910F91FF90EF90DF90CF900895FC01BA
:1010700090810180F281E02DF8948181292F2095C3
:101080008223818378948DE743E050E0815021F101
:10109000DA011197F1F730813923C1F3F894828195
:1010A000822382838181892B81837894ABE7B7E0A7
:1010B0001197F1F7F894818128232183A3E1B1E00E
:1010C0001197F1F78081982381E009F080E078940E
:1010D000E3E6F6E03197F1F70895AF92BF92CF9231
:1010E000DF92EF92FF920F931F93CF93DF931F92A4
:1010F000CDB7DEB75C01E62ED72EFC0185858111C8
:101100005DC0C5010E943708811105C0F501138635
:10111000158614866BC040E060EFC5010E94C807C9
:1011200001E0F12CC12C11E0C5010E94F404682FEC
:10113000C50169830E94F4046981613019F481302A
:10114000B9F433C04F2D50E068131BC0F5018385FF
:10115000181730F4E40FF51F8381802349F402C08F
:10116000181731F060E0193058F4F501148708C001
:10117000F501EF0DF11D8381802B838361E009C0B0
:10118000C12EF501E40FF51F9381802F80958923EF
:101190008383C5010E9418051F5F000F11F4F394AB
:1011A00001E0F7E0FF1508F0BFCF113438F0F5018A
:1011B000C386C11015C081E0858712C0F501138672
:1011C0001586148680E0D5011396EE2DFD2D950130
:1011D000255F3F4F9D919193A217B307D9F706C0A2
:1011E000F5018381882351F381E0EDCF0F90DF91EA
:1011F000CF911F910F91FF90EF90DF90CF90BF9014
:10120000AF9008956F927F928F929F92AF92BF920C
:10121000CF92DF92EF92FF920F931F93CF93DF93C2
:101220001F92CDB7DEB78C01F42EFC01858196812B
:1012300059830E940A0840E06EEBF801858196818F
:101240000E94C8076F2C5981752E5301F9E0AF0E2B
:10125000B11CF8018580968088E0C82ED12CEE2440
:10126000E394F12CC4010E94F4048111FE28EE0CD9
:10127000F1E0CF1AD108B1F7F301F1923F01EA157D
:10128000FB0539F7F801858196810E94370891E0C6
:10129000813009F090E0892F0F90DF91CF911F915D
:1012A0000F91FF90EF90DF90CF90BF90AF909F9005
:1012B0008F907F906F9008950F931F93CF93DF933C
:1012C000EC01162F60E0812F0E94A106612F70E0D3
:1012D000FB01EF59F94FE491E883FB01E35BF94F20
:1012E000E491F0E0EE0FFF1FED5BF94F85919491D3
:1012F0009A8389831B861D861C86FE013B968E0180
:101300000D5F1F4F1292E017F107E1F7DF91CF91C8
:101310001F910F910895CF93DF93EC018D819E81F2
:101320000E94370840E06CEC8D819E810E94C807C6
:10133000488164E48D819E810E94C8078A81882348
:10134000B1F0E981E950E33040F4F0E0EE0FFF1F27
:10135000E25FFE4F6081718102C06EEE72E0072E87
:10136000000C880B990BDF91CF910C94DD06DF9177
:10137000CF910895EF92FF920F931F93CF93DF9336
:1013800000D0CDB7DEB78C017A01FC018581968152
:1013900069837A830E94370869817A81882371F092
:1013A000A701C8010E940209882341F068E0C70133
:1013B0000E94BB0791E0F7012085821390E0892FFE
:1013C0000F900F90DF91CF911F910F91FF90EF90B1
:1013D0000895CF93DF93CDB7DEB729970FB6F89472
:1013E000DEBF0FBECDBFFB0120812031D1F0AE01A9
:1013F0004F5F5F4F0E94BA09882389F08D818F3338
:1014000061F020F48F3159F489E00CC08F3519F068
:101410008F3739F004C08BE005C08AE003C080E05C
:1014200001C08CE029960FB6F894DEBF0FBECDBF89
:10143000DF91CF910895EF92FF920F931F93CF9377
:10144000DF93CDB7DEB761970FB6F894DEBF0FBE5E
:10145000CDBF8C01DC011596ED91FC91169713869A
:1014600015861486DF011B9633961E92AE17BF07B2
:10147000E1F7F8011482FF24F394BE01665F7F4F09
:10148000F801858196810E946D08882309F464C063
:1014900067E0CE010A960E94BB0799898913EDCFB8
:1014A000D8018C91811126C015968D919C9116972B
:1014B0000E943708BE01665F7F4FF80185819681E3
:1014C0000E940A0840E064EBD80115968D919C912A
:1014D00016970E94C807F801858196810E94F4043E
:1014E000E82ED80115968D919C9116970E94370889
:1014F000EE2079F1F801858196810E9437088823D2
:1015000049F0AE014F5F5F4FBE01665F7F4FC8017C
:101510000E940209D8011196EC90BE01665F7F4FD0
:10152000C8010E94E9098E1518F4F801818106C0EE
:10153000BE01665F7F4FC8010E94E909D80111967C
:101540008C93119714968C9114978F5F14968C93AB
:1015500094CFD801FC92CECF61960FB6F894DEBF3F
:101560000FBECDBFDF91CF911F910F91FF90EF90F4
:1015700008951F920F920FB60F9211242F933F934D
:101580004F935F936F937F938F939F93AF93BF938B
:10159000EF93FF93E0917004F0917104309709F498
:1015A00051C0968DA685B785858591FF04C09C9115
:1015B000892329F447C09C91892309F043C0A3895A
:1015C000B4899C918589809589238C938689978994
:1015D0000197F1F7608D718DA685B785558538E047
:1015E00020E0CB010197F1F7822F90E09595879548
:1015F000282F4C91452309F02068315091F7868DB2
:1016000081FD20958091090290E001968F739927C2
:1016100030910802381749F0A0910902B0E0AD5CA2
:10162000BD4F2C938093090203C0868D8160868F05
:10163000828D938D0197F1F7A389B4899C91858957
:10164000892B8C93FF91EF91BF91AF919F918F91D7
:101650007F916F915F914F913F912F910F900FBEAE
:101660000F901F901895CF92DF92EF92FF920F93F9
:101670001F93CF93DF93EB017B012DE0E20EF11C72
:101680008B016C01C61AD70AC601800F911F0E94F8
:10169000832FF80181938F01EE15FF05A9F7CE0185
:1016A000DF91CF911F910F91FF90EF90DF90CF903E
:1016B00008950F931F93CF93DF938C01EB010E944A
:1016C000832F8883C80101960E94832F8983CE01CE
:1016D000DF91CF911F910F9108950C948B2FCF9292
:1016E000DF92EF92FF920F931F93CF93DF9300D07F
:1016F00000D000D0CDB7DEB78C017B016DE772E082
:10170000CE0101960E94D113BE016F5F7F4FC801C9
:101710000E949D126C01CE0101960E946F13D7FCAE
:1017200016C084E190E0A0E0B0E0809304019093C3
:101730000501A0930601B093070181E080930C029C
:1017400064E170E080E090E00E94BB0D46C065E778
:1017500072E0CE0101960E94D113BE016F5F7F4FF0
:10176000C8010E949D126C01CE0101960E946F1368
:10177000D7FC19C0B7018CE792E00E94561564EEC1
:1017800071E08CE792E00E9479158DE692E00E946C
:101790006A0D68EE73E080E090E00E94DD06E0E014
:1017A000F0E009951AC065E672E0CE0101960E944C
:1017B000D113BE016F5F7F4FC8010E949D128C0143
:1017C000CE0101960E946F1317FD03C010920C0208
:1017D00004C085E592E00E946A0D26960FB6F89443
:1017E000DEBF0FBECDBFDF91CF911F910F91FF9054
:1017F000EF90DF90CF9008951F93CF93DF931F92C8
:10180000CDB7DEB7162F682F8AE049830E94710694
:10181000612F8EE00E9471064981642F8FE00F9046
:10182000DF91CF911F910C9471060F931F930E942B
:10183000170700912F021091300220913102309150
:1018400032029B01201B310B30932E0220932D027C
:1018500060932F0270933002809331029093320292
:1018600080912D0290912E02803F9B403CF0809110
:101870002D0290912E028E3F9B408CF080912D0284
:1018800090912E02883593406CF080912D029091BA
:101890002E028636934034F481E090E05BC082E013
:1018A00090E058C080912D0290912E028F3591408A
:1018B00044F080912D0290912E02823791400CF4D9
:1018C00047C080910A0290910B020197E1F42091A8
:1018D0002B0230912C0281E090E0232B11F080E06C
:1018E00090E090932C0280932B0280912B02909198
:1018F0002C0240E0892B19F460E081E002C061E035
:1019000080E00E94FC0B80910A0290910B020297EA
:1019100031F520912B0230912C0281E090E0232BB5
:1019200011F080E090E090932C0280932B02809144
:101930002B0290912C02892B21F440E060E081E0A1
:1019400003C041E060E080E01F910F910C94FC0B1C
:1019500083E090E090930B0280930A02B2CF1F9134
:101960000F910895EF92FF920F931F93CF93DF9300
:101970001F92CDB7DEB77C01FC0100811181C80147
:1019800069830E94832F6981681719F0C8010E943A
:101990008B2FC7010F90DF91CF911F910F91FF9077
:1019A000EF900895EF92FF920F931F93CF93DF93E1
:1019B00000D0CDB7DEB78C017B01FB0160819A833B
:1019C0008983CE0101960E94B20CF70161810F5FFD
:1019D0001F4F1A830983CE0101960E94B20CC701E2
:1019E0000F900F90DF91CF911F910F91FF90EF908B
:1019F0000895CF93DF9300D0CDB7DEB7BE016F5F00
:101A00007F4F80EA90E00E94590B89819A8101966C
:101A10009A838983BE016F5F7F4F80EA90E00E94C6
:101A2000D20C0F900F90DF91CF910895FC0124818B
:101A30003581FB01448155812417350721F5FC01CF
:101A400080819181FB0160817181009719F061159E
:101A50007105A1F46115710549F0232BB1F0FB016B
:101A6000808190E09195819591090AC0009769F075
:101A7000232B59F0FC01808190E002C00E941A28BB
:101A800021E0892B19F020E001C021E081E08227CC
:101A900008950F931F93CF93DF938C01C0E0D0E0A4
:101AA000F801EC0FFD1F6491662371F0E0917C0258
:101AB000F0917D020190F081E02D8CE792E0099594
:101AC000892B11F02196ECCFCE01DF91CF911F91A0
:101AD0000F910895CF93DF930E94490DEC018CE79D
:101AE00092E00E940E158C0F9D1FDF91CF910895FB
:101AF0008F929F92AF92BF920F931F93CF93DF93DA
:101B0000CDB7DEB7A1970FB6F894DEBF0FBECDBF3D
:101B100019A2423008F44AE08E010F5D1F4F842E57
:101B2000912CA12CB12CA50194010E947C26E62FBA
:101B3000B901CA0101501109EA3014F4E05D01C095
:101B4000E95CD801EC93232B242B252B61F7B801FA
:101B50008CE792E00E946415A1960FB6F894DEBF60
:101B60000FBECDBFDF91CF911F910F91BF90AF906E
:101B70009F908F900895CF93DF934AE00E94780D55
:101B8000EC018CE792E00E940E158C0F9D1FDF91F7
:101B9000CF9108950F931F93CF93DF93C2E8D3E0C3
:101BA0008C0102581340C8018C0F9D1F0E94832F87
:101BB000899383E0C838D807B1F782E893E0DF91D2
:101BC000CF911F910F9108950F931F93CF93DF93A0
:101BD000C4E0D1E08C0104501140C8018C0F9D1F5E
:101BE0000E94832F899381E0C830D807B1F784E041
:101BF00091E0DF91CF911F910F910895EF92FF92A5
:101C00000F931F93CF93DF9300D0CDB7DEB704E0DF
:101C100011E0845091407C019701200F311FF801A1
:101C200061918F013A832983CE0101960E94B20C03
:101C3000F1E008301F0781F784E091E00F900F90EA
:101C4000DF91CF911F910F91FF90EF900895EF9248
:101C5000FF920F931F93CF93DF9300D0CDB7DEB7E2
:101C600007EF11E0875F91407C019701200F311F42
:101C7000F80161918F013A832983CE0101960E9478
:101C8000B20CF2E004301F0781F787EF91E00F906C
:101C90000F90DF91CF911F910F91FF90EF900895DA
:101CA0004F925F926F927F929F92AF92BF92CF922C
:101CB000DF92EF92FF920F931F93CF93DF93EC018C
:101CC0006B018A01892B81F082E794E00E94B505BF
:101CD000892B29F082E794E00E94CD05F5CFBE0163
:101CE00082E794E00E9412150E9417072B013C0125
:101CF000C0E089E1A82E86E0B82E9FE3992EE12C62
:101D0000F12C82E794E00E94B505892B89F182E7E6
:101D100094E00E94CD05CF3750F0E8ECF3E0A8E85E
:101D2000B3E0992D01900D929A95E1F7CFE3D1E0C0
:101D3000DC0FEC2FF0E0E857FC4F8083ED2FF0E054
:101D4000E857FC4F1082F5016591749182E394E0AD
:101D50000E94E9290115110519F462E374E001C03C
:101D6000B80188E893E00E943928892B89F4CD2FA7
:101D70000E941707DC01CB0184199509A609B70950
:101D80008C159D05AE05BF0508F4BBCF80E001C0F2
:101D90008D2FDF91CF911F910F91FF90EF90DF90EA
:101DA000CF90BF90AF909F907F906F905F904F903B
:101DB0000895CF93DF93BC018CE792E00E94561503
:101DC000EC018CE792E00E940E158C0F9D1FDF91B5
:101DD000CF910895CF93DF93FC0144815581411544
:101DE0005105D1F04230510518F461E070E002C0B5
:101DF00062E070E0EC0188819981461B570B5D839E
:101E00004C83680F791F0E942A28E881F9818C8110
:101E10009D81E80FF91F1082DF91CF910895FF9205
:101E20000F931F93CF93DF938C01EB018FE3F82E79
:101E300082E794E00E94B505892B99F182E794E04E
:101E40000E94CD0590910F049F3758F0F0920F0437
:101E5000E8ECF3E0A8E8B3E09F2D01900D929A958D
:101E6000E1F7A0910F04E1E0EA0FE0930F04B0E086
:101E7000A857BC4F8C93F0E0E857FC4F1082B80194
:101E800088E893E00E943928892B11F5209781F288
:101E9000BE0188E893E00E943928892B49F282E04C
:101EA0001AC00E941707009110041091110420918C
:101EB000120430911304DC01CB01801B910BA20BA7
:101EC000B30B80319742A105B10520F083E003C038
:101ED00081E001C080E0DF91CF911F910F91FF90D1
:101EE0000895CF93DF9362E282E794E00E944F155A
:101EF000EC0182E794E00E940E158C0F9D1FDF918C
:101F0000CF9108950F931F93CF93DF938C01EB0133
:101F1000E9E2F6E06591749182E394E00E94E92998
:101F200062E374E082E794E00E947915B80182E7E9
:101F300094E00E94791588819981892BA1F50E94EE
:101F4000710F64EF71E080E090E00E94DD0640E0F8
:101F500050E060ED77E080E090E00E94500E882332
:101F6000F1F0EBE2F6E06591749182E394E00E9477
:101F7000E92962E374E082E794E00E94121582E0AE
:101F80008093080410920F040E94170760931004B6
:101F90007093110480931204909313040FC084E093
:101FA000809308040BC06FE382E794E00E944F1512
:101FB000BE0182E794E00E945615C1CF80E0DF9118
:101FC000CF911F910F910895CF93DF93EB01DC0127
:101FD0001596ED91FC911697138615861486DF01F0
:101FE0001B9633961E92AE17BF07E1F7BE01FC01A8
:101FF000858196810E946D08882349F067E0CE01B3
:102000000E94BB079F81891302C081E001C080E06C
:10201000DF91CF9108952F923F924F925F926F92EE
:102020007F928F929F92AF92BF92CF92DF92EF9268
:10203000FF920F931F93CF93DF9300D000D0CDB7C3
:10204000DEB7FC01448055804114510409F413C1EA
:10205000FB01648075806114710409F40CC17A017C
:102060006B019C838B83FA01A480B580A618B70806
:10207000FC0100811181A114B104C1F4F601608159
:102080007181C8010E9439285C01892B09F4F3C0D1
:10209000F7016081718144815581C5010E94F42757
:1020A000F701048115810A0D1B1DE8CFB7FE02C0A0
:1020B000480106C0FB01208031804201C80148C0B0
:1020C000F60160817181C4010E9439282C01892B9D
:1020D00029F1320168187908A301B401C8010E94EE
:1020E000F427060D171DF701608171814481558128
:1020F000C8010E94F427F70184819581080F191FF8
:10210000F60184809580840C951CEB81FC81848190
:1021100095818A0D9B1D95838483D2CFB401C8011C
:102120000F900F900F900F90DF91CF911F910F9113
:10213000FF90EF90DF90CF90BF90AF909F908F90E7
:102140007F906F905F904F903F902F900C9423283A
:10215000B1010E943928009729F0860D971D8A0C3D
:102160009B1CF6CF8414950409F485C0EB81FC8197
:10217000828193818815990578F4B4016F5F7F4F50
:10218000C8010E942527009709F475C0EB81FC81E6
:102190009183808393828282EB81FC81048115810B
:1021A0000150110917FD67C0F60124803580211404
:1021B000310409F460C0EB81FC8164807580611496
:1021C000710409F458C06214730408F454C006156D
:1021D000170518F0830101501109EB81FC81408043
:1021E0005180C20188248A94982C9201200F311FBB
:1021F0002817390758F0F6016081718129833A83E5
:102200000E94392829813A81009761F597FC33C0F3
:10221000280C391CC201820D931DA30142195309D8
:10222000BC018A0D9B1D0E94FD27EB81FC818481EE
:1022300095818A0D9B1D9583848320813181F901CD
:10224000E80FF91F1082EB81FC8180819181F701F9
:102250006081718144815581880D991D0E94F42708
:1022600084019ECFAC01441955090417150708F0E5
:102270004A010196BDCF0F900F900F900F90DF9104
:10228000CF911F910F91FF90EF90DF90CF90BF9073
:10229000AF909F908F907F906F905F904F903F9006
:1022A0002F9008950F931F93CF93DF93EC018881B4
:1022B0009981009729F02A813B812617370788F4F6
:1022C0008B016F5F7F4F0E942527009761F09983F4
:1022D00088831B830A832C813D81232B11F4FC010D
:1022E000108281E001C080E0DF91CF911F910F91BA
:1022F0000895CF93DF93EC0188819981009711F0C5
:102300000E940829198218821D821C821B821A824F
:10231000DF91CF910895EF92FF920F931F93CF9388
:10232000DF93EC017B018A01BA010E9452118111F5
:1023300004C0CE010E94791107C01D830C83B70130
:10234000888199810E942328CE01DF91CF911F912E
:102350000F91FF90EF9008950F931F93CF93DF930A
:10236000CDB7DEB761970FB6F894DEBF0FBECDBF15
:102370008C01BE01665F7F4F0E94E40F811105C092
:1023800060E070E08EEF92EC4BC0AE014F5F5F4FAC
:10239000BE01665F7F4FC8010E94BA09882359F1C8
:1023A000698148E0649FB00111248A81282F30E0C0
:1023B000322F2227330F330F330F262B372B8A85EB
:1023C0008031E1F4688570E08F81AB01481B5109D1
:1023D000CA019695982F8827979587950E94682619
:1023E00060517109207F53E0220F331F5A95E1F7A6
:1023F000620F731F04C060E874EE01C0B901613858
:1024000054EE75070CF4BCCF072E000C880B990B0B
:102410000E94632E20E030E040E05CE30E94C22E88
:1024200061960FB6F894DEBF0FBECDBFDF91CF919E
:102430001F910F910895DF92EF92FF920F931F93D8
:10244000CF93DF93CDB7DEB729970FB6F894DEBFF1
:102450000FBECDBF8C017B01AE014F5F5F4F0E946D
:10246000BA09D82E882309F459C0F7018081803138
:1024700009F454C08FE78D83F801858196810E940D
:102480003708B701F801858196810E940A0840E06B
:102490006EE4F801858196810E94C80740E06B8157
:1024A000F801858196810E94C80740E06C81F8019F
:1024B000858196810E94C807F7018081803139F0BB
:1024C00040E06D81F801858196810E94C807F8017E
:1024D000858196810E943708B701F8018581968130
:1024E0000E940A08F801408168E4858196810E9473
:1024F000C80764E170E080E090E00E94DD06F8012A
:102500008081882331F06AE070E080E090E00E94F2
:10251000DD06F801858196810E9437088D2D299668
:102520000FB6F894DEBF0FBECDBFDF91CF911F91E4
:102530000F91FF90EF90DF900895CF93DF93FC0110
:1025400024813581232B71F0FB01DC01CD91DC91DD
:1025500060817181CE010E943928009719F08C1B8F
:102560009D0B02C08FEF9FEFDF91CF910895FC018B
:10257000248135816217730720F48081918100974F
:1025800029F410929D048DE994E00895860F971F19
:102590000895EF92FF920F931F93CF93DF93FC0167
:1025A000248135816115710511F480E019C0411550
:1025B0005105A9F07B01EC018A01020F131FB8013C
:1025C0000E945211882389F3288139818C819D8151
:1025D000B701820F931F0E9423281D830C8381E083
:1025E000DF91CF911F910F91FF90EF9008950F937E
:1025F0001F93CF93DF9300D0CDB7DEB78C016983F3
:102600001A8241E050E0BE016F5F7F4F0E94C91205
:10261000811103C0C8010E947911C8010F900F9069
:10262000DF91CF911F910F910895CF93DF93EC012C
:102630006115710561F0FB0101900020E9F7319708
:10264000AF01461B570B0E94C912811103C0CE0176
:102650000E947911CE01DF91CF910895CF93DF933E
:10266000EC01FB0144815581608171810E94C91296
:10267000811103C0CE010E947911CE01DF91CF916B
:102680000895CF93DF93EC016115710559F0FB01BB
:1026900001900020E9F73197AF01461B570B0E94CC
:1026A0008B1102C00E947911CE01DF91CF91089564
:1026B000CF93DF93EC01FB018617970761F06081F0
:1026C00071816115710529F0448155810E948B113A
:1026D00002C00E947911CE01DF91CF910895FC01D3
:1026E000808191810C940829EF92FF920F931F93A0
:1026F000CF93DF93CDB7DEB7A1970FB6F894DEBFC7
:102700000FBECDBF7C01CB01BA01F701118210824F
:10271000138212821582148242E0420F8E010F5FF3
:102720001F4F0E945328BC01C7010E944113A1966C
:102730000FB6F894DEBF0FBECDBFDF91CF911F91D2
:102740000F91FF90EF9008950F931F93CF93DF9316
:10275000CDB7DEB729970FB6F894DEBF0FBECDBF59
:102760008C01862FF8011182108213821282158249
:10277000148250E0BE016F5F7F4F90E00E94432AB9
:10278000BE016F5F7F4FC8010E94411329960FB6AB
:10279000F894DEBF0FBECDBFDF91CF911F910F9197
:1027A0000895EF92FF920F931F93CF93DF93EC0165
:1027B000198218821B821A821D821C826115710582
:1027C00009F18B01CB010E94F0297C01BC01CE01F3
:1027D0000E945211811109C0CE01DF91CF911F914A
:1027E0000F91FF90EF900C947911FD82EC82B8016B
:1027F00088819981DF91CF911F910F91FF90EF9088
:102800000C94E929DF91CF911F910F91FF90EF90E8
:102810000895FC01118210821382128215821482A3
:102820000C945813FC0111821082138212821582BB
:1028300014826115710551F0FB0101900020E9F748
:102840003197AF01461B570B0C948B1108958F9253
:102850009F92AF92BF92CF92DF92EF92FF920F932F
:102860001F93CF93DF93CDB7DEB72C970FB6F894B5
:10287000DEBF0FBECDBF7C016EED71E0CE010196D3
:102880000E94121464E072E0CE0107960E941214B6
:10289000AE014F5F5F4FBE01695F7F4FC7010E946E
:1028A0000B10CE0107960E946F13CE0101960E9475
:1028B0006F136EED71E0CE0101960E94121460EE6E
:1028C00071E0CE0107960E941214AE014F5F5F4F78
:1028D000BE01695F7F4FC7010E940B10CE010796B2
:1028E0000E946F13CE0101960E946F136EED71E08E
:1028F000CE0101960E9412146DED71E0CE01079693
:102900000E941214AE014F5F5F4FBE01695F7F4F9F
:10291000C7010E940B10CE0107960E946F13CE01D3
:1029200001960E946F136EED71E0CE0101960E9438
:1029300012146FE471E0CE0107960E941214AE01EA
:102940004F5F5F4FBE01695F7F4FC7010E940B1051
:10295000CE0107960E946F13CE0101960E946F135D
:10296000D701CD90DC901197C114D10409F443C074
:1029700014960D911C91159701151105E1F1460171
:102980005401BFEF8B1A9B0AF5018081082E000CC1
:10299000990B0E942B2E892B99F7015011090C0DD0
:1029A0001D1DD8018C91082E000C990B0E942B2E16
:1029B000892B81F4A8014F5F5F4F4A195B09F7012A
:1029C00055834483CA14DB0458F4B501C6010E9440
:1029D000F42706C00A151B0568F301501109E1CF61
:1029E000D701ED91FC91119714968D919C911597BB
:1029F000E80FF91F10822C960FB6F894DEBF0FBEB9
:102A0000CDBFDF91CF911F910F91FF90EF90DF909D
:102A1000CF90BF90AF909F908F9008956CED71E034
:102A20000C9464150F931F93CF93DF93EC010E94D6
:102A300064158C01CE010E940E15800F911FDF914D
:102A4000CF911F910F910895CF92DF92EF92FF9255
:102A50000F931F93CF93DF936C017A018B01C0E03A
:102A6000D0E0CE15DF0589F0D8016D918D01D6013A
:102A7000ED91FC910190F081E02DC6010995892B23
:102A800011F47E0102C02196ECCFC701DF91CF91F6
:102A90001F910F91FF90EF90DF90CF900895DC0190
:102AA000ED91FC910190F081E02D0994DC01ED9114
:102AB000FC91DB0114964D915C9115976D917C9181
:102AC0000280F381E02D09946115710579F0FB0115
:102AD00001900020E9F73197AF01461B570BDC014D
:102AE000ED91FC910280F381E02D099480E090E06B
:102AF00008950C946415CF93DF93CDB7DEB7C1581A
:102B0000D1090FB6F894DEBF0FBECDBF789484B55F
:102B1000826084BD84B5816084BD85B5826085BDD9
:102B200085B5816085BD80916E00816080936E0067
:102B30001092810080918100826080938100809159
:102B4000810081608093810080918000816080930A
:102B500080008091B10084608093B1008091B000CA
:102B600081608093B00080917A00846080937A00C5
:102B700080917A00826080937A0080917A008160EF
:102B800080937A0080917A00806880937A00109216
:102B9000C100E0918C02F0918D0282E08083E0918F
:102BA0008802F09189021082E0918A02F0918B02F2
:102BB00087E6808310929402E0919002F091910256
:102BC00086E08083E0918E02F0918F0280818061A7
:102BD0008083E0918E02F0918F02808188608083F3
:102BE000E0918E02F0918F02808180688083E09175
:102BF0008E02F0918F0280818F7D808381E591E04C
:102C00000E946A0D61E086E00E94A10661E08DE00D
:102C10000E94A10661E085E00E94A10661E08AE0D1
:102C20000E94A10661E08FE00E94A10661E08EE0B3
:102C30000E94A10660E083E00E94A10660E089E0B6
:102C40000E94A10640E060E081E00E94FC0B6CE283
:102C500071E080E090E00E94DD0640E061E080E00D
:102C60000E94FC0B6CE271E080E090E00E94DD06C7
:102C700041E060E080E00E94FC0B6CE271E080E0EB
:102C800090E00E94DD0640E060E081E00E94FC0BE5
:102C90008EE693E0909345038093440310924303A0
:102CA00010923F0399E09093400381E080934103A9
:102CB0008093420320E633E03093320320933103C4
:102CC0001092300310922C0390932D0380932E03C7
:102CD00080932F0322E533E030931F0320931E03DC
:102CE00010921D031092190390931A0380931B03F3
:102CF00080931C038FE393E00E941B0A8CE293E015
:102D00000E941B0A89E193E00E941B0ABE016F5FCB
:102D10007F4F8FE393E00E94E40F882339F0BE01D8
:102D20006F5F7F4F8FE393E00E941B12BE016F5FC6
:102D30007F4F8CE293E00E94E40F882339F0BE01BC
:102D40006F5F7F4F8CE293E00E941B12BE016F5FAA
:102D50007F4F89E193E00E94E40F882339F0BE01A0
:102D60006F5F7F4F8CE293E00E941B1285E19CE035
:102D70009093030180930201809169008C6080939D
:102D80006900E99A66E5462E66E0562E7DECC72E70
:102D9000D12C45E5642E712C5BECE52EF12C87ECF3
:102DA00090E00E946A0D60E086E00E94710660E09B
:102DB0008DE00E94710661E085E00E94710660ED81
:102DC00077E080E090E00E94DD0661E08DE00E9407
:102DD000710660E085E00E9471066CED75E080E0B0
:102DE00090E00E94DD0661E086E00E94710668EED8
:102DF00073E080E090E00E94DD0660E086E00E94E3
:102E00007106E1E7F0E08491EAE6F6E00491F20170
:102E100014911123B1F381110E944806E12FF0E0D3
:102E2000EE0FFF1FED5BF94FA591B4918C91082334
:102E300041F360ED77E080E090E00E94DD0687EBF3
:102E400090E00E946A0D80E9A82EB12C33243394BF
:102E500092E7892E94E0992E10928D0410928C04A2
:102E600010928B0410928A041092890410928804A4
:102E7000D0928F04C0928E0480917E04863108F037
:102E800053C07092890460928804F0928B04E0929F
:102E90008A04B0928D04A0928C04909168008830CE
:102EA00058F021E08E3008F420E0F32D01C0FF0F30
:102EB0002A95EAF72F2F01C024E0922B9093680007
:102EC000883038F08E3040F0863148F020E030E035
:102ED00008C02DE630E005C02BE630E002C02CE64D
:102EE00030E03093860420938504883038F4232D15
:102EF00001C0220F8A95EAF7822F0EC0282F30E0FA
:102F00008E3018F42850310902C02E503109832D1B
:102F100001C0880F2A95EAF78093870480918E0478
:102F200090918F040197F1F780918C0490918D041A
:102F3000892B39F1E0917004F091710434E0E237AB
:102F4000F307F9F0309739F0A389B4899C9185890A
:102F5000809589238C93809190048E7F8093900438
:102F600010920902109208029092710480927004EB
:102F7000E0918504F0918604908180918704892BEB
:102F800080830EE010E082E794E00E94B505892B73
:102F900029F082E794E00E94CD05F5CF40E050E0B3
:102FA00060ED77E084E391E00E94500E811133C020
:102FB00064EF71E080E090E00E94DD0601501109AD
:102FC00011F740E050E060ED77E084E391E00E948B
:102FD000500E64E670E080E090E00E94DD0640E084
:102FE00050E060ED77E084E391E00E94500E64E6EB
:102FF00070E080E090E00E94DD0640E050E060ED8F
:1030000077E084E391E00E94500E64E670E080E097
:1030100090E00E94DD0640E050E060ED77E084E360
:1030200091E00E94500E811106C06EE28CE792E0A2
:103030000E945A0411CFEBEDF5E06591749182E3A3
:1030400094E00E94E92940E050E060ED77E082E3FF
:1030500094E00E94500E64E670E080E090E00E94F0
:10306000DD06E9EDF5E06591749182E394E00E945C
:10307000E92940E050E060ED77E082E394E00E94CF
:10308000500E64E670E080E090E00E94DD06EDED19
:10309000F5E06591749182E394E00E94E92940E0B3
:1030A00050E060ED77E082E394E00E94500E64E629
:1030B00070E080E090E00E94DD06EFEDF5E06591C4
:1030C000749182E394E00E94E92940E050E060EDD1
:1030D00077E082E394E00E94500E64E670E080E0C6
:1030E00090E00E94DD06E1EEF5E06591749182E3E7
:1030F00094E00E94E92940E050E060ED77E082E34F
:1031000094E00E94500E64E670E080E090E00E943F
:10311000DD06E3EEF5E06591749182E394E00E94B0
:10312000E92940E050E060ED77E082E394E00E941E
:10313000500E64E670E080E090E00E94DD06E5EE6F
:10314000F5E06591749182E394E00E94E92940E002
:1031500050E060ED77E082E394E00E94500E64E678
:1031600070E080E090E00E94DD0640E050E060ED1D
:1031700077E087E391E00E94500E64E670E080E023
:1031800090E00E94DD0684EB90E00E946A0D809141
:103190000A0290910B02029739F068EE73E080E02A
:1031A00090E00E94DD06F3CF8EE990E00E94490D89
:1031B000E5E1F6E06591749182E394E00E94E929EB
:1031C00040E050E060ED77E082E394E00E94500E32
:1031D00068EE73E080E090E00E94DD0687E990E011
:1031E0000E94490D8CE793E00E9427148CE793E03E
:1031F0000E94D90E2EE1B22E07EE15E0F80165917E
:10320000749182E394E00E94E92940E050E060ED8F
:1032100077E082E394E00E94500E882389F16AE40B
:1032200071E088E893E00E943928009749F1FC0199
:1032300082818B7F813321F5E9EEF5E06591749110
:1032400082E394E00E94E92940E050E068EE73E0F8
:1032500082E394E00E94500EEBEEF5E065917491EC
:1032600082E394E00E94E92940E050E060ED77E0DD
:1032700082E394E00E94500E882309F490C20BC0B0
:1032800068EE73E080E090E00E94DD06BA94B11031
:10329000B5CF11E0A9C2EDEEF5E06591749182E33E
:1032A00094E00E94E92940E050E060ED77E082E39D
:1032B00094E00E94500E882309F473C2E7E1F6E01F
:1032C0006591749182E394E00E94E929EBE1F6E0D4
:1032D000659174918AE594E00E94E92982E394E083
:1032E000892B89F082E794E00E94B505892B29F0AB
:1032F00082E794E00E94CD05F5CF62E374E082E7B7
:1033000094E00E9412150E9417074B015C01312CBA
:103310000FE382E794E00E94B505892B79F182E7FB
:1033200094E00E94CD05FEE7F31558F4E8ECF3E0D5
:10333000A8E8B3E0902F01900D929A95E1F79FE3F2
:10334000392E11E0130DE32DF0E0E857FC4F808398
:10335000E12FF0E0E857FC4F10826DE471E088E85F
:1033600093E00E943928892BC1F46AE574E088E86B
:1033700093E00E943928892B49F5312E0E941707C6
:10338000DC01CB0188199909AA09BB09803D974046
:10339000A105B10508F4BDCF19C06FED71E088E853
:1033A00093E00E943928009789F08C010E5F1F4F2F
:1033B00062E270E0C8010E940F28009711F0FC0142
:1033C0001082B80188E893E00E94232868E873E03F
:1033D000CE0188960E941214CE0188960E9427146E
:1033E00001EF15E0F8016591749182E394E00E9489
:1033F000E92962E374E0CE0182960E941214BE01B4
:103400006E5D7F4FCE0188960E949D125C01CE01B9
:1034100082960E946F13B7FC34C08FEEA82E85E011
:10342000B82EF5016591749182E394E00E94E92938
:1034300062E374E084E194E00E944113E3EFF5E07D
:103440006591749182E394E00E94E92962E374E05B
:103450008AE194E00E94411362E374E080E294E028
:103460000E944113F5016591749182E394E00E94FA
:10347000E92962E374E086E294E00E944113F801D6
:103480003EC061E571E0CE0182960E941214BE0139
:103490006E5D7F4FCE0188960E949D128C01CE01F9
:1034A00082960E946F1317FD31C0E7EFF5E065913A
:1034B00074918AE594E00E94E9296AE574E084E168
:1034C00094E00E944113E9EFF5E06591749182E385
:1034D00094E00E94E92962E374E08AE194E00E94AA
:1034E000411362E374E080E294E00E9441136AE5D4
:1034F00074E086E294E00E944113E5EFF5E0659107
:10350000749182E394E00E94E92977C069E571E053
:10351000CE0182960E941214BE016E5D7F4FCE01D5
:1035200088960E949D128C01CE0182960E946F1394
:1035300017FD27C0EBEFF5E06591749182E394E00D
:103540000E94E929EDEFF5E0659174918AE594E038
:103550000E94E9296AE574E084E194E00E94411345
:103560006EED71E08AE194E00E9441136EED71E02E
:1035700080E294E00E9441136AE574E086E294E000
:103580003AC061E671E0CE0182960E941214BE013B
:103590006E5D7F4FCE0188960E949D128C01CE01F8
:1035A00082960E946F1317FD2EC0E1E0F6E0659150
:1035B000749182E394E00E94E929E3E0F6E06591EA
:1035C00074918AE594E00E94E9296AE574E084E157
:1035D00094E00E9441136EED71E08AE194E00E9454
:1035E00041136EED71E080E294E00E9441136AE5C0
:1035F00074E084E194E00E94411362E374E08CE79C
:1036000092E00E941215E5E0F6E06591749182E384
:1036100094E00E94E92962E374E082E794E00E946A
:10362000791564E174E082E794E00E9456150E94E7
:10363000710F40E050E060ED77E080E090E00E94A4
:10364000500E811102C014E0A3C0E7E0F6E06591DE
:10365000749182E394E00E94E92962E374E082E7D6
:1036600094E00E9479156AE174E082E794E00E9498
:1036700056150E94710F40E050E060ED77E080E069
:1036800090E00E94500E8823F1F2E9E0F6E06591A7
:10369000749182E394E00E94E92962E374E082E796
:1036A00094E00E94791560E274E082E794E00E9461
:1036B00056150E94710F40E050E060ED77E080E029
:1036C00090E00E94500E882309F4BDCFEBE0F6E0B5
:1036D0006591749182E394E00E94E92962E374E0C9
:1036E00082E794E00E94791566E274E082E794E054
:1036F0000E9456150E94710F40E050E060ED77E0A7
:1037000080E090E00E94500E882309F49CCFEDE009
:10371000F6E06591749182E394E00E94E92940E02B
:1037200050E060E177E282E394E00E94500EEFE027
:10373000F6E06591749182E394E00E94E92940E00B
:1037400050E060E177E282E394E00E94500EE1E114
:10375000F6E06591749182E394E00E94E92940E0EB
:1037600050E060ED77E082E394E00E94500EE3E1E8
:10377000F6E06591749182E394E00E94E92940E0CB
:1037800050E060ED77E082E394E00E94500E10E09C
:10379000CE0188960E946F13111126C004C012E05A
:1037A00023C013E021C080910A0290910B0203977D
:1037B00039F062E370E080E090E00E94DD06F3CF34
:1037C00040E061E080E00E94FC0B8EE491E00E940A
:1037D0006A0D01E216E0A3E2EA2EA6E0FA2EBFE1AE
:1037E000CB2EB6E0DB2E8CC067E671E08CE792E072
:1037F0000E947915612F70E080E090E04AE00E941D
:10380000780D8CE792E00E940E1568E873E08CE773
:1038100092E00E94121560ED77E080E090E00E9457
:10382000DD061450123008F0BACA40E060E081E0D2
:103830000E94FC0B8CE790E00E94490D68EE73E05B
:1038400080E090E00E94DD06E0E0F0E00995A1CA8A
:1038500040E050E068E873E18AE594E00E94500E91
:10386000811168C01092080462EE71E08CE792E06A
:103870000E94791568E873E08CE792E00E941215C7
:1038800068E873E0CE0188960E94121468E471E043
:10389000CE0182960E94D113BE016E5D7F4FCE0194
:1038A00088960E949D125C01CE0182960E946F1341
:1038B000B7FC0DC080E391E00E94490D68EE73E013
:1038C00080E090E00E94DD06E0E0F0E00995F6017E
:1038D0006591749182E394E00E94E92940E050E010
:1038E00060ED77E082E394E00E94500E68EE73E0B2
:1038F00080E090E00E94DD06CE0188960E946F1362
:10390000F8016591749182E394E00E94E929F7013E
:10391000659174918AE594E00E94E92940E050E0C5
:1039200060E177E282E394E00E94500E882309F47C
:1039300099CF8ECF81E08093080480E090E00E94D0
:10394000832F8F3169F18DE191E00E946A0D00E0D3
:1039500010E060E0C8010E946D0B0F5F1F4F0F3F2A
:10396000F3E01F07B1F76FE180E090E00E946D0B7C
:1039700088EC90E00E94FE0D84E690E00E94270E05
:1039800088E790E00E94270E8CE890E00E94270EC6
:103990008CED90E00E94270E8CE091E00E946A0D71
:1039A00063E771E082E893E00E944113F2E8EF2EB2
:1039B000F3E0FF2E0CED10E0F70161917F011BA3F6
:1039C0000AA3CE0182960E94B20C0F5F1F4F023EE7
:1039D000110591F788EC90E00E94E40D8CED90E0E9
:1039E0000E94CA0D8EEF90E00E94490D6091040183
:1039F0007091050180910601909107010E94BB0D15
:103A000082E893E00E94D90E8CEE90E00E946A0D4D
:103A10000E9417076093230270932402809325026B
:103A20009093260268EB7BE080E090E00E94DD0648
:103A30008E010F5F1F4F82E794E00E94B505892B2E
:103A400009F4BEC064E670E080E090E00E94DD060C
:103A500082E794E00E94B505892BB1F082E794E0FB
:103A60000E94CD0580936E0490936F0489831A821F
:103A700041E050E0B80189E094E00E94C9126AE098
:103A800070E080E090E0E2CF89E094E00E94D90EFF
:103A900080E592E00E94490D89E094E00E94D90EF1
:103AA0006BE472E0C8010E94D113B80189E094E090
:103AB0000E949D127C01C8010E946F13F7FC7AC01E
:103AC000B80188E790E00E94330BB801CE01CA9696
:103AD0000E941214B8018CE890E00E94330BB801E8
:103AE000CE01C4960E941214B8018CED90E00E94A1
:103AF000330BB801CE018E960E941214BE01665C93
:103B00007F4F89E094E00E949D1297FD08C08DE3ED
:103B100092E00E946A0DBE01665C7F4F10C0BE013C
:103B20006C5C7F4F89E094E00E949D1297FD21C05C
:103B30008FE292E00E946A0DBE016C5C7F4FCE0165
:103B400082960E94091469E074E0CE0188960E9472
:103B50000914BE016E5D7F4FCE0188960E946F0BE7
:103B6000CE0188960E946F13CE0182960E946F1339
:103B700015C0BE01625D7F4F89E094E00E949D12F6
:103B800097FD08C085E292E00E946A0DBE01625D69
:103B90007F4FD5CF87E192E00E946A0DCE018E96CD
:103BA0000E946F13CE01C4960E946F13CE01CA9675
:103BB0000E946F136EED71E089E094E00E94411362
:103BC0000E9417076B017C0180910C02811104C0D7
:103BD00088EC90E00E94E40D8091270290912802E9
:103BE000A0912902B0912A0246015701881A990A28
:103BF000AA0ABB0A209104013091050140910601F7
:103C000050910701A8EEB3E00E94992F86169706FF
:103C1000A806B90608F4C5C689E092E00E94490DDD
:103C20008091270290912802A0912902B0912A0246
:103C3000A7019601281B390B4A0B5B0BCA01B9017E
:103C400028EE33E040E050E00E947C26CA01B90132
:103C50000E94BB0D41E060E080E00E94FC0BC0923E
:103C60002702D0922802E0922902F0922A0284EFE1
:103C700091E00E946A0D8FE393E00E948B098CE231
:103C800093E00E948B0989E193E00E948B098FE306
:103C900093E00E94AC116B017C018CE293E00E94E6
:103CA000AC112B013C0189E193E00E94AC114B0166
:103CB0005C01A3019201C701B6010E94B926A501CA
:103CC00094010E94B9262FE832EC41EB52E40E94A5
:103CD000B926C258DF4F688379838A839B83CE5786
:103CE000D040E9EEF5E06591749182E394E00E94A2
:103CF000E92940E050E060ED77E082E394E00E9443
:103D0000500E6AE771E088E893E00E943928009736
:103D100069F005960E94A4298336910539F08F3FFA
:103D20003FEF930719F0382E292E02C0312C212C99
:103D3000EE961FAE1EAEEE97BE0164587F4F80EA2E
:103D400090E00E94590B22E0C258DF4F4881598110
:103D50006A817B81CE57D040CE01845B9F4F0E9409
:103D60007413B80184E690E00E94330BB801CE01D1
:103D70008A5B9F4F0E941214CE018A5B9F4F0E9464
:103D8000D90EB80188E790E00E94330BB801CE014C
:103D9000805C9F4F0E941214CE01805C9F4F0E9456
:103DA000D90EB8018CE890E00E94330BB801CE0127
:103DB000CA960E941214CE01CA960E94D90E8CEDAA
:103DC00090E00E94CA0D6FE771E0CE0182960E94DA
:103DD0001214BE016A5B7F4FCE0182960E942E13A1
:103DE000BC01CE01C4960E940914CE0182960E94A5
:103DF0006F1366E871E0CE0182960E941214BE0134
:103E0000605C7F4FCE0182960E942E13BC01CE01D2
:103E10008E960E940914CE0182960E946F136CE860
:103E200071E0CE0182960E941214BE01665C7F4F43
:103E3000CE0182960E942E13BC01CE0188960E946C
:103E40000914CE0182960E946F1362E971E0CE01DF
:103E500082960E941214BE016A5B7F4FCE01829649
:103E60000E942E1362E971E00E941513BE01605C8E
:103E70007F4F0E942E1362E971E00E941513BE016C
:103E8000665C7F4F0E942E1362E971E00E94151359
:103E900062E873E00E942E13BC01CE018E5A9F4F40
:103EA0000E940914CE0182960E946F13CE0188965B
:103EB0000E946F13CE018E960E946F13CE01C4969E
:103EC0000E946F13CE01CA960E946F13CE01805CD0
:103ED0009F4F0E946F13CE018A5B9F4F0E946F130A
:103EE000EE968EAD9FADEE976A961FAE1EAE6A97A8
:103EF0006C961FAE1EAE6C976E961FAE1EAE6E9782
:103F00004AE0B8010E94F929B801CE01885A9F4FB2
:103F10000E94411360911F02709120028091210242
:103F200090912202A0961FAE1EAEA097A2961FAE41
:103F30001EAEA297A4961FAE1EAEA4972AE0A801BB
:103F40000E94212AB801CE01825A9F4F0E9441133C
:103F5000A6961FAE1EAEA697A8961FAE1EAEA89739
:103F6000AA961FAE1EAEAA974AE0B801832D922DE5
:103F70000E94F929B801CE018C599F4F0E9441132C
:103F800022E0B501A401CE0186599F4F0E9474130F
:103F900022E0B301A201CE0180599F4F0E94741309
:103FA00022E0B701A601CE018A589F4F0E947413E8
:103FB00064E971E0CE018A5B9F4F0E941214EDE12B
:103FC000F6E06591749182E394E00E94E92940E073
:103FD00050E060E177E282E394E00E94500E882393
:103FE00009F4FBC06AE370E088E893E00E940F28C0
:103FF000009709F4F2C06CE270E00E940F2800976D
:1040000009F4EBC07C014FEFE41AF40AC7010E94E7
:10401000A0296CE270E0C7010E940F28009709F404
:10402000DCC07C015FEFE51AF50AC7010E94A029F8
:104030006CE270E0C7010E940F28009709F4CDC020
:104040006C01EFEFCE1ADE0AC6010E94A429F82EF9
:104050006FE270E0C6010E940F28009709F4BDC00E
:104060006C01FFEFCF1ADF0AC6010E94A429E82ED7
:104070006FE270E0C6010E940F28009709F4ADC0FE
:104080005C012FEFA21AB20AC5010E94A429D82E02
:104090006CE270E0C5010E940F28009709F49DC0F2
:1040A0005C013FEFA31AB30AC5010E94A429C82EE0
:1040B0006AE370E0C5010E940F28009709F48DC0E3
:1040C0004C014FEF841A940AC4010E94A429B82E0F
:1040D0006AE370E0C4010E940F28009709F47DC0D4
:1040E00001960E94A4294AE0682FC8010E94A413E7
:1040F0004AE06B2DCE0182960E94A4134AE06C2DFB
:10410000CE0188960E94A4134AE06D2DCE018E96B2
:104110000E94A4134AE06E2DCE01C4960E94A413FF
:1041200060E36F0D4AE0CE01805C9F4F0E94A413B4
:10413000BE01605C7F4FCE01CA960E9409146FE2F7
:10414000CE01CA960E94F712BE016C5C7F4F0E949E
:104150002E136FE20E94F712BE01625D7F4F0E9434
:104160002E136CE20E94F712BE01685D7F4F0E9421
:104170002E136AE30E94F712BE016E5D7F4F0E940C
:104180002E136AE30E94F712B8010E942E1365EA0B
:1041900071E00E941513BC01CE018A5B9F4F0E9403
:1041A0005813CE01CA960E946F13CE01805C9F4FB8
:1041B0000E946F13CE01C4960E946F13CE018E969B
:1041C0000E946F13CE0188960E946F13CE018296D3
:1041D0000E946F13C8010E946F1369EA71E0C80161
:1041E0000E9412146CE773E0C8010E942E1362E96A
:1041F00071E00E941513BE016A5B7F4F0E942E136F
:10420000BC01CE0182960E940914C8010E946F135E
:10421000CE018A5B9F4F0E946F13BE016E5D7F4F80
:10422000C8010E94091462E971E0C8010E941513D7
:10423000BE016A587F4F0E942E1362E971E00E940E
:104240001513BE0160597F4F0E942E1362E971E081
:104250000E941513BE0166597F4F0E942E1362E91A
:1042600071E00E941513BE016C597F4F0E942E13FE
:1042700062E971E00E941513BE01625A7F4F0E94ED
:104280002E1362E971E00E941513BE01685A7F4F38
:104290000E942E13BE016E5A7F4F0E942E1362E9B8
:1042A00071E00E941513BE01645B7F4F0E942E13C4
:1042B000BC01CE01C4960E940914C8010E946F136C
:1042C000CE0182960E946F13CE018A589F4F0E94A2
:1042D0006F13CE0180599F4F0E946F13CE018659F4
:1042E0009F4F0E946F13CE018C599F4F0E946F13F6
:1042F000CE01825A9F4F0E946F13CE01885A9F4F62
:104300000E946F13CE018E5A9F4F0E946F13CE01F1
:10431000845B9F4F0E946F1384EE91E00E946A0DB0
:1043200068AD79AD80E090E04AE00E94780D8CE7BE
:1043300092E00E940E1568EB7BE080E090E00E9426
:10434000DD06BE016C5C7F4FCE018E960E94091483
:1043500088ED91E00E94490D6DEA71E08CE792E0F2
:104360000E9479156FE38CE792E00E944F15CE0111
:104370008E960E94D90EBE01625D7F4FC8010E94D9
:104380000914B8018DEA91E00E94820FC8010E94D1
:104390006F1380911B0290911C02A0911D02B0919D
:1043A0001E020196A11DB11D80931B0290931C0259
:1043B000A0931D02B0931E020297A105B10518F04B
:1043C00081E080931A026DE2E62E66E0F62E7FE22F
:1043D000C72E76E0D72EF7016591749182E394E0C1
:1043E0000E94E929F601659174918AE594E00E94A2
:1043F000E9296AE574E082E394E00E940F0F8230BD
:1044000020F084E08093080419C0811117C06EE287
:104410008CE792E00E945A04EAE1BE2EBA94BB20D7
:10442000D1F282E794E00E94B505892BA1F66AE0FB
:1044300070E080E090E00E94DD06F0CF80910804FB
:10444000843079F58AEC91E00E946A0D80911F0218
:1044500090912002A0912102B09122020196A11D0B
:10446000B11D80931F0290932002A0932102B0936C
:1044700022020E94F90C80911F0290912002A091CB
:104480002102B09122024597A105B10518F0E0E0A4
:10449000F0E0099568EB7BE080E090E00E94DD06AB
:1044A00047C28CE792E00E940E15E1E3F6E06591C9
:1044B000749182E394E00E94E92962E374E082E768
:1044C00094E00E94121583E08093080410920F0478
:1044D0000E941707609310047093110480931204D4
:1044E00090931304E3E3F6E06591749182E394E022
:1044F0000E94E929E5E3F6E0659174918AE594E08C
:104500000E94E9296AE574E082E394E00E940F0FBB
:10451000813041F710920F044CED51E064E670E0F9
:1045200080E090E00E94500E88E893E00E94A42969
:104530007C0140E050E060ED77E080E090E00E9498
:10454000500EFFE7EF16F10418F05FE7E52EF12CAF
:10455000F701E857FC4F1082EF2809F4C3CF809190
:104560000804843039F580911F0290912002A091B7
:104570002102B09122020196A11DB11D80931F025C
:1045800090932002A0932102B09322020E94F90C82
:1045900080911F0290912002A0912102B0912202ED
:1045A0004597A105B10508F475CF82EA91E00E9414
:1045B0006A0D6DCF87E991E00E94490D68E873E0CC
:1045C0008CE792E00E94121568E873E0CE018896AD
:1045D0000E9412146EED71E0CE0182960E941214B8
:1045E0008CA59DA50097D9F0029720F042E0E42E1B
:1045F000F12C03C0EE24E394F12CE8A5F9A5EE0D0F
:10460000FF1DD080108268A579A5CE0182960E94F8
:10461000411388A599A5FC01EE0DFF1DD0828AA14A
:104620009BA1009719F00E94C22903C060E070E0CE
:10463000CB016130710509F067C06EED71E0C80112
:104640000E941214ECA4FDA4F3E0EF16F104D0F0E4
:104650002AE0E216F10418F02AE0E22EF12CE8A597
:10466000F9A5EE0DFF1DD080108268A579A56E5FBB
:104670007F4FC8010E94411388A599A5FC01EE0D4A
:10468000FF1DD08289819A81009729F00E94C2295A
:104690006B017C0103C0C12CD12C7601C701B6018E
:1046A0000E94BB0DD701C6010B97A109B10986373E
:1046B0009145A140B105E8F4809104019091050174
:1046C000A0910601B0910701C816D906EA06FB06BB
:1046D00081F080910C0281110CC0C0920401D09233
:1046E0000501E0920601F092070188EC90E00E943B
:1046F000FE0D609104017091050180910601909179
:1047000007010E94BB0DBFC06230710589F5CE0163
:1047100088960E94EA0E6DE072E084E690E00E94C6
:10472000330B6DE072E0C8010E941214B801CE0193
:1047300088960E94160D882309F4A5C08CE891E0A4
:104740000E946A0DE12CF12CB701CE0188960E94DF
:10475000B712FC016081C7018C599F4F0E946D0BFD
:10476000FFEFEF1AFF0A2DE0E216F10469F78BC0A4
:104770006330710589F5CE0188960E94EA0E6DE0DE
:1047800072E088E790E00E94330B6DE072E0C801B0
:104790000E941214B801CE0188960E94160D88233B
:1047A00009F471C081E891E00E946A0DE12CF12CBE
:1047B000B701CE0188960E94B712FC016081C70143
:1047C00088589F4F0E946D0BFFEFEF1AFF0A2DE0F4
:1047D000E216F10469F757C06430710581F5CE0126
:1047E00088960E94EA0E6DE072E08CE890E00E94EC
:1047F000330B6DE072E0C8010E941214B801CE01C3
:1048000088960E94160D8823F1F186E791E00E94B8
:104810006A0DE12CF12CB701CE0188960E94B712E7
:10482000FC016081C70184579F4F0E946D0BFFEF11
:10483000EF1AFF0A2DE0E216F10469F724C0653093
:10484000710541F41A821982B80180EA90E00E9451
:10485000D20C38C06630710581F5CE0188960E9471
:10486000EA0E6DE072E08CED90E00E94330B6DE09B
:1048700072E0C8010E941214B801CE0188960E940D
:10488000160D811104C0C8010E946F131BC0E12CDA
:10489000F12CB701CE0188960E94B712FC0160810D
:1048A000C70184529F4F0E946D0BFFEFEF1AFF0A62
:1048B0002DE0E216F10469F7E6CF6730710511F4D7
:1048C00010920C028FE691E00E94490D60911B024C
:1048D00070911C0280911D0290911E024AE00E947C
:1048E000780D80911F0290912002A0912102B09139
:1048F0002202892B8A2B8B2B79F086E691E00E948D
:10490000490D60911F0270912002809121029091C7
:1049100022024AE00E94780D8CE792E00E940E1578
:10492000CE0182960E946F13CE0188960E946F136B
:10493000CE018E960E946F13CE01C4960E946F1313
:1049400040E061E080E00E94FC0B8AEF91E00E9471
:10495000490D80919E0490919F04009711F484EA80
:1049600094E06801C81AD90A0D2C000CEE08FF0863
:10497000F7FE0EC06DE28CE792E00E944F156627AD
:104980007727CB016C197D098E099F094AE003C086
:104990004AE0C701B6010E94780D8CE792E00E94C0
:1049A0000E150E941707C0902302D0902402E090B9
:1049B0002502F0902602DC01CB018C199D09AE097D
:1049C000BF0981309C45A642B54018F0E0E0F0E018
:1049D000099564EF71E080E090E00E94DD060E949E
:1049E000C30429C88CE793E00E946F1381E994E027
:1049F0000E946F1382E893E00E946F1387E994E0AE
:104A00000E946F1386E294E00E946F1380E294E0AC
:104A10000E946F138AE194E00E946F1384E194E096
:104A20000E946F1389E094E00E946F1388E291E086
:104A30009093730480937204809170049091710438
:104A40008257944071F4E0918504F091860490813E
:104A5000809187048095892380831092710410923D
:104A60007004089510927F0210927E0288EE93E007
:104A7000A0E0B0E08093800290938102A093820234
:104A8000B093830228E131E030937D0220937C02D1
:104A900025EC30E0309389022093880224EC30E04A
:104AA00030938B0220938A0220EC30E030938D0209
:104AB00020938C0221EC30E030938F0220938E0201
:104AC00022EC30E0309391022093900226EC30E00B
:104AD00030939302209392021092950210929602C4
:104AE000109297021092980210927504109274041A
:104AF0008093760490937704A0937804B09379041C
:104B000088E291E090937304809372041092890478
:104B10001092880410928B0410928A0410928D04D3
:104B200010928C0410928F0410928E046091900465
:104B30006E7F6D7F609390046695617081E0682759
:104B400087E00E94710661E087E00E94A106E8E626
:104B5000F6E0E491E0938204E4E5F6E0E491F0E02D
:104B6000EE0FFF1FE75CF94F8591949190938404B9
:104B70008093830460E088E00E94A1068091900405
:104B800081FD04C061E088E00E94710688E08093A6
:104B90007E04E9E6F6E0E491E0937F04E5E5F6E0E3
:104BA000E491F0E0EE0FFF1FED5BF94F85919491DA
:104BB0009093810480938004109208046EED71E05C
:104BC00089E094E00E9412146EED71E084E194E0BB
:104BD0000E9412146EED71E08AE194E00E941214BA
:104BE0006EED71E080E294E00E9412146EED71E0CF
:104BF00086E294E00E94121410926F0410926E04E8
:104C00006EED71E087E994E00E9412146EED71E0A0
:104C100082E893E00E9412146EED71E081E994E065
:104C20000E94121467EE71E08CE793E00E94121468
:104C300060E18EE693E00E945C0961E180E693E02A
:104C40000E945C0964E082E593E00E945C0927E42D
:104C500035E030935103209350038EE693E0909318
:104C60004503809344031092430310923F0399E05D
:104C70009093400381E080934103809342033093FB
:104C80003E0320933D0340E653E0509332034093AC
:104C900031031092300310922C0390932D038093D4
:104CA0002E0380932F0330932B0320932A0322E5B6
:104CB00033E030931F0320931E0310921D031092C4
:104CC000190390931A0380931B0380931C03089588
:104CD00097FB072E16F4009407D077FD09D00E94A9
:104CE0009E2607FC05D03EF4909581959F4F089530
:104CF000709561957F4F0895A1E21A2EAA1BBB1BE8
:104D0000FD010DC0AA1FBB1FEE1FFF1FA217B30797
:104D1000E407F50720F0A21BB30BE40BF50B661FAD
:104D2000771F881F991F1A9469F760957095809571
:104D300090959B01AC01BD01CF010895AA1BBB1B3F
:104D400051E107C0AA1FBB1FA617B70710F0A61B8B
:104D5000B70B881F991F5A95A9F780959095BC01AC
:104D6000CD010895EE0FFF1F0590F491E02D0994F9
:104D70005058BB27AA270E94D0260C94492F0E9486
:104D80003B2F38F00E94422F20F039F49F3F19F456
:104D900026F40C94382F0EF4E095E7FB0C94322F98
:104DA000E92F0E945A2F58F3BA1762077307840736
:104DB000950720F079F4A6F50C947C2F0EF4E0957D
:104DC0000B2EBA2FA02D0B01B90190010C01CA01C5
:104DD000A0011124FF27591B99F0593F50F4503E70
:104DE00068F11A16F040A22F232F342F4427585F62
:104DF000F3CF469537952795A795F0405395C9F77A
:104E00007EF41F16BA0B620B730B840BBAF0915031
:104E1000A1F0FF0FBB1F661F771F881FC2F70EC0D0
:104E2000BA0F621F731F841F48F4879577956795A3
:104E3000B795F7959E3F08F0B0CF9395880F08F08F
:104E40009927EE0F979587950895A0E0B0E0EBE2E3
:104E5000F7E20C94A82FEC01009721F4CB010E94FB
:104E60007328B8C0FC01E60FF71F9C0122503109DE
:104E7000E217F30708F4ACC0D9010D911C9111970A
:104E800006171707B0F00530110508F49FC0C801D8
:104E900004978617970708F499C002501109061B5A
:104EA000170B019311936D937C93CF010E940829F6
:104EB0008DC05B01A01AB10A4C01800E911EA09119
:104EC000A004B091A10440E050E0E12CF12C109737
:104ED00009F44AC0A815B905D1F56D907C901197D9
:104EE000630182E0C80ED11CCA14DB0480F1A30167
:104EF0004A195B096A0182E0C80ED11C1296BC9067
:104F000012971396AC91B5E0CB16D10440F0B28263
:104F1000A38351834083D9016D937C930AC00E5FB4
:104F20001F4FC301800F911FF90191838083EB2DE7
:104F3000FA2FE114F10431F0D7011396FC93EE93AC
:104F4000129744C0F093A104E093A0043FC08D9158
:104F50009C9111974817590708F4AC017D011296EE
:104F60000D90BC91A02DB3CF80919E0490919F0491
:104F700088159905E1F446175707C8F48091080190
:104F800090910901009741F48DB79EB740910C01B3
:104F900050910D01841B950BE817F907C8F4F093A5
:104FA0009F04E0939E04F901718360830FC0CB01DD
:104FB0000E9473287C01009759F0A801BE010E944D
:104FC000F427CE010E940829C70104C0CE0102C007
:104FD00080E090E0CDB7DEB7EEE00C94C42F81E026
:104FE00090E0F8940C94EA2FFB01DC0102C00190E0
:104FF0000D9241505040D8F708956817790768F42A
:10500000FB01DC01E40FF51FA40FB51F02C00290E5
:105010000E9241505040D8F708950C94F427FC01AB
:105020008191861721F08823D9F799270895319720
:10503000CF010895FB01DC018D91019080190110D1
:10504000D9F3990B0895FB01DC0101900D9200202A
:10505000E1F70895FB01DC014150504048F0019018
:105060000D920020C9F701C01D9241505040E0F759
:105070000895FB0151915523A9F0BF01DC014D9129
:1050800045174111E1F759F4CD010190002049F095
:105090004D9140154111C9F3FB014111EFCF81E062
:1050A00090E001970895EF920F931F93CF93DF93B2
:1050B000E80147FD02C034E001C034E1E42F440FB1
:1050C000FF0BF7FF03C0F195E195F109E32E022FE5
:1050D0002E2FAE010E94682ACE01DF91CF911F9141
:1050E0000F91EF900895CF93DF938230910510F4E4
:1050F00082E090E0E091A004F091A10420E030E093
:10510000C0E0D0E0309711F1408151814817590734
:10511000C0F04817590761F482819381209719F0F4
:105120009B838A832BC09093A1048093A00426C004
:105130002115310519F04217530718F49A01BE01E1
:10514000DF01EF010280F381E02DDCCF2115310575
:1051500009F1281B390B2430310590F412968D91FA
:105160009C9113976115710521F0FB019383828354
:1051700004C09093A1048093A004FD01329644C022
:10518000FD01E20FF31F81939193225031092D937A
:105190003C933AC020919E0430919F04232B41F40C
:1051A00020910A0130910B0130939F0420939E04BB
:1051B00020910801309109012115310541F42DB7E5
:1051C0003EB740910C0150910D01241B350BE0912D
:1051D0009E04F0919F04E217F307A0F42E1B3F0BEF
:1051E0002817390778F0AC014E5F5F4F2417350759
:1051F00048F04E0F5F1F50939F0440939E0481938D
:10520000919302C0E0E0F0E0CF01DF91CF910895EB
:105210000F931F93CF93DF93009709F48CC0FC0189
:105220003297138212820091A0041091A1040115FB
:10523000110581F420813181820F931F20919E04FA
:1052400030919F042817390779F5F0939F04E09374
:105250009E0471C0D80140E050E0AE17BF0750F483
:1052600012962D913C911397AD012115310509F14D
:10527000D901F3CF9D01DA013383228360817181EB
:10528000860F971F8217930769F4EC0128813981F3
:10529000260F371F2E5F3F4F318320838A819B81EA
:1052A00093838283452B29F4F093A104E093A00417
:1052B00042C01396FC93EE931297ED0149915991D8
:1052C0009E01240F351FE217F30771F4808191814D
:1052D000840F951F029611969C938E9382819381E1
:1052E00013969C938E931297E0E0F0E0D80112960B
:1052F0008D919C911397009719F0F8018C01F6CFCE
:105300008D919C9198012E5F3F4F820F931F2091AA
:105310009E0430919F042817390769F4309729F4C7
:105320001092A1041092A00402C013821282109362
:105330009F0400939E04DF91CF911F910F910895D8
:10534000662777270C94F62BFC0188279927E89489
:1053500021912032E9F3293010F02E30C8F32B329E
:1053600041F02D3239F4689404C00E94192A820F4A
:10537000911D219120532A30C0F31EF49095819500
:105380009F4F08951F93FC0199278827BC01E8943B
:1053900011911032E9F3193010F01E30C8F31B32AE
:1053A00051F01D3249F4689406C00E94042A610F2E
:1053B000711D811D911D119110531A30B0F33EF4EF
:1053C00090958095709561957F4F8F4F9F4F1F915E
:1053D0000895FB01DC0105900D920020E1F708958E
:1053E000FC0105900020E9F7809590958E0F9F1F96
:1053F0000895BB274A3031F4992322F4BDE29095F9
:1054000081959F4F0C944F2A592F482F372F262FC5
:10541000660F771F881F991F660F771F881F991FB8
:10542000620F731F841F951F660F771F881F991FB8
:1054300008957AE0979F902D879F802D910D1124DC
:105440000895BB27FA01A62F621771058105910502
:10545000330B30FB66F0AA27660F771F881F991F52
:10546000AA1FA21710F0A21B63953850A9F7A05DE0
:10547000AA3308F0A95DA19336F7B111B193108258
:10548000CA010C944C2E4532510520F4423010F0E4
:105490000C944E2AFB011082CB010895BB27FB011F
:1054A0005527AA27880F991FAA1FA41710F0A41B1D
:1054B00083955051B9F7A05DAA3308F0A95DA19377
:1054C000009779F7B111B1931192CB010C944C2E46
:1054D0004F925F926F927F929F92AF92BF92CF92C4
:1054E000DF92EF92FF920F931F93CF93DF93CDB78D
:1054F000DEB729970FB6F894DEBF0FBECDBF6A01A5
:10550000122FB02E2BE3201720F0FF24F394F00E7F
:1055100002C0BCE3FB2E0F2D27E0AE014F5F5F4FB3
:105520000E94532DAC018981982F9970913031F0F0
:10553000E1FC06C0E0FE06C090E205C09DE203C0AB
:105540009BE201C090E0EE2DE07183FF3CC0911121
:1055500002C083E001C084E0811718F4212F281BCA
:1055600001C020E0E1110BC0F601822F30E2882358
:1055700019F031938150FBCFC20ED11C20E099234A
:1055800029F0D6019C93F60131966F01C60103966E
:10559000E2FE0AC03EE4D6013C9341E411964C93EE
:1055A000119712963C9306C03EE6F601308341E621
:1055B00041833283FC01322F40E2332309F442C09D
:1055C00041933150FACF82FF44C0911102C083E071
:1055D00001C084E0811718F4212F281B01C020E0AE
:1055E000E1110BC0F601822F30E2882319F03193CC
:1055F0008150FBCFC20ED11C20E0992329F0D601A7
:105600009C93F60131966F01C6010396E2FE0BC032
:1056100039E4D6013C933EE411963C93119736E46D
:1056200012963C9307C039E6F60130833EE631839B
:1056300036E63283FC01322F40E2332319F04193E6
:105640003150FBCFFC01E20FF11D10828EEF9FEF76
:10565000B7C0F1E0911101C0F0E06F2F70E01416B7
:10566000150624F49A012F5F3F4F02C021E030E07D
:10567000260F371FBB2029F06B2D70E06F5F7F4F27
:1056800002C060E070E0260F371F612F70E0261720
:1056900037071CF4121B212F01C020E03E2D38716A
:1056A00059F4D601322F60E2332319F06D93315053
:1056B000FBCFC20ED11C20E0FF2331F0D6019C931A
:1056C000B6016F5F7F4F6B01E1110BC0F601922FA6
:1056D00030E3992319F031939150FBCFC20ED11CC6
:1056E00020E09F2D940F3A81782F7071A72E84FFB0
:1056F00003C0313309F49150191624F4993018F08D
:1057000098E001C091E0E42F852F57FF02C0E0E050
:1057100080E06E2F782FE0E0F0E0AEE29A2E3A01C2
:10572000691A71082A01461A570A0B2D10E01195C3
:10573000019511096F3F8FEF780729F4D6019C92EC
:10574000C60101966C014617570784F06616770666
:105750006CF47F01E40CF51CA1E0B0E0AC0FBD1FC0
:10576000EA0EFB1ED7011196BC9002C090E3B92E41
:10577000615071093196C60101967C01601771076D
:1057800024F0D601BC926C01D5CF6417750741F4A3
:10579000363320F4353321F4A11002C081E3B82E52
:1057A000F601B082F701822F90E2882319F09193DD
:1057B0008150FBCFF701E20FF11D108280E090E0F5
:1057C00029960FB6F894DEBF0FBECDBFDF91CF9103
:1057D0001F910F91FF90EF90DF90CF90BF90AF900F
:1057E0009F907F906F905F904F900895A0E0B0E001
:1057F000ECEFFBE20C94A82FEC017B016115710525
:1058000019F0DB018D939C938E010F5F1F4F788001
:10581000872D90E00E942B2E892B11F0E801F4CF08
:10582000BDE27B1205C00F5F1F4F7980C1E008C049
:10583000EBE27E1204C08E010E5F1F4F7980C0E044
:105840006801F1E0CF1AD10843E050E06DE776E05F
:10585000C6010E94342E892BF1F4680122E0C20EA9
:10586000D11C45E050E068E776E0C6010E94342E86
:10587000892B21F4680187E0C80ED11CE114F104E2
:1058800019F0D701CD92DC92C111FFC060E070E049
:1058900080E89FE703C143E050E065E776E0C6019A
:1058A0000E94342E892B51F4E114F10409F4F2C062
:1058B0000E5F1F4FF70111830083ECC0680160E0A9
:1058C00070E0CB0100E010E0F601D0EDD70DDA304A
:1058D00058F52C2F2260622E2C2F2870C2FF05C095
:1058E000211128C00F5F1F4F25C0222311F0015046
:1058F0001109A5E0B0E09B01AC010E94992F4B017A
:105900005C01880C991CAA1CBB1CC501B4016D0F5D
:10591000711D811D911D6839A9E97A078A07A9E1DE
:105920009A0740F0C66005C0DE3F51F4C3FD44C095
:10593000C8606C2EBFEFCB1ADB0A7080C62DC4CFB7
:105940002D2F2F7D2531C1F540814D3211F4C061DD
:1059500006C04B3221F0319621E030E006C032968D
:10596000D60111964C9122E030E0A0EDA40FAA30B0
:1059700018F0E21BF30B20C040E050E04038BCE0E0
:105980005B075CF49A01220F331F220F331F420F73
:10599000531F440F551F4A0F511D3196DF011197B8
:1059A0002C91A0EDA20FAA3048F3C4FF03C051957B
:1059B00041955109040F151FC1FF07C0E114F104FF
:1059C00021F03197D701ED93FC930E94612EC370B3
:1059D000C33019F06B017C0106C06B017C01F7FA42
:1059E000F094F7F8F09420E030E0A901C701B60187
:1059F0000E945C2E882309F445C017FF06C011954C
:105A000001951109C4E9D6E002C0CCEAD6E05E01F6
:105A1000B8E1AB1AB1084601BE2DAF2D90E2E92ED8
:105A2000F12C0E151F0584F0FE012591359145914D
:105A30005491B4018B2F9A2F0E94C22E4B01B82F84
:105A4000A92F0E191F09EDCF2497F594E794CA15D5
:105A5000DB0539F76401EB2EFA2E8E2D880F8F2D82
:105A6000881F8F3F49F020E030E0A901C701B6014F
:105A70000E945C2E811106C082E290E09093A30404
:105A80008093A204C701B60109C060E070E080E81D
:105A90009FEF04C060E070E080EC9FE7CDB7DEB719
:105AA000EEE00C94C42F283008F027E03327DA0109
:105AB000990F311D87FD916000966105710539F4DC
:105AC00032602E5F3D9330E32A95E1F708959F3FC2
:105AD00030F080387105610509F03C5F3C5F3D9313
