:100000000C9498030C9454070C942D070C94790AC3
:100010000C94790A0C94790A0C94C0030C94C003D4
:100020000C94C0030C94C0030C94C0030C94C00344
:100030000C94C0030C94C0030C94C0030C94C00334
:100040000C94E3060C94C0030C94D6050C94B005F4
:100050000C94C0030C94C0030C94C0030C94C00314
:100060000C94C0030C94C0030000000800020100BF
:100070000003040700000000000000005468652031
:100080006E6574776F726B206973206E6F74206475
:100090006566696E65640053657474696E67207582
:1000A00070206E6574776F726B2E2E2E000A494D8C
:1000B00045493A004F4B00506F7765722053494DC8
:1000C000383030204F6E00496E697469616C697A0E
:1000D000696E672E2E2E2E284D61792074616B6516
:1000E0002035207365636F6E647329000A53494D90
:1000F00038303020736574757020656E6400496E09
:1001000074657276616C207365633A00436C656157
:100110007220454550524F4D20456E640053746126
:10012000727420636C65617220454550524F4D00DA
:100130000A4E6F20696E7465726E657420636F6E0F
:100140006E656374696F6E004552524F52004F4B9B
:10015000000A2053494D3830302073657475702083
:10016000737461727400537472696E67206C656E8B
:100170006774683A20000A54656D70000A667265FB
:1001800065206D656D6F72793A2000496E746572F5
:1001900076616C207365633A0070686F6E652069E4
:1001A000676E6F72656400534D532063656E7472A1
:1001B00000436F6D6D616E64612074656C32004345
:1001C0006F6D6D616E64612074656C31002B434D01
:1001D0005400534D533A00556E6B6E6F776E20632B
:1001E0006F6D6D616E640054696D656F6666005277
:1001F0006573746172740052657374617274005433
:10020000696D6573657400005EBCE2613FDD83C2A9
:100210009C7E20A3FD1F419DC3217FFCA2401E5F49
:1002200001E3BD3E6082DC237D9FC1421CFEA0E154
:10023000BF5D0380DE3C62BEE0025CDF81633D7C2B
:1002400022C09E1D43A1FF4618FAA427799BC584AE
:10025000DA3866E5BB5907DB856739BAE406581911
:1002600047A5FB7826C49A653BD987045AB8E6A708
:10027000F91B45C6987A24F8A6441A99C7257B3AF3
:100280006486D85B05E7B98CD2306EEDB3510F4E62
:1002900010F2AC2F7193CD114FADF3702ECC92D3E1
:1002A0008D6F31B2EC0E50AFF1134DCE90722C6DBC
:1002B00033D18F0C52B0EE326C8ED0530DEFB1F0C3
:1002C000AE4C1291CF2D73CA947628ABF51749081E
:1002D00056B4EA6937D58B5709EBB536688AD49599
:1002E000CB2977F4AA4816E9B7550B88D6346A2B80
:1002F0007597C94A14F6A8742AC896154BA9F7B67B
:10030000E80A54D7896B3500000000240027002A32
:10031000000D0A004572726F72002B4854545052FF
:100320004541443A200041542B48545450524541D1
:100330004400302C363000302C3230300041542B09
:1003400048545450414354494F4E3D300041542B82
:1003500048545450504152413D2255524C222C2277
:100360000041542B48545450414354494F4E3D3062
:100370000041542B48545450504152413D22555253
:100380004C222C220041542B48545450504152418D
:100390003D22434944222C310041542B48545450AF
:1003A000494E49540041542B485454505445524DE1
:1003B0000041542B43495047534D4C4F433D312C42
:1003C00031004552524F520D004F4B0D0041542BFE
:1003D000434F50533F0041542B47534E0041542B41
:1003E00043504D533D22534D222C22534D222C225B
:1003F000534D220041542B434D47463D310041545B
:100400002B53415042523D322C310041542B534129
:100410005042523D312C310041542B434744434F0D
:100420004E543D312C224950222C220041542B5352
:10043000415042523D332C312C22505744222C2221
:100440000041542B53415042523D332C312C225504
:10045000534552222C220041542B53415042523DCD
:10046000332C312C2241504E222C2200696E7465AF
:10047000726E65742E54454C45322E72750054458B
:100480004C4532004D454741464F4E00696E7465FC
:10049000726E6574004D656761466F6E00626565DA
:1004A0006C696E6500696E7465726E65742E626546
:1004B000656C696E652E7275004265656C696E6566
:1004C000006D7473004D545300696E7465726E65EF
:1004D000742E6D74732E72750041542B534150422B
:1004E000523D332C312C22436F6E74797065222C6F
:1004F0002247505253220041542B43474154543F0A
:100500000041542B4353510041542B435245473F24
:100510000041542B434E4D493D322C320041542B67
:10052000435343533D2247534D220041542B434CE8
:1005300049503D310041542B434D47463D31004128
:10054000542B4346554E3D310041542B4950523DAA
:100550003139323030004154453000560549053FAD
:100560000535052B051D05110508050105F704D9FD
:1005700004C904C504C104B904A5049D0495048CF0
:100580000484047E046C04570441042C0418040BF6
:1005900004FE03F403DD03D603CD03C903C203B194
:1005A00003A50399038503710361034D033D0337DD
:1005B00003320326031A031403110300000000256D
:1005C0000028002B00000000002300260029000462
:1005D00004040404040404020202020202030303EA
:1005E00003030301020408102040800102040810E4
:1005F000200102040810204E414E494E49545949E9
:100600004E46CDCCCC3D0AD7233C17B7D13877CC5A
:100610002B329595E6241FB14F0A000020410000BF
:10062000C84200401C4620BCBE4CCA1B0E5AAEC578
:100630009D7400407A10F35A00A0724E1809001001
:10064000A5D4E80000E87648170000E40B54020047
:1006500000CA9A3B000000E1F50500008096980072
:10066000000040420F000000A0860100000010279B
:1006700000000000E803000000006400000000002B
:100680000A00000000000100000000002C76D8885D
:10069000DC674F0823DFC1DFAE59E1B1B796E5E370
:1006A000E453C63AE651997696E8E6C28426EB8989
:1006B0008C9B62ED407C6FFCEFBC9C9F40F2BAA526
:1006C0006FA5F490055A2AF75C936B6CF9676DC1BE
:1006D0001BFCE0E40D47FEF520E6B500D0ED902EC2
:1006E0000300943577050080841E080000204E0A20
:1006F000000000C80C333333330F986E128311415E
:10070000EF8D2114893BE65516CFFEE6DB18D18428
:100710004B381BF77C1D901DA4BBE424203284724F
:100720005E228100C9F124ECA1E53D27A2206220D0
:1007300011241FBECFEFD8E0DEBFCDBF12E0A0E096
:10074000B1E0E6E2F6E502C005900D92AC33B107E8
:10075000D9F724E0ACE3B2E001C01D92A13CB2079E
:10076000E1F713E0C7E9D3E004C02197FE010E943E
:100770002222C639D107C9F70E94AC130C94062B6C
:100780000C940000FC01918D828D981761F0828D90
:10079000DF01A80FB11D5D968C91928D9F5F9F73B5
:1007A000928F90E008958FEF9FEF0895FC01918D57
:1007B000828D981731F0828DE80FF11D858D90E0C4
:1007C00008958FEF9FEF0895FC01918D228D892F61
:1007D00090E0805C9F4F821B91098F739927089549
:1007E0008AE992E00E94E40321E0892B09F420E0E9
:1007F000822F0895FC01848DDF01A80FB11DA35A3B
:10080000BF4F2C91848D90E001968F739927848F30
:10081000A689B7892C93A089B1898C9180648C9327
:10082000938D848D981306C00288F389E02D808112
:100830008F7D80830895EF92FF920F931F93CF9344
:10084000DF93EC0181E0888F9B8D8C8D981305C020
:10085000E889F989808185FD24C0F62E0B8D10E092
:100860000F5F1F4F0F731127E02E8C8DE8120CC005
:100870000FB607FCFACFE889F989808185FFF5CFAB
:10088000CE010E94FA03F1CF8B8DFE01E80FF11D1E
:10089000E35AFF4FF0820B8FEA89FB8980818062E7
:1008A00007C0EE89FF896083E889F98980818064C7
:1008B000808381E090E0DF91CF911F910F91FF90B5
:1008C000EF900895CF93DF93EC01888D8823C9F0D2
:1008D000EA89FB89808185FD05C0A889B9898C9149
:1008E00086FD0FC00FB607FCF5CF808185FFF2CFE4
:1008F000A889B9898C9185FFEDCFCE010E94FA03BA
:10090000E7CFDF91CF91089580E090E0892B29F027
:100910000E94F00381110C94000008953FB7F894F1
:100920008091960290919702A0919802B0919902BD
:1009300026B5A89B05C02F3F19F00196A11DB11D3A
:100940003FBFBA2FA92F982F8827820F911DA11D75
:10095000B11DBC01CD0142E0660F771F881F991FB2
:100960004A95D1F708950895FC0190810180F281A4
:10097000E02DF8948181892B81832281892F8095B4
:1009800028232283A7E0B0E01197F1F72181822389
:100990008183A3E2B0E01197F1F780817894EFECC6
:1009A000F0E03197F1F7982381E009F480E00895B1
:1009B000FC0190810180F281E02D892F809560FFFC
:1009C00012C0F8942281822382838181892B8183C2
:1009D000A3E2B0E01197F1F78281982B928378948B
:1009E00087ED90E011C0F894228182238283818177
:1009F000892B8183AFEFB0E01197F1F78281982BBB
:100A0000928378948FE090E00197F1F7089508952C
:100A100020918E0430918F042817390771F490913A
:100A20003C0280913D02981741F0E0913C02F0E0D9
:100A3000EF5AFD4F808190E008958FEF9FEF08956A
:100A400008951F93CF93DF93DC015C962D913C9129
:100A50005D972115310539F481E090E013969C9360
:100A60008E9312973DC05196ED91FC9152975096FE
:100A70009C915097892F80951FB75E964C915E97F9
:100A800041FB772770F941FD6095F8944081772309
:100A900011F0492B01C048234083E9012197F1F768
:100AA00048E0508160FF02C0592B01C05823508399
:100AB000E9012197F1F76695415099F7772321F0E5
:100AC00090818923808303C08081982B90831FBFEE
:100AD0005C968D919C915D970197F1F721E030E054
:100AE000C901DF91CF911F91089520918E0430911B
:100AF0008F042817390771F480913D0220913C0240
:100B000090E0805C9F4F821B910960E470E00E943E
:100B1000D821089580E090E0089520918E043091CE
:100B20008F0428173907B9F490913C0280913D0257
:100B3000981789F0E0913C02F0E0EF5AFD4F808178
:100B400020913C0230E02F5F3F4F2F7333272093DB
:100B50003C0290E008958FEF9FEF08950E945F237D
:100B60001F920F920FB60F9211242F933F934F9322
:100B70005F936F937F938F939F93AF93BF93EF9305
:100B8000FF938AE992E00E94FA03FF91EF91BF91EF
:100B9000AF919F918F917F916F915F914F913F9115
:100BA0002F910F900FBE0F901F9018951F920F92CC
:100BB0000FB60F9211242F938F939F93EF93FF9370
:100BC000E091AA02F091AB028081E091B002F09135
:100BD000B10282FD12C090818091B3028F5F8F734A
:100BE0002091B402821751F0E091B302F0E0E65692
:100BF000FD4F958F8093B30201C08081FF91EF91EB
:100C00009F918F912F910F900FBE0F901F9018956D
:100C1000833081F028F4813099F08230A1F008957A
:100C20008730A9F08830B9F08430D1F48091800009
:100C30008F7D03C0809180008F778093800008951E
:100C400084B58F7702C084B58F7D84BD089580916F
:100C5000B0008F7703C08091B0008F7D8093B0008B
:100C600008951F93CF93DF93282F30E0F901E859BF
:100C7000FF4F8491F901ED51FA4FD491F901E153FD
:100C8000FA4FC491CC23C9F0162F81110E94080697
:100C9000EC2FF0E0EE0FFF1FE554FA4FA591B49151
:100CA0008FB7F894111105C09C91ED2FE095E923C1
:100CB00002C0EC91ED2BEC938FBFDF91CF911F9190
:100CC0000895CF93DF9390E0FC01ED51FA4F24910A
:100CD000FC01E153FA4F8491882361F190E0880F81
:100CE000991FFC01E95FFC4FC591D491FC01E554CB
:100CF000FA4FA591B491611109C09FB7F89488810A
:100D0000209582238883EC912E230BC0623061F4FE
:100D10009FB7F8943881822F809583238883EC9144
:100D20002E2B2C939FBF06C08FB7F894E8812E2BF3
:100D300028838FBFDF91CF9108958F929F92AF92BA
:100D4000BF92CF92DF92EF92FF926B017C010E94E3
:100D50008E044B015C01C114D104E104F104F1F0F3
:100D60000E948E04DC01CB0188199909AA09BB09EC
:100D7000883E9340A105B10570F321E0C21AD10865
:100D8000E108F10888EE880E83E0981EA11CB11CD2
:100D9000C114D104E104F10419F7DDCFFF90EF9005
:100DA000DF90CF90BF90AF909F908F9008952FB716
:100DB000F8946091920270919302809194029091C4
:100DC00095022FBF08951F920F920FB60F92112414
:100DD0002F933F938F939F93AF93BF9380919202F2
:100DE00090919302A0919402B0919502309191025A
:100DF00023E0230F2D3720F40196A11DB11D05C05E
:100E000026E8230F0296A11DB11D20939102809325
:100E1000920290939302A0939402B09395028091D2
:100E2000960290919702A0919802B0919902019632
:100E3000A11DB11D8093960290939702A0939802F2
:100E4000B0939902BF91AF919F918F913F912F9154
:100E50000F900FBE0F901F9018951F920F920FB614
:100E60000F9211242F933F934F935F936F937F9330
:100E70008F939F93AF93BF93EF93FF93E091020102
:100E8000F09103010995FF91EF91BF91AF919F916F
:100E90008F917F916F915F914F913F912F910F9023
:100EA0000FBE0F901F9018951F920F920FB60F92C2
:100EB00011242F933F934F935F936F937F938F935F
:100EC0009F93AF93BF93EF93FF93E0910001F09155
:100ED00001010995FF91EF91BF91AF919F918F9182
:100EE0007F916F915F914F913F912F910F900FBE26
:100EF0000F901F901895DC01E0E0615038F08D9163
:100F0000E827F0E0E95FFD4FE491F7CF8E2F0895D9
:100F1000CF92DF92EF92FF920F931F93CF93DF93C5
:100F20001F92CDB7DEB76C01E62E08E010E0FF247B
:100F3000F39461E08F2D8E2109F460E0C6014983AE
:100F40000E94D804FF0C01501109498101151105B7
:100F500081F7411115C0F894D6011196ED91FC91DD
:100F6000129791818C918095892381831196ED91BF
:100F7000FC91129792818C91809589238283789439
:100F80000F90DF91CF911F910F91FF90EF90DF9025
:100F9000CF900895CF92DF92EF92FF920F931F931D
:100FA000CF93DF931F92CDB7DEB78C01F62E40E0D2
:100FB00065E579830E948807CF2C7981D72E760149
:100FC00088E0E80EF11CF60161916F0140E0C80174
:100FD0000E948807CE14DF04B1F70F90DF91CF9104
:100FE0001F910F91FF90EF90DF90CF900895FC013B
:100FF00090810180F281E02DF8948181292F209544
:101000008223818378948DE743E050E0815021F181
:10101000DA011197F1F730813923C1F3F894828115
:10102000822382838181892B81837894ABE7B7E027
:101030001197F1F7F894818128232183A3E1B1E08E
:101040001197F1F78081982381E009F080E078948E
:10105000E3E6F6E03197F1F70895AF92BF92CF92B1
:10106000DF92EF92FF920F931F93CF93DF931F9224
:10107000CDB7DEB75C01E62ED72EFC018585811148
:101080005DC0C5010E94F707811105C0F5011386F7
:10109000158614866BC040E060EFC5010E9488078A
:1010A00001E0F12CC12C11E0C5010E94B404682FAD
:1010B000C50169830E94B4046981613019F48130EB
:1010C000B9F433C04F2D50E068131BC0F501838580
:1010D000181730F4E40FF51F8381802349F402C010
:1010E000181731F060E0193058F4F501148708C082
:1010F000F501EF0DF11D8381802B838361E009C031
:10110000C12EF501E40FF51F9381802F809589236F
:101110008383C5010E94D8041F5F000F11F4F3946C
:1011200001E0F7E0FF1508F0BFCF113438F0F5010A
:10113000C386C11015C081E0858712C0F5011386F2
:101140001586148680E0D5011396EE2DFD2D9501B0
:10115000255F3F4F9D919193A217B307D9F706C022
:10116000F5018381882351F381E0EDCF0F90DF916A
:10117000CF911F910F91FF90EF90DF90CF90BF9094
:10118000AF9008956F927F928F929F92AF92BF928D
:10119000CF92DF92EF92FF920F931F93CF93DF9343
:1011A0001F92CDB7DEB78C01F42EFC0185819681AC
:1011B00059830E94CA0740E06EEBF8018581968151
:1011C0000E9488076F2C5981752E5301F9E0AF0EEC
:1011D000B11CF8018580968088E0C82ED12CEE24C1
:1011E000E394F12CC4010E94B4048111FE28EE0C9A
:1011F000F1E0CF1AD108B1F7F301F1923F01EA15FE
:10120000FB0539F7F801858196810E94F70791E087
:10121000813009F090E0892F0F90DF91CF911F91DD
:101220000F91FF90EF90DF90CF90BF90AF909F9085
:101230008F907F906F9008950F931F93CF93DF93BC
:10124000EC01162F60E0812F0E946106612F70E093
:10125000FB01ED51FA4FE491E883FB01E153FA4FB2
:10126000E491F0E0EE0FFF1FEB53FA4F859194915C
:101270009A8389831B861D861C86FE013B968E0100
:101280000D5F1F4F1292E017F107E1F7DF91CF9149
:101290001F910F910895CF93DF93EC018D819E8173
:1012A0000E94F70740E06CEC8D819E810E948807C8
:1012B000488164E48D819E810E9488078A81882309
:1012C000B1F0E981E950E33040F4F0E0EE0FFF1FA8
:1012D000E25FFE4F6081718102C06EEE72E0072E08
:1012E000000C880B990BDF91CF910C949D06DF9138
:1012F000CF910895EF92FF920F931F93CF93DF93B7
:1013000000D0CDB7DEB78C017A01FC0185819681D2
:1013100069837A830E94F70769817A81882371F053
:10132000A701C8010E94C208882341F068E0C701F4
:101330000E947B0791E0F7012085821390E0892FBE
:101340000F900F90DF91CF911F910F91FF90EF9031
:101350000895CF93DF93CDB7DEB729970FB6F894F2
:10136000DEBF0FBECDBFFB0120812031D1F0AE0129
:101370004F5F5F4F0E947A09882389F08D818F33F8
:1013800061F020F48F3159F489E00CC08F3519F0E9
:101390008F3739F004C08BE005C08AE003C080E0DD
:1013A00001C08CE029960FB6F894DEBF0FBECDBF0A
:1013B000DF91CF910895EF92FF920F931F93CF93F8
:1013C000DF93CDB7DEB761970FB6F894DEBF0FBEDF
:1013D000CDBF8C01DC011596ED91FC91169713861B
:1013E00015861486DF011B9633961E92AE17BF0733
:1013F000E1F7F8011482FF24F394BE01665F7F4F8A
:10140000F801858196810E942D08882309F464C023
:1014100067E0CE010A960E947B0799898913EDCF78
:10142000D8018C91811126C015968D919C911697AB
:101430000E94F707BE01665F7F4FF80185819681A4
:101440000E94CA0740E064EBD80115968D919C91EB
:1014500016970E948807F801858196810E94B4043E
:10146000E82ED80115968D919C9116970E94F7074A
:10147000EE2079F1F801858196810E94F707882393
:1014800049F0AE014F5F5F4FBE01665F7F4FC801FD
:101490000E94C208D8011196EC90BE01665F7F4F92
:1014A000C8010E94A9098E1518F4F801818106C0AF
:1014B000BE01665F7F4FC8010E94A909D80111963D
:1014C0008C93119714968C9114978F5F14968C932C
:1014D00094CFD801FC92CECF61960FB6F894DEBFC0
:1014E0000FBECDBFDF91CF911F910F91FF90EF9075
:1014F00008951F920F920FB60F9211242F933F93CE
:101500004F935F936F937F938F939F93AF93BF930B
:10151000EF93FF93E0918E04F0918F04309709F4DC
:1015200051C0968DA685B785858591FF04C09C9195
:10153000892329F447C09C91892309F043C0A389DA
:10154000B4899C918589809589238C938689978914
:101550000197F1F7608D718DA685B785558538E0C7
:1015600020E0CB010197F1F7822F90E095958795C8
:10157000282F4C91452309F02068315091F7868D32
:1015800081FD209580913D0290E001968F7399270F
:1015900030913C02381749F0A0913D02B0E0AF5ABB
:1015A000BD4F2C9380933D0203C0868D8160868F52
:1015B000828D938D0197F1F7A389B4899C918589D8
:1015C000892B8C93FF91EF91BF91AF919F918F9158
:1015D0007F916F915F914F913F912F910F900FBE2F
:1015E0000F901F901895CF92DF92EF92FF920F937A
:1015F0001F93CF93DF93EB017B012DE0E20EF11CF3
:101600008B016C01C61AD70AC601800F911F0E9478
:101610009F2AF80181938F01EE15FF05A9F7CE01EE
:10162000DF91CF911F910F91FF90EF90DF90CF90BE
:101630000895CF92DF92EF92FF920F931F93CF9373
:10164000DF9300D000D000D0CDB7DEB78C017B0196
:101650006FEF71E0CE0101960E941413BE016F5F1F
:101660007F4FC8010E946D116C01CE0101960E944E
:10167000B212D7FC16C084E190E0A0E0B0E0809305
:10168000040190930501A0930601B093070181E046
:101690008093400264E170E080E090E00E94680E78
:1016A00046C067EF71E0CE0101960E941413BE019F
:1016B0006F5F7F4FC8010E946D116C01CE010196D2
:1016C0000E94B212D7FC19C0B7018AE992E00E94C9
:1016D00071136EE172E08AE992E00E94AA138FEE24
:1016E00091E00E94170E68EE73E080E090E00E94A7
:1016F0009D06E0E0F0E009951AC067EE71E0CE01CA
:1017000001960E941413BE016F5F7F4FC8010E94B3
:101710006D118C01CE0101960E94B21217FD03C01B
:101720001092400204C087ED91E00E94170E2696A9
:101730000FB6F894DEBF0FBECDBFDF91CF911F91E2
:101740000F91FF90EF90DF90CF9008951F93CF936C
:10175000DF931F92CDB7DEB7162F682F8AE049833B
:101760000E943106612F8EE00E9431064981642F6C
:101770008FE00F90DF91CF911F910C9431060F9362
:101780001F930E94D70600914D0210914E022091A6
:101790004F02309150029B01201B310B30934C02C1
:1017A00020934B0260934D0270934E0280934F0240
:1017B0009093500280914B0290914C02803F9B404D
:1017C0003CF080914B0290914C028E3F9B408CF0FC
:1017D00080914B0290914C02883593406CF080913F
:1017E0004B0290914C028636934034F481E090E0B5
:1017F0005BC082E090E058C080914B0290914C0217
:101800008F35914044F080914B0290914C02823789
:1018100091400CF447C080913E0290913F020197A5
:10182000E1F42091490230914A0281E090E0232BBB
:1018300011F080E090E090934A02809349028091F9
:10184000490290914A0240E0892B19F460E081E05E
:1018500002C061E080E00E94A60B80913E02909160
:101860003F02029731F52091490230914A0281E00E
:1018700090E0232B11F080E090E090934A02809357
:1018800049028091490290914A02892B21F440E05B
:1018900060E081E003C041E060E080E01F910F91D3
:1018A0000C94A60B83E090E090933F0280933E025D
:1018B000B2CF1F910F910895EF92FF920F931F9354
:1018C000CF93DF931F92CDB7DEB77C01FC0100817F
:1018D0001181C80169830E949F2A6981681719F0E4
:1018E000C8010E94A72AC7010F90DF91CF911F91D5
:1018F0000F91FF90EF900895AF92BF92CF92DF9239
:10190000EF92FF920F931F93CF93DF9300D0CDB749
:10191000DEB78B016B012DE0C20ED11C7B015C0197
:10192000A61AB70A95012E0D3F1DF70161917F019F
:101930003A832983CE0101960E945C0CEC14FD04CD
:1019400089F7C8010F900F90DF91CF911F910F91F0
:10195000FF90EF90DF90CF90BF90AF9008952F92BF
:101960003F924F925F926F927F928F929F92AF922F
:10197000BF92CF92DF92EF92FF920F931F93CF937C
:10198000DF9300D000D0CDB7DEB7FC014480558096
:101990004114510409F413C1FB0164807580611482
:1019A000710409F40CC17A016B019C838B83FA01E9
:1019B000A480B580A618B708FC0100811181A1148C
:1019C000B104C1F4F60160817181C8010E949123C4
:1019D0005C01892B09F4F3C0F701608171814481B6
:1019E0005581C5010E946423F701048115810A0D08
:1019F0001B1DE8CFB7FE02C0480106C0FB012080D6
:101A000031804201C80148C0F60160817181C40182
:101A10000E9491232C01892B29F132016818790841
:101A2000A301B401C8010E946423060D171DF7012C
:101A30006081718144815581C8010E946423F7014E
:101A400084819581080F191FF60184809580840C8C
:101A5000951CEB81FC81848195818A0D9B1D95836A
:101A60008483D2CFB401C8010F900F900F900F90D4
:101A7000DF91CF911F910F91FF90EF90DF90CF906A
:101A8000BF90AF909F908F907F906F905F904F909E
:101A90003F902F900C948A23B1010E9491230097CC
:101AA00029F0860D971D8A0C9B1CF6CF8414950493
:101AB00009F485C0EB81FC818281938188159905A9
:101AC00078F4B4016F5F7F4FC8010E9495220097A0
:101AD00009F475C0EB81FC819183808393828282BB
:101AE000EB81FC81048115810150110917FD67C04C
:101AF000F601248035802114310409F460C0EB81A3
:101B0000FC81648075806114710409F458C062140A
:101B1000730408F454C00615170518F0830101502A
:101B20001109EB81FC8140805180C20188248A9494
:101B3000982C9201200F311F2817390758F0F60111
:101B40006081718129833A830E94912329813A819E
:101B5000009761F597FC33C0280C391CC201820D37
:101B6000931DA30142195309BC018A0D9B1D0E94BC
:101B70006D23EB81FC81848195818A0D9B1D95836A
:101B8000848320813181F901E80FF91F1082EB81F4
:101B9000FC8180819181F70160817181448155814F
:101BA000880D991D0E94642384019ECFAC014419C5
:101BB00055090417150708F04A010196BDCF0F908B
:101BC0000F900F900F90DF91CF911F910F91FF9089
:101BD000EF90DF90CF90BF90AF909F908F907F90CD
:101BE0006F905F904F903F902F9008950F931F93A9
:101BF000CF93DF938C01C0E0D0E0F801EC0FFD1F24
:101C00006491662371F0E0919A02F0919B02019039
:101C1000F081E02D8AE992E00995892B11F0219657
:101C2000ECCFCE01DF91CF911F910F910895CF930B
:101C3000DF930E94F60DEC018AE992E00E94941372
:101C40008C0F9D1FDF91CF9108958F929F92AF923D
:101C5000BF920F931F93CF93DF93CDB7DEB7A197BA
:101C60000FB6F894DEBF0FBECDBF19A2423008F404
:101C70004AE08E010F5D1F4F842E912CA12CB12CB8
:101C8000A50194010E94EC21E62FB901CA0101507F
:101C90001109EA3014F4E05D01C0E95CD801EC936D
:101CA000232B242B252B61F7B8018AE992E00E94AF
:101CB0007F13A1960FB6F894DEBF0FBECDBFDF91A4
:101CC000CF911F910F91BF90AF909F908F900895EB
:101CD000CF93DF934AE00E94250EEC018AE992E05F
:101CE0000E9494138C0F9D1FDF91CF9108950F9345
:101CF0001F93CF93DF93C0EAD3E08C01005A1340C7
:101D0000C8018C0F9D1F0E949F2A899383E0C63AC9
:101D1000D807B1F780EA93E0DF91CF911F910F913F
:101D200008950F931F93CF93DF93C4E0D1E08C010C
:101D300004501140C8018C0F9D1F0E949F2A899357
:101D400081E0C830D807B1F784E091E0DF91CF910E
:101D50001F910F9108957F928F929F92AF92BF92A1
:101D6000CF92DF92EF92FF920F931F93CF93DF9367
:101D7000EC016B01892BD1F080E994E00E9475059C
:101D8000892B29F080E994E00E948D05F5CF6EE360
:101D90008AE992E00E946A13BE018AE992E00E94F9
:101DA0009813BE0180E994E00E9498130E94D70620
:101DB0004B015C01712CCBE9D5E01FE3E12CF12C48
:101DC00080E994E00E947505892B09F43CC080E904
:101DD00094E00E948D059EE7971558F4E6EEF3E037
:101DE000A6EAB3E0912F01900D929A95E1F79FE357
:101DF000792E01E0070DE72DF0E0EA55FC4F8083D6
:101E0000E02FF0E0EA55FC4F1082FE0165917491DD
:101E100080E594E00E941A2560E574E086EA93E08C
:101E20000E949123892B71F061E571E08AE992E0CB
:101E30000E94AA1366EA73E08AE992E00E9498136E
:101E4000802F1CC0702E0E94D706DC01CB018819A0
:101E50009909AA09BB098C159D05AE05BF0508F4B3
:101E6000AFCF61E372E08AE992E00E94AA1366EACA
:101E700073E08AE992E00E94981380E0DF91CF91AD
:101E80001F910F91FF90EF90DF90CF90BF90AF9098
:101E90009F908F907F900895CF93DF93BC018AE944
:101EA00092E00E947113EC018AE992E00E9494137F
:101EB0008C0F9D1FDF91CF910895CF93DF9362E246
:101EC00080E994E00E946A13EC0180E994E00E94AA
:101ED00094138C0F9D1FDF91CF910895CF93DF93C3
:101EE000EB01DC011596ED91FC9116971386158692
:101EF0001486DF011B9633961E92AE17BF07E1F7DB
:101F0000BE01FC01858196810E942D08882349F03D
:101F100067E0CE010E947B079F81891302C081E0A8
:101F200001C080E0DF91CF9108950F931F93CF936D
:101F3000DF93CDB7DEB761970FB6F894DEBF0FBE63
:101F4000CDBF8C01BE01665F7F4F0E946E0F811175
:101F500005C060E070E08EEF92EC4BC0AE014F5FC9
:101F60005F4FBE01665F7F4FC8010E947A098823D8
:101F700059F1698148E0649FB00111248A81282FBA
:101F800030E0322F2227330F330F330F262B372B1E
:101F90008A858031E1F4688570E08F81AB01481B50
:101FA0005109CA019695982F8827979587950E9481
:101FB000D82160517109207F53E0220F331F5A95B9
:101FC000E1F7620F731F04C060E874EE01C0B9014D
:101FD000613854EE75070CF4BCCF072E000C880B4B
:101FE000990B0E947F2920E030E040E05CE30E94F2
:101FF000DE2961960FB6F894DEBF0FBECDBFDF912C
:10200000CF911F910F9108958F929F92AF92BF929F
:10201000CF92DF92EF92FF920F931F93CF93DF93B4
:10202000CDB7DEB72C970FB6F894DEBF0FBECDBF8D
:102030007C016AE372E0CE0101960E94551365E3CC
:1020400072E0CE0107960E945513AE014F5F5F4FBD
:10205000BE01695F7F4FC7010E94AF0CCE0107969A
:102060000E94B212CE0101960E94B2126AE372E09F
:10207000CE0101960E94551366E571E0CE010796E8
:102080000E945513AE014F5F5F4FBE01695F7F4FE6
:10209000C7010E94AF0CCE0107960E94B212CE017A
:1020A00001960E94B2126AE372E0CE0101960E948C
:1020B000551369E372E0CE0107960E945513AE01F5
:1020C0004F5F5F4FBE01695F7F4FC7010E94AF0C3A
:1020D000CE0107960E94B212CE0101960E94B21262
:1020E0006AE372E0CE0101960E9455136FE471E03D
:1020F000CE0107960E945513AE014F5F5F4FBE01A0
:10210000695F7F4FC7010E94AF0CCE0107960E9406
:10211000B212CE0101960E94B212D701CD90DC908E
:102120001197C114D10409F443C014960D911C9168
:10213000159701151105E1F146015401BFEF8B1A06
:102140009B0AF5018081082E000C990B0E944729FB
:10215000892B99F7015011090C0D1D1DD8018C9187
:10216000082E000C990B0E944729892B81F4A801A5
:102170004F5F5F4F4A195B09F70155834483CA14C7
:10218000DB0458F4B501C6010E94642306C00A1599
:102190001B0568F301501109E1CFD701ED91FC91C6
:1021A000119714968D919C911597E80FF91F108245
:1021B0002C960FB6F894DEBF0FBECDBFDF91CF9146
:1021C0001F910F91FF90EF90DF90CF90BF90AF9055
:1021D0009F908F900895DF92EF92FF920F931F933D
:1021E000CF93DF93CDB7DEB729970FB6F894DEBF54
:1021F0000FBECDBF8C017B01AE014F5F5F4F0E94D0
:102200007A09D82E882309F459C0F70180818031DA
:1022100009F454C08FE78D83F801858196810E946F
:10222000F707B701F801858196810E94CA0740E04F
:102230006EE4F801858196810E94880740E06B81F9
:10224000F801858196810E94880740E06C81F80141
:10225000858196810E948807F7018081803139F05D
:1022600040E06D81F801858196810E948807F80120
:10227000858196810E94F707B701F80185819681D3
:102280000E94CA07F801408168E4858196810E9416
:10229000880764E170E080E090E00E949D06F8010C
:1022A0008081882331F06AE070E080E090E00E9455
:1022B0009D06F801858196810E94F7078D2D29964C
:1022C0000FB6F894DEBF0FBECDBFDF91CF911F9147
:1022D0000F91FF90EF90DF900895CF93DF93FC0173
:1022E00024813581232B71F0FB01DC01CD91DC9140
:1022F00060817181CE010E949123009719F08C1B9F
:102300009D0B02C08FEF9FEFDF91CF9108950F9348
:102310001F93CF93DF9300D0CDB7DEB78C016983D5
:102320001A8241E050E0BE016F5F7F4F0E941012A1
:10233000811103C0C8010E943E12C8010F900F9086
:10234000DF91CF911F910F910895CF93DF93EC010F
:102350006115710561F0FB0101900020E9F73197EB
:10236000AF01461B570B0E941012811103C0CE0112
:102370000E943E12CE01DF91CF910895CF92DF925D
:10238000EF92FF920F931F93CF93DF936C017A012B
:102390008B01C0E0D0E0CE15DF0589F0D8016D914A
:1023A0008D01D601ED91FC910190F081E02DC601E7
:1023B0000995892B11F47E0102C02196ECCFC7014B
:1023C000DF91CF911F910F91FF90EF90DF90CF9011
:1023D00008950F931F93CF93DF93EC018881998128
:1023E000009729F02A813B812617370788F48B0153
:1023F0006F5F7F4F0E949522009761F099838883D9
:102400001B830A832C813D81232B11F4FC01108254
:1024100081E001C080E0DF91CF911F910F9108957D
:10242000EF92FF920F931F93CF93DF93FC012481D0
:1024300035816115710511F480E019C04115510510
:10244000A9F07B01EC018A01020F131FB8010E9461
:10245000E911882389F3288139818C819D81B70115
:10246000820F931F0E948A231D830C8381E0DF91DA
:10247000CF911F910F91FF90EF900895CF93DF932D
:10248000EC0188819981009711F00E9460241982E3
:1024900018821D821C821B821A82DF91CF910895BF
:1024A000CF93DF93EC01FB01448155816081718101
:1024B0000E941012811103C0CE010E943E12CE0173
:1024C000DF91CF910895EF92FF920F931F93CF93D7
:1024D000DF93EC017B018A01BA010E94E9118111AD
:1024E00004C0CE010E943E1207C01D830C83B701B9
:1024F000888199810E948A23CE01DF91CF911F911B
:102500000F91FF90EF900895CF93DF93EC01611549
:10251000710559F0FB0101900020E9F73197AF01F7
:10252000461B570B0E94631202C00E943E12CE014E
:10253000DF91CF910895CF93DF93EC01FB018617D4
:10254000970761F0608171816115710529F04481FF
:1025500055810E94631202C00E943E12CE01DF919B
:10256000CF910895FC01808191810C946024EF92B9
:10257000FF920F931F93CF93DF93CDB7DEB7A19751
:102580000FB6F894DEBF0FBECDBF7C01CB01BA0100
:10259000F70111821082138212821582148242E0A6
:1025A000420F8E010F5F1F4F0E94AB23BC01C7017A
:1025B0000E948412A1960FB6F894DEBF0FBECDBF65
:1025C000DF91CF911F910F91FF90EF9008950F939E
:1025D0001F93CF93DF93CDB7DEB729970FB6F8944B
:1025E000DEBF0FBECDBF8C01862FF8011182108295
:1025F000138212821582148250E0BE016F5F7F4FFA
:1026000090E00E945F25BE016F5F7F4FC8010E946E
:10261000841229960FB6F894DEBF0FBECDBFDF91AE
:10262000CF911F910F910895EF92FF920F931F93F7
:10263000CF93DF93EC01198218821B821A821D82CC
:102640001C826115710509F18B01CB010E942125C6
:102650007C01BC01CE010E94E911811109C0CE01AB
:10266000DF91CF911F910F91FF90EF900C943E124C
:10267000FD82EC82B80188819981DF91CF911F9111
:102680000F91FF90EF900C941A25DF91CF911F913D
:102690000F91FF90EF900895FC0111821082138238
:1026A0001282158214820C949B12FC0111821082FA
:1026B00013821282158214826115710551F0FB019B
:1026C00001900020E9F73197AF01461B570B0C949E
:1026D00063120895DC01ED91FC910190F081E02DF1
:1026E0000994DC01ED91FC91DB0114964D915C9114
:1026F00015976D917C910280F381E02D099461150D
:10270000710579F0FB0101900020E9F73197AF01E5
:10271000461B570BDC01ED91FC910280F381E02D0B
:10272000099480E090E0089568E372E00C947F13D0
:102730000F931F93CF93DF93EC010E947F138C01C3
:10274000CE010E949413800F911FDF91CF911F91B2
:102750000F9108950C947F13CF93DF93CDB7DEB71D
:10276000C158D1090FB6F894DEBF0FBECDBF789423
:1027700084B5826084BD84B5816084BD85B5826086
:1027800085BD85B5816085BD80916E008160809337
:102790006E001092810080918100826080938100A0
:1027A00080918100816080938100809180008160B0
:1027B000809380008091B10084608093B10080910B
:1027C000B00081608093B00080917A008460809333
:1027D0007A0080917A00826080937A0080917A00FA
:1027E000816080937A0080917A00806880937A007B
:1027F0001092C100E091AA02F091AB0282E08083C6
:10280000E091A602F091A7021082E091A802F09157
:10281000A90287E680831092B202E091AE02F091A5
:10282000AF0286E08083E091AC02F091AD0280813E
:1028300080618083E091AC02F091AD02808188607C
:102840008083E091AC02F091AD028081806880834A
:10285000E091AC02F091AD0280818F7D808381E5B3
:1028600091E00E94170E61E086E00E94610661E03F
:102870008DE00E94610661E085E00E94610661E0F2
:102880008AE00E94610661E08FE00E94610661E0DB
:102890008EE00E94610660E083E00E94610660E0D5
:1028A00089E00E94610640E060E081E00E94A60BA2
:1028B0006CE271E080E090E00E949D0640E061E003
:1028C00080E00E94A60B6CE271E080E090E00E9444
:1028D0009D0641E060E080E00E94A60B6CE271E0A2
:1028E00080E090E00E949D0640E060E081E00E9470
:1028F000A60B8CE893E0909363038093620310929D
:10290000610310925D0399E090935E0381E08093F0
:102910005F03809360032EE733E0309350032093EE
:102920004F0310924E0310924A0390934B038093EF
:102930004C0380934D0320E733E030933D03209315
:102940003C0310923B03109237039093380380931B
:10295000390380933A038DE593E00E94DB098AE412
:1029600093E00E94DB0987E393E00E94DB09BE014C
:102970006F5F7F4F8DE593E00E946E0F882339F0E3
:10298000BE016F5F7F4F8DE593E00E94EB10BE01AB
:102990006F5F7F4F8AE493E00E946E0F882339F0C7
:1029A000BE016F5F7F4F8AE493E00E94EB10BE018F
:1029B0006F5F7F4F87E393E00E946E0F882339F0AB
:1029C000BE016F5F7F4F8AE493E00E94EB108FEBB4
:1029D0009BE09093030180930201809169008C60D9
:1029E00080936900E99A08ED402E05E0502E8DECA9
:1029F000682E712CB5E5AB2EB12C1BEC812E912CE1
:102A000087EC90E00E94170E60E086E00E9431069D
:102A100060E08DE00E94310661E085E00E943106B1
:102A200060ED77E080E090E00E949D0661E08DE03F
:102A30000E94310660E085E00E9431066CED75E091
:102A400080E090E00E949D0661E086E00E943106F1
:102A500068EE73E080E090E00E949D0660E086E012
:102A60000E943106E1E7F0E08491ECEEF5E004919C
:102A7000F20114911123B1F381110E940806E12F94
:102A8000F0E0EE0FFF1FEB53FA4FA591B4918C913C
:102A9000082341F360ED77E080E090E00E949D061E
:102AA00087EB90E00E94170E80E9E82EF12C33248A
:102AB000339490E9C92E94E0D92E1092AB04109271
:102AC000AA041092A9041092A8041092A7041092CC
:102AD000A6047092AD046092AC0420919C0426314F
:102AE00008F057C0B092A704A092A6049092A9043F
:102AF0008092A804F092AB04E092AA04809168004E
:102B0000283058F091E02E3008F490E0F32D01C009
:102B1000FF0F9A95EAF79F2F01C094E0892B8093CD
:102B20006800283038F02E3040F0263148F080E040
:102B300090E008C08DE690E005C08BE690E002C012
:102B40008CE690E09093A4048093A304283030F4A2
:102B5000832D01C0880F2A95EAF713C0822F90E0D9
:102B60002E3040F40897232D01C0220F8A95EAF7F2
:102B7000822F07C00E97332D01C0330F8A95EAF7D5
:102B8000832F8093A5048091AC049091AD040197AC
:102B9000F1F78091AA049091AB04892B39F1E0916F
:102BA0008E04F0918F0444E0E039F407F9F0309797
:102BB00039F0A389B4899C918589809589238C9368
:102BC0008091AE048E7F8093AE0410923D021092ED
:102BD0003C02D0928F04C0928E04E091A304F09145
:102BE000A40490818091A504892B80830EE010E0DD
:102BF00080E994E00E947505892B29F080E994E032
:102C00000E948D05F5CF60ED77E084E391E00E94AE
:102C1000AB0E81112DC064EF71E080E090E00E9466
:102C20009D060150110921F760ED77E084E391E002
:102C30000E94AB0E64E670E080E090E00E949D068A
:102C400060ED77E084E391E00E94AB0E64E670E013
:102C500080E090E00E949D0660ED77E084E391E0E3
:102C60000E94AB0E64E670E080E090E00E949D065A
:102C700060ED77E084E391E00E94AB0E811106C025
:102C80006EE28AE992E00E941B0417CFEDE5F5E0C1
:102C90006591749180E594E00E941A2560ED77E0DB
:102CA00080E594E00E94AB0E64E670E080E090E086
:102CB0000E949D06EBE5F5E06591749180E594E056
:102CC0000E941A2560ED77E080E594E00E94AB0E4B
:102CD00064E670E080E090E00E949D06EFE5F5E09C
:102CE0006591749180E594E00E941A2560ED77E08B
:102CF00080E594E00E94AB0E64E670E080E090E036
:102D00000E949D06E1E6F5E06591749180E594E00E
:102D10000E941A2560ED77E080E594E00E94AB0EFA
:102D200064E670E080E090E00E949D06E3E6F5E056
:102D30006591749180E594E00E941A2560ED77E03A
:102D400080E594E00E94AB0E64E670E080E090E0E5
:102D50000E949D06E5E6F5E06591749180E594E0BA
:102D60000E941A2560ED77E080E594E00E94AB0EAA
:102D700064E670E080E090E00E949D06E7E6F5E002
:102D80006591749180E594E00E941A2560ED77E0EA
:102D900080E594E00E94AB0E64E670E080E090E095
:102DA0000E949D0660ED77E087E391E00E94AB0E04
:102DB00064E670E080E090E00E949D0684EB90E085
:102DC0000E94170EE7E9F5E06591749180E594E0C3
:102DD0000E941A2560ED77E080E594E00E94AB0E3A
:102DE00068EE73E080E090E00E949D068DEA90E03E
:102DF0000E94F60D8AE993E00E9404108AE993E0AC
:102E00000E944C0F80913E0290913F02029739F050
:102E100068EE73E080E090E00E949D06F3CF87E9C2
:102E200090E00E94F60DEEE1FE2E09E615E0F801B5
:102E30006591749180E594E00E941A2560ED77E039
:102E400080E594E00E94AB0E882369F16AE471E0AA
:102E500086EA93E00E949123009729F1FC01828188
:102E60008B7F813301F5EBE6F5E06591749180E5A8
:102E700094E00E941A2568EE73E080E594E00E94D9
:102E8000AB0EEDE6F5E06591749180E594E00E946B
:102E90001A2560ED77E080E594E00E94AB0E882370
:102EA00009F4A4C20BC068EE73E080E090E00E94D9
:102EB0009D06FA94F110BBCF11E0BFC2EFE6F5E03A
:102EC0006591749180E594E00E941A2560ED77E0A9
:102ED00080E594E00E94AB0E882309F489C2E9E9F9
:102EE000F5E06591749180E594E00E941A25EDE982
:102EF000F5E06591749188E794E00E941A2580E5D9
:102F000094E0892BE1F080E994E00E947505892B1B
:102F100029F080E994E00E948D05F5CF6EE38AE9FF
:102F200092E00E946A1360E574E08AE992E00E94F0
:102F3000981360E574E080E994E00E9498130E9481
:102F4000D7066B017C01312C0FE380E994E00E94ED
:102F50007505892B09F451C080E994E00E948D0524
:102F6000FEE7F31558F4E6EEF3E0A6EAB3E0902F9F
:102F700001900D929A95E1F77FE3372E11E0130D42
:102F8000E32DF0E0EA55FC4F8083E12FF0E0EA55B5
:102F9000FC4F10826DE471E086EA93E00E94912379
:102FA000892BA9F061E571E08AE992E00E94AA13F9
:102FB00066EA73E08AE992E00E94981365E571E0A1
:102FC00086EA93E00E949123009731F536C068E7C6
:102FD00074E086EA93E00E949123892B69F068E50A
:102FE00071E08AE992E00E94AA1366EA73E08AE936
:102FF00092E00E94981321C0312E0E94D706DC0176
:10300000CB018C199D09AE09BF09803D9740A105F0
:10301000B10508F49ACF11C08C010E5F1F4F62E218
:1030200070E0C8010E947F23009711F0FC0110821C
:10303000B80186EA93E00E948A2366EA73E0CE0133
:1030400088960E945513CE0188960E94041003E7CB
:1030500015E0F8016591749180E594E00E941A25CD
:1030600060E574E0CE0182960E945513BE016E5D4C
:103070007F4FCE0188960E946D117C01CE01829611
:103080000E94B212F7FC34C061E7E62E65E0F62E2E
:10309000F7016591749180E594E00E941A2560E53E
:1030A00074E082E394E00E948412E5E7F5E0659124
:1030B000749180E594E00E941A2560E574E088E34D
:1030C00094E00E94841260E574E08EE394E00E9434
:1030D0008412F7016591749180E594E00E941A25AD
:1030E00060E574E084E494E00E948412F8013EC03C
:1030F0006CE571E0CE0182960E945513BE016E5DB3
:103100007F4FCE0188960E946D118C01CE01829670
:103110000E94B21217FD31C0E9E7F5E065917491A4
:1031200088E794E00E941A2568E774E082E394E05F
:103130000E948412EBE7F5E06591749180E594E0DC
:103140000E941A2560E574E088E394E00E948412EE
:1031500060E574E08EE394E00E94841268E774E016
:1031600084E494E00E948412E7E7F5E065917491AD
:1031700080E594E00E941A2577C064E671E0CE01F4
:1031800082960E945513BE016E5D7F4FCE018896D8
:103190000E946D118C01CE0182960E94B21217FD21
:1031A00027C0EDE7F5E06591749180E594E00E9419
:1031B0001A25EFE7F5E06591749188E794E00E94A5
:1031C0001A2568E774E082E394E00E9484126AE3BF
:1031D00072E088E394E00E9484126AE372E08EE376
:1031E00094E00E94841268E774E084E494E03AC0BA
:1031F0006CE671E0CE0182960E945513BE016E5DB1
:103200007F4FCE0188960E946D118C01CE0182966F
:103210000E94B21217FD2EC0E3E8F5E065917491AB
:1032200080E594E00E941A25E5E8F5E06591749147
:1032300088E794E00E941A2568E774E082E394E04E
:103240000E9484126AE372E088E394E00E94841290
:103250006AE372E08EE394E00E94841268E774E00F
:1032600082E394E00E94841260E574E08AE992E0CF
:103270000E949813E7E8F5E06591749180E594E089
:103280000E941A2560E574E080E994E00E94AA1388
:1032900062E374E080E994E00E9471130E945D0F84
:1032A00060ED77E080E090E00E94AB0E811102C0FB
:1032B00014E095C0E9E8F5E06591749180E594E04B
:1032C0000E941A2560E574E080E994E00E94AA1348
:1032D00068E374E080E994E00E9471130E945D0F3E
:1032E00060ED77E080E090E00E94AB0E882301F370
:1032F000EBE8F5E06591749180E594E00E941A2571
:1033000060E574E080E994E00E94AA136EE374E043
:1033100080E994E00E9471130E945D0F60ED77E0F8
:1033200080E090E00E94AB0E882309F4C1CFEDE865
:10333000F5E06591749180E594E00E941A2560E5BE
:1033400074E080E994E00E94AA1364E474E080E9E8
:1033500094E00E9471130E945D0F60ED77E080E0C1
:1033600090E00E94AB0E882309F4A2CFEFE8F5E0CD
:103370006591749180E594E00E941A2560E177E2FE
:1033800080E594E00E94AB0EE1E9F5E0659174916F
:1033900080E594E00E941A2560E177E280E594E000
:1033A0000E94AB0EE3E9F5E06591749180E594E04D
:1033B0000E941A2560ED77E080E594E00E94AB0E54
:1033C000E5E9F5E06591749180E594E00E941A25A5
:1033D00060ED77E080E594E00E94AB0E10E0CE0156
:1033E00088960E94B212111128C004C012E025C0B4
:1033F00013E023C080913E0290913F02039739F081
:1034000062E370E080E090E00E949D06F3CF40E030
:1034100061E080E00E94A60B8EE491E00E94170E0E
:1034200003EA15E045EAE42E45E0F42EC12CD12C48
:1034300051EAA52E55E0B52E87C062E771E08AE912
:1034400092E00E94AA13612F70E080E090E04AE0D1
:103450000E94250E8AE992E00E94941366EA73E0C6
:103460008AE992E00E94981360ED77E080E090E0B6
:103470000E949D061450123008F0C2CA40E060E07D
:1034800081E00E94A60B8CE790E00E94F60D68EEAA
:1034900073E080E090E00E949D06E0E0F0E0099596
:1034A000A9CA68E873E188E794E00E94AB0E811135
:1034B00063C0109226046CE172E08AE992E00E94F7
:1034C000AA1366EA73E08AE992E00E94981366EA1A
:1034D00073E0CE0188960E94551368E471E0CE0136
:1034E00082960E941413BE016E5D7F4FCE018896B6
:1034F0000E946D114C01CE0182960E94B21297FC7F
:103500000CC080E391E00E94F60D68EE73E080E06D
:1035100090E00E949D06F6010995F5016591749170
:1035200080E594E00E941A2560ED77E080E594E064
:103530000E94AB0E68EE73E080E090E00E949D0672
:10354000CE0188960E94B212F8016591749180E5CF
:1035500094E00E941A25F7016591749188E794E040
:103560000E941A2560E177E280E594E00E94AB0EAC
:10357000882309F49ECF95CF81E08093260480E0D4
:1035800090E00E949F2A803209F445C08DE191E0CD
:103590000E94170E00E010E060E0C8010E94A72A18
:1035A0000F5F1F4F0F3FF3E01F07B1F76FE180E0A0
:1035B00090E00E94A72A34E0E32E31E0F32E08ECDD
:1035C00010E0F70161917F011BA30AA3CE0182964F
:1035D0000E945C0C0F5F1F4F0C3C110591F76EE7CA
:1035E00071E084E690E00E947C0C6BE871E088E773
:1035F00090E00E947C0C6BE871E08CE890E00E9407
:103600007C0C6BE871E08CED90E00E947C0C8CE00F
:1036100091E00E94170E68E971E080EA93E00E9451
:10362000841220EAE22E23E0F22E0CED10E0F701E6
:1036300061917F011BA30AA3CE0182960E945C0CBC
:103640000F5F1F4F023E110591F788EC90E00E943A
:10365000910E8CED90E00E94770E8EEF90E00E942C
:10366000F60D609104017091050180910601909121
:1036700007010E94680E80EA93E00E944C0F8CEED6
:1036800090E00E94170E0E94D7066093410270934B
:10369000420280934302909344028E010F5F1F4FBA
:1036A00080E994E00E947505892B09F4BEC064E6A8
:1036B00070E080E090E00E949D0680E994E00E9426
:1036C0007505892BB1F080E994E00E948D05809307
:1036D0008C0490938D0489831A8241E050E0B801F4
:1036E00087E294E00E9410126AE070E080E090E0CF
:1036F000E2CF87E294E00E944C0F82ED91E00E94BD
:10370000F60D87E294E00E944C0F6DEC71E0C80169
:103710000E941413B80187E294E00E946D117C01AD
:10372000C8010E94B212F7FC7AC0B80188E790E0A5
:103730000E94F30AB801CE01CA960E945513B8013F
:103740008CE890E00E94F30AB801CE01C4960E9472
:103750005513B8018CED90E00E94F30AB801CE0138
:103760008E960E945513BE01665C7F4F87E294E0FF
:103770000E946D1197FD08C08FEB91E00E94170E1B
:10378000BE01665C7F4F10C0BE016C5C7F4F87E25C
:1037900094E00E946D1197FD21C081EB91E00E94A1
:1037A000170EBE016C5C7F4FCE0182960E944C13B7
:1037B00067E274E0CE0188960E944C13BE016E5DF4
:1037C0007F4FCE0188960E94190BCE0188960E94E9
:1037D000B212CE0182960E94B21215C0BE01625D85
:1037E0007F4F87E294E00E946D1197FD08C087EA41
:1037F00091E00E94170EBE01625D7F4FD5CF89E92F
:1038000091E00E94170ECE018E960E94B212CE0158
:10381000C4960E94B212CE01CA960E94B2126AE306
:1038200072E087E294E00E9484120E94D7066B0146
:103830007C0180914002811104C088EC90E00E94DC
:10384000910E8091450290914602A0914702B0915D
:10385000480246015701881A990AAA0ABB0A209110
:103860000401309105014091060150910701A8EE35
:10387000B3E00E94B52A86169706A806B90608F492
:1038800000C48BE891E00E94F60D80914502909172
:103890004602A0914702B0914802A7019601281B59
:1038A000390B4A0B5B0BCA01B90128EE33E040E04B
:1038B00050E00E94EC21CA01B9010E94680E41E06B
:1038C00060E080E00E94A60BC0924502D0924602C2
:1038D000E0924702F092480286E791E00E94170EBC
:1038E0008DE593E00E944B098AE493E00E944B0926
:1038F00087E393E00E944B098DE593E00E94950FCA
:103900006B017C018AE493E00E94950F4B015C01FE
:1039100087E393E00E94950F2B013C01A5019401E0
:10392000C701B6010E942922A30192010E94292207
:103930002FE832EC41EB52E40E942922C258DF4FBB
:10394000688379838A839B83CE57D040EBE6F5E08A
:103950006591749180E594E00E941A2560ED77E00E
:1039600080E594E00E94AB0E6FE971E086EA93E097
:103970000E949123009769F005960E94FC248336EB
:10398000910539F08F3F3FEF930719F0382E292E1C
:1039900002C0312C212CEE961FAE1EAEEE9780EAAF
:1039A00090E00E949F2AED968FAFED9781EA90E01C
:1039B0000E949F2AEE968FAFEE9722E0C258DF4F0B
:1039C000488159816A817B81CE57D040CE01845B8A
:1039D0009F4F0E94B712B80184E690E00E94F30A5C
:1039E000B801CE018A5B9F4F0E945513CE018A5BBE
:1039F0009F4F0E944C0FB80188E790E00E94F30AA5
:103A0000B801CE01805C9F4F0E945513CE01805CAF
:103A10009F4F0E944C0FB8018CE890E00E94F30A7F
:103A2000B801CE01CA960E945513CE01CA960E94D3
:103A30004C0F8CED90E00E94770E64EA71E0CE01AD
:103A400082960E945513BE016A5B7F4FCE0182961B
:103A50000E945012BC01CE01C4960E944C13CE01AC
:103A600082960E94B2126BEA71E0CE0182960E94A9
:103A70005513BE01605C7F4FCE0182960E945012AA
:103A8000BC01CE018E960E944C13CE0182960E94FC
:103A9000B21261EB71E0CE0182960E945513BE0115
:103AA000665C7F4FCE0182960E945012BC01CE010F
:103AB00088960E944C13CE0182960E94B21267EB48
:103AC00071E0CE0182960E945513BE016A5B7F4F62
:103AD000CE0182960E94501267EB71E00E94A51100
:103AE000BE01605C7F4F0E94501267EB71E00E9444
:103AF000A511BE01665C7F4F0E94501267EB71E01A
:103B00000E94A51160EA73E00E945012BC01CE0130
:103B10008E5A9F4F0E944C13CE0182960E94B21281
:103B2000CE0188960E94B212CE018E960E94B212E9
:103B3000CE01C4960E94B212CE01CA960E94B21261
:103B4000CE01805C9F4F0E94B212CE018A5B9F4FD4
:103B50000E94B212EE968EAD9FADEE976A961FAEA2
:103B60001EAE6A976C961FAE1EAE6C976E961FAE19
:103B70001EAE6E974AE0B8010E942A25B801CE0118
:103B8000885A9F4F0E948412A0961FAE1EAEA09727
:103B9000A2961FAE1EAEA297A4961FAE1EAEA4970D
:103BA0002AE0A80160E070E0CB010E943D25B80149
:103BB000CE01825A9F4F0E948412A6961FAE1EAE5F
:103BC000A697A8961FAE1EAEA897AA961FAE1EAEC9
:103BD000AA974AE0B801832D922D0E942A25B801A8
:103BE000CE018C599F4F0E94841222E0B301A201A2
:103BF000CE0186599F4F0E94B71222E0B501A40161
:103C0000CE0180599F4F0E94B71222E0B701A60152
:103C1000CE018A589F4F0E94B71269EB71E0CE0126
:103C20008A5B9F4F0E945513EFE9F5E0659174910F
:103C300080E594E00E941A2560E177E280E594E057
:103C40000E94AB0E882309F4FBC06AE370E086EAA9
:103C500093E00E947F23009709F4F2C06CE270E0C9
:103C60000E947F23009709F4EBC07C014FEFE41A18
:103C7000F40AC7010E94F8246CE270E0C7010E94B8
:103C80007F23009709F4DCC07C015FEFE51AF50A99
:103C9000C7010E94F8246CE270E0C7010E947F23F4
:103CA000009709F4CDC07C01EFEFEE1AFE0AC701C0
:103CB0000E94FC24D82E6FE270E0C7010E947F238F
:103CC000009709F4BDC07C01FFEFEF1AFF0AC7019E
:103CD0000E94FC24C82E6FE270E0C7010E947F237F
:103CE000009709F4ADC07C012FEFE21AF20AC70178
:103CF0000E94FC24B82E6CE270E0C7010E947F2372
:103D0000009709F49DC07C013FEFE31AF30AC70155
:103D10000E94FC24A82E6AE370E0C7010E947F2362
:103D2000009709F48DC07C014FEFE41AF40AC70133
:103D30000E94FC24982E6AE370E0C7010E947F2352
:103D4000009709F47DC001960E94FC244AE0682F88
:103D5000C8010E94E7124AE0692DCE0182960E94B6
:103D6000E7124AE06A2DCE0188960E94E7124AE0E7
:103D70006B2DCE018E960E94E7124AE06C2DCE018B
:103D8000C4960E94E71260E36D0D4AE0CE01805CAC
:103D90009F4F0E94E712BE01605C7F4FCE01CA9622
:103DA0000E944C136FE2CE01CA960E948711BE0199
:103DB0006C5C7F4F0E9450126FE20E948711BE011F
:103DC000625D7F4F0E9450126CE20E948711BE011B
:103DD000685D7F4F0E9450126AE30E948711BE0106
:103DE0006E5D7F4F0E9450126AE30E948711B801F6
:103DF0000E9450126AEC71E00E94A511BC01CE0134
:103E00008A5B9F4F0E949B12CE01CA960E94B212FB
:103E1000CE01805C9F4F0E94B212CE01C4960E94D8
:103E2000B212CE018E960E94B212CE0188960E94E6
:103E3000B212CE0182960E94B212C8010E94B21242
:103E40006EEC71E0C8010E9455136AE973E0C80185
:103E50000E94501267EB71E00E94A511BE016A5BDF
:103E60007F4F0E945012BC01CE0182960E944C13DB
:103E7000C8010E94B212CE018A5B9F4F0E94B2120B
:103E8000BE016E5D7F4FC8010E944C1367EB71E06D
:103E9000C8010E94A511BE016A587F4F0E945012AE
:103EA00067EB71E00E94A511BE0160597F4F0E942F
:103EB000501267EB71E00E94A511BE0166597F4F59
:103EC0000E94501267EB71E00E94A511BE016C596F
:103ED0007F4F0E94501267EB71E00E94A511BE0156
:103EE000625A7F4F0E94501267EB71E00E94A51149
:103EF000BE01685A7F4F0E945012BE016E5A7F4F1A
:103F00000E94501267EB71E00E94A511BE01645B34
:103F10007F4F0E945012BC01CE0188960E944C1324
:103F2000C8010E94B212CE0182960E94B212CE0146
:103F30008A589F4F0E94B212CE0180599F4F0E9413
:103F4000B212CE0186599F4F0E94B212CE018C59F7
:103F50009F4F0E94B212CE01825A9F4F0E94B2120E
:103F6000CE01885A9F4F0E94B212CE018E5A9F4FA7
:103F70000E94B212CE01845B9F4F0E94B21286E66D
:103F800091E00E94170E6CA57DA580E090E04AE0CC
:103F90000E94250E8AE992E00E94941368EE73E075
:103FA00082ED91E00E94AB0E68EE73E080E090E05D
:103FB0000E949D0668EE73E08CED91E00E94AB0ECE
:103FC00068EE73E080E090E00E949D0668EE73E08A
:103FD0008FEE91E00E94AB0E68EE73E080E090E01F
:103FE0000E949D0668EE73E088EF91E00E94AB0EA0
:103FF00068EE73E080E090E00E949D0661E072E070
:1040000080E994E00E94AA136EE072E080E994E0F7
:104010000E94AA130E945D0FCE0188960E94B212E0
:1040200040E061E080E00E94A60B8CE791E00E94F6
:10403000F60D8091BB049091BC04009711F481ECC3
:1040400094E06801C81AD90A0D2C000CEE08FF088C
:10405000F7FE0EC06DE28AE992E00E946A136627BD
:104060007727CB016C197D098E099F094AE003C0AF
:104070004AE0C701B6010E94250E8AE992E00E943B
:1040800094130E94D706C0904102D0904202E09063
:104090004302F0904402DC01CB018C199D09AE096A
:1040A000BF0981309C45A642B54018F0E0E0F0E041
:1040B000099564EF71E080E090E00E949D060E9407
:1040C0008404EECA8AE993E00E94B2128FEA94E077
:1040D0000E94B21280EA93E00E94B21285EB94E053
:1040E0000E94B21284E494E00E94B2128EE394E043
:1040F0000E94B21288E394E00E94B21282E394E03C
:104100000E94B21287E294E00E94B21288E291E02B
:10411000909391048093900480918E0490918F04E9
:104120008059944071F4E091A304F091A40490812B
:104130008091A50480958923808310928F0410922A
:104140008E04089510929D0210929C0288EE93E0D6
:10415000A0E0B0E080939E0290939F02A093A00203
:10416000B093A10228E131E030939B0220939A02A0
:1041700025EC30E03093A7022093A60224EC30E037
:104180003093A9022093A80220EC30E03093AB02D8
:104190002093AA0221EC30E03093AD022093AC02D0
:1041A00022EC30E03093AF022093AE0226EC30E0F8
:1041B0003093B1022093B0021092B3021092B40275
:1041C0001092B5021092B6021092930410929204CB
:1041D0008093940490939504A0939604B0939704CD
:1041E00088E291E090939104809390041092A70448
:1041F0001092A6041092A9041092A8041092AB0485
:104200001092AA041092AD041092AC046091AE0416
:104210006E7F6D7F6093AE046695617081E0682764
:1042200087E00E94310661E087E00E946106EAEEC5
:10423000F5E0E491E093A004E6EDF5E0E491F0E030
:10424000EE0FFF1FE554FA4F859194919093A204CD
:104250008093A10460E088E00E9461068091AE0432
:1042600081FD04C061E088E00E94310688E080930F
:104270009C04EBEEF5E0E491E0939D04E7EDF5E0BE
:10428000E491F0E0EE0FFF1FEB53FA4F859194910C
:1042900090939F0480939E04109226046AE372E038
:1042A00087E294E00E9455136AE372E082E394E0AF
:1042B0000E9455136AE372E088E394E00E9455136C
:1042C0006AE372E08EE394E00E9455136AE372E0C1
:1042D00084E494E00E94551310928D0410928C0493
:1042E0006AE372E085EB94E00E9455136AE372E0A2
:1042F00080EA93E00E9455136AE372E08FEA94E04B
:104300000E94551361E272E08AE993E00E9455131E
:1043100060E18CE893E00E941C0961E18EE793E084
:104320000E941C0964E080E793E00E941C0927E0DA
:1043300035E030936F0320936E038CE893E0909305
:104340006303809362031092610310925D0399E00E
:1043500090935E0381E080935F03809360033093CA
:104360005C0320935B034EE753E05093500340936C
:104370004F0310924E0310924A0390934B03809385
:104380004C0380934D03309349032093480320E767
:1043900033E030933D0320933C0310923B03109293
:1043A0003703909338038093390380933A03089539
:1043B00097FB072E16F4009407D077FD09D00E94D2
:1043C0000E2207FC05D03EF4909581959F4F0895ED
:1043D000709561957F4F0895A1E21A2EAA1BBB1B11
:1043E000FD010DC0AA1FBB1FEE1FFF1FA217B307C1
:1043F000E407F50720F0A21BB30BE40BF50B661FD7
:10440000771F881F991F1A9469F76095709580959A
:1044100090959B01AC01BD01CF010895AA1BBB1B68
:1044200051E107C0AA1FBB1FA617B70710F0A61BB4
:10443000B70B881F991F5A95A9F780959095BC01D5
:10444000CD010895EE0FFF1F0590F491E02D099422
:104450005058BB27AA270E9440220C94652A0E942C
:10446000572A38F00E945E2A20F039F49F3F19F451
:1044700026F40C94542A0EF4E095E7FB0C944E2A93
:10448000E92F0E94762A58F3BA1762077307840748
:10449000950720F079F4A6F50C94982A0EF4E0958F
:1044A0000B2EBA2FA02D0B01B90190010C01CA01EE
:1044B000A0011124FF27591B99F0593F50F4503E99
:1044C00068F11A16F040A22F232F342F4427585F8B
:1044D000F3CF469537952795A795F0405395C9F7A3
:1044E0007EF41F16BA0B620B730B840BBAF091505B
:1044F000A1F0FF0FBB1F661F771F881FC2F70EC0FA
:10450000BA0F621F731F841F48F4879577956795CC
:10451000B795F7959E3F08F0B0CF9395880F08F0B8
:104520009927EE0F979587950895A0E0B0E0EBE905
:10453000F2E20C94C42AEC01009721F4CB010E9412
:10454000CB23B8C0FC01E60FF71F9C0122503109B4
:10455000E217F30708F4ACC0D9010D911C91119733
:1045600006171707B0F00530110508F49FC0C80101
:1045700004978617970708F499C002501109061B83
:10458000170B019311936D937C93CF010E946024CC
:104590008DC05B01A01AB10A4C01800E911EA09142
:1045A000BD04B091BE0440E050E0E12CF12C109726
:1045B00009F44AC0A815B905D1F56D907C90119702
:1045C000630182E0C80ED11CCA14DB0480F1A30190
:1045D0004A195B096A0182E0C80ED11C1296BC9090
:1045E00012971396AC91B5E0CB16D10440F0B2828D
:1045F000A38351834083D9016D937C930AC00E5FDE
:104600001F4FC301800F911FF90191838083EB2D10
:10461000FA2FE114F10431F0D7011396FC93EE93D5
:10462000129744C0F093BE04E093BD043FC08D9147
:104630009C9111974817590708F4AC017D01129617
:104640000D90BC91A02DB3CF8091BB049091BC0480
:1046500088159905E1F446175707C8F480910801B9
:1046600090910901009741F48DB79EB740910C01DC
:1046700050910D01841B950BE817F907C8F4F093CE
:10468000BC04E093BB04F901718360830FC0CB01CC
:104690000E94CB237C01009759F0A801BE010E9423
:1046A0006423CE010E946024C70104C0CE0102C071
:1046B00080E090E0CDB7DEB7EEE00C94E02A81E038
:1046C00090E0F8940C94062BFB01DC0102C00190F1
:1046D0000D9241505040D8F708956817790768F453
:1046E000FB01DC01E40FF51FA40FB51F02C002900F
:1046F0000E9241505040D8F708950C946423FC0169
:104700008191861721F08823D9F799270895319749
:10471000CF010895FB01DC0101900D920020E1F72B
:104720000895FB0151915523A9F0BF01DC014D9182
:1047300045174111E1F759F4CD010190002049F0EE
:104740004D9140154111C9F3FB014111EFCF81E0BB
:1047500090E001970895EF920F931F93CF93DF930B
:10476000E80147FD02C034E001C034E1E42F440F0A
:10477000FF0BF7FF03C0F195E195F109E32E022F3E
:104780002E2FAE010E948425CE01DF91CF911F9183
:104790000F91EF900895CF93DF938230910510F43D
:1047A00082E090E0E091BD04F091BE0420E030E0B2
:1047B000C0E0D0E0309711F140815181481759078E
:1047C000C0F04817590761F482819381209719F04E
:1047D0009B838A832BC09093BE048093BD0426C024
:1047E0002115310519F04217530718F49A01BE013B
:1047F000DF01EF010280F381E02DDCCF21153105CF
:1048000009F1281B390B2430310590F412968D9153
:104810009C9113976115710521F0FB0193838283AD
:1048200004C09093BE048093BD04FD01329644C041
:10483000FD01E20FF31F81939193225031092D93D3
:104840003C933AC02091BB043091BC04232B41F42B
:1048500020910A0130910B013093BC042093BB04DA
:1048600020910801309109012115310541F42DB73E
:104870003EB740910C0150910D01241B350BE09186
:10488000BB04F091BC04E217F307A0F42E1B3F0B0E
:104890002817390778F0AC014E5F5F4F24173507B2
:1048A00048F04E0F5F1F5093BC044093BB048193AC
:1048B000919302C0E0E0F0E0CF01DF91CF91089545
:1048C0000F931F93CF93DF93009709F48CC0FC01E3
:1048D0003297138212820091BD041091BE0401151B
:1048E000110581F420813181820F931F2091BB0437
:1048F0003091BC042817390779F5F093BC04E09394
:10490000BB0471C0D80140E050E0AE17BF0750F4BF
:1049100012962D913C911397AD012115310509F1A6
:10492000D901F3CF9D01DA01338322836081718144
:10493000860F971F8217930769F4EC01288139814C
:10494000260F371F2E5F3F4F318320838A819B8143
:1049500093838283452B29F4F093BE04E093BD0436
:1049600042C01396FC93EE931297ED014991599131
:104970009E01240F351FE217F30771F480819181A6
:10498000840F951F029611969C938E93828193813A
:1049900013969C938E931297E0E0F0E0D801129664
:1049A0008D919C911397009719F0F8018C01F6CF27
:1049B0008D919C9198012E5F3F4F820F931F209104
:1049C000BB043091BC042817390769F4309729F4E7
:1049D0001092BE041092BD0402C013821282109382
:1049E000BC040093BB04DF91CF911F910F910895F8
:1049F000662777270C941227FC0188279927E894CB
:104A000021912032E9F3293010F02E30C8F32B32F7
:104A100041F02D3239F4689404C00E943525820F8C
:104A2000911D219120532A30C0F31EF49095819559
:104A30009F4F0895FB01DC0105900D920020E1F7E6
:104A40000895FC0105900020E9F7809590958E0F60
:104A50009F1F0895BB274A3031F4992322F4BDE209
:104A6000909581959F4F0C946B257AE0979F902DA0
:104A7000879F802D910D11240895BB27FA01A62F41
:104A80006217710581059105330B30FB66F0AA278B
:104A9000660F771F881F991FAA1FA21710F0A21B6D
:104AA00063953850A9F7A05DAA3308F0A95DA193DA
:104AB00036F7B111B1931082CA010C9468294532BE
:104AC000510520F4423010F00C946A25FB0110824D
:104AD000CB010895BB27FB015527AA27880F991FF3
:104AE000AA1FA41710F0A41B83955051B9F7A05D1D
:104AF000AA3308F0A95DA193009779F7B111B1939A
:104B00001192CB010C9468294F925F926F927F9221
:104B10009F92AF92BF92CF92DF92EF92FF920F934C
:104B20001F93CF93DF93CDB7DEB729970FB6F894D5
:104B3000DEBF0FBECDBF6A01122FB02E2BE32017B0
:104B400020F0FF24F394F00E02C0BCE3FB2E0F2DE7
:104B500027E0AE014F5F5F4F0E946F28AC01898153
:104B6000982F9970913031F0E1FC06C0E0FE06C04C
:104B700090E205C09DE203C09BE201C090E0EE2DF3
:104B8000E07183FF3CC0911102C083E001C084E06A
:104B9000811718F4212F281B01C020E0E1110BC060
:104BA000F601822F30E2882319F031938150FBCF38
:104BB000C20ED11C20E0992329F0D6019C93F60166
:104BC00031966F01C6010396E2FE0AC03EE4D601AB
:104BD0003C9341E411964C93119712963C9306C076
:104BE0003EE6F601308341E641833283FC01322FF9
:104BF00040E2332309F442C041933150FACF82FF9F
:104C000044C0911102C083E001C084E0811718F410
:104C1000212F281B01C020E0E1110BC0F601822FDB
:104C200030E2882319F031938150FBCFC20ED11CA2
:104C300020E0992329F0D6019C93F60131966F016B
:104C4000C6010396E2FE0BC039E4D6013C933EE474
:104C500011963C93119736E412963C9307C039E6BF
:104C6000F60130833EE6318336E63283FC01322F93
:104C700040E2332319F041933150FBCFFC01E20FA6
:104C8000F11D10828EEF9FEFB7C0F1E0911101C0CE
:104C9000F0E06F2F70E01416150624F49A012F5FD0
:104CA0003F4F02C021E030E0260F371FBB2029F024
:104CB0006B2D70E06F5F7F4F02C060E070E0260FE9
:104CC000371F612F70E0261737071CF4121B212FA6
:104CD00001C020E03E2D387159F4D601322F60E238
:104CE000332319F06D933150FBCFC20ED11C20E05D
:104CF000FF2331F0D6019C93B6016F5F7F4F6B01AC
:104D0000E1110BC0F601922F30E3992319F0319392
:104D10009150FBCFC20ED11C20E09F2D940F3A8101
:104D2000782F7071A72E84FF03C0313309F491509E
:104D3000191624F4993018F098E001C091E0E42F9E
:104D4000852F57FF02C0E0E080E06E2F782FE0E073
:104D5000F0E0AEE29A2E3A01691A71082A01461A69
:104D6000570A0B2D10E01195019511096F3F8FEF38
:104D7000780729F4D6019C92C60101966C0146176A
:104D8000570784F0661677066CF47F01E40CF51C77
:104D9000A1E0B0E0AC0FBD1FEA0EFB1ED7011196DB
:104DA000BC9002C090E3B92E615071093196C601E2
:104DB00001967C016017710724F0D601BC926C014A
:104DC000D5CF6417750741F4363320F4353321F419
:104DD000A11002C081E3B82EF601B082F701822F44
:104DE00090E2882319F091938150FBCFF701E20FF5
:104DF000F11D108280E090E029960FB6F894DEBF96
:104E00000FBECDBFDF91CF911F910F91FF90EF901B
:104E1000DF90CF90BF90AF909F907F906F905F900A
:104E20004F900895A0E0B0E0E8E1F7E20C94C42AC6
:104E3000EC017B016115710519F0DB018D939C93E9
:104E40008E010F5F1F4F7880872D90E00E944729C9
:104E5000892B11F0E801F4CFBDE27B1205C00F5F92
:104E60001F4F7980C1E008C0EBE27E1204C08E01C2
:104E70000E5F1F4F7980C0E06801F1E0CF1AD108C2
:104E800043E050E06FEF75E0C6010E945029892B86
:104E9000F1F4680122E0C20ED11C45E050E06AEF57
:104EA00075E0C6010E945029892B21F4680187E032
:104EB000C80ED11CE114F10419F0D701CD92DC9297
:104EC000C111FFC060E070E080E89FE703C143E0EC
:104ED00050E067EF75E0C6010E945029892B51F41C
:104EE000E114F10409F4F2C00E5F1F4FF7011183C2
:104EF0000083ECC0680160E070E0CB0100E010E0EE
:104F0000F601D0EDD70DDA3058F52C2F2260622E45
:104F10002C2F2870C2FF05C0211128C00F5F1F4F22
:104F200025C0222311F001501109A5E0B0E09B013A
:104F3000AC010E94B52A4B015C01880C991CAA1C8B
:104F4000BB1CC501B4016D0F711D811D911D683918
:104F5000A9E97A078A07A9E19A0740F0C66005C067
:104F6000DE3F51F4C3FD44C0C8606C2EBFEFCB1AC6
:104F7000DB0A7080C62DC4CF2D2F2F7D2531C1F5C2
:104F800040814D3211F4C06106C04B3221F03196A0
:104F900021E030E006C03296D60111964C9122E015
:104FA00030E0A0EDA40FAA3018F0E21BF30B20C0F4
:104FB00040E050E04038BCE05B075CF49A01220F0F
:104FC000331F220F331F420F531F440F551F4A0F29
:104FD000511D3196DF0111972C91A0EDA20FAA303F
:104FE00048F3C4FF03C0519541955109040F151FA3
:104FF000C1FF07C0E114F10421F03197D701ED930F
:10500000FC930E947D29C370C33019F06B017C01B1
:1050100006C06B017C01F7FAF094F7F8F09420E0F9
:1050200030E0A901C701B6010E947829882309F45C
:1050300045C017FF06C0119501951109C6E1D6E0DC
:1050400002C0CEE2D6E05E01B8E1AB1AB10846017B
:10505000BE2DAF2D90E2E92EF12C0E151F0584F028
:10506000FE012591359145915491B4018B2F9A2FD2
:105070000E94DE294B01B82FA92F0E191F09EDCF71
:105080002497F594E794CA15DB0539F76401EB2EF4
:10509000FA2E8E2D880F8F2D881F8F3F49F020E02C
:1050A00030E0A901C701B6010E947829811106C02C
:1050B00082E290E09093C0048093BF04C701B601E0
:1050C00009C060E070E080E89FEF04C060E070E03D
:1050D00080EC9FE7CDB7DEB7EEE00C94E02A2830F5
:1050E00008F027E03327DA01990F311D87FD916021
:1050F00000966105710539F432602E5F3D9330E30F
:105100002A95E1F708959F3F30F0803871056105D9
:1051100009F03C5F3C5F3D93913008F08068911D41
:10512000DF93CF931F930F93FF92EF92192F987FE6
:105130009695E92F96959695E90FFF27E457F94F35
:1051400099273327EE24FF24A701E701059008944F
:10515000079428F4360FE71EF81E491F511D660FED
:10516000771F881F991F0694A1F70590079428F4CC
:10517000E70EF81E491F561FC11D770F881F991F84
:10518000661F0694A1F70590079428F4F80E491FAE
:10519000561FC71FD11D880F991F661F771F0694C2
:1051A000A1F70590079420F4490F561FC71FD81F79
:1051B000990F661F771F881F0694A9F78491109591
:1051C000177041F0D695C79557954795F794E79492
:1051D0001A95C1F7E2E3F6E06894159015913591C0
:1051E0006591959105907FE27395E118F10A430B63
:1051F000560BC90BD009C0F7E10CF11E431F561F17
:10520000C91FD01D7EF4703311F48A95E6CFE8945F
:10521000015030F0080F0AF40027021708F4202F7D
:105220002395022F7A3328F079E37D932A95E9F7C5
:1052300010C07D932A9589F60694979567953795C2
:1052400017951794E118F10A430B560BC90BD009B7
:1052500098F023957E9173957A3308F070E37C93F0
:105260002013B8F77E9170617D9330F0839571E3E0
:105270007D9370E32A95E1F71124EF90FF900F9151
:105280001F91CF91DF91992787FD909508959111F6
:105290000C944B2A803219F089508550C8F7089534
:1052A000FB01DC014150504088F08D9181341CF0AD
:1052B0008B350CF4805E659161341CF06B350CF419
:1052C000605E861B611171F3990B0895881BFCCFFA
:1052D000DC01FC01672F71917723E1F7329704C05D
:1052E0007C916D9370836291AE17BF07C8F30895E8
:1052F0000E94BA2908F481E00895E89409C097FB58
:105300003EF490958095709561957F4F8F4F9F4F9C
:105310009923A9F0F92F96E9BB279395F6958795E0
:1053200077956795B795F111F8CFFAF4BB0F11F4A3
:1053300060FF1BC06F5F7F4F8F4F9F4F16C088234A
:1053400011F096E911C0772321F09EE8872F762F80
:1053500005C0662371F096E8862F70E060E02AF0C1
:105360009A95660F771F881FDAF7880F96958795AD
:1053700097F90895990F0008550FAA0BE0E8FEEF82
:1053800016161706E807F907C0F012161306E40709
:10539000F50798F0621B730B840B950B39F40A2602
:1053A00061F0232B242B252B21F408950A2609F4E0
:1053B000A140A6958FEF811D811D08950E94F129BE
:1053C0000C94652A0E94572A38F00E945E2A20F029
:1053D000952311F00C944E2A0C94542A11240C9409
:1053E000992A0E94762A70F3959FC1F3950F50E099
:1053F000551F629FF001729FBB27F00DB11D639F87
:10540000AA27F00DB11DAA1F649F6627B00DA11D2C
:10541000661F829F2227B00DA11D621F739FB00DD2
:10542000A11D621F839FA00D611D221F749F332742
:10543000A00D611D231F849F600D211D822F762FDB
:105440006A2F11249F5750409AF0F1F088234AF0B8
:10545000EE0FFF1FBB1F661F771F881F9150504024
:10546000A9F79E3F510580F00C944E2A0C94992A7E
:105470005F3FE4F3983ED4F3869577956795B795AB
:10548000F795E7959F5FC1F7FE2B880F911D9695C5
:10549000879597F9089599278827089597F99F6721
:1054A00080E870E060E008959FEF80EC08950024AC
:1054B0000A941616170618060906089500240A9479
:1054C00012161306140605060895092E0394000CFF
:1054D00011F4882352F0BB0F40F4BF2B11F460FF8E
:1054E00004C06F5F7F4F8F4F9F4F089557FD9058B7
:1054F000440F551F59F05F3F71F04795880F97FB98
:10550000991F61F09F3F79F0879508951216130651
:105510001406551FF2CF4695F1DF08C01616170680
:105520001806991FF1CF86957105610508940895B5
:10553000E894BB2766277727CB0197F90895F99957
:10554000FECF92BD81BDF89A992780B50895262F88
:10555000F999FECF1FBA92BD81BD20BD0FB6F89458
:10556000FA9AF99A0FBE019608950E94F72AA59F0C
:10557000900DB49F900DA49F800D911D112408954E
:105580002F923F924F925F926F927F928F929F9253
:10559000AF92BF92CF92DF92EF92FF920F931F9341
:1055A000CF93DF93CDB7DEB7CA1BDB0B0FB6F894F2
:1055B000DEBF0FBECDBF09942A88398848885F8432
:1055C0006E847D848C849B84AA84B984C884DF80A3
:1055D000EE80FD800C811B81AA81B981CE0FD11D87
:1055E0000FB6F894DEBF0FBECDBFED010895A29FA8
:1055F000B001B39FC001A39F700D811D1124911DA7
:10560000B29F700D811D1124911D089513E0C7E90B
:10561000D3E004C0FE010E9422222196C839D1079E
:06562000C9F7F894FFCF6A
:10562600B304B3041E0000000000C10480005E0045
:10563600BC007701000000001B04BE11E403C20396
:10564600D6036204000000002105BE1175058D0514
:105656000805200541540041542B434D4744413D24
:105666002244454C20414C4C2200302C004F4B0D1F
:10567600005B315D002C22005B325D004265656C8B
:10568600696E65004D656761466F6E0054454C4511
:1056960032004572726F7220636F64653A002B3771
:1056A60039383538323538383436002B37393939C8
:1056B6003030303030303000534D532E5255004389
:1056C60053513A006D7974656C3D0074656C313DDB
:1056D6000074656C323D00400031372F30312F3079
:1056E600312C31303A31303A31302030300074319B
:1056F6003D0041542B43474154543F0041542B43F2
:105706005354543D22696E7465726E65742200416D
:10571600542B43494943520041542B434946535263
:105726000041542B43495050494E473D220077775C
:10573600772E79616E6465782E7275003E002E2E86
:105746000038363134343530333033363232363849
:0C575600005B305D004F4B000D0A0000AE
:107800000C94343C0C94513C0C94513C0C94513CE1
:107810000C94513C0C94513C0C94513C0C94513CB4
:107820000C94513C0C94513C0C94513C0C94513CA4
:107830000C94513C0C94513C0C94513C0C94513C94
:107840000C94513C0C94513C0C94513C0C94513C84
:107850000C94513C0C94513C0C94513C0C94513C74
:107860000C94513C0C94513C11241FBECFEFD8E036
:10787000DEBFCDBF11E0A0E0B1E0ECE9FFE702C060
:1078800005900D92A230B107D9F712E0A2E0B1E065
:1078900001C01D92AD30B107E1F70E942D3D0C945F
:1078A000CC3F0C94003C982F959595959595959582
:1078B000905D8F708A307CF0282F295A8091C0000B
:1078C00085FFFCCF9093C6008091C00085FFFCCF60
:1078D0002093C6000895282F205DF0CF982F809127
:1078E000C00085FFFCCF9093C6000895EF92FF92F1
:1078F0000F931F93EE24FF2487018091C00087FD22
:1079000017C00894E11CF11C011D111D81E4E8164B
:1079100082E4F8068FE0080780E0180770F3E09132
:107920000401F091050109958091C00087FFE9CF1E
:107930008091C6001F910F91FF90EF9008950E94D3
:10794000763C982F8091C00085FFFCCF9093C600B5
:1079500091362CF490330CF09053892F089597555D
:10796000892F08951F930E949F3C182F0E949F3CCF
:107970001295107F810F1F9108951F93182F882350
:1079800021F00E94763C1150E1F71F9108951F935A
:10799000182F0E94763C803249F0809103018F5F5E
:1079A000809303018530C1F01F9108958091C0003C
:1079B00085FFFCCF84E18093C6008091C00085FFE5
:1079C000FCCF1093C6008091C00085FFFCCF80E102
:1079D0008093C6001F910895E0910401F091050184
:1079E00009951F9108950E94763C803241F0809164
:1079F00003018F5F80930301853081F008958091AA
:107A0000C00085FFFCCF84E18093C6008091C00058
:107A100085FFFCCF80E18093C6000895E0910401CA
:107A2000F09105010995089540E951E08823A1F0FE
:107A30002D9A28EE33E0FA013197F1F721503040CA
:107A4000D1F72D9828EE33E0FA013197F1F7215064
:107A50003040D1F7815061F708953F924F925F9285
:107A60006F927F928F929F92AF92BF92CF92DF924E
:107A7000EF92FF920F931F93CF93DF93000080E16B
:107A80008093C4001092C50088E18093C10086E015
:107A90008093C2005098589A259A81E00E94143D24
:107AA00024E1F22E9EE1E92E85E9D82E0FE0C02ECA
:107AB00010E1B12EAA24A394B1E49B2EA6E58A2E50
:107AC000F2E57F2EE0E26E2E79E4572E63E5462E36
:107AD00050E5352E0E94763C8033B1F18133B9F107
:107AE000803409F46FC0813409F476C0823409F41B
:107AF00085C0853409F488C0803531F1823521F1A3
:107B0000813511F1853509F485C0863509F48DC0BC
:107B1000843609F496C0843709F403C1853709F423
:107B200072C1863709F466C0809103018F5F80932C
:107B30000301853079F6E0910401F0910501099582
:107B40000E94763C803351F60E94F33CC3CF0E94E2
:107B5000763C803249F78091C00085FFFCCFF092DF
:107B6000C6008091C00085FFFCCF9092C600809136
:107B7000C00085FFFCCF8092C6008091C00085FFC9
