:100000000C9409040C94C6070C949F070C94EB0AFB
:100010000C94EB0A0C94EB0A0C9431040C9431040C
:100020000C9431040C9431040C9431040C9431047C
:100030000C9431040C9431040C9431040C9431046C
:100040000C9455070C9431040C9448060C94220629
:100050000C9431040C9431040C9431040C9431044C
:100060000C9431040C9431040000000800020100DB
:100070000003040700000000000000004750525336
:1000800020636F6E6E656374204F4B212D004661B7
:10009000696C656420696E69742047505253000A88
:1000A0004750525320636F6E6E656374204F4B212F
:1000B0002B004750525320636F6E6E656374202E81
:1000C0002E0072737369202E2E000A5265676973C1
:1000D000746572656420726F616D696E67000A52A3
:1000E0006567697374657265642028686F6D65293A
:1000F000003A20000A4E6574776F726B207374614A
:10010000747573200053657474696E672075702070
:100110006E6574776F726B2E2E2E000A494D45491D
:100120003A004F4B00506F7765722053494D38307D
:1001300030204F6E00496E697469616C697A696E2E
:10014000672E2E2E2E284D61792074616B65203527
:10015000207365636F6E647329000A53494D38300C
:100160003020736574757020656E6400496E746527
:100170007276616C207365633A00436C656172202E
:10018000454550524F4D20456E6400537461727462
:1001900020636C65617220454550524F4D000A4EF8
:1001A0006F20696E7465726E657420636F6E6E6524
:1001B0006374696F6E004552524F52004F4B000AF4
:1001C0002053494D38303020736574757020737436
:1001D00061727400204572726F72733A00546F74CA
:1001E000616C3A006E6F20636F6D70617265006EB6
:1001F0006F20636F6D70617265006E6F20636F6D4D
:1002000070617265006E6F20636F6D706172650062
:100210005B5061796C6F61645D2000546865206E8D
:10022000756D626572206F662073657276657220E7
:100230006572726F727320657863656564656420AA
:10024000323000436F6E6E656374206572726F7238
:100250000052657175657374696E6720000A667275
:100260006565206D656D6F72793A2000496E746521
:100270007276616C207365633A0070686F6E6520FA
:1002800069676E6F72656400534D532063656E74C9
:100290007200436F6D6D616E64612074656C320035
:1002A000436F6D6D616E64612074656C31002B432A
:1002B0004D5400534D533A00556E6B6E6F776E2060
:1002C000636F6D6D616E640054696D656F66660085
:1002D0005265737461727400526573746172740054
:1002E00054696D6573657400005EBCE2613FDD8337
:1002F000C29C7E20A3FD1F419DC3217FFCA2401E06
:100300005F01E3BD3E6082DC237D9FC1421CFEA0F5
:10031000E1BF5D0380DE3C62BEE0025CDF81633DE5
:100320007C22C09E1D43A1FF4618FAA427799BC5D5
:1003300084DA3866E5BB5907DB856739BAE40658C5
:100340001947A5FB7826C49A653BD987045AB8E6B5
:10035000A7F91B45C6987A24F8A6441A99C7257BA5
:100360003A6486D85B05E7B98CD2306EEDB3510F95
:100370004E10F2AC2F7193CD114FADF3702ECC9285
:10038000D38D6F31B2EC0E50AFF1134DCE90722C75
:100390006D33D18F0C52B0EE326C8ED0530DEFB165
:1003A000F0AE4C1291CF2D73CA947628ABF5174955
:1003B0000856B4EA6937D58B5709EBB536688AD445
:1003C00095CB2977F4AA4816E9B7550B88D6346A35
:1003D0002B7597C94A14F6A8742AC896154BA9F725
:1003E000B6E80A54D7896B350000000024002700C6
:1003F0002A000D0A004572726F72002B4854545047
:10040000524541443A200041542B485454505245DF
:10041000414400302C363000302C32303000415412
:100420002B48545450414354494F4E3D30004154A1
:100430002B48545450504152413D2255524C222C8D
:10044000220041542B48545450414354494F4E3D8F
:10045000300041542B48545450504152413D225594
:10046000524C222C220041542B485454505041529B
:10047000413D22434944222C310041542B485454DD
:1004800050494E49540041542B48545450544552FD
:100490004D0041542B43495047534D4C4F433D3140
:1004A0002C31004552524F520D004F4B0D0041541C
:1004B0002B434F50533F0041542B47534E00415460
:1004C0002B43504D533D22534D222C22534D222C71
:1004D00022534D220041542B434D47463D310041AC
:1004E000542B53415042523D322C310041542B5336
:1004F000415042523D312C310041542B434744433B
:100500004F4E543D312C224950222C220041542B75
:1005100053415042523D332C312C22505744222C0F
:10052000220041542B53415042523D332C312C2256
:1005300055534552222C220041542B5341504252D4
:100540003D332C312C2241504E222C2200696E74F6
:1005500065726E65742E54454C45322E727500548A
:10056000454C4532004D454741464F4E00696E743B
:1005700065726E6574004D656761466F6E006265F9
:10058000656C696E6500696E7465726E65742E6265
:1005900065656C696E652E7275004265656C696E85
:1005A00065006D7473004D545300696E7465726E0E
:1005B00065742E6D74732E72750041542B53415027
:1005C00042523D332C312C22436F6E747970652278
:1005D0002C2247505253220041542B43474154543C
:1005E0003F0041542B4353510041542B4352454744
:1005F0003F0041542B434E4D493D322C3200415473
:100600002B435343533D2247534D220041542B4328
:100610004C49503D310041542B434D47463D31003C
:1006200041542B4346554E3D310041542B495052C5
:100630003D313932303000415445300037062A060A
:10064000200616060C06FE05F205E905E205D805AA
:10065000BA05AA05A605A2059A0586057E057605B2
:100660006D0565055F054D05380522050D05F90485
:10067000EC04DF04D504BE04B704AE04AA04A3044A
:10068000920486047A046604520442042E041E0472
:10069000180413040704FB03F503F2030000000031
:1006A000250028002B000000000023002600290060
:1006B0000404040404040404020202020202030308
:1006C0000303030301020408102040800102040810
:1006D00010200102040810204E414E494E49545941
:1006E000494E46CDCCCC3D0AD7233C17B7D13877FD
:1006F000CC2B329595E6241FB14F0A000020410013
:1007000000C84200401C4620BCBE4CCA1B0E5AAE5C
:10071000C59D7400407A10F35A00A0724E1809006B
:1007200010A5D4E80000E87648170000E40B540256
:100730000000CA9A3B000000E1F505000080969891
:1007400000000040420F000000A0860100000010E1
:100750002700000000E80300000000640000000023
:10076000000A00000000000100000000002C76D804
:1007700088DC674F0823DFC1DFAE59E1B1B796E5EA
:10078000E3E453C63AE651997696E8E6C28426EB4E
:10079000898C9B62ED407C6FFCEFBC9C9F40F2BA61
:1007A000A56FA5F490055A2AF75C936B6CF9676DF9
:1007B000C11BFCE0E40D47FEF520E6B500D0ED904E
:1007C0002E0300943577050080841E080000204E1B
:1007D0000A000000C80C333333330F986E128311B4
:1007E00041EF8D2114893BE65516CFFEE6DB18D18B
:1007F000844B381BF77C1D901DA4BBE4242032845D
:10080000725E228100C9F124ECA1E53D2700D825C4
:10081000982511241FBECFEFD8E0DEBFCDBF12E078
:10082000A0E0B1E0EAE3F1E602C005900D92AA3340
:10083000B107D9F724E0AAE3B2E001C01D92A63DBA
:10084000B207E1F714E0C8E0D4E004C02197FE014C
:100850000E945827C730D107C9F70E94E2150C94AF
:1008600090300C940000FC01918D828D981761F0FE
:10087000828DDF01A80FB11D5D968C91928D9F5FD7
:100880009F73928F90E008958FEF9FEF0895FC0182
:10089000918D828D981731F0828DE80FF11D858D35
:1008A00090E008958FEF9FEF0895FC01918D228DC8
:1008B000892F90E0805C9F4F821B91098F7399274D
:1008C00008958EEA92E00E94550421E0892B09F4F4
:1008D00020E0822F0895FC01848DDF01A80FB11D57
:1008E000A35ABF4F2C91848D90E001968F73992766
:1008F000848FA689B7892C93A089B1898C91806453
:100900008C93938D848D981306C00288F389E02D13
:1009100080818F7D80830895EF92FF920F931F93C4
:10092000CF93DF93EC0181E0888F9B8D8C8D9813A2
:1009300005C0E889F989808185FD24C0F62E0B8DDC
:1009400010E00F5F1F4F0F731127E02E8C8DE81200
:100950000CC00FB607FCFACFE889F989808185FFC2
:10096000F5CFCE010E946B04F1CF8B8DFE01E80F15
:10097000F11DE35AFF4FF0820B8FEA89FB898081DA
:10098000806207C0EE89FF896083E889F9898081E8
:100990008064808381E090E0DF91CF911F910F917F
:1009A000FF90EF900895CF93DF93EC01888D88231B
:1009B000C9F0EA89FB89808185FD05C0A889B989CC
:1009C0008C9186FD0FC00FB607FCF5CF808185FFA7
:1009D000F2CFA889B9898C9185FFEDCFCE010E9415
:1009E0006B04E7CFDF91CF91089580E090E0892BF1
:1009F00029F00E94610481110C94000008953FB712
:100A0000F8948091AA029091AB02A091AC02B091AF
:100A1000AD0226B5A89B05C02F3F19F00196A11D78
:100A2000B11D3FBFBA2FA92F982F8827820F911D84
:100A3000A11DB11DBC01CD0142E0660F771F881FCB
:100A4000991F4A95D1F7089508950895FC01908162
:100A50000180F281E02DF8948181892B81832281AC
:100A6000892F809528232283A7E0B0E01197F1F722
:100A7000218182238183A3E2B0E01197F1F7808185
:100A80007894EFECF0E03197F1F7982381E009F4E6
:100A900080E00895FC0190810180F281E02D892F92
:100AA000809560FF12C0F894228182238283818125
:100AB000892B8183A3E2B0E01197F1F78281982B13
:100AC0009283789487ED90E011C0F894228182237C
:100AD00082838181892B8183AFEFB0E01197F1F799
:100AE0008281982B928378948FE090E00197F1F7C0
:100AF000089508952091A2043091A304281739077E
:100B000071F490913A0280913B02981741F0E09184
:100B10003A02F0E0EB59FD4F808190E008958FEFAD
:100B20009FEF089508951F93CF93DF93DC015C96A8
:100B30002D913C915D972115310539F481E090E0CC
:100B400013969C938E9312973DC05196ED91FC9114
:100B5000529750969C915097892F80951FB75E961B
:100B60004C915E9741FB772770F941FD6095F894B1
:100B70004081772311F0492B01C048234083E901CC
:100B80002197F1F748E0508160FF02C0592B01C066
:100B900058235083E9012197F1F76695415099F761
:100BA000772321F090818923808303C08081982B53
:100BB00090831FBF5C968D919C915D970197F1F793
:100BC00021E030E0C901DF91CF911F91089520917C
:100BD000A2043091A3042817390771F480913B02D5
:100BE00020913A0290E0805C9F4F821B910960E463
:100BF00070E00E940E27089580E090E00895209113
:100C0000A2043091A30428173907B9F490913A024D
:100C100080913B02981789F0E0913A02F0E0EB599D
:100C2000FD4F808120913A0230E02F5F3F4F2F73BC
:100C3000332720933A0290E008958FEF9FEF0895B5
:100C40000E9495281F920F920FB60F9211242F9396
:100C50003F934F935F936F937F938F939F93AF9344
:100C6000BF93EF93FF938EEA92E00E946B04FF9193
:100C7000EF91BF91AF919F918F917F916F915F9114
:100C80004F913F912F910F900FBE0F901F9018958D
:100C90001F920F920FB60F9211242F938F939F9351
:100CA000EF93FF93E091BE02F091BF028081E0914B
:100CB000C402F091C50282FD12C090818091C702EA
:100CC0008F5F8F732091C802821751F0E091C702A5
:100CD000F0E0E255FD4F958F8093C70201C08081FF
:100CE000FF91EF919F918F912F910F900FBE0F90D9
:100CF0001F901895833081F028F4813099F082306C
:100D0000A1F008958730A9F08830B9F08430D1F48B
:100D1000809180008F7D03C0809180008F778093C9
:100D20008000089584B58F7702C084B58F7D84BD1F
:100D300008958091B0008F7703C08091B0008F7DBF
:100D40008093B00008951F93CF93DF93282F30E056
:100D5000F901E859FF4F8491F901EC53F94FD4910F
:100D6000F901E055F94FC491CC23C9F0162F811138
:100D70000E947A06EC2FF0E0EE0FFF1FE456F94FC9
:100D8000A591B4918FB7F894111105C09C91ED2FE6
:100D9000E095E92302C0EC91ED2BEC938FBFDF913E
:100DA000CF911F910895CF93DF9390E0FC01EC5316
:100DB000F94F2491FC01E055F94F8491882361F1AA
:100DC00090E0880F991FFC01E851FC4FC591D49128
:100DD000FC01E456F94FA591B491611109C09FB788
:100DE000F8948881209582238883EC912E230BC070
:100DF000623061F49FB7F8943881822F8095832305
:100E00008883EC912E2B2C939FBF06C08FB7F8944C
:100E1000E8812E2B28838FBFDF91CF9108958F9289
:100E20009F92AF92BF92CF92DF92EF92FF926B01AF
:100E30007C010E94FF044B015C01C114D104E10458
:100E4000F104F1F00E94FF04DC01CB01881999093B
:100E5000AA09BB09883E9340A105B10570F321E0C2
:100E6000C21AD108E108F10888EE880E83E0981EC6
:100E7000A11CB11CC114D104E104F10419F7DDCFA8
:100E8000FF90EF90DF90CF90BF90AF909F908F90AA
:100E900008952FB7F8946091A6027091A7028091EF
:100EA000A8029091A9022FBF08951F920F920FB62A
:100EB0000F9211242F933F938F939F93AF93BF93E0
:100EC0008091A6029091A702A091A802B091A902D8
:100ED0003091A50223E0230F2D3720F40196A11DA8
:100EE000B11D05C026E8230F0296A11DB11D209358
:100EF000A5028093A6029093A702A093A802B093A4
:100F0000A9028091AA029091AB02A091AC02B0918B
:100F1000AD020196A11DB11D8093AA029093AB0270
:100F2000A093AC02B093AD02BF91AF919F918F910E
:100F30003F912F910F900FBE0F901F9018951F9209
:100F40000F920FB60F9211242F933F934F935F93FD
:100F50006F937F938F939F93AF93BF93EF93FF9381
:100F6000E0910201F09103010995FF91EF91BF918A
:100F7000AF919F918F917F916F915F914F913F9131
:100F80002F910F900FBE0F901F9018951F920F92E8
:100F90000FB60F9211242F933F934F935F936F934C
:100FA0007F938F939F93AF93BF93EF93FF93E091C2
:100FB0000001F09101010995FF91EF91BF91AF916F
:100FC0009F918F917F916F915F914F913F912F9161
:100FD0000F900FBE0F901F901895DC01E0E061505C
:100FE00038F08D91E827F0E0E851FD4FE491F7CF1C
:100FF0008E2F0895CF92DF92EF92FF920F931F935F
:10100000CF93DF931F92CDB7DEB76C01E62E08E0D9
:1010100010E0FF24F39461E08F2D8E2109F460E04D
:10102000C60149830E944A05FF0C015011094981FC
:101030000115110581F7411115C0F894D6011196DB
:10104000ED91FC91129791818C91809589238183F8
:101050001196ED91FC91129792818C918095892344
:10106000828378940F90DF91CF911F910F91FF9021
:10107000EF90DF90CF900895CF92DF92EF92FF92A2
:101080000F931F93CF93DF931F92CDB7DEB78C01E1
:10109000F62E40E065E579830E94FA07CF2C79812E
:1010A000D72E760188E0E80EF11CF60161916F0100
:1010B00040E0C8010E94FA07CE14DF04B1F70F9098
:1010C000DF91CF911F910F91FF90EF90DF90CF9024
:1010D0000895FC0190810180F281E02DF8948181D6
:1010E000292F20958223818378948DE743E050E077
:1010F000815021F1DA011197F1F730813923C1F3E1
:10110000F8948281822382838181892B81837894E0
:10111000ABE7B7E01197F1F7F89481812823218399
:10112000A3E1B1E01197F1F78081982381E009F004
:1011300080E07894E3E6F6E03197F1F70895AF9216
:10114000BF92CF92DF92EF92FF920F931F93CF93B4
:10115000DF931F92CDB7DEB75C01E62ED72EFC01E0
:10116000858581115DC0C5010E946908811105C096
:10117000F5011386158614866BC040E060EFC5014B
:101180000E94FA0701E0F12CC12C11E0C5010E9478
:101190002605682FC50169830E9426056981613093
:1011A00019F48130B9F433C04F2D50E068131BC0DF
:1011B000F5018385181730F4E40FF51F8381802330
:1011C00049F402C0181731F060E0193058F4F50105
:1011D000148708C0F501EF0DF11D8381802B8383F7
:1011E00061E009C0C12EF501E40FF51F9381802F46
:1011F000809589238383C5010E944A051F5F000FE4
:1012000011F4F39401E0F7E0FF1508F0BFCF1134BB
:1012100038F0F501C386C11015C081E0858712C082
:10122000F50113861586148680E0D5011396EE2D00
:10123000FD2D9501255F3F4F9D919193A217B30717
:10124000D9F706C0F5018381882351F381E0EDCF02
:101250000F90DF91CF911F910F91FF90EF90DF9052
:10126000CF90BF90AF9008956F927F928F929F9290
:10127000AF92BF92CF92DF92EF92FF920F931F93A4
:10128000CF93DF931F92CDB7DEB78C01F42EFC0114
:101290008581968159830E943C0840E06EEBF801FD
:1012A000858196810E94FA076F2C5981752E530112
:1012B000F9E0AF0EB11CF8018580968088E0C82E59
:1012C000D12CEE24E394F12CC4010E942605811157
:1012D000FE28EE0CF1E0CF1AD108B1F7F301F1923C
:1012E0003F01EA15FB0539F7F801858196810E94D7
:1012F000690891E0813009F090E0892F0F90DF912B
:10130000CF911F910F91FF90EF90DF90CF90BF9002
:10131000AF909F908F907F906F9008950F931F9341
:10132000CF93DF93EC01162F60E0812F0E94D3064C
:10133000612F70E0FB01EC53F94FE491E883FB016E
:10134000E055F94FE491F0E0EE0FFF1FEA55F94F39
:10135000859194919A8389831B861D861C86FE0144
:101360003B968E010D5F1F4F1292E017F107E1F7D8
:10137000DF91CF911F910F910895CF93DF93EC01EF
:101380008D819E810E94690840E06CEC8D819E8178
:101390000E94FA07488164E48D819E810E94FA07C9
:1013A0008A818823B1F0E981E950E33040F4F0E02C
:1013B000EE0FFF1FE25FFE4F6081718102C06EEE93
:1013C00072E0072E000C880B990BDF91CF910C94E3
:1013D0000F07DF91CF910895EF92FF920F931F9324
:1013E000CF93DF9300D0CDB7DEB78C017A01FC013B
:1013F0008581968169837A830E94690869817A81EF
:10140000882371F0A701C8010E943409882341F0A4
:1014100068E0C7010E94ED0791E0F7012085821383
:1014200090E0892F0F900F90DF91CF911F910F9136
:10143000FF90EF900895CF93DF93CDB7DEB7299754
:101440000FB6F894DEBF0FBECDBFFB012081203167
:10145000D1F0AE014F5F5F4F0E94EC09882389F005
:101460008D818F3361F020F48F3159F489E00CC005
:101470008F3519F08F3739F004C08BE005C08AE052
:1014800003C080E001C08CE029960FB6F894DEBF5F
:101490000FBECDBFDF91CF910895EF92FF920F93D2
:1014A0001F93CF93DF93CDB7DEB761970FB6F89454
:1014B000DEBF0FBECDBF8C01DC011596ED91FC9116
:1014C0001697138615861486DF011B9633961E9297
:1014D000AE17BF07E1F7F8011482FF24F394BE01B1
:1014E000665F7F4FF801858196810E949F0888235F
:1014F00009F464C067E0CE010A960E94ED0799895D
:101500008913EDCFD8018C91811126C015968D914C
:101510009C9116970E946908BE01665F7F4FF80193
:10152000858196810E943C0840E064EBD8011596C5
:101530008D919C9116970E94FA07F80185819681FA
:101540000E942605E82ED80115968D919C9116973C
:101550000E946908EE2079F1F801858196810E9448
:101560006908882349F0AE014F5F5F4FBE01665F97
:101570007F4FC8010E943409D8011196EC90BE013A
:10158000665F7F4FC8010E941B0A8E1518F4F80190
:10159000818106C0BE01665F7F4FC8010E941B0AA1
:1015A000D80111968C93119714968C9114978F5F94
:1015B00014968C9394CFD801FC92CECF61960FB63F
:1015C000F894DEBF0FBECDBFDF91CF911F910F9179
:1015D000FF90EF9008951F920F920FB60F92112473
:1015E0002F933F934F935F936F937F938F939F932B
:1015F000AF93BF93EF93FF93E091A204F091A30404
:10160000309709F451C0968DA685B785858591FFE1
:1016100004C09C91892329F447C09C91892309F037
:1016200043C0A389B4899C918589809589238C9333
:10163000868997890197F1F7608D718DA685B785A9
:10164000558538E020E0CB010197F1F7822F90E03B
:1016500095958795282F4C91452309F020683150A6
:1016600091F7868D81FD209580913B0290E0019657
:101670008F73992730913A02381749F0A0913B02B5
:10168000B0E0AB59BD4F2C9380933B0203C0868DD5
:101690008160868F828D938D0197F1F7A389B4893C
:1016A0009C918589892B8C93FF91EF91BF91AF918C
:1016B0009F918F917F916F915F914F913F912F916A
:1016C0000F900FBE0F901F901895CF92DF92EF9260
:1016D000FF920F931F93CF93DF93EB017B012DE0DC
:1016E000E20EF11C8B016C01C61AD70AC601800FED
:1016F000911F0E942930F80181938F01EE15FF059B
:10170000A9F7CE01DF91CF911F910F91FF90EF903C
:10171000DF90CF9008950F931F93CF93DF938C01A9
:10172000EB010E9429308883C80101960E9429306C
:101730008983CE01DF91CF911F910F9108950C9471
:101740003130CF92DF92EF92FF920F931F93CF939E
:10175000DF9300D000D000D0CDB7DEB78C017B0185
:1017600060EE72E0CE0101960E941715BE016F5F18
:101770007F4FC8010E94E3136C01CE0101960E94C5
:10178000B514D7FC16C084E190E0A0E0B0E08093EF
:10179000040190930501A0930601B093070181E035
:1017A00080933E0264E170E080E090E00E94200EB1
:1017B00046C068ED72E0CE0101960E941715BE0189
:1017C0006F5F7F4FC8010E94E3136C01CE01019649
:1017D0000E94B514D7FC19C0B7018EEA92E00E94AE
:1017E000741561E172E08EEA92E00E94E01580EDEE
:1017F00092E00E94CF0D68EE73E080E090E00E94DE
:101800000F07E0E0F0E009951AC068EC72E0CE0145
:1018100001960E941715BE016F5F7F4FC8010E949D
:10182000E3138C01CE0101960E94B51417FD03C08D
:1018300010923E0204C088EB92E00E94CF0D2696E3
:101840000FB6F894DEBF0FBECDBFDF91CF911F91D1
:101850000F91FF90EF90DF90CF9008951F93CF935B
:10186000DF931F92CDB7DEB7162F682F8AE049832A
:101870000E94A306612F8EE00E94A3064981642F77
:101880008FE00F90DF91CF911F910C94A3060F93DF
:101890001F930E94490700916102109162022091FA
:1018A0006302309164029B01201B310B3093600274
:1018B00020935F02609361027093620280936302DF
:1018C0009093640280915F0290916002803F9B4000
:1018D0003CF080915F02909160028E3F9B408CF0C3
:1018E00080915F0290916002883593406CF0809106
:1018F0005F02909160028636934034F481E090E07C
:101900005BC082E090E058C080915F0290916002DD
:101910008F35914044F080915F0290916002823750
:1019200091400CF447C080913C0290913D02019798
:10193000E1F420915D0230915E0281E090E0232B82
:1019400011F080E090E090935E0280935D028091C0
:101950005D0290915E0240E0892B19F460E081E025
:1019600002C061E080E00E942E0C80913C029091C8
:101970003D02029731F520915D0230915E0281E0D7
:1019800090E0232B11F080E090E090935E02809332
:101990005D0280915D0290915E02892B21F440E00E
:1019A00060E081E003C041E060E080E01F910F91C2
:1019B0000C942E0C83E090E090933D0280933C02C7
:1019C000B2CF1F910F910895EF92FF920F931F9343
:1019D000CF93DF931F92CDB7DEB77C01FC0100816E
:1019E0001181C80169830E9429306981681719F043
:1019F000C8010E943130C7010F90DF91CF911F9134
:101A00000F91FF90EF900895AF92BF92CF92DF9227
:101A1000EF92FF920F931F93CF93DF9300D0CDB738
:101A2000DEB78B016B012DE0C20ED11C7B015C0186
:101A3000A61AB70A95012E0D3F1DF70161917F018E
:101A40003A832983CE0101960E94E40CEC14FD0434
:101A500089F7C8010F900F90DF91CF911F910F91DF
:101A6000FF90EF90DF90CF90BF90AF900895EF92EE
:101A7000FF920F931F93CF93DF9300D0CDB7DEB7C4
:101A80008C017B01FB0160819A838983CE010196E1
:101A90000E94E40CF70161810F5F1F4F1A830983D5
:101AA000CE0101960E94E40CC7010F900F90DF91C8
:101AB000CF911F910F91FF90EF900895CF93DF93F7
:101AC00000D0CDB7DEB7BE016F5F7F4F80EA90E0F8
:101AD0000E948B0B89819A8101969A838983BE012A
:101AE0006F5F7F4F80EA90E00E94370D0F900F905C
:101AF000DF91CF910895FC0124813581FB01448160
:101B000055812417350721F5FC0180819181FB0166
:101B100060817181009719F061157105A1F461155B
:101B2000710549F0232BB1F0FB01808190E0919584
:101B3000819591090AC0009769F0232B59F0FC01A7
:101B4000808190E002C00E94C02821E0892B19F01A
:101B500020E001C021E081E0822708950F931F93C8
:101B6000CF93DF938C01C0E0D0E0F801EC0FFD1FB4
:101B70006491662371F0E091AE02F091AF020190A2
:101B8000F081E02D8EEA92E00995892B11F02196E3
:101B9000ECCFCE01DF91CF911F910F910895CF939C
:101BA000DF930E94AE0DEC018EEA92E00E94971541
:101BB0008C0F9D1FDF91CF9108958F929F92AF92CE
:101BC000BF920F931F93CF93DF93CDB7DEB7A1974B
:101BD0000FB6F894DEBF0FBECDBF19A2423008F495
:101BE0004AE08E010F5D1F4F842E912CA12CB12C49
:101BF000A50194010E942227E62FB901CA010150D4
:101C00001109EA3014F4E05D01C0E95CD801EC93FD
:101C1000232B242B252B61F7B8018EEA92E00E943A
:101C20008215A1960FB6F894DEBF0FBECDBFDF912F
:101C3000CF911F910F91BF90AF909F908F9008957B
:101C4000CF93DF934AE00E94DD0DEC018EEA92E033
:101C50000E9497158C0F9D1FDF91CF9108950F93D0
:101C60001F93CF93DF93C4EBD3E08C01045B13404D
:101C7000C8018C0F9D1F0E942930899383E0CA3BC5
:101C8000D807B1F784EB93E0DF91CF911F910F91CB
:101C900008950F931F93CF93DF93C4E0D1E08C019D
:101CA00004501140C8018C0F9D1F0E942930899358
:101CB00081E0C830D807B1F784E091E0DF91CF919F
:101CC0001F910F910895EF92FF920F931F93CF935F
:101CD000DF9300D0CDB7DEB704E011E0845091402F
:101CE0007C019701200F311FF80161918F013A8328
:101CF0002983CE0101960E94E40CF1E008301F0711
:101D000081F784E091E00F900F90DF91CF911F91C8
:101D10000F91FF90EF9008954F925F926F927F9294
:101D20009F92AF92BF92CF92DF92EF92FF920F936A
:101D30001F93CF93DF93EC016B018A01892BD1F0C4
:101D400084EA94E00E94E705892B29F084EA94E074
:101D50000E94FF05F5CF6EE38EEA92E00E946D15BA
:101D6000BE018EEA92E00E94CE15BE0184EA94E0A4
:101D70000E94CE150E9449072B013C01C0E08CE770
:101D8000A82E86E0B82E9FE3992EE12CF12C84EA50
:101D900094E00E94E705892B09F43FC084EA94E0AF
:101DA0000E94FF05CF3750F0EAEFF3E0AAEBB3E073
:101DB000992D01900D929A95E1F7CFE3D1E0DC0FD8
:101DC000EC2FF0E0E654FC4F8083ED2FF0E0E6547A
:101DD000FC4F1082F5016591749184E694E00E94B5
:101DE0008F2A0115110519F464E674E001C0B801E9
:101DF0008AEB93E00E94DF28892B71F064E272E0A5
:101E00008EEA92E00E94E0156AEB73E08EEA92E0BF
:101E10000E94CE158D2F1CC0CD2F0E944907DC01DA
:101E2000CB0184199509A609B7098C159D05AE0546
:101E3000BF0508F4ACCF68E272E08EEA92E00E943F
:101E4000E0156AEB73E08EEA92E00E94CE1580E026
:101E5000DF91CF911F910F91FF90EF90DF90CF9086
:101E6000BF90AF909F907F906F905F904F9008953C
:101E7000CF93DF93BC018EEA92E00E947415EC01CF
:101E80008EEA92E00E9497158C0F9D1FDF91CF91F3
:101E90000895CF93DF93FC0144815581411551058D
:101EA000D1F04230510518F461E070E002C062E008
:101EB00070E0EC0188819981461B570B5D834C8350
:101EC000680F791F0E94D028E881F9818C819D815B
:101ED000E80FF91F1082DF91CF910895FF920F93C1
:101EE0001F93CF93DF938C01EB018FE3F82E84EAED
:101EF00094E00E94E705892B99F184EA94E00E941E
:101F0000FF05909141049F3758F0F0924104EAEFA9
:101F1000F3E0AAEBB3E09F2D01900D929A95E1F7C3
:101F2000A0914104E1E0EA0FE0934104B0E0A6543F
:101F3000BC4F8C93F0E0E654FC4F1082B8018AEB62
:101F400093E00E94DF28892B11F5209781F2BE01D2
:101F50008AEB93E00E94DF28892B49F282E01AC0C5
:101F60000E944907009142041091430420914404C7
:101F700030914504DC01CB01801B910BA20BB30B0C
:101F800080319742A105B10520F083E003C081E0D4
:101F900001C080E0DF91CF911F910F91FF900895D4
:101FA000CF93DF9362E284EA94E00E946D15EC0126
:101FB00084EA94E00E9497158C0F9D1FDF91CF91CA
:101FC00008950F931F93CF93DF938C01EB01ECE8FF
:101FD000F6E06591749184E694E00E948F2A64E6AD
:101FE00074E084EA94E00E94E015B80184EA94E089
:101FF0000E94E01588819981892BA1F50E94D00F5C
:1020000064EF71E080E090E00E940F0740E050E054
:1020100060ED77E080E090E00E948C0E8823F1F084
:10202000EEE8F6E06591749184E694E00E948F2AD0
:1020300064E674E084EA94E00E94CE1582E0809326
:102040003A04109241040E9449076093420470933D
:10205000430480934404909345040FC084E080932C
:102060003A040BC06FE384EA94E00E946D15BE0150
:1020700084EA94E00E947415C1CF80E0DF91CF9193
:102080001F910F910895ECE4F6E06591749184E658
:1020900094E00E948F2A40E050E060ED77E084E613
:1020A00094E00E948C0E6CE272E08AEB93E00E9456
:1020B000DF28009759F005960E944A2A8336910539
:1020C00029F08F3F2FEF920709F0089580E090E00C
:1020D0000895CF93DF93EB01DC011596ED91FC9110
:1020E0001697138615861486DF011B9633961E926B
:1020F000AE17BF07E1F7BE01FC01858196810E9402
:102100009F08882349F067E0CE010E94ED079F8178
:10211000891302C081E001C080E0DF91CF91089572
:102120000F931F93CF93DF93CDB7DEB761970FB6B1
:10213000F894DEBF0FBECDBF8C01BE01665F7F4F3E
:102140000E946910811105C060E070E08EEF92EC92
:102150004BC0AE014F5F5F4FBE01665F7F4FC8014E
:102160000E94EC09882359F1698148E0649FB0011D
:1021700011248A81282F30E0322F2227330F330F8A
:10218000330F262B372B8A858031E1F4688570E088
:102190008F81AB01481B5109CA019695982F88275A
:1021A000979587950E940E2760517109207F53E013
:1021B000220F331F5A95E1F7620F731F04C060E8C6
:1021C00074EE01C0B901613854EE75070CF4BCCF50
:1021D000072E000C880B990B0E94092F20E030E09D
:1021E00040E05CE30E94682F61960FB6F894DEBF72
:1021F0000FBECDBFDF91CF911F910F910895BF9278
:10220000CF92DF92EF92FF920F931F93CF93DF93C2
:10221000EC018B01892BD1F084EA94E00E94E70560
:10222000892B29F084EA94E00E94FF05F5CF6EE344
:102230008EEA92E00E946D15BE018EEA92E00E9445
:10224000CE15BE0184EA94E00E94CE150E94490793
:102250006B017C01C0E0DFE384EA94E00E94E705C3
:10226000892B09F449C084EA94E00E94FF05CF3726
:1022700050F0EAEFF3E0AAEBB3E09D2F01900D924E
:102280009A95E1F7CFE3BB24B394BC0EEC2FF0E0BA
:10229000E654FC4F8083EB2DF0E0E654FC4F1082B7
:1022A00061E372E08AEB93E00E94DF28892B71F0F2
:1022B00064E272E08EEA92E00E94E0156AEB73E05D
:1022C0008EEA92E00E94CE1581E025C0B8018AEB2B
:1022D00093E00E94DF28892B71F065E372E08EEABB
:1022E00092E00E94E0156AEB73E08EEA92E00E94B1
:1022F000CE1582E010C0CB2D0E944907DC01CB0136
:102300008C199D09AE09BF09803D9740A105B10513
:1023100008F4A2CF80E0DF91CF911F910F91FF9041
:10232000EF90DF90CF90BF900895CF92DF92EF9221
:10233000FF920F931F93CF93DF936C017A018B0170
:10234000C0E0D0E0CE15DF0589F0D8016D918D0198
:10235000D601ED91FC910190F081E02DC601099527
:10236000892B11F47E0102C02196ECCFC701DF91C9
:10237000CF911F910F91FF90EF90DF90CF90089534
:102380000F931F93CF93DF93EC018881998100977E
:1023900029F02A813B812617370788F48B016F5F6C
:1023A0007F4F0E94CB27009761F0998388831B831E
:1023B0000A832C813D81232B11F4FC01108281E0E2
:1023C00001C080E0DF91CF911F910F910895CF93CD
:1023D000DF93EC0188819981009711F00E94AE296A
:1023E000198218821D821C821B821A82DF91CF9172
:1023F0000895EF92FF920F931F93CF93DF93EC0119
:102400007B018A01BA010E94C011811104C0CE0172
:102410000E94E71107C01D830C83B7018881998151
:102420000E94C928CE01DF91CF911F910F91FF909B
:10243000EF900895DF92EF92FF920F931F93CF9347
:10244000DF93CDB7DEB729970FB6F894DEBF0FBE86
:10245000CDBF8C017B01AE014F5F5F4F0E94EC0945
:10246000D82E882309F459C0F7018081803109F4FE
:1024700054C08FE78D83F801858196810E94690899
:10248000B701F801858196810E943C0840E06EE426
:10249000F801858196810E94FA0740E06B81F8017E
:1024A000858196810E94FA0740E06C81F801858160
:1024B00096810E94FA07F7018081803139F040E06F
:1024C0006D81F801858196810E94FA07F801858166
:1024D00096810E946908B701F801858196810E9462
:1024E0003C08F801408168E4858196810E94FA07E2
:1024F00064E170E080E090E00E940F07F8018081C5
:10250000882331F06AE070E080E090E00E940F07DD
:10251000F801858196810E9469088D2D29960FB654
:10252000F894DEBF0FBECDBFDF91CF911F910F9109
:10253000FF90EF90DF9008952F923F924F925F921D
:102540006F927F928F929F92AF92BF92CF92DF92C3
:10255000EF92FF920F931F93CF93DF9300D000D0A1
:10256000CDB7DEB7FC01448055804114510409F415
:1025700013C1FB01648075806114710409F40CC1FE
:102580007A016B019C838B83FA01A480B580A61825
:10259000B708FC0100811181A114B104C1F4F60156
:1025A00060817181C8010E94DF285C01892B09F4D8
:1025B000F3C0F7016081718144815581C5010E949A
:1025C0009A28F701048115810A0D1B1DE8CFB7FE7B
:1025D00002C0480106C0FB01208031804201C801D1
:1025E00048C0F60160817181C4010E94DF282C017E
:1025F000892B29F1320168187908A301B401C801B7
:102600000E949A28060D171DF7016081718144818F
:102610005581C8010E949A28F70184819581080F8D
:10262000191FF60184809580840C951CEB81FC8138
:10263000848195818A0D9B1D95838483D2CFB401BB
:10264000C8010F900F900F900F90DF91CF911F91C5
:102650000F91FF90EF90DF90CF90BF90AF909F9041
:102660008F907F906F905F904F903F902F900C9441
:10267000C928B1010E94DF28009729F0860D971D17
:102680008A0C9B1CF6CF8414950409F485C0EB8159
:10269000FC81828193818815990578F4B4016F5F7C
:1026A0007F4FC8010E94CB27009709F475C0EB81CA
:1026B000FC819183808393828282EB81FC810481FF
:1026C00015810150110917FD67C0F601248035807E
:1026D0002114310409F460C0EB81FC8164807580B1
:1026E0006114710409F458C06214730408F454C0EE
:1026F0000615170518F0830101501109EB81FC81C3
:1027000040805180C20188248A94982C9201200F25
:10271000311F2817390758F0F6016081718129832C
:102720003A830E94DF2829813A81009761F597FC5E
:1027300033C0280C391CC201820D931DA30142191C
:102740005309BC018A0D9B1D0E94A328EB81FC81CB
:10275000848195818A0D9B1D95838483208131819D
:10276000F901E80FF91F1082EB81FC8180819181D2
:10277000F7016081718144815581880D991D0E9406
:102780009A2884019ECFAC014419550904171507F6
:1027900008F04A010196BDCF0F900F900F900F9057
:1027A000DF91CF911F910F91FF90EF90DF90CF902D
:1027B000BF90AF909F908F907F906F905F904F9061
:1027C0003F902F900895CF93DF93FC0124813581B2
:1027D000232B71F0FB01DC01CD91DC9160817181D3
:1027E000CE010E94DF28009719F08C1B9D0B02C0C0
:1027F0008FEF9FEFDF91CF910895FC012481358108
:102800006217730720F480819181009729F4109258
:10281000CF048FEC94E00895860F971F0895EF92F0
:10282000FF920F931F93CF93DF93FC012481358197
:102830006115710511F480E019C041155105A9F029
:102840007B01EC018A01020F131FB8010E94C01125
:10285000882389F3288139818C819D81B701820F7A
:10286000931F0E94C9281D830C8381E0DF91CF91C3
:102870001F910F91FF90EF9008950F931F93CF93A7
:10288000DF9300D0CDB7DEB78C0169831A8241E0B7
:1028900050E0BE016F5F7F4F0E940F14811103C093
:1028A000C8010E94E711C8010F900F90DF91CF91EE
:1028B0001F910F910895CF93DF93EC01611571057E
:1028C00061F0FB0101900020E9F73197AF01461B51
:1028D000570B0E940F14811103C0CE010E94E71113
:1028E000CE01DF91CF910895CF93DF93EC01FB01EF
:1028F00044815581608171810E940F14811103C050
:10290000CE010E94E711CE01DF91CF910895CF93C0
:10291000DF93EC016115710559F0FB010190002076
:10292000E9F73197AF01461B570B0E94F91102C01E
:102930000E94E711CE01DF91CF910895CF93DF93ED
:10294000EC01FB018617970761F0608171816115C9
:10295000710529F0448155810E94F91102C00E943D
:10296000E711CE01DF91CF910895FC018081918123
:102970000C94AE29EF92FF920F931F93CF93DF93A6
:10298000CDB7DEB7A1970FB6F894DEBF0FBECDBFAF
:102990007C01CB01BA01F7011182108213821282ED
:1029A0001582148242E0420F8E010F5F1F4F0E947A
:1029B000F928BC01C7010E948714A1960FB6F894AC
:1029C000DEBF0FBECDBFDF91CF911F910F91FF9062
:1029D000EF9008950F931F93CF93DF93CDB7DEB79A
:1029E00029970FB6F894DEBF0FBECDBF8C01862F9E
:1029F000F80111821082138212821582148250E033
:102A0000BE016F5F7F4F90E00E94E92ABE016F5FB9
:102A10007F4FC8010E94871429960FB6F894DEBF35
:102A20000FBECDBFDF91CF911F910F910895EF920F
:102A3000FF920F931F93CF93DF93EC0119821882BB
:102A40001B821A821D821C826115710509F18B019E
:102A5000CB010E94962A7C01BC01CE010E94C011CC
:102A6000811109C0CE01DF91CF911F910F91FF908D
:102A7000EF900C94E711FD82EC82B8018881998176
:102A8000DF91CF911F910F91FF90EF900C948F2ABF
:102A9000DF91CF911F910F91FF90EF900895FC016E
:102AA0001182108213821282158214820C949E1459
:102AB000FC01118210821382128215821482611528
:102AC000710551F0FB0101900020E9F73197AF014A
:102AD000461B570B0C94F9110895DC01ED91FC9104
:102AE0000190F081E02D0994DC01ED91FC91DB0176
:102AF00014964D915C9115976D917C910280F381B4
:102B0000E02D09946115710579F0FB010190002019
:102B1000E9F73197AF01461B570BDC01ED91FC91B2
:102B20000280F381E02D099480E090E008956CE04C
:102B300072E00C948215CF92DF92EF92FF92CF93C6
:102B4000DF936C01990FEE08FF08F7FE14C06DE2E9
:102B50008EEA92E00E946D15EC0166277727CB0183
:102B60006C197D098E099F094AE00E94DD0D7C01E8
:102B7000EC0EFD1E06C04AE0C701B6010E94DD0D45
:102B80007C018EEA92E00E9497158E0D9F1DDF91C9
:102B9000CF91FF90EF90DF90CF9008950F931F9308
:102BA000CF93DF93EC010E9482158C01CE010E942D
:102BB0009715800F911FDF91CF911F910F9108956D
:102BC0000C948215CF93DF93CDB7DEB7CF57D109E1
:102BD0000FB6F894DEBF0FBECDBF789484B5826087
:102BE00084BD84B5816084BD85B5826085BD85B5B1
:102BF000816085BD80916E00816080936E0010922F
:102C000081008091810082608093810080918100A9
:102C1000816080938100809180008160809380003A
:102C20008091B10084608093B1008091B000816098
:102C30008093B00080917A00846080937A008091C4
:102C40007A00826080937A0080917A00816080931C
:102C50007A0080917A00806880937A001092C10097
:102C6000E091BE02F091BF0282E08083E091BA025F
:102C7000F091BB021082E091BC02F091BD0287E6A8
:102C800080831092C602E091C202F091C30286E0F6
:102C90008083E091C002F091C102808180618083D5
:102CA000E091C002F091C102808188608083E09150
:102CB000C002F091C102808180688083E091C002EF
:102CC000F091C10280818F7D80838FEB91E00E9423
:102CD000CF0D61E086E00E94D30661E08DE00E94A6
:102CE000D30661E085E00E94D30661E08AE00E949D
:102CF000D30661E08FE00E94D30661E08EE00E947F
:102D0000D30660E083E00E94D30660E089E00E9481
:102D1000D30640E060E081E00E942E0C6CE271E09E
:102D200080E090E00E940F0740E061E080E00E94B8
:102D30002E0C6CE271E080E090E00E940F0741E011
:102D400060E080E00E942E0C6CE271E080E090E098
:102D50000E940F0740E060E081E00E942E0C80EAB4
:102D600093E090937703809376031092750310920B
:102D7000710399E09093720381E0809373038093D1
:102D8000740322E933E030936403209363031092C9
:102D9000620310925E0390935F03809360038093BD
:102DA000610324E833E030935103209350031092E1
:102DB0004F0310924B0390934C0380934D038093E9
:102DC0004E0381E793E00E944D0A8EE593E00E9456
:102DD0004D0A8BE493E00E944D0ABE016F5F7F4F66
:102DE00081E793E00E946910882339F0BE016F5F8C
:102DF0007F4F81E793E00E941A12BE016F5F7F4F01
:102E00008EE593E00E946910882339F0BE016F5F60
:102E10007F4F8EE593E00E941A12BE016F5F7F4FD5
:102E20008BE493E00E946910882339F0BE016F5F44
:102E30007F4F8EE593E00E941A1287E49CE0909306
:102E4000030180930201809169008C608093690086
:102E5000E99AF12CE12C85E391E00E94CF0D60E02E
:102E600086E00E94A30660E08DE00E94A30661E078
:102E700085E00E94A30660ED77E080E090E00E948C
:102E80000F0761E08DE00E94A30660E085E00E94EC
:102E9000A3066CED75E080E090E00E940F0761E012
:102EA00086E00E94A30668EE73E080E090E00E9456
:102EB0000F0760E086E00E94A306E1E7F0E084915E
:102EC000EDECF6E00491E9EBF6E014911123A9F39F
:102ED00081110E947A06E12FF0E0EE0FFF1FEA5504
:102EE000F94FA591B4918C91082339F360ED77E007
:102EF00080E090E00E940F0785E291E00E94CF0DF4
:102F000085E5C82ED12C9BECA92EB12C20E9822E70
:102F1000912C4424439434EA632E34E0732E1092AF
:102F2000BF041092BE041092BD041092BC04109213
:102F3000BB041092BA042DEC30E03093C10420930E
:102F4000C0048091B004863108F053C0D092BB0415
:102F5000C092BA04B092BD04A092BC049092BF0487
:102F60008092BE0490916800883058F021E08E3045
:102F700008F420E0342D01C0330F2A95EAF7232FFF
:102F800001C024E0922B90936800883038F08E3096
:102F900040F0863148F020E030E008C02DE630E017
:102FA00005C02BE630E002C02CE630E03093B804D8
:102FB0002093B704883038F4442D01C0440F8A951B
:102FC000EAF7842F0EC0282F30E08E3018F42850F6
:102FD000310902C02E503109842D01C0880F2A9575
:102FE000EAF78093B9048091C0049091C1040197DD
:102FF000F1F78091BE049091BF04892B39F1E091E3
:10300000A204F091A30454E0E43AF507F9F03097F4
:1030100039F0A389B4899C918589809589238C9303
:103020008091C2048E7F8093C20410923B02109262
:103030003A027092A3046092A204E091B704F09166
:10304000B80490818091B904892B80830EE010E050
:1030500084EA94E00E94E705892B29F084EA94E051
:103060000E94FF05F5CF40E050E060ED77E084E39B
:1030700091E00E948C0E811133C064EF71E080E01A
:1030800090E00E940F070150110911F740E050E055
:1030900060ED77E084E391E00E948C0E64E670E0DE
:1030A00080E090E00E940F0740E050E060ED77E0A4
:1030B00084E391E00E948C0E64E670E080E090E092
:1030C0000E940F0740E050E060ED77E084E391E07C
:1030D0000E948C0E64E670E080E090E00E940F0792
:1030E00040E050E060ED77E084E391E00E948C0ED8
:1030F000811106C06EE28EEA92E00E948C040FCF2E
:10310000EEE3F6E06591749184E694E00E948F2AE4
:1031100040E050E060ED77E084E694E00E948C0EA1
:1031200064E670E080E090E00E940F07ECE3F6E0D8
:103130006591749184E694E00E948F2A40E050E00B
:1031400060ED77E084E694E00E948C0E64E670E027
:1031500080E090E00E940F07E0E4F6E06591749152
:1031600084E694E00E948F2A40E050E060ED77E032
:1031700084E694E00E948C0E64E670E080E090E0CB
:103180000E940F07E2E4F6E06591749184E694E012
:103190000E948F2A40E050E060ED77E084E694E002
:1031A0000E948C0E64E670E080E090E00E940F07C1
:1031B000E4E4F6E06591749184E694E00E948F2A3D
:1031C00040E050E060ED77E084E694E00E948C0EF1
:1031D00064E670E080E090E00E940F07E6E4F6E02D
:1031E0006591749184E694E00E948F2A40E050E05B
:1031F00060ED77E084E694E00E948C0E64E670E077
:1032000080E090E00E940F07E8E4F6E06591749199
:1032100084E694E00E948F2A40E050E060ED77E081
:1032200084E694E00E948C0E64E670E080E090E01A
:103230000E940F0740E050E060ED77E087E391E007
:103240000E948C0E64E670E080E090E00E940F0720
:1032500082E291E00E94CF0DE8E7F6E0659174917B
:1032600084E694E00E948F2A40E050E060ED77E031
:1032700084E694E00E948C0E68EE73E080E090E0BB
:103280000E940F076AE471E081E591E00E94FF105F
:10329000813009F56DE070E08AEB93E00E94B5287B
:1032A0000097C9F08C010E5F1F4F6DE070E0C80100
:1032B0000E94B528009711F0FC011082B8018AEB3A
:1032C00093E00E94C9288BE191E00E94AE0D8EEA46
:1032D00093E00E94380F80913C0290913D0202974A
:1032E00039F068EE73E080E090E00E940F07F3CFC2
:1032F00068EE73E080E090E00E940F0785E091E0C7
:103300000E94AE0D5EE1D52E0AE416E0F80165914B
:10331000749184E694E00E948F2A40E050E060EDD2
:1033200077E084E694E00E948C0E882361F168E5E2
:1033300071E08AEB93E00E94DF28009721F1FC0105
:103340002281213311F02533F1F4ECE4F6E06591AC
:10335000749184E694E0C158DF4F2883CF57D04062
:103360000E948F2A40E050E068EE73E084E694E02B
:103370000E948C0EC158DF4F2881CF57D040EF9666
:103380002FAFEF9709C068EE73E080E090E00E94F5
:103390000F07DA94D110BACF84EF90E00E94AE0DFF
:1033A000EF966FADEF978EEA92E00E946D1581EF78
:1033B00090E00E94AE0DEF962FADEF97213319F4F8
:1033C0008EED90E008C0EF962FADEF97253309F012
:1033D0001BC38AEC90E00E94CF0D80913C0290913B
:1033E0003D02029709F010C360ED77E080E090E0C5
:1033F0000E940F072EE4422E26E0522E34E5A32E23
:1034000036E0B32E40E7242E46E0342E0E944310CF
:103410008C0182EC90E00E94AE0DC8010E949B15C9
:1034200068EE73E080E090E00E940F0782EB90E08E
:103430000E94CF0D40E050E060E27EE48BE591E039
:103440000E948C0EF2016591749184E694E00E94D2
:103450008F2A40E050E060ED77E084E694E00E943F
:103460008C0E882309F4B1C2E0E5F6E06591749111
:1034700084E694E00E948F2A40E050E060ED77E01F
:1034800084E694E00E948C0E882309F49EC2EAE749
:10349000F6E06591749184E694E00E948F2AEEE74D
:1034A000F6E0659174918CE894E00E948F2A6CE8B4
:1034B00074E084E694E00E94FF108130C9F466E66F
:1034C00071E08AEB93E00E94DF28009789F08C017D
:1034D0000E5F1F4F62E270E0C8010E94B52800979E
:1034E00011F0FC011082B8018AEB93E00E94C92818
:1034F0006AEB73E0CE018E960E9458156EE072E082
:10350000CE0188960E94581569E671E0CE01829638
:103510000E945815AE01485D5F4FBE016E5D7F4F42
:10352000CE018E960E949C12CE0182960E94B51406
:10353000CE0188960E94B5146EE072E0CE018896A6
:103540000E94581567E671E0CE0182960E945815D8
:10355000AE01485D5F4FBE016E5D7F4FCE018E961E
:103560000E949C12CE0182960E94B514CE018896CC
:103570000E94B5146EE072E0CE0188960E94581544
:103580006DE072E0CE0182960E945815AE01485D52
:103590005F4FBE016E5D7F4FCE018E960E949C12E2
:1035A000CE0182960E94B514CE0188960E94B51471
:1035B0006EE072E0CE0188960E94581563E372E0D7
:1035C000CE0182960E945815AE01485D5F4FBE0144
:1035D0006E5D7F4FCE018E960E949C12CE01829628
:1035E0000E94B514CE0188960E94B5148EA49FA4A3
:1035F00081149104E1F10AA91BA901151105B9F182
:1036000034016301FFEF6F1A7F0AF6018081082EF3
:10361000000C990B0E94D12E892B99F701501109AA
:10362000080D191DF8018081082E000C990B0E94CD
:10363000D12E892B79F40F5F1F4FA8014C195D091A
:103640005BAB4AAB8C149D0458F4B601C4010E94D4
:103650009A2806C00C151D0570F301501109E2CF20
:10366000EEA5FFA58AA99BA9E80FF91F1082F50115
:103670006591749184E694E00E948F2A64E674E078
:10368000CE0182960E945815BE016E5D7F4FCE011D
:103690008E960E94E3138C01CE0182960E94B5148F
:1036A00017FD32C002E516E0F8016591749184E6D9
:1036B00094E00E948F2A64E674E086E494E00E941D
:1036C0008714E6E5F6E06591749184E694E00E9443
:1036D0008F2A64E674E08CE494E00E94871464E628
:1036E00074E082E594E00E948714F801659174917A
:1036F00084E694E00E948F2A64E674E088E594E012
:103700000E948714F5013EC06CE671E0CE018296FE
:103710000E945815BE016E5D7F4FCE018E960E94AD
:10372000E3138C01CE0182960E94B51417FD31C0BF
:10373000EAE5F6E0659174918CE894E00E948F2AA6
:103740006CE874E086E494E00E948714ECE5F6E00F
:103750006591749184E694E00E948F2A64E674E097
:103760008CE494E00E94871464E674E082E594E0BF
:103770000E9487146CE874E088E594E00E94871446
:10378000E8E5F6E06591749184E694E00E948F2A62
:103790003CC069E771E0CE0182960E945815BE01D7
:1037A0006E5D7F4FCE018E960E94E3138C01CE0199
:1037B00082960E94B51417FD2EC0EEE5F6E06591E5
:1037C000749184E694E00E948F2AE0E6F6E0659129
:1037D00074918CE894E00E948F2A6CE874E086E48F
:1037E00094E00E9487146EE072E08CE494E00E9402
:1037F00087146EE072E082E594E00E9487146CE822
:1038000074E088E594E00E94871464E674E08EEA30
:1038100092E00E94CE15E8E6F6E06591749184E6A8
:1038200094E00E948F2A64E674E084EA94E00E94A7
:10383000E01566E474E084EA94E00E9474150E9446
:10384000D00F40E050E060ED77E080E090E00E9433
:103850008C0E811102C014E0A2C0EAE6F6E0659188
:10386000749184E694E00E948F2A64E674E084EA0E
:1038700094E00E94E0156CE474E084EA94E00E9415
:1038800074150E94D00F40E050E060ED77E080E0DA
:1038900090E00E948C0E8823F1F2ECE6F6E0659150
:1038A000749184E694E00E948F2A64E674E084EACE
:1038B00094E00E94E01562E574E084EA94E00E94DE
:1038C00074150E94D00F40E050E060ED77E080E09A
:1038D00090E00E948C0E882309F4BDCFEEE6F6E05E
:1038E0006591749184E694E00E948F2A64E674E006
:1038F00084EA94E00E94E01568E574E084EA94E0CC
:103900000E9474150E94D00F40E050E060ED77E017
:1039100080E090E00E948C0E882309F49CCFF10196
:103920006591749184E694E00E948F2A40E050E013
:1039300060E177E284E694E00E948C0EE2E7F6E034
:103940006591749184E694E00E948F2A40E050E0F3
:1039500060E177E284E694E00E948C0EE4E7F6E012
:103960006591749184E694E00E948F2A40E050E0D3
:1039700060ED77E084E694E00E948C0EE6E7F6E0E6
:103980006591749184E694E00E948F2A40E050E0B3
:1039900060ED77E084E694E00E948C0E10E0CE01AA
:1039A0008E960E94B514111110C080913C02909126
:1039B0003D02039739F062E370E080E090E00E94FE
:1039C0000F07F3CF8FE990E013C0F3948EE890E0F7
:1039D0000E94CF0D68E873E180E090E00E940F073D
:1039E00080913C0290913D02039751F48CE790E066
:1039F0000E94CF0D40E061E080E00E942E0C3CC0B0
:103A0000EE2009F403CD38C0F4E1FF1508F423CA11
:103A1000EE2009F420CA8CEB91E00E94CF0D04E85F
:103A200016E086E8E82E86E0F82E92E8C92E96E0A9
:103A3000D92EF8016591749184E694E00E948F2A52
:103A4000F701659174918CE894E00E948F2A40E020
:103A500050E060E177E284E694E00E948C0E8823D7
:103A600089F040E050E068E873E18CE894E00E945F
:103A70008C0E882339F055C0F4E1FF1560F6EE2472
:103A8000E394E9C910923A046FE072E08EEA92E0A2
:103A90000E94E0156AEB73E08EEA92E00E94CE1578
:103AA0006AEB73E0CE0188960E94581566EB71E0D0
:103AB000CE0182960E941715BE016E5D7F4FCE012A
:103AC00088960E94E3135C01CE0182960E94B51491
:103AD000B7FC0DC08EE991E00E94AE0D68EE73E078
:103AE00080E090E00E940F07E0E0F0E00995F60129
:103AF0006591749184E694E00E948F2A40E050E042
:103B000060ED77E084E694E00E948C0E68EE73E04E
:103B100080E090E00E940F07CE0188960E94B514C5
:103B200088CF81E080933A0480E090E00E942930C1
:103B30008032A9F18BE891E00E94CF0D00E010E007
:103B400060E0C8010E949F0B0F5F1F4F0F3FF3E023
:103B50001F07B1F760E280E090E00E949F0B88ECC5
:103B600090E00E94630E61E871E084E690E00E94BC
:103B7000040D6EE871E088E790E00E94040D6BE9A7
:103B800071E08CE890E00E94040D6BE971E08CED2F
:103B900090E00E94040D8AE791E00E94CF0D68EA50
:103BA00071E084EB93E00E948714B4EBEB2EB3E05A
:103BB000FB2E0CED10E0F70161917F011BA30AA31E
:103BC000CE0182960E94E40C0F5F1F4F023E11054A
:103BD00091F788EC90E00E94490E8CED90E00E94F5
:103BE0002F0E8CE691E00E94AE0D60910401709161
:103BF000050180910601909107010E94200E84EB3F
:103C000093E00E94380F8AE591E00E94CF0D0E9458
:103C10004907609355027093560280935702909320
:103C200058028E010F5F1F4F84EA94E00E94E7055F
:103C3000892B09F4BEC064E670E080E090E00E9449
:103C40000F0784EA94E00E94E705892BB1F084EA2B
:103C500094E00E94FF058093A0049093A1048983BF
:103C60001A8241E050E0B8018BE394E00E940F1407
:103C70006AE070E080E090E0E2CF8BE394E00E94A5
:103C8000380F83EB92E00E94AE0D8BE394E00E942C
:103C9000380F6EEA72E0C8010E941715B8018BE375
:103CA00094E00E94E3137C01C8010E94B514F7FC64
:103CB0007AC0B80188E790E00E94650BB801CE0198
:103CC000CA960E945815B8018CE890E00E94650BD6
:103CD000B801CE01C4960E945815B8018CED90E051
:103CE0000E94650BB801CE018E960E945815BE0148
:103CF000665C7F4F8BE394E00E94E31397FD08C05E
:103D000080EA92E00E94CF0DBE01665C7F4F10C03A
:103D1000BE016C5C7F4F8BE394E00E94E31397FD40
:103D200021C082E992E00E94CF0DBE016C5C7F4F02
:103D3000CE0182960E944F156BE374E0CE01889607
:103D40000E944F15BE016E5D7F4FCE0188960E9486
:103D5000A10BCE0188960E94B514CE0182960E94D6
:103D6000B51415C0BE01625D7F4F8BE394E00E94E5
:103D7000E31397FD08C088E892E00E94CF0DBE01D2
:103D8000625D7F4FD5CF8AE792E00E94CF0DCE01D2
:103D90008E960E94B514CE01C4960E94B514CE0131
:103DA000CA960E94B5146EE072E08BE394E00E9424
:103DB00087140E9449076B017C0180913E028111AA
:103DC00004C088EC90E00E94490E809159029091C5
:103DD0005A02A0915B02B0915C0246015701881A19
:103DE000990AAA0ABB0A2091040130910501409169
:103DF000060150910701A8EEB3E00E943F308616FD
:103E00009706A806B90608F472C68CE692E00E94EE
:103E1000AE0D8091590290915A02A0915B02B0912F
:103E20005C02A7019601281B390B4A0B5B0BCA01E8
:103E3000B90128EE33E040E050E00E942227CA0199
:103E4000B9010E94200E41E060E080E00E942E0C4B
:103E5000C0925902D0925A02E0925B02F0925C0248
:103E600081E793E00E94BD098EE593E00E94BD09C1
:103E70008BE493E00E94BD0981E793E00E949010DB
:103E80006B017C018EE593E00E9490104B015C0178
:103E90008BE493E00E9490102B013C010E944310A0
:103EA0001C01EE961FAE1EAEEE97BE0164587F4F0A
:103EB00080EA90E00E948B0BA5019401C701B60136
:103EC0000E945F27A30192010E945F272FE832EC36
:103ED00041EB52E40E945F27AB01BC0122E0CE011E
:103EE000845B9F4F0E94BA14B80184E690E00E9460
:103EF000650BB801CE018A5B9F4F0E945815CE0119
:103F00008A5B9F4F0E94380FB80188E790E00E94BB
:103F1000650BB801CE01805C9F4F0E945815CE0101
:103F2000805C9F4F0E94380FB8018CE890E00E949F
:103F3000650BB801CE01CA960E945815CE01CA96EB
:103F40000E94380F8CED90E00E942F0E6FEA71E016
:103F5000CE0182960E945815BE016A5B7F4FCE014A
:103F600082960E947414BC01CE01C4960E944F1523
:103F7000CE0182960E94B51466EB71E0CE01829666
:103F80000E945815BE01605C7F4FCE0182960E9450
:103F90007414BC01CE018E960E944F15CE018296FC
:103FA0000E94B5146CEB71E0CE0182960E94581508
:103FB000BE01665C7F4FCE0182960E947414BC01E4
:103FC000CE0188960E944F15CE0182960E94B514AC
:103FD00062EC71E0CE0182960E945815BE016A5BC8
:103FE0007F4FCE0182960E94741462EC71E00E94B1
:103FF0005B14BE01605C7F4F0E94741462EC71E040
:104000000E945B14BE01665C7F4F0E94741462ECD8
:1040100071E00E945B1464EB73E00E947414BC01B5
:10402000CE018E5A9F4F0E944F15CE0182960E945C
:10403000B514CE0188960E94B514CE018E960E94CA
:10404000B514CE01C4960E94B514CE01CA960E9442
:10405000B514CE01805C9F4F0E94B514CE018A5BDF
:104060009F4F0E94B514EE968EAD9FADEE976A9667
:104070001FAE1EAE6A976C961FAE1EAE6C976E9604
:104080001FAE1EAE6E974AE0B8010E949F2AB8018B
:10409000CE01885A9F4F0E948714609151027091FF
:1040A00052028091530290915402A0961FAE1EAE10
:1040B000A097A2961FAE1EAEA297A4961FAE1EAEEC
:1040C000A4972AE0A8010E94C72AB801CE01825A0B
:1040D0009F4F0E948714A6961FAE1EAEA697A89665
:1040E0001FAE1EAEA897AA961FAE1EAEAA974AE0B4
:1040F000B801C1010E949F2AB801CE018C599F4F7F
:104100000E94871422E0B301A201CE0186599F4F7D
:104110000E94BA1422E0B501A401CE0180599F4F3C
:104120000E94BA1422E0B701A601CE018A589F4F1F
:104130000E94BA1464EC71E0CE018A5B9F4F0E942A
:104140005815E0E8F6E06591749184E694E00E94E9
:104150008F2A40E050E060E177E284E694E00E943C
:104160008C0E882309F4FBC06AE370E08AEB93E0CD
:104170000E94B528009709F4F2C06CE270E00E943A
:10418000B528009709F4EBC07C013FEFE31AF30A6E
:10419000C7010E94462A6CE270E0C7010E94B52860
:1041A000009709F4DCC07C014FEFE41AF40AC70160
:1041B0000E94462A6CE270E0C7010E94B528009771
:1041C00009F4CDC06C015FEFC51AD50AC6010E9483
:1041D0004A2AF82E6FE270E0C6010E94B5280097C7
:1041E00009F4BDC06C01EFEFCE1ADE0AC6010E94D1
:1041F0004A2AE82E6FE270E0C6010E94B5280097B7
:1042000009F4ADC05C01FFEFAF1ABF0AC5010E94FF
:104210004A2AD82E6CE270E0C5010E94B5280097AA
:1042200009F49DC05C012FEFA21AB20AC5010E94D9
:104230004A2AC82E6AE370E0C5010E94B52800979B
:1042400009F48DC04C013FEF831A930AC4010E9408
:104250004A2AB82E6AE370E0C4010E94B52800978C
:1042600009F47DC001960E944A2A4AE0682FC801DD
:104270000E94EA144AE06B2DCE0182960E94EA1455
:104280004AE06C2DCE0188960E94EA144AE06D2D1A
:10429000CE018E960E94EA144AE06E2DCE01C4969D
:1042A0000E94EA1460E36F0D4AE0CE01805C9F4FEC
:1042B0000E94EA14BE01605C7F4FCE01CA960E9444
:1042C0004F156FE2CE01CA960E943D14BE016C5C90
:1042D0007F4F0E9474146FE20E943D14BE01625D24
:1042E0007F4F0E9474146CE20E943D14BE01685D11
:1042F0007F4F0E9474146AE30E943D14BE016E5DFC
:104300007F4F0E9474146AE30E943D14B8010E941A
:10431000741465ED71E00E945B14BC01CE018A5BF0
:104320009F4F0E949E14CE01CA960E94B514CE01E2
:10433000805C9F4F0E94B514CE01C4960E94B514B4
:10434000CE018E960E94B514CE0188960E94B514B7
:10435000CE0182960E94B514C8010E94B51469ED81
:1043600071E0C8010E9458156EEA73E0C8010E940E
:10437000741462EC71E00E945B14BE016A5B7F4FB3
:104380000E947414BC01CE0182960E944F15C80190
:104390000E94B514CE018A5B9F4F0E94B514BE01E6
:1043A0006E5D7F4FC8010E944F1562EC71E0C8013D
:1043B0000E945B14BE016A587F4F0E94741462EC25
:1043C00071E00E945B14BE0160597F4F0E9474141B
:1043D00062EC71E00E945B14BE0166597F4F0E943F
:1043E000741462EC71E00E945B14BE016C597F4F43
:1043F0000E94741462EC71E00E945B14BE01625A68
:104400007F4F0E94741462EC71E00E945B14BE0145
:10441000685A7F4F0E947414BE016E5A7F4F0E94EB
:10442000741462EC71E00E945B14BE01645B7F4F08
:104430000E947414BC01CE01C4960E944F15C8019D
:104440000E94B514CE0182960E94B514CE018A58FE
:104450009F4F0E94B514CE0180599F4F0E94B51402
:10446000CE0186599F4F0E94B514CE018C599F4FA3
:104470000E94B514CE01825A9F4F0E94B514CE01FE
:10448000885A9F4F0E94B514CE018E5A9F4F0E94AA
:10449000B514CE01845B9F4F0E94B514CE01C49623
:1044A0000E94380F68AD79AD80E090E04AE00E944C
:1044B000DD0D8EEA92E00E949715BE016C5C7F4F85
:1044C000CE018E960E944F1581E592E00E94AE0DBE
:1044D0006DED71E08EEA92E00E94E0156FE38EEAE6
:1044E00092E00E946D15CE018E960E94380FBE019B
:1044F000625D7F4FC8010E944F15B8018DED91E0BC
:104500000E94E10FC8010E94B51480914D02909164
:104510004E02A0914F02B09150020196A11DB11D13
:1045200080934D0290934E02A0934F02B09350029D
:104530000297A105B10518F081E080934C02E0E9F3
:10454000EE2EE6E0FE2EF2E9CF2EF6E0DF2EF701AA
:104550006591749184E694E00E948F2AF60165913A
:1045600074918CE894E00E948F2A6CE874E084E6F1
:1045700094E00E946E0F823020F084E080933A0431
:1045800019C0811117C06EE28EEA92E00E948C047D
:10459000AAE1BA2EBA94BB20D1F284EA94E00E9438
:1045A000E705892BA1F66AE070E080E090E00E94C8
:1045B0000F07F0CF80913A04843079F583E492E0DC
:1045C0000E94CF0D8091510290915202A09153020E
:1045D000B09154020196A11DB11D80935102909398
:1045E0005202A0935302B09354020E945E0D809138
:1045F000510290915202A0915302B09154024597FA
:10460000A105B10518F0E0E0F0E0099568EB7BE06A
:1046100080E090E00E940F074BC28EEA92E00E9479
:104620009715E4E9F6E06591749184E694E00E94C0
:104630008F2A64E674E084EA94E00E94CE1583E059
:1046400080933A04109241040E9449076093420407
:10465000709343048093440490934504E6E9F6E0A4
:104660006591749184E694E00E948F2AE8E9F6E06F
:10467000659174918CE894E00E948F2A6CE874E054
:1046800084E694E00E946E0F813041F7109241045D
:104690004CE052E064E670E080E090E00E948C0E16
:1046A0008AEB93E00E944A2A7C0140E050E060EDF2
:1046B00077E080E090E00E948C0EFFE7EF16F104B7
:1046C00018F07FE7E72EF12CF701E654FC4F10823B
:1046D000EF2809F4C3CF80913A04843039F58091F2
:1046E000510290915202A0915302B091540201964E
:1046F000A11DB11D8093510290935202A0935302C9
:10470000B09354020E945E0D80915102909152022A
:10471000A0915302B09154024597A105B10508F448
:1047200075CF8BE192E00E94CF0D6DCF80E192E0DA
:104730000E94AE0D6AEB73E08EEA92E00E94CE1505
:104740006AEB73E0CE0188960E9458156EE072E025
:10475000CE0182960E9458158CA59DA50097D9F090
:10476000029720F062E0E62EF12C03C0EE24E394E1
:10477000F12CE8A5F9A5EE0DFF1DD080108268A5EB
:1047800079A5CE0182960E94871488A599A5FC017F
:10479000EE0DFF1DD0828AA19BA1009719F00E9407
:1047A000682A03C060E070E0CB016130710509F058
:1047B00067C06EE072E0C8010E945815ECA4FDA429
:1047C000F3E0EF16F104D0F02AE0E216F10418F05D
:1047D0004AE0E42EF12CE8A5F9A5EE0DFF1DD080EE
:1047E000108268A579A56E5F7F4FC8010E9487146B
:1047F00088A599A5FC01EE0DFF1DD08289819A81C3
:10480000009729F00E94682A6B017C0103C0C12C2B
:10481000D12C7601C701B6010E94200ED701C60136
:104820000B97A109B10986379145A140B105E8F47C
:104830008091040190910501A0910601B0910701BA
:10484000C816D906EA06FB0681F080913E02811166
:104850000CC0C0920401D0920501E0920601F092D2
:10486000070188EC90E00E94630E60910401709152
:10487000050180910601909107010E94200EBFC0A2
:104880006230710589F5CE0188960E94490F6FE369
:1048900072E084E690E00E94650B6FE372E0C8016D
:1048A0000E945815B801CE0188960E947B0D88237E
:1048B00009F4A5C085E092E00E94CF0DE12CF12C17
:1048C000B701CE0188960E94FD13FC016081C701EB
:1048D0008C599F4F0E949F0BFFEFEF1AFF0A2DE0AC
:1048E000E216F10469F78BC06330710589F5CE01DA
:1048F00088960E94490F6FE372E088E790E00E947B
:10490000650B6FE372E0C8010E945815B801CE0133
:1049100088960E947B0D882309F471C08AEF91E08C
:104920000E94CF0DE12CF12CB701CE0188960E9498
:10493000FD13FC016081C70188589F4F0E949F0BA7
:10494000FFEFEF1AFF0A2DE0E216F10469F757C0F6
:104950006430710581F5CE0188960E94490F6FE39E
:1049600072E08CE890E00E94650B6FE372E0C80192
:104970000E945815B801CE0188960E947B0D8823AD
:10498000F1F18FEE91E00E94CF0DE12CF12CB701F7
:10499000CE0188960E94FD13FC016081C7018457F7
:1049A0009F4F0E949F0BFFEFEF1AFF0A2DE0E216C8
:1049B000F10469F724C06530710541F41A82198247
:1049C000B80180EA90E00E94370D3CC06630710566
:1049D000A1F5CE0188960E94490F6FE372E08CED3D
:1049E00090E00E94650B6FE372E0C8010E945815C9
:1049F000B801CE0188960E947B0D811104C0C801C8
:104A00000E94B5141FC084EE91E00E94CF0DE12CEE
:104A1000F12CB701CE0188960E94FD13FC01608144
:104A2000C70184529F4F0E949F0BFFEFEF1AFF0AAE
:104A30002DE0E216F10469F7E2CF6730710511F459
:104A400010923E028DED91E00E94AE0D60914D02FC
:104A500070914E0280914F02909150024AE00E9464
:104A6000DD0D8091510290915202A0915302B091BC
:104A70005402892B8A2B8B2B79F084ED91E00E94D4
:104A8000AE0D60915102709152028091530290914B
:104A900054024AE00E94DD0D8EEA92E00E949715D2
:104AA000CE0182960E94B514CE0188960E94B5145C
:104AB000CE018E960E94B514CE01C4960E94B51404
:104AC00040E061E080E00E942E0C8DE592E00E94C3
:104AD000AE0D8091D0049091D104009711F486ED31
:104AE00094E0A801481B590BCA010E949B150E9423
:104AF0004907C0905502D0905602E0905702F090BE
:104B00005802DC01CB018C199D09AE09BF09813027
:104B10009C45A642B54018F0E0E0F0E0099564EF4E
:104B200071E080E090E00E940F070E94F5047CC8CD
:104B30008EEA93E00E94B51483EC94E00E94B514D1
:104B400084EB93E00E94B51489EC94E00E94B514C4
:104B500088E594E00E94B51482E594E00E94B514C3
:104B60008CE494E00E94B51486E494E00E94B514AD
:104B70008BE394E00E94B51488E291E09093A50441
:104B80008093A4048091A2049091A304845A944039
:104B900071F4E091B704F091B80490818091B90468
:104BA0008095892380831092A3041092A204089513
:104BB0001092B1021092B00288EE93E0A0E0B0E053
:104BC0008093B2029093B302A093B402B093B50263
:104BD00028E131E03093AF022093AE0225EC30E0C3
:104BE0003093BB022093BA0224EC30E03093BD0234
:104BF0002093BC0220EC30E03093BF022093BE0231
:104C000021EC30E03093C1022093C00222EC30E06E
:104C10003093C3022093C20226EC30E03093C502E9
:104C20002093C4021092C7021092C8021092C902C7
:104C30001092CA021092A7041092A6048093A804AE
:104C40009093A904A093AA04B093AB0488E291E0E6
:104C50009093A5048093A4041092BB041092BA040C
:104C60001092BD041092BC041092BF041092BE04B6
:104C70001092C1041092C0046091C2046E7F6D7FD7
:104C80006093C2046695617081E0682787E00E94A6
:104C9000A30661E087E00E94D306EBECF6E0E49126
:104CA000E093B404E7EBF6E0E491F0E0EE0FFF1FD1
:104CB000E456F94F859194919093B6048093B5048E
:104CC00060E088E00E94D3068091C20481FD04C0A8
:104CD00061E088E00E94A30688E08093B004ECECD9
:104CE000F6E0E491E093B104E8EBF6E0E491F0E063
:104CF000EE0FFF1FEA55F94F859194919093B304FD
:104D00008093B20410923A046EE072E08BE394E078
:104D10000E9458156EE072E086E494E00E945815F7
:104D20006EE072E08CE494E00E9458156EE072E050
:104D300082E594E00E9458156EE072E088E594E008
:104D40000E9458151092A1041092A0046EE072E027
:104D500089EC94E00E9458156EE072E084EB93E0D9
:104D60000E9458156EE072E083EC94E00E945815A2
:104D700064E172E08EEA93E00E94581560E180EAF7
:104D800093E00E948E0961E182E993E00E948E091E
:104D900064E084E893E00E948E0929E735E03093CF
:104DA00083032093820380EA93E0909377038093B8
:104DB0007603109275031092710399E09093720339
:104DC00081E0809373038093740330937003209386
:104DD0006F0342E953E050936403409363031092DE
:104DE000620310925E0390935F038093600380934D
:104DF000610330935D0320935C0324E833E0309338
:104E000051032093500310924F0310924B03909341
:104E10004C0380934D0380934E03089597FB072E18
:104E200016F4009407D077FD09D00E94442707FCB0
:104E300005D03EF4909581959F4F089570956195AA
:104E40007F4F0895A1E21A2EAA1BBB1BFD010DC0C6
:104E5000AA1FBB1FEE1FFF1FA217B307E407F5072A
:104E600020F0A21BB30BE40BF50B661F771F881F06
:104E7000991F1A9469F760957095809590959B019C
:104E8000AC01BD01CF010895AA1BBB1B51E107C0B6
:104E9000AA1FBB1FA617B70710F0A61BB70B881FCA
:104EA000991F5A95A9F780959095BC01CD01089559
:104EB000EE0FFF1F0590F491E02D09945058BB2789
:104EC000AA270E9476270C94EF2F0E94E12F38F03A
:104ED0000E94E82F20F039F49F3F19F426F40C9437
:104EE000DE2F0EF4E095E7FB0C94D82FE92F0E94FB
:104EF000003058F3BA17620773078407950720F04C
:104F000079F4A6F50C9422300EF4E0950B2EBA2F0E
:104F1000A02D0B01B90190010C01CA01A0011124BF
:104F2000FF27591B99F0593F50F4503E68F11A166B
:104F3000F040A22F232F342F4427585FF3CF4695FC
:104F400037952795A795F0405395C9F77EF41F161E
:104F5000BA0B620B730B840BBAF09150A1F0FF0FE8
:104F6000BB1F661F771F881FC2F70EC0BA0F621FD4
:104F7000731F841F48F4879577956795B795F795C4
:104F80009E3F08F0B0CF9395880F08F09927EE0F59
:104F9000979587950895A0E0B0E0E1EDF7E20C94D5
:104FA0004E30EC01009721F4CB010E941929B8C0C2
:104FB000FC01E60FF71F9C0122503109E217F307AD
:104FC00008F4ACC0D9010D911C9111970617170771
:104FD000B0F00530110508F49FC0C801049786178A
:104FE000970708F499C002501109061B170B01938B
:104FF00011936D937C93CF010E94AE298DC05B010C
:10500000A01AB10A4C01800E911EA091D204B09159
:10501000D30440E050E0E12CF12C109709F44AC091
:10502000A815B905D1F56D907C901197630182E0C8
:10503000C80ED11CCA14DB0480F1A3014A195B0914
:105040006A0182E0C80ED11C1296BC90129713968A
:10505000AC91B5E0CB16D10440F0B282A38351836A
:105060004083D9016D937C930AC00E5F1F4FC3012B
:10507000800F911FF90191838083EB2DFA2FE114AA
:10508000F10431F0D7011396FC93EE93129744C0CC
:10509000F093D304E093D2043FC08D919C9111977B
:1050A0004817590708F4AC017D0112960D90BC9188
:1050B000A02DB3CF8091D0049091D104881599058B
:1050C000E1F446175707C8F480910801909109014F
:1050D000009741F48DB79EB740910C0150910D019E
:1050E000841B950BE817F907C8F4F093D104E093FB
:1050F000D004F901718360830FC0CB010E9419298C
:105100007C01009759F0A801BE010E949A28CE01A7
:105110000E94AE29C70104C0CE0102C080E090E029
:10512000CDB7DEB7EEE00C946A3081E090E0F89401
:105130000C949030FB01DC0102C001900D924150B3
:105140005040D8F708956817790768F4FB01DC012F
:10515000E40FF51FA40FB51F02C002900E9241503C
:105160005040D8F708950C949A28FC018191861735
:1051700021F08823D9F7992708953197CF01089511
:10518000FB01DC018D91019080190110D9F3990B7D
:105190000895FB01DC0101900D920020E1F70895D4
:1051A000FB01DC014150504048F001900D9200207D
:1051B000C9F701C01D9241505040E0F70895FB012E
:1051C00051915523A9F0BF01DC014D9145174111C3
:1051D000E1F759F4CD010190002049F04D914015BF
:1051E0004111C9F3FB014111EFCF81E090E001973C
:1051F0000895EF920F931F93CF93DF93E80147FD3C
:1052000002C034E001C034E1E42F440FFF0BF7FF8C
:1052100003C0F195E195F109E32E022F2E2FAE0187
:105220000E940E2BCE01DF91CF911F910F91EF9035
:105230000895CF93DF938230910510F482E090E0DF
:10524000E091D204F091D30420E030E0C0E0D0E05F
:10525000309711F14081518148175907C0F0481724
:10526000590761F482819381209719F09B838A8387
:105270002BC09093D3048093D20426C0211531050E
:1052800019F04217530718F49A01BE01DF01EF012C
:105290000280F381E02DDCCF2115310509F1281BB7
:1052A000390B2430310590F412968D919C9113970F
:1052B0006115710521F0FB019383828304C09093F3
:1052C000D3048093D204FD01329644C0FD01E20F65
:1052D000F31F81939193225031092D933C933AC04F
:1052E0002091D0043091D104232B41F420910A0164
:1052F00030910B013093D1042093D0042091080108
:10530000309109012115310541F42DB73EB7409187
:105310000C0150910D01241B350BE091D004F0914C
:10532000D104E217F307A0F42E1B3F0B281739070F
:1053300078F0AC014E5F5F4F2417350748F04E0FF1
:105340005F1F5093D1044093D0048193919302C086
:10535000E0E0F0E0CF01DF91CF9108950F931F932C
:10536000CF93DF93009709F48CC0FC01329713822E
:1053700012820091D2041091D3040115110581F419
:1053800020813181820F931F2091D0043091D1046C
:105390002817390779F5F093D104E093D00471C050
:1053A000D80140E050E0AE17BF0750F412962D919F
:1053B0003C911397AD012115310509F1D901F3CFC6
:1053C0009D01DA013383228360817181860F971FEB
:1053D0008217930769F4EC0128813981260F371F62
:1053E0002E5F3F4F318320838A819B819383828309
:1053F000452B29F4F093D304E093D20442C01396D2
:10540000FC93EE931297ED01499159919E01240F5F
:10541000351FE217F30771F480819181840F951F86
:10542000029611969C938E938281938113969C93FE
:105430008E931297E0E0F0E0D80112968D919C9146
:105440001397009719F0F8018C01F6CF8D919C917C
:1054500098012E5F3F4F820F931F2091D00430910F
:10546000D1042817390769F4309729F41092D3042E
:105470001092D20402C0138212821093D1040093BE
:10548000D004DF91CF911F910F9108956627772760
:105490000C949C2CFC0188279927E89421912032B8
:1054A000E9F3293010F02E30C8F32B3241F02D32C1
:1054B00039F4689404C00E94BF2A820F911D219183
:1054C00020532A30C0F31EF4909581959F4F089584
:1054D0001F93FC0199278827BC01E8941191103291
:1054E000E9F3193010F01E30C8F31B3251F01D32B1
:1054F00049F4689406C00E94AA2A610F711D811D9B
:10550000911D119110531A30B0F33EF4909580958F
:10551000709561957F4F8F4F9F4F1F910895FB01AD
:10552000DC0105900D920020E1F70895FC01059043
:105530000020E9F7809590958E0F9F1F0895BB2757
:105540004A3031F4992322F4BDE2909581959F4F22
:105550000C94F52A592F482F372F262F660F771FC7
:10556000881F991F660F771F881F991F620F731F6F
:10557000841F951F660F771F881F991F08957AE073
:10558000979F902D879F802D910D11240895BB2703
:10559000FA01A62F6217710581059105330B30FBC7
:1055A00066F0AA27660F771F881F991FAA1FA217E8
:1055B00010F0A21B63953850A9F7A05DAA3308F03C
:1055C000A95DA19336F7B111B1931082CA010C9471
:1055D000F22E4532510520F4423010F00C94F42A9A
:1055E000FB011082CB010895BB27FB015527AA2799
:1055F000880F991FAA1FA41710F0A41B8395505160
:10560000B9F7A05DAA3308F0A95DA193009779F7D7
:10561000B111B1931192CB010C94F22E4F925F9283
:105620006F927F929F92AF92BF92CF92DF92EF9252
:10563000FF920F931F93CF93DF93CDB7DEB72997D8
:105640000FB6F894DEBF0FBECDBF6A01122FB02E89
:105650002BE3201720F0FF24F394F00E02C0BCE3EC
:10566000FB2E0F2D27E0AE014F5F5F4F0E94F92DFB
:10567000AC018981982F9970913031F0E1FC06C01E
:10568000E0FE06C090E205C09DE203C09BE201C0BF
:1056900090E0EE2DE07183FF3CC0911102C083E0E9
:1056A00001C084E0811718F4212F281B01C020E0DD
:1056B000E1110BC0F601822F30E2882319F03193FB
:1056C0008150FBCFC20ED11C20E0992329F0D601D6
:1056D0009C93F60131966F01C6010396E2FE0AC063
:1056E0003EE4D6013C9341E411964C9311971296F7
:1056F0003C9306C03EE6F601308341E641833283A7
:10570000FC01322F40E2332309F442C0419331506F
:10571000FACF82FF44C0911102C083E001C084E04F
:10572000811718F4212F281B01C020E0E1110BC0C4
:10573000F601822F30E2882319F031938150FBCF9C
:10574000C20ED11C20E0992329F0D6019C93F601CA
:1057500031966F01C6010396E2FE0BC039E4D60113
:105760003C933EE411963C93119736E412963C9399
:1057700007C039E6F60130833EE6318336E63283F0
:10578000FC01322F40E2332319F041933150FBCF1B
:10579000FC01E20FF11D10828EEF9FEFB7C0F1E028
:1057A000911101C0F0E06F2F70E01416150624F47B
:1057B0009A012F5F3F4F02C021E030E0260F371FD4
:1057C000BB2029F06B2D70E06F5F7F4F02C060E05F
:1057D00070E0260F371F612F70E0261737071CF483
:1057E000121B212F01C020E03E2D387159F4D60143
:1057F000322F60E2332319F06D933150FBCFC20E8C
:10580000D11C20E0FF2331F0D6019C93B6016F5FDD
:105810007F4F6B01E1110BC0F601922F30E399230A
:1058200019F031939150FBCFC20ED11C20E09F2D77
:10583000940F3A81782F7071A72E84FF03C0313303
:1058400009F49150191624F4993018F098E001C029
:1058500091E0E42F852F57FF02C0E0E080E06E2F3B
:10586000782FE0E0F0E0AEE29A2E3A01691A710872
:105870002A01461A570A0B2D10E0119501951109BE
:105880006F3F8FEF780729F4D6019C92C6010196ED
:105890006C014617570784F0661677066CF47F0193
:1058A000E40CF51CA1E0B0E0AC0FBD1FEA0EFB1E3E
:1058B000D7011196BC9002C090E3B92E61507109D6
:1058C0003196C60101967C016017710724F0D6015C
:1058D000BC926C01D5CF6417750741F4363320F4C0
:1058E000353321F4A11002C081E3B82EF601B08255
:1058F000F701822F90E2882319F091938150FBCF1A
:10590000F701E20FF11D108280E090E029960FB6BA
:10591000F894DEBF0FBECDBFDF91CF911F910F91E5
:10592000FF90EF90DF90CF90BF90AF909F907F90CF
:105930006F905F904F900895A0E0B0E0E2EAFCE243
:105940000C944E30EC017B016115710519F0DB01FF
:105950008D939C938E010F5F1F4F7880872D90E071
:105960000E94D12E892B11F0E801F4CFBDE27B1209
:1059700005C00F5F1F4F7980C1E008C0EBE27E12C7
:1059800004C08E010E5F1F4F7980C0E06801F1E016
:10599000CF1AD10843E050E060EE76E0C6010E94E5
:1059A000DA2E892BF1F4680122E0C20ED11C45E009
:1059B00050E06BED76E0C6010E94DA2E892B21F4CF
:1059C000680187E0C80ED11CE114F10419F0D70179
:1059D000CD92DC92C111FFC060E070E080E89FE7EB
:1059E00003C143E050E068ED76E0C6010E94DA2E84
:1059F000892B51F4E114F10409F4F2C00E5F1F4F3A
:105A0000F70111830083ECC0680160E070E0CB0116
:105A100000E010E0F601D0EDD70DDA3058F52C2F6C
:105A20002260622E2C2F2870C2FF05C0211128C0D1
:105A30000F5F1F4F25C0222311F001501109A5E06F
:105A4000B0E09B01AC010E943F304B015C01880C2F
:105A5000991CAA1CBB1CC501B4016D0F711D811DD1
:105A6000911D6839A9E97A078A07A9E19A0740F0E8
:105A7000C66005C0DE3F51F4C3FD44C0C8606C2E53
:105A8000BFEFCB1ADB0A7080C62DC4CF2D2F2F7D20
:105A90002531C1F540814D3211F4C06106C04B3251
:105AA00021F0319621E030E006C03296D601119601
:105AB0004C9122E030E0A0EDA40FAA3018F0E21BD8
:105AC000F30B20C040E050E04038BCE05B075CF4E2
:105AD0009A01220F331F220F331F420F531F440F0F
