:100000000C94F5040C9479290C94A0290C94C7271E
:100010000C94C7270C94C7270C941D050C941D0540
:100020000C941D050C94251A0C941D050C941D05AB
:100030000C941D050C941D050C941D050C941D05B8
:100040000C94C7290C941D050C94D12C0C94032DF1
:100050000C941D050C941D050C941D050C941D0598
:100060000C941D050C941D05446576696365204F4D
:100070004E00446576696365204F464600496E74BC
:10008000657276616C2070696E67207365633A00F3
:100090000A66726565206D656D6F72793A20004958
:1000A0006E74657276616C207365633A000A534919
:1000B0004D38303020736574757020656E64004172
:1000C0006C6C20534D532064656C657465004F4B18
:1000D000000A66726565206D656D6F72793A200061
:1000E000496E74657276616C207365633A000A2A02
:1000F0002A205761746368646F67206F6E202A2A14
:10010000005761746368646F67206F666600436CB4
:1001100065617220454550524F4D20456E64005434
:10012000657374205761746368646F67005374610A
:10013000727420636C65617220454550524F4D00CA
:100140000A53494D383030207365747570207374CC
:10015000617274004750525320636F6E6E65637412
:10016000202E2E0072737369202E2E000A526567AE
:100170006973746572656420726F616D696E670082
:100180000A556E6B6E6F776E000A44656E69656422
:10019000000A4E6F742072656769737465726564D6
:1001A0002028736561726368696E6729000A526569
:1001B00067697374657265642028686F6D652900CE
:1001C0000A4E6F74207265676973746572656400A6
:1001D0003A20000A4E6574776F726B2073746174F5
:1001E000757320000A53494D20434349443A000A9D
:1001F000494D45493A002E000A53657474696E678B
:10020000207570206D6F62696C65206E6574776F04
:10021000726B2E2E2E004F4B00436F756C646E2751
:10022000742066696E64206D6F64756C652047503C
:10023000525300506F7765722053494D383030204B
:100240004F6E00496E697469616C697A696E672ED8
:100250002E2E2E284D61792074616B6520352D314D
:1002600030207365636F6E64732900534D532064AF
:10027000656C6574650070686F6E652069676E6F88
:1002800072656400446576696365204F46460044A4
:1002900065766F666600446576696365204F4E003B
:1002A0004465766F6E00534D532063656E74720023
:1002B000436F6D6D616E64612074656C3100534DE8
:1002C000532064656C65746500534D533A00556E58
:1002D0006B6E6F776E20636F6D6D616E6400446549
:1002E00076696365204F4646004465766F66660012
:1002F000446576696365204F4E004465766F6E00F5
:10030000454550524F4D204F464600456F666600AA
:10031000454550524F4D204F4E00456F6E0048549A
:1003200054502053534C204F46460053736C6F6615
:100330006600485454502053534C204F4E00537382
:100340006C6F6E0054696D656F66660054696D650B
:100350006F666600526573746172740052657374DF
:100360006172740054696D65736574004F4E004F7F
:10037000464600446576696365202E2E006E6F2028
:10038000636F6D706172650054656C20636F6D7092
:10039000617265006E6F20636F6D706172650049F8
:1003A0006E7465726E657420636F6E6E6563742023
:1003B0004F4B212D0057616974204950000A466156
:1003C000696C656420636F6E6E65637420696E741A
:1003D00065726E657400496E7465726E6574206333
:1003E0006F6E6E656374204F4B212D0057616974E9
:1003F000204950000A496E7465726E657420485435
:10040000545020636F6E6E656374202E2E0020455D
:1004100072726F72733A2000546F74616C3A2000EC
:100420005B5061796C6F61645D2000546865206E7B
:10043000756D626572206F662073657276657220D5
:100440006572726F72732065786365656465642098
:100450003130004572726F72732065786365656430
:10046000656400436F6E6E656374206572726F72AF
:100470002048545450000A485454505F73736C3AE7
:1004800020736574204F46462066616C73652100B9
:100490000A485454505F73736C3A20736574204F4C
:1004A0004646207375636365737366756C6C79215A
:1004B000000A485454505F73736C3A20736574207B
:1004C0004F4E2066616C736521000A485454505F9A
:1004D00073736C3A20736574204F4E207375636399
:1004E00065737366756C6C7921000A4E6F20696EB6
:1004F0007465726E657420636F6E6E656374696F88
:100500006E004552524F52005265717565737469A1
:100510006E67202E2E205761697400746F53656ECC
:10052000642E6C656E6774683A2000005EBCE26100
:100530003FDD83C29C7E20A3FD1F419DC3217FFC24
:10054000A2401E5F01E3BD3E6082DC237D9FC1426D
:100550001CFEA0E1BF5D0380DE3C62BEE0025CDF0A
:1005600081633D7C22C09E1D43A1FF4618FAA4274B
:10057000799BC584DA3866E5BB5907DB856739BAEC
:10058000E406581947A5FB7826C49A653BD9870429
:100590005AB8E6A7F91B45C6987A24F8A6441A99D2
:1005A000C7257B3A6486D85B05E7B98CD2306EEDFF
:1005B000B3510F4E10F2AC2F7193CD114FADF370BC
:1005C0002ECC92D38D6F31B2EC0E50AFF1134DCED5
:1005D00090722C6D33D18F0C52B0EE326C8ED053A2
:1005E0000DEFB1F0AE4C1291CF2D73CA947628ABBB
:1005F000F517490856B4EA6937D58B5709EBB53674
:10060000688AD495CB2977F4AA4816E9B7550B88A0
:10061000D6346A2B7597C94A14F6A8742AC8961559
:100620004BA9F7B6E80A54D7896B3541542B434997
:1006300050534855540041542B485454505445523B
:100640004D0041542B4854545053534C3D300041BD
:10065000542B4854545053534C3D310041542B4873
:10066000545450524541440041542B485454504135
:100670004354494F4E3D300041542B485454505040
:100680004152413D2255524C222C220041542B48CC
:10069000545450504152413D22434944222C310090
:1006A00041542B48545450494E49540041542B480E
:1006B0005454505445524D0041542B435351004122
:1006C000542B434D4744413D2244454C20414C4C22
:1006D000220041542B434D47443D310041542B43AC
:1006E0004D47523D31004D454741464F4E00696EE2
:1006F0007465726E657400696E7465726E657400FF
:100700004D656761004265656C696E6500696E7470
:1007100065726E65742E6265656C696E652E7275A4
:10072000006265656C696E65006265656C696E6521
:1007300000696E7465726E65742E6265656C696EB3
:10074000652E727500426565004D545300696E74E4
:1007500065726E65742E6D74732E7275006D747390
:10076000006D747300696E7465726E65742E6D74BD
:10077000732E7275004D54530041542B434F505308
:100780003F0041542B434349440041542B47534EAF
:100790000041542B435245473F0041542B53415095
:1007A00042523D322C310041542B53415042523D74
:1007B000312C3100436F6E6E656374204750525385
:1007C0002E2E0041542B434744434F4E543D312C71
:1007D000224950222C220041542B53415042523D79
:1007E000332C312C22505744222C220041542B53BD
:1007F000415042523D332C312C2255534552222C2C
:10080000220041542B53415042523D332C312C2273
:1008100041504E222C220041542B53415042523D14
:10082000332C312C22436F6E74797065222C224751
:1008300050525322004154202B20434D4746203D27
:1008400020310041542B435343533D2247534D2203
:100850000041542B434C49503D310041542B434DF2
:1008600047463D310041542B4346554E3D310041F2
:100870005445300041542B4950523D3139323030CB
:10088000004154004154004154004154004154007F
:10089000000000080002010000030407000000003F
:1008A000000000000102040810204080010204083A
:1008B00010200102040810200404040404040404A9
:1008C000020202020202030303030303000000000A
:1008D00023002600290000000000250028002B002E
:1008E00000000000240027002A0000407A10F35A7C
:1008F00000A0724E18090010A5D4E80000E8764860
:10090000170000E40B54020000CA9A3B000000E10B
:10091000F505000080969800000040420F0000009E
:10092000A08601000000102700000000E80300007E
:1009300000006400000000000A0000000000010048
:10094000000000002C76D888DC674F0823DFC1DF69
:10095000AE59E1B1B796E5E3E453C63AE65199766C
:1009600096E8E6C28426EB898C9B62ED407C6FFCA6
:10097000EFBC9C9F40F2BAA56FA5F490055A2AF7E8
:100980005C936B6CF9676DC11BFCE0E40D47FEF5F1
:1009900020E6B500D0ED902E030094357705008059
:1009A000841E080000204E0A000000C80C333333B8
:1009B000330F986E12831141EF8D2114893BE65558
:1009C00016CFFEE6DB18D1844B381BF77C1D901D3B
:1009D000A4BBE424203284725E228100C9F124EC9D
:1009E000A1E53D277715332D061611241FBECFEF45
:1009F000D8E0DEBFCDBF12E0A0E0B1E0E6E4F8E76A
:100A000002C005900D92A43AB107D9F725E0A4EAF7
:100A1000B2E001C01D92AB33B207E1F719E0C8EEB6
:100A2000D9E004C02297FE010E943636C43ED107A9
:100A3000C9F70E94772D0C94163C0C9400000F937C
:100A40001F930E94112AA895009116041091170473
:100A500020911804309119049B01201B310B309315
:100A60001B0420931A046093160470931704809358
:100A700018049093190480911A0490911B04803FEC
:100A80009B403CF080911A0490911B048E3F9B4048
:100A90007CF080911A0490911B0488359340E4F017
:100AA00080911A0490911B048636934054F114C02F
:100AB00082E090E090931D0480931C0480911204C6
:100AC00090911304019690931304809312048091E3
:100AD00012049091130428C080911A0490911B0471
:100AE0008F359140A4F180911A0490911B048237B4
:100AF00091406CF583E090E090931D0480931C047A
:100B000026C081E090E090931D0480931C048091A6
:100B10001404909115040196909315048093140485
:100B200080911404909115048B3F910584F01092EC
:100B30001D0410921C040E94E0196091CA03709178
:100B4000CB0387E193E01F910F910C9444261F91F2
:100B50000F9108950C9468390C946039CF92DF920C
:100B6000EF92FF920F931F93CF93DF9300D0CDB7F7
:100B7000DEB76C018B017C0180E1E80EF11CC6013F
:100B800069837A830E946039F80181938F01FFEFB6
:100B9000CF1ADF0A69817A81CE14DF0481F7CB0195
:100BA0000F900F90DF91CF911F910F91FF90EF90D9
:100BB000DF90CF900895CF92DF92EF92FF920F9344
:100BC0001F93CF93DF9300D0CDB7DEB76C018B01BD
:100BD0007C018FE0E80EF11CC60169837A830E94D4
:100BE0006039F80181938F01FFEFCF1ADF0A698125
:100BF0007A81CE14DF0481F7CB010F900F90DF9143
:100C0000CF911F910F91FF90EF90DF90CF900895BB
:100C10000F931F93CF93DF93CEE1D1E08C010E5160
:100C20001140C8018C0F9D1F0E946039899381E09B
:100C3000C232D807B1F78EE191E0DF91CF911F91D9
:100C40000F910895EF92FF920F931F93CF93DF932D
:100C50001F92CDB7DEB77C01FC0100811181C80174
:100C600069830E9460396981681719F0C8010E9480
:100C70006839C7010F90DF91CF911F910F91FF90BD
:100C8000EF900895BF92CF92DF92EF92FF920F9371
:100C90001F93CF93DF9300D01F92CDB7DEB78C01A7
:100CA000B62EE62EF72E6C0184E0C80ED11CF7019B
:100CB00061917F011A830983CE0101967B830E9493
:100CC00022060F5F1F4F7B810C151D0581F78B2DB1
:100CD000972F0F900F900F90DF91CF911F910F9151
:100CE000FF90EF90DF90CF90BF9008951F93CF9328
:100CF000DF931F92CDB7DEB7162F682F8AE04983A6
:100D00000E942D2B612F8EE00E942D2B4981642F94
:100D10008FE00F90DF91CF911F910C942D2B80913C
:100D20001C0490911D04892B29F440E060E081E0CF
:100D30000E94760680911C0490911D040197D9F4BD
:100D400020911E0430911F0481E090E0232B11F0CC
:100D500080E090E090931F0480931E0480911E0415
:100D600090911F0440E060E0892B11F481E001C004
:100D700080E00E94760680911C0490911D040297E9
:100D8000D9F420911E0430911F0481E090E0232BC0
:100D900011F080E090E090931F0480931E048091F6
:100DA0001E0490911F04892B11F440E001C041E022
:100DB00060E080E00E94760680911C0490911D0402
:100DC0000397D9F420911E0430911F0481E090E034
:100DD000232B11F080E090E090931F0480931E0479
:100DE00080911E0490911F0440E0892B11F460E073
:100DF00001C061E080E00C94760608950F931F9384
:100E0000CF93DF93CDB7DEB7A1970FB6F894DEBFCF
:100E10000FBECDBF8C01BE016F5F7F4F8091170168
:100E2000909118010E94DB05BE016F5F7F4FCE01DC
:100E30004C960E94CD2F6DE271E0CE0140960E944B
:100E4000CD2FBE01645E7F4FCE0140960E94B3312C
:100E5000BC01CE014C960E943A30CE0140960E94D1
:100E60005F2FBE016F5F7F4F809111019091120142
:100E70000E94DB05BE016F5F7F4FCE0146960E9448
:100E8000CD2F62E371E0CE0140960E94CD2FBE01CE
:100E90006A5E7F4FCE0140960E94B331BC01CE0105
:100EA00046960E943A30CE0140960E945F2F68E33A
:100EB00071E0CE0140960E94CD2FBE01645E7F4F4F
:100EC000CE0140960E94B33168E371E00E94C631C2
:100ED000BE016A5E7F4F0E94B33168E371E00E94F9
:100EE000C6316AE371E00E94C63163E074E00E949B
:100EF000B331BC01C8010E945130CE0140960E941E
:100F00005F2FCE0146960E945F2FCE014C960E9425
:100F10005F2FC801A1960FB6F894DEBF0FBECDBFFC
:100F2000DF91CF911F910F910895CF93DF93C0E090
:100F3000D0E064EF73E089E994E00E94022E87E13B
:100F400093E00E943B2081111AC080911C04909173
:100F50001D04039739F062E370E080E090E00E94A6
:100F6000402AF3CF6CEE73E089E994E00E94022EF0
:100F700087E193E00E94452166ED73E02BC0219646
:100F8000CB30D10544F06091CA037091CB0387E167
:100F900093E00E9444266DEB73E089E994E00E949F
:100FA000022E68EE73E080E090E00E94402A80917B
:100FB0001C0490911D04039709F0BBCF65EB73E00F
:100FC00089E994E00E94022E87E193E00E94452186
:100FD0006FE973E089E994E0DF91CF910C94022EE0
:100FE000EF92FF920F931F93CF93DF93CDB7DEB7AE
:100FF00064970FB6F894DEBF0FBECDBF8B01198A80
:101000001A8A1B8A1C8A8330910509F4ABC03CF410
:101010008130910571F0029709F45AC013C18530EF
:10102000910509F4DAC00CF4CDC0069709F4E0C0CC
:1010300009C1CB010E943634AB01BC01498B5A8BEC
:101040006B8B7C8B2AE030E089E994E00E944D2F85
:1010500089899A89AB89BC89AC01BD014E5151097E
:1010600061097109433651456140710510F54091A0
:101070001E0150911F016091200170912101841780
:101080009507A607B707A9F020910C03211111C0FD
:1010900080931E0190931F01A0932001B093210122
:1010A000BE016F5E7F4F80911301909114010E94E9
:1010B000420640911E0150911F01609120017091E4
:1010C00021012AE030E089E994E00E944D2FBAC066
:1010D000BE016F5F7F4F80911701909118010E94B0
:1010E000AE05BE016F5F7F4F89E994E00E94262E16
:1010F000BE016F5F7F4FC8010E94E03181112FC098
:1011000064E973E089E994E00E94022EE12CF12C5D
:10111000B701C8010E94FF312091170130911801D9
:10112000FC016081C701820F931F0E94AA05FFEF97
:10113000EF1AFF0A2DE0E216F10451F7BE016F5FCE
:101140007F4F80911701909118010E94AE05BE015A
:101150006F5F7F4F89E994E00E94262E73C068E894
:1011600073E06CC0BE016F5F7F4F80911101909161
:1011700012010E94AE05BE016F5F7F4FC8010E9441
:10118000E03181115FC06DE773E089E994E00E946E
:10119000022EE12CF12CB701C8010E94FF312091F1
:1011A000110130911201FC016081C701820F931F70
:1011B0000E94AA05FFEFEF1AFF0A2DE0E216F104E4
:1011C00051F740C0CB010E94363461307105810572
:1011D0009105C1F51092100435C0CB010E94363440
:1011E000613071058105910569F510920C032AC0E3
:1011F00080910D0190910E010E94AC05811122C0D9
:10120000C8010E943634F62E00910F011091100192
:10121000C8010E94AC05F816A9F06F2DC8010E9404
:10122000AA0563E773E089E994E00E94022EF110B9
:1012300003C06FE673E002C06CE673E089E994E0F6
:101240000E94022E64960FB6F894DEBF0FBECDBF8B
:10125000DF91CF911F910F91FF90EF9008958F92A2
:101260009F92AF92BF92CF92DF92EF92FF920F9335
:101270001F93CF93DF93CDB7DEB7A2970FB6F89445
:10128000DEBF0FBECDBF8C0168E075E089E994E058
:101290000E94C42D41E060E080E00E9476060E943A
:1012A0009507E12CF12C87E193E00E949E248111A7
:1012B00050C06FE371E089E994E00E94F52D67E189
:1012C00073E089E994E00E94262E67E173E0CE0185
:1012D00041960E94CD2F62E075E0CE0101960E94FA
:1012E0005431BE016F5F7F4FCE0141960E944D3257
:1012F0006C01CE0101960E945F2FD7FC0CC06AEEF4
:1013000074E089E994E00E94022E68EE73E080E0C8
:1013100090E00E94402A87E193E00E94792468EEE1
:1013200073E080E090E00E94402A8FEFE81AF80A0C
:10133000E6E0EE16F10444F06091CA037091CB032D
:1013400087E193E00E944426CE0141960E945F2FE0
:10135000AACF80911D01882369F061E087E193E0C5
:101360000E94F225882319F06AEC74E00FC061EB4B
:1013700074E00CC060E087E193E00E94F2258823CE
:1013800019F060E974E002C066E774E089E994E06E
:101390000E94022E80911D018823D9F061E471E042
:1013A00089E994E00E94F52D6FE389E994E00E94B9
:1013B000F72DB80189E994E00E94142EB801CE01FE
:1013C00001960E945130AE014F5F5F4F61E471E0C2
:1013D0001AC068E571E089E994E00E94F52D6FE399
:1013E00089E994E00E94F72DB80189E994E00E9410
:1013F000142EB801CE0101960E945130AE014F5F0C
:101400005F4F68E571E087E193E00E940325CE011C
:1014100001960E945F2F809115039091160301960B
:1014200090931603809315031092110487E193E0C3
:101430000E94861D811114C0E0919904F0919A04D4
:101440000190F081E02D6EE289E994E0099512E3C4
:1014500087E193E00E943226882309F4A6C1E6CFF3
:101460008091C303843059F563E674E089E994E020
:101470000E94022E8091CA039091CB030196909313
:10148000CB038093CA030697A0F063E574E089E973
:1014900094E00E94022E68EB7BE080E090E00E94E6
:1014A000402A6091CA037091CB0387E193E00E94C8
:1014B000442668EB7BE080E090E00E94402A89E9C6
:1014C00094E00E94FE2D87E193E00E94DF1C87E1FB
:1014D00093E00E948B25892BD1F38091C303843044
:1014E00029F58091CA039091CB0301969093CB0389
:1014F0008093CA030697A0F06BE274E089E994E058
:101500000E94022E68EB7BE080E090E00E94402A7F
:101510006091CA037091CB0387E193E00E94442657
:1015200068EB7BE080E090E00E94402A60E274E09B
:1015300089E994E00E94C42D67E173E089E994E0B1
:101540000E94262E67E173E0CE014D960E94CD2FBA
:1015500081E08093110468E371E0CE0101960E945E
:10156000CD2FBE016F5F7F4FCE014D960E944D3251
:101570008C01CE0101960E945F2F17FD8CC06EE694
:1015800071E0CE0141960E94CD2FBE016F5E7F4F6C
:10159000CE014D960E944D329A838983CE014196A9
:1015A0000E945F2F62E771E0CE0141960E94CD2F2D
:1015B000BE016F5E7F4FCE014D960E944D329C83DF
:1015C0008B83CE0141960E945F2F66E771E0CE01CA
:1015D00041960E94CD2FBE016F5E7F4FCE014D968A
:1015E0000E944D329E838D83CE0141960E945F2FD3
:1015F0006AE771E0CE0141960E94CD2FBE016F5E79
:101600007F4FCE014D960E944D3298878F83CE0139
:1016100041960E945F2F6EE771E0CE0141960E94D5
:10162000CD2FBE016F5E7F4FCE014D960E944D3291
:101630009A878987CE0141960E945F2F62E871E008
:10164000CE0141960E94CD2FBE016F5E7F4FCE012D
:101650004D960E944D329C878B87CE0141960E9409
:101660005F2F66E871E0CE0141960E94CD2FBE014A
:101670006F5E7F4FCE014D960E944D329E878D87C3
:10168000CE0141960E945F2F63E2CE014D960E94EB
:101690002D32988B8F878E010F5F1F4F4E01FFE019
:1016A0008F0E911CF801419151918F015A01F5E083
:1016B000AF0EB11C4D5F5F4F9501BE01635E7F4F62
:1016C000CE0147960E949F32CE0147960E94363443
:1016D0006B017C014AE050E089E994E00E94F52E1C
:1016E000F80120813181A501BE01635E7F4FCE01EB
:1016F00041960E949F32BE016F5E7F4FCE0147969A
:101700000E945A30CE0141960E945F2F6B8D7C8DD6
:10171000CE0147960E94FF31FC011082BE01695E36
:101720007F4F89E994E00E94142EBE01695E7F4FCD
:10173000CE0141960E945130BE016F5E7F4FC601BF
:101740000E94F007CE0141960E945F2FCE0147967E
:101750000E945F2F0815190509F0A4CF68E174E015
:1017600089E994E00E94C42D6091150370911603DD
:101770004AE050E089E994E00E94ED2E8091CA038E
:101780009091CB03892BD9F06EE074E089E994E065
:101790000E94C42D6091CA037091CB034AE050E0CF
:1017A00089E994E00E94312F0AC06FE070E080E088
:1017B00090E00E94402A115009F438CE49CE89E9C0
:1017C00094E00E94FE2D6AE871E089E994E00E94AD
:1017D000F52D40911E0150911F01609120017091E3
:1017E00021012AE030E089E994E00E944D2F87E151
:1017F00093E00E94792440E061E080E00E94760658
:1018000010911104CE014D960E945F2F812FA29658
:101810000FB6F894DEBF0FBECDBFDF91CF911F9101
:101820000F91FF90EF90DF90CF90BF90AF909F907F
:101830008F900895CF93DF9300D0CDB7DEB720917E
:101840003705309138052115310511F42BE335E0CA
:10185000CE010196821B930B0F900F90DF91CF91D9
:101860000895CF92DF92EF92FF920F931F93CF9341
:10187000DF9300D000D000D0CDB7DEB78C017B0164
:1018800064E673E0CE0101960E945431BE016F5FA1
:101890007F4FC8010E944D326C01CE0101960E941B
:1018A0005F2FD7FC1AC088E290E0A0E0B0E0809300
:1018B0001E0190931F01A0932001B093210181E0AC
:1018C00080930C032AE030E048E250E060E070E0F2
:1018D00089E994E00E944D2F0DC16CE573E0CE01C3
:1018E00001960E945431BE016F5F7F4FC8010E9474
:1018F0004D326C01CE0101960E945F2FD7FC0EC0C5
:10190000B70189E994E00E94E72D6AEE71E089E968
:1019100094E00E94F52D64E573E051C06CE473E03F
:10192000CE0101960E945431BE016F5F7F4FC80106
:101930000E944D327C01CE0101960E945F2FF7FC80
:1019400005C010920C0364E473E0D0C06EE373E052
:10195000CE0101960E945431BE016F5F7F4FC801D6
:101960000E944D327C01CE0101960E945F2FF7FC50
:101970000AC061E080911501909116010E94AA05AC
:1019800062E373E01CC06BE273E0CE0101960E943B
:101990005431BE016F5F7F4FC8010E944D327C0100
:1019A000CE0101960E945F2FF7FC1CC060E0809181
:1019B0001501909116010E94AA056EE173E089E974
:1019C00094E00E94022E60ED77E080E090E00E94BB
:1019D000402A6091CA037091CB0387E193E00E9493
:1019E000442688C06AE173E0CE0101960E9454311A
:1019F000BE016F5F7F4FC8010E944D327C01CE0156
:101A000001960E945F2FF7FC0AC061E080910901F6
:101A100090910A010E94AA0560E173E067C06BE043
:101A200073E0CE0101960E945431BE016F5F7F4F7B
:101A3000C8010E944D327C01CE0101960E945F2FA9
:101A4000F7FC0AC060E08091090190910A010E94B0
:101A5000AA0560E073E04AC06AEF72E0CE01019629
:101A60000E945431BE016F5F7F4FC8010E944D320A
:101A70007C01CE0101960E945F2FF7FC11C061E04E
:101A800080910F01909110010E94AA0561E0809160
:101A90000D0190910E010E94AA0560EF72E026C030
:101AA00069EE72E0CE0101960E945431BE016F5F73
:101AB0007F4FC8010E944D328C01CE0101960E94D9
:101AC0005F2F17FD11C060E080910F019091100110
:101AD0000E94AA0560E080910D0190910E010E9484
:101AE000AA056EED72E002C06EEC72E089E994E046
:101AF0000E94022E26960FB6F894DEBF0FBECDBF11
:101B0000DF91CF911F910F91FF90EF90DF90CF90D9
:101B100008950F931F93CF93DF93CDB7DEB7A897A8
:101B20000FB6F894DEBF0FBECDBF87E193E00E94F1
:101B30006C23882309F40DC169EC72E089E994E013
:101B40000E94C42D64EC73E089E994E00E94142E95
:101B500064E971E0CE0101960E94CD2FBE016F5F56
:101B60007F4F84EC93E00E944D328C01CE010196B0
:101B70000E945F2F17FDC5C0BE016F5F7F4F809130
:101B80001701909118010E94AE05BE016F5F7F4F53
:101B9000CE0183960E94CD2FBE016F5F7F4F809153
:101BA0001101909112010E94AE05BE016F5F7F4F3F
:101BB000CE014D960E94CD2F61E070E087E193E069
:101BC0000E941224882331F06EEB72E089E994E0E0
:101BD0000E94022EBE016D5D7F4F84EC93E00E9457
:101BE0004D3297FD0AC060EB72E089E994E00E94F3
:101BF000022EBE016D5D7F4F12C0BE01635E7F4F3E
:101C000084EC93E00E944D3297FD23C066EA72E0B7
:101C100089E994E00E94022EBE01635E7F4FCE01EF
:101C200047960E94513064EC73E0CE0141960E94C9
:101C30005130BE01695E7F4FCE0141960E94310C4A
:101C4000CE0141960E945F2FCE0147960E945F2FE2
:101C500050C060EA72E0CE0141960E945431BE014C
:101C60006F5E7F4F84EC93E00E944D328C01CE0179
:101C700041960E945F2F17FD11C061E080910F0116
:101C8000909110010E94AA0561E080910D01909150
:101C90000E010E94AA0566E972E027C06FE872E0B3
:101CA000CE0141960E945431BE016F5E7F4F84EC9D
:101CB00093E00E944D328C01CE0141960E945F2F2D
:101CC00017FD11C060E080910F01909110010E94FA
:101CD000AA0560E080910D0190910E010E94AA0575
:101CE00064E872E002C066E772E089E994E00E946D
:101CF000022ECE014D960E945F2FCE0183960E9448
:101D00005F2F6FE971E0CE0101960E94CD2FBE01D9
:101D10006F5F7F4F84EC93E00E944D328C01CE01C7
:101D200001960E945F2F17FD0EC060E070E087E112
:101D300093E00E941224882331F06BE672E089E977
:101D400094E00E94022E64E672E084EC93E00E942C
:101D50006630A8960FB6F894DEBF0FBECDBFDF91F8
:101D6000CF911F910F9108953F924F925F926F9282
:101D70007F928F929F92AF92BF92CF92DF92EF921B
:101D8000FF920F931F93CF93DF93CDB7DEB7C85465
:101D9000D1090FB6F894DEBF0FBECDBF8AEC92E03A
:101DA0000E94C21887EB92E00E94C21884EA92E077
:101DB0000E94C21860E08AEC92E00E9457192B0141
:101DC0003C0160E087EB92E00E9457194B015C01F7
:101DD00060E084EA92E00E9457196B017C01A50142
:101DE0009401C301B2010E944334A70196010E94ED
:101DF00043342FE832EC41EB52E40E9443342996FD
:101E00006CAF7DAF8EAF9FAF299725961FAE1EAEEC
:101E1000259780EA90E00E94603924968FAF24973E
:101E200081EA90E00E94603925968FAF259783E183
:101E30000E94AE2A8C018CE00E94632B33243394E1
:101E4000892B09F4312C80910F01909110010E948F
:101E5000AC058093070364E672E0CE01CD960E9444
:101E6000CD2F20E030E04EEF52ECC301B2010E94D2
:101E7000A734882339F168E371E0CE01CD960E9442
:101E8000903122E0B301A201CE0107960E940331F6
:101E900068EA71E0CE0101960E94CD2FBE01695F14
:101EA0007F4FCE0101960E94B331BC01CE01CD9689
:101EB0000E948931CE0101960E945F2FCE010796C4
:101EC0000E945F2F20E030E04EEF52ECC501B401DC
:101ED0000E94A734882339F168E371E0CE01CD96E2
:101EE0000E94903122E0B501A401CE0107960E9424
:101EF00003316CEA71E0CE0101960E94CD2FBE0144
:101F0000695F7F4FCE0101960E94B331BC01CE01C3
:101F1000CD960E948931CE0101960E945F2FCE019D
:101F200007960E945F2F20E030E04EEF52ECC70191
:101F3000B6010E94A734882339F168E371E0CE012D
:101F4000CD960E94903122E0B701A601CE010796FE
:101F50000E94033160EB71E0CE0101960E94CD2F0B
:101F6000BE01695F7F4FCE0101960E94B331BC0173
:101F7000CE01CD960E948931CE0101960E945F2F3D
:101F8000CE0107960E945F2F87E193E00E944224D2
:101F9000F82E4AE060910703CE0101960E947E3040
:101FA000632D70E04AE0CE0107960E94AB304AE014
:101FB000B801CE010D960E94AB3022E029964CADBF
:101FC0005DAD6EAD7FAD2997CE0143960E94033182
:101FD000CE0149960E94FE066091CA037091CB0320
:101FE00025964EAD5FAD2597640F751F4AE0CE0173
:101FF0004F960E94D7306091CA037091CB034AE09C
:10200000CE0185960E94D7304AE06F2DCE018B9687
:102010000E947E306BE371E0CE01C1960E94CD2F0D
:1020200069E074E0CE01C1960E94B331BE01635CE9
:102030007F4F0E94B33168E371E00E94C63164EBC8
:1020400071E00E94C631BE01655D7F4F0E94B331D1
:1020500068E371E00E94C63167EB71E00E94C6310F
:10206000BE016B5D7F4F0E94B33168E371E00E9457
:10207000C6316AEB71E00E94C631BE01615E7F4FDE
:102080000E94B331BE01675E7F4F0E94B33168E3A7
:1020900071E00E94C6316EEB71E00E94C631BE0154
:1020A0006D5E7F4F0E94B33168E371E00E94C631DC
:1020B00062EC71E00E94C631BE01635F7F4F0E94F7
:1020C000B33168E371E00E94C63167EC71E00E94B1
:1020D000C631BE01695F7F4F0E94B33168E371E092
:1020E0000E94C6316CEC71E00E94C631BE016F5F88
:1020F0007F4F0E94B331BC01CE01C7960E94513080
:10210000CE01C1960E945F2FCE018B960E945F2F59
:10211000CE0185960E945F2FCE014F960E945F2FC1
:10212000CE0149960E945F2FCE0143960E945F2FF9
:10213000CE010D960E945F2FCE0107960E945F2F61
:10214000CE0101960E945F2F6BE175E089E994E072
:102150000E94C42D6BAD7CAD4AE050E089E994E06B
:102160000E94372F00E010E0BE01695C7F4FCE0176
:1021700001960E945130CE0101960E942F09F82E3F
:10218000CE0101960E945F2FF11018C00F5F1F4F04
:102190000E94890D61ED71E089E994E00E94F52DBE
:1021A0004AE050E0B80189E994E00E94F52E60ED24
:1021B00077E080E090E00E94402AD6CFCE01C7961B
:1021C0000E945F2FCE01CD960E945F2FC85BDF4F2C
:1021D0000FB6F894DEBF0FBECDBFDF91CF911F9138
:1021E0000F91FF90EF90DF90CF90BF90AF909F90B6
:1021F0008F907F906F905F904F903F900895CF9316
:10220000DF930E94CA1963E472E089E994E00E94B6
:10221000022E60E086E00E942D2B60E08DE00E949F
:102220002D2B61E085E00E942D2B89E00E94632B1D
:10223000892B39F064E670E080E090E00E94402A4B
:10224000F4CF68EE73E080E090E00E94402A61E005
:102250008DE00E942D2B60E085E00E942D2B68EE22
:1022600073E080E090E00E94402A61E086E00E94F6
:102270002D2B60EB74E080E090E00E94402A60E04B
:1022800086E00E942D2BC0E0D0E089E00E94632B05
:10229000892B99F42196C536D10544F06091CA0383
:1022A0007091CB0387E193E00E94442664E670E0DE
:1022B00080E090E00E94402AE8CF63E372E089E981
:1022C00094E00E94022E40E05BE460E070E08091C8
:1022D0002601909127010E94CA28609126017091E1
:1022E000270187E193E00E94EB1E811107C069E19D
:1022F00072E089E994E00E94022EFFCF66E172E06D
:1023000089E994E00E94022E68EF71E089E994E087
:102310000E94C42D80911C0490911D04029769F0C5
:1023200066EF71E089E994E00E94C42D68EE73E0E5
:1023300080E090E00E94402AEDCF68EE73E080E0FC
:1023400090E00E94402A87E193E00E94BF21882309
:1023500091F06FEE71E089E994E00E94C42D69E08C
:1023600074E087E193E00E94501C69E074E089E921
:1023700094E00E94142E87E193E00E9407228823B4
:10238000C1F064EE71E089E994E00E94C42D6DEA29
:1023900073E083E094E00E94663063E074E087E1DC
:1023A00093E00E94501C63E074E089E994E00E948D
:1023B000142E87E193E00E947F21C82F63ED71E026
:1023C00089E994E00E94C42D6C2F89E994E00E9471
:1023D000F72D60ED71E089E994E00E94C42DC033CF
:1023E00019F460EC71E009C0C13319F46DEA71E0D1
:1023F00017C0C23339F461E971E089E994E00E94C1
:10240000022E01CFC33319F469E871E0F6CFC4336B
:1024100019F460E871E0F1CFC53339F46CE671E08E
:1024200089E994E00E94022E03C0C13309F0EBCE8B
:1024300080911C0490911D04029709F0E4CE87E17D
:1024400093E00E944224C82F64E671E089E994E099
:102450000E94C42D4AE050E06C2F89E994E00E946C
:102460001A2F68EE73E080E090E00E94402A64E555
:1024700071E089E994E00E94022E87E193E0DF9108
:10248000CF910C946022EF92FF920F931F93CF9302
:10249000DF93CDB7DEB72A970FB6F894DEBF0FBE35
:1024A000CDBF88E10FB6F894809360001092600071
:1024B0000FBE26E040E052EC61E070E089E994E074
:1024C0000E946F2C60E471E089E994E00E94022E82
:1024D00061E086E00E94F42A60E086E00E942D2BF5
:1024E00061E08DE00E94F42A61E085E00E94F42A18
:1024F00061E08AE00E94F42A61E08FE00E94F42A01
:1025000061E08EE00E94F42A60E083E00E94F42AF9
:1025100060E089E00E94F42A60E08CE00E94F42AE6
:1025200061E08CE00E942D2B61E082E10E94F42AA0
:1025300061E082E10E942D2B40E060E081E00E949A
:1025400076066CE271E080E090E00E94402A40E074
:1025500061E080E00E9476066CE271E080E090E04D
:102560000E94402A41E060E080E00E9476066CE232
:1025700071E080E090E00E94402A40E060E081E06D
:102580000E94760669EF72E08AEC92E00E943A16A9
:102590006BEE72E087EB92E00E943A166DED72E00E
:1025A00084EA92E00E943A168AEC92E00E94DC17DC
:1025B00087EB92E00E94DC1784EA92E00E94DC172D
:1025C00040E0BE016F5F7F4F8AEC92E00E9454169C
:1025D000882341F04CE0BE016F5F7F4F8AEC92E0B0
:1025E0000E94661740E0BE016F5F7F4F87EB92E06D
:1025F0000E945416882341F04CE0BE016F5F7F4F6C
:1026000087EB92E00E94661740E0BE016F5F7F4F4C
:1026100084EA92E00E945416882341F04CE0BE0107
:102620006F5F7F4F87EB92E00E94661768E873E167
:1026300080E090E00E94402A29E288E190E00FB615
:10264000F894A895809360000FBE2093600080E00E
:1026500090E00E94AC05863209F481C06DE271E021
:1026600089E994E00E94022E00E010E060E0C801D9
:102670000E94AA050F5F1F4F0F3F83E01807B1F7B5
:1026800066E280E090E00E94AA056EE171E0809130
:102690001301909114010E944206E0901701F090FE
:1026A00018010DEE11E0F701ED5EF1407F01C70169
:1026B000800F911FF80161918F019A878987CE0160
:1026C00009960E942206F1E00A3F1F0781F7E09079
:1026D0001101F09012010AEF11E0C7018A5F9140E9
:1026E0007C01C701800F911FF80161918F019A87CA
:1026F0008987CE0109960E942206F2E009301F0761
:1027000081F761E080911501909116010E94AA0560
:102710006FE171E089E994E00E94022E00E010E090
:10272000602F80910B0190910C010E94AA054AE054
:1027300050E0B80189E994E00E94F52E68EE73E05C
:1027400080E090E00E94402A0F5F1F4F0F3011057C
:1027500039F76EE071E089E994E00E94022E8091E1
:102760000B0190910C010E94AC058B3018F061E0D8
:1027700071E002C06EEE70E089E994E00E94022EE2
:1027800043E050E06FE175E081E00E9459298091BB
:102790001301909114010E940806809115019091F7
:1027A00016010E94AC0591E0811101C090E0909368
:1027B0001D0160EE70E089E994E00E94C42D409113
:1027C0001E0150911F0160912001709121012AE0AA
:1027D00030E089E994E00E944D2F61ED70E089E9D5
:1027E00094E00E94C42D0E941A0C4AE050E0BC0103
:1027F00089E994E00E94F52E4FE856E06CE271E022
:1028000080E090E00E9482190E94FF106EEC70E060
:1028100089E994E00E94022E60E070E087E193E095
:102820000E941224882331F06FEB70E089E994E074
:102830000E94022E0E94B40E0E94E01940E061E066
:1028400080E00E9476060E94112A60931103709323
:10285000120380931303909314036DEA70E089E9E7
:1028600094E00E94022E2A960FB6F894DEBF0FBEA7
:10287000CDBFDF91CF911F910F91FF90EF90089501
:102880008F929F92AF92BF92CF92DF92EF92FF9280
:1028900089E00E94632B892B41F46091CA037091F7
:1028A000CB0387E193E00E9444260E94890D0E9499
:1028B000112A6B017C0180910C03811106C080916B
:1028C0001301909114010E94080680910D039091CC
:1028D0000E03A0910F03B091100346015701881A0F
:1028E000990AAA0ABB0A20911E0130911F0140914A
:1028F000200150912101A8EEB3E00E941536861602
:102900009706A806B906E8F16FE970E089E994E056
:102910000E94C42D80910D0390910E03A0910F038E
:10292000B0911003A7019601281B390B4A0B5B0BD2
:10293000CA01B90128EE33E040E050E00E94D435EE
:10294000BA01A9012AE030E089E994E00E944D2F04
:10295000C0920D03D0920E03E0920F03F092100389
:102960000E94B40E60E970E089E994E00E94C42DF1
:102970000E941A0C4AE050E0BC0189E994E00E94F0
:10298000F52E0E94112A6B017C0180910803909121
:102990000903A0910A03B0910B0346015701881A5D
:1029A000990AAA0ABB0A2091190130911A01409193
:1029B0001B0150911C01A8EEB3E00E94153686164B
:1029C0009706A806B906B0F16DE770E089E994E0D2
:1029D0000E94C42D8091080390910903A0910A03DD
:1029E000B0910B03A7019601281B390B4A0B5B0B17
:1029F000CA01B90128EE33E040E050E00E94D4352E
:102A0000BA01A9012AE030E089E994E00E944D2F43
:102A100041E060E080E00E947606C0920803D09218
:102A20000903E0920A03F0920B0340E061E080E0CA
:102A30000E94760680910F01909110010E94AC05D2
:102A40008093070390910F048917D1F091E08111D1
:102A500001C090E090930F04811108C062E770E01C
:102A600089E994E00E94022E61E007C068E670E008
:102A700089E994E00E94022E60E082E10E942D2B01
:102A80000E94112A6B017C01809111039091120325
:102A9000A0911303B0911403C81AD90AEA0AFB0AD9
:102AA0002091220130912301409124015091250170
:102AB000A8EEB3E00E9415366C157D058E059F05C6
:102AC00040F46091CA037091CB0387E193E00E94C8
:102AD000442664EF71E080E090E0FF90EF90DF909B
:102AE000CF90BF90AF909F908F900C94402A20E0A1
:102AF00047E068E080E294E00E949A2869E072E092
:102B000089E094E00E94CD2F64E672E083E094E0D7
:102B10000E94CD2F1092C30364E672E084EC93E030
:102B20000E94CD2F1092CB031092CA031092CC03B7
:102B300088E191E09093CE038093CD0364E672E048
:102B400084ED93E00E94CD2F64E672E08AED93E07D
:102B50000E94CD2F64E672E080EE93E00E94CD2FBC
:102B600064E672E086EE93E00E94CD2F69E172E0A8
:102B70008CEE93E00E94CD2F2CE132E03093F303F2
:102B80002093F20380E292E09093F5038093F403A4
:102B90003093F7032093F6039093F9038093F8039F
:102BA00080ED97E09093FB038093FA031092FC036F
:102BB0001092FE031092FD0380EA90E090930004CF
:102BC0008093FF036091060189EF92E00E94881BC9
:102BD000609107018BEE92E00E94881B60910801D2
:102BE0008DED92E00E94881B69EF72E08AEC92E022
:102BF0000E942B166BEE72E087EB92E00E942B1680
:102C00006DED72E084EA92E00C942B168CEE93E06A
:102C10000E945F2F86EE93E00E945F2F80EE93E08C
:102C20000E945F2F8AED93E00E945F2F84ED93E076
:102C30000E945F2F84EC93E00E945F2F83E094E07A
:102C40000E945F2F89E094E00E945F2F80E294E071
:102C50000C9441280895FC018AE296E1928B818BC5
:102C6000768365831482108289E0818381E0828388
:102C700083830895FC01768365831482108289E042
:102C8000818381E0828383830895CF93DF93EB0177
:102C900067E0CE010E94431C91E02F81821390E0F7
:102CA000892FDF91CF910895EF92FF920F931F9399
:102CB000CF93DF93EC018B01E42E8D819E810E94E6
:102CC000761BF12CB8018D819E810E94AB1B88235D
:102CD00059F0FE1006C0B801CE010E9445168111C0
:102CE00004C0F394EF1470F780E0DF91CF911F914F
:102CF0000F91FF90EF900895CF92DF92EF92FF92A5
:102D00000F931F93CF93DF9300D0CDB7DEB76C0145
:102D1000F42EE52EFC018581968169837A830E94D9
:102D20004F1A69817A81882311F1F6018581968194
:102D30000E944A1B40E06EEBF601858196810E945D
:102D4000EC1A0F2D1E2D89E0F82EF6018581968153
:102D50000E942E1BF80181938F01FA94B1F7F601BE
:102D6000858196810E944F1A91E0813009F090E0B0
:102D7000892F0F900F90DF91CF911F910F91FF90AE
:102D8000EF90DF90CF900895CF93DF93EA010E94F8
:102D90007C16882351F068E0CE010E94431C91E02C
:102DA0002885821390E0892F01C080E0DF91CF91C8
:102DB0000895EF92FF920F931F93CF93DF93EC014F
:102DC0008B017A018D819E810E944F1AB8018D81FD
:102DD0009E810E944A1B40E06EE48D819E810E948C
:102DE000EC1A40E0F70162818D819E810E94EC1A0D
:102DF00040E0F70163818D819E810E94EC1AF80109
:102E00008081803139F040E0F70164818D819E81BD
:102E10000E94EC1A8D819E810E944F1AB8018D810B
:102E20009E810E944A1B488168E48D819E810E9498
:102E3000EC1A64E170E080E090E00E94402A888112
:102E4000882331F06AE070E080E090E00E94402A40
:102E50008D819E81DF91CF911F910F91FF90EF9017
:102E60000C944F1AEF92FF921F93CF93DF9300D0F1
:102E7000CDB7DEB77C01FC018581968169837A83B9
:102E80000E944F1A69817A81F701858196810E949B
:102E90004A1B40E064EBF701858196810E94EC1AA1
:102EA000F701858196810E94C11A182FF70185814B
:102EB00096810E944F1A81E0111180E00F900F90CF
:102EC000DF91CF911F91FF90EF900895EF92FF92C5
:102ED0000F931F93CF93DF93CDB7DEB72A970FB62B
:102EE000F894DEBF0FBECDBF7C018B01242FAE0155
:102EF0004F5F5F4F2A870E94C4162A858823D1F02E
:102F0000F80180818031C1F02B3041F02C3021F06C
:102F10002A3031F48FE305C08FE703C08FE501C08D
:102F20008FE18D83AE014F5F5F4FB801C7010E94F3
:102F3000D91602C080E001C081E02A960FB6F8944D
:102F4000DEBF0FBECDBFDF91CF911F910F91FF90DC
:102F5000EF900895CF93DF93CDB7DEB729970FB6E3
:102F6000F894DEBF0FBECDBFFB0120812031D1F030
:102F7000AE014F5F5F4F0E94C416882379F08D81A8
:102F80008F3351F020F48F3149F489E00CC08F3534
:102F900039F08F3739F002C08AE005C080E003C005
:102FA0008BE001C08CE029960FB6F894DEBF0FBE0F
:102FB000CDBFDF91CF910895EF92FF920F931F93B2
:102FC000CF93DF93CDB7DEB761970FB6F894DEBF2E
:102FD0000FBECDBF8C01FC01858196810E94761BBE
:102FE000F8011482FF24F394BE01665F7F4FF8015D
:102FF000858196810E94AB1B8823C9F1BE01665F63
:103000007F4FC8010E944516882371F3F801808123
:10301000811108C0BE01665F7F4FC8010E94321750
:10302000811122C0AE014F5F5F4FBE01665F7F4FCF
:10303000C8010E947C16F801E180BE01665F7F4FE7
:10304000C8010E94AA178E1518F4F801818106C0E4
:10305000BE01665F7F4FC8010E94AA17F8018183F5
:1030600084818F5F8483C0CFF801F082DBCF6196CB
:103070000FB6F894DEBF0FBECDBFDF91CF911F9189
:103080000F91FF90EF900895CF93DF93CDB7DEB708
:1030900029970FB6F894DEBF0FBECDBFAE014F5FCC
:1030A0005F4F0E947C1681E09981911101C080E000
:1030B00029960FB6F894DEBF0FBECDBFDF91CF913A
:1030C00008958F929F92AF92BF92CF92DF92EF922C
:1030D000FF920F931F93CF93DF93EC018A01695006
:1030E000633048F4E62FF0E0EE0FFF1FE95DFD4F7F
:1030F0008080918004C09EEE892E92E0992E011569
:10310000110501F18B818823E9F0888181111AC0B2
:103110000E94112A6B017C01AA2497FCA094BA2C6E
:10312000B801CE010E94441881111FC00E94112ACB
:10313000681979098A099B096C157D058E059F051B
:10314000A0F4EECFB401882777FD8095982FDF910A
:10315000CF911F910F91FF90EF90DF90CF90BF9094
:10316000AF909F908F900C94402ADF91CF911F9148
:103170000F91FF90EF90DF90CF90BF90AF909F9016
:103180008F900895CF93DF93EC018D819E810E94F3
:103190004F1A8D819E810E94721B488164E48D814B
:1031A0009E810E94EC1A8A81882341F040E050E021
:1031B0006981CE01DF91CF910C946118DF91CF919D
:1031C0000895FA01208148E0249F90011124818113
:1031D00090E0982F8827990F990F990F282B392B5A
:1031E000DB018C918031C1F4678170E08681AB0195
:1031F000481B5109CA019695982F8827979587955E
:103200000E94C03560517109207F53E0220F331FA7
:103210005A95E1F7260F371FC9010895EF92FF92E3
:103220000F931F93CF93DF93CDB7DEB729970FB6D8
:10323000F894DEBF0FBECDBF8C017B01AE014F5FA6
:103240005F4F0E94C416882341F0AE014F5F5F4F6D
:10325000B701C8010E94E11802C080E894EE2996E7
:103260000FB6F894DEBF0FBECDBFDF91CF911F9197
:103270000F91FF90EF900895813824EE920774F03B
:10328000BC01882777FD8095982F0E94AD3420E0FF
:1032900030E040E05CE30E945D35089560E070E05E
:1032A0008EEF92EC08950E940E190C943C190F9326
:1032B0001F93CF93DF93CDB7DEB728970FB6F8945F
:1032C000DEBF0FBECDBF8C01462FBE016F5F7F4FAB
:1032D0000E945416882339F0BE016F5F7F4FC801EA
:1032E0000E94531904C060E070E08EEF92EC2896C3
:1032F0000FB6F894DEBF0FBECDBFDF91CF911F9107
:103300000F910895209170002E7F209370002091DE
:10331000B0002C7F2093B0002091B100277F209334
:10332000B1002091B6002F7D2093B600209170004F
:103330002D7F209370002091B10024602093B10074
:103340002091B1002C7F2093B10026E030E0309333
:10335000400420933F04611571058105910569F4CE
:1033600081E090E0A0E0B0E08093480490934904AD
:10337000A0934A04B0934B0408C060934804709330
:10338000490480934A0490934B045093470440931C
:10339000460408951092420410924304109244048B
:1033A000109245041092410480913F049091400492
:1033B0008093B200E0E7F0E080818160808308952F
:1033C000E0E7F0E080818E7F808308958091420461
:1033D00090914304A0914404B09145040196A11D2D
:1033E000B11D8093420490934304A0934404B0938E
:1033F000450440914204509143046091440470910B
:1034000045048091480490914904A0914A04B091E8
:103410004B04481759076A077B07B0F080914104B5
:10342000811112C081E080934104109242041092F5
:1034300043041092440410924504E0914604F09134
:10344000470409951092410408951F920F920FB6F8
:103450000F9211242F933F934F935F936F937F931A
:103460008F939F93AF93BF93EF93FF9380913F040C
:10347000909140048093B2000E94E619FF91EF9171
:10348000BF91AF919F918F917F916F915F914F917C
:103490003F912F910F900FBE0F901F901895FF92A4
:1034A0000F931F93CF93DF93FC010081C181D281E1
:1034B000F8948981F02EF0948F21898378941DE708
:1034C000115029F182E090E00E94682A88818023CF
:1034D000B9F3F8948A818F218A838981802B89832B
:1034E000789480EE91E00E94682AF89489818F2177
:1034F000898386E490E00E94682A8881802311E015
:1035000009F010E078948AE991E00E94682A812FFE
:10351000DF91CF911F910F91FF9008951F93CF934B
:10352000DF93FC011081C181D281912F909560FFC2
:1035300012C0F8948A8189238A838981812B8983A7
:103540008AE090E00E94682A8A81812B8A8378949D
:1035500087E390E011C0F8948A8189238A83898166
:10356000812B898381E490E00E94682A8A81812BE3
:103570008A83789485E090E0DF91CF911F910C943D
:10358000682A0F931F93CF93DF93FC011081C181B1
:10359000D281F8948981812B89838A81012F0095BA
:1035A00080238A8383E090E00E94682A89818023B7
:1035B00089838AE090E00E94682AC881789485E334
:1035C00090E00E94682A1C2381E009F480E0DF91EA
:1035D000CF911F910F910895CF92DF92EF92FF92BA
:1035E0000F931F93CF93DF931F92CDB7DEB76C017C
:1035F000E62E08E010E0FF24F39461E09F2D9E2169
:1036000009F460E0C60149830E948E1AFF0C015044
:10361000110949810115110581F7411115C0F8946F
:10362000D6011196ED91FC91129791818C91809524
:10363000892381831196ED91FC91129792818C914F
:1036400080958923828378940F90DF91CF911F9189
:103650000F91FF90EF90DF90CF900895EF92FF923F
:103660000F931F93CF93DF938C01C8E0D0E0F12C30
:10367000EE24E394C8010E94C11A8111FE28EE0CC9
:103680002197C1F78F2DDF91CF911F910F91FF905F
:10369000EF900895CF92DF92FF920F931F93CF93F5
:1036A000DF931F92CDB7DEB78C01F62E40E065E5C3
:1036B00079830E94EC1ACF2C7981D72E88E0F82EDE
:1036C000F60161916F0140E0C8010E94EC1AFA9482
:1036D000B9F70F90DF91CF911F910F91FF90DF907D
:1036E000CF90089540E06CEC0C94EC1AFC0113862A
:1036F0001586148627E030E0DF01A20FB31F139672
:103700001C922115310519F021503109F5CF08958A
:103710001F93CF93DF93EC01162F60E0812F0E945F
:10372000F42A612F70E0FB01EC55F74FE491E88338
:10373000FB01E854F74FE491F0E0EE0FFF1FE45374
:10374000F74F859194919A838983CE01DF91CF9130
:103750001F910C94761BAF92BF92CF92DF92EF92A3
:10376000FF920F931F93CF93DF931F92CDB7DEB7D6
:103770005C01E62ED72EFC01858581115DC0C50157
:103780000E944F1A811105C0F50113861586148613
:103790006EC040E060EFC5010E94EC1A01E0F12C20
:1037A000C12C11E0C5010E94C11A682FC5016983AF
:1037B0000E94C11A6981613019F48130B9F433C0B3
:1037C0002F2D30E068131BC0F5018385181730F4E6
:1037D000E20FF31F8381802349F402C0181731F0F0
:1037E00060E0193058F4F501148708C0F501EF0DB9
:1037F000F11D8381802B838361E009C0C12EF50117
:10380000E20FF31F8381902F909589238383C50155
:103810000E948E1A1F5F000F11F4F39401E0F7E08D
:10382000FF1508F0BFCF113438F0F501C386C11081
:1038300018C081E0858715C0F501138615861486AA
:1038400080E0EE2DFD2D20E030E0D501A20FB31F6A
:1038500013969C9191932F5F3F4F28303105A9F724
:1038600006C0F5018381882339F381E0EACF0F9008
:10387000DF91CF911F910F91FF90EF90DF90CF904C
:10388000BF90AF900895DC0180E0615038F0ED9179
:10389000E827F0E0E55DFA4F8491F7CF08950895A9
:1038A0000F931F93CF93DF93CDB7DEB72C970FB64F
:1038B000F894DEBF0FBECDBF8B0164E672E0CE018F
:1038C00001960E94CD2F6DE272E0CE0107960E9414
:1038D000CD2FAE014F5F5F4FBE01695F7F4FC801C3
:1038E0000E94E432CE0107960E945F2FCE0101961E
:1038F0000E945F2F64E672E0CE0101960E94CD2FF8
:103900006FE372E0CE0107960E94CD2FAE014F5FAC
:103910005F4FBE01695F7F4FC8010E94E432CE0154
:1039200007960E945F2FCE0101960E945F2F64E6EA
:1039300072E0CE0101960E94CD2F63E672E0CE01C7
:1039400007960E94CD2FAE014F5F5F4FBE01695FAA
:103950007F4FC8010E94E432CE0107960E945F2F7C
:10396000CE0101960E945F2F64E672E0CE010196BF
:103970000E94CD2F6EE172E0CE0107960E94CD2FFE
:10398000AE014F5F5F4FBE01695F7F4FC8010E946C
:10399000E432CE0107960E945F2FCE0101960E946D
:1039A0005F2FC8010E94D7332C960FB6F894DEBF64
:1039B0000FBECDBFDF91CF911F910F910895CF938F
:1039C000DF93EC01FC01E651FF4F6CE576E080816E
:1039D00091810E94022EFE01E455FF4F83E0808317
:1039E0003C9610820E94112AC754DF4F6883798366
:1039F0008A839B83DF91CF9108955F926F927F922C
:103A00008F929F92AF92BF92CF92DF92EF92FF92EE
:103A10000F931F93CF93DF93EC015B016A01390190
:103A20007C018AEEE80EF11C8E0108541F4F8AE4D7
:103A3000582E4E01ABE48A0E911CF70180819181D2
:103A4000DC01ED91FC910480F581E02D0995892B35
:103A5000A1F1F70180819181DC01ED91FC9106805B
:103A6000F781E02D0995F8019081953940F0508259
:103A7000F401DE01952D01900D929A95E1F7D801A0
:103A80002C9191E0920F9C93FE01E20FF11D808337
:103A9000FE01E90FF11D1082B501CE010E94EE3842
:103AA000892B09F5C114D10441F2B601CE010E945F
:103AB000EE38892B11F282E019C00E94112AC754F6
:103AC000DF4F088119812A813B81601B710B820BBA
:103AD000930B830120E030E06017710782079307A2
:103AE00020F480E003C081E001C083E0DF91CF914A
:103AF0001F910F91FF90EF90DF90CF90BF90AF900C
:103B00009F908F907F906F905F900895CF93DF93F9
:103B1000EC0128E93AE340E352E065E372E00E94F9
:103B2000FD1C823028F0C455DF4F84E088838FEF7E
:103B3000DF91CF910895CF93DF93EC01C651DF4F12
:103B400088819981DC01ED91FC910480F581E02D63
:103B50000995892B51F088819981DC01ED91FC91C7
:103B60000680F781E02D0995EBCFDF91CF91089585
:103B70002F923F924F925F926F927F928F929F927D
:103B8000AF92BF92CF92DF92EF92FF920F931F936B
:103B9000CF93DF93EC017B016A01590169E172E087
:103BA000C7010E94E0318E0106511F4F811109C0EB
:103BB000CE010E949B1DB701D8018D919C910E945E
:103BC000142E0E94112A2B013C01912C1E01BBE4F2
:103BD0002B0E311CE12CF12CF80180819181DC014C
:103BE000ED91FC910480F581E02D0995892B71F10F
:103BF000F80180819181DC01ED91FC910680F781D3
:103C0000E02D0995B4E9B91548F4F101DE019AE413
:103C100001900D929A95E1F79AE4992E8824839465
:103C2000890CFE01E90DF11D8083FE01E80DF11DF7
:103C30001082A114B10419F46CE172E001C0B50165
:103C4000CE010E94EE38892B79F4982C0E94112A1B
:103C500064197509860997096C157D058E059F0500
:103C600008F4BACF80E001C0882DDF91CF911F9179
:103C70000F91FF90EF90DF90CF90BF90AF909F900B
:103C80008F907F906F905F904F903F902F9008950E
:103C90002F923F924F925F926F927F928F929F925C
:103CA000AF92BF92CF92DF92EF92FF920F931F934A
:103CB000CF93DF93EC017B0169E172E0C7010E94C1
:103CC000E0318E0106511F4F811109C0CE010E94C3
:103CD0009B1DB701D8018D919C910E94142E0E94CA
:103CE000112A2B013C01912C7E01BBEDEB0EF11C46
:103CF0006E01EDEDCE0ED11C5E01FBE4AF0EB11CEA
:103D00001E0183EE280E311CD8018D919C91DC019F
:103D1000ED91FC910480F581E02D0995892B91F1BD
:103D2000F80180819181DC01ED91FC910680F781A1
:103D3000E02D0995B4E9B91548F4F501DE019AE4DE
:103D400001900D929A95E1F72AE4922E88248394AB
:103D5000890CFE01E90DF11D8083FE01E80DF11DC6
:103D60001082F70160817181CE010E94EE38892BAB
:103D7000E1F4D6016D917C91CE010E94EE38892B41
:103D8000B1F4982C0E94112A6419750986099709C3
:103D9000F1012081318140E050E062177307840710
:103DA000950708F4B1CF80E003C081E001C082E054
:103DB000DF91CF911F910F91FF90EF90DF90CF9007
:103DC000BF90AF909F908F907F906F905F904F903B
:103DD0003F902F900895BF92CF92DF92EF92FF9283
:103DE0000F931F93CF93DF9300D000D000D0CDB7B7
:103DF000DEB78C016C018AEEC80ED11CD6016D9322
:103E00007C933EE0E32EF12CF60180819181DC0170
:103E1000ED91FC910480F581E02D0995892B59F0F5
:103E2000F60180819181DC01ED91FC910680F781A2
:103E3000E02D0995E9CF6DE878E0CE0101960E946A
:103E40005431BE016F5F7F4FC8010E94481EB82EDB
:103E5000CE0101960E945F2FB1104CC064EF71E05B
:103E600080E090E00E94402AB1E0EB1AF10861F690
:103E70006AE878E0CE0101960E945431BE016F5F7E
:103E80007F4FC8010E94481ECE0101960E945F2FFD
:103E900064E670E080E090E00E94402A67E878E005
:103EA000CE0101960E945431BE016F5F7F4FC80161
:103EB0000E94481ECE0101960E945F2F64E670E0CA
:103EC00080E090E00E94402A64E878E0CE0101960C
:103ED0000E945431BE016F5F7F4FC8010E94481E8F
:103EE000CE0101960E945F2F64E670E080E090E0D2
:103EF0000E94402A61E878E0CE0101960E94543188
:103F0000BE016F5F7F4FC8010E94481EF82ECE0190
:103F100001960E945F2FFF2009F49CC064E778E0BF
:103F2000CE0101960E945431BE016F5F7F4FC801E0
:103F30000E94481ECE0101960E945F2F64E670E049
:103F400080E090E00E94402A6FE678E0CE01019682
:103F50000E945431BE016F5F7F4FC8010E94481E0E
:103F6000CE0101960E945F2F64E670E080E090E051
:103F70000E94402A65E678E0CE0101960E94543105
:103F8000BE016F5F7F4FC8010E94481ECE0101969F
:103F90000E945F2F64E670E080E090E00E94402A7B
:103FA0006BE578E0CE0101960E945431BE016F5F4F
:103FB0007F4FC8010E94481ECE0101960E945F2FCC
:103FC00064E670E080E090E00E94402A61E578E0DD
:103FD000CE0101960E945431BE016F5F7F4FC80130
:103FE0000E94481ECE0101960E945F2F64E670E099
:103FF00080E090E00E94402A63E478E0CE010196E0
:104000000E945431BE016F5F7F4FC8010E94481E5D
:10401000CE0101960E945F2F64E670E080E090E0A0
:104020000E94402A64E670E080E090E00E94402A0E
:1040300065E378E0CE0101960E945431BE016F5FC6
:104040007F4FC8010E94481ECE0101960E945F2F3B
:1040500081E001C080E026960FB6F894DEBF0FBE67
:10406000CDBFDF91CF911F910F91FF90EF90DF9027
:10407000CF90BF900895BF92CF92DF92EF92FF92C0
:104080000F931F93CF93DF9300D000D000D0CDB714
:10409000DEB78C0167E178E0CE0101960E945431D1
:1040A000BE016F5F7F4FC8010E94481EF82ECE01EF
:1040B00001960E945F2FFF2009F4D6C078018AEE96
:1040C000E80EF11C62E078E0F701808191810E94A6
:1040D000C42DB80163547F4FF701808191810E9404
:1040E000E72D62E2F701808191810E94382E6801FC
:1040F000F5EDCF0ED11CB601CE0101960E945130D4
:10410000BE016F5F7F4FC8010E94481EB82ECE01CE
:1041100001960E945F2FB11002C082E0A6C06CEE33
:1041200077E0F701808191810E94C42DB8016D5321
:104130007F4FF701808191810E94E72D62E2F701B4
:10414000808191810E94382EB601CE0101960E9495
:104150005130BE016F5F7F4FC8010E94481EB82ECC
:10416000CE0101960E945F2FBB20B9F267ED77E088
:10417000F701808191810E94C42DB80167537F4F60
:10418000F701808191810E94E72D62E2F701808131
:1041900091810E94382EB601CE0101960E945130C5
:1041A000BE016F5F7F4FC8010E94481EB82ECE012E
:1041B00001960E945F2FBB2009F4AFCF63EC77E03C
:1041C000F701808191810E94C42DB80161537F4F16
:1041D000F701808191810E94E72D62E2F7018081E1
:1041E00091810E94382EB601CE0101960E94513075
:1041F000BE016F5F7F4FC8010E94481EF82ECE019E
:1042000001960E945F2FFF2009F487CF7801F3EE1B
:10421000EF0EF11C88E99AE3F7019183808364EB48
:1042200077E089E994E00E94C42D4AE050E061E023
:1042300070E089E994E00E94F52E67EA77E0CE010C
:1042400001960E945431BE016F5F7F4FC8010E94EA
:10425000481ECE0101960E945F2F80ED97E0F70186
:104260009183808380E001C081E026960FB6F894A8
:10427000DEBF0FBECDBFDF91CF911F910F91FF9099
:10428000EF90DF90CF90BF900895EF92FF920F9341
:104290001F93CF93DF9300D000D000D0CDB7DEB70F
:1042A0007C018C010D511F4F88E99AE3F80191833D
:1042B00080836AE977E0CE0101960E945431BE0105
:1042C0006F5F7F4FC7010E94481EF82ECE010196F6
:1042D0000E945F2FFF2029F080ED97E0F801918385
:1042E000808381E026960FB6F894DEBF0FBECDBF67
:1042F000DF91CF911F910F91FF90EF900895EF9272
:10430000FF920F931F93CF93DF9300D000D000D084
:10431000CDB7DEB78C014EE1F42E61E977E0CE0136
:1043200001960E945431BE016F5F7F4FC8010E9409
:10433000481EE82ECE0101960E945F2FEE2051F01C
:104340006BE372E0C8010E94EE38009719F0FC019F
:10435000828108C068EE73E080E090E00E94402A0D
:10436000FA94D9F626960FB6F894DEBF0FBECDBFED
:10437000DF91CF911F910F91FF90EF900895EF92F1
:10438000FF920F931F93CF93DF9300D000D000D004
:10439000CDB7DEB78C016AE877E0CE0101960E94C6
:1043A0005431BE016F5F7F4FC8010E94481EF82E36
:1043B000CE0101960E945F2F21E0F2121AC06DE03B
:1043C00070E0C8010E94D338009799F07C01E2E0C8
:1043D000EE0EF11C6DE070E0C7010E94D33800972B
:1043E00011F0FC011082B701C8010E94E73881E09A
:1043F00001C080E026960FB6F894DEBF0FBECDBF99
:10440000DF91CF911F910F91FF90EF900895EF9260
:10441000FF920F931F93CF93DF9300D000D000D073
:10442000CDB7DEB77C0162E877E0CE0101960E944D
:104430005431BE016F5F7F4FC7010E94481E182F85
:10444000CE0101960E945F2F113061F56DE070E0A2
:10445000C7010E94D338009729F18C010E5F1F4FCE
:104460006DE070E0C8010E94D338009711F0FC01A4
:104470001082B801C7010E94E738F70180E090E0A0
:104480002191263611F481E00EC030ED320F3A3022
:1044900020F4DF01AB56BF4F2C930196883791056E
:1044A00079F7F1CF80E026960FB6F894DEBF0FBE05
:1044B000CDBFDF91CF911F910F91FF90EF900895A5
:1044C000CF92DF92EF92FF920F931F93CF93DF93E0
:1044D000CDB7DEB72C970FB6F894DEBF0FBECDBFB9
:1044E0008C0169E777E0CE0101960E945431BE014C
:1044F0006F5F7F4FC8010E94481EF82ECE010196C3
:104500000E945F2F21E0F212D7C06EE372E0C80173
:104510000E94EE38009709F4CFC07C01E2E0EE0E75
:10452000F11C62E270E0C7010E94D338009711F0DD
:10453000FC011082B701C8010E94E738B801CE0122
:1045400007960E94CD2F65E777E0CE0101960E9485
:104550005431BE016F5F7F4FCE0107960E944D32EE
:104560006C01CE0101960E945F2FC80183549F4FBA
:104570007C01D7FC24C065E677E00E94333161E618
:1045800077E0C8018D539F4F0E9433316DE577E08E
:10459000C80187539F4F0E9433316DE477E0C80113
:1045A00081539F4F0E94333169E477E089E994E0B9
:1045B0000E94022EF801EB51FF4F108272C065E499
:1045C00077E0CE0101960E945431BE016F5F7F4FAC
:1045D000CE0107960E944D326C01CE0101960E94D9
:1045E0005F2FD7FC25C061E377E0C7010E9433311C
:1045F00069E277E0C8018D539F4F0E94333161E239
:1046000077E0C80187539F4F0E9433316DE077E018
:10461000C80181539F4F0E94333165E077E089E9FB
:1046200094E00E94022EF801EB51FF4F81E038C068
:1046300060E077E0CE0101960E945431BE016F5FC9
:104640007F4FCE0107960E944D326C01CE0101963C
:104650000E945F2FD7FC25C067EF76E0C7010E945C
:10466000333164E672E0C8018D539F4F0E9466307B
:1046700064E672E0C80187539F4F0E9466306EEE79
:1046800076E0C80181539F4F0E94333166EE76E099
:1046900089E994E00E94022EF801EB51FF4F82E07D
:1046A0008083B70189E994E00E94142ECE01079619
:1046B0000E945F2F81E001C080E02C960FB6F89435
:1046C000DEBF0FBECDBFDF91CF911F910F91FF9045
:1046D000EF90DF90CF9008954F925F926F927F920C
:1046E0008F929F92AF92BF92CF92DF92EF92FF9202
:1046F0000F931F93CF93DF9300D000D000D0CDB79E
:10470000DEB72C016C018BEDC80ED11C8AE492E05F
:10471000D6018D939C93820103521F4F7201B1EE1B
:10472000EB0EF11CF70180819181D8018D939C9350
:104730006CED76E0CE0101960E945431BE016F5FB0
:104740007F4FC2010E94481EB82ECE0101960E94E2
:104750005F2FB1E0BB1240C03201EAEE6E0E711C59
:104760005201F6EEAF0EB11C42018DEA880E911C8B
:10477000D3018D919C91DC01ED91FC910480F58138
:10478000E02D0995892BC1F0D3018D919C91DC011D
:10479000ED91FC910680F781E02D0995F50180836C
:1047A0009183682FC4010E94A0316AE070E080E02C
:1047B00090E00E94402ADCCFF201E152FF4F80815D
:1047C0009181F60191838083D7018D919C91F801AD
:1047D0009183808381E00FC0F201E152FF4F80811D
:1047E0009181D6018D939C93F70180819181D801AD
:1047F0008D939C9380E026960FB6F894DEBF0FBE93
:10480000CDBFDF91CF911F910F91FF90EF90DF907F
:10481000CF90BF90AF909F908F907F906F905F9060
:104820004F9008950F931F93CF93DF9300D000D044
:1048300000D0CDB7DEB78C01161617061CF462ED5A
:1048400076E002C06FEB76E0CE0101960E94543113
:10485000BE016F5F7F4FC8010E94481E182FCE0116
:1048600001960E945F2F81E0113009F080E02696CA
:104870000FB6F894DEBF0FBECDBFDF91CF911F9171
:104880000F9108950F931F93CF93DF9300D000D023
:1048900000D0CDB7DEB78C0168EB76E0CE01019693
:1048A0000E945431BE016F5F7F4FC8010E94481EB5
:1048B000CE0101960E945F2F61E572E0C8010E945F
:1048C000EE38009751F005960E945B3883369105CB
:1048D00021F08F3F2FEF920709F480E026960FB664
:1048E000F894DEBF0FBECDBFDF91CF911F910F9126
:1048F00008950F931F93CF93DF9300D000D000D083
:10490000CDB7DEB78C016CEA76E0CE0101960E944D
:104910005431BE016F5F7F4FC8010E94481ECE0117
:1049200001960E945F2F26960FB6F894DEBF0FBE49
:10493000CDBFDF91CF911F910F910895DF92EF923C
:10494000FF920F931F93CF93DF93CDB7DEB72C97D2
:104950000FB6F894DEBF0FBECDBF8C017C0183EE95
:10496000E80EF11C80E197E2F7019183808360EA11
:1049700076E0CE0107960E945431BE01695F7F4FF9
:10498000C8010E94481E8823A9F06CE876E0CE0199
:1049900001960E945431BE016F5F7F4FC8010E9493
:1049A000481EDD24D3948111D12CCE0101960E94A2
:1049B0005F2F02C0DD24D394CE0107960E945F2FA3
:1049C000F801E455FF4FDD2041F0108280ED97E0C3
:1049D000F7019183808380E008C081E0808380EDCF
:1049E00097E0F7019183808381E02C960FB6F894CD
:1049F000DEBF0FBECDBFDF91CF911F910F91FF9012
:104A0000EF90DF900895AF92BF92CF92DF92EF9236
:104A1000FF920F931F93CF93DF9300D000D000D06D
:104A2000CDB7DEB77C015B016A018C0106511F4FD7
:104A300068E776E0F801808191810E94C42DB5017C
:104A4000F801808191810E94F52DF601808191818C
:104A5000892B21F08FE49CE1892BF1F562E2F801CA
:104A6000808191810E94382E64EF71E080E090E0B7
:104A70000E94402AB7016B527F4FCE0101960E94DF
:104A80005130BE016F5F7F4FC7010E94481EB82E94
:104A9000CE0101960E945F2FC70184559F4F6C0184
:104AA000BB20B1F068E676E0F801808191810E9438
:104AB000022E82E0F60180833C9610820E94112A29
:104AC000F701E754FF4F608371838283938311C0A2
:104AD00084E0F60180830DC06FE3F801808191814D
:104AE0000E94F72DB601F801808191810E94E72D87
:104AF000B5CF80E026960FB6F894DEBF0FBECDBFCF
:104B0000DF91CF911F910F91FF90EF90DF90CF90A9
:104B1000BF90AF900895CF92DF92EF92FF920F93E4
:104B20001F93CF93DF9300D000D000D0CDB7DEB776
:104B30008C01FC01EF51FF4F4081518120E137E2B0
:104B400066E572E00E94FD1C8130D9F5F801E85459
:104B5000FF4F1082680185EDC80ED11CB601CE0151
:104B600001960E94513022E632E044E650E0BE0158
:104B70006F5F7F4FC8010E94B81DCE0101960E9451
:104B80005F2FC8010E945B387C01B601CE010196FF
:104B90000E945130BE016F5F7F4FC8010E94481EC6
:104BA000CE0101960E945F2F85E9E816F10418F006
:104BB00055E9E52EF12CF801EE0DFF1D1082C7011D
:104BC00002C080E090E026960FB6F894DEBF0FBEDC
:104BD000CDBFDF91CF911F910F91FF90EF90DF90AC
:104BE000CF900895EF92FF920F931F93CF93DF938F
:104BF00000D000D000D0CDB7DEB77C018C010D51C4
:104C00001F4F80EA9FE0F80191838083662319F0AB
:104C10006FE476E002C062E476E0CE0101960E9485
:104C20005431BE016F5F7F4FC7010E94481EF82EAE
:104C3000CE0101960E945F2FF1E0FF1205C080EDCA
:104C400097E0F8019183808381E026960FB6F8946F
:104C5000DEBF0FBECDBFDF91CF911F910F91FF90AF
:104C6000EF90089586519F4FDC018D919C91DC015E
:104C7000ED91FC910480F581E02D099521E0892BCF
:104C800009F420E0822F0895CF93DF93CDB7DEB7EC
:104C900029970FB6F894DEBF0FBECDBF7C016B0124
:104CA00061E085E00E94F42AF701E851FF4F00819E
:104CB0001181C8010E9460398F83C80101960E944A
:104CC00060398887F701EA54FF4F808191810E9403
:104CD000603991E0811101C090E0F701EB54FF4F82
:104CE00090839923F9F08F8198858C0D9D1D9A836F
:104CF0008983CE0101966C015E0193E0A90EB11C7F
:104D0000F60161916F01C80169870E946039698568
:104D1000681719F0C8010E9468390F5F1F4FCA1445
:104D2000DB0471F766E376E0CE0101960E94543110
:104D3000BE016F5F7F4FC7010E94481ECE010196E2
:104D40000E945F2F6BE276E0CE0101960E94543103
:104D5000BE016F5F7F4FC7010E94481ECE010196C2
:104D60000E945F2F88E10FB6F89480936000109244
:104D700060000FBE61E085E00E942D2B65E672E0C9
:104D800089E994E00E94262E0CE310E068EE73E0BF
:104D900080E090E00E94402AA8956BEE71E089E9DE
:104DA00094E00E94F52D0150110981F728E088E177
:104DB00090E00FB6F894A895809360000FBE209302
:104DC0006000FFCF20918E0430918F04281739079F
:104DD000B9F490914C0480914D04981789F0E091BA
:104DE0004C04F0E0E25BFB4F808120914C0430E00A
:104DF0002F5F3F4F2F73332720934C0490E008958B
:104E00008FEF9FEF08951F93CF93DF93DC015C96A4
:104E10008D919C915D97009749F481E090E0139605
:104E20009C938E93129780E090E03BC05196ED9159
:104E3000FC91529750962C915097322F30951FB776
:104E40005E964C915E9741FB772770F941FD609526
:104E5000F8944081772311F0422B01C04323408313
:104E6000EC012197F1F748E0508160FF02C0522B1E
:104E700001C053235083EC012197F1F7669541500F
:104E800099F78081772311F0832301C0822B8083DF
:104E90001FBF5C968D919C915D970197F1F781E022
:104EA00090E0DF91CF911F910895089520918E0495
:104EB00030918F042817390781F490914C04809128
:104EC0004D04981751F0E0914C04F0E0E25BFB4F89
:104ED0008081992787FD909508958FEF9FEF089522
:104EE00020918E0430918F042817390771F4809136
:104EF0004D0420914C0490E0805C9F4F821B9109EF
:104F000060E470E00E94C035089580E090E008956C
:104F1000E0918E04F0918F04E817F90769F4A389F2
:104F2000B4899C918589809589238C9310928F04F4
:104F300010928E0481E0089580E00895CF93DF936E
:104F4000EC018A8D9B8D892BF1F080918E049091DC
:104F50008F048C179D07B9F0009711F00E948827E5
:104F60008E8D8E7F8E8F10924D0410924C04D093B4
:104F70008F04C0938E04EB89FC8980819D89892BE5
:104F8000808381E001C080E0DF91CF9108951F927E
:104F90000F920FB60F9211242F933F934F935F936D
:104FA0006F937F938F939F93AF93BF93EF93FF93F1
:104FB000E0918E04F0918F04309709F451C0868DF2
:104FC000A685B785958581FF04C08C91892329F436
:104FD00047C08C91892309F043C0A389B4899C916F
:104FE0008589809589238C93868997890197F1F724
:104FF000208D318DA685B785758558E040E0C901C3
:105000000197F1F7842F90E095958795482F6C9143
:10501000672309F04068515091F7868D81FD4095D6
:1050200080914D0490E001968F73992720914C0454
:10503000281749F0A0914D04B0E0A25BBB4F4C9300
:1050400080934D0403C0868D8160868F828D938D01
:105050000197F1F7A389B4898C919589892B8C9359
:10506000FF91EF91BF91AF919F918F917F916F9140
:105070005F914F913F912F910F900FBE0F901F9016
:1050800018952CE732E0FC01318320830C948827AB
:105090001F93CF93DF93EC01162F6E8D6695617091
:1050A00081E06827812F0E942D2B61E0812F0E94D3
:1050B000F42A812F90E0FC01EC55F74FE491E88B46
:1050C000FC01E854F74FE491F0E0EE0FFF1FEA52C5
:1050D000F74F859194919A8B898BDF91CF911F9196
:1050E00008951F93CF93DF93EC01162F60E0812F7B
:1050F0000E94F42A8E8D81FD04C061E0812F0E9400
:105100002D2B1C87812F90E0FC01EC55F74FE4918B
:10511000ED87FC01E854F74FE491F0E0EE0FFF1F3C
:10512000E453F74F859194919F878E87DF91CF91BC
:105130001F910895FF920F931F93CF93DF93EC017C
:10514000F62E522F1B821A8208EE13E020E030E088
:105150000C831D832E833F838CE792E099838883A1
:105160001F8A1E8A198E188E1B8E1A8E1D8E1C8EFB
:105170008E8D8E7F50FB81F98E8F642FCE010E9421
:1051800048286F2DCE01DF91CF911F910F91FF9095
:105190000C947128CF93DF93EC019A01AB011B8E25
:1051A0001A8E198E188E1F8A1E8A60E079E08DE3B0
:1051B00090E00E94F635C9012430310520F0B90194
:1051C0006350710902C061E070E07D8F6C8FEC85E7
:1051D000E63108F068C0B9017695679564317105CC
:1051E00018F06351710902C061E070E07F8B6E8B33
:1051F000069718F0C901059702C081E090E0998FE9
:10520000888FC901880F991F820F931F96958795E4
:10521000969587958D30910510F00C9702C081E02E
:1052200090E09B8F8A8F20916800E83050F091E0E9
:10523000EE3008F490E081E001C0880F9A95EAF71B
:1052400001C084E0822B809368002C85283038F0E0
:105250002E3040F0263148F48CE690E008C08DE610
:1052600090E005C08BE690E002C080E090E09C8B6F
:105270008B8B283030F481E001C0880F2A95EAF743
:105280000DC0822F90E02E3010F4089701C00E97C9
:1052900091E001C0990F8A95EAF7892F8D8B8C8D4B
:1052A0009D8D0197F1F7CE01DF91CF910C949E2750
:1052B00008958230E8F4E82FF0E0EE0FFF1FE85D7C
:1052C000FE4F71836083813041F0809169008C7F53
:1052D000842B80936900E89A089580916900440FB7
:1052E000551F440F551F837F842B80936900E99AD3
:1052F00008951F920F920FB60F9211242F933F9390
:105300004F935F936F937F938F939F93AF93BF93CD
:10531000EF93FF93E0912801F09129010995FF9106
:10532000EF91BF91AF919F918F917F916F915F911D
:105330004F913F912F910F900FBE0F901F90189596
:105340001F920F920FB60F9211242F933F934F93FA
:105350005F936F937F938F939F93AF93BF93EF93DD
:10536000FF93E0912A01F0912B010995FF91EF91B4
:10537000BF91AF919F918F917F916F915F914F916D
:105380003F912F910F900FBE0F901F9018951F9275
:105390000F920FB60F9211242F933F938F939F93E9
:1053A000AF93BF938091910490919204A091930444
:1053B000B09194043091900423E0230F2D3720F412
:1053C0000196A11DB11D05C026E8230F0296A11D5F
:1053D000B11D209390048093910490939204A09324
:1053E0009304B09394048091950490919604A091B5
:1053F0009704B09198040196A11DB11D8093950466
:1054000090939604A0939704B0939804BF91AF91A2
:105410009F918F913F912F910F900FBE0F901F90F2
:1054200018952FB7F894609191047091920480912F
:105430009304909194042FBF08953FB7F8948091FE
:10544000950490919604A0919704B091980426B584
:10545000A89B05C02F3F19F00196A11DB11D3FBFAC
:105460006627782F892F9A2F620F711D811D911D3C
:1054700042E0660F771F881F991F4A95D1F708955C
:10548000CF92DF92EF92FF92CF93DF936B017C017B
:105490000E941D2AEB01C114D104E104F10489F03A
:1054A0000E9441340E941D2A6C1B7D0B683E734094
:1054B00090F381E0C81AD108E108F108C851DC4F27
:1054C000EACFDF91CF91FF90EF90DF90CF900895DA
:1054D0008230910538F0880F991F880F991F059722
:1054E0000197F1F70895789484B5826084BD84B5FE
:1054F000816084BD85B5826085BD85B5816085BDCF
:10550000EEE6F0E0808181608083E1E8F0E01082E7
:10551000808182608083808181608083E0E8F0E028
:10552000808181608083E1EBF0E080818460808312
:10553000E0EBF0E0808181608083EAE7F0E0808149
:1055400084608083808182608083808181608083A9
:105550008081806880831092C10008958E3008F0A9
:105560008E50877020912C0190E4299F9001112486
:10557000822B80937C0080917A00806480937A00F3
:1055800080917A0086FDFCCF80917800209179008F
:1055900090E0922B0895833081F028F4813099F0C7
:1055A0008230A1F008958730A9F08830B9F08430B6
:1055B000D1F4809180008F7D03C0809180008F772F
:1055C00080938000089584B58F7702C084B58F7D65
:1055D00084BD08958091B0008F7703C08091B000A2
:1055E0008F7D8093B0000895CF93DF9390E0FC010E
:1055F000EC55F74F2491FC01E854F74F8491882330
:1056000049F190E0880F991FFC01E052F74FA591F6
:10561000B4918A52974FFC01C591D4919FB7611103
:1056200008C0F8948C91209582238C9388818223E2
:105630000AC0623051F4F8948C91322F3095832354
:105640008C938881822B888304C0F8948C91822B60
:105650008C939FBFDF91CF9108950F931F93CF93AA
:10566000DF931F92CDB7DEB7282F30E0F901E05766
:10567000F74F8491F901EC55F74F1491F901E85473
:10568000F74F04910023C9F0882321F069830E9419
:10569000CB2A6981E02FF0E0EE0FFF1FEA52F74FAF
:1056A000A591B4919FB7F8948C91611103C01095A6
:1056B000812301C0812B8C939FBF0F90DF91CF91ED
:1056C0001F910F910895CF93DF93282F30E0F901B8
:1056D000E057F74F8491F901EC55F74FD491F90158
:1056E000E854F74FC491CC2391F081110E94CB2A4A
:1056F000EC2FF0E0EE0FFF1FE453F74FA591B491AC
:105700002C912D2381E090E021F480E002C080E024
:1057100090E0DF91CF910895FC01818D228D90E082
:10572000805C9F4F821B91098F7399270895FC011C
:10573000918D828D981731F0828DE80FF11D858D46
:1057400090E008958FEF9FEF0895FC01918D828D79
:10575000981761F0828DDF01A80FB11D5D968C91C5
:10576000928D9F5F9F73928F90E008958FEF9FEFD0
:10577000089589E29DE2892B49F080E090E0892B31
:1057800029F00E94292D81110C9400000895FC013C
:10579000848DDF01A80FB11DA35ABF4F2C91848DBA
:1057A00090E001968F739927848FA689B7892C93EF
:1057B000A089B1898C9180648C93938D848D98138A
:1057C00006C00288F389E02D80818F7D8083089553
:1057D000CF93DF93EC01888D8823C9F0EA89FB8998
:1057E000808185FD05C0A889B9898C9186FD0FC08F
:1057F0000FB607FCF5CF808185FFF2CFA889B98964
:105800008C9185FFEDCFCE010E94C72BE7CFDF91B2
:10581000CF910895CF92DF92FF920F931F93CF9372
:10582000DF931F92CDB7DEB76C0181E0D6015896A9
:105830008C9358975B969C915B975C968C915C9748
:10584000981307C05096ED91FC915197808185FD8A
:105850002EC0F601038D10E00F5F1F4F0F7311274D
:10586000F02EF601848DF81211C00FB607FCF9CFA7
:10587000D6015096ED91FC915197808185FFF1CF33
:10588000C60169830E94C72B6981EBCF838DE80F26
:10589000F11DE35AFF4F6083D6015B960C935B9733
:1058A0005296ED91FC915397808180620CC0D60195
:1058B0005696ED91FC91579760835096ED91FC912F
:1058C000519780818064808381E090E00F90DF9128
:1058D000CF911F910F91FF90DF90CF900895BF92CD
:1058E000CF92DF92EF92FF92CF93DF93EC016A01A8
:1058F0007B01B22EE889F98982E08083411581EE2F
:10590000580761057105A1F060E079E08DE390E052
:10591000A70196010E94D43521503109410951094E
:105920005695479537952795211580E1380798F0CA
:10593000E889F989108260E874E88EE190E0A701B7
:1059400096010E94D43521503109410951095695DB
:10595000479537952795EC85FD853083EE85FF8546
:105960002083188EEC89FD89B082EA89FB898081C9
:1059700080618083EA89FB89808188608083EA89ED
:10598000FB89808180688083EA89FB8980818F7DA3
:105990008083DF91CF91FF90EF90DF90CF90BF9009
:1059A00008951F920F920FB60F9211242F938F9389
:1059B0009F93EF93FF93E091A904F091AA04808153
:1059C000E091AF04F091B00482FD12C0908180910B
:1059D000B2048F5F8F732091B304821751F0E0916E
:1059E000B204F0E0E756FB4F958F8093B20401C0FC
:1059F0008081FF91EF919F918F912F910F900FBE1A
:105A00000F901F9018951F920F920FB60F921124AE
:105A10002F933F934F935F936F937F938F939F93B6
:105A2000AF93BF93EF93FF9389E994E00E94C72B54
:105A3000FF91EF91BF91AF919F918F917F916F9166
:105A40005F914F913F912F910F900FBE0F901F903C
:105A5000189589E994E00E948C2B21E0892B09F4A8
:105A600020E0822F089510929C0410929B0488EEEF
:105A700093E0A0E0B0E080939D0490939E04A093F7
:105A80009F04B093A0048CE892E090939A048093D2
:105A9000990485EC90E09093A6048093A50484EC8F
:105AA00090E09093A8048093A70480EC90E09093FA
:105AB000AA048093A90481EC90E09093AC048093B5
:105AC000AB0482EC90E09093AE048093AD0486EC3E
:105AD00090E09093B0048093AF041092B2041092BF
