:100000000C94DB040C94D4120C94AD120C94FE1FCF
:100010000C94FE1F0C94FE1F0C9403050C94030516
:100020000C9403050C94CB140C9403050C94030559
:100030000C9403050C9403050C9403050C94030520
:100040000C9463120C9403050C9456110C9430110B
:100050000C9403050C9403050C9403050C94030500
:100060000C9403050C94030500407A10F35A00A089
:10007000724E18090010A5D4E80000E87648170071
:1000800000E40B54020000CA9A3B000000E1F505B1
:10009000000080969800000040420F000000A086FB
:1000A00001000000102700000000E803000000002D
:1000B0006400000000000A000000000001000000D1
:1000C00000002C76D888DC674F0823DFC1DFAE59EB
:1000D000E1B1B796E5E3E453C63AE651997696E87E
:1000E000E6C28426EB898C9B62ED407C6FFCEFBC02
:1000F0009C9F40F2BAA56FA5F490055A2AF75C932D
:100100006B6CF9676DC11BFCE0E40D47FEF520E662
:10011000B500D0ED902E0300943577050080841E45
:10012000080000204E0A000000C80C333333330FA0
:10013000986E12831141EF8D2114893BE65516CF3D
:10014000FEE6DB18D1844B381BF77C1D901DA4BB49
:10015000E424203284725E228100C9F124ECA1E5FE
:100160003D2741542B53415042523D312C310043E5
:100170006F6E6E65637420475052532E2E004154AB
:100180002B434744434F4E543D312C224950222C9F
:10019000220041542B53415042523D332C312C22EA
:1001A000505744222C220041542B53415042523D7F
:1001B000332C312C2255534552222C220041542BF2
:1001C00053415042523D332C312C2241504E222C6F
:1001D000220041542B53415042523D332C312C22AA
:1001E000436F6E74797065222C224750525322005F
:1001F000496E7465726E657420636F6E6E656374AC
:10020000204F4B212D0057616974204950000A4648
:1002100061696C656420636F6E6E65637420696EDE
:100220007465726E657400496E7465726E657420D3
:10023000636F6E6E656374204F4B212D00576169AB
:1002400074204950000A496E7465726E65742048C6
:1002500054545020636F6E6E656374202E2E0041DF
:10026000542B48545450504152413D22434944225A
:100270002C310041542B48545450494E49540041AC
:10028000542B4854545053534C3D310041542B4847
:1002900054545053534C3D300041542B4854545007
:1002A00052454144004F4E004F4646004465766932
:1002B0006365202E2E006E6F20636F6D7061726516
:1002C0000054656C20636F6D70617265006E6F2005
:1002D000636F6D7061726500204572726F72733A60
:1002E0002000546F74616C3A20005B5061796C6F30
:1002F00061645D2000546865206E756D62657220D2
:100300006F6620736572766572206572726F7273A4
:1003100020657863656564656420313000457272DC
:100320006F727320657863656564656400436F6E02
:100330006E656374206572726F7220485454500069
:100340000A485454505F73736C3A20736574204F9D
:100350004646207375636365737366756C6C7921AB
:10036000000A485454505F73736C3A2073657420CC
:100370004F4E207375636365737366756C6C79217A
:10038000000A4E6F20696E7465726E657420636F2B
:100390006E6E656374696F6E004552524F52005223
:1003A000657175657374696E67202E2E20576169BB
:1003B0007400746F53656E642E6C656E6774683A72
:1003C00020004154202B20434D4746203D20310042
:1003D00041542B435343533D2247534D2200415434
:1003E0002B434C49503D310041542B434D47463D32
:1003F000310041542B4346554E3D31004154453068
:100400000041542B4950523D313932303000415473
:100410000041540041540041540041540041542BC8
:1004200047534E0041542B434349440041542B430E
:100430005245473F004D454741464F4E00696E7457
:1004400065726E657400696E7465726E6574004DD8
:10045000656761004265656C696E6500696E74650B
:10046000726E65742E6265656C696E652E727500BC
:100470006265656C696E65006265656C696E6500D4
:10048000696E7465726E65742E6265656C696E6501
:100490002E727500426565004D545300696E746597
:1004A000726E65742E6D74732E7275006D747300A8
:1004B0006D747300696E7465726E65742E6D7473FD
:1004C0002E7275004D54530041542B434F50533FEF
:1004D000004750525320636F6E6E656374202E2E5A
:1004E0000072737369202E2E000A52656769737457
:1004F0006572656420726F616D696E67000A556E82
:100500006B6E6F776E000A44656E696564000A4E13
:100510006F742072656769737465726564202873EF
:100520006561726368696E6729000A52656769735D
:1005300074657265642028686F6D6529000A4E6FC6
:10054000742072656769737465726564003A20008F
:100550000A4E6574776F726B2073746174757320C3
:10056000000A53494D20434349443A000A494D4546
:10057000493A002E000A53657474696E67207570DD
:10058000206D6F62696C65206E6574776F726B2E7B
:100590002E2E004F4B00436F756C646E27742066DF
:1005A000696E64206D6F64756C652047505253000E
:1005B000506F7765722053494D383030204F6E00B0
:1005C000496E697469616C697A696E672E2E2E2E88
:1005D000284D61792074616B6520352D3130207391
:1005E00065636F6E6473290041542B434D47443D4E
:1005F00031000A53494D38303020736574757020CE
:10060000656E6400416C6C20534D532064656C65CD
:100610007465004F4B000A66726565206D656D6FED
:1006200072793A2000496E74657276616C20736548
:10063000633A000A2A2A205761746368646F67204E
:100640006F6E202A2A005761746368646F67206F99
:10065000666600436C65617220454550524F4D20DF
:10066000456E640054657374205761746368646FE9
:100670006700537461727420636C65617220454534
:1006800050524F4D000A53494D3830302073657435
:1006900075702073746172740044657669636520B7
:1006A0004F4E00446576696365204F464600496EAB
:1006B00074657276616C2070696E67207365633A49
:1006C000000A66726565206D656D6F72793A20006B
:1006D000496E74657276616C207365633A00005EE2
:1006E000BCE2613FDD83C29C7E20A3FD1F419DC310
:1006F000217FFCA2401E5F01E3BD3E6082DC237DC2
:100700009FC1421CFEA0E1BF5D0380DE3C62BEE0F3
:10071000025CDF81633D7C22C09E1D43A1FF461821
:10072000FAA427799BC584DA3866E5BB5907DB85CF
:100730006739BAE406581947A5FB7826C49A653B81
:10074000D987045AB8E6A7F91B45C6987A24F8A6B3
:10075000441A99C7257B3A6486D85B05E7B98CD2E1
:10076000306EEDB3510F4E10F2AC2F7193CD114F8F
:10077000ADF3702ECC92D38D6F31B2EC0E50AFF141
:10078000134DCE90722C6D33D18F0C52B0EE326C73
:100790008ED0530DEFB1F0AE4C1291CF2D73CA94A1
:1007A0007628ABF517490856B4EA6937D58B57094F
:1007B000EBB536688AD495CB2977F4AA4816E9B701
:1007C000550B88D6346A2B7597C94A14F6A8742A33
:1007D000C896154BA9F7B6E80A54D7896B350000BF
:1007E0000000240027002A00000000080002010089
:1007F00000030407000000000000000041542B43E8
:1008000053510041542B434D4744413D2244454CF4
:1008100020414C4C220041542B48545450414354E5
:10082000494F4E3D300041542B4854545050415292
:10083000413D2255524C222C220041542B48545405
:10084000505445524D0041542B53415042523D3279
:100850002C310041542B43495053485554004154C6
:100860002B485454505445524D00000000002500C0
:1008700028002B00000000002300260029000404AB
:100880000404040404040202020202020303030338
:100890000303010204081020408001020408102014
:1008A000010204081020556E6B6E6F776E20636F27
:1008B0006D6D616E6400446576696365204F4646E0
:1008C000004465766F666600446576696365204F0F
:1008D0004E004465766F6E00454550524F4D204F97
:1008E000464600456F666600454550524F4D204FC5
:1008F0004E00456F6E00485454502053534C204FC7
:1009000046460053736C6F6666004854545020533B
:10091000534C204F4E0053736C6F6E0054696D65DD
:100920006F66660054696D656F6666005265737424
:1009300061727400526573746172740054696D65FC
:100940007365740041542B434D47523D3100534D64
:10095000532064656C6574650070686F6E6520690E
:10096000676E6F72656400446576696365204F4603
:1009700046004465766F6666004465766963652067
:100980004F4E004465766F6E00534D532063656E85
:10099000747200436F6D6D616E64612074656C31BB
:1009A00000534D532064656C65746500534D533A94
:1009B00000000E2C6C2D11241FBECFEFD8E0DEBF3F
:1009C000CDBF12E0A0E0B1E0E4E0FBE602C005909C
:1009D0000D92A437B107D9F725E0A4E7B2E001C032
:1009E0001D92AB30B207E1F714E0CAEDD4E004C0C9
:1009F0002197FE010E945034C93DD107C9F70E94DA
:100A000048240C9475350C9400001F93CF93DF930A
:100A10001F92CDB7DEB7162F682F8AE049830E9458
:100A2000B111612F8EE00E94B1114981642F8FE0D6
:100A30000F90DF91CF911F910C94B11180918C0296
:100A400090918D02892B29F440E060E081E00E94C2
:100A5000050580918C0290918D020197D9F4209127
:100A600074023091750281E090E0232B11F080E058
:100A700090E090937502809374028091740290913B
:100A8000750240E060E0892B11F481E001C080E054
:100A90000E94050580918C0290918D020297D9F4F5
:100AA000209174023091750281E090E0232B11F0C7
:100AB00080E090E0909375028093740280917402BC
:100AC00090917502892B11F440E001C041E060E093
:100AD00080E00E94050580918C0290918D02039721
:100AE000D9F4209174023091750281E090E0232BBB
:100AF00011F080E090E090937502809374028091F1
:100B000074029091750240E0892B11F460E001C0FD
:100B100061E080E00C9405050895FC0180819181DD
:100B20000C9432332F923F924F925F926F927F924A
:100B30008F929F92AF92BF92CF92DF92EF92FF92ED
:100B40000F931F93CF93DF93CDB7DEB7CE55D10967
:100B50000FB6F894DEBF0FBECDBF89EA93E00E94C6
:100B6000311586E993E00E94311583E893E00E94F5
:100B7000311589EA93E00E9400182B013C0186E9B7
:100B800093E00E9400184B015C0183E893E00E940F
:100B900000186B017C01A5019401C301B2010E9400
:100BA0009A33A70196010E949A332FE832EC41EB69
:100BB00052E40E949A336F966CAF7DAF8EAF9FAFB9
:100BC0006F976B961FAE1EAE6B9780EA90E09A838C
:100BD0008983CE0101960E948D056A968FAF6A9730
:100BE00081EA90E09A838983CE0101960E948D0567
:100BF0006B968FAF6B9785E480937C0080917A0031
:100C0000806480937A0080917A0086FDFCCF009109
:100C100078008091790010E0182B8CE00E948811F8
:100C200033243394892B09F4312C84E091E09A83A6
:100C30008983CE0101960E948D0580938E026EEB12
:100C400071E0CE01CB960E942C1A20E030E04EEFEE
:100C500052ECC301B2010E940B32882359F1CE013C
:100C6000CB960E94471F22E0B301A201CE0143961A
:100C70000E94EA1968E371E0CE0101960E942C1AE5
:100C8000BE016D5E7F4FCE0101960E947C19DC0192
:100C900014964D915C9115976D917C91CE01CB96F8
:100CA0000E943519CE0101960E94E519CE014396A6
:100CB0000E94E51920E030E04EEF52ECC501B4018E
:100CC0000E940B32882349F1CE01CB960E94471F28
:100CD00022E0B501A401CE0143960E94EA196CE31B
:100CE00071E0CE0101960E942C1ABE016D5E7F4F0D
:100CF000CE0101960E947C19FC01448155816081DE
:100D00007181CE01CB960E943519CE0101960E94C9
:100D1000E519CE0143960E94E51920E030E04EEF40
:100D200052ECC701B6010E940B32882359F1CE0163
:100D3000CB960E94471F22E0B701A601CE01439641
:100D40000E94EA1960E471E0CE0101960E942C1A1B
:100D5000BE016D5E7F4FCE0101960E947C19DC01C1
:100D600014964D915C9115976D917C91CE01CB9627
:100D70000E943519CE0101960E94E519CE014396D5
:100D80000E94E5190E94161FF82E80918E0265962A
:100D90001FAE1EAE659767961FAE1EAE679769962B
:100DA0001FAE1EAE69974AE0BE016F5F7F4F90E0B5
:100DB0000E94722FBE016F5F7F4FCE018D5A9F4FF1
:100DC0000E94B7192F961FAE1EAE2F9761961FAEC9
:100DD0001EAE619763961FAE1EAE63974AE0BE01DA
:100DE0006F5F7F4F832D90E00E944A2FBE016F5F9F
:100DF0007F4FCE01835B9F4F0E94B71929961FAE8C
:100E00001EAE29972B961FAE1EAE2B972D961FAEAA
:100E10001EAE2D974AE0BE016F5F7F4FC8010E9452
:100E20004A2FBE016F5F7F4FCE01895B9F4F0E94AB
:100E3000B71922E06F964CAD5DAD6EAD7FAD6F978B
:100E4000CE018F5B9F4F0E94EA19BE016F5F7F4FFB
:100E500084E690E00E94DE20BE016F5F7F4FCE01EE
:100E600089960E942C1A64E471E0CE0143960E9498
:100E70002C1ABE01675D7F4FCE0143960E947C19FC
:100E8000BC01CE0189960E94CE19CE0143960E94E4
:100E9000E519BE016F5F7F4F8CED90E00E94DE2070
:100EA000BE016F5F7F4FCE0183960E942C1A69E4CA
:100EB00071E0CE0143960E942C1ABE016D5D7F4FFA
:100EC000CE0143960E947C19BC01CE0183960E94FC
:100ED000CE19CE0143960E94E5196FE471E0CE0170
:100EE00043960E942C1ABE01675D7F4FCE01439648
:100EF0000E947C196FE471E00E946319BE016D5D70
:100F00007F4F0E947C196FE471E00E94631961E5D4
:100F100071E00E94631962ED74E00E947C19BC01CB
:100F2000CE018F960E94231ACE0143960E94E519A6
:100F3000CE0183960E94E519CE0189960E94E5199B
:100F40002091990430919A046B968EAD9FAD6B976A
:100F50001AA619A61CA61BA61EA61DA64AE0BE011F
:100F60006F5F7F4F820F931F0E94722FBE016F5FD2
:100F70007F4FCE0189960E94B71980919904909174
:100F80009A041CA21BA21EA21DA218A61FA24AE020
:100F9000BE016F5F7F4F0E94722FBE016F5F7F4F58
:100FA000CE0183960E94B7191C8A1B8A1E8A1D8A4D
:100FB000188E1F8A4AE0BE016F5F7F4F8F2D90E031
:100FC0000E94722FBE016F5F7F4FCE0143960E9439
:100FD000B71962E571E0CE0101960E942C1A68ED06
:100FE00074E0CE0101960E947C19BE01655C7F4FC2
:100FF0000E947C196FE471E00E94631966E571E05C
:101000000E946319BE016D5E7F4F0E947C196FE4E0
:1010100071E00E94631969E571E00E946319BE01E5
:101020006D5D7F4F0E947C196FE471E00E9463192F
:101030006CE571E00E946319BE01675D7F4F0E94FD
:101040007C19BE01615D7F4F0E947C196FE471E0E5
:101050000E94631960E671E00E946319BE016F5B34
:101060007F4F0E947C196FE471E00E94631964E66F
:1010700071E00E946319BE01695B7F4F0E947C1979
:101080006FE471E00E94631969E671E00E946319E0
:10109000BE01635B7F4F0E947C196FE471E00E9488
:1010A00063196EE671E00E946319BE016D5A7F4FAD
:1010B0000E947C19BC01CE01C5960E94231ACE0164
:1010C00001960E94E519CE0143960E94E519CE01D2
:1010D00083960E94E519CE0189960E94E519CE01FA
:1010E0008F960E94E519CE018F5B9F4F0E94E519F4
:1010F000CE01895B9F4F0E94E519CE01835B9F4F14
:101100000E94E519CE018D5A9F4F0E94E51962EBAE
:1011100073E086EE92E00E940F2469AD7AAD80E024
:1011200090E04AE00E941A1D86EE92E00E946E1B3B
:10113000C12CD12C58E0652E7724739464E0862E60
:1011400099249394BE016B5C7F4FCE018F5B9F4FC0
:101150000E94231A6FE973E086EE92E00E940F244A
:1011600041E060E080E00E9405050BE010E065E4EE
:1011700072E086EE92E00E94721B62ED71E0CE0199
:1011800001960E941A1ACE0101960E94D81BF82ED1
:10119000CE0101960E94E519FF2009F4DBC06DEB3A
:1011A00071E08091D0049091D1040E940F2463EAF1
:1011B00074E08091D0049091D1040E948D1B8091A5
:1011C000D0049091D1040E949C1D6BEB74E0CE0181
:1011D00001960E94231ACE0101960E94D81BF82E78
:1011E000CE0101960E94E519FF2009F4B3C067EA19
:1011F00071E08091D0049091D1040E940F2469EA9B
:1012000074E08091D0049091D1040E948D1B809154
:10121000D0049091D1040E949C1D6BEB74E0CE0130
:1012200001960E94231ACE0101960E94D81BF82E27
:10123000CE0101960E94E519FF2009F48BC062E9F6
:1012400071E08091D0049091D1040E940F246FEA44
:1012500074E08091D0049091D1040E948D1B809104
:10126000D0049091D1040E949C1D6BEB74E0CE01E0
:1012700001960E94231ACE0101960E94D81BF82ED7
:10128000CE0101960E94E519FF2009F463C06EE7C4
:1012900071E08091D0049091D1040E940F2465EBFD
:1012A00074E08091D0049091D1040E948D1B8091B4
:1012B000D0049091D1040E949C1D6BEB74E0CE0190
:1012C00001960E94231ACE0101960E94D81BF82E87
:1012D000CE0101960E94E519FF20E1F188E99AE329
:1012E0009093CA048093C9046FE671E086EE92E0A1
:1012F0000E940F2481E090E00E94AF1D62E671E041
:10130000CE0101960E941A1ACE0101960E94D81BA6
:10131000CE0101960E94E51980ED97E09093CA04F2
:101320008093C90480918C0290918D02039739F0CB
:1013300062E370E080E090E00E941D12F3CF6DE365
:1013400072E086EE92E00E94721B0E946C1D67E2C2
:1013500072E021C00150110909F459C26EE072E037
:1013600086EE92E00E94721B68EE73E080E090E0EF
:101370000E941D1280918C0290918D02039709F0BA
:10138000F6CE66E072E086EE92E00E94721B0E944A
:101390006C1D60EF71E086EE92E00E94721B86E0A9
:1013A000E82EF12C90EDA92E97E0B92EE0E1F7E2BE
:1013B000F093CA04E093C90463E772E0CE01439658
:1013C0000E941A1ACE0143960E94D81B882391F0DE
:1013D0006FE572E0CE0101960E941A1ACE010196C5
:1013E0000E94D81B01E0811100E0CE0101960E940D
:1013F000E51901C001E0CE0143960E94E5190023E2
:10140000B9F110929204B092CA04A092C90463E7A1
:1014100071E086EE92E00E948B1B86EE93E00E94C4
:10142000AD1B66EE73E0CE0143960E942C1A69E96B
:1014300073E0CE0101960E941A1ABE016F5F7F4FC2
:10144000CE0143960E94FC188C01CE0101960E94A9
:10145000E51917FD19C061E873E086EE92E00E947D
:10146000721B68EE73E080E090E00E941D120CC0D9
:1014700081E08093920440EDE42E47E0F42E8091C9
:101480000401811113C030C00E94E21D68EE73E0B8
:1014900080E090E00E941D12F1E0EF1AF10809F4DB
:1014A000B6C1CE0143960E94E51980CF80EA9FE045
:1014B0009093CA048093C9046FE772E0CE0101964D
:1014C0000E941A1ACE0101960E94D81B182FCE0135
:1014D00001960E94E519113021F4F092CA04E092BD
:1014E000C90461E673E01DC080EA9FE09093CA04DE
:1014F0008093C9046CE872E0CE0101960E941A1A2A
:10150000CE0101960E94D81B182FCE0101960E9491
:10151000E519113021F4F092CA04E092C90460E4A4
:1015200073E086EE92E00E94721B80910401882392
:10153000F9F065E771E086EE92E00E948B1B6FE3A5
:1015400086EE92E00E94841BBE016F5B7F4F86EEA9
:1015500092E00E949B1BBE016F5B7F4FCE01019604
:101560000E94231ABE016F5F7F4F85E791E01EC086
:101570006CE871E086EE92E00E948B1B6FE386EED2
:1015800092E00E94841BBE016F5B7F4F86EE92E06B
:101590000E949B1BBE016F5B7F4FCE0101960E9494
:1015A000231ABE016F5F7F4F8CE891E00E947A1E84
:1015B000CE0101960E94E5198091790290917A02FC
:1015C000019690937A02809379021092780248E90A
:1015D0005AE362EA71E087EA91E00E94001E8230DD
:1015E00020F084E0809392041EC081111CC06EE242
:1015F00086EE92E00E94710F13E3115041F3809147
:10160000D0049091D104DC01ED91FC910480F5812E
:10161000E02D0995892BD9F66FE070E080E090E02D
:101620000E941D12EACF809192048430D9F46DE2B9
:1016300073E086EE92E00E94721B80919904909173
:101640009A04019690939A0480939904069718F04F
:101650006DE173E0D2C068EB7BE080E090E00E9437
:101660001D128EC386EE92E00E946E1B69E972E045
:101670008091D0049091D1040E94721B83E08093EA
:10168000920410929E040E94571260939F047093DC
:10169000A0048093A1049093A2043AE4F32E6091F5
:1016A000C7047091C80440E157E28DEA91E00E94BE
:1016B000001E8130A1F710929E046BEB74E0CE0106
:1016C00001960E94231A69EB71E0CE0101960E94F7
:1016D000161981110BC00E94BE1BBE016F5F7F4FA8
:1016E0008091D0049091D1040E949B1B0E945712BC
:1016F0001B012C0110E08091D0049091D104DC01F9
:10170000ED91FC910480F581E02D0995892B09F478
:101710004CC08091D0049091D104DC01ED91FC91FA
:101720000680F781E02D0995153950F0E1E3F4E0EA
:10173000A6EEB3E09F2D01900D929A95E1F71AE481
:10174000EE24E394E10EE12FF0E0EA51FC4F8083B8
:10175000EE2DF0E0EA51FC4F10826CEB71E086EE6A
:1017600093E00E945B35892BF9F0CE0101960E942F
:10177000E51986EE93E00E94F52E5C016BEB74E0B8
:10178000CE0101960E94231ACE0101960E94D81B19
:10179000CE0101960E94E519B5E9AB16B104A0F09F
:1017A00025E9A22EB12C10C01E2D0E945712DC017B
:1017B000CB0182199309A409B50984369105A105C5
:1017C000B10508F498CFD1CFF501EA51FC4F108252
:1017D000AB2809F464CF809192048430F1F48091B5
:1017E000990490919A04019690939A048093990495
:1017F000069708F430CF65EF72E086EE92E00E9423
:10180000721B68EB7BE080E090E00E941D128091EB
:10181000990490919A040E945B1C6AEE72E086EE35
:1018200092E00E940F2486EE93E00E94AD1B66EECC
:1018300073E0CE018F960E942C1A81E0809378028B
:101840006FE471E0CE0101960E942C1ABE016F5F19
:101850007F4FCE018F960E94FC188C01CE0101961D
:101860000E94E51917FD99C06FEB71E0CE0101965A
:101870000E942C1ABE016F5F7F4FCE018F960E948F
:10188000FC189C8B8B8BCE0101960E94E51963ECB2
:1018900071E0CE0101960E942C1ABE016F5F7F4F4E
:1018A000CE018F960E94FC189E8B8D8BCE010196E7
:1018B0000E94E51967EC71E0CE0101960E942C1A96
:1018C000BE016F5F7F4FCE018F960E94FC18988FEC
:1018D0008F8BCE0101960E94E5196BEC71E0CE0171
:1018E00001960E942C1ABE016F5F7F4FCE018F962A
:1018F0000E94FC189A8F898FCE0101960E94E519EB
:101900006FEC71E0CE0101960E942C1ABE016F5F50
:101910007F4FCE018F960E94FC189C8F8B8FCE013B
:1019200001960E94E51963ED71E0CE0101960E94D7
:101930002C1ABE016F5F7F4FCE018F960E94FC185C
:101940009E8F8D8FCE0101960E94E51967ED71E0A3
:10195000CE0101960E942C1ABE016F5F7F4FCE010F
:101960008F960E94FC1898A38F8FCE0101960E943B
:10197000E5198BA99CA9892B61F00FA518A963E231
:1019800070E0C8010E944035009719F0801B910B50
:1019900002C08FEF9FEF9AA389A3FE0173967F0188
:1019A0002E01F1E24F0E511CD7014D915D917D0149
:1019B0005A01B5E0AB0EB11C4D5F5F4F9501BE0102
:1019C000615D7F4FCE0189960E94281BCE018996CA
:1019D0000E94F1188B01CB010E94AF1DF7012081FD
:1019E0003181A501BE01615D7F4FCE0101960E944C
:1019F000281B89A59AA50097A9F069817A816115AC
:101A0000710571F04BA55CA52D813E8142175307EE
:101A100038F00E9454358D819E819EA78DA712C0FB
:101A20000E945D2E89819A819AA789A78B819C81CA
:101A30009CA78BA78D819E819EA78DA71A82198254
:101A40001C821B821E821D82CE0101960E94E51916
:101A500010927602BE01675D7F4F86EE92E00E9493
:101A60009B1BBE01675D7F4FCE0183960E94231AA8
:101A70002B961CAE1DAE1EAE1FAE2B97033011056C
:101A800009F4A2C044F40130110581F002301105BF
:101A900009F454C010C10530110509F4D5C00CF487
:101AA000C7C00630110509F4DBC005C1CE0183961D
:101AB0000E94F1182B966CAF7DAF8EAF9FAF2B9726
:101AC0000E945D1D2B968CAD9DADAEADBFAD2B972D
:101AD000AC01BD014E5151096109710943365145AF
:101AE0006140710500F5409105015091060160913A
:101AF00007017091080184179507A607B70799F0A9
:101B000020918F0221110FC080930501909306014F
:101B1000A0930701B0930801BE01695B7F4F88EC79
:101B200090E00E94AB2060910501709106018091C8
:101B30000701909108010E945D1DBDC0BE016F5F4D
:101B40007F4F84E690E00E947820CE0101960E94AB
:101B5000AD1BBE016F5F7F4FCE0183960E941619A9
:101B600081112FC06DEC72E086EE92E00E94721B34
:101B700000E010E08FA198A50817190720F4EBA149
:101B8000FCA1309729F410927602E6E7F2E002C059
:101B9000E00FF11F6081C8018C599F4F0E941121F5
:101BA0000F5F1F4F0D30110529F7BE016F5F7F4F8B
:101BB00084E690E00E947820CE0101960E94AD1B41
:101BC0007AC061EC72E073C0BE016F5F7F4F8CED35
:101BD00090E00E947820BE016F5F7F4FCE01839618
:101BE0000E941619811167C066EB72E086EE92E0E2
:101BF0000E94721B00E010E08FA198A5081719073A
:101C000020F4EBA1FCA1309729F410927602E6E7CC
:101C1000F2E002C0E00FF11F6081C80184529F4FC3
:101C20000E9411210F5F1F4F0D30110529F743C08E
:101C3000CE0183960E94F1186130710581059105EE
:101C4000D1F51092770237C0CE0183960E94F11829
:101C5000613071058105910571F510928F022BC0DD
:101C60007A826982CE0101960E948D05811123C07E
:101C7000CE0183960E94F118162F9A828982CE0196
:101C800001960E948D051817B1F0612F84E091E054
:101C90000E9411216CEA72E086EE92E00E94721BB3
:101CA000111103C068EA72E002C065EA72E086EED4
:101CB00092E00E94721BCE0183960E94E519CE012C
:101CC00089960E94E519E414F50409F06DCE62EEE0
:101CD00072E086EE92E00E940F242090790230900C
:101CE0007A02032C000C4408550857FE0EC06DE222
:101CF00086EE92E00E94841B66277727CB0162194B
:101D00007309840995094AE003C04AE0C201B101A0
:101D10000E941A1D8091990490919A04892B79F060
:101D200068ED72E086EE92E00E940F2460919904C3
:101D300070919A0480E090E04AE00E941A1D86EEBD
:101D400092E00E946E1B6BED71E086EE92E00E94C5
:101D50008B1B6091050170910601809107019091A4
:101D600008010E945D1D0E94E21D40E061E080E0EC
:101D70000E94050500917802CE018F960E94E51918
:101D8000CE018F5B9F4F0E94E519011115C02FEF07
:101D9000C21AD20A0E94542265EE71E086EE92E0E9
:101DA0000E948B1BC6010E94AF1D60ED77E080E0B2
:101DB00090E00E941D12C6C9CE01C5960E94E51989
:101DC000CE01CB960E94E519C25ADF4F0FB6F894A8
:101DD000DEBF0FBECDBFDF91CF911F910F91FF905E
:101DE000EF90DF90CF90BF90AF909F908F907F90BB
:101DF0006F905F904F903F902F9008950F931F9397
:101E0000CF93DF931F92CDB7DEB78C0169830E9419
:101E10008D056981681729F0F801808191810E9400
:101E20003A33C8010F90DF91CF911F910F91089520
:101E3000FC01918D828D981761F0828DDF01A80FD2
:101E4000B11D5D968C91928D9F5F9F73928F90E0F4
:101E500008958FEF9FEF0895FC01918D828D981763
:101E600031F0828DE80FF11D858D90E008958FEFA0
:101E70009FEF0895FC01918D228D892F90E0805C69
:101E80009F4F821B91098F739927089586EE92E0E8
:101E90000E943A0F21E0892B09F420E0822F089557
:101EA000FC01848DDF01A80FB11DA35ABF4F2C91F7
:101EB000848D90E001968F739927848FA689B789C6
:101EC0002C93A089B1898C9180648C93938D848D9F
:101ED000981306C00288F389E02D80818F7D80836E
:101EE0000895EF92FF920F931F93CF93DF93EC012E
:101EF00081E0888F9B8D8C8D981305C0E889F989C6
:101F0000808185FD24C0F62E0B8D10E00F5F1F4FE2
:101F10000F731127E02E8C8DE8120CC00FB607FC52
:101F2000FACFE889F989808185FFF5CFCE010E943B
:101F3000500FF1CF8B8DFE01E80FF11DE35AFF4FDB
:101F4000F0820B8FEA89FB898081806207C0EE896D
:101F5000FF896083E889F98980818064808381E0DA
:101F600090E0DF91CF911F910F91FF90EF90089536
:101F7000CF93DF93EC01888D8823C9F0EA89FB8930
:101F8000808185FD05C0A889B9898C9186FD0FC027
:101F90000FB607FCF5CF808185FFF2CFA889B989FC
:101FA0008C9185FFEDCFCE010E94500FE7CFDF91DE
:101FB000CF91089580E090E0892B29F00E94460F90
:101FC00081110C9400000895833081F028F4813051
:101FD00099F08230A1F008958730A9F08830B9F0E7
:101FE0008430D1F4809180008F7D03C08091800087
:101FF0008F7780938000089584B58F7702C084B571
:102000008F7D84BD08958091B0008F7703C080914B
:10201000B0008F7D8093B00008953FB7F894809111
:10202000E2029091E302A091E402B091E50226B5AC
:10203000A89B05C02F3F19F00196A11DB11D3FBF00
:10204000BA2FA92F982F8827820F911DA11DB11D8E
:10205000BC01CD0142E0660F771F881F991F4A958A
:10206000D1F7089508950895FC0190810180F281CF
:10207000E02DF8948181892B81832281892F80959D
:1020800028232283A7E0B0E01197F1F72181822372
:102090008183A3E2B0E01197F1F780817894EFECAF
:1020A000F0E03197F1F7982381E009F480E008959A
:1020B000FC0190810180F281E02D892F809560FFE5
:1020C00012C0F8942281822382838181892B8183AB
:1020D000A3E2B0E01197F1F78281982B9283789474
:1020E00087ED90E011C0F894228182238283818160
:1020F000892B8183AFEFB0E01197F1F78281982BA4
:10210000928378948FE090E00197F1F70895089515
:1021100020918A0230918B022817390771F490912F
:10212000880280918902981741F0E0918802F0E0DE
:10213000E356FD4F808190E008958FEF9FEF089563
:1021400008951F93CF93DF93DC015C962D913C9112
:102150005D972115310539F481E090E013969C9349
:102160008E9312973DC05196ED91FC9152975096E7
:102170009C915097892F80951FB75E964C915E97E2
:1021800041FB772770F941FD6095F89440817723F2
:1021900011F0492B01C048234083E9012197F1F751
:1021A00048E0508160FF02C0592B01C05823508382
:1021B000E9012197F1F76695415099F7772321F0CE
:1021C00090818923808303C08081982B90831FBFD7
:1021D0005C968D919C915D970197F1F721E030E03D
:1021E000C901DF91CF911F91089520918A0230910A
:1021F0008B022817390771F4809189022091880297
:1022000090E0805C9F4F821B910960E470E00E9427
:102210000634089580E090E0089520918A0230917C
:102220008B0228173907B9F49091880280918902AE
:10223000981789F0E0918802F0E0E356FD4F808125
:102240002091880230E02F5F3F4F2F733327209378
:10225000880290E008958FEF9FEF08950E94203547
:102260001F920F920FB60F9211242F933F934F930B
:102270005F936F937F938F939F93AF93BF93EF93EE
:10228000FF9386EE92E00E94500FFF91EF91BF9175
:10229000AF919F918F917F916F915F914F913F91FE
:1022A0002F910F900FBE0F901F9018951F920F92B5
:1022B0000FB60F9211242F938F939F93EF93FF9359
:1022C000E091F602F091F7028081E091FC02F0913A
:1022D000FD0282FD12C090818091FF028F5F8F739B
:1022E00020910003821751F0E091FF02F0E0EA51E3
:1022F000FD4F958F8093FF0201C08081FF91EF9188
:102300009F918F912F910F900FBE0F901F90189556
:10231000CF93DF93282F30E0F901E851F84F8491F3
:10232000F901EE56F74FD491F901E258F74FC491F5
:10233000CC2391F081110E94E40FEC2FF0E0EE0F1E
:10234000FF1FEC58F74FA591B491EC91ED2381E07C
:1023500090E021F480E002C080E090E0DF91CF9136
:1023600008951F93CF93DF93282F30E0F901E851B0
:10237000F84F8491F901EE56F74FD491F901E258E4
:10238000F74FC491CC23C9F0162F81110E94E40F9E
:10239000EC2FF0E0EE0FFF1FE659F74FA591B49137
:1023A0008FB7F894111105C09C91ED2FE095E923AA
:1023B00002C0EC91ED2BEC938FBFDF91CF911F9179
:1023C0000895CF93DF9390E0FC01EE56F74F2491F0
:1023D000FC01E258F74F8491882361F190E0880F67
:1023E000991FFC01E252F84FC591D491FC01E659C6
:1023F000F74FA591B491611109C09FB7F8948881F6
:10240000209582238883EC912E230BC0623061F4E7
:102410009FB7F8943881822F809583238883EC912D
:102420002E2B2C939FBF06C08FB7F894E8812E2BDC
:1024300028838FBFDF91CF9108958F929F92AF92A3
:10244000BF92CF92DF92EF92FF926B017C010E94CC
:102450000D104B015C01C114D104E104F104F1F051
:102460000E940D10DC01CB0188199909AA09BB094A
:10247000883E9340A105B10570F321E0C21AD1084E
:10248000E108F10888EE880E83E0981EA11CB11CBB
:10249000C114D104E104F10419F7DDCFFF90EF90EE
:1024A000DF90CF90BF90AF909F908F9008952FB7FF
:1024B000F8946091DE027091DF028091E0029091C9
:1024C000E1022FBF08951F920F920FB60F921124B1
:1024D0002F933F938F939F93AF93BF938091DE028F
:1024E0009091DF02A091E002B091E1023091DD0213
:1024F00023E0230F2D3720F40196A11DB11D05C047
:1025000026E8230F0296A11DB11D2093DD028093C2
:10251000DE029093DF02A093E002B093E10280918B
:10252000E2029091E302A091E402B091E5020196EB
:10253000A11DB11D8093E2029093E302A093E402F7
:10254000B093E502BF91AF919F918F913F912F91F1
:102550000F900FBE0F901F9018951F920F920FB6FD
:102560000F9211242F933F934F935F936F937F9319
:102570008F939F93AF93BF93EF93FF93E0910201EB
:10258000F09103010995FF91EF91BF91AF919F9158
:102590008F917F916F915F914F913F912F910F900C
:1025A0000FBE0F901F9018951F920F920FB60F92AB
:1025B00011242F933F934F935F936F937F938F9348
:1025C0009F93AF93BF93EF93FF93E0910001F0913E
:1025D00001010995FF91EF91BF91AF919F918F916B
:1025E0007F916F915F914F913F912F910F900FBE0F
:1025F0000F901F901895DC01E0E0615038F08D914C
:10260000E827F0E0E252F94FE491F7CF8E2F0895DA
:10261000CF92DF92EF92FF920F931F93CF93DF93AE
:102620001F92CDB7DEB76C01E62E08E010E0FF2464
:10263000F39461E08F2D8E2109F460E0C601498397
:102640000E945810FF0C0150110949810115110514
:1026500081F7411115C0F894D6011196ED91FC91C6
:10266000129791818C918095892381831196ED91A8
:10267000FC91129792818C91809589238283789422
:102680000F90DF91CF911F910F91FF90EF90DF900E
:10269000CF900895CF92DF92EF92FF920F931F9306
:1026A000CF93DF931F92CDB7DEB78C01F62E40E0BB
:1026B00065E579830E940813CF2C7981D72E7601A6
:1026C00088E0E80EF11CF60161916F0140E0C8015D
:1026D0000E940813CE14DF04B1F70F90DF91CF9161
:1026E0001F910F91FF90EF90DF90CF900895FC0124
:1026F00090810180F281E02DF8948181292F20952D
:102700008223818378948DE743E050E0815021F16A
:10271000DA011197F1F730813923C1F3F8948281FE
:10272000822382838181892B81837894ABE7B7E010
:102730001197F1F7F894818128232183A3E1B1E077
:102740001197F1F78081982381E009F080E0789477
:10275000E3E6F6E03197F1F70895AF92BF92CF929A
:10276000DF92EF92FF920F931F93CF93DF931F920D
:10277000CDB7DEB75C01E62ED72EFC018585811131
:102780005DC0C5010E947713811105C0F501138654
:10279000158614866BC040E060EFC5010E940813E7
:1027A00001E0F12CC12C11E0C5010E943410682F0A
:1027B000C50169830E9434106981613019F4813048
:1027C000B9F433C04F2D50E068131BC0F501838569
:1027D000181730F4E40FF51F8381802349F402C0F9
:1027E000181731F060E0193058F4F501148708C06B
:1027F000F501EF0DF11D8381802B838361E009C01A
:10280000C12EF501E40FF51F9381802F8095892358
:102810008383C5010E9458101F5F000F11F4F394C9
:1028200001E0F7E0FF1508F0BFCF113438F0F501F3
:10283000C386C11015C081E0858712C0F5011386DB
:102840001586148680E0D5011396EE2DFD2D950199
:10285000255F3F4F9D919193A217B307D9F706C00B
:10286000F5018381882351F381E0EDCF0F90DF9153
:10287000CF911F910F91FF90EF90DF90CF90BF907D
:10288000AF9008956F927F928F929F92AF92BF9276
:10289000CF92DF92EF92FF920F931F93CF93DF932C
:1028A0001F92CDB7DEB78C01F42EFC018581968195
:1028B00059830E944A1340E06EEBF80185819681AE
:1028C0000E9408136F2C5981752E5301F9E0AF0E49
:1028D000B11CF8018580968088E0C82ED12CEE24AA
:1028E000E394F12CC4010E9434108111FE28EE0CF7
:1028F000F1E0CF1AD108B1F7F301F1923F01EA15E7
:10290000FB0539F7F801858196810E94771391E0E4
:10291000813009F090E0892F0F90DF91CF911F91C6
:102920000F91FF90EF90DF90CF90BF90AF909F906E
:102930008F907F906F9008950F931F93CF93DF93A5
:10294000EC01162F60E0812F0E94E111612F70E0F1
:10295000FB01EE56F74FE491E883FB01E258F74F95
:10296000E491F0E0EE0FFF1FEC58F74F8591949142
:102970009A8389831B861D861C86FE013B968E01E9
:102980000D5F1F4F1292E017F107E1F7DF91CF9132
:102990001F910F9108951F920F920FB60F9211245D
:1029A0002F933F934F935F936F937F938F939F9357
:1029B000AF93BF93EF93FF93809181029091820236
:1029C0008093B2008091840290918502A09186024A
:1029D000B09187020196A11DB11D8093840290934E
:1029E0008502A0938602B0938702409184025091A1
:1029F0008502609186027091870280917D0290919C
:102A00007E02A0917F02B0918002481759076A07A1
:102A10007B07B0F080918302811112C081E0809326
:102A20008302109284021092850210928602109204
:102A30008702E0917B02F0917C020995109283025B
:102A4000FF91EF91BF91AF919F918F917F916F9186
:102A50005F914F913F912F910F900FBE0F901F905C
:102A60001895CF93DF93EC018D819E810E9477139F
:102A700040E06CEC8D819E810E940813488164E4E3
:102A80008D819E810E9408138A818823B1F0E9819B
:102A9000E950E33040F4F0E0EE0FFF1FE15FFE4F3E
:102AA0006081718102C06EEE72E0072E000C880B0F
:102AB000990BDF91CF910C941D12DF91CF91089566
:102AC000EF92FF920F931F93CF93DF9300D0CDB778
:102AD000DEB78C017A01FC018581968169837A8356
:102AE0000E94771369817A81882371F0A701C80158
:102AF0000E944214882341F068E0C7010E94FB1243
:102B000091E0F7012085821390E0892F0F900F90BC
:102B1000DF91CF911F910F91FF90EF900895CF9388
:102B2000DF93CDB7DEB729970FB6F894DEBF0FBE9F
:102B3000CDBFFB0120812031D1F0AE014F5F5F4F4F
:102B40000E946015882389F08D818F3361F020F415
:102B50008F3159F489E00CC08F3519F08F3739F077
:102B600004C08BE005C08AE003C080E001C08CE0B7
:102B700029960FB6F894DEBF0FBECDBFDF91CF917F
:102B80000895EF92FF920F931F93CF93DF93CDB7EA
:102B9000DEB761970FB6F894DEBF0FBECDBF8C01D4
:102BA000DC011596ED91FC91169713861586148617
:102BB000DF011B9633961E92AE17BF07E1F7F801AF
:102BC0001482FF24F394BE01665F7F4FF801858174
:102BD00096810E94AD13882309F464C067E0CE019A
:102BE0000A960E94FB1299898913EDCFD8018C9126
:102BF000811126C015968D919C9116970E9477138E
:102C0000BE01665F7F4FF801858196810E944A135D
:102C100040E064EBD80115968D919C9116970E9427
:102C20000813F801858196810E943410E82ED8019E
:102C300015968D919C9116970E947713EE2079F14D
:102C4000F801858196810E947713882349F0AE01AF
:102C50004F5F5F4FBE01665F7F4FC8010E94421405
:102C6000D8011196EC90BE01665F7F4FC8010E94AB
:102C70008F158E1518F4F801818106C0BE01665FBC
:102C80007F4FC8010E948F15D80111968C93119720
:102C900014968C9114978F5F14968C9394CFD801CF
:102CA000FC92CECF61960FB6F894DEBF0FBECDBFBB
:102CB000DF91CF911F910F91FF90EF9008952F9288
:102CC0003F924F925F926F927F928F929F92AF92BC
:102CD000BF92CF92DF92EF92FF920F931F93CF9309
:102CE000DF9300D000D0CDB7DEB7FC014480558023
:102CF0004114510409F413C1FB016480758061140F
:102D0000710409F40CC17A016B019C838B83FA0175
:102D1000A480B580A618B708FC0100811181A11418
:102D2000B104C1F4F60160817181C8010E945B3574
:102D30005C01892B09F4F3C0F70160817181448142
:102D40005581C5010E942535F701048115810A0DC1
:102D50001B1DE8CFB7FE02C0480106C0FB01208062
:102D600031804201C80148C0F60160817181C4010F
:102D70000E945B352C01892B29F1320168187908F2
:102D8000A301B401C8010E942535060D171DF701E6
:102D90006081718144815581C8010E942535F70108
:102DA00084819581080F191FF60184809580840C19
:102DB000951CEB81FC81848195818A0D9B1D9583F7
:102DC0008483D2CFB401C8010F900F900F900F9061
:102DD000DF91CF911F910F91FF90EF90DF90CF90F7
:102DE000BF90AF909F908F907F906F905F904F902B
:102DF0003F902F900C945435B1010E945B350097A1
:102E000029F0860D971D8A0C9B1CF6CF841495041F
:102E100009F485C0EB81FC81828193818815990535
:102E200078F4B4016F5F7F4FC8010E945634009759
:102E300009F475C0EB81FC81918380839382828247
:102E4000EB81FC81048115810150110917FD67C0D8
:102E5000F601248035802114310409F460C0EB812F
:102E6000FC81648075806114710409F458C0621497
:102E7000730408F454C00615170518F083010150B7
:102E80001109EB81FC8140805180C20188248A9421
:102E9000982C9201200F311F2817390758F0F6019E
:102EA0006081718129833A830E945B3529813A814F
:102EB000009761F597FC33C0280C391CC201820DC4
:102EC000931DA30142195309BC018A0D9B1D0E9449
:102ED0002E35EB81FC81848195818A0D9B1D958324
:102EE000848320813181F901E80FF91F1082EB8181
:102EF000FC8180819181F7016081718144815581DC
:102F0000880D991D0E94253584019ECFAC0144197E
:102F100055090417150708F04A010196BDCF0F9017
:102F20000F900F900F90DF91CF911F910F91FF9015
:102F3000EF90DF90CF90BF90AF909F908F907F9059
:102F40006F905F904F903F902F9008950F931F9335
:102F5000CF93DF93EC0188819981009729F02A8132
:102F60003B812617370788F48B016F5F7F4F0E94E4
:102F70005634009761F0998388831B830A832C81E0
:102F80003D81232B11F4FC01108281E001C080E01F
:102F9000DF91CF911F910F910895CF93DF93EC01B3
:102FA00088819981009711F00E945D2E1982188204
:102FB0001D821C821B821A82DF91CF910895EF92AD
:102FC000FF920F931F93CF93DF93EC017B018A0154
:102FD000BA010E94A617811104C0CE010E94CD172C
:102FE00007C01D830C83B701888199810E945435E5
:102FF000CE01DF91CF911F910F91FF90EF90089537
:103000000F931F93CF93DF93CDB7DEB761970FB6C2
:10301000F894DEBF0FBECDBF8C01BE01665F7F4F4F
:103020000E944D1F811105C060E070E08EEF92ECB0
:103030004BC0AE014F5F5F4FBE01665F7F4FC8015F
:103040000E946015882359F1698148E0649FB001AE
:1030500011248A81282F30E0322F2227330F330F9B
:10306000330F262B372B8A858031E1F4688570E099
:103070008F81AB01481B5109CA019695982F88276B
:10308000979587950E94063460517109207F53E01F
:10309000220F331F5A95E1F7620F731F04C060E8D7
:1030A00074EE01C0B901613854EE75070CF4BCCF61
:1030B000072E000C880B990B0E94123220E030E0A2
:1030C00040E05CE30E94713261960FB6F894DEBF77
:1030D0000FBECDBFDF91CF911F910F910895DF9269
:1030E000EF92FF920F931F93CF93DF93CDB7DEB78D
:1030F00029970FB6F894DEBF0FBECDBF8C017B01C0
:10310000AE014F5F5F4F0E946015D82E882309F4EF
:1031100059C0F7018081803109F454C08FE78D8355
:10312000F801858196810E947713B701F8018581A6
:1031300096810E944A1340E06EE4F80185819681F1
:103140000E94081340E06B81F801858196810E94FE
:10315000081340E06C81F801858196810E94081374
:10316000F7018081803139F040E06D81F80185817F
:1031700096810E940813F801858196810E94771339
:10318000B701F801858196810E944A13F8014081B8
:1031900068E4858196810E94081364E170E080E014
:1031A00090E00E941D12F8018081882331F06AE0CE
:1031B00070E080E090E00E941D12F8018581968108
:1031C0000E9477138D2D29960FB6F894DEBF0FBE9F
:1031D000CDBFDF91CF911F910F91FF90EF90DF90C6
:1031E0000895FC0180819181009711F00C94132FB8
:1031F00060E070E0CB010895CF93DF93FC01248160
:103200003581232B71F0FB01DC01CD91DC916081D4
:103210007181CE010E945B35009719F08C1B9D0BCC
:1032200002C08FEF9FEFDF91CF910895FC012481C1
:103230003581232B31F421E061157105A1F0FB01EB
:1032400008C0FC01808191816115710531F421E094
:10325000FC018081882339F005C00E944B3521E0B4
:10326000892B09F020E0822F0895EF92FF920F93AF
:103270001F93CF93DF93FC01248135816115710584
:1032800011F480E019C041155105A9F07B01EC0152
:103290008A01020F131FB8010E94A617882389F321
:1032A000288139818C819D81B701820F931F0E94F3
:1032B00054351D830C8381E0DF91CF911F910F91D5
:1032C000FF90EF900895CF93DF93EC0161157105A6
:1032D00061F0FB0101900020E9F73197AF01461B37
:1032E000570B0E943519811103C0CE010E94CD17E2
:1032F000CE01DF91CF910895CF93DF93EC01FB01D5
:1033000044815581608171810E943519811103C00A
:10331000CE010E94CD17CE01DF91CF910895EF929B
:10332000FF920F931F93CF93DF93EC018B016115F5
:10333000710551F0CB010E94412F7C01BC01CE01EF
:103340000E94A617811104C0CE010E94CD1707C0AC
:10335000FD82EC82B801888199810E943A2FCE01CA
:10336000DF91CF911F910F91FF90EF900895CF9330
:10337000DF93EC016115710559F0FB01019000200C
:10338000E9F73197AF01461B570B0E94DF1702C0C8
:103390000E94CD17CE01DF91CF910895CF93DF9397
:1033A000EC01FB018617970761F06081718161155F
:1033B000710529F0448155810E94DF1702C00E94E7
:1033C000CD17CE01DF91CF910895FC0180819181CD
:1033D0000C945D2EEF92FF920F931F93CF93DF9388
:1033E000CDB7DEB7A1970FB6F894DEBF0FBECDBF45
:1033F0007C01CB01BA01F701118210821382128283
:103400001582148242E0420F8E010F5F1F4F0E940F
:10341000A82DBC01C7010E94B719A1960FB6F89458
:10342000DEBF0FBECDBFDF91CF911F910F91FF90F7
:10343000EF900895FC01118210821382128215828E
:1034400014820C948F19FC01118210821382128253
:10345000158214820C94CE19FC0111821082138201
:103460001282158214826115710551F0FB010190E1
:103470000020E9F73197AF01461B570B0C94DF177B
:1034800008958F929F92AF92BF92CF92DF92EF9268
:10349000FF920F931F93CF93DF93CDB7DEB72C9797
:1034A0000FB6F894DEBF0FBECDBF7C016EEB71E0AE
:1034B000CE0101960E942C1A63E272E0CE010796BB
:1034C0000E942C1AAE014F5F5F4FBE01695F7F4FB4
:1034D000C7010E945F16CE0107960E94E519CE0132
:1034E00001960E94E5196EEB71E0CE0101960E94F3
:1034F0002C1A61E272E0CE0107960E942C1AAE01EE
:103500004F5F5F4FBE01695F7F4FC7010E945F162B
:10351000CE0107960E94E519CE0101960E94E51999
:103520006EEB71E0CE0101960E942C1A6DEB71E0FA
:10353000CE0107960E942C1AAE014F5F5F4FBE016D
:10354000695F7F4FC7010E945F16CE0107960E94F8
:10355000E519CE0101960E94E5196EEB71E0CE01EE
:1035600001960E942C1A68E372E0CE0107960E9431
:103570002C1AAE014F5F5F4FBE01695F7F4FC701DD
:103580000E945F16CE0107960E94E519CE010196B2
:103590000E94E519D701CD90DC901197C114D10498
:1035A00009F443C014960D911C911597011511054E
:1035B000E1F146015401BFEF8B1A9B0AF5018081AE
:1035C000082E000C990B0E94F231892B99F70150BB
:1035D00011090C0D1D1DD8018C91082E000C990BA2
:1035E0000E94F231892B81F4A8014F5F5F4F4A1985
:1035F0005B09F70155834483CA14DB0458F4B50111
:10360000C6010E94253506C00A151B0568F3015046
:103610001109E1CFD701ED91FC91119714968D918D
:103620009C911597E80FF91F10822C960FB6F8940D
:10363000DEBF0FBECDBFDF91CF911F910F91FF90E5
:10364000EF90DF90CF90BF90AF909F908F900895B4
:10365000BF92CF92DF92EF92FF920F931F93CF937F
:10366000DF937C016B018A01E9012417350720F4FF
:10367000812F8901C42FD82F6EEB71E0C7010E9402
:103680002C1AD60114968D919C911597081719073D
:10369000D0F48C179D0708F4EC01D601ED91FC9154
:1036A0001197EC0FFD1FB08010824D915C91BA0113
:1036B000600F711FC7010E94B719D601ED91FC91EF
:1036C000EC0FFD1FB082C701DF91CF911F910F91C9
:1036D000FF90EF90DF90CF90BF9008956CEB71E07A
:1036E0000C9433240F931F93CF93DF93EC010E942C
:1036F0000F248C01CE010E946E1B800F911FDF9161
:10370000CF911F910F910895DC01ED91FC910190F3
:10371000F081E02D09940C943324DC01ED91FC91AF
:10372000DB0114964D915C9115976D917C9102800F
:10373000F381E02D09940F931F93CF93DF93EC0156
:103740000E948D1B8C01CE010E946E1B800F911F69
:10375000DF91CF911F910F910895CF93DF93BC011B
:1037600086EE92E00E943324EC0186EE92E00E9405
:103770006E1B8C0F9D1FDF91CF9108958091D00417
:103780009091D104DC01ED91FC910480F581E02D54
:103790000995892B61F08091D0049091D104DC01CE
:1037A000ED91FC910680F781E02D0995E7CF089512
:1037B000CF92DF92EF92FF921F93CF93DF93EC01B2
:1037C00069EB71E00E941619811109C00E94BE1BAD
:1037D000BE018091D0049091D1040E949B1B0E9455
:1037E00057126B017C01D0E0CAE48091D004909123
:1037F000D104DC01ED91FC910480F581E02D099567
:10380000892BC1F18091D0049091D104DC01ED911C
:10381000FC910680F781E02D0995D53950F0E1E360
:10382000F4E0A6EEB3E09C2F01900D929A95E1F79B
:10383000DAE411E01D0FED2FF0E0EA51FC4F808338
:10384000E12FF0E0EA51FC4F10826091C1047091C9
:10385000C20486EE93E00E945B35892B09F56091E6
:10386000C3047091C40486EE93E00E945B35892BFB
:10387000C9F4D12F0E945712AB01BC014C195D094C
:103880006E097F098091C9049091CA04A0E0B0E05C
:10389000481759076A077B0708F4A7CF80E003C0E1
:1038A00081E001C082E0DF91CF911F91FF90EF9006
:1038B000DF90CF900895CF93DF93CDB7DEB72A97EF
:1038C0000FB6F894DEBF0FBECDBF8C0161E085E07E
:1038D0000E94E111E090CE04F090CF04FA82E982D8
:1038E000CE0101960E948D05898767018FEFC81A66
:1038F000D80ADA82C982CE0101960E948D058A8794
:1039000080919C0490919D049A838983CE010196B5
:103910000E948D0591E0811101C090E090939B047D
:10392000992399F069857A85600F711F78876F8375
:10393000FA82E982CE0101960E94FE0E6885DA8243
:10394000C982CE0101960E94FE0E6EE578E0CE019E
:1039500001960E941A1ACE0101960E94D81BCE0130
:1039600001960E94E51963E578E0CE0101960E9478
:103970001A1ACE0101960E94D81BCE0101960E9410
:10398000E5190FB6F894A89580916000886180933E
:103990006000109260000FBE61E085E00E94B111EE
:1039A00081E492E00E94AD1B0CE310E068EE73E04E
:1039B00080E090E00E941D12A8956FEF71E086EE06
:1039C00092E00E948B1B0150110981F798E088E179
:1039D0000FB6F894A895809360000FBE9093600096
:1039E000FFCFEF92FF920F931F93CF93DF9300D0FF
:1039F000CDB7DEB705E011E0855091407C0197011D
:103A0000200F311F3A832983CE0101960E948D0534
:103A1000F80181938F01F1E009301F0781F785E0FC
:103A200091E00F900F90DF91CF911F910F91FF9038
:103A3000EF9008958F929F92AF92BF920F931F9332
:103A4000CF93DF93CDB7DEB7A1970FB6F894DEBF63
:103A50000FBECDBF19A2423008F44AE08E010F5DBF
:103A60001F4F842E912CA12CB12CA50194010E94F2
:103A70001A34E62FB901CA0101501109EA3014F4D1
:103A8000E05D01C0E95CD801EC93232B242B252BAE
:103A900061F7B80186EE92E00E943324A1960FB63A
:103AA000F894DEBF0FBECDBFDF91CF911F910F9174
:103AB000BF90AF909F908F900895CF93DF934AE08F
:103AC0000E941A1DEC0186EE92E00E946E1B8C0F84
:103AD0009D1FDF91CF9108951F93CF93DF9300D067
:103AE00000D000D0CDB7DEB788E99AE39093CA043E
:103AF0008093C90466E478E0CE0101960E941A1A08
:103B0000CE0101960E94D81B182FCE0101960E946B
:103B1000E519112331F080ED97E09093CA0480936A
:103B2000C90481E026960FB6F894DEBF0FBECDBF64
:103B3000DF91CF911F9108950F931F93CF93DF9340
:103B4000EC0162E20E94841B8C01CE010E946E1B7C
:103B5000800F911FDF91CF911F910F910895CF9208
:103B6000DF92EF92FF92CF93DF936C01990FEE08F3
:103B7000FF08F7FE14C06DE286EE92E00E94841BFF
:103B8000EC0166277727CB016C197D098E099F0907
:103B90004AE00E941A1D7C01EC0EFD1E06C04AE0A0
:103BA000C701B6010E941A1D7C0186EE92E00E94B8
:103BB0006E1B8E0D9F1DDF91CF91FF90EF90DF90D8
:103BC000CF900895CF93DF9300D000D000D0CDB731
:103BD000DEB76AE378E0CE0101960E941A1ACE01A0
:103BE00001960E94D81BCE0101960E94E5192696E7
:103BF0000FB6F894DEBF0FBECDBFDF91CF91089511
:103C0000DF92EF92FF920F931F93CF93DF937C018C
:103C10008B01EA018AE4D82E8091D0049091D104DE
:103C2000DC01ED91FC910480F581E02D0995892B53
:103C3000E1F18091D0049091D104DC01ED91FC91EF
:103C40000680F781E02D099590919E04953958F0F2
:103C5000D0929E04E1E3F4E0A6EEB3E09D2D019046
:103C60000D929A95E1F7A0919E04E1E0EA0FE093AE
:103C70009E04B0E0AA51BC4F8C93F0E0EA51FC4F97
:103C80001082B70186EE93E00E945B35892B39F5EF
:103C90000115110509F2B80186EE93E00E945B352B
:103CA000892B09F4B9CF82E01DC00E945712009100
:103CB0009F041091A0042091A1043091A204AB01B3
:103CC000BC01401B510B620B730BCE01A0E0B0E0B6
:103CD000481759076A077B0720F083E003C081E09B
:103CE00001C080E0DF91CF911F910F91FF90EF9085
:103CF000DF900895EF92FF920F931F93CF93DF937E
:103D000000D000D000D0CDB7DEB77C018B0166E2D9
:103D100078E08091D0049091D1040E940F24B701E3
:103D20008091D0049091D1040E948B1BF801808176
:103D30009181892BC9F58091D0049091D1040E9482
:103D40009C1D64EF71E080E090E00E941D126BEB1F
:103D500074E0CE0101960E94231ACE0101960E94C2
:103D6000D81B182FCE0101960E94E5191123C1F02E
:103D700066E178E08091D0049091D1040E94721B9A
:103D800082E08093920410929E040E9457126093E6
:103D90009F047093A0048093A1049093A20413C085
:103DA00084E0809392040FC06FE38091D0049091DF
:103DB000D1040E94841BB8018091D0049091D10459
:103DC0000E948D1BB8CF80E026960FB6F894DEBF18
:103DD0000FBECDBFDF91CF911F910F91FF90EF905C
:103DE00008951F93CF93DF9300D000D000D0CDB7BC
:103DF000DEB763E078E0CE0101960E941A1ACE0188
:103E000001960E94D81B182FCE0101960E94E51939
:103E100081E0113009F080E026960FB6F894DEBFFD
:103E20000FBECDBFDF91CF911F910895CF93DF9348
:103E300000D000D000D0CDB7DEB76CEF77E0CE0178
:103E400001960E941A1ACE0101960E94D81BCE013B
:103E500001960E94E51964E572E086EE93E00E9407
:103E60005B35009751F005960E94F52E833691053B
:103E700021F08F3F2FEF920709F480E026960FB6CE
:103E8000F894DEBF0FBECDBFDF91CF91089541E022
:103E900050E06FE471E00C943519CF93DF93EB01A0
:103EA000DC011596ED91FC91169713861586148604
:103EB000DF011B9633961E92AE17BF07E1F7BE01D6
:103EC000FC01858196810E94AD13882349F067E04B
:103ED000CE010E94FB129F81891302C081E001C0C4
:103EE00080E0DF91CF9108950F931F930E945712A6
:103EF000A8950091030510910405209105053091C6
:103F000006059B01201B310B309302052093010510
:103F1000609303057093040580930505909306054F
:103F20008091010590910205803F9B403CF080917B
:103F30000105909102058E3F9B407CF08091010528
:103F40009091020588359340E4F0809101059091AD
:103F500002058636934054F114C082E090E09093BD
:103F60008D0280938C028091FF0490910005019650
:103F7000909300058093FF048091FF0490910005C9
:103F800028C080910105909102058F3591409CF1E8
:103F900080910105909102058237914064F583E09C
:103FA00090E090938D0280938C0225C081E090E098
:103FB00090938D0280938C028091FD049091FE0479
:103FC00001969093FE048093FD048091FD049091EE
:103FD000FE048B3F91057CF010928D0210928C02B2
:103FE000809170008E7F80937000809199049091F1
:103FF0009A040E945B1C1F910F9108951F920F92CB
:104000000FB60F9211242F933F934F935F936F93AB
:104010007F938F939F93AF93BF93EF93FF93E09121
:104020008A02F0918B02309709F451C0968DA685D3
:10403000B785858591FF04C09C91892329F447C0E9
:104040009C91892309F043C0A389B4899C918589F7
:10405000809589238C93868997890197F1F7608DE4
:10406000718DA685B785558538E020E0CB01019795
:10407000F1F7822F90E095958795282F4C91452355
:1040800009F02068315091F7868D81FD209580914F
:10409000890290E001968F73992730918802381732
:1040A00049F0A0918902B0E0A356BD4F2C938093B4
:1040B000890203C0868D8160868F828D938D0197E2
:1040C000F1F7A389B4899C918589892B8C93FF9101
:1040D000EF91BF91AF919F918F917F916F915F9180
:1040E0004F913F912F910F900FBE0F901F901895F9
:1040F000AF92BF92CF92DF92EF92FF920F931F93F6
:10410000CF93DF9300D0CDB7DEB78B016B0120E1F9
:10411000C20ED11C7B015C01A61AB70A95012E0DB7
:104120003F1D3A832983CE0101960E948D05F70138
:1041300081937F01EC15FD0589F7C8010F900F9061
:10414000DF91CF911F910F91FF90EF90DF90CF9073
:10415000BF90AF900895AF92BF92CF92DF92EF924F
:10416000FF920F931F93CF93DF9300D0CDB7DEB7AD
:104170008B016B0124E0C20ED11C7B015C01A61AED
:10418000B70A95012E0D3F1DF70161917F013A831A
:104190002983CE0101960E94FE0EEC14FD0489F7DE
:1041A000C8010F900F90DF91CF911F910F91FF9059
:1041B000EF90DF90CF90BF90AF900895AF92BF92F5
:1041C000CF92DF92EF92FF920F931F93CF93DF93E3
:1041D00000D0CDB7DEB78B016B012FE0C20ED11C32
:1041E0007B015C01A61AB70A95012E0D3F1D3A838B
:1041F0002983CE0101960E948D05F70181937F01ED
:10420000EC15FD0589F7C8010F900F90DF91CF9154
:104210001F910F91FF90EF90DF90CF90BF90AF90E4
:1042200008950C943A33CF92DF92EF92FF920F935E
:104230001F93CF93DF9300D000D000D0CDB7DEB76F
:104240008C017B016CE379E0CE0101960E941A1A81
:10425000BE016F5F7F4FC8010E94FC186C01CE0148
:1042600001960E94E519D7FC16C088E290E0A0E014
:10427000B0E08093050190930601A0930701B093ED
:10428000080181E080938F0268E270E080E090E0B6
:104290000E945D1DFAC064E379E0CE0101960E94A0
:1042A0001A1ABE016F5F7F4FC8010E94FC186C0193
:1042B000CE0101960E94E519D7FC0EC0B70186EE2B
:1042C00092E00E948D1B6EEF71E086EE92E00E94FC
:1042D0008B1B6CE279E032C064E279E0CE0101969A
:1042E0000E941A1ABE016F5F7F4FC8010E94FC181E
:1042F0007C01CE0101960E94E519F7FC05C01092E1
:104300008F026CE179E0BDC066E179E0CE010196F3
:104310000E941A1ABE016F5F7F4FC8010E94FC18ED
:104320007C01CE0101960E94E519F7FC17C061E0FF
:1043300088E790E00E9411216AE079E086EE92E041
:104340000E94721B60ED77E080E090E00E941D12F9
:104350008091990490919A040E945B1C63E079E03B
:10436000CE0101960E941A1ABE016F5F7F4FC801ED
:104370000E94FC187C01CE0101960E94E519F7FC11
:1043800008C060E088E790E00E94112166EF78E0C5
:10439000D5CF62EF78E0CE0101960E941A1ABE01D5
:1043A0006F5F7F4FC8010E94FC187C01CE0101960F
:1043B0000E94E519F7FC08C061E088E191E00E94E5
:1043C000112168EE78E05DC063EE78E0CE010196E1
:1043D0000E941A1ABE016F5F7F4FC8010E94FC182D
:1043E0007C01CE0101960E94E519F7FC08C060E04F
:1043F00088E191E00E94112168ED78E042C062ED11
:1044000078E0CE0101960E941A1ABE016F5F7F4FBD
:10441000C8010E94FC187C01CE0101960E94E5199A
:10442000F7FC0DC061E084E091E00E94112161E0A1
:1044300088E091E00E94112168EC78E022C061ECF4
:1044400078E0CE0101960E941A1ABE016F5F7F4F7D
:10445000C8010E94FC188C01CE0101960E94E5194A
:1044600017FD0DC060E084E091E00E94112160E042
:1044700088E091E00E94112166EB78E002C066EAD4
:1044800078E086EE92E00E94721B26960FB6F894B2
:10449000DEBF0FBECDBFDF91CF911F910F91FF9077
:1044A000EF90DF90CF9008950F931F93CF93DF93FA
:1044B000CDB7DEB7A8970FB6F894DEBF0FBECDBF5D
:1044C00089E592E09093C2048093C1048091C7046F
:1044D0009091C8049093C4048093C30464E479E089
:1044E000CE0101960E941A1ACE0101960E94D81B95
:1044F000182FCE0101960E94E519113009F05FC016
:104500008091D0049091D104DC01ED91FC91048064
:10451000F581E02D0995892B09F18091D0049091C6
:10452000D104DC01ED91FC910680F781E02D099525
:104530008093CC049093CD0489831A8241E050E0AB
:10454000BE016F5F7F4F83E994E00E9435196AE0F6
:1045500070E080E090E00E941D12D2CF8091C504EF
:104560009091C6049093C2048093C1048091C704C3
:104570009091C8049093C4048093C3046CEA79E0DA
:1045800086EE92E00E940F2463E974E086EE92E0EA
:104590000E949B1B60E672E0CE0101960E942C1ADD
:1045A000BE016F5F7F4F83E994E00E94FC188C018D
:1045B000CE0101960E94E51917FF12C0CEC080916E
:1045C000C5049091C6049093C2048093C104809165
:1045D000C7049091C8049093C4048093C304E9C0B5
:1045E000BE016F5F7F4F84E690E00E947820BE019D
:1045F0006F5F7F4FCE0183960E942C1ABE016F5FC2
:104600007F4F8CED90E00E947820BE016F5F7F4F5E
:10461000CE014D960E942C1A68EE75E0CE014196AF
:104620000E941A1ACE0141960E94D81B182FCE0163
:1046300041960E94E519113009F4B4C0BE016D5DC8
:104640007F4F83E994E00E94FC1897FD0AC063E95C
:1046500079E086EE92E00E94721BBE016D5D7F4F95
:1046600012C0BE01635E7F4F83E994E00E94FC1894
:1046700097FD23C069E879E086EE92E00E94721B04
:10468000BE01635E7F4FCE0147960E94231A63E905
:1046900074E0CE0141960E94231ABE01695E7F4FED
:1046A000CE0141960E941321CE0141960E94E51948
:1046B000CE0147960E94E51948C063E879E0CE0133
:1046C00041960E941A1ABE016F5E7F4F83E994E003
:1046D0000E94FC188C01CE0141960E94E51917FD3D
:1046E0000DC061E084E091E00E94112161E088E06A
:1046F00091E00E94112169E779E023C062E779E047
:10470000CE0141960E941A1ABE016F5E7F4F83E967
:1047100094E00E94FC188C01CE0141960E94E5199C
:1047200017FD0DC060E084E091E00E94112160E07F
:1047300088E091E00E94112167E679E002C069E516
:1047400079E086EE92E00E94721BCE014D960E94A7
:10475000E519CE0183960E94E5196BE672E0CE0161
:1047600001960E942C1ABE016F5F7F4F83E994E08F
:104770000E94FC188C01CE0101960E94E51917FDDC
:104780000AC00E94F11E882331F06EE479E086EEC3
:1047900092E00E94721B6EEB71E083E994E00E944C
:1047A000B71907C061EA79E086EE92E00E94721BB9
:1047B00045CFA8960FB6F894DEBF0FBECDBFDF91F0
:1047C000CF911F910F910895CF92DF92EF92FF92B8
:1047D0000F931F93CF93DF936C017A018B01C0E09D
:1047E000D0E0CE15DF0589F0D8016D918D01D6019D
:1047F000ED91FC910190F081E02DC6010995892B86
:1048000011F47E0102C02196ECCFC701DF91CF9158
:104810001F910F91FF90EF90DF90CF900895EF924E
:10482000FF920F931F93CF93DF938C017B01C0E026
:10483000D0E0F701EC0FFD1F6491662361F0D80111
:10484000ED91FC910190F081E02DC8010995892B33
:1048500011F02196EECFCE01DF91CF911F910F91F4
:10486000FF90EF9008956115710579F0FB010190BB
:104870000020E9F73197AF01461B570BDC01ED91A2
:10488000FC910280F381E02D099480E090E008958E
:10489000CF93DF93CDB7DEB765970FB6F894DEBF41
:1048A0000FBECDBF789484B5826084BD84B581602D
:1048B00084BD85B5826085BD85B5816085BD8091EB
:1048C0006E00816080936E00109281008091810063
:1048D000826080938100809181008160809381005B
:1048E000809180008160809380008091B10084601D
:1048F0008093B1008091B00081608093B00080917E
:104900007A00846080937A0080917A00826080933C
:104910007A0080917A00816080937A0080917A0099
:10492000806880937A001092C1000FB6F894A89521
:1049300080916000886180936000109260000FBEDB
:10494000E091F602F091F70282E08083E091F202BA
:10495000F091F3021082E091F402F091F50280E10F
:1049600080831092FE02E091FA02F091FB0286E051
:104970008083E091F802F091F90280818061808368
:10498000E091F802F091F902808188608083E091E3
:10499000F802F091F902808180688083E091F8024A
:1049A000F091F90280818F7D808365E876E086EE64
:1049B00092E00E94721B61E086E00E94E11160E0DB
:1049C00086E00E94B11161E08DE00E94E11161E09A
:1049D00085E00E94E11161E08AE00E94E11161E05E
:1049E0008FE00E94E11161E08EE00E94E11160E041
:1049F00083E00E94E11160E089E00E94E11160E043
:104A00008CE00E94E11161E08CE00E94B11161E054
:104A100082E10E94E11161E082E10E94B11140E077
:104A200060E081E00E9405056CE271E080E090E0CA
:104A30000E941D1240E061E080E00E9405056CE2EA
:104A400071E080E090E00E941D1241E060E080E0B3
:104A50000E9405056CE271E080E090E00E941D126A
:104A600040E060E081E00E94050588ED93E09093CE
:104A7000AF038093AE031092AD031092A90399E0A7
:104A80009093AA0381E08093AB038093AC032AEC5C
:104A900033E030939C0320939B0310929A0310926F
:104AA00096039093970380939803809399032CEB3C
:104AB00033E0309389032093880310928703109288
:104AC000830390938403809385038093860389EA0C
:104AD00093E00E94C11586E993E00E94C11583E826
:104AE00093E00E94C115BE016F5F7F4F89EA93E09A
:104AF0000E944D1F882339F0BE016F5F7F4F89EA06
:104B000093E00E946F18BE016F5F7F4F86E993E0CC
:104B10000E944D1F882339F0BE016F5F7F4F86E9E9
:104B200093E00E946F18BE016F5F7F4F83E893E0B0
:104B30000E944D1F882339F0BE016F5F7F4F86E9C9
:104B400093E00E946F1868E873E180E090E00E94B3
:104B50001D1299E288E10FB6F894A8958093600041
:104B60000FBE909360001A8619868E01075F1F4F53
:104B7000C8010E948D05863209F473C062E776E0B1
:104B800086EE92E00E94721BC12CD12C60E0C6011F
:104B90000E9411212FEFC21AD20A3FEFC31633E051
:104BA000D306A1F766E280E090E00E94112165E063
:104BB00071E088EC90E00E94AB2081E0A82E82E0BA
:104BC000B82E94E6C92ED12CD5016D915D01DA86FF
:104BD000C986C8010E94FE0EBFEFCB1ADB0AE1E7CF
:104BE000CE16D10489F7AEE0AA2EA2E0BA2EBCED13
:104BF000CB2ED12CD5016D915D01DA86C986C80115
:104C00000E94FE0EBFEFCB1ADB0AEBEECE16D104EC
:104C100089F761E088E790E00E94112164E676E080
:104C200086EE92E00E94721BC12CD12C6C2D8EE07E
:104C300091E00E941121C6010E94AF1D68EE73E051
:104C400080E090E00E941D12FFEFCF1ADF0A2FE0F4
:104C5000C216D10459F763E576E086EE92E00E9431
:104C6000721B8EE091E09A878987C8010E948D05AA
:104C70008B3018F066E476E002C063E376E086EEFF
:104C800092E00E94721B84E79FE19093030180935E
:104C90000201809169008C6080936900E99A88EC38
:104CA00090E00E94F11C88E790E09A878987C8010C
:104CB0000E948D0591E0811101C090E09093040164
:104CC00065E276E086EE92E00E940F246091050195
:104CD0007091060180910701909108010E945D1D6D
:104CE00066E176E086EE92E00E940F24809107054F
:104CF00090910805009711F48BE095E0A801481BFE
:104D0000590BCA010E94AF1D809170008E7F809365
:104D100070008091B0008C7F8093B0008091B100D2
:104D2000877F8093B1008091B6008F7D8093B6001D
:104D3000809170008D7F809370008091B1008460BD
:104D40008093B1008091B1008C7F8093B10086E0A8
:104D500090E090938202809381028CE291E0A0E047
:104D6000B0E080937D0290937E02A0937F02B09387
:104D700080028EE195E090937C0280937B021092FA
:104D8000840210928502109286021092870210927D
:104D9000830280918102909182028093B20080917F
:104DA00070008160809370005DEC252E312C65E5EC
:104DB000462E512C7BEC872E912CE0E96E2E712C27
:104DC000EE24E394FEEDAF2EF4E0BF2E60EC75E030
:104DD00086EE92E00E94721B60E086E00E94B111B4
:104DE00060E08DE00E94B11161E085E00E94B111A8
:104DF00089E00E948811892B39F064E670E080E038
:104E000090E00E941D12F4CF68EE73E080E090E025
:104E10000E941D1261E08DE00E94B11160E085E00A
:104E20000E94B11168EE73E080E090E00E941D12D4
:104E300061E086E00E94B11160EB74E080E090E0F8
:104E40000E941D1260E086E00E94B11145E6C42E6A
:104E5000D12C89E00E948811892B61F451E0C51A98
:104E6000D10809F4D4C364E670E080E090E00E94C9
:104E70001D12EFCF60EB75E086EE92E00E94721B90
:104E80001092F9041092F8041092F7041092F604AC
:104E90001092F5041092F4043092FB042092FA046C
:104EA0008091EA04863108F053C05092F504409294
:104EB000F4049092F7048092F6047092F9046092E0
:104EC000F80490916800883058F021E08E3008F4A2
:104ED00020E0AE2D01C0AA0F2A95EAF72A2F01C0C3
:104EE00024E0922B90936800883038F08E3040F0A8
:104EF000863148F020E030E008C02DE630E005C003
:104F00002BE630E002C02CE630E03093F204209330
:104F1000F104883038F4BE2D01C0BB0F8A95EAF742
:104F20008B2F0EC0282F30E08E3018F42850310916
:104F300002C02E5031098E2D01C0880F2A95EAF744
:104F40008093F3048091FA049091FB040197F1F7A8
:104F50008091F8049091F904892B39F1E0918A024B
:104F6000F0918B0224E0EE3DF207F9F0309739F032
:104F7000A389B4899C918589809589238C9380919C
:104F8000FC048E7F8093FC041092890210928802A8
:104F9000B0928B02A0928A02E091F104F091F204A7
:104FA00090818091F304892B8083B092D104A092E8
:104FB000D0043EE0C32ED12C8091D0049091D10436
:104FC000DC01ED91FC910480F581E02D0995892BA0
:104FD00061F08091D0049091D104DC01ED91FC91BD
:104FE0000680F781E02D0995E7CF6AE174E0C801FA
:104FF0000E941A1AC8010E94D81B282FC8012D8BA5
:105000000E94E5192D8921113DC064EF71E080E017
:1050100090E00E941D12B1E0CB1AD10869F667E159
:1050200074E0C8010E941A1AC8010E94D81BC80166
:105030000E94E51964E670E080E090E00E941D1295
:1050400064E174E0C8010E941A1AC8010E94D81BCA
:10505000C8010E94E51964E670E080E090E00E94DB
:105060001D1261E174E0C8010E941A1AC8010E9471
:10507000D81BC8010E94E51964E670E080E090E06A
:105080000E941D126EE074E0C8010E941A1AC80145
:105090000E94D81BD82EC8010E94E519DD2009F412
:1050A000BCC261E074E0C8010E941A1AC8010E94E3
:1050B000D81BC8010E94E51964E670E080E090E02A
:1050C0000E941D126CEF73E0C8010E941A1AC801F9
:1050D0000E94D81BC8010E94E51964E670E080E0D8
:1050E00090E00E941D1262EF73E0C8010E941A1A3C
:1050F000C8010E94D81BC8010E94E51964E670E04F
:1051000080E090E00E941D1268EE73E0C8010E94EA
:105110001A1AC8010E94D81BC8010E94E51964E64A
:1051200070E080E090E00E941D126EED73E0C80117
:105130000E941A1AC8010E94D81BC8010E94E519D2
:1051400064E670E080E090E00E941D1260ED73E084
:10515000C8010E941A1AC8010E94D81BC8010E94E7
:10516000E51964E670E080E090E00E941D1264E6BC
:1051700070E080E090E00E941D1262EC73E0C801D4
:105180000E941A1AC8010E94D81BC8010E94E51982
:1051900063E975E086EE92E00E94721B65E775E0B8
:1051A00086EE92E00E940F2480918C0290918D02F5
:1051B000029769F063E775E086EE92E00E940F24A3
:1051C00068EE73E080E090E00E941D12EDCF68EE83
:1051D00073E080E090E00E941D126DE174E0C80170
:1051E0000E941A1AC8010E94D81BD82EC8010E941A
:1051F000E519E1E0DE122AC06DE070E086EE93E092
:105200000E944035009711F16C01F2E0CF0ED11CE5
:105210006DE070E0C6010E944035009711F0DC019E
:105220001C92B60186EE93E00E9454356CE675E060
:1052300086EE92E00E940F2488ED94E00E94411ACD
:1052400068ED74E086EE92E00E949B1B64E274E0DD
:10525000C8010E941A1AC8010E94D81BD82EC80182
:105260000E94E519B1E0DB1241C06DE070E086EE0E
:1052700093E00E9440350097C9F16C01E2E0CE0E48
:10528000D11C6DE070E0C6010E944035009711F01E
:10529000DC011C92B60186EE93E00E945435E6EEE6
:1052A000F3E08191863661F090ED980F9A3020F40A
:1052B000DF01AB56BF4F8C93B4E0EE35FB0789F7A7
:1052C00061E675E086EE92E00E940F246CE774E0E0
:1052D00082ED94E00E94B71982ED94E00E94411A99
:1052E00062ED74E086EE92E00E949B1B2EE1D22ECE
:1052F0006CE274E0C8010E941A1AC8010E94D81B0F
:10530000C82EC8010E94E519CC2059F06DE172E069
:1053100086EE93E00E945B35009719F0FC01F28065
:1053200009C068EE73E080E090E00E941D12DA94FC
:10533000D110DECF60E575E086EE92E00E940F248A
:105340006F2D86EE92E00E94841B6DE475E086EE80
:1053500092E00E940F24F0E3FF1203C06DE375E0BA
:105360000BC021E3F21203C06AE275E01BC032E316
:10537000F31207C06EE075E086EE92E00E94721BA9
:1053800025CD43E3F41203C066E075E0F5CF54E3A6
:10539000F51203C06DEF74E0EFCF85E3F8123AC267
:1053A00069EE74E086EE92E00E94721B80918C029E
:1053B00090918D02029709F009CD0E94161FF82ED8
:1053C00061EE74E086EE92E00E940F246F2D70E093
:1053D00080E090E04AE00E941A1D86EE92E00E9472
:1053E0006E1B68EE73E080E090E00E941D1261ED9C
:1053F00074E086EE92E00E94721B68EC74E0C801D3
:105400000E941A1AC8010E94D81BF82EC8010E94D7
:10541000E51991E0F912BDC060E272E086EE93E01A
:105420000E945B35009709F4B4C07C01A2E0EA0E4B
:10543000F11C62E270E0C7010E944035009711F054
:10544000FC011082B70186EE93E00E94543566EEAF
:1054500073E0CE010F960E942C1A64EC74E0C80130
:105460000E941A1AB801CE010F960E94FC187C0106
:10547000C8010E94E519F7FC21C064EB74E083EADF
:1054800094E00E948F1960EB74E089EA94E00E9436
:105490008F196CEA74E08FEA94E00E948F196CE92E
:1054A00074E085EB94E00E948F1968E974E086EE61
:1054B00092E00E94721B1092CB0461C064E974E018
:1054C000C8010E941A1AB801CE010F960E94FC185A
:1054D0007C01C8010E94E519F7FC20C060E874E077
:1054E00083EA94E00E948F1968E774E089EA94E007
:1054F0000E948F1960E774E08FEA94E00E948F1990
:105500006CE574E085EB94E00E948F1964E574E02B
:1055100086EE92E00E94721B81E02FC06FE474E07F
:10552000C8010E941A1AB801CE010F960E94FC18F9
:105530007C01C8010E94E519F7FC21C066E474E013
:1055400083EA94E00E948F196EEB71E089EA94E09F
:105550000E94B7196EEB71E08FEA94E00E94B719D0
:105560006DE374E085EB94E00E948F1965E374E0CD
:1055700086EE92E00E94721B82E08093CB0463EA85
:1055800074E086EE92E00E949B1BCE010F960E9473
:10559000E51963E176E086EE92E00E94721B0E94BC
:1055A000F11E882331F064E076E086EE92E00E94FE
:1055B000721B0E949205809170008E7F8093700014
:1055C00040E061E080E00E9405050E945712609370
:1055D000900270939102809392029093930262EFF3
:1055E00075E086EE92E00E94721B8E010F5F1F4FE6
:1055F00088EE882E83E0982EA12CB12C94E0292EE1
:105600003324339489E00E948811892B69F48091B6
:10561000990490919A040E945B1C66E975E086EEFD
:1056200092E00E94721BFFCF0E9454220E945712E8
:105630002B013C0180918F02811104C088EC90E025
:105640000E94F11C8091990290919A02A0919B0274
:10565000B0919C0273016201C81AD90AEA0AFB0AD6
:1056600020910501309106014091070150910801F8
:10567000A8EEB3E00E944833C616D706E806F9063E
:10568000E0F160ED76E086EE92E00E940F248091DA
:10569000990290919A02A0919B02B0919C02A30161
:1056A0009201281B390B4A0B5B0BCA01B901A501FA
:1056B00094010E941A34CA01B9010E945D1D4092F2
:1056C000990250929A0260929B0270929C020E94F0
:1056D000920561EC76E086EE92E00E940F24409104
:1056E0000705509108054115510511F44BE055E0AF
:1056F000C801841B950B0E94AF1D0E9457122B01FD
:105700003C018091950290919602A0919702B091F0
:105710009802A3019201281B390B4A0B5B0BDA019B
:10572000C90180369C4CA540B10580F16EEA76E057
:1057300086EE92E00E940F2480919502909196024D
:10574000A0919702B0919802A3019201281B390BF6
:105750004A0B5B0BCA01B901A50194010E941A34DE
:10576000CA01B9010E945D1D41E060E080E00E9435
:1057700005054092950250929602609297027092AF
:10578000980240E061E080E00E9405053A822982AB
:10579000C8010E948D0580938E0290919402891712
:1057A000D1F091E0811101C090E0909394028111B9
:1057B00008C063EA76E086EE92E00E94721B61E028
:1057C00007C069E976E086EE92E00E94721B60E015
:1057D00082E10E94B1110E945712409090025090B5
:1057E00091026090920270909302DC01CB018419C7
:1057F0009509A609B70981309C45A642B54008F035
:1058000006CF64EF71E080E090E00E941D120E94DC
:10581000DA0FF8CE41E3F412D9CAC8CD1092E902EA
:105820001092E80288EE93E0A0E0B0E08093EA02F4
:105830009093EB02A093EC02B093ED0229E131E0EA
:105840003093E7022093E60225EC30E03093F30238
:105850002093F20224EC30E03093F5022093F4021E
:1058600020EC30E03093F7022093F60221EC30E098
:105870003093F9022093F80222EC30E03093FB02DF
:105880002093FA0226EC30E03093FD022093FC02D4
:105890001092FF0210920003109201031092020373
:1058A0001092E1041092E0048093E2049093E304E8
:1058B000A093E404B093E50489E291E09093DF04BF
:1058C0008093DE041092F5041092F4041092F70411
:1058D0001092F6041092F9041092F8041092FB044E
:1058E0001092FA046091FC046E7F6D7F6093FC045B
:1058F0006695617081E0682787E00E94B11161E0E0
:1059000087E00E94E111E9E9F8E0E491E093EE0418
:10591000E5E8F8E0E491F0E0EE0FFF1FE659F74FFD
:10592000859194919093F0048093EF0460E088E077
:105930000E94E1118091FC0481FD04C061E088E0D7
:105940000E94B11188E08093EA04EAE9F8E0E4916A
:10595000E093EB04E6E8F8E0E491F0E0EE0FFF1FDF
:10596000EC58F74F859194919093ED048093EC045B
:1059700066E272E088ED94E00E942C1A6EEB71E012
:1059800082ED94E00E942C1A109292046EEB71E06A
:1059900083E994E00E942C1A10929A0410929904C0
:1059A00010929B0488E191E090939D0480939C0465
:1059B0006EEB71E083EA94E00E942C1A6EEB71E0CA
:1059C00089EA94E00E942C1A6EEB71E08FEA94E071
:1059D0000E942C1A6EEB71E085EB94E00E942C1A69
:1059E00069EB71E08BEB94E00E942C1A26E332E025
:1059F0003093C2042093C1048AE392E09093C404DC
:105A00008093C3043093C6042093C5049093C804C4
:105A10008093C70480ED97E09093CA048093C904F3
:105A20001092CB041092CD041092CC0480EA90E046
:105A30009093CF048093CE0460E188ED93E00E94C0
:105A40009C1461E18AEC93E00E949C1464E08CEB6E
:105A500093E00E949C1427E830E13093BB0320932D
:105A6000BA0388ED93E09093AF038093AE03109256
:105A7000AD031092A90399E09093AA0381E080936B
:105A8000AB038093AC033093A8032093A7034AECA5
:105A900053E050939C0340939B0310929A031092FF
:105AA0009603909397038093980380939903309380
:105AB0009503209394032CEB33E0309389032093D8
:105AC000880310928703109283039093840380933A
:105AD00085038093860308958BEB94E00E94E5197B
